{
  "transactions": [
    {
      "hash": "0x8847f6869a8263b34294c3d902f20237c1122a172fafb66b5fae278ef6a083ef",
      "transactionType": "CALL",
      "contractName": null,
      "contractAddress": "0xeb9f1639f3270fe520f1a34b98b0226e360b9097",
      "function": "setEnforcedOptions((uint32,uint16,bytes)[])",
      "arguments": [
        "[(30184, 1, 0x00030100110100000000000000000000000000013880), (30111, 1, 0x000301001101000000000000000000000000000186a0)]"
      ],
      "transaction": {
        "from": "0x0ece75f3c36f7df2136dac7633165dbff53de3cd",
        "to": "0xeb9f1639f3270fe520f1a34b98b0226e360b9097",
        "gas": "0x1bd63",
        "value": "0x0",
        "input": "0xb98bd07000000000000000000000000000000000000000000000000000000000000000200000000000000000000000000000000000000000000000000000000000000002000000000000000000000000000000000000000000000000000000000000004000000000000000000000000000000000000000000000000000000000000000e000000000000000000000000000000000000000000000000000000000000075e80000000000000000000000000000000000000000000000000000000000000001000000000000000000000000000000000000000000000000000000000000006000000000000000000000000000000000000000000000000000000000000000160003010011010000000000000000000000000001388000000000000000000000000000000000000000000000000000000000000000000000000000000000759f000000000000000000000000000000000000000000000000000000000000000100000000000000000000000000000000000000000000000000000000000000600000000000000000000000000000000000000000000000000000000000000016000301001101000000000000000000000000000186a000000000000000000000",
        "nonce": "0x1ed",
        "chainId": "0x2105"
      },
      "additionalContracts": [],
      "isFixedGasLimit": false
    },
    {
      "hash": "0xf336a15e8a07f16b2334199d4853d7a795af4beb551ab8e35bd32650c6516fb6",
      "transactionType": "CALL",
      "contractName": null,
      "contractAddress": "0x00ba39332e93b0f9fa0a29035704402ef25733c8",
      "function": "setEnforcedOptions((uint32,uint16,bytes)[])",
      "arguments": [
        "[(30184, 1, 0x00030100110100000000000000000000000000013880), (30111, 1, 0x000301001101000000000000000000000000000186a0)]"
      ],
      "transaction": {
        "from": "0x0ece75f3c36f7df2136dac7633165dbff53de3cd",
        "to": "0x00ba39332e93b0f9fa0a29035704402ef25733c8",
        "gas": "0x1bd63",
        "value": "0x0",
        "input": "0xb98bd07000000000000000000000000000000000000000000000000000000000000000200000000000000000000000000000000000000000000000000000000000000002000000000000000000000000000000000000000000000000000000000000004000000000000000000000000000000000000000000000000000000000000000e000000000000000000000000000000000000000000000000000000000000075e80000000000000000000000000000000000000000000000000000000000000001000000000000000000000000000000000000000000000000000000000000006000000000000000000000000000000000000000000000000000000000000000160003010011010000000000000000000000000001388000000000000000000000000000000000000000000000000000000000000000000000000000000000759f000000000000000000000000000000000000000000000000000000000000000100000000000000000000000000000000000000000000000000000000000000600000000000000000000000000000000000000000000000000000000000000016000301001101000000000000000000000000000186a000000000000000000000",
        "nonce": "0x1ee",
        "chainId": "0x2105"
      },
      "additionalContracts": [],
      "isFixedGasLimit": false
    },
    {
      "hash": "0x9573fed9e0aee0239c12df94330a62186754b18dcdf4eaa3e9edfd18920c0df3",
      "transactionType": "CALL",
      "contractName": null,
      "contractAddress": "0x62601f0ddc60da8eea79746fbeb89ed8e6f87ad6",
      "function": "setEnforcedOptions((uint32,uint16,bytes)[])",
      "arguments": [
        "[(30184, 1, 0x00030100110100000000000000000000000000013880), (30111, 1, 0x000301001101000000000000000000000000000186a0)]"
      ],
      "transaction": {
        "from": "0x0ece75f3c36f7df2136dac7633165dbff53de3cd",
        "to": "0x62601f0ddc60da8eea79746fbeb89ed8e6f87ad6",
        "gas": "0x1bd63",
        "value": "0x0",
        "input": "0xb98bd07000000000000000000000000000000000000000000000000000000000000000200000000000000000000000000000000000000000000000000000000000000002000000000000000000000000000000000000000000000000000000000000004000000000000000000000000000000000000000000000000000000000000000e000000000000000000000000000000000000000000000000000000000000075e80000000000000000000000000000000000000000000000000000000000000001000000000000000000000000000000000000000000000000000000000000006000000000000000000000000000000000000000000000000000000000000000160003010011010000000000000000000000000001388000000000000000000000000000000000000000000000000000000000000000000000000000000000759f000000000000000000000000000000000000000000000000000000000000000100000000000000000000000000000000000000000000000000000000000000600000000000000000000000000000000000000000000000000000000000000016000301001101000000000000000000000000000186a000000000000000000000",
        "nonce": "0x1ef",
        "chainId": "0x2105"
      },
      "additionalContracts": [],
      "isFixedGasLimit": false
    }
  ],
  "receipts": [
    {
      "status": "0x1",
      "cumulativeGasUsed": "0x1d858c4",
      "logs": [
        {
          "address": "0xeb9f1639f3270fe520f1a34b98b0226e360b9097",
          "topics": [
            "0xbe4864a8e820971c0247f5992e2da559595f7bf076a21cb5928d443d2a13b674"
          ],
          "data": "0x00000000000000000000000000000000000000000000000000000000000000200000000000000000000000000000000000000000000000000000000000000002000000000000000000000000000000000000000000000000000000000000004000000000000000000000000000000000000000000000000000000000000000e000000000000000000000000000000000000000000000000000000000000075e80000000000000000000000000000000000000000000000000000000000000001000000000000000000000000000000000000000000000000000000000000006000000000000000000000000000000000000000000000000000000000000000160003010011010000000000000000000000000001388000000000000000000000000000000000000000000000000000000000000000000000000000000000759f000000000000000000000000000000000000000000000000000000000000000100000000000000000000000000000000000000000000000000000000000000600000000000000000000000000000000000000000000000000000000000000016000301001101000000000000000000000000000186a000000000000000000000",
          "blockHash": "0x4eaf2da5dfa44bbd6579d55a4c3b8c7452b3f5ca94240e170828f45c9a26d321",
          "blockNumber": "0x224486a",
          "blockTimestamp": "0x68d2edb7",
          "transactionHash": "0x8847f6869a8263b34294c3d902f20237c1122a172fafb66b5fae278ef6a083ef",
          "transactionIndex": "0x9e",
          "logIndex": "0x284",
          "removed": false
        }
      ],
      "logsBloom": "0x00000000000000000000000000000000002000000000000000000000080000000000000000000000000000000000000000000000000000000000400000000000001000000000000000000000000000000000000000000000000000000000000000000000000000000000000000000000000000000000000000000000000000000000000000000000000000000000000000000000000000000000000000080000000000000000000000000000000000000000000000000000000000000000000000000000000000000000000002000000000000000000000000000000000000000000000000000000000000000000000000000000000000000000000000000000",
      "type": "0x2",
      "transactionHash": "0x8847f6869a8263b34294c3d902f20237c1122a172fafb66b5fae278ef6a083ef",
      "transactionIndex": "0x9e",
      "blockHash": "0x4eaf2da5dfa44bbd6579d55a4c3b8c7452b3f5ca94240e170828f45c9a26d321",
      "blockNumber": "0x224486a",
      "gasUsed": "0x14274",
      "effectiveGasPrice": "0x3b20ed",
      "from": "0x0ece75f3c36f7df2136dac7633165dbff53de3cd",
      "to": "0xeb9f1639f3270fe520f1a34b98b0226e360b9097",
      "contractAddress": null,
      "l1BaseFeeScalar": "0x8dd",
      "l1BlobBaseFee": "0x2b",
      "l1BlobBaseFeeScalar": "0x101c12",
      "l1Fee": "0x5bdf9e40",
      "l1GasPrice": "0x1236f86c",
      "l1GasUsed": "0x8ae"
    },
    {
      "status": "0x1",
      "cumulativeGasUsed": "0x1d99b38",
      "logs": [
        {
          "address": "0x00ba39332e93b0f9fa0a29035704402ef25733c8",
          "topics": [
            "0xbe4864a8e820971c0247f5992e2da559595f7bf076a21cb5928d443d2a13b674"
          ],
          "data": "0x00000000000000000000000000000000000000000000000000000000000000200000000000000000000000000000000000000000000000000000000000000002000000000000000000000000000000000000000000000000000000000000004000000000000000000000000000000000000000000000000000000000000000e000000000000000000000000000000000000000000000000000000000000075e80000000000000000000000000000000000000000000000000000000000000001000000000000000000000000000000000000000000000000000000000000006000000000000000000000000000000000000000000000000000000000000000160003010011010000000000000000000000000001388000000000000000000000000000000000000000000000000000000000000000000000000000000000759f000000000000000000000000000000000000000000000000000000000000000100000000000000000000000000000000000000000000000000000000000000600000000000000000000000000000000000000000000000000000000000000016000301001101000000000000000000000000000186a000000000000000000000",
          "blockHash": "0x4eaf2da5dfa44bbd6579d55a4c3b8c7452b3f5ca94240e170828f45c9a26d321",
          "blockNumber": "0x224486a",
          "blockTimestamp": "0x68d2edb7",
          "transactionHash": "0xf336a15e8a07f16b2334199d4853d7a795af4beb551ab8e35bd32650c6516fb6",
          "transactionIndex": "0x9f",
          "logIndex": "0x285",
          "removed": false
        }
      ],
      "logsBloom": "0x00000000000200000000000000000000000000000000000000000000000000000000000000000000000000000000000000000000000000000000400000000000000000000000000000000000000000000000000000000000000000000000000000000000000000000000000000000000000000000000000000000000000000000000000000000000000000000000000000000000000000000000000000080000000000000000000000000000000000000000000000000000000000000000000000000000000000000000000002000000000010000000002000000000000000000000000000000000000000000000000000000000000000000000000000000000",
      "type": "0x2",
      "transactionHash": "0xf336a15e8a07f16b2334199d4853d7a795af4beb551ab8e35bd32650c6516fb6",
      "transactionIndex": "0x9f",
      "blockHash": "0x4eaf2da5dfa44bbd6579d55a4c3b8c7452b3f5ca94240e170828f45c9a26d321",
      "blockNumber": "0x224486a",
      "gasUsed": "0x14274",
      "effectiveGasPrice": "0x3b20ed",
      "from": "0x0ece75f3c36f7df2136dac7633165dbff53de3cd",
      "to": "0x00ba39332e93b0f9fa0a29035704402ef25733c8",
      "contractAddress": null,
      "l1BaseFeeScalar": "0x8dd",
      "l1BlobBaseFee": "0x2b",
      "l1BlobBaseFeeScalar": "0x101c12",
      "l1Fee": "0x5bdf9e40",
      "l1GasPrice": "0x1236f86c",
      "l1GasUsed": "0x8ae"
    },
    {
      "status": "0x1",
      "cumulativeGasUsed": "0x1daddac",
      "logs": [
        {
          "address": "0x62601f0ddc60da8eea79746fbeb89ed8e6f87ad6",
          "topics": [
            "0xbe4864a8e820971c0247f5992e2da559595f7bf076a21cb5928d443d2a13b674"
          ],
          "data": "0x00000000000000000000000000000000000000000000000000000000000000200000000000000000000000000000000000000000000000000000000000000002000000000000000000000000000000000000000000000000000000000000004000000000000000000000000000000000000000000000000000000000000000e000000000000000000000000000000000000000000000000000000000000075e80000000000000000000000000000000000000000000000000000000000000001000000000000000000000000000000000000000000000000000000000000006000000000000000000000000000000000000000000000000000000000000000160003010011010000000000000000000000000001388000000000000000000000000000000000000000000000000000000000000000000000000000000000759f000000000000000000000000000000000000000000000000000000000000000100000000000000000000000000000000000000000000000000000000000000600000000000000000000000000000000000000000000000000000000000000016000301001101000000000000000000000000000186a000000000000000000000",
          "blockHash": "0x4eaf2da5dfa44bbd6579d55a4c3b8c7452b3f5ca94240e170828f45c9a26d321",
          "blockNumber": "0x224486a",
          "blockTimestamp": "0x68d2edb7",
          "transactionHash": "0x9573fed9e0aee0239c12df94330a62186754b18dcdf4eaa3e9edfd18920c0df3",
          "transactionIndex": "0xa0",
          "logIndex": "0x286",
          "removed": false
        }
      ],
      "logsBloom": "0x00000000000000000000000000000000000000000000000000000000000000000000000000000000000000000000000000000000000000000000400000000000000000000000000000000000000000000000000000000000000000000000000000000000000000000000000000000000000000010000000000000100000000000000000000000000000000000000000000000000000000000000000000080000000000000000000000000000000000000000000004000000000000000000000000000000000000000000000002000000000000000000000000000000000000000000000000000000000000000000000000000000000000000000000000000000",
      "type": "0x2",
      "transactionHash": "0x9573fed9e0aee0239c12df94330a62186754b18dcdf4eaa3e9edfd18920c0df3",
      "transactionIndex": "0xa0",
      "blockHash": "0x4eaf2da5dfa44bbd6579d55a4c3b8c7452b3f5ca94240e170828f45c9a26d321",
      "blockNumber": "0x224486a",
      "gasUsed": "0x14274",
      "effectiveGasPrice": "0x3b20ed",
      "from": "0x0ece75f3c36f7df2136dac7633165dbff53de3cd",
      "to": "0x62601f0ddc60da8eea79746fbeb89ed8e6f87ad6",
      "contractAddress": null,
      "l1BaseFeeScalar": "0x8dd",
      "l1BlobBaseFee": "0x2b",
      "l1BlobBaseFeeScalar": "0x101c12",
      "l1Fee": "0x5bdf9e40",
      "l1GasPrice": "0x1236f86c",
      "l1GasUsed": "0x8ae"
    }
  ],
  "libraries": [],
  "pending": [],
  "returns": {},
  "timestamp": 1758653878622,
  "chain": 8453,
  "commit": "53213c9"
}