{
  "transactions": [
    {
      "hash": "0x17cf6fb3e64d71b183a1fd407d1b469f155d1067f62ba5b340357fb52cc4a9d7",
      "transactionType": "CALL",
      "contractName": null,
      "contractAddress": "0x00ba39332e93b0f9fa0a29035704402ef25733c8",
      "function": "setPeer(uint32,bytes32)",
      "arguments": [
        "30184",
        "0x00000000000000000000000000ba39332e93b0f9fa0a29035704402ef25733c8"
      ],
      "transaction": {
        "from": "0x0ece75f3c36f7df2136dac7633165dbff53de3cd",
        "to": "0x00ba39332e93b0f9fa0a29035704402ef25733c8",
        "gas": "0x104b3",
        "value": "0x0",
        "input": "0x3400288b00000000000000000000000000000000000000000000000000000000000075e800000000000000000000000000ba39332e93b0f9fa0a29035704402ef25733c8",
        "nonce": "0x1d3",
        "chainId": "0x2105"
      },
      "additionalContracts": [],
      "isFixedGasLimit": false
    },
    {
      "hash": "0x4b0a13c374d5eb4e7aeb0750428068f3f34eb24eabd6fdeab2d69801d009a63d",
      "transactionType": "CALL",
      "contractName": null,
      "contractAddress": "0x62601f0ddc60da8eea79746fbeb89ed8e6f87ad6",
      "function": "setPeer(uint32,bytes32)",
      "arguments": [
        "30184",
        "0x00000000000000000000000062601f0ddc60da8eea79746fbeb89ed8e6f87ad6"
      ],
      "transaction": {
        "from": "0x0ece75f3c36f7df2136dac7633165dbff53de3cd",
        "to": "0x62601f0ddc60da8eea79746fbeb89ed8e6f87ad6",
        "gas": "0x1141b",
        "value": "0x0",
        "input": "0x3400288b00000000000000000000000000000000000000000000000000000000000075e800000000000000000000000062601f0ddc60da8eea79746fbeb89ed8e6f87ad6",
        "nonce": "0x1d4",
        "chainId": "0x2105"
      },
      "additionalContracts": [],
      "isFixedGasLimit": false
    },
    {
      "hash": "0x4a01db0c614b401a527f9b944943611d61ca7438beb79a00c35cfb136868a061",
      "transactionType": "CALL",
      "contractName": null,
      "contractAddress": "0x00ba39332e93b0f9fa0a29035704402ef25733c8",
      "function": "setPeer(uint32,bytes32)",
      "arguments": [
        "30111",
        "0x00000000000000000000000095608557eb1fa88d07fb6af29fcb76b25a93bb2c"
      ],
      "transaction": {
        "from": "0x0ece75f3c36f7df2136dac7633165dbff53de3cd",
        "to": "0x00ba39332e93b0f9fa0a29035704402ef25733c8",
        "gas": "0x1141b",
        "value": "0x0",
        "input": "0x3400288b000000000000000000000000000000000000000000000000000000000000759f00000000000000000000000095608557eb1fa88d07fb6af29fcb76b25a93bb2c",
        "nonce": "0x1d5",
        "chainId": "0x2105"
      },
      "additionalContracts": [],
      "isFixedGasLimit": false
    },
    {
      "hash": "0xd362fcbc6b73cdaaea13b8c39520ed23d08c41089bd1188760d510fe0fbe6639",
      "transactionType": "CALL",
      "contractName": null,
      "contractAddress": "0x62601f0ddc60da8eea79746fbeb89ed8e6f87ad6",
      "function": "setPeer(uint32,bytes32)",
      "arguments": [
        "30111",
        "0x000000000000000000000000252d67d23308646cf6dae32a826de24ba21e7c12"
      ],
      "transaction": {
        "from": "0x0ece75f3c36f7df2136dac7633165dbff53de3cd",
        "to": "0x62601f0ddc60da8eea79746fbeb89ed8e6f87ad6",
        "gas": "0x1141b",
        "value": "0x0",
        "input": "0x3400288b000000000000000000000000000000000000000000000000000000000000759f000000000000000000000000252d67d23308646cf6dae32a826de24ba21e7c12",
        "nonce": "0x1d6",
        "chainId": "0x2105"
      },
      "additionalContracts": [],
      "isFixedGasLimit": false
    },
    {
      "hash": "0x18a28e8afcbb4147d73852747aa34c073b81d2faab61d0a8269c1be4bc22a9f1",
      "transactionType": "CALL",
      "contractName": null,
      "contractAddress": "0x00ba39332e93b0f9fa0a29035704402ef25733c8",
      "function": "setEnforcedOptions((uint32,uint16,bytes)[])",
      "arguments": [
        "[(0, 1, 0x00030100110100000000000000000000000000013880), (0, 1, 0x000301001101000000000000000000000000000186a0)]"
      ],
      "transaction": {
        "from": "0x0ece75f3c36f7df2136dac7633165dbff53de3cd",
        "to": "0x00ba39332e93b0f9fa0a29035704402ef25733c8",
        "gas": "0x146f7",
        "value": "0x0",
        "input": "0xb98bd07000000000000000000000000000000000000000000000000000000000000000200000000000000000000000000000000000000000000000000000000000000002000000000000000000000000000000000000000000000000000000000000004000000000000000000000000000000000000000000000000000000000000000e0000000000000000000000000000000000000000000000000000000000000000000000000000000000000000000000000000000000000000000000000000000010000000000000000000000000000000000000000000000000000000000000060000000000000000000000000000000000000000000000000000000000000001600030100110100000000000000000000000000013880000000000000000000000000000000000000000000000000000000000000000000000000000000000000000000000000000000000000000000000000000000000000000000000000000100000000000000000000000000000000000000000000000000000000000000600000000000000000000000000000000000000000000000000000000000000016000301001101000000000000000000000000000186a000000000000000000000",
        "nonce": "0x1d7",
        "chainId": "0x2105"
      },
      "additionalContracts": [],
      "isFixedGasLimit": false
    },
    {
      "hash": "0x1d1b6ec753bf3b0df2ce055e535f1f448dac882f2cbb9c1648e65475b2d2bd2b",
      "transactionType": "CALL",
      "contractName": null,
      "contractAddress": "0x62601f0ddc60da8eea79746fbeb89ed8e6f87ad6",
      "function": "setEnforcedOptions((uint32,uint16,bytes)[])",
      "arguments": [
        "[(0, 1, 0x00030100110100000000000000000000000000013880), (0, 1, 0x000301001101000000000000000000000000000186a0)]"
      ],
      "transaction": {
        "from": "0x0ece75f3c36f7df2136dac7633165dbff53de3cd",
        "to": "0x62601f0ddc60da8eea79746fbeb89ed8e6f87ad6",
        "gas": "0x146f7",
        "value": "0x0",
        "input": "0xb98bd07000000000000000000000000000000000000000000000000000000000000000200000000000000000000000000000000000000000000000000000000000000002000000000000000000000000000000000000000000000000000000000000004000000000000000000000000000000000000000000000000000000000000000e0000000000000000000000000000000000000000000000000000000000000000000000000000000000000000000000000000000000000000000000000000000010000000000000000000000000000000000000000000000000000000000000060000000000000000000000000000000000000000000000000000000000000001600030100110100000000000000000000000000013880000000000000000000000000000000000000000000000000000000000000000000000000000000000000000000000000000000000000000000000000000000000000000000000000000100000000000000000000000000000000000000000000000000000000000000600000000000000000000000000000000000000000000000000000000000000016000301001101000000000000000000000000000186a000000000000000000000",
        "nonce": "0x1d8",
        "chainId": "0x2105"
      },
      "additionalContracts": [],
      "isFixedGasLimit": false
    },
    {
      "hash": "0xf026a4cae7d8598edd6b1d07b14d39ab2e8894ec1455216c5383e154b54effc5",
      "transactionType": "CALL",
      "contractName": null,
      "contractAddress": "0x5a28316959551da618f84070fff70b390270185c",
      "function": "setOftAddress(address,address)",
      "arguments": [
        "0x9fc9E6332a4eD0b5a5C24602A0821A0e44189681",
        "0x0000000000000000000000000000000000000000"
      ],
      "transaction": {
        "from": "0x0ece75f3c36f7df2136dac7633165dbff53de3cd",
        "to": "0x5a28316959551da618f84070fff70b390270185c",
        "gas": "0xb5a2",
        "value": "0x0",
        "input": "0xf09a0d6b0000000000000000000000009fc9e6332a4ed0b5a5c24602a0821a0e441896810000000000000000000000000000000000000000000000000000000000000000",
        "nonce": "0x1d9",
        "chainId": "0x2105"
      },
      "additionalContracts": [],
      "isFixedGasLimit": false
    },
    {
      "hash": "0xcaeca02e100815657d679925ffad3dc313bb58cc7ddec27e517bdaeb33c3563f",
      "transactionType": "CALL",
      "contractName": null,
      "contractAddress": "0x5a28316959551da618f84070fff70b390270185c",
      "function": "setOftAddress(address,address)",
      "arguments": [
        "0x35487f37efb8F27f70e3A8Db62d04C1edfB69aE1",
        "0x0000000000000000000000000000000000000000"
      ],
      "transaction": {
        "from": "0x0ece75f3c36f7df2136dac7633165dbff53de3cd",
        "to": "0x5a28316959551da618f84070fff70b390270185c",
        "gas": "0xb5a2",
        "value": "0x0",
        "input": "0xf09a0d6b00000000000000000000000035487f37efb8f27f70e3a8db62d04c1edfb69ae10000000000000000000000000000000000000000000000000000000000000000",
        "nonce": "0x1da",
        "chainId": "0x2105"
      },
      "additionalContracts": [],
      "isFixedGasLimit": false
    }
  ],
  "receipts": [
    {
      "status": "0x1",
      "cumulativeGasUsed": "0x244be15",
      "logs": [
        {
          "address": "0x00ba39332e93b0f9fa0a29035704402ef25733c8",
          "topics": [
            "0x238399d427b947898edb290f5ff0f9109849b1c3ba196a42e35f00c50a54b98b"
          ],
          "data": "0x00000000000000000000000000000000000000000000000000000000000075e800000000000000000000000000ba39332e93b0f9fa0a29035704402ef25733c8",
          "blockHash": "0xe3888a06808d773ca12bd21498c55acfd26a82f32b8bb2250097da130217aaa4",
          "blockNumber": "0x2244730",
          "blockTimestamp": "0x68d2eb43",
          "transactionHash": "0x17cf6fb3e64d71b183a1fd407d1b469f155d1067f62ba5b340357fb52cc4a9d7",
          "transactionIndex": "0xd9",
          "logIndex": "0x2bb",
          "removed": false
        }
      ],
      "logsBloom": "0x00000000000200000000000000000000000000000000000000000000000000000000000000000000000000000000000000000000000000000800000000000000000000000000000000000000000000000000000000000000000000000000000000000000000000000000000000000000000000000000000000000000000000000000000000000000000000000000000000000000000000000000000000000000000000000000000000000000000000000000000000000000000002000000000000000000000000000000000000000000000010000000002000040000000000000000000000000000000000000000000000000000000000000000000000000000",
      "type": "0x2",
      "transactionHash": "0x17cf6fb3e64d71b183a1fd407d1b469f155d1067f62ba5b340357fb52cc4a9d7",
      "transactionIndex": "0xd9",
      "blockHash": "0xe3888a06808d773ca12bd21498c55acfd26a82f32b8bb2250097da130217aaa4",
      "blockNumber": "0x2244730",
      "gasUsed": "0xbcbf",
      "effectiveGasPrice": "0x4490cc",
      "from": "0x0ece75f3c36f7df2136dac7633165dbff53de3cd",
      "to": "0x00ba39332e93b0f9fa0a29035704402ef25733c8",
      "contractAddress": null,
      "l1BaseFeeScalar": "0x8dd",
      "l1BlobBaseFee": "0x19",
      "l1BlobBaseFeeScalar": "0x101c12",
      "l1Fee": "0x48bd8246",
      "l1GasPrice": "0x140950e2",
      "l1GasUsed": "0x640"
    },
    {
      "status": "0x1",
      "cumulativeGasUsed": "0x2457ae0",
      "logs": [
        {
          "address": "0x62601f0ddc60da8eea79746fbeb89ed8e6f87ad6",
          "topics": [
            "0x238399d427b947898edb290f5ff0f9109849b1c3ba196a42e35f00c50a54b98b"
          ],
          "data": "0x00000000000000000000000000000000000000000000000000000000000075e800000000000000000000000062601f0ddc60da8eea79746fbeb89ed8e6f87ad6",
          "blockHash": "0xe3888a06808d773ca12bd21498c55acfd26a82f32b8bb2250097da130217aaa4",
          "blockNumber": "0x2244730",
          "blockTimestamp": "0x68d2eb43",
          "transactionHash": "0x4b0a13c374d5eb4e7aeb0750428068f3f34eb24eabd6fdeab2d69801d009a63d",
          "transactionIndex": "0xda",
          "logIndex": "0x2bc",
          "removed": false
        }
      ],
      "logsBloom": "0x00000000000000000000000000000000000000000000000000000000000000000000000000000000000000000000000000000000000000000800000000000000000000000000000000000000000000000000000000000000000000000000000000000000000000000000000000000000000000010000000000000100000000000000000000000000000000000000000000000000000000000000000000000000000000000000000000000000000000000000000004000000000002000000000000000000000000000000000000000000000000000000000000040000000000000000000000000000000000000000000000000000000000000000000000000000",
      "type": "0x2",
      "transactionHash": "0x4b0a13c374d5eb4e7aeb0750428068f3f34eb24eabd6fdeab2d69801d009a63d",
      "transactionIndex": "0xda",
      "blockHash": "0xe3888a06808d773ca12bd21498c55acfd26a82f32b8bb2250097da130217aaa4",
      "blockNumber": "0x2244730",
      "gasUsed": "0xbccb",
      "effectiveGasPrice": "0x4490cc",
      "from": "0x0ece75f3c36f7df2136dac7633165dbff53de3cd",
      "to": "0x62601f0ddc60da8eea79746fbeb89ed8e6f87ad6",
      "contractAddress": null,
      "l1BaseFeeScalar": "0x8dd",
      "l1BlobBaseFee": "0x19",
      "l1BlobBaseFeeScalar": "0x101c12",
      "l1Fee": "0x48bd8246",
      "l1GasPrice": "0x140950e2",
      "l1GasUsed": "0x640"
    },
    {
      "status": "0x1",
      "cumulativeGasUsed": "0x24637ab",
      "logs": [
        {
          "address": "0x00ba39332e93b0f9fa0a29035704402ef25733c8",
          "topics": [
            "0x238399d427b947898edb290f5ff0f9109849b1c3ba196a42e35f00c50a54b98b"
          ],
          "data": "0x000000000000000000000000000000000000000000000000000000000000759f00000000000000000000000095608557eb1fa88d07fb6af29fcb76b25a93bb2c",
          "blockHash": "0xe3888a06808d773ca12bd21498c55acfd26a82f32b8bb2250097da130217aaa4",
          "blockNumber": "0x2244730",
          "blockTimestamp": "0x68d2eb43",
          "transactionHash": "0x4a01db0c614b401a527f9b944943611d61ca7438beb79a00c35cfb136868a061",
          "transactionIndex": "0xdb",
          "logIndex": "0x2bd",
          "removed": false
        }
      ],
      "logsBloom": "0x00000000000200000000000000000000000000000000000000000000000000000000000000000000000000000000000000000000000000000800000000000000000000000000000000000000000000000000000000000000000000000000000000000000000000000000000000000000000000000000000000000000000000000000000000000000000000000000000000000000000000000000000000000000000000000000000000000000000000000000000000000000000002000000000000000000000000000000000000000000000010000000002000040000000000000000000000000000000000000000000000000000000000000000000000000000",
      "type": "0x2",
      "transactionHash": "0x4a01db0c614b401a527f9b944943611d61ca7438beb79a00c35cfb136868a061",
      "transactionIndex": "0xdb",
      "blockHash": "0xe3888a06808d773ca12bd21498c55acfd26a82f32b8bb2250097da130217aaa4",
      "blockNumber": "0x2244730",
      "gasUsed": "0xbccb",
      "effectiveGasPrice": "0x4490cc",
      "from": "0x0ece75f3c36f7df2136dac7633165dbff53de3cd",
      "to": "0x00ba39332e93b0f9fa0a29035704402ef25733c8",
      "contractAddress": null,
      "l1BaseFeeScalar": "0x8dd",
      "l1BlobBaseFee": "0x19",
      "l1BlobBaseFeeScalar": "0x101c12",
      "l1Fee": "0x48bd8246",
      "l1GasPrice": "0x140950e2",
      "l1GasUsed": "0x640"
    },
    {
      "status": "0x1",
      "cumulativeGasUsed": "0x246f476",
      "logs": [
        {
          "address": "0x62601f0ddc60da8eea79746fbeb89ed8e6f87ad6",
          "topics": [
            "0x238399d427b947898edb290f5ff0f9109849b1c3ba196a42e35f00c50a54b98b"
          ],
          "data": "0x000000000000000000000000000000000000000000000000000000000000759f000000000000000000000000252d67d23308646cf6dae32a826de24ba21e7c12",
          "blockHash": "0xe3888a06808d773ca12bd21498c55acfd26a82f32b8bb2250097da130217aaa4",
          "blockNumber": "0x2244730",
          "blockTimestamp": "0x68d2eb43",
          "transactionHash": "0xd362fcbc6b73cdaaea13b8c39520ed23d08c41089bd1188760d510fe0fbe6639",
          "transactionIndex": "0xdc",
          "logIndex": "0x2be",
          "removed": false
        }
      ],
      "logsBloom": "0x00000000000000000000000000000000000000000000000000000000000000000000000000000000000000000000000000000000000000000800000000000000000000000000000000000000000000000000000000000000000000000000000000000000000000000000000000000000000000010000000000000100000000000000000000000000000000000000000000000000000000000000000000000000000000000000000000000000000000000000000004000000000002000000000000000000000000000000000000000000000000000000000000040000000000000000000000000000000000000000000000000000000000000000000000000000",
      "type": "0x2",
      "transactionHash": "0xd362fcbc6b73cdaaea13b8c39520ed23d08c41089bd1188760d510fe0fbe6639",
      "transactionIndex": "0xdc",
      "blockHash": "0xe3888a06808d773ca12bd21498c55acfd26a82f32b8bb2250097da130217aaa4",
      "blockNumber": "0x2244730",
      "gasUsed": "0xbccb",
      "effectiveGasPrice": "0x4490cc",
      "from": "0x0ece75f3c36f7df2136dac7633165dbff53de3cd",
      "to": "0x62601f0ddc60da8eea79746fbeb89ed8e6f87ad6",
      "contractAddress": null,
      "l1BaseFeeScalar": "0x8dd",
      "l1BlobBaseFee": "0x19",
      "l1BlobBaseFeeScalar": "0x101c12",
      "l1Fee": "0x48bd8246",
      "l1GasPrice": "0x140950e2",
      "l1GasUsed": "0x640"
    },
    {
      "status": "0x1",
      "cumulativeGasUsed": "0x247e12e",
      "logs": [
        {
          "address": "0x00ba39332e93b0f9fa0a29035704402ef25733c8",
          "topics": [
            "0xbe4864a8e820971c0247f5992e2da559595f7bf076a21cb5928d443d2a13b674"
          ],
          "data": "0x00000000000000000000000000000000000000000000000000000000000000200000000000000000000000000000000000000000000000000000000000000002000000000000000000000000000000000000000000000000000000000000004000000000000000000000000000000000000000000000000000000000000000e0000000000000000000000000000000000000000000000000000000000000000000000000000000000000000000000000000000000000000000000000000000010000000000000000000000000000000000000000000000000000000000000060000000000000000000000000000000000000000000000000000000000000001600030100110100000000000000000000000000013880000000000000000000000000000000000000000000000000000000000000000000000000000000000000000000000000000000000000000000000000000000000000000000000000000100000000000000000000000000000000000000000000000000000000000000600000000000000000000000000000000000000000000000000000000000000016000301001101000000000000000000000000000186a000000000000000000000",
          "blockHash": "0xe3888a06808d773ca12bd21498c55acfd26a82f32b8bb2250097da130217aaa4",
          "blockNumber": "0x2244730",
          "blockTimestamp": "0x68d2eb43",
          "transactionHash": "0x18a28e8afcbb4147d73852747aa34c073b81d2faab61d0a8269c1be4bc22a9f1",
          "transactionIndex": "0xdd",
          "logIndex": "0x2bf",
          "removed": false
        }
      ],
      "logsBloom": "0x00000000000200000000000000000000000000000000000000000000000000000000000000000000000000000000000000000000000000000000400000000000000000000000000000000000000000000000000000000000000000000000000000000000000000000000000000000000000000000000000000000000000000000000000000000000000000000000000000000000000000000000000000080000000000000000000000000000000000000000000000000000000000000000000000000000000000000000000002000000000010000000002000000000000000000000000000000000000000000000000000000000000000000000000000000000",
      "type": "0x2",
      "transactionHash": "0x18a28e8afcbb4147d73852747aa34c073b81d2faab61d0a8269c1be4bc22a9f1",
      "transactionIndex": "0xdd",
      "blockHash": "0xe3888a06808d773ca12bd21498c55acfd26a82f32b8bb2250097da130217aaa4",
      "blockNumber": "0x2244730",
      "gasUsed": "0xecb8",
      "effectiveGasPrice": "0x4490cc",
      "from": "0x0ece75f3c36f7df2136dac7633165dbff53de3cd",
      "to": "0x00ba39332e93b0f9fa0a29035704402ef25733c8",
      "contractAddress": null,
      "l1BaseFeeScalar": "0x8dd",
      "l1BlobBaseFee": "0x19",
      "l1BlobBaseFeeScalar": "0x101c12",
      "l1Fee": "0x5ab7b3fd",
      "l1GasPrice": "0x140950e2",
      "l1GasUsed": "0x7cb"
    },
    {
      "status": "0x1",
      "cumulativeGasUsed": "0x248cde6",
      "logs": [
        {
          "address": "0x62601f0ddc60da8eea79746fbeb89ed8e6f87ad6",
          "topics": [
            "0xbe4864a8e820971c0247f5992e2da559595f7bf076a21cb5928d443d2a13b674"
          ],
          "data": "0x00000000000000000000000000000000000000000000000000000000000000200000000000000000000000000000000000000000000000000000000000000002000000000000000000000000000000000000000000000000000000000000004000000000000000000000000000000000000000000000000000000000000000e0000000000000000000000000000000000000000000000000000000000000000000000000000000000000000000000000000000000000000000000000000000010000000000000000000000000000000000000000000000000000000000000060000000000000000000000000000000000000000000000000000000000000001600030100110100000000000000000000000000013880000000000000000000000000000000000000000000000000000000000000000000000000000000000000000000000000000000000000000000000000000000000000000000000000000100000000000000000000000000000000000000000000000000000000000000600000000000000000000000000000000000000000000000000000000000000016000301001101000000000000000000000000000186a000000000000000000000",
          "blockHash": "0xe3888a06808d773ca12bd21498c55acfd26a82f32b8bb2250097da130217aaa4",
          "blockNumber": "0x2244730",
          "blockTimestamp": "0x68d2eb43",
          "transactionHash": "0x1d1b6ec753bf3b0df2ce055e535f1f448dac882f2cbb9c1648e65475b2d2bd2b",
          "transactionIndex": "0xde",
          "logIndex": "0x2c0",
          "removed": false
        }
      ],
      "logsBloom": "0x00000000000000000000000000000000000000000000000000000000000000000000000000000000000000000000000000000000000000000000400000000000000000000000000000000000000000000000000000000000000000000000000000000000000000000000000000000000000000010000000000000100000000000000000000000000000000000000000000000000000000000000000000080000000000000000000000000000000000000000000004000000000000000000000000000000000000000000000002000000000000000000000000000000000000000000000000000000000000000000000000000000000000000000000000000000",
      "type": "0x2",
      "transactionHash": "0x1d1b6ec753bf3b0df2ce055e535f1f448dac882f2cbb9c1648e65475b2d2bd2b",
      "transactionIndex": "0xde",
      "blockHash": "0xe3888a06808d773ca12bd21498c55acfd26a82f32b8bb2250097da130217aaa4",
      "blockNumber": "0x2244730",
      "gasUsed": "0xecb8",
      "effectiveGasPrice": "0x4490cc",
      "from": "0x0ece75f3c36f7df2136dac7633165dbff53de3cd",
      "to": "0x62601f0ddc60da8eea79746fbeb89ed8e6f87ad6",
      "contractAddress": null,
      "l1BaseFeeScalar": "0x8dd",
      "l1BlobBaseFee": "0x19",
      "l1BlobBaseFeeScalar": "0x101c12",
      "l1Fee": "0x5ab7b3fd",
      "l1GasPrice": "0x140950e2",
      "l1GasUsed": "0x7cb"
    },
    {
      "status": "0x1",
      "cumulativeGasUsed": "0x2495166",
      "logs": [
        {
          "address": "0x5a28316959551da618f84070fff70b390270185c",
          "topics": [
            "0x443eca89ae0d91090321746b66b1e5a800bf4f33b317a7dbc01dc310b55c3291",
            "0x0000000000000000000000009fc9e6332a4ed0b5a5c24602a0821a0e44189681",
            "0x0000000000000000000000000000000000000000000000000000000000000000"
          ],
          "data": "0x",
          "blockHash": "0xe3888a06808d773ca12bd21498c55acfd26a82f32b8bb2250097da130217aaa4",
          "blockNumber": "0x2244730",
          "blockTimestamp": "0x68d2eb43",
          "transactionHash": "0xf026a4cae7d8598edd6b1d07b14d39ab2e8894ec1455216c5383e154b54effc5",
          "transactionIndex": "0xdf",
          "logIndex": "0x2c1",
          "removed": false
        }
      ],
      "logsBloom": "0x00000000000000000000000000000000000000000000000000000000000000200000000000000000000000000000000000000000100000000000000000000000000000000000000000000000000000000000000000000000000800000000000000800000020000000000000000000800000000000000000000080000000000000000000000000000000000000000000000004000000000000000000000000000000000000000000000000000000000000000100000000000000000000000000000000000000000000000000000000000000000000000000000000000000020000000000000000000000000000000000000000000000000000000000000000021",
      "type": "0x2",
      "transactionHash": "0xf026a4cae7d8598edd6b1d07b14d39ab2e8894ec1455216c5383e154b54effc5",
      "transactionIndex": "0xdf",
      "blockHash": "0xe3888a06808d773ca12bd21498c55acfd26a82f32b8bb2250097da130217aaa4",
      "blockNumber": "0x2244730",
      "gasUsed": "0x8380",
      "effectiveGasPrice": "0x4490cc",
      "from": "0x0ece75f3c36f7df2136dac7633165dbff53de3cd",
      "to": "0x5a28316959551da618f84070fff70b390270185c",
      "contractAddress": null,
      "l1BaseFeeScalar": "0x8dd",
      "l1BlobBaseFee": "0x19",
      "l1BlobBaseFeeScalar": "0x101c12",
      "l1Fee": "0x48bd8246",
      "l1GasPrice": "0x140950e2",
      "l1GasUsed": "0x640"
    },
    {
      "status": "0x1",
      "cumulativeGasUsed": "0xa89c07",
      "logs": [
        {
          "address": "0x5a28316959551da618f84070fff70b390270185c",
          "topics": [
            "0x443eca89ae0d91090321746b66b1e5a800bf4f33b317a7dbc01dc310b55c3291",
            "0x00000000000000000000000035487f37efb8f27f70e3a8db62d04c1edfb69ae1",
            "0x0000000000000000000000000000000000000000000000000000000000000000"
          ],
          "data": "0x",
          "blockHash": "0xba16007c35dbaca275edadc155e72c8bdd1c64bb82fef44f756185081f091785",
          "blockNumber": "0x2244731",
          "blockTimestamp": "0x68d2eb45",
          "transactionHash": "0xcaeca02e100815657d679925ffad3dc313bb58cc7ddec27e517bdaeb33c3563f",
          "transactionIndex": "0x20",
          "logIndex": "0x83",
          "removed": false
        }
      ],
      "logsBloom": "0x00000000000000000000000000000000000000000000000000000000000000200000000000000000000000000000000000000000000000000000000000000000000000000000000000000000000000000000000000080000000800000000000000000000020000000000000000000800000000000000000000000000000000000000000000000000000000000000000000004000000000000000000000000000000000000000000000000000000000000000100000000000000000000000000000000000000000000000000000000000000000000000000000000040080020000000000000000000000000000000000000000000000000000000000000000021",
      "type": "0x2",
      "transactionHash": "0xcaeca02e100815657d679925ffad3dc313bb58cc7ddec27e517bdaeb33c3563f",
      "transactionIndex": "0x20",
      "blockHash": "0xba16007c35dbaca275edadc155e72c8bdd1c64bb82fef44f756185081f091785",
      "blockNumber": "0x2244731",
      "gasUsed": "0x8380",
      "effectiveGasPrice": "0x446c01",
      "from": "0x0ece75f3c36f7df2136dac7633165dbff53de3cd",
      "to": "0x5a28316959551da618f84070fff70b390270185c",
      "contractAddress": null,
      "l1BaseFeeScalar": "0x8dd",
      "l1BlobBaseFee": "0x19",
      "l1BlobBaseFeeScalar": "0x101c12",
      "l1Fee": "0x48bd8246",
      "l1GasPrice": "0x140950e2",
      "l1GasUsed": "0x640"
    }
  ],
  "libraries": [],
  "pending": [],
  "returns": {},
  "timestamp": 1758653253148,
  "chain": 8453,
  "commit": "53213c9"
}