{
  "transactions": [
    {
      "hash": "0xe813e21e28fc562af56c86c869805170192026d73f7a4617d15272954bafa068",
      "transactionType": "CALL",
      "contractName": null,
      "contractAddress": "0xeb9f1639f3270fe520f1a34b98b0226e360b9097",
      "function": "setEnforcedOptions((uint32,uint16,bytes)[])",
      "arguments": [
        "[(0, 1, 0x00030100110100000000000000000000000000013880), (0, 1, 0x000301001101000000000000000000000000000186a0)]"
      ],
      "transaction": {
        "from": "0x0ece75f3c36f7df2136dac7633165dbff53de3cd",
        "to": "0xeb9f1639f3270fe520f1a34b98b0226e360b9097",
        "gas": "0xdb97",
        "value": "0x0",
        "input": "0xb98bd07000000000000000000000000000000000000000000000000000000000000000200000000000000000000000000000000000000000000000000000000000000002000000000000000000000000000000000000000000000000000000000000004000000000000000000000000000000000000000000000000000000000000000e0000000000000000000000000000000000000000000000000000000000000000000000000000000000000000000000000000000000000000000000000000000010000000000000000000000000000000000000000000000000000000000000060000000000000000000000000000000000000000000000000000000000000001600030100110100000000000000000000000000013880000000000000000000000000000000000000000000000000000000000000000000000000000000000000000000000000000000000000000000000000000000000000000000000000000100000000000000000000000000000000000000000000000000000000000000600000000000000000000000000000000000000000000000000000000000000016000301001101000000000000000000000000000186a000000000000000000000",
        "nonce": "0x1ea",
        "chainId": "0x2105"
      },
      "additionalContracts": [],
      "isFixedGasLimit": false
    },
    {
      "hash": "0xe2af88c8ec5c395e3bec768a9bd3a9b79e4d2a1fd5ef1cfaf56fcf5678a56fac",
      "transactionType": "CALL",
      "contractName": null,
      "contractAddress": "0x00ba39332e93b0f9fa0a29035704402ef25733c8",
      "function": "setEnforcedOptions((uint32,uint16,bytes)[])",
      "arguments": [
        "[(0, 1, 0x00030100110100000000000000000000000000013880), (0, 1, 0x000301001101000000000000000000000000000186a0)]"
      ],
      "transaction": {
        "from": "0x0ece75f3c36f7df2136dac7633165dbff53de3cd",
        "to": "0x00ba39332e93b0f9fa0a29035704402ef25733c8",
        "gas": "0xdb97",
        "value": "0x0",
        "input": "0xb98bd07000000000000000000000000000000000000000000000000000000000000000200000000000000000000000000000000000000000000000000000000000000002000000000000000000000000000000000000000000000000000000000000004000000000000000000000000000000000000000000000000000000000000000e0000000000000000000000000000000000000000000000000000000000000000000000000000000000000000000000000000000000000000000000000000000010000000000000000000000000000000000000000000000000000000000000060000000000000000000000000000000000000000000000000000000000000001600030100110100000000000000000000000000013880000000000000000000000000000000000000000000000000000000000000000000000000000000000000000000000000000000000000000000000000000000000000000000000000000100000000000000000000000000000000000000000000000000000000000000600000000000000000000000000000000000000000000000000000000000000016000301001101000000000000000000000000000186a000000000000000000000",
        "nonce": "0x1eb",
        "chainId": "0x2105"
      },
      "additionalContracts": [],
      "isFixedGasLimit": false
    },
    {
      "hash": "0x6414bae623aab8885d0b9d53a18e311834896f390036a4da355ee0a64c80bf77",
      "transactionType": "CALL",
      "contractName": null,
      "contractAddress": "0x62601f0ddc60da8eea79746fbeb89ed8e6f87ad6",
      "function": "setEnforcedOptions((uint32,uint16,bytes)[])",
      "arguments": [
        "[(0, 1, 0x00030100110100000000000000000000000000013880), (0, 1, 0x000301001101000000000000000000000000000186a0)]"
      ],
      "transaction": {
        "from": "0x0ece75f3c36f7df2136dac7633165dbff53de3cd",
        "to": "0x62601f0ddc60da8eea79746fbeb89ed8e6f87ad6",
        "gas": "0xdb97",
        "value": "0x0",
        "input": "0xb98bd07000000000000000000000000000000000000000000000000000000000000000200000000000000000000000000000000000000000000000000000000000000002000000000000000000000000000000000000000000000000000000000000004000000000000000000000000000000000000000000000000000000000000000e0000000000000000000000000000000000000000000000000000000000000000000000000000000000000000000000000000000000000000000000000000000010000000000000000000000000000000000000000000000000000000000000060000000000000000000000000000000000000000000000000000000000000001600030100110100000000000000000000000000013880000000000000000000000000000000000000000000000000000000000000000000000000000000000000000000000000000000000000000000000000000000000000000000000000000100000000000000000000000000000000000000000000000000000000000000600000000000000000000000000000000000000000000000000000000000000016000301001101000000000000000000000000000186a000000000000000000000",
        "nonce": "0x1ec",
        "chainId": "0x2105"
      },
      "additionalContracts": [],
      "isFixedGasLimit": false
    }
  ],
  "receipts": [
    {
      "status": "0x1",
      "cumulativeGasUsed": "0x21e0f80",
      "logs": [
        {
          "address": "0xeb9f1639f3270fe520f1a34b98b0226e360b9097",
          "topics": [
            "0xbe4864a8e820971c0247f5992e2da559595f7bf076a21cb5928d443d2a13b674"
          ],
          "data": "0x00000000000000000000000000000000000000000000000000000000000000200000000000000000000000000000000000000000000000000000000000000002000000000000000000000000000000000000000000000000000000000000004000000000000000000000000000000000000000000000000000000000000000e0000000000000000000000000000000000000000000000000000000000000000000000000000000000000000000000000000000000000000000000000000000010000000000000000000000000000000000000000000000000000000000000060000000000000000000000000000000000000000000000000000000000000001600030100110100000000000000000000000000013880000000000000000000000000000000000000000000000000000000000000000000000000000000000000000000000000000000000000000000000000000000000000000000000000000100000000000000000000000000000000000000000000000000000000000000600000000000000000000000000000000000000000000000000000000000000016000301001101000000000000000000000000000186a000000000000000000000",
          "blockHash": "0x6aef9a0c8b0c6f3fdd34e0b4897328d3eb7ebc212cee487da65588c3c4f78027",
          "blockNumber": "0x2244841",
          "blockTimestamp": "0x68d2ed65",
          "transactionHash": "0xe813e21e28fc562af56c86c869805170192026d73f7a4617d15272954bafa068",
          "transactionIndex": "0x96",
          "logIndex": "0x243",
          "removed": false
        }
      ],
      "logsBloom": "0x00000000000000000000000000000000002000000000000000000000080000000000000000000000000000000000000000000000000000000000400000000000001000000000000000000000000000000000000000000000000000000000000000000000000000000000000000000000000000000000000000000000000000000000000000000000000000000000000000000000000000000000000000080000000000000000000000000000000000000000000000000000000000000000000000000000000000000000000002000000000000000000000000000000000000000000000000000000000000000000000000000000000000000000000000000000",
      "type": "0x2",
      "transactionHash": "0xe813e21e28fc562af56c86c869805170192026d73f7a4617d15272954bafa068",
      "transactionIndex": "0x96",
      "blockHash": "0x6aef9a0c8b0c6f3fdd34e0b4897328d3eb7ebc212cee487da65588c3c4f78027",
      "blockNumber": "0x2244841",
      "gasUsed": "0x9efc",
      "effectiveGasPrice": "0x3d0a39",
      "from": "0x0ece75f3c36f7df2136dac7633165dbff53de3cd",
      "to": "0xeb9f1639f3270fe520f1a34b98b0226e360b9097",
      "contractAddress": null,
      "l1BaseFeeScalar": "0x8dd",
      "l1BlobBaseFee": "0x31",
      "l1BlobBaseFeeScalar": "0x101c12",
      "l1Fee": "0x5bcd3982",
      "l1GasPrice": "0x1469a692",
      "l1GasUsed": "0x7be"
    },
    {
      "status": "0x1",
      "cumulativeGasUsed": "0x21eae7c",
      "logs": [
        {
          "address": "0x00ba39332e93b0f9fa0a29035704402ef25733c8",
          "topics": [
            "0xbe4864a8e820971c0247f5992e2da559595f7bf076a21cb5928d443d2a13b674"
          ],
          "data": "0x00000000000000000000000000000000000000000000000000000000000000200000000000000000000000000000000000000000000000000000000000000002000000000000000000000000000000000000000000000000000000000000004000000000000000000000000000000000000000000000000000000000000000e0000000000000000000000000000000000000000000000000000000000000000000000000000000000000000000000000000000000000000000000000000000010000000000000000000000000000000000000000000000000000000000000060000000000000000000000000000000000000000000000000000000000000001600030100110100000000000000000000000000013880000000000000000000000000000000000000000000000000000000000000000000000000000000000000000000000000000000000000000000000000000000000000000000000000000100000000000000000000000000000000000000000000000000000000000000600000000000000000000000000000000000000000000000000000000000000016000301001101000000000000000000000000000186a000000000000000000000",
          "blockHash": "0x6aef9a0c8b0c6f3fdd34e0b4897328d3eb7ebc212cee487da65588c3c4f78027",
          "blockNumber": "0x2244841",
          "blockTimestamp": "0x68d2ed65",
          "transactionHash": "0xe2af88c8ec5c395e3bec768a9bd3a9b79e4d2a1fd5ef1cfaf56fcf5678a56fac",
          "transactionIndex": "0x97",
          "logIndex": "0x244",
          "removed": false
        }
      ],
      "logsBloom": "0x00000000000200000000000000000000000000000000000000000000000000000000000000000000000000000000000000000000000000000000400000000000000000000000000000000000000000000000000000000000000000000000000000000000000000000000000000000000000000000000000000000000000000000000000000000000000000000000000000000000000000000000000000080000000000000000000000000000000000000000000000000000000000000000000000000000000000000000000002000000000010000000002000000000000000000000000000000000000000000000000000000000000000000000000000000000",
      "type": "0x2",
      "transactionHash": "0xe2af88c8ec5c395e3bec768a9bd3a9b79e4d2a1fd5ef1cfaf56fcf5678a56fac",
      "transactionIndex": "0x97",
      "blockHash": "0x6aef9a0c8b0c6f3fdd34e0b4897328d3eb7ebc212cee487da65588c3c4f78027",
      "blockNumber": "0x2244841",
      "gasUsed": "0x9efc",
      "effectiveGasPrice": "0x3d0a39",
      "from": "0x0ece75f3c36f7df2136dac7633165dbff53de3cd",
      "to": "0x00ba39332e93b0f9fa0a29035704402ef25733c8",
      "contractAddress": null,
      "l1BaseFeeScalar": "0x8dd",
      "l1BlobBaseFee": "0x31",
      "l1BlobBaseFeeScalar": "0x101c12",
      "l1Fee": "0x5bcd3982",
      "l1GasPrice": "0x1469a692",
      "l1GasUsed": "0x7be"
    },
    {
      "status": "0x1",
      "cumulativeGasUsed": "0x21f4d78",
      "logs": [
        {
          "address": "0x62601f0ddc60da8eea79746fbeb89ed8e6f87ad6",
          "topics": [
            "0xbe4864a8e820971c0247f5992e2da559595f7bf076a21cb5928d443d2a13b674"
          ],
          "data": "0x00000000000000000000000000000000000000000000000000000000000000200000000000000000000000000000000000000000000000000000000000000002000000000000000000000000000000000000000000000000000000000000004000000000000000000000000000000000000000000000000000000000000000e0000000000000000000000000000000000000000000000000000000000000000000000000000000000000000000000000000000000000000000000000000000010000000000000000000000000000000000000000000000000000000000000060000000000000000000000000000000000000000000000000000000000000001600030100110100000000000000000000000000013880000000000000000000000000000000000000000000000000000000000000000000000000000000000000000000000000000000000000000000000000000000000000000000000000000100000000000000000000000000000000000000000000000000000000000000600000000000000000000000000000000000000000000000000000000000000016000301001101000000000000000000000000000186a000000000000000000000",
          "blockHash": "0x6aef9a0c8b0c6f3fdd34e0b4897328d3eb7ebc212cee487da65588c3c4f78027",
          "blockNumber": "0x2244841",
          "blockTimestamp": "0x68d2ed65",
          "transactionHash": "0x6414bae623aab8885d0b9d53a18e311834896f390036a4da355ee0a64c80bf77",
          "transactionIndex": "0x98",
          "logIndex": "0x245",
          "removed": false
        }
      ],
      "logsBloom": "0x00000000000000000000000000000000000000000000000000000000000000000000000000000000000000000000000000000000000000000000400000000000000000000000000000000000000000000000000000000000000000000000000000000000000000000000000000000000000000010000000000000100000000000000000000000000000000000000000000000000000000000000000000080000000000000000000000000000000000000000000004000000000000000000000000000000000000000000000002000000000000000000000000000000000000000000000000000000000000000000000000000000000000000000000000000000",
      "type": "0x2",
      "transactionHash": "0x6414bae623aab8885d0b9d53a18e311834896f390036a4da355ee0a64c80bf77",
      "transactionIndex": "0x98",
      "blockHash": "0x6aef9a0c8b0c6f3fdd34e0b4897328d3eb7ebc212cee487da65588c3c4f78027",
      "blockNumber": "0x2244841",
      "gasUsed": "0x9efc",
      "effectiveGasPrice": "0x3d0a39",
      "from": "0x0ece75f3c36f7df2136dac7633165dbff53de3cd",
      "to": "0x62601f0ddc60da8eea79746fbeb89ed8e6f87ad6",
      "contractAddress": null,
      "l1BaseFeeScalar": "0x8dd",
      "l1BlobBaseFee": "0x31",
      "l1BlobBaseFeeScalar": "0x101c12",
      "l1Fee": "0x5bcd3982",
      "l1GasPrice": "0x1469a692",
      "l1GasUsed": "0x7be"
    }
  ],
  "libraries": [],
  "pending": [],
  "returns": {},
  "timestamp": 1758653796012,
  "chain": 8453,
  "commit": "53213c9"
}