{
  "transactions": [
    {
      "hash": "0x267804dba69d8bc740513c777b9dca11d13939b678b6314f9bca082d147798ef",
      "transactionType": "CALL",
      "contractName": null,
      "contractAddress": "0xeb9f1639f3270fe520f1a34b98b0226e360b9097",
      "function": "setEnforcedOptions((uint32,uint16,bytes)[])",
      "arguments": [
        "[(0, 1, 0x00030100110100000000000000000000000000013880), (0, 1, 0x000301001101000000000000000000000000000186a0)]"
      ],
      "transaction": {
        "from": "0x0ece75f3c36f7df2136dac7633165dbff53de3cd",
        "to": "0xeb9f1639f3270fe520f1a34b98b0226e360b9097",
        "gas": "0xdb97",
        "value": "0x0",
        "input": "0xb98bd07000000000000000000000000000000000000000000000000000000000000000200000000000000000000000000000000000000000000000000000000000000002000000000000000000000000000000000000000000000000000000000000004000000000000000000000000000000000000000000000000000000000000000e0000000000000000000000000000000000000000000000000000000000000000000000000000000000000000000000000000000000000000000000000000000010000000000000000000000000000000000000000000000000000000000000060000000000000000000000000000000000000000000000000000000000000001600030100110100000000000000000000000000013880000000000000000000000000000000000000000000000000000000000000000000000000000000000000000000000000000000000000000000000000000000000000000000000000000100000000000000000000000000000000000000000000000000000000000000600000000000000000000000000000000000000000000000000000000000000016000301001101000000000000000000000000000186a000000000000000000000",
        "nonce": "0x1e7",
        "chainId": "0x2105"
      },
      "additionalContracts": [],
      "isFixedGasLimit": false
    },
    {
      "hash": "0x2191228b2c20e80cd75320f5ec3455f87df08817754003f5caaccf8a5ea1a140",
      "transactionType": "CALL",
      "contractName": null,
      "contractAddress": "0x00ba39332e93b0f9fa0a29035704402ef25733c8",
      "function": "setEnforcedOptions((uint32,uint16,bytes)[])",
      "arguments": [
        "[(0, 1, 0x00030100110100000000000000000000000000013880), (0, 1, 0x000301001101000000000000000000000000000186a0)]"
      ],
      "transaction": {
        "from": "0x0ece75f3c36f7df2136dac7633165dbff53de3cd",
        "to": "0x00ba39332e93b0f9fa0a29035704402ef25733c8",
        "gas": "0xdb97",
        "value": "0x0",
        "input": "0xb98bd07000000000000000000000000000000000000000000000000000000000000000200000000000000000000000000000000000000000000000000000000000000002000000000000000000000000000000000000000000000000000000000000004000000000000000000000000000000000000000000000000000000000000000e0000000000000000000000000000000000000000000000000000000000000000000000000000000000000000000000000000000000000000000000000000000010000000000000000000000000000000000000000000000000000000000000060000000000000000000000000000000000000000000000000000000000000001600030100110100000000000000000000000000013880000000000000000000000000000000000000000000000000000000000000000000000000000000000000000000000000000000000000000000000000000000000000000000000000000100000000000000000000000000000000000000000000000000000000000000600000000000000000000000000000000000000000000000000000000000000016000301001101000000000000000000000000000186a000000000000000000000",
        "nonce": "0x1e8",
        "chainId": "0x2105"
      },
      "additionalContracts": [],
      "isFixedGasLimit": false
    },
    {
      "hash": "0xd6d5b31495b5a48edc4e3c843172c6982b85c3e8fac097e2b64286568d0e3d7b",
      "transactionType": "CALL",
      "contractName": null,
      "contractAddress": "0x62601f0ddc60da8eea79746fbeb89ed8e6f87ad6",
      "function": "setEnforcedOptions((uint32,uint16,bytes)[])",
      "arguments": [
        "[(0, 1, 0x00030100110100000000000000000000000000013880), (0, 1, 0x000301001101000000000000000000000000000186a0)]"
      ],
      "transaction": {
        "from": "0x0ece75f3c36f7df2136dac7633165dbff53de3cd",
        "to": "0x62601f0ddc60da8eea79746fbeb89ed8e6f87ad6",
        "gas": "0xdb97",
        "value": "0x0",
        "input": "0xb98bd07000000000000000000000000000000000000000000000000000000000000000200000000000000000000000000000000000000000000000000000000000000002000000000000000000000000000000000000000000000000000000000000004000000000000000000000000000000000000000000000000000000000000000e0000000000000000000000000000000000000000000000000000000000000000000000000000000000000000000000000000000000000000000000000000000010000000000000000000000000000000000000000000000000000000000000060000000000000000000000000000000000000000000000000000000000000001600030100110100000000000000000000000000013880000000000000000000000000000000000000000000000000000000000000000000000000000000000000000000000000000000000000000000000000000000000000000000000000000100000000000000000000000000000000000000000000000000000000000000600000000000000000000000000000000000000000000000000000000000000016000301001101000000000000000000000000000186a000000000000000000000",
        "nonce": "0x1e9",
        "chainId": "0x2105"
      },
      "additionalContracts": [],
      "isFixedGasLimit": false
    }
  ],
  "receipts": [
    {
      "status": "0x1",
      "cumulativeGasUsed": "0x23d6d05",
      "logs": [
        {
          "address": "0xeb9f1639f3270fe520f1a34b98b0226e360b9097",
          "topics": [
            "0xbe4864a8e820971c0247f5992e2da559595f7bf076a21cb5928d443d2a13b674"
          ],
          "data": "0x00000000000000000000000000000000000000000000000000000000000000200000000000000000000000000000000000000000000000000000000000000002000000000000000000000000000000000000000000000000000000000000004000000000000000000000000000000000000000000000000000000000000000e0000000000000000000000000000000000000000000000000000000000000000000000000000000000000000000000000000000000000000000000000000000010000000000000000000000000000000000000000000000000000000000000060000000000000000000000000000000000000000000000000000000000000001600030100110100000000000000000000000000013880000000000000000000000000000000000000000000000000000000000000000000000000000000000000000000000000000000000000000000000000000000000000000000000000000100000000000000000000000000000000000000000000000000000000000000600000000000000000000000000000000000000000000000000000000000000016000301001101000000000000000000000000000186a000000000000000000000",
          "blockHash": "0x3f67963482f2bced5eca15b3a789a9f5500ee3ed19de62e42cf58356d5a807fc",
          "blockNumber": "0x224480d",
          "blockTimestamp": "0x68d2ecfd",
          "transactionHash": "0x267804dba69d8bc740513c777b9dca11d13939b678b6314f9bca082d147798ef",
          "transactionIndex": "0xd5",
          "logIndex": "0x230",
          "removed": false
        }
      ],
      "logsBloom": "0x00000000000000000000000000000000002000000000000000000000080000000000000000000000000000000000000000000000000000000000400000000000001000000000000000000000000000000000000000000000000000000000000000000000000000000000000000000000000000000000000000000000000000000000000000000000000000000000000000000000000000000000000000080000000000000000000000000000000000000000000000000000000000000000000000000000000000000000000002000000000000000000000000000000000000000000000000000000000000000000000000000000000000000000000000000000",
      "type": "0x2",
      "transactionHash": "0x267804dba69d8bc740513c777b9dca11d13939b678b6314f9bca082d147798ef",
      "transactionIndex": "0xd5",
      "blockHash": "0x3f67963482f2bced5eca15b3a789a9f5500ee3ed19de62e42cf58356d5a807fc",
      "blockNumber": "0x224480d",
      "gasUsed": "0x9efc",
      "effectiveGasPrice": "0x3bf49d",
      "from": "0x0ece75f3c36f7df2136dac7633165dbff53de3cd",
      "to": "0xeb9f1639f3270fe520f1a34b98b0226e360b9097",
      "contractAddress": null,
      "l1BaseFeeScalar": "0x8dd",
      "l1BlobBaseFee": "0x29",
      "l1BlobBaseFeeScalar": "0x101c12",
      "l1Fee": "0x5066bdb9",
      "l1GasPrice": "0x11e0b529",
      "l1GasUsed": "0x7be"
    },
    {
      "status": "0x1",
      "cumulativeGasUsed": "0x23e0c01",
      "logs": [
        {
          "address": "0x00ba39332e93b0f9fa0a29035704402ef25733c8",
          "topics": [
            "0xbe4864a8e820971c0247f5992e2da559595f7bf076a21cb5928d443d2a13b674"
          ],
          "data": "0x00000000000000000000000000000000000000000000000000000000000000200000000000000000000000000000000000000000000000000000000000000002000000000000000000000000000000000000000000000000000000000000004000000000000000000000000000000000000000000000000000000000000000e0000000000000000000000000000000000000000000000000000000000000000000000000000000000000000000000000000000000000000000000000000000010000000000000000000000000000000000000000000000000000000000000060000000000000000000000000000000000000000000000000000000000000001600030100110100000000000000000000000000013880000000000000000000000000000000000000000000000000000000000000000000000000000000000000000000000000000000000000000000000000000000000000000000000000000100000000000000000000000000000000000000000000000000000000000000600000000000000000000000000000000000000000000000000000000000000016000301001101000000000000000000000000000186a000000000000000000000",
          "blockHash": "0x3f67963482f2bced5eca15b3a789a9f5500ee3ed19de62e42cf58356d5a807fc",
          "blockNumber": "0x224480d",
          "blockTimestamp": "0x68d2ecfd",
          "transactionHash": "0x2191228b2c20e80cd75320f5ec3455f87df08817754003f5caaccf8a5ea1a140",
          "transactionIndex": "0xd6",
          "logIndex": "0x231",
          "removed": false
        }
      ],
      "logsBloom": "0x00000000000200000000000000000000000000000000000000000000000000000000000000000000000000000000000000000000000000000000400000000000000000000000000000000000000000000000000000000000000000000000000000000000000000000000000000000000000000000000000000000000000000000000000000000000000000000000000000000000000000000000000000080000000000000000000000000000000000000000000000000000000000000000000000000000000000000000000002000000000010000000002000000000000000000000000000000000000000000000000000000000000000000000000000000000",
      "type": "0x2",
      "transactionHash": "0x2191228b2c20e80cd75320f5ec3455f87df08817754003f5caaccf8a5ea1a140",
      "transactionIndex": "0xd6",
      "blockHash": "0x3f67963482f2bced5eca15b3a789a9f5500ee3ed19de62e42cf58356d5a807fc",
      "blockNumber": "0x224480d",
      "gasUsed": "0x9efc",
      "effectiveGasPrice": "0x3bf49d",
      "from": "0x0ece75f3c36f7df2136dac7633165dbff53de3cd",
      "to": "0x00ba39332e93b0f9fa0a29035704402ef25733c8",
      "contractAddress": null,
      "l1BaseFeeScalar": "0x8dd",
      "l1BlobBaseFee": "0x29",
      "l1BlobBaseFeeScalar": "0x101c12",
      "l1Fee": "0x5066bdb9",
      "l1GasPrice": "0x11e0b529",
      "l1GasUsed": "0x7be"
    },
    {
      "status": "0x1",
      "cumulativeGasUsed": "0x23eaafd",
      "logs": [
        {
          "address": "0x62601f0ddc60da8eea79746fbeb89ed8e6f87ad6",
          "topics": [
            "0xbe4864a8e820971c0247f5992e2da559595f7bf076a21cb5928d443d2a13b674"
          ],
          "data": "0x00000000000000000000000000000000000000000000000000000000000000200000000000000000000000000000000000000000000000000000000000000002000000000000000000000000000000000000000000000000000000000000004000000000000000000000000000000000000000000000000000000000000000e0000000000000000000000000000000000000000000000000000000000000000000000000000000000000000000000000000000000000000000000000000000010000000000000000000000000000000000000000000000000000000000000060000000000000000000000000000000000000000000000000000000000000001600030100110100000000000000000000000000013880000000000000000000000000000000000000000000000000000000000000000000000000000000000000000000000000000000000000000000000000000000000000000000000000000100000000000000000000000000000000000000000000000000000000000000600000000000000000000000000000000000000000000000000000000000000016000301001101000000000000000000000000000186a000000000000000000000",
          "blockHash": "0x3f67963482f2bced5eca15b3a789a9f5500ee3ed19de62e42cf58356d5a807fc",
          "blockNumber": "0x224480d",
          "blockTimestamp": "0x68d2ecfd",
          "transactionHash": "0xd6d5b31495b5a48edc4e3c843172c6982b85c3e8fac097e2b64286568d0e3d7b",
          "transactionIndex": "0xd7",
          "logIndex": "0x232",
          "removed": false
        }
      ],
      "logsBloom": "0x00000000000000000000000000000000000000000000000000000000000000000000000000000000000000000000000000000000000000000000400000000000000000000000000000000000000000000000000000000000000000000000000000000000000000000000000000000000000000010000000000000100000000000000000000000000000000000000000000000000000000000000000000080000000000000000000000000000000000000000000004000000000000000000000000000000000000000000000002000000000000000000000000000000000000000000000000000000000000000000000000000000000000000000000000000000",
      "type": "0x2",
      "transactionHash": "0xd6d5b31495b5a48edc4e3c843172c6982b85c3e8fac097e2b64286568d0e3d7b",
      "transactionIndex": "0xd7",
      "blockHash": "0x3f67963482f2bced5eca15b3a789a9f5500ee3ed19de62e42cf58356d5a807fc",
      "blockNumber": "0x224480d",
      "gasUsed": "0x9efc",
      "effectiveGasPrice": "0x3bf49d",
      "from": "0x0ece75f3c36f7df2136dac7633165dbff53de3cd",
      "to": "0x62601f0ddc60da8eea79746fbeb89ed8e6f87ad6",
      "contractAddress": null,
      "l1BaseFeeScalar": "0x8dd",
      "l1BlobBaseFee": "0x29",
      "l1BlobBaseFeeScalar": "0x101c12",
      "l1Fee": "0x5066bdb9",
      "l1GasPrice": "0x11e0b529",
      "l1GasUsed": "0x7be"
    }
  ],
  "libraries": [],
  "pending": [],
  "returns": {},
  "timestamp": 1758653692854,
  "chain": 8453,
  "commit": "53213c9"
}