{
  "transactions": [
    {
      "hash": "0x24871739a4f69cc460b66c92762c266a7ddcf5ba29e3a6837c60fa941310763a",
      "transactionType": "CALL",
      "contractName": null,
      "contractAddress": "0xeb9f1639f3270fe520f1a34b98b0226e360b9097",
      "function": "setPeer(uint32,bytes32)",
      "arguments": [
        "30184",
        "0x000000000000000000000000eb9f1639f3270fe520f1a34b98b0226e360b9097"
      ],
      "transaction": {
        "from": "0x0ece75f3c36f7df2136dac7633165dbff53de3cd",
        "to": "0xeb9f1639f3270fe520f1a34b98b0226e360b9097",
        "gas": "0x1141b",
        "value": "0x0",
        "input": "0x3400288b00000000000000000000000000000000000000000000000000000000000075e8000000000000000000000000eb9f1639f3270fe520f1a34b98b0226e360b9097",
        "nonce": "0x1db",
        "chainId": "0x2105"
      },
      "additionalContracts": [],
      "isFixedGasLimit": false
    },
    {
      "hash": "0x2a2c217b1e8716edc7fcee52dfa384bb62d7e043b4342f51d5feaeb3e74549fe",
      "transactionType": "CALL",
      "contractName": null,
      "contractAddress": "0x00ba39332e93b0f9fa0a29035704402ef25733c8",
      "function": "setPeer(uint32,bytes32)",
      "arguments": [
        "30184",
        "0x00000000000000000000000000ba39332e93b0f9fa0a29035704402ef25733c8"
      ],
      "transaction": {
        "from": "0x0ece75f3c36f7df2136dac7633165dbff53de3cd",
        "to": "0x00ba39332e93b0f9fa0a29035704402ef25733c8",
        "gas": "0xa25a",
        "value": "0x0",
        "input": "0x3400288b00000000000000000000000000000000000000000000000000000000000075e800000000000000000000000000ba39332e93b0f9fa0a29035704402ef25733c8",
        "nonce": "0x1dc",
        "chainId": "0x2105"
      },
      "additionalContracts": [],
      "isFixedGasLimit": false
    },
    {
      "hash": "0x19c31d717ba372fa2f4936fe7f0caf398eba22e71a4838963aa78f04180d89ef",
      "transactionType": "CALL",
      "contractName": null,
      "contractAddress": "0x62601f0ddc60da8eea79746fbeb89ed8e6f87ad6",
      "function": "setPeer(uint32,bytes32)",
      "arguments": [
        "30184",
        "0x00000000000000000000000062601f0ddc60da8eea79746fbeb89ed8e6f87ad6"
      ],
      "transaction": {
        "from": "0x0ece75f3c36f7df2136dac7633165dbff53de3cd",
        "to": "0x62601f0ddc60da8eea79746fbeb89ed8e6f87ad6",
        "gas": "0x9965",
        "value": "0x0",
        "input": "0x3400288b00000000000000000000000000000000000000000000000000000000000075e800000000000000000000000062601f0ddc60da8eea79746fbeb89ed8e6f87ad6",
        "nonce": "0x1dd",
        "chainId": "0x2105"
      },
      "additionalContracts": [],
      "isFixedGasLimit": false
    },
    {
      "hash": "0xe6711b0e4bc0d2ab3d916a9410f71c44492294e18959b984bf1278d3592a738b",
      "transactionType": "CALL",
      "contractName": null,
      "contractAddress": "0xeb9f1639f3270fe520f1a34b98b0226e360b9097",
      "function": "setPeer(uint32,bytes32)",
      "arguments": [
        "30111",
        "0x00000000000000000000000087e5824d9cff9e4d2cd368a87d0a8418a72874e5"
      ],
      "transaction": {
        "from": "0x0ece75f3c36f7df2136dac7633165dbff53de3cd",
        "to": "0xeb9f1639f3270fe520f1a34b98b0226e360b9097",
        "gas": "0x1141b",
        "value": "0x0",
        "input": "0x3400288b000000000000000000000000000000000000000000000000000000000000759f00000000000000000000000087e5824d9cff9e4d2cd368a87d0a8418a72874e5",
        "nonce": "0x1de",
        "chainId": "0x2105"
      },
      "additionalContracts": [],
      "isFixedGasLimit": false
    },
    {
      "hash": "0xb806ce8027ec31eed708c41689abff30c532861c5dd71a9bfe84c05820ea6ca3",
      "transactionType": "CALL",
      "contractName": null,
      "contractAddress": "0x00ba39332e93b0f9fa0a29035704402ef25733c8",
      "function": "setPeer(uint32,bytes32)",
      "arguments": [
        "30111",
        "0x00000000000000000000000095608557eb1fa88d07fb6af29fcb76b25a93bb2c"
      ],
      "transaction": {
        "from": "0x0ece75f3c36f7df2136dac7633165dbff53de3cd",
        "to": "0x00ba39332e93b0f9fa0a29035704402ef25733c8",
        "gas": "0x9965",
        "value": "0x0",
        "input": "0x3400288b000000000000000000000000000000000000000000000000000000000000759f00000000000000000000000095608557eb1fa88d07fb6af29fcb76b25a93bb2c",
        "nonce": "0x1df",
        "chainId": "0x2105"
      },
      "additionalContracts": [],
      "isFixedGasLimit": false
    },
    {
      "hash": "0xe1e3be8a86fd05dcaa2c3a7663205b8e79442a3d30520ea69a0d525ae87f12a9",
      "transactionType": "CALL",
      "contractName": null,
      "contractAddress": "0x62601f0ddc60da8eea79746fbeb89ed8e6f87ad6",
      "function": "setPeer(uint32,bytes32)",
      "arguments": [
        "30111",
        "0x000000000000000000000000252d67d23308646cf6dae32a826de24ba21e7c12"
      ],
      "transaction": {
        "from": "0x0ece75f3c36f7df2136dac7633165dbff53de3cd",
        "to": "0x62601f0ddc60da8eea79746fbeb89ed8e6f87ad6",
        "gas": "0x9965",
        "value": "0x0",
        "input": "0x3400288b000000000000000000000000000000000000000000000000000000000000759f000000000000000000000000252d67d23308646cf6dae32a826de24ba21e7c12",
        "nonce": "0x1e0",
        "chainId": "0x2105"
      },
      "additionalContracts": [],
      "isFixedGasLimit": false
    },
    {
      "hash": "0x6ec15019d9d2d6d460c8fb5b7872051b2b845f8bc6d1d671951a584fa40dd3bc",
      "transactionType": "CALL",
      "contractName": null,
      "contractAddress": "0xeb9f1639f3270fe520f1a34b98b0226e360b9097",
      "function": "setEnforcedOptions((uint32,uint16,bytes)[])",
      "arguments": [
        "[(0, 1, 0x00030100110100000000000000000000000000013880), (0, 1, 0x000301001101000000000000000000000000000186a0)]"
      ],
      "transaction": {
        "from": "0x0ece75f3c36f7df2136dac7633165dbff53de3cd",
        "to": "0xeb9f1639f3270fe520f1a34b98b0226e360b9097",
        "gas": "0x146f7",
        "value": "0x0",
        "input": "0xb98bd07000000000000000000000000000000000000000000000000000000000000000200000000000000000000000000000000000000000000000000000000000000002000000000000000000000000000000000000000000000000000000000000004000000000000000000000000000000000000000000000000000000000000000e0000000000000000000000000000000000000000000000000000000000000000000000000000000000000000000000000000000000000000000000000000000010000000000000000000000000000000000000000000000000000000000000060000000000000000000000000000000000000000000000000000000000000001600030100110100000000000000000000000000013880000000000000000000000000000000000000000000000000000000000000000000000000000000000000000000000000000000000000000000000000000000000000000000000000000100000000000000000000000000000000000000000000000000000000000000600000000000000000000000000000000000000000000000000000000000000016000301001101000000000000000000000000000186a000000000000000000000",
        "nonce": "0x1e1",
        "chainId": "0x2105"
      },
      "additionalContracts": [],
      "isFixedGasLimit": false
    },
    {
      "hash": "0xa3d711a08e820798b0161db1aab837c3002701b2a8a9530861f2e8145a387646",
      "transactionType": "CALL",
      "contractName": null,
      "contractAddress": "0x00ba39332e93b0f9fa0a29035704402ef25733c8",
      "function": "setEnforcedOptions((uint32,uint16,bytes)[])",
      "arguments": [
        "[(0, 1, 0x00030100110100000000000000000000000000013880), (0, 1, 0x000301001101000000000000000000000000000186a0)]"
      ],
      "transaction": {
        "from": "0x0ece75f3c36f7df2136dac7633165dbff53de3cd",
        "to": "0x00ba39332e93b0f9fa0a29035704402ef25733c8",
        "gas": "0xdb97",
        "value": "0x0",
        "input": "0xb98bd07000000000000000000000000000000000000000000000000000000000000000200000000000000000000000000000000000000000000000000000000000000002000000000000000000000000000000000000000000000000000000000000004000000000000000000000000000000000000000000000000000000000000000e0000000000000000000000000000000000000000000000000000000000000000000000000000000000000000000000000000000000000000000000000000000010000000000000000000000000000000000000000000000000000000000000060000000000000000000000000000000000000000000000000000000000000001600030100110100000000000000000000000000013880000000000000000000000000000000000000000000000000000000000000000000000000000000000000000000000000000000000000000000000000000000000000000000000000000100000000000000000000000000000000000000000000000000000000000000600000000000000000000000000000000000000000000000000000000000000016000301001101000000000000000000000000000186a000000000000000000000",
        "nonce": "0x1e2",
        "chainId": "0x2105"
      },
      "additionalContracts": [],
      "isFixedGasLimit": false
    },
    {
      "hash": "0x942184d1d0b9845ed7d1dde27626eb39bc2cfbb8e0a00d0cecb2999b953d354f",
      "transactionType": "CALL",
      "contractName": null,
      "contractAddress": "0x62601f0ddc60da8eea79746fbeb89ed8e6f87ad6",
      "function": "setEnforcedOptions((uint32,uint16,bytes)[])",
      "arguments": [
        "[(0, 1, 0x00030100110100000000000000000000000000013880), (0, 1, 0x000301001101000000000000000000000000000186a0)]"
      ],
      "transaction": {
        "from": "0x0ece75f3c36f7df2136dac7633165dbff53de3cd",
        "to": "0x62601f0ddc60da8eea79746fbeb89ed8e6f87ad6",
        "gas": "0xdb97",
        "value": "0x0",
        "input": "0xb98bd07000000000000000000000000000000000000000000000000000000000000000200000000000000000000000000000000000000000000000000000000000000002000000000000000000000000000000000000000000000000000000000000004000000000000000000000000000000000000000000000000000000000000000e0000000000000000000000000000000000000000000000000000000000000000000000000000000000000000000000000000000000000000000000000000000010000000000000000000000000000000000000000000000000000000000000060000000000000000000000000000000000000000000000000000000000000001600030100110100000000000000000000000000013880000000000000000000000000000000000000000000000000000000000000000000000000000000000000000000000000000000000000000000000000000000000000000000000000000100000000000000000000000000000000000000000000000000000000000000600000000000000000000000000000000000000000000000000000000000000016000301001101000000000000000000000000000186a000000000000000000000",
        "nonce": "0x1e3",
        "chainId": "0x2105"
      },
      "additionalContracts": [],
      "isFixedGasLimit": false
    },
    {
      "hash": "0x5c2bdc6f9a6d27e1b9bb3780f0319901295d90de633265baa84852f098be4e0b",
      "transactionType": "CALL",
      "contractName": null,
      "contractAddress": "0x5a28316959551da618f84070fff70b390270185c",
      "function": "setOftAddress(address,address)",
      "arguments": [
        "0x735886f4EE69FFe3c7a156e8584B46748eDdB388",
        "0x0000000000000000000000000000000000000000"
      ],
      "transaction": {
        "from": "0x0ece75f3c36f7df2136dac7633165dbff53de3cd",
        "to": "0x5a28316959551da618f84070fff70b390270185c",
        "gas": "0xb5a2",
        "value": "0x0",
        "input": "0xf09a0d6b000000000000000000000000735886f4ee69ffe3c7a156e8584b46748eddb3880000000000000000000000000000000000000000000000000000000000000000",
        "nonce": "0x1e4",
        "chainId": "0x2105"
      },
      "additionalContracts": [],
      "isFixedGasLimit": false
    },
    {
      "hash": "0x497ff65834733287d3587fcf383fff280ed781e2aa06eda33990f88e56311e49",
      "transactionType": "CALL",
      "contractName": null,
      "contractAddress": "0x5a28316959551da618f84070fff70b390270185c",
      "function": "setOftAddress(address,address)",
      "arguments": [
        "0x9fc9E6332a4eD0b5a5C24602A0821A0e44189681",
        "0x0000000000000000000000000000000000000000"
      ],
      "transaction": {
        "from": "0x0ece75f3c36f7df2136dac7633165dbff53de3cd",
        "to": "0x5a28316959551da618f84070fff70b390270185c",
        "gas": "0xb5a2",
        "value": "0x0",
        "input": "0xf09a0d6b0000000000000000000000009fc9e6332a4ed0b5a5c24602a0821a0e441896810000000000000000000000000000000000000000000000000000000000000000",
        "nonce": "0x1e5",
        "chainId": "0x2105"
      },
      "additionalContracts": [],
      "isFixedGasLimit": false
    },
    {
      "hash": "0x704387d397374124f7224890863c127b73c31b3e7474246dd7c33a36faadcb23",
      "transactionType": "CALL",
      "contractName": null,
      "contractAddress": "0x5a28316959551da618f84070fff70b390270185c",
      "function": "setOftAddress(address,address)",
      "arguments": [
        "0x35487f37efb8F27f70e3A8Db62d04C1edfB69aE1",
        "0x0000000000000000000000000000000000000000"
      ],
      "transaction": {
        "from": "0x0ece75f3c36f7df2136dac7633165dbff53de3cd",
        "to": "0x5a28316959551da618f84070fff70b390270185c",
        "gas": "0xb5a2",
        "value": "0x0",
        "input": "0xf09a0d6b00000000000000000000000035487f37efb8f27f70e3a8db62d04c1edfb69ae10000000000000000000000000000000000000000000000000000000000000000",
        "nonce": "0x1e6",
        "chainId": "0x2105"
      },
      "additionalContracts": [],
      "isFixedGasLimit": false
    }
  ],
  "receipts": [
    {
      "status": "0x1",
      "cumulativeGasUsed": "0x867cc6",
      "logs": [
        {
          "address": "0xeb9f1639f3270fe520f1a34b98b0226e360b9097",
          "topics": [
            "0x238399d427b947898edb290f5ff0f9109849b1c3ba196a42e35f00c50a54b98b"
          ],
          "data": "0x00000000000000000000000000000000000000000000000000000000000075e8000000000000000000000000eb9f1639f3270fe520f1a34b98b0226e360b9097",
          "blockHash": "0x2ed252e481492ad49022b44612c6b7a93a4b8a266be18af82d3cebe1b7d54d64",
          "blockNumber": "0x22447eb",
          "blockTimestamp": "0x68d2ecb9",
          "transactionHash": "0x24871739a4f69cc460b66c92762c266a7ddcf5ba29e3a6837c60fa941310763a",
          "transactionIndex": "0x24",
          "logIndex": "0xab",
          "removed": false
        }
      ],
      "logsBloom": "0x00000000000000000000000000000000002000000000000000000000080000000000000000000000000000000000000000000000000000000800000000000000001000000000000000000000000000000000000000000000000000000000000000000000000000000000000000000000000000000000000000000000000000000000000000000000000000000000000000000000000000000000000000000000000000000000000000000000000000000000000000000000000002000000000000000000000000000000000000000000000000000000000000040000000000000000000000000000000000000000000000000000000000000000000000000000",
      "type": "0x2",
      "transactionHash": "0x24871739a4f69cc460b66c92762c266a7ddcf5ba29e3a6837c60fa941310763a",
      "transactionIndex": "0x24",
      "blockHash": "0x2ed252e481492ad49022b44612c6b7a93a4b8a266be18af82d3cebe1b7d54d64",
      "blockNumber": "0x22447eb",
      "gasUsed": "0xbccb",
      "effectiveGasPrice": "0x3e6268",
      "from": "0x0ece75f3c36f7df2136dac7633165dbff53de3cd",
      "to": "0xeb9f1639f3270fe520f1a34b98b0226e360b9097",
      "contractAddress": null,
      "l1BaseFeeScalar": "0x8dd",
      "l1BlobBaseFee": "0x20",
      "l1BlobBaseFeeScalar": "0x101c12",
      "l1Fee": "0x440f8c71",
      "l1GasPrice": "0x12bf5525",
      "l1GasUsed": "0x640"
    },
    {
      "status": "0x1",
      "cumulativeGasUsed": "0x86ebc9",
      "logs": [
        {
          "address": "0x00ba39332e93b0f9fa0a29035704402ef25733c8",
          "topics": [
            "0x238399d427b947898edb290f5ff0f9109849b1c3ba196a42e35f00c50a54b98b"
          ],
          "data": "0x00000000000000000000000000000000000000000000000000000000000075e800000000000000000000000000ba39332e93b0f9fa0a29035704402ef25733c8",
          "blockHash": "0x2ed252e481492ad49022b44612c6b7a93a4b8a266be18af82d3cebe1b7d54d64",
          "blockNumber": "0x22447eb",
          "blockTimestamp": "0x68d2ecb9",
          "transactionHash": "0x2a2c217b1e8716edc7fcee52dfa384bb62d7e043b4342f51d5feaeb3e74549fe",
          "transactionIndex": "0x25",
          "logIndex": "0xac",
          "removed": false
        }
      ],
      "logsBloom": "0x00000000000200000000000000000000000000000000000000000000000000000000000000000000000000000000000000000000000000000800000000000000000000000000000000000000000000000000000000000000000000000000000000000000000000000000000000000000000000000000000000000000000000000000000000000000000000000000000000000000000000000000000000000000000000000000000000000000000000000000000000000000000002000000000000000000000000000000000000000000000010000000002000040000000000000000000000000000000000000000000000000000000000000000000000000000",
      "type": "0x2",
      "transactionHash": "0x2a2c217b1e8716edc7fcee52dfa384bb62d7e043b4342f51d5feaeb3e74549fe",
      "transactionIndex": "0x25",
      "blockHash": "0x2ed252e481492ad49022b44612c6b7a93a4b8a266be18af82d3cebe1b7d54d64",
      "blockNumber": "0x22447eb",
      "gasUsed": "0x6f03",
      "effectiveGasPrice": "0x3e6268",
      "from": "0x0ece75f3c36f7df2136dac7633165dbff53de3cd",
      "to": "0x00ba39332e93b0f9fa0a29035704402ef25733c8",
      "contractAddress": null,
      "l1BaseFeeScalar": "0x8dd",
      "l1BlobBaseFee": "0x20",
      "l1BlobBaseFeeScalar": "0x101c12",
      "l1Fee": "0x440f8c71",
      "l1GasPrice": "0x12bf5525",
      "l1GasUsed": "0x640"
    },
    {
      "status": "0x1",
      "cumulativeGasUsed": "0x875ad8",
      "logs": [
        {
          "address": "0x62601f0ddc60da8eea79746fbeb89ed8e6f87ad6",
          "topics": [
            "0x238399d427b947898edb290f5ff0f9109849b1c3ba196a42e35f00c50a54b98b"
          ],
          "data": "0x00000000000000000000000000000000000000000000000000000000000075e800000000000000000000000062601f0ddc60da8eea79746fbeb89ed8e6f87ad6",
          "blockHash": "0x2ed252e481492ad49022b44612c6b7a93a4b8a266be18af82d3cebe1b7d54d64",
          "blockNumber": "0x22447eb",
          "blockTimestamp": "0x68d2ecb9",
          "transactionHash": "0x19c31d717ba372fa2f4936fe7f0caf398eba22e71a4838963aa78f04180d89ef",
          "transactionIndex": "0x26",
          "logIndex": "0xad",
          "removed": false
        }
      ],
      "logsBloom": "0x00000000000000000000000000000000000000000000000000000000000000000000000000000000000000000000000000000000000000000800000000000000000000000000000000000000000000000000000000000000000000000000000000000000000000000000000000000000000000010000000000000100000000000000000000000000000000000000000000000000000000000000000000000000000000000000000000000000000000000000000004000000000002000000000000000000000000000000000000000000000000000000000000040000000000000000000000000000000000000000000000000000000000000000000000000000",
      "type": "0x2",
      "transactionHash": "0x19c31d717ba372fa2f4936fe7f0caf398eba22e71a4838963aa78f04180d89ef",
      "transactionIndex": "0x26",
      "blockHash": "0x2ed252e481492ad49022b44612c6b7a93a4b8a266be18af82d3cebe1b7d54d64",
      "blockNumber": "0x22447eb",
      "gasUsed": "0x6f0f",
      "effectiveGasPrice": "0x3e6268",
      "from": "0x0ece75f3c36f7df2136dac7633165dbff53de3cd",
      "to": "0x62601f0ddc60da8eea79746fbeb89ed8e6f87ad6",
      "contractAddress": null,
      "l1BaseFeeScalar": "0x8dd",
      "l1BlobBaseFee": "0x20",
      "l1BlobBaseFeeScalar": "0x101c12",
      "l1Fee": "0x440f8c71",
      "l1GasPrice": "0x12bf5525",
      "l1GasUsed": "0x640"
    },
    {
      "status": "0x1",
      "cumulativeGasUsed": "0x8817a3",
      "logs": [
        {
          "address": "0xeb9f1639f3270fe520f1a34b98b0226e360b9097",
          "topics": [
            "0x238399d427b947898edb290f5ff0f9109849b1c3ba196a42e35f00c50a54b98b"
          ],
          "data": "0x000000000000000000000000000000000000000000000000000000000000759f00000000000000000000000087e5824d9cff9e4d2cd368a87d0a8418a72874e5",
          "blockHash": "0x2ed252e481492ad49022b44612c6b7a93a4b8a266be18af82d3cebe1b7d54d64",
          "blockNumber": "0x22447eb",
          "blockTimestamp": "0x68d2ecb9",
          "transactionHash": "0xe6711b0e4bc0d2ab3d916a9410f71c44492294e18959b984bf1278d3592a738b",
          "transactionIndex": "0x27",
          "logIndex": "0xae",
          "removed": false
        }
      ],
      "logsBloom": "0x00000000000000000000000000000000002000000000000000000000080000000000000000000000000000000000000000000000000000000800000000000000001000000000000000000000000000000000000000000000000000000000000000000000000000000000000000000000000000000000000000000000000000000000000000000000000000000000000000000000000000000000000000000000000000000000000000000000000000000000000000000000000002000000000000000000000000000000000000000000000000000000000000040000000000000000000000000000000000000000000000000000000000000000000000000000",
      "type": "0x2",
      "transactionHash": "0xe6711b0e4bc0d2ab3d916a9410f71c44492294e18959b984bf1278d3592a738b",
      "transactionIndex": "0x27",
      "blockHash": "0x2ed252e481492ad49022b44612c6b7a93a4b8a266be18af82d3cebe1b7d54d64",
      "blockNumber": "0x22447eb",
      "gasUsed": "0xbccb",
      "effectiveGasPrice": "0x3e6268",
      "from": "0x0ece75f3c36f7df2136dac7633165dbff53de3cd",
      "to": "0xeb9f1639f3270fe520f1a34b98b0226e360b9097",
      "contractAddress": null,
      "l1BaseFeeScalar": "0x8dd",
      "l1BlobBaseFee": "0x20",
      "l1BlobBaseFeeScalar": "0x101c12",
      "l1Fee": "0x440f8c71",
      "l1GasPrice": "0x12bf5525",
      "l1GasUsed": "0x640"
    },
    {
      "status": "0x1",
      "cumulativeGasUsed": "0x8c4272",
      "logs": [
        {
          "address": "0x00ba39332e93b0f9fa0a29035704402ef25733c8",
          "topics": [
            "0x238399d427b947898edb290f5ff0f9109849b1c3ba196a42e35f00c50a54b98b"
          ],
          "data": "0x000000000000000000000000000000000000000000000000000000000000759f00000000000000000000000095608557eb1fa88d07fb6af29fcb76b25a93bb2c",
          "blockHash": "0x2ed252e481492ad49022b44612c6b7a93a4b8a266be18af82d3cebe1b7d54d64",
          "blockNumber": "0x22447eb",
          "blockTimestamp": "0x68d2ecb9",
          "transactionHash": "0xb806ce8027ec31eed708c41689abff30c532861c5dd71a9bfe84c05820ea6ca3",
          "transactionIndex": "0x2c",
          "logIndex": "0xb3",
          "removed": false
        }
      ],
      "logsBloom": "0x00000000000200000000000000000000000000000000000000000000000000000000000000000000000000000000000000000000000000000800000000000000000000000000000000000000000000000000000000000000000000000000000000000000000000000000000000000000000000000000000000000000000000000000000000000000000000000000000000000000000000000000000000000000000000000000000000000000000000000000000000000000000002000000000000000000000000000000000000000000000010000000002000040000000000000000000000000000000000000000000000000000000000000000000000000000",
      "type": "0x2",
      "transactionHash": "0xb806ce8027ec31eed708c41689abff30c532861c5dd71a9bfe84c05820ea6ca3",
      "transactionIndex": "0x2c",
      "blockHash": "0x2ed252e481492ad49022b44612c6b7a93a4b8a266be18af82d3cebe1b7d54d64",
      "blockNumber": "0x22447eb",
      "gasUsed": "0x6f0f",
      "effectiveGasPrice": "0x3e6268",
      "from": "0x0ece75f3c36f7df2136dac7633165dbff53de3cd",
      "to": "0x00ba39332e93b0f9fa0a29035704402ef25733c8",
      "contractAddress": null,
      "l1BaseFeeScalar": "0x8dd",
      "l1BlobBaseFee": "0x20",
      "l1BlobBaseFeeScalar": "0x101c12",
      "l1Fee": "0x440f8c71",
      "l1GasPrice": "0x12bf5525",
      "l1GasUsed": "0x640"
    },
    {
      "status": "0x1",
      "cumulativeGasUsed": "0x8cb181",
      "logs": [
        {
          "address": "0x62601f0ddc60da8eea79746fbeb89ed8e6f87ad6",
          "topics": [
            "0x238399d427b947898edb290f5ff0f9109849b1c3ba196a42e35f00c50a54b98b"
          ],
          "data": "0x000000000000000000000000000000000000000000000000000000000000759f000000000000000000000000252d67d23308646cf6dae32a826de24ba21e7c12",
          "blockHash": "0x2ed252e481492ad49022b44612c6b7a93a4b8a266be18af82d3cebe1b7d54d64",
          "blockNumber": "0x22447eb",
          "blockTimestamp": "0x68d2ecb9",
          "transactionHash": "0xe1e3be8a86fd05dcaa2c3a7663205b8e79442a3d30520ea69a0d525ae87f12a9",
          "transactionIndex": "0x2d",
          "logIndex": "0xb4",
          "removed": false
        }
      ],
      "logsBloom": "0x00000000000000000000000000000000000000000000000000000000000000000000000000000000000000000000000000000000000000000800000000000000000000000000000000000000000000000000000000000000000000000000000000000000000000000000000000000000000000010000000000000100000000000000000000000000000000000000000000000000000000000000000000000000000000000000000000000000000000000000000004000000000002000000000000000000000000000000000000000000000000000000000000040000000000000000000000000000000000000000000000000000000000000000000000000000",
      "type": "0x2",
      "transactionHash": "0xe1e3be8a86fd05dcaa2c3a7663205b8e79442a3d30520ea69a0d525ae87f12a9",
      "transactionIndex": "0x2d",
      "blockHash": "0x2ed252e481492ad49022b44612c6b7a93a4b8a266be18af82d3cebe1b7d54d64",
      "blockNumber": "0x22447eb",
      "gasUsed": "0x6f0f",
      "effectiveGasPrice": "0x3e6268",
      "from": "0x0ece75f3c36f7df2136dac7633165dbff53de3cd",
      "to": "0x62601f0ddc60da8eea79746fbeb89ed8e6f87ad6",
      "contractAddress": null,
      "l1BaseFeeScalar": "0x8dd",
      "l1BlobBaseFee": "0x20",
      "l1BlobBaseFeeScalar": "0x101c12",
      "l1Fee": "0x440f8c71",
      "l1GasPrice": "0x12bf5525",
      "l1GasUsed": "0x640"
    },
    {
      "status": "0x1",
      "cumulativeGasUsed": "0x8d9e39",
      "logs": [
        {
          "address": "0xeb9f1639f3270fe520f1a34b98b0226e360b9097",
          "topics": [
            "0xbe4864a8e820971c0247f5992e2da559595f7bf076a21cb5928d443d2a13b674"
          ],
          "data": "0x00000000000000000000000000000000000000000000000000000000000000200000000000000000000000000000000000000000000000000000000000000002000000000000000000000000000000000000000000000000000000000000004000000000000000000000000000000000000000000000000000000000000000e0000000000000000000000000000000000000000000000000000000000000000000000000000000000000000000000000000000000000000000000000000000010000000000000000000000000000000000000000000000000000000000000060000000000000000000000000000000000000000000000000000000000000001600030100110100000000000000000000000000013880000000000000000000000000000000000000000000000000000000000000000000000000000000000000000000000000000000000000000000000000000000000000000000000000000100000000000000000000000000000000000000000000000000000000000000600000000000000000000000000000000000000000000000000000000000000016000301001101000000000000000000000000000186a000000000000000000000",
          "blockHash": "0x2ed252e481492ad49022b44612c6b7a93a4b8a266be18af82d3cebe1b7d54d64",
          "blockNumber": "0x22447eb",
          "blockTimestamp": "0x68d2ecb9",
          "transactionHash": "0x6ec15019d9d2d6d460c8fb5b7872051b2b845f8bc6d1d671951a584fa40dd3bc",
          "transactionIndex": "0x2e",
          "logIndex": "0xb5",
          "removed": false
        }
      ],
      "logsBloom": "0x00000000000000000000000000000000002000000000000000000000080000000000000000000000000000000000000000000000000000000000400000000000001000000000000000000000000000000000000000000000000000000000000000000000000000000000000000000000000000000000000000000000000000000000000000000000000000000000000000000000000000000000000000080000000000000000000000000000000000000000000000000000000000000000000000000000000000000000000002000000000000000000000000000000000000000000000000000000000000000000000000000000000000000000000000000000",
      "type": "0x2",
      "transactionHash": "0x6ec15019d9d2d6d460c8fb5b7872051b2b845f8bc6d1d671951a584fa40dd3bc",
      "transactionIndex": "0x2e",
      "blockHash": "0x2ed252e481492ad49022b44612c6b7a93a4b8a266be18af82d3cebe1b7d54d64",
      "blockNumber": "0x22447eb",
      "gasUsed": "0xecb8",
      "effectiveGasPrice": "0x3e6268",
      "from": "0x0ece75f3c36f7df2136dac7633165dbff53de3cd",
      "to": "0xeb9f1639f3270fe520f1a34b98b0226e360b9097",
      "contractAddress": null,
      "l1BaseFeeScalar": "0x8dd",
      "l1BlobBaseFee": "0x20",
      "l1BlobBaseFeeScalar": "0x101c12",
      "l1Fee": "0x54e1ac92",
      "l1GasPrice": "0x12bf5525",
      "l1GasUsed": "0x7cb"
    },
    {
      "status": "0x1",
      "cumulativeGasUsed": "0x1084300",
      "logs": [
        {
          "address": "0x00ba39332e93b0f9fa0a29035704402ef25733c8",
          "topics": [
            "0xbe4864a8e820971c0247f5992e2da559595f7bf076a21cb5928d443d2a13b674"
          ],
          "data": "0x00000000000000000000000000000000000000000000000000000000000000200000000000000000000000000000000000000000000000000000000000000002000000000000000000000000000000000000000000000000000000000000004000000000000000000000000000000000000000000000000000000000000000e0000000000000000000000000000000000000000000000000000000000000000000000000000000000000000000000000000000000000000000000000000000010000000000000000000000000000000000000000000000000000000000000060000000000000000000000000000000000000000000000000000000000000001600030100110100000000000000000000000000013880000000000000000000000000000000000000000000000000000000000000000000000000000000000000000000000000000000000000000000000000000000000000000000000000000100000000000000000000000000000000000000000000000000000000000000600000000000000000000000000000000000000000000000000000000000000016000301001101000000000000000000000000000186a000000000000000000000",
          "blockHash": "0x2ed252e481492ad49022b44612c6b7a93a4b8a266be18af82d3cebe1b7d54d64",
          "blockNumber": "0x22447eb",
          "blockTimestamp": "0x68d2ecb9",
          "transactionHash": "0xa3d711a08e820798b0161db1aab837c3002701b2a8a9530861f2e8145a387646",
          "transactionIndex": "0x52",
          "logIndex": "0x176",
          "removed": false
        }
      ],
      "logsBloom": "0x00000000000200000000000000000000000000000000000000000000000000000000000000000000000000000000000000000000000000000000400000000000000000000000000000000000000000000000000000000000000000000000000000000000000000000000000000000000000000000000000000000000000000000000000000000000000000000000000000000000000000000000000000080000000000000000000000000000000000000000000000000000000000000000000000000000000000000000000002000000000010000000002000000000000000000000000000000000000000000000000000000000000000000000000000000000",
      "type": "0x2",
      "transactionHash": "0xa3d711a08e820798b0161db1aab837c3002701b2a8a9530861f2e8145a387646",
      "transactionIndex": "0x52",
      "blockHash": "0x2ed252e481492ad49022b44612c6b7a93a4b8a266be18af82d3cebe1b7d54d64",
      "blockNumber": "0x22447eb",
      "gasUsed": "0x9efc",
      "effectiveGasPrice": "0x3e6268",
      "from": "0x0ece75f3c36f7df2136dac7633165dbff53de3cd",
      "to": "0x00ba39332e93b0f9fa0a29035704402ef25733c8",
      "contractAddress": null,
      "l1BaseFeeScalar": "0x8dd",
      "l1BlobBaseFee": "0x20",
      "l1BlobBaseFeeScalar": "0x101c12",
      "l1Fee": "0x544fed16",
      "l1GasPrice": "0x12bf5525",
      "l1GasUsed": "0x7be"
    },
    {
      "status": "0x1",
      "cumulativeGasUsed": "0x1099a84",
      "logs": [
        {
          "address": "0x62601f0ddc60da8eea79746fbeb89ed8e6f87ad6",
          "topics": [
            "0xbe4864a8e820971c0247f5992e2da559595f7bf076a21cb5928d443d2a13b674"
          ],
          "data": "0x00000000000000000000000000000000000000000000000000000000000000200000000000000000000000000000000000000000000000000000000000000002000000000000000000000000000000000000000000000000000000000000004000000000000000000000000000000000000000000000000000000000000000e0000000000000000000000000000000000000000000000000000000000000000000000000000000000000000000000000000000000000000000000000000000010000000000000000000000000000000000000000000000000000000000000060000000000000000000000000000000000000000000000000000000000000001600030100110100000000000000000000000000013880000000000000000000000000000000000000000000000000000000000000000000000000000000000000000000000000000000000000000000000000000000000000000000000000000100000000000000000000000000000000000000000000000000000000000000600000000000000000000000000000000000000000000000000000000000000016000301001101000000000000000000000000000186a000000000000000000000",
          "blockHash": "0x2ed252e481492ad49022b44612c6b7a93a4b8a266be18af82d3cebe1b7d54d64",
          "blockNumber": "0x22447eb",
          "blockTimestamp": "0x68d2ecb9",
          "transactionHash": "0x942184d1d0b9845ed7d1dde27626eb39bc2cfbb8e0a00d0cecb2999b953d354f",
          "transactionIndex": "0x54",
          "logIndex": "0x178",
          "removed": false
        }
      ],
      "logsBloom": "0x00000000000000000000000000000000000000000000000000000000000000000000000000000000000000000000000000000000000000000000400000000000000000000000000000000000000000000000000000000000000000000000000000000000000000000000000000000000000000010000000000000100000000000000000000000000000000000000000000000000000000000000000000080000000000000000000000000000000000000000000004000000000000000000000000000000000000000000000002000000000000000000000000000000000000000000000000000000000000000000000000000000000000000000000000000000",
      "type": "0x2",
      "transactionHash": "0x942184d1d0b9845ed7d1dde27626eb39bc2cfbb8e0a00d0cecb2999b953d354f",
      "transactionIndex": "0x54",
      "blockHash": "0x2ed252e481492ad49022b44612c6b7a93a4b8a266be18af82d3cebe1b7d54d64",
      "blockNumber": "0x22447eb",
      "gasUsed": "0x9efc",
      "effectiveGasPrice": "0x3e6268",
      "from": "0x0ece75f3c36f7df2136dac7633165dbff53de3cd",
      "to": "0x62601f0ddc60da8eea79746fbeb89ed8e6f87ad6",
      "contractAddress": null,
      "l1BaseFeeScalar": "0x8dd",
      "l1BlobBaseFee": "0x20",
      "l1BlobBaseFeeScalar": "0x101c12",
      "l1Fee": "0x544fed16",
      "l1GasPrice": "0x12bf5525",
      "l1GasUsed": "0x7be"
    },
    {
      "status": "0x1",
      "cumulativeGasUsed": "0x10a1e04",
      "logs": [
        {
          "address": "0x5a28316959551da618f84070fff70b390270185c",
          "topics": [
            "0x443eca89ae0d91090321746b66b1e5a800bf4f33b317a7dbc01dc310b55c3291",
            "0x000000000000000000000000735886f4ee69ffe3c7a156e8584b46748eddb388",
            "0x0000000000000000000000000000000000000000000000000000000000000000"
          ],
          "data": "0x",
          "blockHash": "0x2ed252e481492ad49022b44612c6b7a93a4b8a266be18af82d3cebe1b7d54d64",
          "blockNumber": "0x22447eb",
          "blockTimestamp": "0x68d2ecb9",
          "transactionHash": "0x5c2bdc6f9a6d27e1b9bb3780f0319901295d90de633265baa84852f098be4e0b",
          "transactionIndex": "0x55",
          "logIndex": "0x179",
          "removed": false
        }
      ],
      "logsBloom": "0x00000000000000000000000000000000000000000000000000000000000000200000000000000000200000000000000000000000000000000000000000000000000000000000000000000000000000000000000000000000000800000000000000000000020000000000000000000800000000000000010000000000000000000000000000000000000000000000000000004000000000000010000000000000000000000000000000000000000000000000100000000000000000000000000000000000000000000000000000000000000000000000000000000000000020000000000000000000000000000000000000000000000000000000000000000021",
      "type": "0x2",
      "transactionHash": "0x5c2bdc6f9a6d27e1b9bb3780f0319901295d90de633265baa84852f098be4e0b",
      "transactionIndex": "0x55",
      "blockHash": "0x2ed252e481492ad49022b44612c6b7a93a4b8a266be18af82d3cebe1b7d54d64",
      "blockNumber": "0x22447eb",
      "gasUsed": "0x8380",
      "effectiveGasPrice": "0x3e6268",
      "from": "0x0ece75f3c36f7df2136dac7633165dbff53de3cd",
      "to": "0x5a28316959551da618f84070fff70b390270185c",
      "contractAddress": null,
      "l1BaseFeeScalar": "0x8dd",
      "l1BlobBaseFee": "0x20",
      "l1BlobBaseFeeScalar": "0x101c12",
      "l1Fee": "0x440f8c71",
      "l1GasPrice": "0x12bf5525",
      "l1GasUsed": "0x640"
    },
    {
      "status": "0x1",
      "cumulativeGasUsed": "0x10aa184",
      "logs": [
        {
          "address": "0x5a28316959551da618f84070fff70b390270185c",
          "topics": [
            "0x443eca89ae0d91090321746b66b1e5a800bf4f33b317a7dbc01dc310b55c3291",
            "0x0000000000000000000000009fc9e6332a4ed0b5a5c24602a0821a0e44189681",
            "0x0000000000000000000000000000000000000000000000000000000000000000"
          ],
          "data": "0x",
          "blockHash": "0x2ed252e481492ad49022b44612c6b7a93a4b8a266be18af82d3cebe1b7d54d64",
          "blockNumber": "0x22447eb",
          "blockTimestamp": "0x68d2ecb9",
          "transactionHash": "0x497ff65834733287d3587fcf383fff280ed781e2aa06eda33990f88e56311e49",
          "transactionIndex": "0x56",
          "logIndex": "0x17a",
          "removed": false
        }
      ],
      "logsBloom": "0x00000000000000000000000000000000000000000000000000000000000000200000000000000000000000000000000000000000100000000000000000000000000000000000000000000000000000000000000000000000000800000000000000800000020000000000000000000800000000000000000000080000000000000000000000000000000000000000000000004000000000000000000000000000000000000000000000000000000000000000100000000000000000000000000000000000000000000000000000000000000000000000000000000000000020000000000000000000000000000000000000000000000000000000000000000021",
      "type": "0x2",
      "transactionHash": "0x497ff65834733287d3587fcf383fff280ed781e2aa06eda33990f88e56311e49",
      "transactionIndex": "0x56",
      "blockHash": "0x2ed252e481492ad49022b44612c6b7a93a4b8a266be18af82d3cebe1b7d54d64",
      "blockNumber": "0x22447eb",
      "gasUsed": "0x8380",
      "effectiveGasPrice": "0x3e6268",
      "from": "0x0ece75f3c36f7df2136dac7633165dbff53de3cd",
      "to": "0x5a28316959551da618f84070fff70b390270185c",
      "contractAddress": null,
      "l1BaseFeeScalar": "0x8dd",
      "l1BlobBaseFee": "0x20",
      "l1BlobBaseFeeScalar": "0x101c12",
      "l1Fee": "0x440f8c71",
      "l1GasPrice": "0x12bf5525",
      "l1GasUsed": "0x640"
    },
    {
      "status": "0x1",
      "cumulativeGasUsed": "0x17fbb87",
      "logs": [
        {
          "address": "0x5a28316959551da618f84070fff70b390270185c",
          "topics": [
            "0x443eca89ae0d91090321746b66b1e5a800bf4f33b317a7dbc01dc310b55c3291",
            "0x00000000000000000000000035487f37efb8f27f70e3a8db62d04c1edfb69ae1",
            "0x0000000000000000000000000000000000000000000000000000000000000000"
          ],
          "data": "0x",
          "blockHash": "0x92e18198beb30e63c3bb99d28a2b0b086e9af0e5c7e31206feca9fcfbd0dd83c",
          "blockNumber": "0x22447eb",
          "blockTimestamp": "0x68d2ecb9",
          "transactionHash": "0x704387d397374124f7224890863c127b73c31b3e7474246dd7c33a36faadcb23",
          "transactionIndex": "0x65",
          "logIndex": "0x1f8",
          "removed": false
        }
      ],
      "logsBloom": "0x00000000000000000000000000000000000000000000000000000000000000200000000000000000000000000000000000000000000000000000000000000000000000000000000000000000000000000000000000080000000800000000000000000000020000000000000000000800000000000000000000000000000000000000000000000000000000000000000000004000000000000000000000000000000000000000000000000000000000000000100000000000000000000000000000000000000000000000000000000000000000000000000000000040080020000000000000000000000000000000000000000000000000000000000000000021",
      "type": "0x2",
      "transactionHash": "0x704387d397374124f7224890863c127b73c31b3e7474246dd7c33a36faadcb23",
      "transactionIndex": "0x65",
      "blockHash": "0x92e18198beb30e63c3bb99d28a2b0b086e9af0e5c7e31206feca9fcfbd0dd83c",
      "blockNumber": "0x22447eb",
      "gasUsed": "0x8380",
      "effectiveGasPrice": "0x3e6268",
      "from": "0x0ece75f3c36f7df2136dac7633165dbff53de3cd",
      "to": "0x5a28316959551da618f84070fff70b390270185c",
      "contractAddress": null,
      "l1BaseFeeScalar": "0x8dd",
      "l1BlobBaseFee": "0x20",
      "l1BlobBaseFeeScalar": "0x101c12",
      "l1Fee": "0x440f8c71",
      "l1GasPrice": "0x12bf5525",
      "l1GasUsed": "0x640"
    }
  ],
  "libraries": [],
  "pending": [],
  "returns": {},
  "timestamp": 1758653623837,
  "chain": 8453,
  "commit": "53213c9"
}