{
  "deployments": [
    {
      "transactions": [
        {
          "hash": "0x05a86a8cf430c78cb11c14e4345911e2e22605c1aa8733827891d6da842b2851",
          "transactionType": "CALL",
          "contractName": null,
          "contractAddress": "0x1a44076050125825900e736c501f859c50fe728c",
          "function": "setConfig(address,address,(uint32,uint32,bytes)[])",
          "arguments": [
            "0x5A0971E3D6E0793b9FcE640E821435fD8F9Fd906",
            "0xc70AB6f32772f59fBfc23889Caf4Ba3376C84bAf",
            "[(30184, 2, 0x0000000000000000000000000000000000000000000000000000000000000020000000000000000000000000000000000000000000000000000000000000000f000000000000000000000000000000000000000000000000000000000000000200000000000000000000000000000000000000000000000000000000000000ff000000000000000000000000000000000000000000000000000000000000000000000000000000000000000000000000000000000000000000000000000000c000000000000000000000000000000000000000000000000000000000000001200000000000000000000000000000000000000000000000000000000000000002000000000000000000000000554833698ae0fb22ecc90b01222903fd62ca4b47000000000000000000000000a7b5189bca84cd304d8553977c7c614329750d990000000000000000000000000000000000000000000000000000000000000000), (30111, 2, 0x0000000000000000000000000000000000000000000000000000000000000020000000000000000000000000000000000000000000000000000000000000000f000000000000000000000000000000000000000000000000000000000000000200000000000000000000000000000000000000000000000000000000000000ff000000000000000000000000000000000000000000000000000000000000000000000000000000000000000000000000000000000000000000000000000000c000000000000000000000000000000000000000000000000000000000000001200000000000000000000000000000000000000000000000000000000000000002000000000000000000000000554833698ae0fb22ecc90b01222903fd62ca4b47000000000000000000000000a7b5189bca84cd304d8553977c7c614329750d990000000000000000000000000000000000000000000000000000000000000000)]"
          ],
          "transaction": {
            "from": "0x0ece75f3c36f7df2136dac7633165dbff53de3cd",
            "to": "0x1a44076050125825900e736c501f859c50fe728c",
            "gas": "0x5818a",
            "value": "0x0",
            "input": "0x6dbd9f900000000000000000000000005a0971e3d6e0793b9fce640e821435fd8f9fd906000000000000000000000000c70ab6f32772f59fbfc23889caf4ba3376c84baf000000000000000000000000000000000000000000000000000000000000006000000000000000000000000000000000000000000000000000000000000000020000000000000000000000000000000000000000000000000000000000000040000000000000000000000000000000000000000000000000000000000000022000000000000000000000000000000000000000000000000000000000000075e80000000000000000000000000000000000000000000000000000000000000002000000000000000000000000000000000000000000000000000000000000006000000000000000000000000000000000000000000000000000000000000001600000000000000000000000000000000000000000000000000000000000000020000000000000000000000000000000000000000000000000000000000000000f000000000000000000000000000000000000000000000000000000000000000200000000000000000000000000000000000000000000000000000000000000ff000000000000000000000000000000000000000000000000000000000000000000000000000000000000000000000000000000000000000000000000000000c000000000000000000000000000000000000000000000000000000000000001200000000000000000000000000000000000000000000000000000000000000002000000000000000000000000554833698ae0fb22ecc90b01222903fd62ca4b47000000000000000000000000a7b5189bca84cd304d8553977c7c614329750d990000000000000000000000000000000000000000000000000000000000000000000000000000000000000000000000000000000000000000000000000000759f0000000000000000000000000000000000000000000000000000000000000002000000000000000000000000000000000000000000000000000000000000006000000000000000000000000000000000000000000000000000000000000001600000000000000000000000000000000000000000000000000000000000000020000000000000000000000000000000000000000000000000000000000000000f000000000000000000000000000000000000000000000000000000000000000200000000000000000000000000000000000000000000000000000000000000ff000000000000000000000000000000000000000000000000000000000000000000000000000000000000000000000000000000000000000000000000000000c000000000000000000000000000000000000000000000000000000000000001200000000000000000000000000000000000000000000000000000000000000002000000000000000000000000554833698ae0fb22ecc90b01222903fd62ca4b47000000000000000000000000a7b5189bca84cd304d8553977c7c614329750d990000000000000000000000000000000000000000000000000000000000000000",
            "nonce": "0x1a3",
            "chainId": "0x2105"
          },
          "additionalContracts": [],
          "isFixedGasLimit": false
        },
        {
          "hash": "0xefd9e491aff8dd622832492dd433e226ecb35cd0dd3360da299650f6339c5120",
          "transactionType": "CALL",
          "contractName": null,
          "contractAddress": "0x1a44076050125825900e736c501f859c50fe728c",
          "function": "setConfig(address,address,(uint32,uint32,bytes)[])",
          "arguments": [
            "0x2E18Dc8038252fE4855ac66f4aB73Abe3A18B91c",
            "0xc70AB6f32772f59fBfc23889Caf4Ba3376C84bAf",
            "[(30184, 2, 0x0000000000000000000000000000000000000000000000000000000000000020000000000000000000000000000000000000000000000000000000000000000f000000000000000000000000000000000000000000000000000000000000000200000000000000000000000000000000000000000000000000000000000000ff000000000000000000000000000000000000000000000000000000000000000000000000000000000000000000000000000000000000000000000000000000c000000000000000000000000000000000000000000000000000000000000001200000000000000000000000000000000000000000000000000000000000000002000000000000000000000000554833698ae0fb22ecc90b01222903fd62ca4b47000000000000000000000000a7b5189bca84cd304d8553977c7c614329750d990000000000000000000000000000000000000000000000000000000000000000), (30111, 2, 0x0000000000000000000000000000000000000000000000000000000000000020000000000000000000000000000000000000000000000000000000000000000f000000000000000000000000000000000000000000000000000000000000000200000000000000000000000000000000000000000000000000000000000000ff000000000000000000000000000000000000000000000000000000000000000000000000000000000000000000000000000000000000000000000000000000c000000000000000000000000000000000000000000000000000000000000001200000000000000000000000000000000000000000000000000000000000000002000000000000000000000000554833698ae0fb22ecc90b01222903fd62ca4b47000000000000000000000000a7b5189bca84cd304d8553977c7c614329750d990000000000000000000000000000000000000000000000000000000000000000)]"
          ],
          "transaction": {
            "from": "0x0ece75f3c36f7df2136dac7633165dbff53de3cd",
            "to": "0x1a44076050125825900e736c501f859c50fe728c",
            "gas": "0x5818a",
            "value": "0x0",
            "input": "0x6dbd9f900000000000000000000000002e18dc8038252fe4855ac66f4ab73abe3a18b91c000000000000000000000000c70ab6f32772f59fbfc23889caf4ba3376c84baf000000000000000000000000000000000000000000000000000000000000006000000000000000000000000000000000000000000000000000000000000000020000000000000000000000000000000000000000000000000000000000000040000000000000000000000000000000000000000000000000000000000000022000000000000000000000000000000000000000000000000000000000000075e80000000000000000000000000000000000000000000000000000000000000002000000000000000000000000000000000000000000000000000000000000006000000000000000000000000000000000000000000000000000000000000001600000000000000000000000000000000000000000000000000000000000000020000000000000000000000000000000000000000000000000000000000000000f000000000000000000000000000000000000000000000000000000000000000200000000000000000000000000000000000000000000000000000000000000ff000000000000000000000000000000000000000000000000000000000000000000000000000000000000000000000000000000000000000000000000000000c000000000000000000000000000000000000000000000000000000000000001200000000000000000000000000000000000000000000000000000000000000002000000000000000000000000554833698ae0fb22ecc90b01222903fd62ca4b47000000000000000000000000a7b5189bca84cd304d8553977c7c614329750d990000000000000000000000000000000000000000000000000000000000000000000000000000000000000000000000000000000000000000000000000000759f0000000000000000000000000000000000000000000000000000000000000002000000000000000000000000000000000000000000000000000000000000006000000000000000000000000000000000000000000000000000000000000001600000000000000000000000000000000000000000000000000000000000000020000000000000000000000000000000000000000000000000000000000000000f000000000000000000000000000000000000000000000000000000000000000200000000000000000000000000000000000000000000000000000000000000ff000000000000000000000000000000000000000000000000000000000000000000000000000000000000000000000000000000000000000000000000000000c000000000000000000000000000000000000000000000000000000000000001200000000000000000000000000000000000000000000000000000000000000002000000000000000000000000554833698ae0fb22ecc90b01222903fd62ca4b47000000000000000000000000a7b5189bca84cd304d8553977c7c614329750d990000000000000000000000000000000000000000000000000000000000000000",
            "nonce": "0x1a4",
            "chainId": "0x2105"
          },
          "additionalContracts": [],
          "isFixedGasLimit": false
        },
        {
          "hash": "0x63dbd57079ecc8175087c63b517a77686c7911aeea33713aec0a555280931d9f",
          "transactionType": "CALL",
          "contractName": null,
          "contractAddress": "0x1a44076050125825900e736c501f859c50fe728c",
          "function": "setConfig(address,address,(uint32,uint32,bytes)[])",
          "arguments": [
            "0x530a9078023bED663482D26CedB2bDf8d1d881Ea",
            "0xc70AB6f32772f59fBfc23889Caf4Ba3376C84bAf",
            "[(30184, 2, 0x0000000000000000000000000000000000000000000000000000000000000020000000000000000000000000000000000000000000000000000000000000000f000000000000000000000000000000000000000000000000000000000000000200000000000000000000000000000000000000000000000000000000000000ff000000000000000000000000000000000000000000000000000000000000000000000000000000000000000000000000000000000000000000000000000000c000000000000000000000000000000000000000000000000000000000000001200000000000000000000000000000000000000000000000000000000000000002000000000000000000000000554833698ae0fb22ecc90b01222903fd62ca4b47000000000000000000000000a7b5189bca84cd304d8553977c7c614329750d990000000000000000000000000000000000000000000000000000000000000000), (30111, 2, 0x0000000000000000000000000000000000000000000000000000000000000020000000000000000000000000000000000000000000000000000000000000000f000000000000000000000000000000000000000000000000000000000000000200000000000000000000000000000000000000000000000000000000000000ff000000000000000000000000000000000000000000000000000000000000000000000000000000000000000000000000000000000000000000000000000000c000000000000000000000000000000000000000000000000000000000000001200000000000000000000000000000000000000000000000000000000000000002000000000000000000000000554833698ae0fb22ecc90b01222903fd62ca4b47000000000000000000000000a7b5189bca84cd304d8553977c7c614329750d990000000000000000000000000000000000000000000000000000000000000000)]"
          ],
          "transaction": {
            "from": "0x0ece75f3c36f7df2136dac7633165dbff53de3cd",
            "to": "0x1a44076050125825900e736c501f859c50fe728c",
            "gas": "0x5818a",
            "value": "0x0",
            "input": "0x6dbd9f90000000000000000000000000530a9078023bed663482d26cedb2bdf8d1d881ea000000000000000000000000c70ab6f32772f59fbfc23889caf4ba3376c84baf000000000000000000000000000000000000000000000000000000000000006000000000000000000000000000000000000000000000000000000000000000020000000000000000000000000000000000000000000000000000000000000040000000000000000000000000000000000000000000000000000000000000022000000000000000000000000000000000000000000000000000000000000075e80000000000000000000000000000000000000000000000000000000000000002000000000000000000000000000000000000000000000000000000000000006000000000000000000000000000000000000000000000000000000000000001600000000000000000000000000000000000000000000000000000000000000020000000000000000000000000000000000000000000000000000000000000000f000000000000000000000000000000000000000000000000000000000000000200000000000000000000000000000000000000000000000000000000000000ff000000000000000000000000000000000000000000000000000000000000000000000000000000000000000000000000000000000000000000000000000000c000000000000000000000000000000000000000000000000000000000000001200000000000000000000000000000000000000000000000000000000000000002000000000000000000000000554833698ae0fb22ecc90b01222903fd62ca4b47000000000000000000000000a7b5189bca84cd304d8553977c7c614329750d990000000000000000000000000000000000000000000000000000000000000000000000000000000000000000000000000000000000000000000000000000759f0000000000000000000000000000000000000000000000000000000000000002000000000000000000000000000000000000000000000000000000000000006000000000000000000000000000000000000000000000000000000000000001600000000000000000000000000000000000000000000000000000000000000020000000000000000000000000000000000000000000000000000000000000000f000000000000000000000000000000000000000000000000000000000000000200000000000000000000000000000000000000000000000000000000000000ff000000000000000000000000000000000000000000000000000000000000000000000000000000000000000000000000000000000000000000000000000000c000000000000000000000000000000000000000000000000000000000000001200000000000000000000000000000000000000000000000000000000000000002000000000000000000000000554833698ae0fb22ecc90b01222903fd62ca4b47000000000000000000000000a7b5189bca84cd304d8553977c7c614329750d990000000000000000000000000000000000000000000000000000000000000000",
            "nonce": "0x1a5",
            "chainId": "0x2105"
          },
          "additionalContracts": [],
          "isFixedGasLimit": false
        },
        {
          "hash": "0x2504f015ad71cf488ecd2554a019bed1524066e52807636eb3532ce0d2244ecc",
          "transactionType": "CALL",
          "contractName": null,
          "contractAddress": "0x1a44076050125825900e736c501f859c50fe728c",
          "function": "setConfig(address,address,(uint32,uint32,bytes)[])",
          "arguments": [
            "0x2C4FDC631ce418196aB9835aAB82227A62c14c75",
            "0xc70AB6f32772f59fBfc23889Caf4Ba3376C84bAf",
            "[(30184, 2, 0x0000000000000000000000000000000000000000000000000000000000000020000000000000000000000000000000000000000000000000000000000000000f000000000000000000000000000000000000000000000000000000000000000200000000000000000000000000000000000000000000000000000000000000ff000000000000000000000000000000000000000000000000000000000000000000000000000000000000000000000000000000000000000000000000000000c000000000000000000000000000000000000000000000000000000000000001200000000000000000000000000000000000000000000000000000000000000002000000000000000000000000554833698ae0fb22ecc90b01222903fd62ca4b47000000000000000000000000a7b5189bca84cd304d8553977c7c614329750d990000000000000000000000000000000000000000000000000000000000000000), (30111, 2, 0x0000000000000000000000000000000000000000000000000000000000000020000000000000000000000000000000000000000000000000000000000000000f000000000000000000000000000000000000000000000000000000000000000200000000000000000000000000000000000000000000000000000000000000ff000000000000000000000000000000000000000000000000000000000000000000000000000000000000000000000000000000000000000000000000000000c000000000000000000000000000000000000000000000000000000000000001200000000000000000000000000000000000000000000000000000000000000002000000000000000000000000554833698ae0fb22ecc90b01222903fd62ca4b47000000000000000000000000a7b5189bca84cd304d8553977c7c614329750d990000000000000000000000000000000000000000000000000000000000000000)]"
          ],
          "transaction": {
            "from": "0x0ece75f3c36f7df2136dac7633165dbff53de3cd",
            "to": "0x1a44076050125825900e736c501f859c50fe728c",
            "gas": "0x5818a",
            "value": "0x0",
            "input": "0x6dbd9f900000000000000000000000002c4fdc631ce418196ab9835aab82227a62c14c75000000000000000000000000c70ab6f32772f59fbfc23889caf4ba3376c84baf000000000000000000000000000000000000000000000000000000000000006000000000000000000000000000000000000000000000000000000000000000020000000000000000000000000000000000000000000000000000000000000040000000000000000000000000000000000000000000000000000000000000022000000000000000000000000000000000000000000000000000000000000075e80000000000000000000000000000000000000000000000000000000000000002000000000000000000000000000000000000000000000000000000000000006000000000000000000000000000000000000000000000000000000000000001600000000000000000000000000000000000000000000000000000000000000020000000000000000000000000000000000000000000000000000000000000000f000000000000000000000000000000000000000000000000000000000000000200000000000000000000000000000000000000000000000000000000000000ff000000000000000000000000000000000000000000000000000000000000000000000000000000000000000000000000000000000000000000000000000000c000000000000000000000000000000000000000000000000000000000000001200000000000000000000000000000000000000000000000000000000000000002000000000000000000000000554833698ae0fb22ecc90b01222903fd62ca4b47000000000000000000000000a7b5189bca84cd304d8553977c7c614329750d990000000000000000000000000000000000000000000000000000000000000000000000000000000000000000000000000000000000000000000000000000759f0000000000000000000000000000000000000000000000000000000000000002000000000000000000000000000000000000000000000000000000000000006000000000000000000000000000000000000000000000000000000000000001600000000000000000000000000000000000000000000000000000000000000020000000000000000000000000000000000000000000000000000000000000000f000000000000000000000000000000000000000000000000000000000000000200000000000000000000000000000000000000000000000000000000000000ff000000000000000000000000000000000000000000000000000000000000000000000000000000000000000000000000000000000000000000000000000000c000000000000000000000000000000000000000000000000000000000000001200000000000000000000000000000000000000000000000000000000000000002000000000000000000000000554833698ae0fb22ecc90b01222903fd62ca4b47000000000000000000000000a7b5189bca84cd304d8553977c7c614329750d990000000000000000000000000000000000000000000000000000000000000000",
            "nonce": "0x1a6",
            "chainId": "0x2105"
          },
          "additionalContracts": [],
          "isFixedGasLimit": false
        }
      ],
      "receipts": [
        {
          "status": "0x1",
          "cumulativeGasUsed": "0xd4c3e0",
          "logs": [
            {
              "address": "0xc70ab6f32772f59fbfc23889caf4ba3376c84baf",
              "topics": [
                "0x82118522aa536ac0e96cc5c689407ae42b89d592aa133890a01f1509842f5081"
              ],
              "data": "0x0000000000000000000000005a0971e3d6e0793b9fce640e821435fd8f9fd90600000000000000000000000000000000000000000000000000000000000075e80000000000000000000000000000000000000000000000000000000000000060000000000000000000000000000000000000000000000000000000000000000f000000000000000000000000000000000000000000000000000000000000000200000000000000000000000000000000000000000000000000000000000000ff000000000000000000000000000000000000000000000000000000000000000000000000000000000000000000000000000000000000000000000000000000c000000000000000000000000000000000000000000000000000000000000001200000000000000000000000000000000000000000000000000000000000000002000000000000000000000000554833698ae0fb22ecc90b01222903fd62ca4b47000000000000000000000000a7b5189bca84cd304d8553977c7c614329750d990000000000000000000000000000000000000000000000000000000000000000",
              "blockHash": "0x814a0fafa3dca9cd8065d1b85e4b9b12c3be207cc6f5d799db180d0c501a264a",
              "blockNumber": "0x2244455",
              "blockTimestamp": "0x68d2e58d",
              "transactionHash": "0x05a86a8cf430c78cb11c14e4345911e2e22605c1aa8733827891d6da842b2851",
              "transactionIndex": "0x2a",
              "logIndex": "0x19e",
              "removed": false
            },
            {
              "address": "0xc70ab6f32772f59fbfc23889caf4ba3376c84baf",
              "topics": [
                "0x82118522aa536ac0e96cc5c689407ae42b89d592aa133890a01f1509842f5081"
              ],
              "data": "0x0000000000000000000000005a0971e3d6e0793b9fce640e821435fd8f9fd906000000000000000000000000000000000000000000000000000000000000759f0000000000000000000000000000000000000000000000000000000000000060000000000000000000000000000000000000000000000000000000000000000f000000000000000000000000000000000000000000000000000000000000000200000000000000000000000000000000000000000000000000000000000000ff000000000000000000000000000000000000000000000000000000000000000000000000000000000000000000000000000000000000000000000000000000c000000000000000000000000000000000000000000000000000000000000001200000000000000000000000000000000000000000000000000000000000000002000000000000000000000000554833698ae0fb22ecc90b01222903fd62ca4b47000000000000000000000000a7b5189bca84cd304d8553977c7c614329750d990000000000000000000000000000000000000000000000000000000000000000",
              "blockHash": "0x814a0fafa3dca9cd8065d1b85e4b9b12c3be207cc6f5d799db180d0c501a264a",
              "blockNumber": "0x2244455",
              "blockTimestamp": "0x68d2e58d",
              "transactionHash": "0x05a86a8cf430c78cb11c14e4345911e2e22605c1aa8733827891d6da842b2851",
              "transactionIndex": "0x2a",
              "logIndex": "0x19f",
              "removed": false
            }
          ],
          "logsBloom": "0x00000000000000000000000800000000000000000000000000000000000000000000000000000000000000000000000000000000000000000000000000000000000000000000000000000000000000000000000000000000002000080000000000000000000000000000000000000000000000000000000000000000000000000000000000000000000000000000000000000000000000000000000000000000000000000000000000000002000000000000000000000000000000000000000000000000000000000000000000000000000000000000000000000000000000000000000020000000000000000000000000000000000000000000000000000010",
          "type": "0x2",
          "transactionHash": "0x05a86a8cf430c78cb11c14e4345911e2e22605c1aa8733827891d6da842b2851",
          "transactionIndex": "0x2a",
          "blockHash": "0x814a0fafa3dca9cd8065d1b85e4b9b12c3be207cc6f5d799db180d0c501a264a",
          "blockNumber": "0x2244455",
          "gasUsed": "0x3c3ca",
          "effectiveGasPrice": "0x4a5f80",
          "from": "0x0ece75f3c36f7df2136dac7633165dbff53de3cd",
          "to": "0x1a44076050125825900e736c501f859c50fe728c",
          "contractAddress": null,
          "l1BaseFeeScalar": "0x8dd",
          "l1BlobBaseFee": "0x13",
          "l1BlobBaseFeeScalar": "0x101c12",
          "l1Fee": "0xb95fd88c",
          "l1GasPrice": "0x157c9e72",
          "l1GasUsed": "0xeda"
        },
        {
          "status": "0x1",
          "cumulativeGasUsed": "0xd887aa",
          "logs": [
            {
              "address": "0xc70ab6f32772f59fbfc23889caf4ba3376c84baf",
              "topics": [
                "0x82118522aa536ac0e96cc5c689407ae42b89d592aa133890a01f1509842f5081"
              ],
              "data": "0x0000000000000000000000002e18dc8038252fe4855ac66f4ab73abe3a18b91c00000000000000000000000000000000000000000000000000000000000075e80000000000000000000000000000000000000000000000000000000000000060000000000000000000000000000000000000000000000000000000000000000f000000000000000000000000000000000000000000000000000000000000000200000000000000000000000000000000000000000000000000000000000000ff000000000000000000000000000000000000000000000000000000000000000000000000000000000000000000000000000000000000000000000000000000c000000000000000000000000000000000000000000000000000000000000001200000000000000000000000000000000000000000000000000000000000000002000000000000000000000000554833698ae0fb22ecc90b01222903fd62ca4b47000000000000000000000000a7b5189bca84cd304d8553977c7c614329750d990000000000000000000000000000000000000000000000000000000000000000",
              "blockHash": "0x814a0fafa3dca9cd8065d1b85e4b9b12c3be207cc6f5d799db180d0c501a264a",
              "blockNumber": "0x2244455",
              "blockTimestamp": "0x68d2e58d",
              "transactionHash": "0xefd9e491aff8dd622832492dd433e226ecb35cd0dd3360da299650f6339c5120",
              "transactionIndex": "0x2b",
              "logIndex": "0x1a0",
              "removed": false
            },
            {
              "address": "0xc70ab6f32772f59fbfc23889caf4ba3376c84baf",
              "topics": [
                "0x82118522aa536ac0e96cc5c689407ae42b89d592aa133890a01f1509842f5081"
              ],
              "data": "0x0000000000000000000000002e18dc8038252fe4855ac66f4ab73abe3a18b91c000000000000000000000000000000000000000000000000000000000000759f0000000000000000000000000000000000000000000000000000000000000060000000000000000000000000000000000000000000000000000000000000000f000000000000000000000000000000000000000000000000000000000000000200000000000000000000000000000000000000000000000000000000000000ff000000000000000000000000000000000000000000000000000000000000000000000000000000000000000000000000000000000000000000000000000000c000000000000000000000000000000000000000000000000000000000000001200000000000000000000000000000000000000000000000000000000000000002000000000000000000000000554833698ae0fb22ecc90b01222903fd62ca4b47000000000000000000000000a7b5189bca84cd304d8553977c7c614329750d990000000000000000000000000000000000000000000000000000000000000000",
              "blockHash": "0x814a0fafa3dca9cd8065d1b85e4b9b12c3be207cc6f5d799db180d0c501a264a",
              "blockNumber": "0x2244455",
              "blockTimestamp": "0x68d2e58d",
              "transactionHash": "0xefd9e491aff8dd622832492dd433e226ecb35cd0dd3360da299650f6339c5120",
              "transactionIndex": "0x2b",
              "logIndex": "0x1a1",
              "removed": false
            }
          ],
          "logsBloom": "0x00000000000000000000000800000000000000000000000000000000000000000000000000000000000000000000000000000000000000000000000000000000000000000000000000000000000000000000000000000000002000080000000000000000000000000000000000000000000000000000000000000000000000000000000000000000000000000000000000000000000000000000000000000000000000000000000000000002000000000000000000000000000000000000000000000000000000000000000000000000000000000000000000000000000000000000000020000000000000000000000000000000000000000000000000000010",
          "type": "0x2",
          "transactionHash": "0xefd9e491aff8dd622832492dd433e226ecb35cd0dd3360da299650f6339c5120",
          "transactionIndex": "0x2b",
          "blockHash": "0x814a0fafa3dca9cd8065d1b85e4b9b12c3be207cc6f5d799db180d0c501a264a",
          "blockNumber": "0x2244455",
          "gasUsed": "0x3c3ca",
          "effectiveGasPrice": "0x4a5f80",
          "from": "0x0ece75f3c36f7df2136dac7633165dbff53de3cd",
          "to": "0x1a44076050125825900e736c501f859c50fe728c",
          "contractAddress": null,
          "l1BaseFeeScalar": "0x8dd",
          "l1BlobBaseFee": "0x13",
          "l1BlobBaseFeeScalar": "0x101c12",
          "l1Fee": "0xb95fd88c",
          "l1GasPrice": "0x157c9e72",
          "l1GasUsed": "0xeda"
        },
        {
          "status": "0x1",
          "cumulativeGasUsed": "0xdc4b74",
          "logs": [
            {
              "address": "0xc70ab6f32772f59fbfc23889caf4ba3376c84baf",
              "topics": [
                "0x82118522aa536ac0e96cc5c689407ae42b89d592aa133890a01f1509842f5081"
              ],
              "data": "0x000000000000000000000000530a9078023bed663482d26cedb2bdf8d1d881ea00000000000000000000000000000000000000000000000000000000000075e80000000000000000000000000000000000000000000000000000000000000060000000000000000000000000000000000000000000000000000000000000000f000000000000000000000000000000000000000000000000000000000000000200000000000000000000000000000000000000000000000000000000000000ff000000000000000000000000000000000000000000000000000000000000000000000000000000000000000000000000000000000000000000000000000000c000000000000000000000000000000000000000000000000000000000000001200000000000000000000000000000000000000000000000000000000000000002000000000000000000000000554833698ae0fb22ecc90b01222903fd62ca4b47000000000000000000000000a7b5189bca84cd304d8553977c7c614329750d990000000000000000000000000000000000000000000000000000000000000000",
              "blockHash": "0xc2c4cd309cde5803f4ff4f46ed970d851e47d5029bcd0c56046ad646f351f7ce",
              "blockNumber": "0x2244455",
              "blockTimestamp": "0x68d2e58d",
              "transactionHash": "0x63dbd57079ecc8175087c63b517a77686c7911aeea33713aec0a555280931d9f",
              "transactionIndex": "0x2c",
              "logIndex": "0x1a2",
              "removed": false
            },
            {
              "address": "0xc70ab6f32772f59fbfc23889caf4ba3376c84baf",
              "topics": [
                "0x82118522aa536ac0e96cc5c689407ae42b89d592aa133890a01f1509842f5081"
              ],
              "data": "0x000000000000000000000000530a9078023bed663482d26cedb2bdf8d1d881ea000000000000000000000000000000000000000000000000000000000000759f0000000000000000000000000000000000000000000000000000000000000060000000000000000000000000000000000000000000000000000000000000000f000000000000000000000000000000000000000000000000000000000000000200000000000000000000000000000000000000000000000000000000000000ff000000000000000000000000000000000000000000000000000000000000000000000000000000000000000000000000000000000000000000000000000000c000000000000000000000000000000000000000000000000000000000000001200000000000000000000000000000000000000000000000000000000000000002000000000000000000000000554833698ae0fb22ecc90b01222903fd62ca4b47000000000000000000000000a7b5189bca84cd304d8553977c7c614329750d990000000000000000000000000000000000000000000000000000000000000000",
              "blockHash": "0xc2c4cd309cde5803f4ff4f46ed970d851e47d5029bcd0c56046ad646f351f7ce",
              "blockNumber": "0x2244455",
              "blockTimestamp": "0x68d2e58d",
              "transactionHash": "0x63dbd57079ecc8175087c63b517a77686c7911aeea33713aec0a555280931d9f",
              "transactionIndex": "0x2c",
              "logIndex": "0x1a3",
              "removed": false
            }
          ],
          "logsBloom": "0x00000000000000000000000800000000000000000000000000000000000000000000000000000000000000000000000000000000000000000000000000000000000000000000000000000000000000000000000000000000002000080000000000000000000000000000000000000000000000000000000000000000000000000000000000000000000000000000000000000000000000000000000000000000000000000000000000000002000000000000000000000000000000000000000000000000000000000000000000000000000000000000000000000000000000000000000020000000000000000000000000000000000000000000000000000010",
          "type": "0x2",
          "transactionHash": "0x63dbd57079ecc8175087c63b517a77686c7911aeea33713aec0a555280931d9f",
          "transactionIndex": "0x2c",
          "blockHash": "0xc2c4cd309cde5803f4ff4f46ed970d851e47d5029bcd0c56046ad646f351f7ce",
          "blockNumber": "0x2244455",
          "gasUsed": "0x3c3ca",
          "effectiveGasPrice": "0x4a5f80",
          "from": "0x0ece75f3c36f7df2136dac7633165dbff53de3cd",
          "to": "0x1a44076050125825900e736c501f859c50fe728c",
          "contractAddress": null,
          "l1BaseFeeScalar": "0x8dd",
          "l1BlobBaseFee": "0x13",
          "l1BlobBaseFeeScalar": "0x101c12",
          "l1Fee": "0xb95fd88c",
          "l1GasPrice": "0x157c9e72",
          "l1GasUsed": "0xeda"
        },
        {
          "status": "0x1",
          "cumulativeGasUsed": "0xe00f3e",
          "logs": [
            {
              "address": "0xc70ab6f32772f59fbfc23889caf4ba3376c84baf",
              "topics": [
                "0x82118522aa536ac0e96cc5c689407ae42b89d592aa133890a01f1509842f5081"
              ],
              "data": "0x0000000000000000000000002c4fdc631ce418196ab9835aab82227a62c14c7500000000000000000000000000000000000000000000000000000000000075e80000000000000000000000000000000000000000000000000000000000000060000000000000000000000000000000000000000000000000000000000000000f000000000000000000000000000000000000000000000000000000000000000200000000000000000000000000000000000000000000000000000000000000ff000000000000000000000000000000000000000000000000000000000000000000000000000000000000000000000000000000000000000000000000000000c000000000000000000000000000000000000000000000000000000000000001200000000000000000000000000000000000000000000000000000000000000002000000000000000000000000554833698ae0fb22ecc90b01222903fd62ca4b47000000000000000000000000a7b5189bca84cd304d8553977c7c614329750d990000000000000000000000000000000000000000000000000000000000000000",
              "blockHash": "0x814a0fafa3dca9cd8065d1b85e4b9b12c3be207cc6f5d799db180d0c501a264a",
              "blockNumber": "0x2244455",
              "blockTimestamp": "0x68d2e58d",
              "transactionHash": "0x2504f015ad71cf488ecd2554a019bed1524066e52807636eb3532ce0d2244ecc",
              "transactionIndex": "0x2d",
              "logIndex": "0x1a4",
              "removed": false
            },
            {
              "address": "0xc70ab6f32772f59fbfc23889caf4ba3376c84baf",
              "topics": [
                "0x82118522aa536ac0e96cc5c689407ae42b89d592aa133890a01f1509842f5081"
              ],
              "data": "0x0000000000000000000000002c4fdc631ce418196ab9835aab82227a62c14c75000000000000000000000000000000000000000000000000000000000000759f0000000000000000000000000000000000000000000000000000000000000060000000000000000000000000000000000000000000000000000000000000000f000000000000000000000000000000000000000000000000000000000000000200000000000000000000000000000000000000000000000000000000000000ff000000000000000000000000000000000000000000000000000000000000000000000000000000000000000000000000000000000000000000000000000000c000000000000000000000000000000000000000000000000000000000000001200000000000000000000000000000000000000000000000000000000000000002000000000000000000000000554833698ae0fb22ecc90b01222903fd62ca4b47000000000000000000000000a7b5189bca84cd304d8553977c7c614329750d990000000000000000000000000000000000000000000000000000000000000000",
              "blockHash": "0x814a0fafa3dca9cd8065d1b85e4b9b12c3be207cc6f5d799db180d0c501a264a",
              "blockNumber": "0x2244455",
              "blockTimestamp": "0x68d2e58d",
              "transactionHash": "0x2504f015ad71cf488ecd2554a019bed1524066e52807636eb3532ce0d2244ecc",
              "transactionIndex": "0x2d",
              "logIndex": "0x1a5",
              "removed": false
            }
          ],
          "logsBloom": "0x00000000000000000000000800000000000000000000000000000000000000000000000000000000000000000000000000000000000000000000000000000000000000000000000000000000000000000000000000000000002000080000000000000000000000000000000000000000000000000000000000000000000000000000000000000000000000000000000000000000000000000000000000000000000000000000000000000002000000000000000000000000000000000000000000000000000000000000000000000000000000000000000000000000000000000000000020000000000000000000000000000000000000000000000000000010",
          "type": "0x2",
          "transactionHash": "0x2504f015ad71cf488ecd2554a019bed1524066e52807636eb3532ce0d2244ecc",
          "transactionIndex": "0x2d",
          "blockHash": "0x814a0fafa3dca9cd8065d1b85e4b9b12c3be207cc6f5d799db180d0c501a264a",
          "blockNumber": "0x2244455",
          "gasUsed": "0x3c3ca",
          "effectiveGasPrice": "0x4a5f80",
          "from": "0x0ece75f3c36f7df2136dac7633165dbff53de3cd",
          "to": "0x1a44076050125825900e736c501f859c50fe728c",
          "contractAddress": null,
          "l1BaseFeeScalar": "0x8dd",
          "l1BlobBaseFee": "0x13",
          "l1BlobBaseFeeScalar": "0x101c12",
          "l1Fee": "0xb95fd88c",
          "l1GasPrice": "0x157c9e72",
          "l1GasUsed": "0xeda"
        }
      ],
      "libraries": [],
      "pending": [],
      "returns": {},
      "timestamp": 1758651785722,
      "chain": 8453,
      "commit": "53213c9"
    },
    {
      "transactions": [
        {
          "hash": "0x5373c3d84879be769c1068fcd67dac04716d87065803d6ae478a3444f0e1e0f4",
          "transactionType": "CALL",
          "contractName": null,
          "contractAddress": "0x1a44076050125825900e736c501f859c50fe728c",
          "function": "setConfig(address,address,(uint32,uint32,bytes)[])",
          "arguments": [
            "0x10FD0d8280E94D0DbC3013b778Ef26d47105Ea7b",
            "0x3c4962Ff6258dcfCafD23a814237B7d6Eb712063",
            "[(30184, 2, 0x0000000000000000000000000000000000000000000000000000000000000020000000000000000000000000000000000000000000000000000000000000000f000000000000000000000000000000000000000000000000000000000000000200000000000000000000000000000000000000000000000000000000000000ff000000000000000000000000000000000000000000000000000000000000000000000000000000000000000000000000000000000000000000000000000000c0000000000000000000000000000000000000000000000000000000000000012000000000000000000000000000000000000000000000000000000000000000020000000000000000000000005b6735c66d97479ccd18294fc96b3084ecb2fa3f0000000000000000000000009e930731cb4a6bf7ecc11f695a295c60bdd212eb0000000000000000000000000000000000000000000000000000000000000000), (30111, 2, 0x0000000000000000000000000000000000000000000000000000000000000020000000000000000000000000000000000000000000000000000000000000000f000000000000000000000000000000000000000000000000000000000000000200000000000000000000000000000000000000000000000000000000000000ff000000000000000000000000000000000000000000000000000000000000000000000000000000000000000000000000000000000000000000000000000000c0000000000000000000000000000000000000000000000000000000000000012000000000000000000000000000000000000000000000000000000000000000020000000000000000000000005b6735c66d97479ccd18294fc96b3084ecb2fa3f0000000000000000000000009e930731cb4a6bf7ecc11f695a295c60bdd212eb0000000000000000000000000000000000000000000000000000000000000000)]"
          ],
          "transaction": {
            "from": "0x0ece75f3c36f7df2136dac7633165dbff53de3cd",
            "to": "0x1a44076050125825900e736c501f859c50fe728c",
            "gas": "0x5818a",
            "value": "0x0",
            "input": "0x6dbd9f9000000000000000000000000010fd0d8280e94d0dbc3013b778ef26d47105ea7b0000000000000000000000003c4962ff6258dcfcafd23a814237b7d6eb712063000000000000000000000000000000000000000000000000000000000000006000000000000000000000000000000000000000000000000000000000000000020000000000000000000000000000000000000000000000000000000000000040000000000000000000000000000000000000000000000000000000000000022000000000000000000000000000000000000000000000000000000000000075e80000000000000000000000000000000000000000000000000000000000000002000000000000000000000000000000000000000000000000000000000000006000000000000000000000000000000000000000000000000000000000000001600000000000000000000000000000000000000000000000000000000000000020000000000000000000000000000000000000000000000000000000000000000f000000000000000000000000000000000000000000000000000000000000000200000000000000000000000000000000000000000000000000000000000000ff000000000000000000000000000000000000000000000000000000000000000000000000000000000000000000000000000000000000000000000000000000c0000000000000000000000000000000000000000000000000000000000000012000000000000000000000000000000000000000000000000000000000000000020000000000000000000000005b6735c66d97479ccd18294fc96b3084ecb2fa3f0000000000000000000000009e930731cb4a6bf7ecc11f695a295c60bdd212eb0000000000000000000000000000000000000000000000000000000000000000000000000000000000000000000000000000000000000000000000000000759f0000000000000000000000000000000000000000000000000000000000000002000000000000000000000000000000000000000000000000000000000000006000000000000000000000000000000000000000000000000000000000000001600000000000000000000000000000000000000000000000000000000000000020000000000000000000000000000000000000000000000000000000000000000f000000000000000000000000000000000000000000000000000000000000000200000000000000000000000000000000000000000000000000000000000000ff000000000000000000000000000000000000000000000000000000000000000000000000000000000000000000000000000000000000000000000000000000c0000000000000000000000000000000000000000000000000000000000000012000000000000000000000000000000000000000000000000000000000000000020000000000000000000000005b6735c66d97479ccd18294fc96b3084ecb2fa3f0000000000000000000000009e930731cb4a6bf7ecc11f695a295c60bdd212eb0000000000000000000000000000000000000000000000000000000000000000",
            "nonce": "0x2e",
            "chainId": "0xa"
          },
          "additionalContracts": [],
          "isFixedGasLimit": false
        },
        {
          "hash": "0x4b225bf3fadb666ae4418a60f5df1ddf243877cf9a5d753c15bc835cee6f0f66",
          "transactionType": "CALL",
          "contractName": null,
          "contractAddress": "0x1a44076050125825900e736c501f859c50fe728c",
          "function": "setConfig(address,address,(uint32,uint32,bytes)[])",
          "arguments": [
            "0x9F3d0BeaFAD726bcFD3799F2B7B42eAB889ac333",
            "0x3c4962Ff6258dcfCafD23a814237B7d6Eb712063",
            "[(30184, 2, 0x0000000000000000000000000000000000000000000000000000000000000020000000000000000000000000000000000000000000000000000000000000000f000000000000000000000000000000000000000000000000000000000000000200000000000000000000000000000000000000000000000000000000000000ff000000000000000000000000000000000000000000000000000000000000000000000000000000000000000000000000000000000000000000000000000000c0000000000000000000000000000000000000000000000000000000000000012000000000000000000000000000000000000000000000000000000000000000020000000000000000000000005b6735c66d97479ccd18294fc96b3084ecb2fa3f0000000000000000000000009e930731cb4a6bf7ecc11f695a295c60bdd212eb0000000000000000000000000000000000000000000000000000000000000000), (30111, 2, 0x0000000000000000000000000000000000000000000000000000000000000020000000000000000000000000000000000000000000000000000000000000000f000000000000000000000000000000000000000000000000000000000000000200000000000000000000000000000000000000000000000000000000000000ff000000000000000000000000000000000000000000000000000000000000000000000000000000000000000000000000000000000000000000000000000000c0000000000000000000000000000000000000000000000000000000000000012000000000000000000000000000000000000000000000000000000000000000020000000000000000000000005b6735c66d97479ccd18294fc96b3084ecb2fa3f0000000000000000000000009e930731cb4a6bf7ecc11f695a295c60bdd212eb0000000000000000000000000000000000000000000000000000000000000000)]"
          ],
          "transaction": {
            "from": "0x0ece75f3c36f7df2136dac7633165dbff53de3cd",
            "to": "0x1a44076050125825900e736c501f859c50fe728c",
            "gas": "0x5818a",
            "value": "0x0",
            "input": "0x6dbd9f900000000000000000000000009f3d0beafad726bcfd3799f2b7b42eab889ac3330000000000000000000000003c4962ff6258dcfcafd23a814237b7d6eb712063000000000000000000000000000000000000000000000000000000000000006000000000000000000000000000000000000000000000000000000000000000020000000000000000000000000000000000000000000000000000000000000040000000000000000000000000000000000000000000000000000000000000022000000000000000000000000000000000000000000000000000000000000075e80000000000000000000000000000000000000000000000000000000000000002000000000000000000000000000000000000000000000000000000000000006000000000000000000000000000000000000000000000000000000000000001600000000000000000000000000000000000000000000000000000000000000020000000000000000000000000000000000000000000000000000000000000000f000000000000000000000000000000000000000000000000000000000000000200000000000000000000000000000000000000000000000000000000000000ff000000000000000000000000000000000000000000000000000000000000000000000000000000000000000000000000000000000000000000000000000000c0000000000000000000000000000000000000000000000000000000000000012000000000000000000000000000000000000000000000000000000000000000020000000000000000000000005b6735c66d97479ccd18294fc96b3084ecb2fa3f0000000000000000000000009e930731cb4a6bf7ecc11f695a295c60bdd212eb0000000000000000000000000000000000000000000000000000000000000000000000000000000000000000000000000000000000000000000000000000759f0000000000000000000000000000000000000000000000000000000000000002000000000000000000000000000000000000000000000000000000000000006000000000000000000000000000000000000000000000000000000000000001600000000000000000000000000000000000000000000000000000000000000020000000000000000000000000000000000000000000000000000000000000000f000000000000000000000000000000000000000000000000000000000000000200000000000000000000000000000000000000000000000000000000000000ff000000000000000000000000000000000000000000000000000000000000000000000000000000000000000000000000000000000000000000000000000000c0000000000000000000000000000000000000000000000000000000000000012000000000000000000000000000000000000000000000000000000000000000020000000000000000000000005b6735c66d97479ccd18294fc96b3084ecb2fa3f0000000000000000000000009e930731cb4a6bf7ecc11f695a295c60bdd212eb0000000000000000000000000000000000000000000000000000000000000000",
            "nonce": "0x2f",
            "chainId": "0xa"
          },
          "additionalContracts": [],
          "isFixedGasLimit": false
        },
        {
          "hash": "0xf3f7b924f5980e343e7f802d459a57d7aa4df9d705208b7a7305f709f59dc7c7",
          "transactionType": "CALL",
          "contractName": null,
          "contractAddress": "0x1a44076050125825900e736c501f859c50fe728c",
          "function": "setConfig(address,address,(uint32,uint32,bytes)[])",
          "arguments": [
            "0x27EEDa6B30dfce416D5de397C78f1e3C87e557bb",
            "0x3c4962Ff6258dcfCafD23a814237B7d6Eb712063",
            "[(30184, 2, 0x0000000000000000000000000000000000000000000000000000000000000020000000000000000000000000000000000000000000000000000000000000000f000000000000000000000000000000000000000000000000000000000000000200000000000000000000000000000000000000000000000000000000000000ff000000000000000000000000000000000000000000000000000000000000000000000000000000000000000000000000000000000000000000000000000000c0000000000000000000000000000000000000000000000000000000000000012000000000000000000000000000000000000000000000000000000000000000020000000000000000000000005b6735c66d97479ccd18294fc96b3084ecb2fa3f0000000000000000000000009e930731cb4a6bf7ecc11f695a295c60bdd212eb0000000000000000000000000000000000000000000000000000000000000000), (30111, 2, 0x0000000000000000000000000000000000000000000000000000000000000020000000000000000000000000000000000000000000000000000000000000000f000000000000000000000000000000000000000000000000000000000000000200000000000000000000000000000000000000000000000000000000000000ff000000000000000000000000000000000000000000000000000000000000000000000000000000000000000000000000000000000000000000000000000000c0000000000000000000000000000000000000000000000000000000000000012000000000000000000000000000000000000000000000000000000000000000020000000000000000000000005b6735c66d97479ccd18294fc96b3084ecb2fa3f0000000000000000000000009e930731cb4a6bf7ecc11f695a295c60bdd212eb0000000000000000000000000000000000000000000000000000000000000000)]"
          ],
          "transaction": {
            "from": "0x0ece75f3c36f7df2136dac7633165dbff53de3cd",
            "to": "0x1a44076050125825900e736c501f859c50fe728c",
            "gas": "0x5818a",
            "value": "0x0",
            "input": "0x6dbd9f9000000000000000000000000027eeda6b30dfce416d5de397c78f1e3c87e557bb0000000000000000000000003c4962ff6258dcfcafd23a814237b7d6eb712063000000000000000000000000000000000000000000000000000000000000006000000000000000000000000000000000000000000000000000000000000000020000000000000000000000000000000000000000000000000000000000000040000000000000000000000000000000000000000000000000000000000000022000000000000000000000000000000000000000000000000000000000000075e80000000000000000000000000000000000000000000000000000000000000002000000000000000000000000000000000000000000000000000000000000006000000000000000000000000000000000000000000000000000000000000001600000000000000000000000000000000000000000000000000000000000000020000000000000000000000000000000000000000000000000000000000000000f000000000000000000000000000000000000000000000000000000000000000200000000000000000000000000000000000000000000000000000000000000ff000000000000000000000000000000000000000000000000000000000000000000000000000000000000000000000000000000000000000000000000000000c0000000000000000000000000000000000000000000000000000000000000012000000000000000000000000000000000000000000000000000000000000000020000000000000000000000005b6735c66d97479ccd18294fc96b3084ecb2fa3f0000000000000000000000009e930731cb4a6bf7ecc11f695a295c60bdd212eb0000000000000000000000000000000000000000000000000000000000000000000000000000000000000000000000000000000000000000000000000000759f0000000000000000000000000000000000000000000000000000000000000002000000000000000000000000000000000000000000000000000000000000006000000000000000000000000000000000000000000000000000000000000001600000000000000000000000000000000000000000000000000000000000000020000000000000000000000000000000000000000000000000000000000000000f000000000000000000000000000000000000000000000000000000000000000200000000000000000000000000000000000000000000000000000000000000ff000000000000000000000000000000000000000000000000000000000000000000000000000000000000000000000000000000000000000000000000000000c0000000000000000000000000000000000000000000000000000000000000012000000000000000000000000000000000000000000000000000000000000000020000000000000000000000005b6735c66d97479ccd18294fc96b3084ecb2fa3f0000000000000000000000009e930731cb4a6bf7ecc11f695a295c60bdd212eb0000000000000000000000000000000000000000000000000000000000000000",
            "nonce": "0x30",
            "chainId": "0xa"
          },
          "additionalContracts": [],
          "isFixedGasLimit": false
        },
        {
          "hash": "0x237cb574cd93c923a2c125061a0b61e579f89bbd84f1fc12cf4977bda4da1267",
          "transactionType": "CALL",
          "contractName": null,
          "contractAddress": "0x1a44076050125825900e736c501f859c50fe728c",
          "function": "setConfig(address,address,(uint32,uint32,bytes)[])",
          "arguments": [
            "0x5cF7Bb8568491Bb50a1941994Fd3Da4AdF34FE28",
            "0x3c4962Ff6258dcfCafD23a814237B7d6Eb712063",
            "[(30184, 2, 0x0000000000000000000000000000000000000000000000000000000000000020000000000000000000000000000000000000000000000000000000000000000f000000000000000000000000000000000000000000000000000000000000000200000000000000000000000000000000000000000000000000000000000000ff000000000000000000000000000000000000000000000000000000000000000000000000000000000000000000000000000000000000000000000000000000c0000000000000000000000000000000000000000000000000000000000000012000000000000000000000000000000000000000000000000000000000000000020000000000000000000000005b6735c66d97479ccd18294fc96b3084ecb2fa3f0000000000000000000000009e930731cb4a6bf7ecc11f695a295c60bdd212eb0000000000000000000000000000000000000000000000000000000000000000), (30111, 2, 0x0000000000000000000000000000000000000000000000000000000000000020000000000000000000000000000000000000000000000000000000000000000f000000000000000000000000000000000000000000000000000000000000000200000000000000000000000000000000000000000000000000000000000000ff000000000000000000000000000000000000000000000000000000000000000000000000000000000000000000000000000000000000000000000000000000c0000000000000000000000000000000000000000000000000000000000000012000000000000000000000000000000000000000000000000000000000000000020000000000000000000000005b6735c66d97479ccd18294fc96b3084ecb2fa3f0000000000000000000000009e930731cb4a6bf7ecc11f695a295c60bdd212eb0000000000000000000000000000000000000000000000000000000000000000)]"
          ],
          "transaction": {
            "from": "0x0ece75f3c36f7df2136dac7633165dbff53de3cd",
            "to": "0x1a44076050125825900e736c501f859c50fe728c",
            "gas": "0x5818a",
            "value": "0x0",
            "input": "0x6dbd9f900000000000000000000000005cf7bb8568491bb50a1941994fd3da4adf34fe280000000000000000000000003c4962ff6258dcfcafd23a814237b7d6eb712063000000000000000000000000000000000000000000000000000000000000006000000000000000000000000000000000000000000000000000000000000000020000000000000000000000000000000000000000000000000000000000000040000000000000000000000000000000000000000000000000000000000000022000000000000000000000000000000000000000000000000000000000000075e80000000000000000000000000000000000000000000000000000000000000002000000000000000000000000000000000000000000000000000000000000006000000000000000000000000000000000000000000000000000000000000001600000000000000000000000000000000000000000000000000000000000000020000000000000000000000000000000000000000000000000000000000000000f000000000000000000000000000000000000000000000000000000000000000200000000000000000000000000000000000000000000000000000000000000ff000000000000000000000000000000000000000000000000000000000000000000000000000000000000000000000000000000000000000000000000000000c0000000000000000000000000000000000000000000000000000000000000012000000000000000000000000000000000000000000000000000000000000000020000000000000000000000005b6735c66d97479ccd18294fc96b3084ecb2fa3f0000000000000000000000009e930731cb4a6bf7ecc11f695a295c60bdd212eb0000000000000000000000000000000000000000000000000000000000000000000000000000000000000000000000000000000000000000000000000000759f0000000000000000000000000000000000000000000000000000000000000002000000000000000000000000000000000000000000000000000000000000006000000000000000000000000000000000000000000000000000000000000001600000000000000000000000000000000000000000000000000000000000000020000000000000000000000000000000000000000000000000000000000000000f000000000000000000000000000000000000000000000000000000000000000200000000000000000000000000000000000000000000000000000000000000ff000000000000000000000000000000000000000000000000000000000000000000000000000000000000000000000000000000000000000000000000000000c0000000000000000000000000000000000000000000000000000000000000012000000000000000000000000000000000000000000000000000000000000000020000000000000000000000005b6735c66d97479ccd18294fc96b3084ecb2fa3f0000000000000000000000009e930731cb4a6bf7ecc11f695a295c60bdd212eb0000000000000000000000000000000000000000000000000000000000000000",
            "nonce": "0x31",
            "chainId": "0xa"
          },
          "additionalContracts": [],
          "isFixedGasLimit": false
        }
      ],
      "receipts": [
        {
          "status": "0x1",
          "cumulativeGasUsed": "0x8fa6bc",
          "logs": [
            {
              "address": "0x3c4962ff6258dcfcafd23a814237b7d6eb712063",
              "topics": [
                "0x82118522aa536ac0e96cc5c689407ae42b89d592aa133890a01f1509842f5081"
              ],
              "data": "0x00000000000000000000000010fd0d8280e94d0dbc3013b778ef26d47105ea7b00000000000000000000000000000000000000000000000000000000000075e80000000000000000000000000000000000000000000000000000000000000060000000000000000000000000000000000000000000000000000000000000000f000000000000000000000000000000000000000000000000000000000000000200000000000000000000000000000000000000000000000000000000000000ff000000000000000000000000000000000000000000000000000000000000000000000000000000000000000000000000000000000000000000000000000000c0000000000000000000000000000000000000000000000000000000000000012000000000000000000000000000000000000000000000000000000000000000020000000000000000000000005b6735c66d97479ccd18294fc96b3084ecb2fa3f0000000000000000000000009e930731cb4a6bf7ecc11f695a295c60bdd212eb0000000000000000000000000000000000000000000000000000000000000000",
              "blockHash": "0x46318bdb9ceb15be7c88e696054bb90816f8b9eca4655e8f1282c136a0704a1a",
              "blockNumber": "0x86f85eb",
              "blockTimestamp": "0x68d2e58f",
              "transactionHash": "0x5373c3d84879be769c1068fcd67dac04716d87065803d6ae478a3444f0e1e0f4",
              "transactionIndex": "0x26",
              "logIndex": "0x6c",
              "removed": false
            },
            {
              "address": "0x3c4962ff6258dcfcafd23a814237b7d6eb712063",
              "topics": [
                "0x82118522aa536ac0e96cc5c689407ae42b89d592aa133890a01f1509842f5081"
              ],
              "data": "0x00000000000000000000000010fd0d8280e94d0dbc3013b778ef26d47105ea7b000000000000000000000000000000000000000000000000000000000000759f0000000000000000000000000000000000000000000000000000000000000060000000000000000000000000000000000000000000000000000000000000000f000000000000000000000000000000000000000000000000000000000000000200000000000000000000000000000000000000000000000000000000000000ff000000000000000000000000000000000000000000000000000000000000000000000000000000000000000000000000000000000000000000000000000000c0000000000000000000000000000000000000000000000000000000000000012000000000000000000000000000000000000000000000000000000000000000020000000000000000000000005b6735c66d97479ccd18294fc96b3084ecb2fa3f0000000000000000000000009e930731cb4a6bf7ecc11f695a295c60bdd212eb0000000000000000000000000000000000000000000000000000000000000000",
              "blockHash": "0x46318bdb9ceb15be7c88e696054bb90816f8b9eca4655e8f1282c136a0704a1a",
              "blockNumber": "0x86f85eb",
              "blockTimestamp": "0x68d2e58f",
              "transactionHash": "0x5373c3d84879be769c1068fcd67dac04716d87065803d6ae478a3444f0e1e0f4",
              "transactionIndex": "0x26",
              "logIndex": "0x6d",
              "removed": false
            }
          ],
          "logsBloom": "0x00000000000000000000000000000000000000000000000000000000000000000000000000000000000000000000000000000000000000000000000000000000000000000000000000000000000000000000000000000000002000000000000000000000000000000000000000000000000000000000000000000000000000000000000000000000000000000000000000000000000000000000040000000000000000000000000000000002000000000000000000000000000000000000000000000000400000000000000000000000000000000000000000002000000000000000000000000000000000000000000000000000000000000000000000000010",
          "type": "0x2",
          "transactionHash": "0x5373c3d84879be769c1068fcd67dac04716d87065803d6ae478a3444f0e1e0f4",
          "transactionIndex": "0x26",
          "blockHash": "0x46318bdb9ceb15be7c88e696054bb90816f8b9eca4655e8f1282c136a0704a1a",
          "blockNumber": "0x86f85eb",
          "gasUsed": "0x3c3ca",
          "effectiveGasPrice": "0x647",
          "from": "0x0ece75f3c36f7df2136dac7633165dbff53de3cd",
          "to": "0x1a44076050125825900e736c501f859c50fe728c",
          "contractAddress": null,
          "l1BaseFeeScalar": "0x146b",
          "l1BlobBaseFee": "0x13",
          "l1BlobBaseFeeScalar": "0xf79c5",
          "l1Fee": "0x1bb9788de",
          "l1GasPrice": "0x16cd1df0",
          "l1GasUsed": "0xe89"
        },
        {
          "status": "0x1",
          "cumulativeGasUsed": "0x936a86",
          "logs": [
            {
              "address": "0x3c4962ff6258dcfcafd23a814237b7d6eb712063",
              "topics": [
                "0x82118522aa536ac0e96cc5c689407ae42b89d592aa133890a01f1509842f5081"
              ],
              "data": "0x0000000000000000000000009f3d0beafad726bcfd3799f2b7b42eab889ac33300000000000000000000000000000000000000000000000000000000000075e80000000000000000000000000000000000000000000000000000000000000060000000000000000000000000000000000000000000000000000000000000000f000000000000000000000000000000000000000000000000000000000000000200000000000000000000000000000000000000000000000000000000000000ff000000000000000000000000000000000000000000000000000000000000000000000000000000000000000000000000000000000000000000000000000000c0000000000000000000000000000000000000000000000000000000000000012000000000000000000000000000000000000000000000000000000000000000020000000000000000000000005b6735c66d97479ccd18294fc96b3084ecb2fa3f0000000000000000000000009e930731cb4a6bf7ecc11f695a295c60bdd212eb0000000000000000000000000000000000000000000000000000000000000000",
              "blockHash": "0x46318bdb9ceb15be7c88e696054bb90816f8b9eca4655e8f1282c136a0704a1a",
              "blockNumber": "0x86f85eb",
              "blockTimestamp": "0x68d2e58f",
              "transactionHash": "0x4b225bf3fadb666ae4418a60f5df1ddf243877cf9a5d753c15bc835cee6f0f66",
              "transactionIndex": "0x27",
              "logIndex": "0x6e",
              "removed": false
            },
            {
              "address": "0x3c4962ff6258dcfcafd23a814237b7d6eb712063",
              "topics": [
                "0x82118522aa536ac0e96cc5c689407ae42b89d592aa133890a01f1509842f5081"
              ],
              "data": "0x0000000000000000000000009f3d0beafad726bcfd3799f2b7b42eab889ac333000000000000000000000000000000000000000000000000000000000000759f0000000000000000000000000000000000000000000000000000000000000060000000000000000000000000000000000000000000000000000000000000000f000000000000000000000000000000000000000000000000000000000000000200000000000000000000000000000000000000000000000000000000000000ff000000000000000000000000000000000000000000000000000000000000000000000000000000000000000000000000000000000000000000000000000000c0000000000000000000000000000000000000000000000000000000000000012000000000000000000000000000000000000000000000000000000000000000020000000000000000000000005b6735c66d97479ccd18294fc96b3084ecb2fa3f0000000000000000000000009e930731cb4a6bf7ecc11f695a295c60bdd212eb0000000000000000000000000000000000000000000000000000000000000000",
              "blockHash": "0x46318bdb9ceb15be7c88e696054bb90816f8b9eca4655e8f1282c136a0704a1a",
              "blockNumber": "0x86f85eb",
              "blockTimestamp": "0x68d2e58f",
              "transactionHash": "0x4b225bf3fadb666ae4418a60f5df1ddf243877cf9a5d753c15bc835cee6f0f66",
              "transactionIndex": "0x27",
              "logIndex": "0x6f",
              "removed": false
            }
          ],
          "logsBloom": "0x00000000000000000000000000000000000000000000000000000000000000000000000000000000000000000000000000000000000000000000000000000000000000000000000000000000000000000000000000000000002000000000000000000000000000000000000000000000000000000000000000000000000000000000000000000000000000000000000000000000000000000000040000000000000000000000000000000002000000000000000000000000000000000000000000000000400000000000000000000000000000000000000000002000000000000000000000000000000000000000000000000000000000000000000000000010",
          "type": "0x2",
          "transactionHash": "0x4b225bf3fadb666ae4418a60f5df1ddf243877cf9a5d753c15bc835cee6f0f66",
          "transactionIndex": "0x27",
          "blockHash": "0x46318bdb9ceb15be7c88e696054bb90816f8b9eca4655e8f1282c136a0704a1a",
          "blockNumber": "0x86f85eb",
          "gasUsed": "0x3c3ca",
          "effectiveGasPrice": "0x647",
          "from": "0x0ece75f3c36f7df2136dac7633165dbff53de3cd",
          "to": "0x1a44076050125825900e736c501f859c50fe728c",
          "contractAddress": null,
          "l1BaseFeeScalar": "0x146b",
          "l1BlobBaseFee": "0x13",
          "l1BlobBaseFeeScalar": "0xf79c5",
          "l1Fee": "0x1bb9788de",
          "l1GasPrice": "0x16cd1df0",
          "l1GasUsed": "0xe89"
        },
        {
          "status": "0x1",
          "cumulativeGasUsed": "0x972e50",
          "logs": [
            {
              "address": "0x3c4962ff6258dcfcafd23a814237b7d6eb712063",
              "topics": [
                "0x82118522aa536ac0e96cc5c689407ae42b89d592aa133890a01f1509842f5081"
              ],
              "data": "0x00000000000000000000000027eeda6b30dfce416d5de397c78f1e3c87e557bb00000000000000000000000000000000000000000000000000000000000075e80000000000000000000000000000000000000000000000000000000000000060000000000000000000000000000000000000000000000000000000000000000f000000000000000000000000000000000000000000000000000000000000000200000000000000000000000000000000000000000000000000000000000000ff000000000000000000000000000000000000000000000000000000000000000000000000000000000000000000000000000000000000000000000000000000c0000000000000000000000000000000000000000000000000000000000000012000000000000000000000000000000000000000000000000000000000000000020000000000000000000000005b6735c66d97479ccd18294fc96b3084ecb2fa3f0000000000000000000000009e930731cb4a6bf7ecc11f695a295c60bdd212eb0000000000000000000000000000000000000000000000000000000000000000",
              "blockHash": "0x46318bdb9ceb15be7c88e696054bb90816f8b9eca4655e8f1282c136a0704a1a",
              "blockNumber": "0x86f85eb",
              "blockTimestamp": "0x68d2e58f",
              "transactionHash": "0xf3f7b924f5980e343e7f802d459a57d7aa4df9d705208b7a7305f709f59dc7c7",
              "transactionIndex": "0x28",
              "logIndex": "0x70",
              "removed": false
            },
            {
              "address": "0x3c4962ff6258dcfcafd23a814237b7d6eb712063",
              "topics": [
                "0x82118522aa536ac0e96cc5c689407ae42b89d592aa133890a01f1509842f5081"
              ],
              "data": "0x00000000000000000000000027eeda6b30dfce416d5de397c78f1e3c87e557bb000000000000000000000000000000000000000000000000000000000000759f0000000000000000000000000000000000000000000000000000000000000060000000000000000000000000000000000000000000000000000000000000000f000000000000000000000000000000000000000000000000000000000000000200000000000000000000000000000000000000000000000000000000000000ff000000000000000000000000000000000000000000000000000000000000000000000000000000000000000000000000000000000000000000000000000000c0000000000000000000000000000000000000000000000000000000000000012000000000000000000000000000000000000000000000000000000000000000020000000000000000000000005b6735c66d97479ccd18294fc96b3084ecb2fa3f0000000000000000000000009e930731cb4a6bf7ecc11f695a295c60bdd212eb0000000000000000000000000000000000000000000000000000000000000000",
              "blockHash": "0x46318bdb9ceb15be7c88e696054bb90816f8b9eca4655e8f1282c136a0704a1a",
              "blockNumber": "0x86f85eb",
              "blockTimestamp": "0x68d2e58f",
              "transactionHash": "0xf3f7b924f5980e343e7f802d459a57d7aa4df9d705208b7a7305f709f59dc7c7",
              "transactionIndex": "0x28",
              "logIndex": "0x71",
              "removed": false
            }
          ],
          "logsBloom": "0x00000000000000000000000000000000000000000000000000000000000000000000000000000000000000000000000000000000000000000000000000000000000000000000000000000000000000000000000000000000002000000000000000000000000000000000000000000000000000000000000000000000000000000000000000000000000000000000000000000000000000000000040000000000000000000000000000000002000000000000000000000000000000000000000000000000400000000000000000000000000000000000000000002000000000000000000000000000000000000000000000000000000000000000000000000010",
          "type": "0x2",
          "transactionHash": "0xf3f7b924f5980e343e7f802d459a57d7aa4df9d705208b7a7305f709f59dc7c7",
          "transactionIndex": "0x28",
          "blockHash": "0x46318bdb9ceb15be7c88e696054bb90816f8b9eca4655e8f1282c136a0704a1a",
          "blockNumber": "0x86f85eb",
          "gasUsed": "0x3c3ca",
          "effectiveGasPrice": "0x647",
          "from": "0x0ece75f3c36f7df2136dac7633165dbff53de3cd",
          "to": "0x1a44076050125825900e736c501f859c50fe728c",
          "contractAddress": null,
          "l1BaseFeeScalar": "0x146b",
          "l1BlobBaseFee": "0x13",
          "l1BlobBaseFeeScalar": "0xf79c5",
          "l1Fee": "0x1bb9788de",
          "l1GasPrice": "0x16cd1df0",
          "l1GasUsed": "0xe89"
        },
        {
          "status": "0x1",
          "cumulativeGasUsed": "0x9af21a",
          "logs": [
            {
              "address": "0x3c4962ff6258dcfcafd23a814237b7d6eb712063",
              "topics": [
                "0x82118522aa536ac0e96cc5c689407ae42b89d592aa133890a01f1509842f5081"
              ],
              "data": "0x0000000000000000000000005cf7bb8568491bb50a1941994fd3da4adf34fe2800000000000000000000000000000000000000000000000000000000000075e80000000000000000000000000000000000000000000000000000000000000060000000000000000000000000000000000000000000000000000000000000000f000000000000000000000000000000000000000000000000000000000000000200000000000000000000000000000000000000000000000000000000000000ff000000000000000000000000000000000000000000000000000000000000000000000000000000000000000000000000000000000000000000000000000000c0000000000000000000000000000000000000000000000000000000000000012000000000000000000000000000000000000000000000000000000000000000020000000000000000000000005b6735c66d97479ccd18294fc96b3084ecb2fa3f0000000000000000000000009e930731cb4a6bf7ecc11f695a295c60bdd212eb0000000000000000000000000000000000000000000000000000000000000000",
              "blockHash": "0x46318bdb9ceb15be7c88e696054bb90816f8b9eca4655e8f1282c136a0704a1a",
              "blockNumber": "0x86f85eb",
              "blockTimestamp": "0x68d2e58f",
              "transactionHash": "0x237cb574cd93c923a2c125061a0b61e579f89bbd84f1fc12cf4977bda4da1267",
              "transactionIndex": "0x29",
              "logIndex": "0x72",
              "removed": false
            },
            {
              "address": "0x3c4962ff6258dcfcafd23a814237b7d6eb712063",
              "topics": [
                "0x82118522aa536ac0e96cc5c689407ae42b89d592aa133890a01f1509842f5081"
              ],
              "data": "0x0000000000000000000000005cf7bb8568491bb50a1941994fd3da4adf34fe28000000000000000000000000000000000000000000000000000000000000759f0000000000000000000000000000000000000000000000000000000000000060000000000000000000000000000000000000000000000000000000000000000f000000000000000000000000000000000000000000000000000000000000000200000000000000000000000000000000000000000000000000000000000000ff000000000000000000000000000000000000000000000000000000000000000000000000000000000000000000000000000000000000000000000000000000c0000000000000000000000000000000000000000000000000000000000000012000000000000000000000000000000000000000000000000000000000000000020000000000000000000000005b6735c66d97479ccd18294fc96b3084ecb2fa3f0000000000000000000000009e930731cb4a6bf7ecc11f695a295c60bdd212eb0000000000000000000000000000000000000000000000000000000000000000",
              "blockHash": "0x46318bdb9ceb15be7c88e696054bb90816f8b9eca4655e8f1282c136a0704a1a",
              "blockNumber": "0x86f85eb",
              "blockTimestamp": "0x68d2e58f",
              "transactionHash": "0x237cb574cd93c923a2c125061a0b61e579f89bbd84f1fc12cf4977bda4da1267",
              "transactionIndex": "0x29",
              "logIndex": "0x73",
              "removed": false
            }
          ],
          "logsBloom": "0x00000000000000000000000000000000000000000000000000000000000000000000000000000000000000000000000000000000000000000000000000000000000000000000000000000000000000000000000000000000002000000000000000000000000000000000000000000000000000000000000000000000000000000000000000000000000000000000000000000000000000000000040000000000000000000000000000000002000000000000000000000000000000000000000000000000400000000000000000000000000000000000000000002000000000000000000000000000000000000000000000000000000000000000000000000010",
          "type": "0x2",
          "transactionHash": "0x237cb574cd93c923a2c125061a0b61e579f89bbd84f1fc12cf4977bda4da1267",
          "transactionIndex": "0x29",
          "blockHash": "0x46318bdb9ceb15be7c88e696054bb90816f8b9eca4655e8f1282c136a0704a1a",
          "blockNumber": "0x86f85eb",
          "gasUsed": "0x3c3ca",
          "effectiveGasPrice": "0x647",
          "from": "0x0ece75f3c36f7df2136dac7633165dbff53de3cd",
          "to": "0x1a44076050125825900e736c501f859c50fe728c",
          "contractAddress": null,
          "l1BaseFeeScalar": "0x146b",
          "l1BlobBaseFee": "0x13",
          "l1BlobBaseFeeScalar": "0xf79c5",
          "l1Fee": "0x1bb9788de",
          "l1GasPrice": "0x16cd1df0",
          "l1GasUsed": "0xe89"
        }
      ],
      "libraries": [],
      "pending": [],
      "returns": {},
      "timestamp": 1758651786205,
      "chain": 10,
      "commit": "53213c9"
    }
  ],
  "timestamp": 1758651792457
}