{
  "transactions": [
    {
      "hash": "0xc12466aa99c5dcc539ba9290a530f9ab1eac3e9e8189f022013fdac406696ee4",
      "transactionType": "CALL",
      "contractName": null,
      "contractAddress": "0xc746b3aab0c6da075c9b7b43ceebd437ef759d5b",
      "function": "setOperator(address,bool)",
      "arguments": [
        "0x9F3d0BeaFAD726bcFD3799F2B7B42eAB889ac333",
        "true"
      ],
      "transaction": {
        "from": "0x0ece75f3c36f7df2136dac7633165dbff53de3cd",
        "to": "0xc746b3aab0c6da075c9b7b43ceebd437ef759d5b",
        "gas": "0x9d41",
        "value": "0x0",
        "input": "0x558a72970000000000000000000000009f3d0beafad726bcfd3799f2b7b42eab889ac3330000000000000000000000000000000000000000000000000000000000000001",
        "nonce": "0x61",
        "chainId": "0xa4b1"
      },
      "additionalContracts": [],
      "isFixedGasLimit": false
    },
    {
      "hash": "0x7117093d8d149fdc20a78545893f2b437ff27fb0ff6c4c5ce657673e7ad5cd01",
      "transactionType": "CALL",
      "contractName": null,
      "contractAddress": "0xc746b3aab0c6da075c9b7b43ceebd437ef759d5b",
      "function": "setOperator(address,bool)",
      "arguments": [
        "0x67165C24A886AAAf1bFA81934e44a2063c6B608C",
        "true"
      ],
      "transaction": {
        "from": "0x0ece75f3c36f7df2136dac7633165dbff53de3cd",
        "to": "0xc746b3aab0c6da075c9b7b43ceebd437ef759d5b",
        "gas": "0xf7e2",
        "value": "0x0",
        "input": "0x558a729700000000000000000000000067165c24a886aaaf1bfa81934e44a2063c6b608c0000000000000000000000000000000000000000000000000000000000000001",
        "nonce": "0x62",
        "chainId": "0xa4b1"
      },
      "additionalContracts": [],
      "isFixedGasLimit": false
    },
    {
      "hash": "0xd32be7b9ce7774911014a3473443265997204c8aed03004af45d1044a72ac0ed",
      "transactionType": "CALL",
      "contractName": null,
      "contractAddress": "0x7b3c20d2b3f8c205f624e62d356354ed1ae9f64b",
      "function": "setOperator(address,bool)",
      "arguments": [
        "0x10FD0d8280E94D0DbC3013b778Ef26d47105Ea7b",
        "true"
      ],
      "transaction": {
        "from": "0x0ece75f3c36f7df2136dac7633165dbff53de3cd",
        "to": "0x7b3c20d2b3f8c205f624e62d356354ed1ae9f64b",
        "gas": "0x9d41",
        "value": "0x0",
        "input": "0x558a729700000000000000000000000010fd0d8280e94d0dbc3013b778ef26d47105ea7b0000000000000000000000000000000000000000000000000000000000000001",
        "nonce": "0x63",
        "chainId": "0xa4b1"
      },
      "additionalContracts": [],
      "isFixedGasLimit": false
    },
    {
      "hash": "0x144996bbbf8bbb0530654c0cf64d62916157d3f070436590d62ddf82cb68805d",
      "transactionType": "CALL",
      "contractName": null,
      "contractAddress": "0x7b3c20d2b3f8c205f624e62d356354ed1ae9f64b",
      "function": "setOperator(address,bool)",
      "arguments": [
        "0xeBb7a56fd2D0231A9BF7240542cbD09a641a29Fc",
        "true"
      ],
      "transaction": {
        "from": "0x0ece75f3c36f7df2136dac7633165dbff53de3cd",
        "to": "0x7b3c20d2b3f8c205f624e62d356354ed1ae9f64b",
        "gas": "0xf7e2",
        "value": "0x0",
        "input": "0x558a7297000000000000000000000000ebb7a56fd2d0231a9bf7240542cbd09a641a29fc0000000000000000000000000000000000000000000000000000000000000001",
        "nonce": "0x64",
        "chainId": "0xa4b1"
      },
      "additionalContracts": [],
      "isFixedGasLimit": false
    },
    {
      "hash": "0xbb354b38f4b252a16e862855f63892e84d4b8579efd292e992df33e9f6ca2538",
      "transactionType": "CALL",
      "contractName": null,
      "contractAddress": "0x1fead2bdaaebb03c2739949ea3b2145f064378f0",
      "function": "setOperator(address,bool)",
      "arguments": [
        "0x27EEDa6B30dfce416D5de397C78f1e3C87e557bb",
        "true"
      ],
      "transaction": {
        "from": "0x0ece75f3c36f7df2136dac7633165dbff53de3cd",
        "to": "0x1fead2bdaaebb03c2739949ea3b2145f064378f0",
        "gas": "0x9d41",
        "value": "0x0",
        "input": "0x558a729700000000000000000000000027eeda6b30dfce416d5de397c78f1e3c87e557bb0000000000000000000000000000000000000000000000000000000000000001",
        "nonce": "0x65",
        "chainId": "0xa4b1"
      },
      "additionalContracts": [],
      "isFixedGasLimit": false
    },
    {
      "hash": "0xc2537988eabf6efcd22f4f803d1625a79abd0bed9d6d9e6d5221b273a82bce8a",
      "transactionType": "CALL",
      "contractName": null,
      "contractAddress": "0x1fead2bdaaebb03c2739949ea3b2145f064378f0",
      "function": "setOperator(address,bool)",
      "arguments": [
        "0xA85C480f229FAC050ecc53FAedE343628bC242cb",
        "true"
      ],
      "transaction": {
        "from": "0x0ece75f3c36f7df2136dac7633165dbff53de3cd",
        "to": "0x1fead2bdaaebb03c2739949ea3b2145f064378f0",
        "gas": "0xf7e2",
        "value": "0x0",
        "input": "0x558a7297000000000000000000000000a85c480f229fac050ecc53faede343628bc242cb0000000000000000000000000000000000000000000000000000000000000001",
        "nonce": "0x66",
        "chainId": "0xa4b1"
      },
      "additionalContracts": [],
      "isFixedGasLimit": false
    },
    {
      "hash": "0xb39631d12d5aa2f119635ba60aeb181351c14fcdd21398dc54596f8cea515d21",
      "transactionType": "CALL",
      "contractName": null,
      "contractAddress": "0x6ce216ec20272c69a8f3fd8bc8d13d770651fa56",
      "function": "setOperator(address,bool)",
      "arguments": [
        "0x5cF7Bb8568491Bb50a1941994Fd3Da4AdF34FE28",
        "true"
      ],
      "transaction": {
        "from": "0x0ece75f3c36f7df2136dac7633165dbff53de3cd",
        "to": "0x6ce216ec20272c69a8f3fd8bc8d13d770651fa56",
        "gas": "0x9d41",
        "value": "0x0",
        "input": "0x558a72970000000000000000000000005cf7bb8568491bb50a1941994fd3da4adf34fe280000000000000000000000000000000000000000000000000000000000000001",
        "nonce": "0x67",
        "chainId": "0xa4b1"
      },
      "additionalContracts": [],
      "isFixedGasLimit": false
    },
    {
      "hash": "0x40dd877ab77e5d377a2698ac8d030aab23f997fcfd80d736e4e507996af99dd9",
      "transactionType": "CALL",
      "contractName": null,
      "contractAddress": "0x6ce216ec20272c69a8f3fd8bc8d13d770651fa56",
      "function": "setOperator(address,bool)",
      "arguments": [
        "0xEb36AA674745c48381AA3A8074E5485586dBD308",
        "true"
      ],
      "transaction": {
        "from": "0x0ece75f3c36f7df2136dac7633165dbff53de3cd",
        "to": "0x6ce216ec20272c69a8f3fd8bc8d13d770651fa56",
        "gas": "0xf7e2",
        "value": "0x0",
        "input": "0x558a7297000000000000000000000000eb36aa674745c48381aa3a8074e5485586dbd3080000000000000000000000000000000000000000000000000000000000000001",
        "nonce": "0x68",
        "chainId": "0xa4b1"
      },
      "additionalContracts": [],
      "isFixedGasLimit": false
    },
    {
      "hash": "0xb1b83660c2d9ccd777db7916efd64e640ce9dc0067e1e7c7e1d984139b867d4b",
      "transactionType": "CALL",
      "contractName": null,
      "contractAddress": "0xbdc661eecb0dcfb940a34008e0190c9103013c41",
      "function": "setOperator(address,bool)",
      "arguments": [
        "0x31fC86E13108A098830eea63A8A9f6d80DfC89Aa",
        "true"
      ],
      "transaction": {
        "from": "0x0ece75f3c36f7df2136dac7633165dbff53de3cd",
        "to": "0xbdc661eecb0dcfb940a34008e0190c9103013c41",
        "gas": "0xf7e2",
        "value": "0x0",
        "input": "0x558a729700000000000000000000000031fc86e13108a098830eea63a8a9f6d80dfc89aa0000000000000000000000000000000000000000000000000000000000000001",
        "nonce": "0x69",
        "chainId": "0xa4b1"
      },
      "additionalContracts": [],
      "isFixedGasLimit": false
    },
    {
      "hash": "0x7b547bbdb38fd1f3f217610fb1fbe39259defacf73267a890a47c242f30a92eb",
      "transactionType": "CALL",
      "contractName": null,
      "contractAddress": "0xbdc661eecb0dcfb940a34008e0190c9103013c41",
      "function": "setOperator(address,bool)",
      "arguments": [
        "0x02a66B51Fc24E08535a6Cfe1e11E532D8A089212",
        "true"
      ],
      "transaction": {
        "from": "0x0ece75f3c36f7df2136dac7633165dbff53de3cd",
        "to": "0xbdc661eecb0dcfb940a34008e0190c9103013c41",
        "gas": "0xf7e2",
        "value": "0x0",
        "input": "0x558a729700000000000000000000000002a66b51fc24e08535a6cfe1e11e532d8a0892120000000000000000000000000000000000000000000000000000000000000001",
        "nonce": "0x6a",
        "chainId": "0xa4b1"
      },
      "additionalContracts": [],
      "isFixedGasLimit": false
    },
    {
      "hash": "0xdc1b5de7c589320de4c46c925c99b002a55097a88e9fda1e32d8847219e3c385",
      "transactionType": "CALL",
      "contractName": null,
      "contractAddress": "0xea25630bf89a0ff560308e7d12920695a586b0a2",
      "function": "setOperator(address,bool)",
      "arguments": [
        "0x53D7f02e72d62f7b7B41F6B622A7d79694BED966",
        "true"
      ],
      "transaction": {
        "from": "0x0ece75f3c36f7df2136dac7633165dbff53de3cd",
        "to": "0xea25630bf89a0ff560308e7d12920695a586b0a2",
        "gas": "0xf7e2",
        "value": "0x0",
        "input": "0x558a729700000000000000000000000053d7f02e72d62f7b7b41f6b622a7d79694bed9660000000000000000000000000000000000000000000000000000000000000001",
        "nonce": "0x6b",
        "chainId": "0xa4b1"
      },
      "additionalContracts": [],
      "isFixedGasLimit": false
    },
    {
      "hash": "0x0c98aa11be4769fa94a183e5419002ce5b7c6c671c0cf8b30494199a4cc13004",
      "transactionType": "CALL",
      "contractName": null,
      "contractAddress": "0xea25630bf89a0ff560308e7d12920695a586b0a2",
      "function": "setOperator(address,bool)",
      "arguments": [
        "0xd506b22a6b3216b736021FA262D0F5D686e07b35",
        "true"
      ],
      "transaction": {
        "from": "0x0ece75f3c36f7df2136dac7633165dbff53de3cd",
        "to": "0xea25630bf89a0ff560308e7d12920695a586b0a2",
        "gas": "0xf7e2",
        "value": "0x0",
        "input": "0x558a7297000000000000000000000000d506b22a6b3216b736021fa262d0f5d686e07b350000000000000000000000000000000000000000000000000000000000000001",
        "nonce": "0x6c",
        "chainId": "0xa4b1"
      },
      "additionalContracts": [],
      "isFixedGasLimit": false
    },
    {
      "hash": "0xddfa695625c2ce65b81bcdeeea37afe1e6b35fcc4c2fb72d91ce7ce24e99f774",
      "transactionType": "CALL",
      "contractName": null,
      "contractAddress": "0xb516190f8192cceaf8b1da7d9ca1c6c75b9f410c",
      "function": "setOperator(address,bool)",
      "arguments": [
        "0x33FaBa0e0cE340AfC4fb03038151FF7EE1d5f95b",
        "true"
      ],
      "transaction": {
        "from": "0x0ece75f3c36f7df2136dac7633165dbff53de3cd",
        "to": "0xb516190f8192cceaf8b1da7d9ca1c6c75b9f410c",
        "gas": "0xf7e2",
        "value": "0x0",
        "input": "0x558a729700000000000000000000000033faba0e0ce340afc4fb03038151ff7ee1d5f95b0000000000000000000000000000000000000000000000000000000000000001",
        "nonce": "0x6d",
        "chainId": "0xa4b1"
      },
      "additionalContracts": [],
      "isFixedGasLimit": false
    },
    {
      "hash": "0xccd51b4f46eee7b9807d91b03ac6774244428823f40b79c91620c017c9fd089c",
      "transactionType": "CALL",
      "contractName": null,
      "contractAddress": "0xb516190f8192cceaf8b1da7d9ca1c6c75b9f410c",
      "function": "setOperator(address,bool)",
      "arguments": [
        "0xc3be8ab4CA0cefE3119A765b324bBDF54a16A65b",
        "true"
      ],
      "transaction": {
        "from": "0x0ece75f3c36f7df2136dac7633165dbff53de3cd",
        "to": "0xb516190f8192cceaf8b1da7d9ca1c6c75b9f410c",
        "gas": "0xf7e2",
        "value": "0x0",
        "input": "0x558a7297000000000000000000000000c3be8ab4ca0cefe3119a765b324bbdf54a16a65b0000000000000000000000000000000000000000000000000000000000000001",
        "nonce": "0x6e",
        "chainId": "0xa4b1"
      },
      "additionalContracts": [],
      "isFixedGasLimit": false
    },
    {
      "hash": "0xc4077cfc315f172865da9683c2705c34c7a578d9722e3b0b12b8a90f65053b54",
      "transactionType": "CALL",
      "contractName": null,
      "contractAddress": "0x9f3d0beafad726bcfd3799f2b7b42eab889ac333",
      "function": "setOperator(address,bool)",
      "arguments": [
        "0x67165C24A886AAAf1bFA81934e44a2063c6B608C",
        "true"
      ],
      "transaction": {
        "from": "0x0ece75f3c36f7df2136dac7633165dbff53de3cd",
        "to": "0x9f3d0beafad726bcfd3799f2b7b42eab889ac333",
        "gas": "0x9d21",
        "value": "0x0",
        "input": "0x558a729700000000000000000000000067165c24a886aaaf1bfa81934e44a2063c6b608c0000000000000000000000000000000000000000000000000000000000000001",
        "nonce": "0x6f",
        "chainId": "0xa4b1"
      },
      "additionalContracts": [],
      "isFixedGasLimit": false
    },
    {
      "hash": "0xfb5a5dabcbcbaf88d22d0f458e63b22e40e3727b62c7ce64e1380885e1f75474",
      "transactionType": "CALL",
      "contractName": null,
      "contractAddress": "0x27eeda6b30dfce416d5de397c78f1e3c87e557bb",
      "function": "setOperator(address,bool)",
      "arguments": [
        "0xA85C480f229FAC050ecc53FAedE343628bC242cb",
        "true"
      ],
      "transaction": {
        "from": "0x0ece75f3c36f7df2136dac7633165dbff53de3cd",
        "to": "0x27eeda6b30dfce416d5de397c78f1e3c87e557bb",
        "gas": "0x9d21",
        "value": "0x0",
        "input": "0x558a7297000000000000000000000000a85c480f229fac050ecc53faede343628bc242cb0000000000000000000000000000000000000000000000000000000000000001",
        "nonce": "0x70",
        "chainId": "0xa4b1"
      },
      "additionalContracts": [],
      "isFixedGasLimit": false
    },
    {
      "hash": "0xdd9dd001e12d60faed18906fcbee9d4d8f5445e05816ab9664ffe33a9a03ce84",
      "transactionType": "CALL",
      "contractName": null,
      "contractAddress": "0x5cf7bb8568491bb50a1941994fd3da4adf34fe28",
      "function": "setOperator(address,bool)",
      "arguments": [
        "0xEb36AA674745c48381AA3A8074E5485586dBD308",
        "true"
      ],
      "transaction": {
        "from": "0x0ece75f3c36f7df2136dac7633165dbff53de3cd",
        "to": "0x5cf7bb8568491bb50a1941994fd3da4adf34fe28",
        "gas": "0x9d21",
        "value": "0x0",
        "input": "0x558a7297000000000000000000000000eb36aa674745c48381aa3a8074e5485586dbd3080000000000000000000000000000000000000000000000000000000000000001",
        "nonce": "0x71",
        "chainId": "0xa4b1"
      },
      "additionalContracts": [],
      "isFixedGasLimit": false
    },
    {
      "hash": "0xd34d2ab3d104fb506126cfc678383dd0ab03093540d04a77782e2d99be01b620",
      "transactionType": "CALL",
      "contractName": null,
      "contractAddress": "0x10fd0d8280e94d0dbc3013b778ef26d47105ea7b",
      "function": "setOperator(address,bool)",
      "arguments": [
        "0xeBb7a56fd2D0231A9BF7240542cbD09a641a29Fc",
        "true"
      ],
      "transaction": {
        "from": "0x0ece75f3c36f7df2136dac7633165dbff53de3cd",
        "to": "0x10fd0d8280e94d0dbc3013b778ef26d47105ea7b",
        "gas": "0x9d21",
        "value": "0x0",
        "input": "0x558a7297000000000000000000000000ebb7a56fd2d0231a9bf7240542cbd09a641a29fc0000000000000000000000000000000000000000000000000000000000000001",
        "nonce": "0x72",
        "chainId": "0xa4b1"
      },
      "additionalContracts": [],
      "isFixedGasLimit": false
    },
    {
      "hash": "0x8bfe82e80ea3f9fd2b897cece7cc33875553538ba41a2dce02601d0b004f18b8",
      "transactionType": "CALL",
      "contractName": null,
      "contractAddress": "0x31fc86e13108a098830eea63a8a9f6d80dfc89aa",
      "function": "setOperator(address,bool)",
      "arguments": [
        "0x02a66B51Fc24E08535a6Cfe1e11E532D8A089212",
        "true"
      ],
      "transaction": {
        "from": "0x0ece75f3c36f7df2136dac7633165dbff53de3cd",
        "to": "0x31fc86e13108a098830eea63a8a9f6d80dfc89aa",
        "gas": "0x9d21",
        "value": "0x0",
        "input": "0x558a729700000000000000000000000002a66b51fc24e08535a6cfe1e11e532d8a0892120000000000000000000000000000000000000000000000000000000000000001",
        "nonce": "0x73",
        "chainId": "0xa4b1"
      },
      "additionalContracts": [],
      "isFixedGasLimit": false
    },
    {
      "hash": "0x18c5318ff98b5967ba689819e02a1961e2fc49d58a790ebef4a3f6b61111e65c",
      "transactionType": "CALL",
      "contractName": null,
      "contractAddress": "0x53d7f02e72d62f7b7b41f6b622a7d79694bed966",
      "function": "setOperator(address,bool)",
      "arguments": [
        "0xd506b22a6b3216b736021FA262D0F5D686e07b35",
        "true"
      ],
      "transaction": {
        "from": "0x0ece75f3c36f7df2136dac7633165dbff53de3cd",
        "to": "0x53d7f02e72d62f7b7b41f6b622a7d79694bed966",
        "gas": "0x9d21",
        "value": "0x0",
        "input": "0x558a7297000000000000000000000000d506b22a6b3216b736021fa262d0f5d686e07b350000000000000000000000000000000000000000000000000000000000000001",
        "nonce": "0x74",
        "chainId": "0xa4b1"
      },
      "additionalContracts": [],
      "isFixedGasLimit": false
    },
    {
      "hash": "0x36bfb0ccc79e2661cf7040d0b5478d4f10a3ca09bd138c5cd7a33286eb19ebd3",
      "transactionType": "CALL",
      "contractName": null,
      "contractAddress": "0x33faba0e0ce340afc4fb03038151ff7ee1d5f95b",
      "function": "setOperator(address,bool)",
      "arguments": [
        "0xc3be8ab4CA0cefE3119A765b324bBDF54a16A65b",
        "true"
      ],
      "transaction": {
        "from": "0x0ece75f3c36f7df2136dac7633165dbff53de3cd",
        "to": "0x33faba0e0ce340afc4fb03038151ff7ee1d5f95b",
        "gas": "0x9d21",
        "value": "0x0",
        "input": "0x558a7297000000000000000000000000c3be8ab4ca0cefe3119a765b324bbdf54a16a65b0000000000000000000000000000000000000000000000000000000000000001",
        "nonce": "0x75",
        "chainId": "0xa4b1"
      },
      "additionalContracts": [],
      "isFixedGasLimit": false
    }
  ],
  "receipts": [
    {
      "status": "0x1",
      "cumulativeGasUsed": "0x18994",
      "logs": [],
      "logsBloom": "0x00000000000000000000000000000000000000000000000000000000000000000000000000000000000000000000000000000000000000000000000000000000000000000000000000000000000000000000000000000000000000000000000000000000000000000000000000000000000000000000000000000000000000000000000000000000000000000000000000000000000000000000000000000000000000000000000000000000000000000000000000000000000000000000000000000000000000000000000000000000000000000000000000000000000000000000000000000000000000000000000000000000000000000000000000000000",
      "type": "0x2",
      "transactionHash": "0xc12466aa99c5dcc539ba9290a530f9ab1eac3e9e8189f022013fdac406696ee4",
      "transactionIndex": "0x2",
      "blockHash": "0x6194d071aa73c056e1906a50786afea397faac3c54fc354c2618b0ced3c72010",
      "blockNumber": "0x1761b898",
      "gasUsed": "0x6dcd",
      "effectiveGasPrice": "0x989680",
      "from": "0x0ece75f3c36f7df2136dac7633165dbff53de3cd",
      "to": "0xc746b3aab0c6da075c9b7b43ceebd437ef759d5b",
      "contractAddress": null,
      "gasUsedForL1": "0x677",
      "l1BlockNumber": "0x168a281",
      "timeboosted": false
    },
    {
      "status": "0x1",
      "cumulativeGasUsed": "0x2e47c",
      "logs": [],
      "logsBloom": "0x00000000000000000000000000000000000000000000000000000000000000000000000000000000000000000000000000000000000000000000000000000000000000000000000000000000000000000000000000000000000000000000000000000000000000000000000000000000000000000000000000000000000000000000000000000000000000000000000000000000000000000000000000000000000000000000000000000000000000000000000000000000000000000000000000000000000000000000000000000000000000000000000000000000000000000000000000000000000000000000000000000000000000000000000000000000",
      "type": "0x2",
      "transactionHash": "0x7117093d8d149fdc20a78545893f2b437ff27fb0ff6c4c5ce657673e7ad5cd01",
      "transactionIndex": "0x4",
      "blockHash": "0xf64da9d314abfb516665b4d33b5d28876a37ee5f9d1369c2393eb7f7385a3432",
      "blockNumber": "0x1761b89d",
      "gasUsed": "0xbb89",
      "effectiveGasPrice": "0x989680",
      "from": "0x0ece75f3c36f7df2136dac7633165dbff53de3cd",
      "to": "0xc746b3aab0c6da075c9b7b43ceebd437ef759d5b",
      "contractAddress": null,
      "gasUsedForL1": "0x677",
      "l1BlockNumber": "0x168a281",
      "timeboosted": false
    },
    {
      "status": "0x1",
      "cumulativeGasUsed": "0x4bfa7",
      "logs": [],
      "logsBloom": "0x00000000000000000000000000000000000000000000000000000000000000000000000000000000000000000000000000000000000000000000000000000000000000000000000000000000000000000000000000000000000000000000000000000000000000000000000000000000000000000000000000000000000000000000000000000000000000000000000000000000000000000000000000000000000000000000000000000000000000000000000000000000000000000000000000000000000000000000000000000000000000000000000000000000000000000000000000000000000000000000000000000000000000000000000000000000",
      "type": "0x2",
      "transactionHash": "0xd32be7b9ce7774911014a3473443265997204c8aed03004af45d1044a72ac0ed",
      "transactionIndex": "0x7",
      "blockHash": "0x02483769a8d06a2a84a35f39d176faeb6db8d0e6c549ce0808224b601b9d1d35",
      "blockNumber": "0x1761b8a5",
      "gasUsed": "0x6dcd",
      "effectiveGasPrice": "0x989680",
      "from": "0x0ece75f3c36f7df2136dac7633165dbff53de3cd",
      "to": "0x7b3c20d2b3f8c205f624e62d356354ed1ae9f64b",
      "contractAddress": null,
      "gasUsedForL1": "0x677",
      "l1BlockNumber": "0x168a281",
      "timeboosted": false
    },
    {
      "status": "0x1",
      "cumulativeGasUsed": "0x4e3d1",
      "logs": [],
      "logsBloom": "0x00000000000000000000000000000000000000000000000000000000000000000000000000000000000000000000000000000000000000000000000000000000000000000000000000000000000000000000000000000000000000000000000000000000000000000000000000000000000000000000000000000000000000000000000000000000000000000000000000000000000000000000000000000000000000000000000000000000000000000000000000000000000000000000000000000000000000000000000000000000000000000000000000000000000000000000000000000000000000000000000000000000000000000000000000000000",
      "type": "0x2",
      "transactionHash": "0x144996bbbf8bbb0530654c0cf64d62916157d3f070436590d62ddf82cb68805d",
      "transactionIndex": "0x7",
      "blockHash": "0x829e27dd19bae7b1cfee9d72b4c242746506c5dec8a8b886a4c52dd4511e9b41",
      "blockNumber": "0x1761b8b1",
      "gasUsed": "0xbb89",
      "effectiveGasPrice": "0x989680",
      "from": "0x0ece75f3c36f7df2136dac7633165dbff53de3cd",
      "to": "0x7b3c20d2b3f8c205f624e62d356354ed1ae9f64b",
      "contractAddress": null,
      "gasUsedForL1": "0x677",
      "l1BlockNumber": "0x168a281",
      "timeboosted": false
    },
    {
      "status": "0x1",
      "cumulativeGasUsed": "0x262d5b",
      "logs": [],
      "logsBloom": "0x00000000000000000000000000000000000000000000000000000000000000000000000000000000000000000000000000000000000000000000000000000000000000000000000000000000000000000000000000000000000000000000000000000000000000000000000000000000000000000000000000000000000000000000000000000000000000000000000000000000000000000000000000000000000000000000000000000000000000000000000000000000000000000000000000000000000000000000000000000000000000000000000000000000000000000000000000000000000000000000000000000000000000000000000000000000",
      "type": "0x2",
      "transactionHash": "0xbb354b38f4b252a16e862855f63892e84d4b8579efd292e992df33e9f6ca2538",
      "transactionIndex": "0x9",
      "blockHash": "0x6ea8f2c6c45d32c854db9b2afbf456c6cd4c882f0b46d1b83fa313ca402dc0bf",
      "blockNumber": "0x1761b8bd",
      "gasUsed": "0x6dcd",
      "effectiveGasPrice": "0x989680",
      "from": "0x0ece75f3c36f7df2136dac7633165dbff53de3cd",
      "to": "0x1fead2bdaaebb03c2739949ea3b2145f064378f0",
      "contractAddress": null,
      "gasUsedForL1": "0x677",
      "l1BlockNumber": "0x168a282",
      "timeboosted": false
    },
    {
      "status": "0x1",
      "cumulativeGasUsed": "0x668fa",
      "logs": [],
      "logsBloom": "0x00000000000000000000000000000000000000000000000000000000000000000000000000000000000000000000000000000000000000000000000000000000000000000000000000000000000000000000000000000000000000000000000000000000000000000000000000000000000000000000000000000000000000000000000000000000000000000000000000000000000000000000000000000000000000000000000000000000000000000000000000000000000000000000000000000000000000000000000000000000000000000000000000000000000000000000000000000000000000000000000000000000000000000000000000000000",
      "type": "0x2",
      "transactionHash": "0xc2537988eabf6efcd22f4f803d1625a79abd0bed9d6d9e6d5221b273a82bce8a",
      "transactionIndex": "0x9",
      "blockHash": "0xd794480f8a1b304485e279d8529554dbea7fddd19e4115e8025f4f3251cacc11",
      "blockNumber": "0x1761b8c9",
      "gasUsed": "0xbb89",
      "effectiveGasPrice": "0x989680",
      "from": "0x0ece75f3c36f7df2136dac7633165dbff53de3cd",
      "to": "0x1fead2bdaaebb03c2739949ea3b2145f064378f0",
      "contractAddress": null,
      "gasUsedForL1": "0x677",
      "l1BlockNumber": "0x168a282",
      "timeboosted": false
    },
    {
      "status": "0x1",
      "cumulativeGasUsed": "0x67659",
      "logs": [],
      "logsBloom": "0x00000000000000000000000000000000000000000000000000000000000000000000000000000000000000000000000000000000000000000000000000000000000000000000000000000000000000000000000000000000000000000000000000000000000000000000000000000000000000000000000000000000000000000000000000000000000000000000000000000000000000000000000000000000000000000000000000000000000000000000000000000000000000000000000000000000000000000000000000000000000000000000000000000000000000000000000000000000000000000000000000000000000000000000000000000000",
      "type": "0x2",
      "transactionHash": "0xb39631d12d5aa2f119635ba60aeb181351c14fcdd21398dc54596f8cea515d21",
      "transactionIndex": "0x7",
      "blockHash": "0x82bdae6630681f39279f062af909016dffc03b1e2bd9742a28496dd884e581b2",
      "blockNumber": "0x1761b8ce",
      "gasUsed": "0x6dcd",
      "effectiveGasPrice": "0x989680",
      "from": "0x0ece75f3c36f7df2136dac7633165dbff53de3cd",
      "to": "0x6ce216ec20272c69a8f3fd8bc8d13d770651fa56",
      "contractAddress": null,
      "gasUsedForL1": "0x677",
      "l1BlockNumber": "0x168a282",
      "timeboosted": false
    },
    {
      "status": "0x1",
      "cumulativeGasUsed": "0x2714e",
      "logs": [],
      "logsBloom": "0x00000000000000000000000000000000000000000000000000000000000000000000000000000000000000000000000000000000000000000000000000000000000000000000000000000000000000000000000000000000000000000000000000000000000000000000000000000000000000000000000000000000000000000000000000000000000000000000000000000000000000000000000000000000000000000000000000000000000000000000000000000000000000000000000000000000000000000000000000000000000000000000000000000000000000000000000000000000000000000000000000000000000000000000000000000000",
      "type": "0x2",
      "transactionHash": "0x40dd877ab77e5d377a2698ac8d030aab23f997fcfd80d736e4e507996af99dd9",
      "transactionIndex": "0x4",
      "blockHash": "0x8c400235d235b8c5f1748b4e7d83dfda3d1b654d0632fcc45b467d21f6d119b4",
      "blockNumber": "0x1761b8da",
      "gasUsed": "0xbb89",
      "effectiveGasPrice": "0x989680",
      "from": "0x0ece75f3c36f7df2136dac7633165dbff53de3cd",
      "to": "0x6ce216ec20272c69a8f3fd8bc8d13d770651fa56",
      "contractAddress": null,
      "gasUsedForL1": "0x677",
      "l1BlockNumber": "0x168a282",
      "timeboosted": false
    },
    {
      "status": "0x1",
      "cumulativeGasUsed": "0x407a14",
      "logs": [],
      "logsBloom": "0x00000000000000000000000000000000000000000000000000000000000000000000000000000000000000000000000000000000000000000000000000000000000000000000000000000000000000000000000000000000000000000000000000000000000000000000000000000000000000000000000000000000000000000000000000000000000000000000000000000000000000000000000000000000000000000000000000000000000000000000000000000000000000000000000000000000000000000000000000000000000000000000000000000000000000000000000000000000000000000000000000000000000000000000000000000000",
      "type": "0x2",
      "transactionHash": "0xb1b83660c2d9ccd777db7916efd64e640ce9dc0067e1e7c7e1d984139b867d4b",
      "transactionIndex": "0x8",
      "blockHash": "0x4cc3b6df00be6d992a960e2029ea25d17787c635cf730cb15a96b997292f0104",
      "blockNumber": "0x1761b8e6",
      "gasUsed": "0xbb89",
      "effectiveGasPrice": "0x989680",
      "from": "0x0ece75f3c36f7df2136dac7633165dbff53de3cd",
      "to": "0xbdc661eecb0dcfb940a34008e0190c9103013c41",
      "contractAddress": null,
      "gasUsedForL1": "0x677",
      "l1BlockNumber": "0x168a282",
      "timeboosted": false
    },
    {
      "status": "0x1",
      "cumulativeGasUsed": "0x12b036",
      "logs": [],
      "logsBloom": "0x00000000000000000000000000000000000000000000000000000000000000000000000000000000000000000000000000000000000000000000000000000000000000000000000000000000000000000000000000000000000000000000000000000000000000000000000000000000000000000000000000000000000000000000000000000000000000000000000000000000000000000000000000000000000000000000000000000000000000000000000000000000000000000000000000000000000000000000000000000000000000000000000000000000000000000000000000000000000000000000000000000000000000000000000000000000",
      "type": "0x2",
      "transactionHash": "0x7b547bbdb38fd1f3f217610fb1fbe39259defacf73267a890a47c242f30a92eb",
      "transactionIndex": "0x9",
      "blockHash": "0xbd25f1dfca3134d4a87823d8cc3e62ca8e63fc800e72f0f7c1d643c036270c9b",
      "blockNumber": "0x1761b8ef",
      "gasUsed": "0xbb89",
      "effectiveGasPrice": "0x989680",
      "from": "0x0ece75f3c36f7df2136dac7633165dbff53de3cd",
      "to": "0xbdc661eecb0dcfb940a34008e0190c9103013c41",
      "contractAddress": null,
      "gasUsedForL1": "0x677",
      "l1BlockNumber": "0x168a284",
      "timeboosted": false
    },
    {
      "status": "0x1",
      "cumulativeGasUsed": "0x2b20f",
      "logs": [],
      "logsBloom": "0x00000000000000000000000000000000000000000000000000000000000000000000000000000000000000000000000000000000000000000000000000000000000000000000000000000000000000000000000000000000000000000000000000000000000000000000000000000000000000000000000000000000000000000000000000000000000000000000000000000000000000000000000000000000000000000000000000000000000000000000000000000000000000000000000000000000000000000000000000000000000000000000000000000000000000000000000000000000000000000000000000000000000000000000000000000000",
      "type": "0x2",
      "transactionHash": "0xdc1b5de7c589320de4c46c925c99b002a55097a88e9fda1e32d8847219e3c385",
      "transactionIndex": "0x4",
      "blockHash": "0xd144bd6da5090dbeafa1f5d23e7cc00bb207689695e079fafef27396119e2935",
      "blockNumber": "0x1761b8f7",
      "gasUsed": "0xbb89",
      "effectiveGasPrice": "0x989680",
      "from": "0x0ece75f3c36f7df2136dac7633165dbff53de3cd",
      "to": "0xea25630bf89a0ff560308e7d12920695a586b0a2",
      "contractAddress": null,
      "gasUsedForL1": "0x677",
      "l1BlockNumber": "0x168a284",
      "timeboosted": false
    },
    {
      "status": "0x1",
      "cumulativeGasUsed": "0x3cb1a",
      "logs": [],
      "logsBloom": "0x00000000000000000000000000000000000000000000000000000000000000000000000000000000000000000000000000000000000000000000000000000000000000000000000000000000000000000000000000000000000000000000000000000000000000000000000000000000000000000000000000000000000000000000000000000000000000000000000000000000000000000000000000000000000000000000000000000000000000000000000000000000000000000000000000000000000000000000000000000000000000000000000000000000000000000000000000000000000000000000000000000000000000000000000000000000",
      "type": "0x2",
      "transactionHash": "0x0c98aa11be4769fa94a183e5419002ce5b7c6c671c0cf8b30494199a4cc13004",
      "transactionIndex": "0x5",
      "blockHash": "0x7eec2829869228e815a762d4fce00ff2c549135f472c2ae3ea4ab64f3f0edbaa",
      "blockNumber": "0x1761b903",
      "gasUsed": "0xbb89",
      "effectiveGasPrice": "0x989680",
      "from": "0x0ece75f3c36f7df2136dac7633165dbff53de3cd",
      "to": "0xea25630bf89a0ff560308e7d12920695a586b0a2",
      "contractAddress": null,
      "gasUsedForL1": "0x677",
      "l1BlockNumber": "0x168a284",
      "timeboosted": false
    },
    {
      "status": "0x1",
      "cumulativeGasUsed": "0x3ad29",
      "logs": [],
      "logsBloom": "0x00000000000000000000000000000000000000000000000000000000000000000000000000000000000000000000000000000000000000000000000000000000000000000000000000000000000000000000000000000000000000000000000000000000000000000000000000000000000000000000000000000000000000000000000000000000000000000000000000000000000000000000000000000000000000000000000000000000000000000000000000000000000000000000000000000000000000000000000000000000000000000000000000000000000000000000000000000000000000000000000000000000000000000000000000000000",
      "type": "0x2",
      "transactionHash": "0xddfa695625c2ce65b81bcdeeea37afe1e6b35fcc4c2fb72d91ce7ce24e99f774",
      "transactionIndex": "0x4",
      "blockHash": "0x871533ab5527ac87143447295c1ff3cea6347dd20462579dd27bae2bd4e0bdd2",
      "blockNumber": "0x1761b909",
      "gasUsed": "0xbb89",
      "effectiveGasPrice": "0x989680",
      "from": "0x0ece75f3c36f7df2136dac7633165dbff53de3cd",
      "to": "0xb516190f8192cceaf8b1da7d9ca1c6c75b9f410c",
      "contractAddress": null,
      "gasUsedForL1": "0x677",
      "l1BlockNumber": "0x168a284",
      "timeboosted": false
    },
    {
      "status": "0x1",
      "cumulativeGasUsed": "0x476b0",
      "logs": [],
      "logsBloom": "0x00000000000000000000000000000000000000000000000000000000000000000000000000000000000000000000000000000000000000000000000000000000000000000000000000000000000000000000000000000000000000000000000000000000000000000000000000000000000000000000000000000000000000000000000000000000000000000000000000000000000000000000000000000000000000000000000000000000000000000000000000000000000000000000000000000000000000000000000000000000000000000000000000000000000000000000000000000000000000000000000000000000000000000000000000000000",
      "type": "0x2",
      "transactionHash": "0xccd51b4f46eee7b9807d91b03ac6774244428823f40b79c91620c017c9fd089c",
      "transactionIndex": "0x6",
      "blockHash": "0x567825654117f7152af3d4a5b917c78ad264334bf908da90e1666e0b832e76f5",
      "blockNumber": "0x1761b90e",
      "gasUsed": "0xbb89",
      "effectiveGasPrice": "0x989680",
      "from": "0x0ece75f3c36f7df2136dac7633165dbff53de3cd",
      "to": "0xb516190f8192cceaf8b1da7d9ca1c6c75b9f410c",
      "contractAddress": null,
      "gasUsedForL1": "0x677",
      "l1BlockNumber": "0x168a284",
      "timeboosted": false
    },
    {
      "status": "0x1",
      "cumulativeGasUsed": "0x6db6",
      "logs": [],
      "logsBloom": "0x00000000000000000000000000000000000000000000000000000000000000000000000000000000000000000000000000000000000000000000000000000000000000000000000000000000000000000000000000000000000000000000000000000000000000000000000000000000000000000000000000000000000000000000000000000000000000000000000000000000000000000000000000000000000000000000000000000000000000000000000000000000000000000000000000000000000000000000000000000000000000000000000000000000000000000000000000000000000000000000000000000000000000000000000000000000",
      "type": "0x2",
      "transactionHash": "0xc4077cfc315f172865da9683c2705c34c7a578d9722e3b0b12b8a90f65053b54",
      "transactionIndex": "0x1",
      "blockHash": "0x714a8f62cfe38a2d83405cca31baa8753a8f431b25c41b1d5a911f7ff0317525",
      "blockNumber": "0x1761b913",
      "gasUsed": "0x6db6",
      "effectiveGasPrice": "0x989680",
      "from": "0x0ece75f3c36f7df2136dac7633165dbff53de3cd",
      "to": "0x9f3d0beafad726bcfd3799f2b7b42eab889ac333",
      "contractAddress": null,
      "gasUsedForL1": "0x677",
      "l1BlockNumber": "0x168a284",
      "timeboosted": false
    },
    {
      "status": "0x1",
      "cumulativeGasUsed": "0x52aac6",
      "logs": [],
      "logsBloom": "0x00000000000000000000000000000000000000000000000000000000000000000000000000000000000000000000000000000000000000000000000000000000000000000000000000000000000000000000000000000000000000000000000000000000000000000000000000000000000000000000000000000000000000000000000000000000000000000000000000000000000000000000000000000000000000000000000000000000000000000000000000000000000000000000000000000000000000000000000000000000000000000000000000000000000000000000000000000000000000000000000000000000000000000000000000000000",
      "type": "0x2",
      "transactionHash": "0xfb5a5dabcbcbaf88d22d0f458e63b22e40e3727b62c7ce64e1380885e1f75474",
      "transactionIndex": "0xd",
      "blockHash": "0xec8dffa43aec711a449865959678a9fc4d0eeb536bd39039646650ac3c16481e",
      "blockNumber": "0x1761b91c",
      "gasUsed": "0x6db6",
      "effectiveGasPrice": "0x989680",
      "from": "0x0ece75f3c36f7df2136dac7633165dbff53de3cd",
      "to": "0x27eeda6b30dfce416d5de397c78f1e3c87e557bb",
      "contractAddress": null,
      "gasUsedForL1": "0x677",
      "l1BlockNumber": "0x168a284",
      "timeboosted": false
    },
    {
      "status": "0x1",
      "cumulativeGasUsed": "0x8793c",
      "logs": [],
      "logsBloom": "0x00000000000000000000000000000000000000000000000000000000000000000000000000000000000000000000000000000000000000000000000000000000000000000000000000000000000000000000000000000000000000000000000000000000000000000000000000000000000000000000000000000000000000000000000000000000000000000000000000000000000000000000000000000000000000000000000000000000000000000000000000000000000000000000000000000000000000000000000000000000000000000000000000000000000000000000000000000000000000000000000000000000000000000000000000000000",
      "type": "0x2",
      "transactionHash": "0xdd9dd001e12d60faed18906fcbee9d4d8f5445e05816ab9664ffe33a9a03ce84",
      "transactionIndex": "0xa",
      "blockHash": "0x13786ea9efef69757c820087c9a1dc6cbec71b8f2a10bb9c36291d2a9c60cde5",
      "blockNumber": "0x1761b923",
      "gasUsed": "0x6db6",
      "effectiveGasPrice": "0x989680",
      "from": "0x0ece75f3c36f7df2136dac7633165dbff53de3cd",
      "to": "0x5cf7bb8568491bb50a1941994fd3da4adf34fe28",
      "contractAddress": null,
      "gasUsedForL1": "0x677",
      "l1BlockNumber": "0x168a284",
      "timeboosted": false
    },
    {
      "status": "0x1",
      "cumulativeGasUsed": "0x1fff6",
      "logs": [],
      "logsBloom": "0x00000000000000000000000000000000000000000000000000000000000000000000000000000000000000000000000000000000000000000000000000000000000000000000000000000000000000000000000000000000000000000000000000000000000000000000000000000000000000000000000000000000000000000000000000000000000000000000000000000000000000000000000000000000000000000000000000000000000000000000000000000000000000000000000000000000000000000000000000000000000000000000000000000000000000000000000000000000000000000000000000000000000000000000000000000000",
      "type": "0x2",
      "transactionHash": "0xd34d2ab3d104fb506126cfc678383dd0ab03093540d04a77782e2d99be01b620",
      "transactionIndex": "0x3",
      "blockHash": "0x70b993120bee539702b40bf420cad8bc945293cdfea3dca9c95f52476fc74216",
      "blockNumber": "0x1761b928",
      "gasUsed": "0x6db6",
      "effectiveGasPrice": "0x989680",
      "from": "0x0ece75f3c36f7df2136dac7633165dbff53de3cd",
      "to": "0x10fd0d8280e94d0dbc3013b778ef26d47105ea7b",
      "contractAddress": null,
      "gasUsedForL1": "0x677",
      "l1BlockNumber": "0x168a284",
      "timeboosted": false
    },
    {
      "status": "0x1",
      "cumulativeGasUsed": "0x136d6",
      "logs": [],
      "logsBloom": "0x00000000000000000000000000000000000000000000000000000000000000000000000000000000000000000000000000000000000000000000000000000000000000000000000000000000000000000000000000000000000000000000000000000000000000000000000000000000000000000000000000000000000000000000000000000000000000000000000000000000000000000000000000000000000000000000000000000000000000000000000000000000000000000000000000000000000000000000000000000000000000000000000000000000000000000000000000000000000000000000000000000000000000000000000000000000",
      "type": "0x2",
      "transactionHash": "0x8bfe82e80ea3f9fd2b897cece7cc33875553538ba41a2dce02601d0b004f18b8",
      "transactionIndex": "0x2",
      "blockHash": "0xe2bfb0a2484b06431cda61dba4116d24c5cfe341dfbe825a946eb85009857130",
      "blockNumber": "0x1761b933",
      "gasUsed": "0x6db6",
      "effectiveGasPrice": "0x989680",
      "from": "0x0ece75f3c36f7df2136dac7633165dbff53de3cd",
      "to": "0x31fc86e13108a098830eea63a8a9f6d80dfc89aa",
      "contractAddress": null,
      "gasUsedForL1": "0x677",
      "l1BlockNumber": "0x168a285",
      "timeboosted": false
    },
    {
      "status": "0x1",
      "cumulativeGasUsed": "0x2dd7c",
      "logs": [],
      "logsBloom": "0x00000000000000000000000000000000000000000000000000000000000000000000000000000000000000000000000000000000000000000000000000000000000000000000000000000000000000000000000000000000000000000000000000000000000000000000000000000000000000000000000000000000000000000000000000000000000000000000000000000000000000000000000000000000000000000000000000000000000000000000000000000000000000000000000000000000000000000000000000000000000000000000000000000000000000000000000000000000000000000000000000000000000000000000000000000000",
      "type": "0x2",
      "transactionHash": "0x18c5318ff98b5967ba689819e02a1961e2fc49d58a790ebef4a3f6b61111e65c",
      "transactionIndex": "0x4",
      "blockHash": "0x7e4fa80ebe1dbcdb32418104de63456dac43366fe44db9c12c04a218d5d3244f",
      "blockNumber": "0x1761b938",
      "gasUsed": "0x6db6",
      "effectiveGasPrice": "0x989680",
      "from": "0x0ece75f3c36f7df2136dac7633165dbff53de3cd",
      "to": "0x53d7f02e72d62f7b7b41f6b622a7d79694bed966",
      "contractAddress": null,
      "gasUsedForL1": "0x677",
      "l1BlockNumber": "0x168a285",
      "timeboosted": false
    },
    {
      "status": "0x1",
      "cumulativeGasUsed": "0x106572",
      "logs": [],
      "logsBloom": "0x00000000000000000000000000000000000000000000000000000000000000000000000000000000000000000000000000000000000000000000000000000000000000000000000000000000000000000000000000000000000000000000000000000000000000000000000000000000000000000000000000000000000000000000000000000000000000000000000000000000000000000000000000000000000000000000000000000000000000000000000000000000000000000000000000000000000000000000000000000000000000000000000000000000000000000000000000000000000000000000000000000000000000000000000000000000",
      "type": "0x2",
      "transactionHash": "0x36bfb0ccc79e2661cf7040d0b5478d4f10a3ca09bd138c5cd7a33286eb19ebd3",
      "transactionIndex": "0xa",
      "blockHash": "0x0c9b3049cf4ef751f98e51b7775d94ca0c32da677de771e3125bd291f70334e2",
      "blockNumber": "0x1761b93d",
      "gasUsed": "0x6db6",
      "effectiveGasPrice": "0x989680",
      "from": "0x0ece75f3c36f7df2136dac7633165dbff53de3cd",
      "to": "0x33faba0e0ce340afc4fb03038151ff7ee1d5f95b",
      "contractAddress": null,
      "gasUsedForL1": "0x677",
      "l1BlockNumber": "0x168a285",
      "timeboosted": false
    }
  ],
  "libraries": [],
  "pending": [],
  "returns": {},
  "timestamp": 1761154307632,
  "chain": 42161,
  "commit": "2861560"
}