{
  "transactions": [
    {
      "hash": "0x33b87b3dae644239f9ef89b6ea18ab9764731b13f22d7f444d8f94e6a7ef2d9b",
      "transactionType": "CALL",
      "contractName": null,
      "contractAddress": "0x5a28316959551da618f84070fff70b390270185c",
      "function": "addTokenDataStream(address,address)",
      "arguments": [
        "0x735886f4EE69FFe3c7a156e8584B46748eDdB388",
        "0x52eD4a5fA6bFE802b31C8AC3b7B5d80A2d9F1046"
      ],
      "transaction": {
        "from": "0x0ece75f3c36f7df2136dac7633165dbff53de3cd",
        "to": "0x5a28316959551da618f84070fff70b390270185c",
        "gas": "0x122c7",
        "value": "0x0",
        "input": "0xe18487ca000000000000000000000000735886f4ee69ffe3c7a156e8584b46748eddb38800000000000000000000000052ed4a5fa6bfe802b31c8ac3b7b5d80a2d9f1046",
        "nonce": "0x1f7",
        "chainId": "0x2105"
      },
      "additionalContracts": [],
      "isFixedGasLimit": false
    },
    {
      "hash": "0xe43c9c3f3307237070be0030a40daf66c685dda0576c3fa30c49b6cc4511b3b1",
      "transactionType": "CALL",
      "contractName": null,
      "contractAddress": "0x5a28316959551da618f84070fff70b390270185c",
      "function": "addTokenDataStream(address,address)",
      "arguments": [
        "0x9fc9E6332a4eD0b5a5C24602A0821A0e44189681",
        "0xb66432B88ca4495eD8621AE967A746dF63b3e369"
      ],
      "transaction": {
        "from": "0x0ece75f3c36f7df2136dac7633165dbff53de3cd",
        "to": "0x5a28316959551da618f84070fff70b390270185c",
        "gas": "0x122c7",
        "value": "0x0",
        "input": "0xe18487ca0000000000000000000000009fc9e6332a4ed0b5a5c24602a0821a0e44189681000000000000000000000000b66432b88ca4495ed8621ae967a746df63b3e369",
        "nonce": "0x1f8",
        "chainId": "0x2105"
      },
      "additionalContracts": [],
      "isFixedGasLimit": false
    },
    {
      "hash": "0x725d5646547d20f1c83de1a38cf47dc776e7f1b3d963e3f3034e8e57ffa6db03",
      "transactionType": "CALL",
      "contractName": null,
      "contractAddress": "0x5a28316959551da618f84070fff70b390270185c",
      "function": "addTokenDataStream(address,address)",
      "arguments": [
        "0x35487f37efb8F27f70e3A8Db62d04C1edfB69aE1",
        "0x33De865856051686978CdFEab18bAf7603E78eE6"
      ],
      "transaction": {
        "from": "0x0ece75f3c36f7df2136dac7633165dbff53de3cd",
        "to": "0x5a28316959551da618f84070fff70b390270185c",
        "gas": "0x122c7",
        "value": "0x0",
        "input": "0xe18487ca00000000000000000000000035487f37efb8f27f70e3a8db62d04c1edfb69ae100000000000000000000000033de865856051686978cdfeab18baf7603e78ee6",
        "nonce": "0x1f9",
        "chainId": "0x2105"
      },
      "additionalContracts": [],
      "isFixedGasLimit": false
    }
  ],
  "receipts": [
    {
      "status": "0x1",
      "cumulativeGasUsed": "0xb65822",
      "logs": [
        {
          "address": "0x5a28316959551da618f84070fff70b390270185c",
          "topics": [
            "0xc5f200bc64f9d16d888ec9eaec566ef2155fab997cb7210a15722b06e32a3c70",
            "0x000000000000000000000000735886f4ee69ffe3c7a156e8584b46748eddb388",
            "0x00000000000000000000000052ed4a5fa6bfe802b31c8ac3b7b5d80a2d9f1046"
          ],
          "data": "0x",
          "blockHash": "0x9efe0b7c453a697ae3b7bd647680ae9a4484ce9b433f68a8213328c8760fff8d",
          "blockNumber": "0x2249d14",
          "blockTimestamp": "0x68d3970b",
          "transactionHash": "0x33b87b3dae644239f9ef89b6ea18ab9764731b13f22d7f444d8f94e6a7ef2d9b",
          "transactionIndex": "0x5c",
          "logIndex": "0xa9",
          "removed": false
        }
      ],
      "logsBloom": "0x00000000000000000000000000000000000000000000000000000000000010200000008000000000200000000000000000000000000000000000000000000000000000000000000000000000000000000000000004000000000000000000000000000000000000000000000000000000000000000000010000000000000400000000000000000000000000000000000000000000000000000010000000000000000000000000000000000000000000000000000000000000000000000000000000000000000000000000000000200000000100000000000000000000000000000000000000000000000000000000000000000000000000000000000000000021",
      "type": "0x2",
      "transactionHash": "0x33b87b3dae644239f9ef89b6ea18ab9764731b13f22d7f444d8f94e6a7ef2d9b",
      "transactionIndex": "0x5c",
      "blockHash": "0x9efe0b7c453a697ae3b7bd647680ae9a4484ce9b433f68a8213328c8760fff8d",
      "blockNumber": "0x2249d14",
      "gasUsed": "0xd285",
      "effectiveGasPrice": "0x328420",
      "from": "0x0ece75f3c36f7df2136dac7633165dbff53de3cd",
      "to": "0x5a28316959551da618f84070fff70b390270185c",
      "contractAddress": null,
      "l1BaseFeeScalar": "0x8dd",
      "l1BlobBaseFee": "0xa19c00",
      "l1BlobBaseFeeScalar": "0x101c12",
      "l1Fee": "0x5c9490c9",
      "l1GasPrice": "0x706f2ba",
      "l1GasUsed": "0x647"
    },
    {
      "status": "0x1",
      "cumulativeGasUsed": "0xb72aa7",
      "logs": [
        {
          "address": "0x5a28316959551da618f84070fff70b390270185c",
          "topics": [
            "0xc5f200bc64f9d16d888ec9eaec566ef2155fab997cb7210a15722b06e32a3c70",
            "0x0000000000000000000000009fc9e6332a4ed0b5a5c24602a0821a0e44189681",
            "0x000000000000000000000000b66432b88ca4495ed8621ae967a746df63b3e369"
          ],
          "data": "0x",
          "blockHash": "0x9efe0b7c453a697ae3b7bd647680ae9a4484ce9b433f68a8213328c8760fff8d",
          "blockNumber": "0x2249d14",
          "blockTimestamp": "0x68d3970b",
          "transactionHash": "0xe43c9c3f3307237070be0030a40daf66c685dda0576c3fa30c49b6cc4511b3b1",
          "transactionIndex": "0x5d",
          "logIndex": "0xaa",
          "removed": false
        }
      ],
      "logsBloom": "0x00000000000000000000000000000000000000000000000000000000000010200000000000000000000200000000000000000000100000000000000000000000000000000000000000000000000000000000000000000000000000000000000000800000000000000000000000000000000000000000000000080000000000000000000000000000000000000000000000000000000000000000000000000000000000000000000000000000000000000000040000000000000000000000000000000000000000000000000200200000000100000000000000000000000000000000000000000000000000000000000000000000000000000000000000000021",
      "type": "0x2",
      "transactionHash": "0xe43c9c3f3307237070be0030a40daf66c685dda0576c3fa30c49b6cc4511b3b1",
      "transactionIndex": "0x5d",
      "blockHash": "0x9efe0b7c453a697ae3b7bd647680ae9a4484ce9b433f68a8213328c8760fff8d",
      "blockNumber": "0x2249d14",
      "gasUsed": "0xd285",
      "effectiveGasPrice": "0x328420",
      "from": "0x0ece75f3c36f7df2136dac7633165dbff53de3cd",
      "to": "0x5a28316959551da618f84070fff70b390270185c",
      "contractAddress": null,
      "l1BaseFeeScalar": "0x8dd",
      "l1BlobBaseFee": "0xa19c00",
      "l1BlobBaseFeeScalar": "0x101c12",
      "l1Fee": "0x5c9490c9",
      "l1GasPrice": "0x706f2ba",
      "l1GasUsed": "0x647"
    },
    {
      "status": "0x1",
      "cumulativeGasUsed": "0xb7fd2c",
      "logs": [
        {
          "address": "0x5a28316959551da618f84070fff70b390270185c",
          "topics": [
            "0xc5f200bc64f9d16d888ec9eaec566ef2155fab997cb7210a15722b06e32a3c70",
            "0x00000000000000000000000035487f37efb8f27f70e3a8db62d04c1edfb69ae1",
            "0x00000000000000000000000033de865856051686978cdfeab18baf7603e78ee6"
          ],
          "data": "0x",
          "blockHash": "0x9efe0b7c453a697ae3b7bd647680ae9a4484ce9b433f68a8213328c8760fff8d",
          "blockNumber": "0x2249d14",
          "blockTimestamp": "0x68d3970b",
          "transactionHash": "0x725d5646547d20f1c83de1a38cf47dc776e7f1b3d963e3f3034e8e57ffa6db03",
          "transactionIndex": "0x5e",
          "logIndex": "0xab",
          "removed": false
        }
      ],
      "logsBloom": "0x00000000000000000000000000000000000000000000000000000000000010200000000000000000000000000000000000000000000000000000000000400000400000000000000000000000000000000000000000080000000000000000000000000000000000000000000000000000000000000000000000000000000000000000000000000000000000000000000000000000000000000000000000000000000000000000000000000000000000000000000000000000000000000000000000000000000000000000000000200000000100000000000000000040080000000000000000000000000000000000000000000004000000000000000000000021",
      "type": "0x2",
      "transactionHash": "0x725d5646547d20f1c83de1a38cf47dc776e7f1b3d963e3f3034e8e57ffa6db03",
      "transactionIndex": "0x5e",
      "blockHash": "0x9efe0b7c453a697ae3b7bd647680ae9a4484ce9b433f68a8213328c8760fff8d",
      "blockNumber": "0x2249d14",
      "gasUsed": "0xd285",
      "effectiveGasPrice": "0x328420",
      "from": "0x0ece75f3c36f7df2136dac7633165dbff53de3cd",
      "to": "0x5a28316959551da618f84070fff70b390270185c",
      "contractAddress": null,
      "l1BaseFeeScalar": "0x8dd",
      "l1BlobBaseFee": "0xa19c00",
      "l1BlobBaseFeeScalar": "0x101c12",
      "l1Fee": "0x5c9490c9",
      "l1GasPrice": "0x706f2ba",
      "l1GasUsed": "0x647"
    }
  ],
  "libraries": [],
  "pending": [],
  "returns": {},
  "timestamp": 1758697228025,
  "chain": 8453,
  "commit": "8b3c6e2"
}