{
  "deployments": [
    {
      "transactions": [
        {
          "hash": "0x4bb6ac18097363bf37538f6d17dac38bfa56b4b4f3c4b65552d67f036d437f48",
          "transactionType": "CALL",
          "contractName": null,
          "contractAddress": "0x1a44076050125825900e736c501f859c50fe728c",
          "function": "setSendLibrary(address,uint32,address)",
          "arguments": [
            "0x5A0971E3D6E0793b9FcE640E821435fD8F9Fd906",
            "30111",
            "0xB5320B0B3a13cC860893E2Bd79FCd7e13484Dda2"
          ],
          "transaction": {
            "from": "0x0ece75f3c36f7df2136dac7633165dbff53de3cd",
            "to": "0x1a44076050125825900e736c501f859c50fe728c",
            "gas": "0x1378b",
            "value": "0x0",
            "input": "0x9535ff300000000000000000000000005a0971e3d6e0793b9fce640e821435fd8f9fd906000000000000000000000000000000000000000000000000000000000000759f000000000000000000000000b5320b0b3a13cc860893e2bd79fcd7e13484dda2",
            "nonce": "0x197",
            "chainId": "0x2105"
          },
          "additionalContracts": [],
          "isFixedGasLimit": false
        },
        {
          "hash": "0x5009fd53b7a8cf50f86d9c712d61910e401fff1209a67b432661d64e60913d35",
          "transactionType": "CALL",
          "contractName": null,
          "contractAddress": "0x1a44076050125825900e736c501f859c50fe728c",
          "function": "setSendLibrary(address,uint32,address)",
          "arguments": [
            "0x2E18Dc8038252fE4855ac66f4aB73Abe3A18B91c",
            "30111",
            "0xB5320B0B3a13cC860893E2Bd79FCd7e13484Dda2"
          ],
          "transaction": {
            "from": "0x0ece75f3c36f7df2136dac7633165dbff53de3cd",
            "to": "0x1a44076050125825900e736c501f859c50fe728c",
            "gas": "0x1378b",
            "value": "0x0",
            "input": "0x9535ff300000000000000000000000002e18dc8038252fe4855ac66f4ab73abe3a18b91c000000000000000000000000000000000000000000000000000000000000759f000000000000000000000000b5320b0b3a13cc860893e2bd79fcd7e13484dda2",
            "nonce": "0x198",
            "chainId": "0x2105"
          },
          "additionalContracts": [],
          "isFixedGasLimit": false
        },
        {
          "hash": "0x3f903c2aa64f28c1c1cc999e5838168e6f6e57c85bc6e663052fbfbdd034763b",
          "transactionType": "CALL",
          "contractName": null,
          "contractAddress": "0x1a44076050125825900e736c501f859c50fe728c",
          "function": "setSendLibrary(address,uint32,address)",
          "arguments": [
            "0x530a9078023bED663482D26CedB2bDf8d1d881Ea",
            "30111",
            "0xB5320B0B3a13cC860893E2Bd79FCd7e13484Dda2"
          ],
          "transaction": {
            "from": "0x0ece75f3c36f7df2136dac7633165dbff53de3cd",
            "to": "0x1a44076050125825900e736c501f859c50fe728c",
            "gas": "0x1378b",
            "value": "0x0",
            "input": "0x9535ff30000000000000000000000000530a9078023bed663482d26cedb2bdf8d1d881ea000000000000000000000000000000000000000000000000000000000000759f000000000000000000000000b5320b0b3a13cc860893e2bd79fcd7e13484dda2",
            "nonce": "0x199",
            "chainId": "0x2105"
          },
          "additionalContracts": [],
          "isFixedGasLimit": false
        },
        {
          "hash": "0x2f39132dff53f9963ce64573842ca99adbddece6e32f09af644e2677e8dbc2d9",
          "transactionType": "CALL",
          "contractName": null,
          "contractAddress": "0x1a44076050125825900e736c501f859c50fe728c",
          "function": "setSendLibrary(address,uint32,address)",
          "arguments": [
            "0x2C4FDC631ce418196aB9835aAB82227A62c14c75",
            "30111",
            "0xB5320B0B3a13cC860893E2Bd79FCd7e13484Dda2"
          ],
          "transaction": {
            "from": "0x0ece75f3c36f7df2136dac7633165dbff53de3cd",
            "to": "0x1a44076050125825900e736c501f859c50fe728c",
            "gas": "0x1378b",
            "value": "0x0",
            "input": "0x9535ff300000000000000000000000002c4fdc631ce418196ab9835aab82227a62c14c75000000000000000000000000000000000000000000000000000000000000759f000000000000000000000000b5320b0b3a13cc860893e2bd79fcd7e13484dda2",
            "nonce": "0x19a",
            "chainId": "0x2105"
          },
          "additionalContracts": [],
          "isFixedGasLimit": false
        },
        {
          "hash": "0x8881ed280e0b5426373255334a85fbf379d354ed3e899c1f43ec784abdac37f5",
          "transactionType": "CALL",
          "contractName": null,
          "contractAddress": "0x1a44076050125825900e736c501f859c50fe728c",
          "function": "setReceiveLibrary(address,uint32,address,uint256)",
          "arguments": [
            "0x5A0971E3D6E0793b9FcE640E821435fD8F9Fd906",
            "30184",
            "0xc70AB6f32772f59fBfc23889Caf4Ba3376C84bAf",
            "0"
          ],
          "transaction": {
            "from": "0x0ece75f3c36f7df2136dac7633165dbff53de3cd",
            "to": "0x1a44076050125825900e736c501f859c50fe728c",
            "gas": "0x17001",
            "value": "0x0",
            "input": "0x6a14d7150000000000000000000000005a0971e3d6e0793b9fce640e821435fd8f9fd90600000000000000000000000000000000000000000000000000000000000075e8000000000000000000000000c70ab6f32772f59fbfc23889caf4ba3376c84baf0000000000000000000000000000000000000000000000000000000000000000",
            "nonce": "0x19b",
            "chainId": "0x2105"
          },
          "additionalContracts": [],
          "isFixedGasLimit": false
        },
        {
          "hash": "0x8b36c69ff93515997d37e2d363dcc432dadba1704d03097ce75904af27ee032f",
          "transactionType": "CALL",
          "contractName": null,
          "contractAddress": "0x1a44076050125825900e736c501f859c50fe728c",
          "function": "setReceiveLibrary(address,uint32,address,uint256)",
          "arguments": [
            "0x2E18Dc8038252fE4855ac66f4aB73Abe3A18B91c",
            "30184",
            "0xc70AB6f32772f59fBfc23889Caf4Ba3376C84bAf",
            "0"
          ],
          "transaction": {
            "from": "0x0ece75f3c36f7df2136dac7633165dbff53de3cd",
            "to": "0x1a44076050125825900e736c501f859c50fe728c",
            "gas": "0x17001",
            "value": "0x0",
            "input": "0x6a14d7150000000000000000000000002e18dc8038252fe4855ac66f4ab73abe3a18b91c00000000000000000000000000000000000000000000000000000000000075e8000000000000000000000000c70ab6f32772f59fbfc23889caf4ba3376c84baf0000000000000000000000000000000000000000000000000000000000000000",
            "nonce": "0x19c",
            "chainId": "0x2105"
          },
          "additionalContracts": [],
          "isFixedGasLimit": false
        },
        {
          "hash": "0xdbb1d92857ebb162e14e2f08435de731c8bdc2a27e88fe9dd7a90403c927f7e1",
          "transactionType": "CALL",
          "contractName": null,
          "contractAddress": "0x1a44076050125825900e736c501f859c50fe728c",
          "function": "setReceiveLibrary(address,uint32,address,uint256)",
          "arguments": [
            "0x530a9078023bED663482D26CedB2bDf8d1d881Ea",
            "30184",
            "0xc70AB6f32772f59fBfc23889Caf4Ba3376C84bAf",
            "0"
          ],
          "transaction": {
            "from": "0x0ece75f3c36f7df2136dac7633165dbff53de3cd",
            "to": "0x1a44076050125825900e736c501f859c50fe728c",
            "gas": "0x17001",
            "value": "0x0",
            "input": "0x6a14d715000000000000000000000000530a9078023bed663482d26cedb2bdf8d1d881ea00000000000000000000000000000000000000000000000000000000000075e8000000000000000000000000c70ab6f32772f59fbfc23889caf4ba3376c84baf0000000000000000000000000000000000000000000000000000000000000000",
            "nonce": "0x19d",
            "chainId": "0x2105"
          },
          "additionalContracts": [],
          "isFixedGasLimit": false
        },
        {
          "hash": "0xf240cedc243f1c7dec0fc5e32ed79d62467e620409fc0a729b46a8a810d58bc4",
          "transactionType": "CALL",
          "contractName": null,
          "contractAddress": "0x1a44076050125825900e736c501f859c50fe728c",
          "function": "setReceiveLibrary(address,uint32,address,uint256)",
          "arguments": [
            "0x2C4FDC631ce418196aB9835aAB82227A62c14c75",
            "30184",
            "0xc70AB6f32772f59fBfc23889Caf4Ba3376C84bAf",
            "0"
          ],
          "transaction": {
            "from": "0x0ece75f3c36f7df2136dac7633165dbff53de3cd",
            "to": "0x1a44076050125825900e736c501f859c50fe728c",
            "gas": "0x17001",
            "value": "0x0",
            "input": "0x6a14d7150000000000000000000000002c4fdc631ce418196ab9835aab82227a62c14c7500000000000000000000000000000000000000000000000000000000000075e8000000000000000000000000c70ab6f32772f59fbfc23889caf4ba3376c84baf0000000000000000000000000000000000000000000000000000000000000000",
            "nonce": "0x19e",
            "chainId": "0x2105"
          },
          "additionalContracts": [],
          "isFixedGasLimit": false
        }
      ],
      "receipts": [
        {
          "status": "0x1",
          "cumulativeGasUsed": "0x4c656a",
          "logs": [
            {
              "address": "0x1a44076050125825900e736c501f859c50fe728c",
              "topics": [
                "0x4cff966ebee29a156dcb34cf72c1d06231fb1777f6bdf6e8089819232f002b1c"
              ],
              "data": "0x0000000000000000000000005a0971e3d6e0793b9fce640e821435fd8f9fd906000000000000000000000000000000000000000000000000000000000000759f000000000000000000000000b5320b0b3a13cc860893e2bd79fcd7e13484dda2",
              "blockHash": "0xeac84e77eadd1d7644402bce61978c569f74c1e17fd173b584dc056224f556fe",
              "blockNumber": "0x2244413",
              "blockTimestamp": "0x68d2e509",
              "transactionHash": "0x4bb6ac18097363bf37538f6d17dac38bfa56b4b4f3c4b65552d67f036d437f48",
              "transactionIndex": "0x19",
              "logIndex": "0x61",
              "removed": false
            }
          ],
          "logsBloom": "0x00000000000000000000000000000000000200000000000000000000001000000000000000000000000000000000000000000000000000000000000001000000000000000000000000000000000000000000000000000000000000000000000000000000000000000000000000000000000000000010000000000000000000000000000000000000000000000000000000000000000000000000000000000000000000000000000000000000000000000000000000000000000000000000000000000000000000000000000000000000000000000000000000000000000000000040000000000000000000000000000000000000010000000000000000000000",
          "type": "0x2",
          "transactionHash": "0x4bb6ac18097363bf37538f6d17dac38bfa56b4b4f3c4b65552d67f036d437f48",
          "transactionIndex": "0x19",
          "blockHash": "0xeac84e77eadd1d7644402bce61978c569f74c1e17fd173b584dc056224f556fe",
          "blockNumber": "0x2244413",
          "gasUsed": "0xe18e",
          "effectiveGasPrice": "0x4eea69",
          "from": "0x0ece75f3c36f7df2136dac7633165dbff53de3cd",
          "to": "0x1a44076050125825900e736c501f859c50fe728c",
          "contractAddress": null,
          "l1BaseFeeScalar": "0x8dd",
          "l1BlobBaseFee": "0xf",
          "l1BlobBaseFeeScalar": "0x101c12",
          "l1Fee": "0x50833fd0",
          "l1GasPrice": "0x14b2a7a2",
          "l1GasUsed": "0x6b2"
        },
        {
          "status": "0x1",
          "cumulativeGasUsed": "0x4d46f8",
          "logs": [
            {
              "address": "0x1a44076050125825900e736c501f859c50fe728c",
              "topics": [
                "0x4cff966ebee29a156dcb34cf72c1d06231fb1777f6bdf6e8089819232f002b1c"
              ],
              "data": "0x0000000000000000000000002e18dc8038252fe4855ac66f4ab73abe3a18b91c000000000000000000000000000000000000000000000000000000000000759f000000000000000000000000b5320b0b3a13cc860893e2bd79fcd7e13484dda2",
              "blockHash": "0xeac84e77eadd1d7644402bce61978c569f74c1e17fd173b584dc056224f556fe",
              "blockNumber": "0x2244413",
              "blockTimestamp": "0x68d2e509",
              "transactionHash": "0x5009fd53b7a8cf50f86d9c712d61910e401fff1209a67b432661d64e60913d35",
              "transactionIndex": "0x1a",
              "logIndex": "0x62",
              "removed": false
            }
          ],
          "logsBloom": "0x00000000000000000000000000000000000200000000000000000000001000000000000000000000000000000000000000000000000000000000000001000000000000000000000000000000000000000000000000000000000000000000000000000000000000000000000000000000000000000010000000000000000000000000000000000000000000000000000000000000000000000000000000000000000000000000000000000000000000000000000000000000000000000000000000000000000000000000000000000000000000000000000000000000000000000040000000000000000000000000000000000000010000000000000000000000",
          "type": "0x2",
          "transactionHash": "0x5009fd53b7a8cf50f86d9c712d61910e401fff1209a67b432661d64e60913d35",
          "transactionIndex": "0x1a",
          "blockHash": "0xeac84e77eadd1d7644402bce61978c569f74c1e17fd173b584dc056224f556fe",
          "blockNumber": "0x2244413",
          "gasUsed": "0xe18e",
          "effectiveGasPrice": "0x4eea69",
          "from": "0x0ece75f3c36f7df2136dac7633165dbff53de3cd",
          "to": "0x1a44076050125825900e736c501f859c50fe728c",
          "contractAddress": null,
          "l1BaseFeeScalar": "0x8dd",
          "l1BlobBaseFee": "0xf",
          "l1BlobBaseFeeScalar": "0x101c12",
          "l1Fee": "0x50833fd0",
          "l1GasPrice": "0x14b2a7a2",
          "l1GasUsed": "0x6b2"
        },
        {
          "status": "0x1",
          "cumulativeGasUsed": "0x4e2886",
          "logs": [
            {
              "address": "0x1a44076050125825900e736c501f859c50fe728c",
              "topics": [
                "0x4cff966ebee29a156dcb34cf72c1d06231fb1777f6bdf6e8089819232f002b1c"
              ],
              "data": "0x000000000000000000000000530a9078023bed663482d26cedb2bdf8d1d881ea000000000000000000000000000000000000000000000000000000000000759f000000000000000000000000b5320b0b3a13cc860893e2bd79fcd7e13484dda2",
              "blockHash": "0xeac84e77eadd1d7644402bce61978c569f74c1e17fd173b584dc056224f556fe",
              "blockNumber": "0x2244413",
              "blockTimestamp": "0x68d2e509",
              "transactionHash": "0x3f903c2aa64f28c1c1cc999e5838168e6f6e57c85bc6e663052fbfbdd034763b",
              "transactionIndex": "0x1b",
              "logIndex": "0x63",
              "removed": false
            }
          ],
          "logsBloom": "0x00000000000000000000000000000000000200000000000000000000001000000000000000000000000000000000000000000000000000000000000001000000000000000000000000000000000000000000000000000000000000000000000000000000000000000000000000000000000000000010000000000000000000000000000000000000000000000000000000000000000000000000000000000000000000000000000000000000000000000000000000000000000000000000000000000000000000000000000000000000000000000000000000000000000000000040000000000000000000000000000000000000010000000000000000000000",
          "type": "0x2",
          "transactionHash": "0x3f903c2aa64f28c1c1cc999e5838168e6f6e57c85bc6e663052fbfbdd034763b",
          "transactionIndex": "0x1b",
          "blockHash": "0xeac84e77eadd1d7644402bce61978c569f74c1e17fd173b584dc056224f556fe",
          "blockNumber": "0x2244413",
          "gasUsed": "0xe18e",
          "effectiveGasPrice": "0x4eea69",
          "from": "0x0ece75f3c36f7df2136dac7633165dbff53de3cd",
          "to": "0x1a44076050125825900e736c501f859c50fe728c",
          "contractAddress": null,
          "l1BaseFeeScalar": "0x8dd",
          "l1BlobBaseFee": "0xf",
          "l1BlobBaseFeeScalar": "0x101c12",
          "l1Fee": "0x50833fd0",
          "l1GasPrice": "0x14b2a7a2",
          "l1GasUsed": "0x6b2"
        },
        {
          "status": "0x1",
          "cumulativeGasUsed": "0x4f0a14",
          "logs": [
            {
              "address": "0x1a44076050125825900e736c501f859c50fe728c",
              "topics": [
                "0x4cff966ebee29a156dcb34cf72c1d06231fb1777f6bdf6e8089819232f002b1c"
              ],
              "data": "0x0000000000000000000000002c4fdc631ce418196ab9835aab82227a62c14c75000000000000000000000000000000000000000000000000000000000000759f000000000000000000000000b5320b0b3a13cc860893e2bd79fcd7e13484dda2",
              "blockHash": "0xeac84e77eadd1d7644402bce61978c569f74c1e17fd173b584dc056224f556fe",
              "blockNumber": "0x2244413",
              "blockTimestamp": "0x68d2e509",
              "transactionHash": "0x2f39132dff53f9963ce64573842ca99adbddece6e32f09af644e2677e8dbc2d9",
              "transactionIndex": "0x1c",
              "logIndex": "0x64",
              "removed": false
            }
          ],
          "logsBloom": "0x00000000000000000000000000000000000200000000000000000000001000000000000000000000000000000000000000000000000000000000000001000000000000000000000000000000000000000000000000000000000000000000000000000000000000000000000000000000000000000010000000000000000000000000000000000000000000000000000000000000000000000000000000000000000000000000000000000000000000000000000000000000000000000000000000000000000000000000000000000000000000000000000000000000000000000040000000000000000000000000000000000000010000000000000000000000",
          "type": "0x2",
          "transactionHash": "0x2f39132dff53f9963ce64573842ca99adbddece6e32f09af644e2677e8dbc2d9",
          "transactionIndex": "0x1c",
          "blockHash": "0xeac84e77eadd1d7644402bce61978c569f74c1e17fd173b584dc056224f556fe",
          "blockNumber": "0x2244413",
          "gasUsed": "0xe18e",
          "effectiveGasPrice": "0x4eea69",
          "from": "0x0ece75f3c36f7df2136dac7633165dbff53de3cd",
          "to": "0x1a44076050125825900e736c501f859c50fe728c",
          "contractAddress": null,
          "l1BaseFeeScalar": "0x8dd",
          "l1BlobBaseFee": "0xf",
          "l1BlobBaseFeeScalar": "0x101c12",
          "l1Fee": "0x50833fd0",
          "l1GasPrice": "0x14b2a7a2",
          "l1GasUsed": "0x6b2"
        },
        {
          "status": "0x1",
          "cumulativeGasUsed": "0x5005b5",
          "logs": [
            {
              "address": "0x1a44076050125825900e736c501f859c50fe728c",
              "topics": [
                "0xcd6f92f5ac6185a5acfa02c92090746cec64d777269cbcd0ed031e396657a1c2"
              ],
              "data": "0x0000000000000000000000005a0971e3d6e0793b9fce640e821435fd8f9fd90600000000000000000000000000000000000000000000000000000000000075e8000000000000000000000000c70ab6f32772f59fbfc23889caf4ba3376c84baf",
              "blockHash": "0xeac84e77eadd1d7644402bce61978c569f74c1e17fd173b584dc056224f556fe",
              "blockNumber": "0x2244413",
              "blockTimestamp": "0x68d2e509",
              "transactionHash": "0x8881ed280e0b5426373255334a85fbf379d354ed3e899c1f43ec784abdac37f5",
              "transactionIndex": "0x1d",
              "logIndex": "0x65",
              "removed": false
            },
            {
              "address": "0x1a44076050125825900e736c501f859c50fe728c",
              "topics": [
                "0x4e0a5bbfa0c11a64effb1ada324b5437a17272e1aed9320398715ef71bb20928"
              ],
              "data": "0x0000000000000000000000005a0971e3d6e0793b9fce640e821435fd8f9fd90600000000000000000000000000000000000000000000000000000000000075e800000000000000000000000000000000000000000000000000000000000000000000000000000000000000000000000000000000000000000000000000000000",
              "blockHash": "0xeac84e77eadd1d7644402bce61978c569f74c1e17fd173b584dc056224f556fe",
              "blockNumber": "0x2244413",
              "blockTimestamp": "0x68d2e509",
              "transactionHash": "0x8881ed280e0b5426373255334a85fbf379d354ed3e899c1f43ec784abdac37f5",
              "transactionIndex": "0x1d",
              "logIndex": "0x66",
              "removed": false
            }
          ],
          "logsBloom": "0x00000000000000000000020800000000000000000000000000000000001000020400000000000000000000000000000000000000000000000000000000000000000000000000000000000000000000000000000000800000000000000000000000000000000000000000000000000000000000000010000000000000000000100000000000000000000000000000000000000000000000000000000000000000000000000000000000000000000000000000000000000000000000000000000000000000000000000000000000000000000000000000000000000000000000000000000000000000000000000000000000000000010000000000000000000000",
          "type": "0x2",
          "transactionHash": "0x8881ed280e0b5426373255334a85fbf379d354ed3e899c1f43ec784abdac37f5",
          "transactionIndex": "0x1d",
          "blockHash": "0xeac84e77eadd1d7644402bce61978c569f74c1e17fd173b584dc056224f556fe",
          "blockNumber": "0x2244413",
          "gasUsed": "0xfba1",
          "effectiveGasPrice": "0x4eea69",
          "from": "0x0ece75f3c36f7df2136dac7633165dbff53de3cd",
          "to": "0x1a44076050125825900e736c501f859c50fe728c",
          "contractAddress": null,
          "l1BaseFeeScalar": "0x8dd",
          "l1BlobBaseFee": "0xf",
          "l1BlobBaseFeeScalar": "0x101c12",
          "l1Fee": "0x54e9a0e6",
          "l1GasPrice": "0x14b2a7a2",
          "l1GasUsed": "0x710"
        },
        {
          "status": "0x1",
          "cumulativeGasUsed": "0x510156",
          "logs": [
            {
              "address": "0x1a44076050125825900e736c501f859c50fe728c",
              "topics": [
                "0xcd6f92f5ac6185a5acfa02c92090746cec64d777269cbcd0ed031e396657a1c2"
              ],
              "data": "0x0000000000000000000000002e18dc8038252fe4855ac66f4ab73abe3a18b91c00000000000000000000000000000000000000000000000000000000000075e8000000000000000000000000c70ab6f32772f59fbfc23889caf4ba3376c84baf",
              "blockHash": "0xeac84e77eadd1d7644402bce61978c569f74c1e17fd173b584dc056224f556fe",
              "blockNumber": "0x2244413",
              "blockTimestamp": "0x68d2e509",
              "transactionHash": "0x8b36c69ff93515997d37e2d363dcc432dadba1704d03097ce75904af27ee032f",
              "transactionIndex": "0x1e",
              "logIndex": "0x67",
              "removed": false
            },
            {
              "address": "0x1a44076050125825900e736c501f859c50fe728c",
              "topics": [
                "0x4e0a5bbfa0c11a64effb1ada324b5437a17272e1aed9320398715ef71bb20928"
              ],
              "data": "0x0000000000000000000000002e18dc8038252fe4855ac66f4ab73abe3a18b91c00000000000000000000000000000000000000000000000000000000000075e800000000000000000000000000000000000000000000000000000000000000000000000000000000000000000000000000000000000000000000000000000000",
              "blockHash": "0xeac84e77eadd1d7644402bce61978c569f74c1e17fd173b584dc056224f556fe",
              "blockNumber": "0x2244413",
              "blockTimestamp": "0x68d2e509",
              "transactionHash": "0x8b36c69ff93515997d37e2d363dcc432dadba1704d03097ce75904af27ee032f",
              "transactionIndex": "0x1e",
              "logIndex": "0x68",
              "removed": false
            }
          ],
          "logsBloom": "0x00000000000000000000020800000000000000000000000000000000001000020400000000000000000000000000000000000000000000000000000000000000000000000000000000000000000000000000000000800000000000000000000000000000000000000000000000000000000000000010000000000000000000100000000000000000000000000000000000000000000000000000000000000000000000000000000000000000000000000000000000000000000000000000000000000000000000000000000000000000000000000000000000000000000000000000000000000000000000000000000000000000010000000000000000000000",
          "type": "0x2",
          "transactionHash": "0x8b36c69ff93515997d37e2d363dcc432dadba1704d03097ce75904af27ee032f",
          "transactionIndex": "0x1e",
          "blockHash": "0xeac84e77eadd1d7644402bce61978c569f74c1e17fd173b584dc056224f556fe",
          "blockNumber": "0x2244413",
          "gasUsed": "0xfba1",
          "effectiveGasPrice": "0x4eea69",
          "from": "0x0ece75f3c36f7df2136dac7633165dbff53de3cd",
          "to": "0x1a44076050125825900e736c501f859c50fe728c",
          "contractAddress": null,
          "l1BaseFeeScalar": "0x8dd",
          "l1BlobBaseFee": "0xf",
          "l1BlobBaseFeeScalar": "0x101c12",
          "l1Fee": "0x54e9a0e6",
          "l1GasPrice": "0x14b2a7a2",
          "l1GasUsed": "0x710"
        },
        {
          "status": "0x1",
          "cumulativeGasUsed": "0x51fcf7",
          "logs": [
            {
              "address": "0x1a44076050125825900e736c501f859c50fe728c",
              "topics": [
                "0xcd6f92f5ac6185a5acfa02c92090746cec64d777269cbcd0ed031e396657a1c2"
              ],
              "data": "0x000000000000000000000000530a9078023bed663482d26cedb2bdf8d1d881ea00000000000000000000000000000000000000000000000000000000000075e8000000000000000000000000c70ab6f32772f59fbfc23889caf4ba3376c84baf",
              "blockHash": "0xeac84e77eadd1d7644402bce61978c569f74c1e17fd173b584dc056224f556fe",
              "blockNumber": "0x2244413",
              "blockTimestamp": "0x68d2e509",
              "transactionHash": "0xdbb1d92857ebb162e14e2f08435de731c8bdc2a27e88fe9dd7a90403c927f7e1",
              "transactionIndex": "0x1f",
              "logIndex": "0x69",
              "removed": false
            },
            {
              "address": "0x1a44076050125825900e736c501f859c50fe728c",
              "topics": [
                "0x4e0a5bbfa0c11a64effb1ada324b5437a17272e1aed9320398715ef71bb20928"
              ],
              "data": "0x000000000000000000000000530a9078023bed663482d26cedb2bdf8d1d881ea00000000000000000000000000000000000000000000000000000000000075e800000000000000000000000000000000000000000000000000000000000000000000000000000000000000000000000000000000000000000000000000000000",
              "blockHash": "0xeac84e77eadd1d7644402bce61978c569f74c1e17fd173b584dc056224f556fe",
              "blockNumber": "0x2244413",
              "blockTimestamp": "0x68d2e509",
              "transactionHash": "0xdbb1d92857ebb162e14e2f08435de731c8bdc2a27e88fe9dd7a90403c927f7e1",
              "transactionIndex": "0x1f",
              "logIndex": "0x6a",
              "removed": false
            }
          ],
          "logsBloom": "0x00000000000000000000020800000000000000000000000000000000001000020400000000000000000000000000000000000000000000000000000000000000000000000000000000000000000000000000000000800000000000000000000000000000000000000000000000000000000000000010000000000000000000100000000000000000000000000000000000000000000000000000000000000000000000000000000000000000000000000000000000000000000000000000000000000000000000000000000000000000000000000000000000000000000000000000000000000000000000000000000000000000010000000000000000000000",
          "type": "0x2",
          "transactionHash": "0xdbb1d92857ebb162e14e2f08435de731c8bdc2a27e88fe9dd7a90403c927f7e1",
          "transactionIndex": "0x1f",
          "blockHash": "0xeac84e77eadd1d7644402bce61978c569f74c1e17fd173b584dc056224f556fe",
          "blockNumber": "0x2244413",
          "gasUsed": "0xfba1",
          "effectiveGasPrice": "0x4eea69",
          "from": "0x0ece75f3c36f7df2136dac7633165dbff53de3cd",
          "to": "0x1a44076050125825900e736c501f859c50fe728c",
          "contractAddress": null,
          "l1BaseFeeScalar": "0x8dd",
          "l1BlobBaseFee": "0xf",
          "l1BlobBaseFeeScalar": "0x101c12",
          "l1Fee": "0x54e9a0e6",
          "l1GasPrice": "0x14b2a7a2",
          "l1GasUsed": "0x710"
        },
        {
          "status": "0x1",
          "cumulativeGasUsed": "0x5c61d9",
          "logs": [
            {
              "address": "0x1a44076050125825900e736c501f859c50fe728c",
              "topics": [
                "0xcd6f92f5ac6185a5acfa02c92090746cec64d777269cbcd0ed031e396657a1c2"
              ],
              "data": "0x0000000000000000000000002c4fdc631ce418196ab9835aab82227a62c14c7500000000000000000000000000000000000000000000000000000000000075e8000000000000000000000000c70ab6f32772f59fbfc23889caf4ba3376c84baf",
              "blockHash": "0xeac84e77eadd1d7644402bce61978c569f74c1e17fd173b584dc056224f556fe",
              "blockNumber": "0x2244413",
              "blockTimestamp": "0x68d2e509",
              "transactionHash": "0xf240cedc243f1c7dec0fc5e32ed79d62467e620409fc0a729b46a8a810d58bc4",
              "transactionIndex": "0x2b",
              "logIndex": "0x73",
              "removed": false
            },
            {
              "address": "0x1a44076050125825900e736c501f859c50fe728c",
              "topics": [
                "0x4e0a5bbfa0c11a64effb1ada324b5437a17272e1aed9320398715ef71bb20928"
              ],
              "data": "0x0000000000000000000000002c4fdc631ce418196ab9835aab82227a62c14c7500000000000000000000000000000000000000000000000000000000000075e800000000000000000000000000000000000000000000000000000000000000000000000000000000000000000000000000000000000000000000000000000000",
              "blockHash": "0xeac84e77eadd1d7644402bce61978c569f74c1e17fd173b584dc056224f556fe",
              "blockNumber": "0x2244413",
              "blockTimestamp": "0x68d2e509",
              "transactionHash": "0xf240cedc243f1c7dec0fc5e32ed79d62467e620409fc0a729b46a8a810d58bc4",
              "transactionIndex": "0x2b",
              "logIndex": "0x74",
              "removed": false
            }
          ],
          "logsBloom": "0x00000000000000000000020800000000000000000000000000000000001000020400000000000000000000000000000000000000000000000000000000000000000000000000000000000000000000000000000000800000000000000000000000000000000000000000000000000000000000000010000000000000000000100000000000000000000000000000000000000000000000000000000000000000000000000000000000000000000000000000000000000000000000000000000000000000000000000000000000000000000000000000000000000000000000000000000000000000000000000000000000000000010000000000000000000000",
          "type": "0x2",
          "transactionHash": "0xf240cedc243f1c7dec0fc5e32ed79d62467e620409fc0a729b46a8a810d58bc4",
          "transactionIndex": "0x2b",
          "blockHash": "0xeac84e77eadd1d7644402bce61978c569f74c1e17fd173b584dc056224f556fe",
          "blockNumber": "0x2244413",
          "gasUsed": "0xfba1",
          "effectiveGasPrice": "0x4eea69",
          "from": "0x0ece75f3c36f7df2136dac7633165dbff53de3cd",
          "to": "0x1a44076050125825900e736c501f859c50fe728c",
          "contractAddress": null,
          "l1BaseFeeScalar": "0x8dd",
          "l1BlobBaseFee": "0xf",
          "l1BlobBaseFeeScalar": "0x101c12",
          "l1Fee": "0x54e9a0e6",
          "l1GasPrice": "0x14b2a7a2",
          "l1GasUsed": "0x710"
        }
      ],
      "libraries": [],
      "pending": [],
      "returns": {},
      "timestamp": 1758651653424,
      "chain": 8453,
      "commit": "53213c9"
    },
    {
      "transactions": [
        {
          "hash": "0xe690d19561c7f9149e150dbc46cebec996e243ebee5e6cc4ffdd25f57613f5cb",
          "transactionType": "CALL",
          "contractName": null,
          "contractAddress": "0x1a44076050125825900e736c501f859c50fe728c",
          "function": "setSendLibrary(address,uint32,address)",
          "arguments": [
            "0x10FD0d8280E94D0DbC3013b778Ef26d47105Ea7b",
            "30111",
            "0x1322871e4ab09Bc7f5717189434f97bBD9546e95"
          ],
          "transaction": {
            "from": "0x0ece75f3c36f7df2136dac7633165dbff53de3cd",
            "to": "0x1a44076050125825900e736c501f859c50fe728c",
            "gas": "0x1378b",
            "value": "0x0",
            "input": "0x9535ff3000000000000000000000000010fd0d8280e94d0dbc3013b778ef26d47105ea7b000000000000000000000000000000000000000000000000000000000000759f0000000000000000000000001322871e4ab09bc7f5717189434f97bbd9546e95",
            "nonce": "0x22",
            "chainId": "0xa"
          },
          "additionalContracts": [],
          "isFixedGasLimit": false
        },
        {
          "hash": "0x68f7022c49e0b642b01f6278e600ccae3d786fcf3d34c524b49766aa3cd21579",
          "transactionType": "CALL",
          "contractName": null,
          "contractAddress": "0x1a44076050125825900e736c501f859c50fe728c",
          "function": "setSendLibrary(address,uint32,address)",
          "arguments": [
            "0x9F3d0BeaFAD726bcFD3799F2B7B42eAB889ac333",
            "30111",
            "0x1322871e4ab09Bc7f5717189434f97bBD9546e95"
          ],
          "transaction": {
            "from": "0x0ece75f3c36f7df2136dac7633165dbff53de3cd",
            "to": "0x1a44076050125825900e736c501f859c50fe728c",
            "gas": "0x1378b",
            "value": "0x0",
            "input": "0x9535ff300000000000000000000000009f3d0beafad726bcfd3799f2b7b42eab889ac333000000000000000000000000000000000000000000000000000000000000759f0000000000000000000000001322871e4ab09bc7f5717189434f97bbd9546e95",
            "nonce": "0x23",
            "chainId": "0xa"
          },
          "additionalContracts": [],
          "isFixedGasLimit": false
        },
        {
          "hash": "0x86fddab6643aeb9f55359f8f239208ef9cb24d967fa1c5fece37edc5314d422f",
          "transactionType": "CALL",
          "contractName": null,
          "contractAddress": "0x1a44076050125825900e736c501f859c50fe728c",
          "function": "setSendLibrary(address,uint32,address)",
          "arguments": [
            "0x27EEDa6B30dfce416D5de397C78f1e3C87e557bb",
            "30111",
            "0x1322871e4ab09Bc7f5717189434f97bBD9546e95"
          ],
          "transaction": {
            "from": "0x0ece75f3c36f7df2136dac7633165dbff53de3cd",
            "to": "0x1a44076050125825900e736c501f859c50fe728c",
            "gas": "0x1378b",
            "value": "0x0",
            "input": "0x9535ff3000000000000000000000000027eeda6b30dfce416d5de397c78f1e3c87e557bb000000000000000000000000000000000000000000000000000000000000759f0000000000000000000000001322871e4ab09bc7f5717189434f97bbd9546e95",
            "nonce": "0x24",
            "chainId": "0xa"
          },
          "additionalContracts": [],
          "isFixedGasLimit": false
        },
        {
          "hash": "0xd1a6f0dcde59b749ef8fb18937ac2b47d92c6aa0d04a2768a78176700efa14f7",
          "transactionType": "CALL",
          "contractName": null,
          "contractAddress": "0x1a44076050125825900e736c501f859c50fe728c",
          "function": "setSendLibrary(address,uint32,address)",
          "arguments": [
            "0x5cF7Bb8568491Bb50a1941994Fd3Da4AdF34FE28",
            "30111",
            "0x1322871e4ab09Bc7f5717189434f97bBD9546e95"
          ],
          "transaction": {
            "from": "0x0ece75f3c36f7df2136dac7633165dbff53de3cd",
            "to": "0x1a44076050125825900e736c501f859c50fe728c",
            "gas": "0x1378b",
            "value": "0x0",
            "input": "0x9535ff300000000000000000000000005cf7bb8568491bb50a1941994fd3da4adf34fe28000000000000000000000000000000000000000000000000000000000000759f0000000000000000000000001322871e4ab09bc7f5717189434f97bbd9546e95",
            "nonce": "0x25",
            "chainId": "0xa"
          },
          "additionalContracts": [],
          "isFixedGasLimit": false
        },
        {
          "hash": "0x9e9afe2c22c25033ec2c6fd827f14245aa244257f4d5940a4058eed0c347d73d",
          "transactionType": "CALL",
          "contractName": null,
          "contractAddress": "0x1a44076050125825900e736c501f859c50fe728c",
          "function": "setReceiveLibrary(address,uint32,address,uint256)",
          "arguments": [
            "0x10FD0d8280E94D0DbC3013b778Ef26d47105Ea7b",
            "30111",
            "0x3c4962Ff6258dcfCafD23a814237B7d6Eb712063",
            "0"
          ],
          "transaction": {
            "from": "0x0ece75f3c36f7df2136dac7633165dbff53de3cd",
            "to": "0x1a44076050125825900e736c501f859c50fe728c",
            "gas": "0x17001",
            "value": "0x0",
            "input": "0x6a14d71500000000000000000000000010fd0d8280e94d0dbc3013b778ef26d47105ea7b000000000000000000000000000000000000000000000000000000000000759f0000000000000000000000003c4962ff6258dcfcafd23a814237b7d6eb7120630000000000000000000000000000000000000000000000000000000000000000",
            "nonce": "0x26",
            "chainId": "0xa"
          },
          "additionalContracts": [],
          "isFixedGasLimit": false
        },
        {
          "hash": "0x22c8cbc688d3236635da34ef5fefb76f7753f05a8c3e24a06eefe837df39c372",
          "transactionType": "CALL",
          "contractName": null,
          "contractAddress": "0x1a44076050125825900e736c501f859c50fe728c",
          "function": "setReceiveLibrary(address,uint32,address,uint256)",
          "arguments": [
            "0x9F3d0BeaFAD726bcFD3799F2B7B42eAB889ac333",
            "30111",
            "0x3c4962Ff6258dcfCafD23a814237B7d6Eb712063",
            "0"
          ],
          "transaction": {
            "from": "0x0ece75f3c36f7df2136dac7633165dbff53de3cd",
            "to": "0x1a44076050125825900e736c501f859c50fe728c",
            "gas": "0x17001",
            "value": "0x0",
            "input": "0x6a14d7150000000000000000000000009f3d0beafad726bcfd3799f2b7b42eab889ac333000000000000000000000000000000000000000000000000000000000000759f0000000000000000000000003c4962ff6258dcfcafd23a814237b7d6eb7120630000000000000000000000000000000000000000000000000000000000000000",
            "nonce": "0x27",
            "chainId": "0xa"
          },
          "additionalContracts": [],
          "isFixedGasLimit": false
        },
        {
          "hash": "0xe5658fea6851a175ecca0c717617590399cf278e8ddd0099c564f54d65edef59",
          "transactionType": "CALL",
          "contractName": null,
          "contractAddress": "0x1a44076050125825900e736c501f859c50fe728c",
          "function": "setReceiveLibrary(address,uint32,address,uint256)",
          "arguments": [
            "0x27EEDa6B30dfce416D5de397C78f1e3C87e557bb",
            "30111",
            "0x3c4962Ff6258dcfCafD23a814237B7d6Eb712063",
            "0"
          ],
          "transaction": {
            "from": "0x0ece75f3c36f7df2136dac7633165dbff53de3cd",
            "to": "0x1a44076050125825900e736c501f859c50fe728c",
            "gas": "0x17001",
            "value": "0x0",
            "input": "0x6a14d71500000000000000000000000027eeda6b30dfce416d5de397c78f1e3c87e557bb000000000000000000000000000000000000000000000000000000000000759f0000000000000000000000003c4962ff6258dcfcafd23a814237b7d6eb7120630000000000000000000000000000000000000000000000000000000000000000",
            "nonce": "0x28",
            "chainId": "0xa"
          },
          "additionalContracts": [],
          "isFixedGasLimit": false
        },
        {
          "hash": "0xeb6b02c88980d485c973b56920bf58d5658c9c7f2156b21e5d11940624bcd442",
          "transactionType": "CALL",
          "contractName": null,
          "contractAddress": "0x1a44076050125825900e736c501f859c50fe728c",
          "function": "setReceiveLibrary(address,uint32,address,uint256)",
          "arguments": [
            "0x5cF7Bb8568491Bb50a1941994Fd3Da4AdF34FE28",
            "30111",
            "0x3c4962Ff6258dcfCafD23a814237B7d6Eb712063",
            "0"
          ],
          "transaction": {
            "from": "0x0ece75f3c36f7df2136dac7633165dbff53de3cd",
            "to": "0x1a44076050125825900e736c501f859c50fe728c",
            "gas": "0x17001",
            "value": "0x0",
            "input": "0x6a14d7150000000000000000000000005cf7bb8568491bb50a1941994fd3da4adf34fe28000000000000000000000000000000000000000000000000000000000000759f0000000000000000000000003c4962ff6258dcfcafd23a814237b7d6eb7120630000000000000000000000000000000000000000000000000000000000000000",
            "nonce": "0x29",
            "chainId": "0xa"
          },
          "additionalContracts": [],
          "isFixedGasLimit": false
        }
      ],
      "receipts": [
        {
          "status": "0x1",
          "cumulativeGasUsed": "0x9d5fcd",
          "logs": [
            {
              "address": "0x1a44076050125825900e736c501f859c50fe728c",
              "topics": [
                "0x4cff966ebee29a156dcb34cf72c1d06231fb1777f6bdf6e8089819232f002b1c"
              ],
              "data": "0x00000000000000000000000010fd0d8280e94d0dbc3013b778ef26d47105ea7b000000000000000000000000000000000000000000000000000000000000759f0000000000000000000000001322871e4ab09bc7f5717189434f97bbd9546e95",
              "blockHash": "0x17aa79e5a590ebd2e34125a75d4fde7c7ccc99680046d97157d492fc095dc240",
              "blockNumber": "0x86f85a8",
              "blockTimestamp": "0x68d2e509",
              "transactionHash": "0xe690d19561c7f9149e150dbc46cebec996e243ebee5e6cc4ffdd25f57613f5cb",
              "transactionIndex": "0x1a",
              "logIndex": "0x34",
              "removed": false
            }
          ],
          "logsBloom": "0x00000000000000000000000000000000000200000000000000000000001000000000000000000000000000000000000000000000000000000000000001000000000000000000000000000000000000000000000000000000000000000000000000000000000000000000000000000000000000000010000000000000000000000000000000000000000000000000000000000000000000000000000000000000000000000000000000000000000000000000000000000000000000000000000000000000000000000000000000000000000000000000000000000000000000000040000000000000000000000000000000000000010000000000000000000000",
          "type": "0x2",
          "transactionHash": "0xe690d19561c7f9149e150dbc46cebec996e243ebee5e6cc4ffdd25f57613f5cb",
          "transactionIndex": "0x1a",
          "blockHash": "0x17aa79e5a590ebd2e34125a75d4fde7c7ccc99680046d97157d492fc095dc240",
          "blockNumber": "0x86f85a8",
          "gasUsed": "0xe18e",
          "effectiveGasPrice": "0x6e0",
          "from": "0x0ece75f3c36f7df2136dac7633165dbff53de3cd",
          "to": "0x1a44076050125825900e736c501f859c50fe728c",
          "contractAddress": null,
          "l1BaseFeeScalar": "0x146b",
          "l1BlobBaseFee": "0x16",
          "l1BlobBaseFeeScalar": "0xf79c5",
          "l1Fee": "0xb7047d86",
          "l1GasPrice": "0x156d6fd6",
          "l1GasUsed": "0x662"
        },
        {
          "status": "0x1",
          "cumulativeGasUsed": "0x6fe88b",
          "logs": [
            {
              "address": "0x1a44076050125825900e736c501f859c50fe728c",
              "topics": [
                "0x4cff966ebee29a156dcb34cf72c1d06231fb1777f6bdf6e8089819232f002b1c"
              ],
              "data": "0x0000000000000000000000009f3d0beafad726bcfd3799f2b7b42eab889ac333000000000000000000000000000000000000000000000000000000000000759f0000000000000000000000001322871e4ab09bc7f5717189434f97bbd9546e95",
              "blockHash": "0x210bfdd4ee90683d577e13da8dc85342ee5c19fedd15de3e3180581efa37f649",
              "blockNumber": "0x86f85a9",
              "blockTimestamp": "0x68d2e50b",
              "transactionHash": "0x68f7022c49e0b642b01f6278e600ccae3d786fcf3d34c524b49766aa3cd21579",
              "transactionIndex": "0x1f",
              "logIndex": "0x55",
              "removed": false
            }
          ],
          "logsBloom": "0x00000000000000000000000000000000000200000000000000000000001000000000000000000000000000000000000000000000000000000000000001000000000000000000000000000000000000000000000000000000000000000000000000000000000000000000000000000000000000000010000000000000000000000000000000000000000000000000000000000000000000000000000000000000000000000000000000000000000000000000000000000000000000000000000000000000000000000000000000000000000000000000000000000000000000000040000000000000000000000000000000000000010000000000000000000000",
          "type": "0x2",
          "transactionHash": "0x68f7022c49e0b642b01f6278e600ccae3d786fcf3d34c524b49766aa3cd21579",
          "transactionIndex": "0x1f",
          "blockHash": "0x210bfdd4ee90683d577e13da8dc85342ee5c19fedd15de3e3180581efa37f649",
          "blockNumber": "0x86f85a9",
          "gasUsed": "0xe18e",
          "effectiveGasPrice": "0x6e0",
          "from": "0x0ece75f3c36f7df2136dac7633165dbff53de3cd",
          "to": "0x1a44076050125825900e736c501f859c50fe728c",
          "contractAddress": null,
          "l1BaseFeeScalar": "0x146b",
          "l1BlobBaseFee": "0x16",
          "l1BlobBaseFeeScalar": "0xf79c5",
          "l1Fee": "0xb7047d86",
          "l1GasPrice": "0x156d6fd6",
          "l1GasUsed": "0x662"
        },
        {
          "status": "0x1",
          "cumulativeGasUsed": "0x70ca19",
          "logs": [
            {
              "address": "0x1a44076050125825900e736c501f859c50fe728c",
              "topics": [
                "0x4cff966ebee29a156dcb34cf72c1d06231fb1777f6bdf6e8089819232f002b1c"
              ],
              "data": "0x00000000000000000000000027eeda6b30dfce416d5de397c78f1e3c87e557bb000000000000000000000000000000000000000000000000000000000000759f0000000000000000000000001322871e4ab09bc7f5717189434f97bbd9546e95",
              "blockHash": "0x210bfdd4ee90683d577e13da8dc85342ee5c19fedd15de3e3180581efa37f649",
              "blockNumber": "0x86f85a9",
              "transactionHash": "0x86fddab6643aeb9f55359f8f239208ef9cb24d967fa1c5fece37edc5314d422f",
              "transactionIndex": "0x20",
              "logIndex": "0x56",
              "removed": false
            }
          ],
          "logsBloom": "0x00000000000000000000000000000000000200000000000000000000001000000000000000000000000000000000000000000000000000000000000001000000000000000000000000000000000000000000000000000000000000000000000000000000000000000000000000000000000000000010000000000000000000000000000000000000000000000000000000000000000000000000000000000000000000000000000000000000000000000000000000000000000000000000000000000000000000000000000000000000000000000000000000000000000000000040000000000000000000000000000000000000010000000000000000000000",
          "type": "0x2",
          "transactionHash": "0x86fddab6643aeb9f55359f8f239208ef9cb24d967fa1c5fece37edc5314d422f",
          "transactionIndex": "0x20",
          "blockHash": "0x210bfdd4ee90683d577e13da8dc85342ee5c19fedd15de3e3180581efa37f649",
          "blockNumber": "0x86f85a9",
          "gasUsed": "0xe18e",
          "effectiveGasPrice": "0x6e0",
          "from": "0x0ece75f3c36f7df2136dac7633165dbff53de3cd",
          "to": "0x1a44076050125825900e736c501f859c50fe728c",
          "contractAddress": null,
          "l1BaseFeeScalar": "0x146b",
          "l1BlobBaseFee": "0x16",
          "l1BlobBaseFeeScalar": "0xf79c5",
          "l1Fee": "0xb7047d86",
          "l1GasPrice": "0x156d6fd6",
          "l1GasUsed": "0x662"
        },
        {
          "status": "0x1",
          "cumulativeGasUsed": "0x71aba7",
          "logs": [
            {
              "address": "0x1a44076050125825900e736c501f859c50fe728c",
              "topics": [
                "0x4cff966ebee29a156dcb34cf72c1d06231fb1777f6bdf6e8089819232f002b1c"
              ],
              "data": "0x0000000000000000000000005cf7bb8568491bb50a1941994fd3da4adf34fe28000000000000000000000000000000000000000000000000000000000000759f0000000000000000000000001322871e4ab09bc7f5717189434f97bbd9546e95",
              "blockHash": "0x210bfdd4ee90683d577e13da8dc85342ee5c19fedd15de3e3180581efa37f649",
              "blockNumber": "0x86f85a9",
              "blockTimestamp": "0x68d2e50b",
              "transactionHash": "0xd1a6f0dcde59b749ef8fb18937ac2b47d92c6aa0d04a2768a78176700efa14f7",
              "transactionIndex": "0x21",
              "logIndex": "0x57",
              "removed": false
            }
          ],
          "logsBloom": "0x00000000000000000000000000000000000200000000000000000000001000000000000000000000000000000000000000000000000000000000000001000000000000000000000000000000000000000000000000000000000000000000000000000000000000000000000000000000000000000010000000000000000000000000000000000000000000000000000000000000000000000000000000000000000000000000000000000000000000000000000000000000000000000000000000000000000000000000000000000000000000000000000000000000000000000040000000000000000000000000000000000000010000000000000000000000",
          "type": "0x2",
          "transactionHash": "0xd1a6f0dcde59b749ef8fb18937ac2b47d92c6aa0d04a2768a78176700efa14f7",
          "transactionIndex": "0x21",
          "blockHash": "0x210bfdd4ee90683d577e13da8dc85342ee5c19fedd15de3e3180581efa37f649",
          "blockNumber": "0x86f85a9",
          "gasUsed": "0xe18e",
          "effectiveGasPrice": "0x6e0",
          "from": "0x0ece75f3c36f7df2136dac7633165dbff53de3cd",
          "to": "0x1a44076050125825900e736c501f859c50fe728c",
          "contractAddress": null,
          "l1BaseFeeScalar": "0x146b",
          "l1BlobBaseFee": "0x16",
          "l1BlobBaseFeeScalar": "0xf79c5",
          "l1Fee": "0xb7047d86",
          "l1GasPrice": "0x156d6fd6",
          "l1GasUsed": "0x662"
        },
        {
          "status": "0x1",
          "cumulativeGasUsed": "0x72a748",
          "logs": [
            {
              "address": "0x1a44076050125825900e736c501f859c50fe728c",
              "topics": [
                "0xcd6f92f5ac6185a5acfa02c92090746cec64d777269cbcd0ed031e396657a1c2"
              ],
              "data": "0x00000000000000000000000010fd0d8280e94d0dbc3013b778ef26d47105ea7b000000000000000000000000000000000000000000000000000000000000759f0000000000000000000000003c4962ff6258dcfcafd23a814237b7d6eb712063",
              "blockHash": "0x210bfdd4ee90683d577e13da8dc85342ee5c19fedd15de3e3180581efa37f649",
              "blockNumber": "0x86f85a9",
              "blockTimestamp": "0x68d2e50b",
              "transactionHash": "0x9e9afe2c22c25033ec2c6fd827f14245aa244257f4d5940a4058eed0c347d73d",
              "transactionIndex": "0x22",
              "logIndex": "0x58",
              "removed": false
            },
            {
              "address": "0x1a44076050125825900e736c501f859c50fe728c",
              "topics": [
                "0x4e0a5bbfa0c11a64effb1ada324b5437a17272e1aed9320398715ef71bb20928"
              ],
              "data": "0x00000000000000000000000010fd0d8280e94d0dbc3013b778ef26d47105ea7b000000000000000000000000000000000000000000000000000000000000759f00000000000000000000000000000000000000000000000000000000000000000000000000000000000000000000000000000000000000000000000000000000",
              "blockHash": "0x210bfdd4ee90683d577e13da8dc85342ee5c19fedd15de3e3180581efa37f649",
              "blockNumber": "0x86f85a9",
              "blockTimestamp": "0x68d2e50b",
              "transactionHash": "0x9e9afe2c22c25033ec2c6fd827f14245aa244257f4d5940a4058eed0c347d73d",
              "transactionIndex": "0x22",
              "logIndex": "0x59",
              "removed": false
            }
          ],
          "logsBloom": "0x00000000000000000000020800000000000000000000000000000000001000020400000000000000000000000000000000000000000000000000000000000000000000000000000000000000000000000000000000800000000000000000000000000000000000000000000000000000000000000010000000000000000000100000000000000000000000000000000000000000000000000000000000000000000000000000000000000000000000000000000000000000000000000000000000000000000000000000000000000000000000000000000000000000000000000000000000000000000000000000000000000000010000000000000000000000",
          "type": "0x2",
          "transactionHash": "0x9e9afe2c22c25033ec2c6fd827f14245aa244257f4d5940a4058eed0c347d73d",
          "transactionIndex": "0x22",
          "blockHash": "0x210bfdd4ee90683d577e13da8dc85342ee5c19fedd15de3e3180581efa37f649",
          "blockNumber": "0x86f85a9",
          "gasUsed": "0xfba1",
          "effectiveGasPrice": "0x6e0",
          "from": "0x0ece75f3c36f7df2136dac7633165dbff53de3cd",
          "to": "0x1a44076050125825900e736c501f859c50fe728c",
          "contractAddress": null,
          "l1BaseFeeScalar": "0x146b",
          "l1BlobBaseFee": "0x16",
          "l1BlobBaseFeeScalar": "0xf79c5",
          "l1Fee": "0xc182c008",
          "l1GasPrice": "0x156d6fd6",
          "l1GasUsed": "0x6bf"
        },
        {
          "status": "0x1",
          "cumulativeGasUsed": "0x73a2e9",
          "logs": [
            {
              "address": "0x1a44076050125825900e736c501f859c50fe728c",
              "topics": [
                "0xcd6f92f5ac6185a5acfa02c92090746cec64d777269cbcd0ed031e396657a1c2"
              ],
              "data": "0x0000000000000000000000009f3d0beafad726bcfd3799f2b7b42eab889ac333000000000000000000000000000000000000000000000000000000000000759f0000000000000000000000003c4962ff6258dcfcafd23a814237b7d6eb712063",
              "blockHash": "0x210bfdd4ee90683d577e13da8dc85342ee5c19fedd15de3e3180581efa37f649",
              "blockNumber": "0x86f85a9",
              "blockTimestamp": "0x68d2e50b",
              "transactionHash": "0x22c8cbc688d3236635da34ef5fefb76f7753f05a8c3e24a06eefe837df39c372",
              "transactionIndex": "0x23",
              "logIndex": "0x5a",
              "removed": false
            },
            {
              "address": "0x1a44076050125825900e736c501f859c50fe728c",
              "topics": [
                "0x4e0a5bbfa0c11a64effb1ada324b5437a17272e1aed9320398715ef71bb20928"
              ],
              "data": "0x0000000000000000000000009f3d0beafad726bcfd3799f2b7b42eab889ac333000000000000000000000000000000000000000000000000000000000000759f00000000000000000000000000000000000000000000000000000000000000000000000000000000000000000000000000000000000000000000000000000000",
              "blockHash": "0x210bfdd4ee90683d577e13da8dc85342ee5c19fedd15de3e3180581efa37f649",
              "blockNumber": "0x86f85a9",
              "blockTimestamp": "0x68d2e50b",
              "transactionHash": "0x22c8cbc688d3236635da34ef5fefb76f7753f05a8c3e24a06eefe837df39c372",
              "transactionIndex": "0x23",
              "logIndex": "0x5b",
              "removed": false
            }
          ],
          "logsBloom": "0x00000000000000000000020800000000000000000000000000000000001000020400000000000000000000000000000000000000000000000000000000000000000000000000000000000000000000000000000000800000000000000000000000000000000000000000000000000000000000000010000000000000000000100000000000000000000000000000000000000000000000000000000000000000000000000000000000000000000000000000000000000000000000000000000000000000000000000000000000000000000000000000000000000000000000000000000000000000000000000000000000000000010000000000000000000000",
          "type": "0x2",
          "transactionHash": "0x22c8cbc688d3236635da34ef5fefb76f7753f05a8c3e24a06eefe837df39c372",
          "transactionIndex": "0x23",
          "blockHash": "0x210bfdd4ee90683d577e13da8dc85342ee5c19fedd15de3e3180581efa37f649",
          "blockNumber": "0x86f85a9",
          "gasUsed": "0xfba1",
          "effectiveGasPrice": "0x6e0",
          "from": "0x0ece75f3c36f7df2136dac7633165dbff53de3cd",
          "to": "0x1a44076050125825900e736c501f859c50fe728c",
          "contractAddress": null,
          "l1BaseFeeScalar": "0x146b",
          "l1BlobBaseFee": "0x16",
          "l1BlobBaseFeeScalar": "0xf79c5",
          "l1Fee": "0xc182c008",
          "l1GasPrice": "0x156d6fd6",
          "l1GasUsed": "0x6bf"
        },
        {
          "status": "0x1",
          "cumulativeGasUsed": "0x749e8a",
          "logs": [
            {
              "address": "0x1a44076050125825900e736c501f859c50fe728c",
              "topics": [
                "0xcd6f92f5ac6185a5acfa02c92090746cec64d777269cbcd0ed031e396657a1c2"
              ],
              "data": "0x00000000000000000000000027eeda6b30dfce416d5de397c78f1e3c87e557bb000000000000000000000000000000000000000000000000000000000000759f0000000000000000000000003c4962ff6258dcfcafd23a814237b7d6eb712063",
              "blockHash": "0x210bfdd4ee90683d577e13da8dc85342ee5c19fedd15de3e3180581efa37f649",
              "blockNumber": "0x86f85a9",
              "blockTimestamp": "0x68d2e50b",
              "transactionHash": "0xe5658fea6851a175ecca0c717617590399cf278e8ddd0099c564f54d65edef59",
              "transactionIndex": "0x24",
              "logIndex": "0x5c",
              "removed": false
            },
            {
              "address": "0x1a44076050125825900e736c501f859c50fe728c",
              "topics": [
                "0x4e0a5bbfa0c11a64effb1ada324b5437a17272e1aed9320398715ef71bb20928"
              ],
              "data": "0x00000000000000000000000027eeda6b30dfce416d5de397c78f1e3c87e557bb000000000000000000000000000000000000000000000000000000000000759f00000000000000000000000000000000000000000000000000000000000000000000000000000000000000000000000000000000000000000000000000000000",
              "blockHash": "0x210bfdd4ee90683d577e13da8dc85342ee5c19fedd15de3e3180581efa37f649",
              "blockNumber": "0x86f85a9",
              "blockTimestamp": "0x68d2e50b",
              "transactionHash": "0xe5658fea6851a175ecca0c717617590399cf278e8ddd0099c564f54d65edef59",
              "transactionIndex": "0x24",
              "logIndex": "0x5d",
              "removed": false
            }
          ],
          "logsBloom": "0x00000000000000000000020800000000000000000000000000000000001000020400000000000000000000000000000000000000000000000000000000000000000000000000000000000000000000000000000000800000000000000000000000000000000000000000000000000000000000000010000000000000000000100000000000000000000000000000000000000000000000000000000000000000000000000000000000000000000000000000000000000000000000000000000000000000000000000000000000000000000000000000000000000000000000000000000000000000000000000000000000000000010000000000000000000000",
          "type": "0x2",
          "transactionHash": "0xe5658fea6851a175ecca0c717617590399cf278e8ddd0099c564f54d65edef59",
          "transactionIndex": "0x24",
          "blockHash": "0x210bfdd4ee90683d577e13da8dc85342ee5c19fedd15de3e3180581efa37f649",
          "blockNumber": "0x86f85a9",
          "gasUsed": "0xfba1",
          "effectiveGasPrice": "0x6e0",
          "from": "0x0ece75f3c36f7df2136dac7633165dbff53de3cd",
          "to": "0x1a44076050125825900e736c501f859c50fe728c",
          "contractAddress": null,
          "l1BaseFeeScalar": "0x146b",
          "l1BlobBaseFee": "0x16",
          "l1BlobBaseFeeScalar": "0xf79c5",
          "l1Fee": "0xc182c008",
          "l1GasPrice": "0x156d6fd6",
          "l1GasUsed": "0x6bf"
        },
        {
          "status": "0x1",
          "cumulativeGasUsed": "0x759a2b",
          "logs": [
            {
              "address": "0x1a44076050125825900e736c501f859c50fe728c",
              "topics": [
                "0xcd6f92f5ac6185a5acfa02c92090746cec64d777269cbcd0ed031e396657a1c2"
              ],
              "data": "0x0000000000000000000000005cf7bb8568491bb50a1941994fd3da4adf34fe28000000000000000000000000000000000000000000000000000000000000759f0000000000000000000000003c4962ff6258dcfcafd23a814237b7d6eb712063",
              "blockHash": "0x210bfdd4ee90683d577e13da8dc85342ee5c19fedd15de3e3180581efa37f649",
              "blockNumber": "0x86f85a9",
              "blockTimestamp": "0x68d2e50b",
              "transactionHash": "0xeb6b02c88980d485c973b56920bf58d5658c9c7f2156b21e5d11940624bcd442",
              "transactionIndex": "0x25",
              "logIndex": "0x5e",
              "removed": false
            },
            {
              "address": "0x1a44076050125825900e736c501f859c50fe728c",
              "topics": [
                "0x4e0a5bbfa0c11a64effb1ada324b5437a17272e1aed9320398715ef71bb20928"
              ],
              "data": "0x0000000000000000000000005cf7bb8568491bb50a1941994fd3da4adf34fe28000000000000000000000000000000000000000000000000000000000000759f00000000000000000000000000000000000000000000000000000000000000000000000000000000000000000000000000000000000000000000000000000000",
              "blockHash": "0x210bfdd4ee90683d577e13da8dc85342ee5c19fedd15de3e3180581efa37f649",
              "blockNumber": "0x86f85a9",
              "blockTimestamp": "0x68d2e50b",
              "transactionHash": "0xeb6b02c88980d485c973b56920bf58d5658c9c7f2156b21e5d11940624bcd442",
              "transactionIndex": "0x25",
              "logIndex": "0x5f",
              "removed": false
            }
          ],
          "logsBloom": "0x00000000000000000000020800000000000000000000000000000000001000020400000000000000000000000000000000000000000000000000000000000000000000000000000000000000000000000000000000800000000000000000000000000000000000000000000000000000000000000010000000000000000000100000000000000000000000000000000000000000000000000000000000000000000000000000000000000000000000000000000000000000000000000000000000000000000000000000000000000000000000000000000000000000000000000000000000000000000000000000000000000000010000000000000000000000",
          "type": "0x2",
          "transactionHash": "0xeb6b02c88980d485c973b56920bf58d5658c9c7f2156b21e5d11940624bcd442",
          "transactionIndex": "0x25",
          "blockHash": "0x210bfdd4ee90683d577e13da8dc85342ee5c19fedd15de3e3180581efa37f649",
          "blockNumber": "0x86f85a9",
          "gasUsed": "0xfba1",
          "effectiveGasPrice": "0x6e0",
          "from": "0x0ece75f3c36f7df2136dac7633165dbff53de3cd",
          "to": "0x1a44076050125825900e736c501f859c50fe728c",
          "contractAddress": null,
          "l1BaseFeeScalar": "0x146b",
          "l1BlobBaseFee": "0x16",
          "l1BlobBaseFeeScalar": "0xf79c5",
          "l1Fee": "0xc182c008",
          "l1GasPrice": "0x156d6fd6",
          "l1GasUsed": "0x6bf"
        }
      ],
      "libraries": [],
      "pending": [],
      "returns": {},
      "timestamp": 1758651654093,
      "chain": 10,
      "commit": "53213c9"
    }
  ],
  "timestamp": 1758651659712
}