{
  "transactions": [
    {
      "hash": "0xd6ddd38d789276514dbcfebd5ba0c44f479d619fe5b581f1bef8a991c9123286",
      "transactionType": "CALL",
      "contractName": null,
      "contractAddress": "0x87e5824d9cff9e4d2cd368a87d0a8418a72874e5",
      "function": "setPeer(uint32,bytes32)",
      "arguments": [
        "30111",
        "0x00000000000000000000000087e5824d9cff9e4d2cd368a87d0a8418a72874e5"
      ],
      "transaction": {
        "from": "0x0ece75f3c36f7df2136dac7633165dbff53de3cd",
        "to": "0x87e5824d9cff9e4d2cd368a87d0a8418a72874e5",
        "gas": "0x1141b",
        "value": "0x0",
        "input": "0x3400288b000000000000000000000000000000000000000000000000000000000000759f00000000000000000000000087e5824d9cff9e4d2cd368a87d0a8418a72874e5",
        "nonce": "0x5c",
        "chainId": "0xa"
      },
      "additionalContracts": [],
      "isFixedGasLimit": false
    },
    {
      "hash": "0xdf8a3cda081d6e52fe8f7af8bca44287ca0a15c966a549cb262824539536bddf",
      "transactionType": "CALL",
      "contractName": null,
      "contractAddress": "0x95608557eb1fa88d07fb6af29fcb76b25a93bb2c",
      "function": "setPeer(uint32,bytes32)",
      "arguments": [
        "30111",
        "0x00000000000000000000000095608557eb1fa88d07fb6af29fcb76b25a93bb2c"
      ],
      "transaction": {
        "from": "0x0ece75f3c36f7df2136dac7633165dbff53de3cd",
        "to": "0x95608557eb1fa88d07fb6af29fcb76b25a93bb2c",
        "gas": "0x9965",
        "value": "0x0",
        "input": "0x3400288b000000000000000000000000000000000000000000000000000000000000759f00000000000000000000000095608557eb1fa88d07fb6af29fcb76b25a93bb2c",
        "nonce": "0x5d",
        "chainId": "0xa"
      },
      "additionalContracts": [],
      "isFixedGasLimit": false
    },
    {
      "hash": "0x8ab3e2cfda722eaa392aeb7c839f57fe74c030ddc2ec47202452d8c3d76c8345",
      "transactionType": "CALL",
      "contractName": null,
      "contractAddress": "0x252d67d23308646cf6dae32a826de24ba21e7c12",
      "function": "setPeer(uint32,bytes32)",
      "arguments": [
        "30111",
        "0x000000000000000000000000252d67d23308646cf6dae32a826de24ba21e7c12"
      ],
      "transaction": {
        "from": "0x0ece75f3c36f7df2136dac7633165dbff53de3cd",
        "to": "0x252d67d23308646cf6dae32a826de24ba21e7c12",
        "gas": "0x9965",
        "value": "0x0",
        "input": "0x3400288b000000000000000000000000000000000000000000000000000000000000759f000000000000000000000000252d67d23308646cf6dae32a826de24ba21e7c12",
        "nonce": "0x5e",
        "chainId": "0xa"
      },
      "additionalContracts": [],
      "isFixedGasLimit": false
    },
    {
      "hash": "0x6f7106b1ec3a0c487985a9e3989f2ebc71fb1201bc811f3e5a9cb3b15daa3450",
      "transactionType": "CALL",
      "contractName": null,
      "contractAddress": "0x87e5824d9cff9e4d2cd368a87d0a8418a72874e5",
      "function": "setPeer(uint32,bytes32)",
      "arguments": [
        "30184",
        "0x000000000000000000000000eb9f1639f3270fe520f1a34b98b0226e360b9097"
      ],
      "transaction": {
        "from": "0x0ece75f3c36f7df2136dac7633165dbff53de3cd",
        "to": "0x87e5824d9cff9e4d2cd368a87d0a8418a72874e5",
        "gas": "0x1141b",
        "value": "0x0",
        "input": "0x3400288b00000000000000000000000000000000000000000000000000000000000075e8000000000000000000000000eb9f1639f3270fe520f1a34b98b0226e360b9097",
        "nonce": "0x5f",
        "chainId": "0xa"
      },
      "additionalContracts": [],
      "isFixedGasLimit": false
    },
    {
      "hash": "0x6fa382fc87df3a89779fb4651d7bd331ba00dc26aa3eb92b88cfe58fc29bfb13",
      "transactionType": "CALL",
      "contractName": null,
      "contractAddress": "0x95608557eb1fa88d07fb6af29fcb76b25a93bb2c",
      "function": "setPeer(uint32,bytes32)",
      "arguments": [
        "30184",
        "0x00000000000000000000000000ba39332e93b0f9fa0a29035704402ef25733c8"
      ],
      "transaction": {
        "from": "0x0ece75f3c36f7df2136dac7633165dbff53de3cd",
        "to": "0x95608557eb1fa88d07fb6af29fcb76b25a93bb2c",
        "gas": "0xa25a",
        "value": "0x0",
        "input": "0x3400288b00000000000000000000000000000000000000000000000000000000000075e800000000000000000000000000ba39332e93b0f9fa0a29035704402ef25733c8",
        "nonce": "0x60",
        "chainId": "0xa"
      },
      "additionalContracts": [],
      "isFixedGasLimit": false
    },
    {
      "hash": "0x855c76c6dfdb6c1be551f22fc5f635bd71286222662379d0757e40dbbe352129",
      "transactionType": "CALL",
      "contractName": null,
      "contractAddress": "0x252d67d23308646cf6dae32a826de24ba21e7c12",
      "function": "setPeer(uint32,bytes32)",
      "arguments": [
        "30184",
        "0x00000000000000000000000062601f0ddc60da8eea79746fbeb89ed8e6f87ad6"
      ],
      "transaction": {
        "from": "0x0ece75f3c36f7df2136dac7633165dbff53de3cd",
        "to": "0x252d67d23308646cf6dae32a826de24ba21e7c12",
        "gas": "0x9965",
        "value": "0x0",
        "input": "0x3400288b00000000000000000000000000000000000000000000000000000000000075e800000000000000000000000062601f0ddc60da8eea79746fbeb89ed8e6f87ad6",
        "nonce": "0x61",
        "chainId": "0xa"
      },
      "additionalContracts": [],
      "isFixedGasLimit": false
    },
    {
      "hash": "0x5e3b4f1c5f25cb3002ddbac09a817dd35d90632fb02e0d35221a541130f41b79",
      "transactionType": "CALL",
      "contractName": null,
      "contractAddress": "0x87e5824d9cff9e4d2cd368a87d0a8418a72874e5",
      "function": "setEnforcedOptions((uint32,uint16,bytes)[])",
      "arguments": [
        "[(0, 1, 0x00030100110100000000000000000000000000013880), (0, 1, 0x000301001101000000000000000000000000000186a0)]"
      ],
      "transaction": {
        "from": "0x0ece75f3c36f7df2136dac7633165dbff53de3cd",
        "to": "0x87e5824d9cff9e4d2cd368a87d0a8418a72874e5",
        "gas": "0x146f7",
        "value": "0x0",
        "input": "0xb98bd07000000000000000000000000000000000000000000000000000000000000000200000000000000000000000000000000000000000000000000000000000000002000000000000000000000000000000000000000000000000000000000000004000000000000000000000000000000000000000000000000000000000000000e0000000000000000000000000000000000000000000000000000000000000000000000000000000000000000000000000000000000000000000000000000000010000000000000000000000000000000000000000000000000000000000000060000000000000000000000000000000000000000000000000000000000000001600030100110100000000000000000000000000013880000000000000000000000000000000000000000000000000000000000000000000000000000000000000000000000000000000000000000000000000000000000000000000000000000100000000000000000000000000000000000000000000000000000000000000600000000000000000000000000000000000000000000000000000000000000016000301001101000000000000000000000000000186a000000000000000000000",
        "nonce": "0x62",
        "chainId": "0xa"
      },
      "additionalContracts": [],
      "isFixedGasLimit": false
    },
    {
      "hash": "0x572fafc872ddfe306acd2597304e37d69198fd792ae3e3d8e0d56d33cf4a53ee",
      "transactionType": "CALL",
      "contractName": null,
      "contractAddress": "0x95608557eb1fa88d07fb6af29fcb76b25a93bb2c",
      "function": "setEnforcedOptions((uint32,uint16,bytes)[])",
      "arguments": [
        "[(0, 1, 0x00030100110100000000000000000000000000013880), (0, 1, 0x000301001101000000000000000000000000000186a0)]"
      ],
      "transaction": {
        "from": "0x0ece75f3c36f7df2136dac7633165dbff53de3cd",
        "to": "0x95608557eb1fa88d07fb6af29fcb76b25a93bb2c",
        "gas": "0xdb97",
        "value": "0x0",
        "input": "0xb98bd07000000000000000000000000000000000000000000000000000000000000000200000000000000000000000000000000000000000000000000000000000000002000000000000000000000000000000000000000000000000000000000000004000000000000000000000000000000000000000000000000000000000000000e0000000000000000000000000000000000000000000000000000000000000000000000000000000000000000000000000000000000000000000000000000000010000000000000000000000000000000000000000000000000000000000000060000000000000000000000000000000000000000000000000000000000000001600030100110100000000000000000000000000013880000000000000000000000000000000000000000000000000000000000000000000000000000000000000000000000000000000000000000000000000000000000000000000000000000100000000000000000000000000000000000000000000000000000000000000600000000000000000000000000000000000000000000000000000000000000016000301001101000000000000000000000000000186a000000000000000000000",
        "nonce": "0x63",
        "chainId": "0xa"
      },
      "additionalContracts": [],
      "isFixedGasLimit": false
    },
    {
      "hash": "0xb8429dae5ed0b02b000666bb079c9426e10b6941c3c0dccea1df80eac94eee11",
      "transactionType": "CALL",
      "contractName": null,
      "contractAddress": "0x252d67d23308646cf6dae32a826de24ba21e7c12",
      "function": "setEnforcedOptions((uint32,uint16,bytes)[])",
      "arguments": [
        "[(0, 1, 0x00030100110100000000000000000000000000013880), (0, 1, 0x000301001101000000000000000000000000000186a0)]"
      ],
      "transaction": {
        "from": "0x0ece75f3c36f7df2136dac7633165dbff53de3cd",
        "to": "0x252d67d23308646cf6dae32a826de24ba21e7c12",
        "gas": "0xdb97",
        "value": "0x0",
        "input": "0xb98bd07000000000000000000000000000000000000000000000000000000000000000200000000000000000000000000000000000000000000000000000000000000002000000000000000000000000000000000000000000000000000000000000004000000000000000000000000000000000000000000000000000000000000000e0000000000000000000000000000000000000000000000000000000000000000000000000000000000000000000000000000000000000000000000000000000010000000000000000000000000000000000000000000000000000000000000060000000000000000000000000000000000000000000000000000000000000001600030100110100000000000000000000000000013880000000000000000000000000000000000000000000000000000000000000000000000000000000000000000000000000000000000000000000000000000000000000000000000000000100000000000000000000000000000000000000000000000000000000000000600000000000000000000000000000000000000000000000000000000000000016000301001101000000000000000000000000000186a000000000000000000000",
        "nonce": "0x64",
        "chainId": "0xa"
      },
      "additionalContracts": [],
      "isFixedGasLimit": false
    }
  ],
  "receipts": [
    {
      "status": "0x1",
      "cumulativeGasUsed": "0x226b35f",
      "logs": [
        {
          "address": "0x87e5824d9cff9e4d2cd368a87d0a8418a72874e5",
          "topics": [
            "0x238399d427b947898edb290f5ff0f9109849b1c3ba196a42e35f00c50a54b98b"
          ],
          "data": "0x000000000000000000000000000000000000000000000000000000000000759f00000000000000000000000087e5824d9cff9e4d2cd368a87d0a8418a72874e5",
          "blockHash": "0x1778a60e8fd81d2788f06a2a377237a2bc2e482d21f5af50efd62ed059e530b8",
          "blockNumber": "0x86f8971",
          "blockTimestamp": "0x68d2ec9b",
          "transactionHash": "0xd6ddd38d789276514dbcfebd5ba0c44f479d619fe5b581f1bef8a991c9123286",
          "transactionIndex": "0x24",
          "logIndex": "0x100",
          "removed": false
        }
      ],
      "logsBloom": "0x00000000000000000000000000000000000000000000000000000000000000000000000000000000000000000000000000000000000000000800000000000000000000000000000000000000000000000000000000000000000000000000000000000000000000000000000000000000000000000000000000000000000000000000000000400000000000000000000000000000000000000000000000000000000000000000000000000000000000000100000000000000000002000000000000000000000000000000000000000000000000000000200000040000000000000000000000000000000000000000000000000000000000000000000000000000",
      "type": "0x2",
      "transactionHash": "0xd6ddd38d789276514dbcfebd5ba0c44f479d619fe5b581f1bef8a991c9123286",
      "transactionIndex": "0x24",
      "blockHash": "0x1778a60e8fd81d2788f06a2a377237a2bc2e482d21f5af50efd62ed059e530b8",
      "blockNumber": "0x86f8971",
      "gasUsed": "0xbccb",
      "effectiveGasPrice": "0xda9",
      "from": "0x0ece75f3c36f7df2136dac7633165dbff53de3cd",
      "to": "0x87e5824d9cff9e4d2cd368a87d0a8418a72874e5",
      "contractAddress": null,
      "l1BaseFeeScalar": "0x146b",
      "l1BlobBaseFee": "0x23",
      "l1BlobBaseFeeScalar": "0xf79c5",
      "l1Fee": "0x9a20cdf0",
      "l1GasPrice": "0x126de6ad",
      "l1GasUsed": "0x640"
    },
    {
      "status": "0x1",
      "cumulativeGasUsed": "0x227226e",
      "logs": [
        {
          "address": "0x95608557eb1fa88d07fb6af29fcb76b25a93bb2c",
          "topics": [
            "0x238399d427b947898edb290f5ff0f9109849b1c3ba196a42e35f00c50a54b98b"
          ],
          "data": "0x000000000000000000000000000000000000000000000000000000000000759f00000000000000000000000095608557eb1fa88d07fb6af29fcb76b25a93bb2c",
          "blockHash": "0x1778a60e8fd81d2788f06a2a377237a2bc2e482d21f5af50efd62ed059e530b8",
          "blockNumber": "0x86f8971",
          "blockTimestamp": "0x68d2ec9b",
          "transactionHash": "0xdf8a3cda081d6e52fe8f7af8bca44287ca0a15c966a549cb262824539536bddf",
          "transactionIndex": "0x25",
          "logIndex": "0x101",
          "removed": false
        }
      ],
      "logsBloom": "0x00000000000000000000000000000000000000000002000000000000000000000000000000000000000000000000000000000000000000000800000000000000000000000000000000000000000000000000000000000000000000000000000000000000000000000000000000000000000000000000000000000000000000000000000000000000000000000000000000000000000000000000000000000000010000000000000000000000000000000000000000000000000002000000000000000000000000000100000000000000000000000000000000040000000000000000000000000000000000000000000000000000000000000000000000000000",
      "type": "0x2",
      "transactionHash": "0xdf8a3cda081d6e52fe8f7af8bca44287ca0a15c966a549cb262824539536bddf",
      "transactionIndex": "0x25",
      "blockHash": "0x1778a60e8fd81d2788f06a2a377237a2bc2e482d21f5af50efd62ed059e530b8",
      "blockNumber": "0x86f8971",
      "gasUsed": "0x6f0f",
      "effectiveGasPrice": "0xda9",
      "from": "0x0ece75f3c36f7df2136dac7633165dbff53de3cd",
      "to": "0x95608557eb1fa88d07fb6af29fcb76b25a93bb2c",
      "contractAddress": null,
      "l1BaseFeeScalar": "0x146b",
      "l1BlobBaseFee": "0x23",
      "l1BlobBaseFeeScalar": "0xf79c5",
      "l1Fee": "0x9a20cdf0",
      "l1GasPrice": "0x126de6ad",
      "l1GasUsed": "0x640"
    },
    {
      "status": "0x1",
      "cumulativeGasUsed": "0x227917d",
      "logs": [
        {
          "address": "0x252d67d23308646cf6dae32a826de24ba21e7c12",
          "topics": [
            "0x238399d427b947898edb290f5ff0f9109849b1c3ba196a42e35f00c50a54b98b"
          ],
          "data": "0x000000000000000000000000000000000000000000000000000000000000759f000000000000000000000000252d67d23308646cf6dae32a826de24ba21e7c12",
          "blockHash": "0x1778a60e8fd81d2788f06a2a377237a2bc2e482d21f5af50efd62ed059e530b8",
          "blockNumber": "0x86f8971",
          "blockTimestamp": "0x68d2ec9b",
          "transactionHash": "0x8ab3e2cfda722eaa392aeb7c839f57fe74c030ddc2ec47202452d8c3d76c8345",
          "transactionIndex": "0x26",
          "logIndex": "0x102",
          "removed": false
        }
      ],
      "logsBloom": "0x00000000000000000000000000000000000000000000000000000000000000000000000000000000000000002000000000000000000000000800000000000000000000000000000000000000000000000000000000000000000000000000000000000000000000000000000000000000000000000040000000000000000000000000000000000000000000000000000000000000000000000000000000000000000000000000000000000000000000000000000000000000000002000000000000000000000000000000000000000000000000000000000000040000000000000000100000000000000000000000000000000000000000000000000000000000",
      "type": "0x2",
      "transactionHash": "0x8ab3e2cfda722eaa392aeb7c839f57fe74c030ddc2ec47202452d8c3d76c8345",
      "transactionIndex": "0x26",
      "blockHash": "0x1778a60e8fd81d2788f06a2a377237a2bc2e482d21f5af50efd62ed059e530b8",
      "blockNumber": "0x86f8971",
      "gasUsed": "0x6f0f",
      "effectiveGasPrice": "0xda9",
      "from": "0x0ece75f3c36f7df2136dac7633165dbff53de3cd",
      "to": "0x252d67d23308646cf6dae32a826de24ba21e7c12",
      "contractAddress": null,
      "l1BaseFeeScalar": "0x146b",
      "l1BlobBaseFee": "0x23",
      "l1BlobBaseFeeScalar": "0xf79c5",
      "l1Fee": "0x9a20cdf0",
      "l1GasPrice": "0x126de6ad",
      "l1GasUsed": "0x640"
    },
    {
      "status": "0x1",
      "cumulativeGasUsed": "0x5f8158",
      "logs": [
        {
          "address": "0x87e5824d9cff9e4d2cd368a87d0a8418a72874e5",
          "topics": [
            "0x238399d427b947898edb290f5ff0f9109849b1c3ba196a42e35f00c50a54b98b"
          ],
          "data": "0x00000000000000000000000000000000000000000000000000000000000075e8000000000000000000000000eb9f1639f3270fe520f1a34b98b0226e360b9097",
          "blockHash": "0x47ff348d071c530b4723fc023a85811321849966718718bab3885ba5148565e4",
          "blockNumber": "0x86f8972",
          "blockTimestamp": "0x68d2ec9d",
          "transactionHash": "0x6f7106b1ec3a0c487985a9e3989f2ebc71fb1201bc811f3e5a9cb3b15daa3450",
          "transactionIndex": "0x18",
          "logIndex": "0x11",
          "removed": false
        }
      ],
      "logsBloom": "0x00000000000000000000000000000000000000000000000000000000000000000000000000000000000000000000000000000000000000000800000000000000000000000000000000000000000000000000000000000000000000000000000000000000000000000000000000000000000000000000000000000000000000000000000000400000000000000000000000000000000000000000000000000000000000000000000000000000000000000100000000000000000002000000000000000000000000000000000000000000000000000000200000040000000000000000000000000000000000000000000000000000000000000000000000000000",
      "type": "0x2",
      "transactionHash": "0x6f7106b1ec3a0c487985a9e3989f2ebc71fb1201bc811f3e5a9cb3b15daa3450",
      "transactionIndex": "0x18",
      "blockHash": "0x47ff348d071c530b4723fc023a85811321849966718718bab3885ba5148565e4",
      "blockNumber": "0x86f8972",
      "gasUsed": "0xbccb",
      "effectiveGasPrice": "0xdac",
      "from": "0x0ece75f3c36f7df2136dac7633165dbff53de3cd",
      "to": "0x87e5824d9cff9e4d2cd368a87d0a8418a72874e5",
      "contractAddress": null,
      "l1BaseFeeScalar": "0x146b",
      "l1BlobBaseFee": "0x23",
      "l1BlobBaseFeeScalar": "0xf79c5",
      "l1Fee": "0x9a20cdf0",
      "l1GasPrice": "0x126de6ad",
      "l1GasUsed": "0x640"
    },
    {
      "status": "0x1",
      "cumulativeGasUsed": "0x5ff05b",
      "logs": [
        {
          "address": "0x95608557eb1fa88d07fb6af29fcb76b25a93bb2c",
          "topics": [
            "0x238399d427b947898edb290f5ff0f9109849b1c3ba196a42e35f00c50a54b98b"
          ],
          "data": "0x00000000000000000000000000000000000000000000000000000000000075e800000000000000000000000000ba39332e93b0f9fa0a29035704402ef25733c8",
          "blockHash": "0x47ff348d071c530b4723fc023a85811321849966718718bab3885ba5148565e4",
          "blockNumber": "0x86f8972",
          "blockTimestamp": "0x68d2ec9d",
          "transactionHash": "0x6fa382fc87df3a89779fb4651d7bd331ba00dc26aa3eb92b88cfe58fc29bfb13",
          "transactionIndex": "0x19",
          "logIndex": "0x12",
          "removed": false
        }
      ],
      "logsBloom": "0x00000000000000000000000000000000000000000002000000000000000000000000000000000000000000000000000000000000000000000800000000000000000000000000000000000000000000000000000000000000000000000000000000000000000000000000000000000000000000000000000000000000000000000000000000000000000000000000000000000000000000000000000000000000010000000000000000000000000000000000000000000000000002000000000000000000000000000100000000000000000000000000000000040000000000000000000000000000000000000000000000000000000000000000000000000000",
      "type": "0x2",
      "transactionHash": "0x6fa382fc87df3a89779fb4651d7bd331ba00dc26aa3eb92b88cfe58fc29bfb13",
      "transactionIndex": "0x19",
      "blockHash": "0x47ff348d071c530b4723fc023a85811321849966718718bab3885ba5148565e4",
      "blockNumber": "0x86f8972",
      "gasUsed": "0x6f03",
      "effectiveGasPrice": "0xdac",
      "from": "0x0ece75f3c36f7df2136dac7633165dbff53de3cd",
      "to": "0x95608557eb1fa88d07fb6af29fcb76b25a93bb2c",
      "contractAddress": null,
      "l1BaseFeeScalar": "0x146b",
      "l1BlobBaseFee": "0x23",
      "l1BlobBaseFeeScalar": "0xf79c5",
      "l1Fee": "0x9a20cdf0",
      "l1GasPrice": "0x126de6ad",
      "l1GasUsed": "0x640"
    },
    {
      "status": "0x1",
      "cumulativeGasUsed": "0x605f6a",
      "logs": [
        {
          "address": "0x252d67d23308646cf6dae32a826de24ba21e7c12",
          "topics": [
            "0x238399d427b947898edb290f5ff0f9109849b1c3ba196a42e35f00c50a54b98b"
          ],
          "data": "0x00000000000000000000000000000000000000000000000000000000000075e800000000000000000000000062601f0ddc60da8eea79746fbeb89ed8e6f87ad6",
          "blockHash": "0x47ff348d071c530b4723fc023a85811321849966718718bab3885ba5148565e4",
          "blockNumber": "0x86f8972",
          "blockTimestamp": "0x68d2ec9d",
          "transactionHash": "0x855c76c6dfdb6c1be551f22fc5f635bd71286222662379d0757e40dbbe352129",
          "transactionIndex": "0x1a",
          "logIndex": "0x13",
          "removed": false
        }
      ],
      "logsBloom": "0x00000000000000000000000000000000000000000000000000000000000000000000000000000000000000002000000000000000000000000800000000000000000000000000000000000000000000000000000000000000000000000000000000000000000000000000000000000000000000000040000000000000000000000000000000000000000000000000000000000000000000000000000000000000000000000000000000000000000000000000000000000000000002000000000000000000000000000000000000000000000000000000000000040000000000000000100000000000000000000000000000000000000000000000000000000000",
      "type": "0x2",
      "transactionHash": "0x855c76c6dfdb6c1be551f22fc5f635bd71286222662379d0757e40dbbe352129",
      "transactionIndex": "0x1a",
      "blockHash": "0x47ff348d071c530b4723fc023a85811321849966718718bab3885ba5148565e4",
      "blockNumber": "0x86f8972",
      "gasUsed": "0x6f0f",
      "effectiveGasPrice": "0xdac",
      "from": "0x0ece75f3c36f7df2136dac7633165dbff53de3cd",
      "to": "0x252d67d23308646cf6dae32a826de24ba21e7c12",
      "contractAddress": null,
      "l1BaseFeeScalar": "0x146b",
      "l1BlobBaseFee": "0x23",
      "l1BlobBaseFeeScalar": "0xf79c5",
      "l1Fee": "0x9a20cdf0",
      "l1GasPrice": "0x126de6ad",
      "l1GasUsed": "0x640"
    },
    {
      "status": "0x1",
      "cumulativeGasUsed": "0x614c22",
      "logs": [
        {
          "address": "0x87e5824d9cff9e4d2cd368a87d0a8418a72874e5",
          "topics": [
            "0xbe4864a8e820971c0247f5992e2da559595f7bf076a21cb5928d443d2a13b674"
          ],
          "data": "0x00000000000000000000000000000000000000000000000000000000000000200000000000000000000000000000000000000000000000000000000000000002000000000000000000000000000000000000000000000000000000000000004000000000000000000000000000000000000000000000000000000000000000e0000000000000000000000000000000000000000000000000000000000000000000000000000000000000000000000000000000000000000000000000000000010000000000000000000000000000000000000000000000000000000000000060000000000000000000000000000000000000000000000000000000000000001600030100110100000000000000000000000000013880000000000000000000000000000000000000000000000000000000000000000000000000000000000000000000000000000000000000000000000000000000000000000000000000000100000000000000000000000000000000000000000000000000000000000000600000000000000000000000000000000000000000000000000000000000000016000301001101000000000000000000000000000186a000000000000000000000",
          "blockHash": "0x47ff348d071c530b4723fc023a85811321849966718718bab3885ba5148565e4",
          "blockNumber": "0x86f8972",
          "blockTimestamp": "0x68d2ec9d",
          "transactionHash": "0x5e3b4f1c5f25cb3002ddbac09a817dd35d90632fb02e0d35221a541130f41b79",
          "transactionIndex": "0x1b",
          "logIndex": "0x14",
          "removed": false
        }
      ],
      "logsBloom": "0x00000000000000000000000000000000000000000000000000000000000000000000000000000000000000000000000000000000000000000000400000000000000000000000000000000000000000000000000000000000000000000000000000000000000000000000000000000000000000000000000000000000000000000000000000400000000000000000000000000000000000000000000000080000000000000000000000000000000000000100000000000000000000000000000000000000000000000000000002000000000000000000200000000000000000000000000000000000000000000000000000000000000000000000000000000000",
      "type": "0x2",
      "transactionHash": "0x5e3b4f1c5f25cb3002ddbac09a817dd35d90632fb02e0d35221a541130f41b79",
      "transactionIndex": "0x1b",
      "blockHash": "0x47ff348d071c530b4723fc023a85811321849966718718bab3885ba5148565e4",
      "blockNumber": "0x86f8972",
      "gasUsed": "0xecb8",
      "effectiveGasPrice": "0xdac",
      "from": "0x0ece75f3c36f7df2136dac7633165dbff53de3cd",
      "to": "0x87e5824d9cff9e4d2cd368a87d0a8418a72874e5",
      "contractAddress": null,
      "l1BaseFeeScalar": "0x146b",
      "l1BlobBaseFee": "0x23",
      "l1BlobBaseFeeScalar": "0xf79c5",
      "l1Fee": "0xb87bfadb",
      "l1GasPrice": "0x126de6ad",
      "l1GasUsed": "0x77b"
    },
    {
      "status": "0x1",
      "cumulativeGasUsed": "0x61eb1e",
      "logs": [
        {
          "address": "0x95608557eb1fa88d07fb6af29fcb76b25a93bb2c",
          "topics": [
            "0xbe4864a8e820971c0247f5992e2da559595f7bf076a21cb5928d443d2a13b674"
          ],
          "data": "0x00000000000000000000000000000000000000000000000000000000000000200000000000000000000000000000000000000000000000000000000000000002000000000000000000000000000000000000000000000000000000000000004000000000000000000000000000000000000000000000000000000000000000e0000000000000000000000000000000000000000000000000000000000000000000000000000000000000000000000000000000000000000000000000000000010000000000000000000000000000000000000000000000000000000000000060000000000000000000000000000000000000000000000000000000000000001600030100110100000000000000000000000000013880000000000000000000000000000000000000000000000000000000000000000000000000000000000000000000000000000000000000000000000000000000000000000000000000000100000000000000000000000000000000000000000000000000000000000000600000000000000000000000000000000000000000000000000000000000000016000301001101000000000000000000000000000186a000000000000000000000",
          "blockHash": "0x47ff348d071c530b4723fc023a85811321849966718718bab3885ba5148565e4",
          "blockNumber": "0x86f8972",
          "blockTimestamp": "0x68d2ec9d",
          "transactionHash": "0x572fafc872ddfe306acd2597304e37d69198fd792ae3e3d8e0d56d33cf4a53ee",
          "transactionIndex": "0x1c",
          "logIndex": "0x15",
          "removed": false
        }
      ],
      "logsBloom": "0x00000000000000000000000000000000000000000002000000000000000000000000000000000000000000000000000000000000000000000000400000000000000000000000000000000000000000000000000000000000000000000000000000000000000000000000000000000000000000000000000000000000000000000000000000000000000000000000000000000000000000000000000000080000010000000000000000000000000000000000000000000000000000000000000000000000000000000100000002000000000000000000000000000000000000000000000000000000000000000000000000000000000000000000000000000000",
      "type": "0x2",
      "transactionHash": "0x572fafc872ddfe306acd2597304e37d69198fd792ae3e3d8e0d56d33cf4a53ee",
      "transactionIndex": "0x1c",
      "blockHash": "0x47ff348d071c530b4723fc023a85811321849966718718bab3885ba5148565e4",
      "blockNumber": "0x86f8972",
      "gasUsed": "0x9efc",
      "effectiveGasPrice": "0xdac",
      "from": "0x0ece75f3c36f7df2136dac7633165dbff53de3cd",
      "to": "0x95608557eb1fa88d07fb6af29fcb76b25a93bb2c",
      "contractAddress": null,
      "l1BaseFeeScalar": "0x146b",
      "l1BlobBaseFee": "0x23",
      "l1BlobBaseFeeScalar": "0xf79c5",
      "l1Fee": "0xb731ec7a",
      "l1GasPrice": "0x126de6ad",
      "l1GasUsed": "0x76d"
    },
    {
      "status": "0x1",
      "cumulativeGasUsed": "0x628a1a",
      "logs": [
        {
          "address": "0x252d67d23308646cf6dae32a826de24ba21e7c12",
          "topics": [
            "0xbe4864a8e820971c0247f5992e2da559595f7bf076a21cb5928d443d2a13b674"
          ],
          "data": "0x00000000000000000000000000000000000000000000000000000000000000200000000000000000000000000000000000000000000000000000000000000002000000000000000000000000000000000000000000000000000000000000004000000000000000000000000000000000000000000000000000000000000000e0000000000000000000000000000000000000000000000000000000000000000000000000000000000000000000000000000000000000000000000000000000010000000000000000000000000000000000000000000000000000000000000060000000000000000000000000000000000000000000000000000000000000001600030100110100000000000000000000000000013880000000000000000000000000000000000000000000000000000000000000000000000000000000000000000000000000000000000000000000000000000000000000000000000000000100000000000000000000000000000000000000000000000000000000000000600000000000000000000000000000000000000000000000000000000000000016000301001101000000000000000000000000000186a000000000000000000000",
          "blockHash": "0x47ff348d071c530b4723fc023a85811321849966718718bab3885ba5148565e4",
          "blockNumber": "0x86f8972",
          "blockTimestamp": "0x68d2ec9d",
          "transactionHash": "0xb8429dae5ed0b02b000666bb079c9426e10b6941c3c0dccea1df80eac94eee11",
          "transactionIndex": "0x1d",
          "logIndex": "0x16",
          "removed": false
        }
      ],
      "logsBloom": "0x00000000000000000000000000000000000000000000000000000000000000000000000000000000000000002000000000000000000000000000400000000000000000000000000000000000000000000000000000000000000000000000000000000000000000000000000000000000000000000040000000000000000000000000000000000000000000000000000000000000000000000000000000080000000000000000000000000000000000000000000000000000000000000000000000000000000000000000000002000000000000000000000000000000000000000000100000000000000000000000000000000000000000000000000000000000",
      "type": "0x2",
      "transactionHash": "0xb8429dae5ed0b02b000666bb079c9426e10b6941c3c0dccea1df80eac94eee11",
      "transactionIndex": "0x1d",
      "blockHash": "0x47ff348d071c530b4723fc023a85811321849966718718bab3885ba5148565e4",
      "blockNumber": "0x86f8972",
      "gasUsed": "0x9efc",
      "effectiveGasPrice": "0xdac",
      "from": "0x0ece75f3c36f7df2136dac7633165dbff53de3cd",
      "to": "0x252d67d23308646cf6dae32a826de24ba21e7c12",
      "contractAddress": null,
      "l1BaseFeeScalar": "0x146b",
      "l1BlobBaseFee": "0x23",
      "l1BlobBaseFeeScalar": "0xf79c5",
      "l1Fee": "0xb731ec7a",
      "l1GasPrice": "0x126de6ad",
      "l1GasUsed": "0x76d"
    }
  ],
  "libraries": [],
  "pending": [],
  "returns": {},
  "timestamp": 1758653597921,
  "chain": 10,
  "commit": "53213c9"
}