{
  "transactions": [
    {
      "hash": "0x8de0b7c404e7acb8dd5971f3ed509475d347bb871aa9e5aac4b4db490bc5bfa3",
      "transactionType": "CALL",
      "contractName": null,
      "contractAddress": "0x87e5824d9cff9e4d2cd368a87d0a8418a72874e5",
      "function": "setEnforcedOptions((uint32,uint16,bytes)[])",
      "arguments": [
        "[(30111, 1, 0x00030100110100000000000000000000000000013880), (30184, 1, 0x000301001101000000000000000000000000000186a0)]"
      ],
      "transaction": {
        "from": "0x0ece75f3c36f7df2136dac7633165dbff53de3cd",
        "to": "0x87e5824d9cff9e4d2cd368a87d0a8418a72874e5",
        "gas": "0x1bd63",
        "value": "0x0",
        "input": "0xb98bd07000000000000000000000000000000000000000000000000000000000000000200000000000000000000000000000000000000000000000000000000000000002000000000000000000000000000000000000000000000000000000000000004000000000000000000000000000000000000000000000000000000000000000e0000000000000000000000000000000000000000000000000000000000000759f000000000000000000000000000000000000000000000000000000000000000100000000000000000000000000000000000000000000000000000000000000600000000000000000000000000000000000000000000000000000000000000016000301001101000000000000000000000000000138800000000000000000000000000000000000000000000000000000000000000000000000000000000075e8000000000000000000000000000000000000000000000000000000000000000100000000000000000000000000000000000000000000000000000000000000600000000000000000000000000000000000000000000000000000000000000016000301001101000000000000000000000000000186a000000000000000000000",
        "nonce": "0x65",
        "chainId": "0xa"
      },
      "additionalContracts": [],
      "isFixedGasLimit": false
    },
    {
      "hash": "0x9233580651e1eed7e742ff1c4b21ce44c9674a74dd791cb712ace45719d2554a",
      "transactionType": "CALL",
      "contractName": null,
      "contractAddress": "0x95608557eb1fa88d07fb6af29fcb76b25a93bb2c",
      "function": "setEnforcedOptions((uint32,uint16,bytes)[])",
      "arguments": [
        "[(30111, 1, 0x00030100110100000000000000000000000000013880), (30184, 1, 0x000301001101000000000000000000000000000186a0)]"
      ],
      "transaction": {
        "from": "0x0ece75f3c36f7df2136dac7633165dbff53de3cd",
        "to": "0x95608557eb1fa88d07fb6af29fcb76b25a93bb2c",
        "gas": "0x1bd63",
        "value": "0x0",
        "input": "0xb98bd07000000000000000000000000000000000000000000000000000000000000000200000000000000000000000000000000000000000000000000000000000000002000000000000000000000000000000000000000000000000000000000000004000000000000000000000000000000000000000000000000000000000000000e0000000000000000000000000000000000000000000000000000000000000759f000000000000000000000000000000000000000000000000000000000000000100000000000000000000000000000000000000000000000000000000000000600000000000000000000000000000000000000000000000000000000000000016000301001101000000000000000000000000000138800000000000000000000000000000000000000000000000000000000000000000000000000000000075e8000000000000000000000000000000000000000000000000000000000000000100000000000000000000000000000000000000000000000000000000000000600000000000000000000000000000000000000000000000000000000000000016000301001101000000000000000000000000000186a000000000000000000000",
        "nonce": "0x66",
        "chainId": "0xa"
      },
      "additionalContracts": [],
      "isFixedGasLimit": false
    },
    {
      "hash": "0x6613cc82fc2cfe13733602fb0157958d01672f8b1da6c91d467877542d238ac1",
      "transactionType": "CALL",
      "contractName": null,
      "contractAddress": "0x252d67d23308646cf6dae32a826de24ba21e7c12",
      "function": "setEnforcedOptions((uint32,uint16,bytes)[])",
      "arguments": [
        "[(30111, 1, 0x00030100110100000000000000000000000000013880), (30184, 1, 0x000301001101000000000000000000000000000186a0)]"
      ],
      "transaction": {
        "from": "0x0ece75f3c36f7df2136dac7633165dbff53de3cd",
        "to": "0x252d67d23308646cf6dae32a826de24ba21e7c12",
        "gas": "0x1bd63",
        "value": "0x0",
        "input": "0xb98bd07000000000000000000000000000000000000000000000000000000000000000200000000000000000000000000000000000000000000000000000000000000002000000000000000000000000000000000000000000000000000000000000004000000000000000000000000000000000000000000000000000000000000000e0000000000000000000000000000000000000000000000000000000000000759f000000000000000000000000000000000000000000000000000000000000000100000000000000000000000000000000000000000000000000000000000000600000000000000000000000000000000000000000000000000000000000000016000301001101000000000000000000000000000138800000000000000000000000000000000000000000000000000000000000000000000000000000000075e8000000000000000000000000000000000000000000000000000000000000000100000000000000000000000000000000000000000000000000000000000000600000000000000000000000000000000000000000000000000000000000000016000301001101000000000000000000000000000186a000000000000000000000",
        "nonce": "0x67",
        "chainId": "0xa"
      },
      "additionalContracts": [],
      "isFixedGasLimit": false
    }
  ],
  "receipts": [
    {
      "status": "0x1",
      "cumulativeGasUsed": "0x991192",
      "logs": [
        {
          "address": "0x87e5824d9cff9e4d2cd368a87d0a8418a72874e5",
          "topics": [
            "0xbe4864a8e820971c0247f5992e2da559595f7bf076a21cb5928d443d2a13b674"
          ],
          "data": "0x00000000000000000000000000000000000000000000000000000000000000200000000000000000000000000000000000000000000000000000000000000002000000000000000000000000000000000000000000000000000000000000004000000000000000000000000000000000000000000000000000000000000000e0000000000000000000000000000000000000000000000000000000000000759f000000000000000000000000000000000000000000000000000000000000000100000000000000000000000000000000000000000000000000000000000000600000000000000000000000000000000000000000000000000000000000000016000301001101000000000000000000000000000138800000000000000000000000000000000000000000000000000000000000000000000000000000000075e8000000000000000000000000000000000000000000000000000000000000000100000000000000000000000000000000000000000000000000000000000000600000000000000000000000000000000000000000000000000000000000000016000301001101000000000000000000000000000186a000000000000000000000",
          "blockHash": "0xf1628ae7a0c91dd47f94900fe72f6986bfa868fac93e8b7bc82855c72e2aca66",
          "blockNumber": "0x86f8a0b",
          "blockTimestamp": "0x68d2edcf",
          "transactionHash": "0x8de0b7c404e7acb8dd5971f3ed509475d347bb871aa9e5aac4b4db490bc5bfa3",
          "transactionIndex": "0x1c",
          "logIndex": "0x8e",
          "removed": false
        }
      ],
      "logsBloom": "0x00000000000000000000000000000000000000000000000000000000000000000000000000000000000000000000000000000000000000000000400000000000000000000000000000000000000000000000000000000000000000000000000000000000000000000000000000000000000000000000000000000000000000000000000000400000000000000000000000000000000000000000000000080000000000000000000000000000000000000100000000000000000000000000000000000000000000000000000002000000000000000000200000000000000000000000000000000000000000000000000000000000000000000000000000000000",
      "type": "0x2",
      "transactionHash": "0x8de0b7c404e7acb8dd5971f3ed509475d347bb871aa9e5aac4b4db490bc5bfa3",
      "transactionIndex": "0x1c",
      "blockHash": "0xf1628ae7a0c91dd47f94900fe72f6986bfa868fac93e8b7bc82855c72e2aca66",
      "blockNumber": "0x86f8a0b",
      "gasUsed": "0x14274",
      "effectiveGasPrice": "0x6b1",
      "from": "0x0ece75f3c36f7df2136dac7633165dbff53de3cd",
      "to": "0x87e5824d9cff9e4d2cd368a87d0a8418a72874e5",
      "contractAddress": null,
      "l1BaseFeeScalar": "0x146b",
      "l1BlobBaseFee": "0x20",
      "l1BlobBaseFeeScalar": "0xf79c5",
      "l1Fee": "0xc22b7877",
      "l1GasPrice": "0x11564c49",
      "l1GasUsed": "0x85e"
    },
    {
      "status": "0x1",
      "cumulativeGasUsed": "0x9a5406",
      "logs": [
        {
          "address": "0x95608557eb1fa88d07fb6af29fcb76b25a93bb2c",
          "topics": [
            "0xbe4864a8e820971c0247f5992e2da559595f7bf076a21cb5928d443d2a13b674"
          ],
          "data": "0x00000000000000000000000000000000000000000000000000000000000000200000000000000000000000000000000000000000000000000000000000000002000000000000000000000000000000000000000000000000000000000000004000000000000000000000000000000000000000000000000000000000000000e0000000000000000000000000000000000000000000000000000000000000759f000000000000000000000000000000000000000000000000000000000000000100000000000000000000000000000000000000000000000000000000000000600000000000000000000000000000000000000000000000000000000000000016000301001101000000000000000000000000000138800000000000000000000000000000000000000000000000000000000000000000000000000000000075e8000000000000000000000000000000000000000000000000000000000000000100000000000000000000000000000000000000000000000000000000000000600000000000000000000000000000000000000000000000000000000000000016000301001101000000000000000000000000000186a000000000000000000000",
          "blockHash": "0xf1628ae7a0c91dd47f94900fe72f6986bfa868fac93e8b7bc82855c72e2aca66",
          "blockNumber": "0x86f8a0b",
          "blockTimestamp": "0x68d2edcf",
          "transactionHash": "0x9233580651e1eed7e742ff1c4b21ce44c9674a74dd791cb712ace45719d2554a",
          "transactionIndex": "0x1d",
          "logIndex": "0x8f",
          "removed": false
        }
      ],
      "logsBloom": "0x00000000000000000000000000000000000000000002000000000000000000000000000000000000000000000000000000000000000000000000400000000000000000000000000000000000000000000000000000000000000000000000000000000000000000000000000000000000000000000000000000000000000000000000000000000000000000000000000000000000000000000000000000080000010000000000000000000000000000000000000000000000000000000000000000000000000000000100000002000000000000000000000000000000000000000000000000000000000000000000000000000000000000000000000000000000",
      "type": "0x2",
      "transactionHash": "0x9233580651e1eed7e742ff1c4b21ce44c9674a74dd791cb712ace45719d2554a",
      "transactionIndex": "0x1d",
      "blockHash": "0xf1628ae7a0c91dd47f94900fe72f6986bfa868fac93e8b7bc82855c72e2aca66",
      "blockNumber": "0x86f8a0b",
      "gasUsed": "0x14274",
      "effectiveGasPrice": "0x6b1",
      "from": "0x0ece75f3c36f7df2136dac7633165dbff53de3cd",
      "to": "0x95608557eb1fa88d07fb6af29fcb76b25a93bb2c",
      "contractAddress": null,
      "l1BaseFeeScalar": "0x146b",
      "l1BlobBaseFee": "0x20",
      "l1BlobBaseFeeScalar": "0xf79c5",
      "l1Fee": "0xc22b7877",
      "l1GasPrice": "0x11564c49",
      "l1GasUsed": "0x85e"
    },
    {
      "status": "0x1",
      "cumulativeGasUsed": "0x9b967a",
      "logs": [
        {
          "address": "0x252d67d23308646cf6dae32a826de24ba21e7c12",
          "topics": [
            "0xbe4864a8e820971c0247f5992e2da559595f7bf076a21cb5928d443d2a13b674"
          ],
          "data": "0x00000000000000000000000000000000000000000000000000000000000000200000000000000000000000000000000000000000000000000000000000000002000000000000000000000000000000000000000000000000000000000000004000000000000000000000000000000000000000000000000000000000000000e0000000000000000000000000000000000000000000000000000000000000759f000000000000000000000000000000000000000000000000000000000000000100000000000000000000000000000000000000000000000000000000000000600000000000000000000000000000000000000000000000000000000000000016000301001101000000000000000000000000000138800000000000000000000000000000000000000000000000000000000000000000000000000000000075e8000000000000000000000000000000000000000000000000000000000000000100000000000000000000000000000000000000000000000000000000000000600000000000000000000000000000000000000000000000000000000000000016000301001101000000000000000000000000000186a000000000000000000000",
          "blockHash": "0xf1628ae7a0c91dd47f94900fe72f6986bfa868fac93e8b7bc82855c72e2aca66",
          "blockNumber": "0x86f8a0b",
          "blockTimestamp": "0x68d2edcf",
          "transactionHash": "0x6613cc82fc2cfe13733602fb0157958d01672f8b1da6c91d467877542d238ac1",
          "transactionIndex": "0x1e",
          "logIndex": "0x90",
          "removed": false
        }
      ],
      "logsBloom": "0x00000000000000000000000000000000000000000000000000000000000000000000000000000000000000002000000000000000000000000000400000000000000000000000000000000000000000000000000000000000000000000000000000000000000000000000000000000000000000000040000000000000000000000000000000000000000000000000000000000000000000000000000000080000000000000000000000000000000000000000000000000000000000000000000000000000000000000000000002000000000000000000000000000000000000000000100000000000000000000000000000000000000000000000000000000000",
      "type": "0x2",
      "transactionHash": "0x6613cc82fc2cfe13733602fb0157958d01672f8b1da6c91d467877542d238ac1",
      "transactionIndex": "0x1e",
      "blockHash": "0xf1628ae7a0c91dd47f94900fe72f6986bfa868fac93e8b7bc82855c72e2aca66",
      "blockNumber": "0x86f8a0b",
      "gasUsed": "0x14274",
      "effectiveGasPrice": "0x6b1",
      "from": "0x0ece75f3c36f7df2136dac7633165dbff53de3cd",
      "to": "0x252d67d23308646cf6dae32a826de24ba21e7c12",
      "contractAddress": null,
      "l1BaseFeeScalar": "0x146b",
      "l1BlobBaseFee": "0x20",
      "l1BlobBaseFeeScalar": "0xf79c5",
      "l1Fee": "0xc22b7877",
      "l1GasPrice": "0x11564c49",
      "l1GasUsed": "0x85e"
    }
  ],
  "libraries": [],
  "pending": [],
  "returns": {},
  "timestamp": 1758653905245,
  "chain": 10,
  "commit": "53213c9"
}