{
  "transactions": [
    {
      "hash": "0x4011e8f7e2534d6537178cf25544968005e7faf8bb3d6bd383b0293a129e9c7f",
      "transactionType": "CALL",
      "contractName": null,
      "contractAddress": "0x95608557eb1fa88d07fb6af29fcb76b25a93bb2c",
      "function": "setPeer(uint32,bytes32)",
      "arguments": [
        "30111",
        "0x00000000000000000000000095608557eb1fa88d07fb6af29fcb76b25a93bb2c"
      ],
      "transaction": {
        "from": "0x0ece75f3c36f7df2136dac7633165dbff53de3cd",
        "to": "0x95608557eb1fa88d07fb6af29fcb76b25a93bb2c",
        "gas": "0x1141b",
        "value": "0x0",
        "input": "0x3400288b000000000000000000000000000000000000000000000000000000000000759f00000000000000000000000095608557eb1fa88d07fb6af29fcb76b25a93bb2c",
        "nonce": "0x56",
        "chainId": "0xa"
      },
      "additionalContracts": [],
      "isFixedGasLimit": false
    },
    {
      "hash": "0x11819c1517cd9a1211967639e00f40ab99535f2d460f861b6926dd76afa8f475",
      "transactionType": "CALL",
      "contractName": null,
      "contractAddress": "0x252d67d23308646cf6dae32a826de24ba21e7c12",
      "function": "setPeer(uint32,bytes32)",
      "arguments": [
        "30111",
        "0x000000000000000000000000252d67d23308646cf6dae32a826de24ba21e7c12"
      ],
      "transaction": {
        "from": "0x0ece75f3c36f7df2136dac7633165dbff53de3cd",
        "to": "0x252d67d23308646cf6dae32a826de24ba21e7c12",
        "gas": "0x1141b",
        "value": "0x0",
        "input": "0x3400288b000000000000000000000000000000000000000000000000000000000000759f000000000000000000000000252d67d23308646cf6dae32a826de24ba21e7c12",
        "nonce": "0x57",
        "chainId": "0xa"
      },
      "additionalContracts": [],
      "isFixedGasLimit": false
    },
    {
      "hash": "0xe40fa7a8b1df2615001006e5fc58c9aa3fda9e5d876b3937d8f287f30b35c84e",
      "transactionType": "CALL",
      "contractName": null,
      "contractAddress": "0x95608557eb1fa88d07fb6af29fcb76b25a93bb2c",
      "function": "setPeer(uint32,bytes32)",
      "arguments": [
        "30184",
        "0x00000000000000000000000000ba39332e93b0f9fa0a29035704402ef25733c8"
      ],
      "transaction": {
        "from": "0x0ece75f3c36f7df2136dac7633165dbff53de3cd",
        "to": "0x95608557eb1fa88d07fb6af29fcb76b25a93bb2c",
        "gas": "0x104b3",
        "value": "0x0",
        "input": "0x3400288b00000000000000000000000000000000000000000000000000000000000075e800000000000000000000000000ba39332e93b0f9fa0a29035704402ef25733c8",
        "nonce": "0x58",
        "chainId": "0xa"
      },
      "additionalContracts": [],
      "isFixedGasLimit": false
    },
    {
      "hash": "0x207e0748f57d003a136defe40141fcbb7c196d1f60f73c6c87b86ab815f4864a",
      "transactionType": "CALL",
      "contractName": null,
      "contractAddress": "0x252d67d23308646cf6dae32a826de24ba21e7c12",
      "function": "setPeer(uint32,bytes32)",
      "arguments": [
        "30184",
        "0x00000000000000000000000062601f0ddc60da8eea79746fbeb89ed8e6f87ad6"
      ],
      "transaction": {
        "from": "0x0ece75f3c36f7df2136dac7633165dbff53de3cd",
        "to": "0x252d67d23308646cf6dae32a826de24ba21e7c12",
        "gas": "0x1141b",
        "value": "0x0",
        "input": "0x3400288b00000000000000000000000000000000000000000000000000000000000075e800000000000000000000000062601f0ddc60da8eea79746fbeb89ed8e6f87ad6",
        "nonce": "0x59",
        "chainId": "0xa"
      },
      "additionalContracts": [],
      "isFixedGasLimit": false
    },
    {
      "hash": "0x2cc82a1be4f08d4ee496a7711033909147c933bc45db9e622fb01cfcddfc755a",
      "transactionType": "CALL",
      "contractName": null,
      "contractAddress": "0x95608557eb1fa88d07fb6af29fcb76b25a93bb2c",
      "function": "setEnforcedOptions((uint32,uint16,bytes)[])",
      "arguments": [
        "[(0, 1, 0x00030100110100000000000000000000000000013880), (0, 1, 0x000301001101000000000000000000000000000186a0)]"
      ],
      "transaction": {
        "from": "0x0ece75f3c36f7df2136dac7633165dbff53de3cd",
        "to": "0x95608557eb1fa88d07fb6af29fcb76b25a93bb2c",
        "gas": "0x146f7",
        "value": "0x0",
        "input": "0xb98bd07000000000000000000000000000000000000000000000000000000000000000200000000000000000000000000000000000000000000000000000000000000002000000000000000000000000000000000000000000000000000000000000004000000000000000000000000000000000000000000000000000000000000000e0000000000000000000000000000000000000000000000000000000000000000000000000000000000000000000000000000000000000000000000000000000010000000000000000000000000000000000000000000000000000000000000060000000000000000000000000000000000000000000000000000000000000001600030100110100000000000000000000000000013880000000000000000000000000000000000000000000000000000000000000000000000000000000000000000000000000000000000000000000000000000000000000000000000000000100000000000000000000000000000000000000000000000000000000000000600000000000000000000000000000000000000000000000000000000000000016000301001101000000000000000000000000000186a000000000000000000000",
        "nonce": "0x5a",
        "chainId": "0xa"
      },
      "additionalContracts": [],
      "isFixedGasLimit": false
    },
    {
      "hash": "0x251a36895c4e6c0cdb273fbe57dbce909cdc07ad35c80bc33f33dba1490c24a8",
      "transactionType": "CALL",
      "contractName": null,
      "contractAddress": "0x252d67d23308646cf6dae32a826de24ba21e7c12",
      "function": "setEnforcedOptions((uint32,uint16,bytes)[])",
      "arguments": [
        "[(0, 1, 0x00030100110100000000000000000000000000013880), (0, 1, 0x000301001101000000000000000000000000000186a0)]"
      ],
      "transaction": {
        "from": "0x0ece75f3c36f7df2136dac7633165dbff53de3cd",
        "to": "0x252d67d23308646cf6dae32a826de24ba21e7c12",
        "gas": "0x146f7",
        "value": "0x0",
        "input": "0xb98bd07000000000000000000000000000000000000000000000000000000000000000200000000000000000000000000000000000000000000000000000000000000002000000000000000000000000000000000000000000000000000000000000004000000000000000000000000000000000000000000000000000000000000000e0000000000000000000000000000000000000000000000000000000000000000000000000000000000000000000000000000000000000000000000000000000010000000000000000000000000000000000000000000000000000000000000060000000000000000000000000000000000000000000000000000000000000001600030100110100000000000000000000000000013880000000000000000000000000000000000000000000000000000000000000000000000000000000000000000000000000000000000000000000000000000000000000000000000000000100000000000000000000000000000000000000000000000000000000000000600000000000000000000000000000000000000000000000000000000000000016000301001101000000000000000000000000000186a000000000000000000000",
        "nonce": "0x5b",
        "chainId": "0xa"
      },
      "additionalContracts": [],
      "isFixedGasLimit": false
    }
  ],
  "receipts": [
    {
      "status": "0x1",
      "cumulativeGasUsed": "0x9b213e",
      "logs": [
        {
          "address": "0x95608557eb1fa88d07fb6af29fcb76b25a93bb2c",
          "topics": [
            "0x238399d427b947898edb290f5ff0f9109849b1c3ba196a42e35f00c50a54b98b"
          ],
          "data": "0x000000000000000000000000000000000000000000000000000000000000759f00000000000000000000000095608557eb1fa88d07fb6af29fcb76b25a93bb2c",
          "blockHash": "0xe5f5f2920e47736b328e5ba6a7f207a4ee0230a34e2f5ca10199e39e38c13bd5",
          "blockNumber": "0x86f88d3",
          "blockTimestamp": "0x68d2eb5f",
          "transactionHash": "0x4011e8f7e2534d6537178cf25544968005e7faf8bb3d6bd383b0293a129e9c7f",
          "transactionIndex": "0x23",
          "logIndex": "0x4b",
          "removed": false
        }
      ],
      "logsBloom": "0x00000000000000000000000000000000000000000002000000000000000000000000000000000000000000000000000000000000000000000800000000000000000000000000000000000000000000000000000000000000000000000000000000000000000000000000000000000000000000000000000000000000000000000000000000000000000000000000000000000000000000000000000000000000010000000000000000000000000000000000000000000000000002000000000000000000000000000100000000000000000000000000000000040000000000000000000000000000000000000000000000000000000000000000000000000000",
      "type": "0x2",
      "transactionHash": "0x4011e8f7e2534d6537178cf25544968005e7faf8bb3d6bd383b0293a129e9c7f",
      "transactionIndex": "0x23",
      "blockHash": "0xe5f5f2920e47736b328e5ba6a7f207a4ee0230a34e2f5ca10199e39e38c13bd5",
      "blockNumber": "0x86f88d3",
      "gasUsed": "0xbccb",
      "effectiveGasPrice": "0xacd",
      "from": "0x0ece75f3c36f7df2136dac7633165dbff53de3cd",
      "to": "0x95608557eb1fa88d07fb6af29fcb76b25a93bb2c",
      "contractAddress": null,
      "l1BaseFeeScalar": "0x146b",
      "l1BlobBaseFee": "0x16",
      "l1BlobBaseFeeScalar": "0xf79c5",
      "l1Fee": "0xa8f4e9f4",
      "l1GasPrice": "0x1433cf50",
      "l1GasUsed": "0x640"
    },
    {
      "status": "0x1",
      "cumulativeGasUsed": "0x9bde09",
      "logs": [
        {
          "address": "0x252d67d23308646cf6dae32a826de24ba21e7c12",
          "topics": [
            "0x238399d427b947898edb290f5ff0f9109849b1c3ba196a42e35f00c50a54b98b"
          ],
          "data": "0x000000000000000000000000000000000000000000000000000000000000759f000000000000000000000000252d67d23308646cf6dae32a826de24ba21e7c12",
          "blockHash": "0xe5f5f2920e47736b328e5ba6a7f207a4ee0230a34e2f5ca10199e39e38c13bd5",
          "blockNumber": "0x86f88d3",
          "blockTimestamp": "0x68d2eb5f",
          "transactionHash": "0x11819c1517cd9a1211967639e00f40ab99535f2d460f861b6926dd76afa8f475",
          "transactionIndex": "0x24",
          "logIndex": "0x4c",
          "removed": false
        }
      ],
      "logsBloom": "0x00000000000000000000000000000000000000000000000000000000000000000000000000000000000000002000000000000000000000000800000000000000000000000000000000000000000000000000000000000000000000000000000000000000000000000000000000000000000000000040000000000000000000000000000000000000000000000000000000000000000000000000000000000000000000000000000000000000000000000000000000000000000002000000000000000000000000000000000000000000000000000000000000040000000000000000100000000000000000000000000000000000000000000000000000000000",
      "type": "0x2",
      "transactionHash": "0x11819c1517cd9a1211967639e00f40ab99535f2d460f861b6926dd76afa8f475",
      "transactionIndex": "0x24",
      "blockHash": "0xe5f5f2920e47736b328e5ba6a7f207a4ee0230a34e2f5ca10199e39e38c13bd5",
      "blockNumber": "0x86f88d3",
      "gasUsed": "0xbccb",
      "effectiveGasPrice": "0xacd",
      "from": "0x0ece75f3c36f7df2136dac7633165dbff53de3cd",
      "to": "0x252d67d23308646cf6dae32a826de24ba21e7c12",
      "contractAddress": null,
      "l1BaseFeeScalar": "0x146b",
      "l1BlobBaseFee": "0x16",
      "l1BlobBaseFeeScalar": "0xf79c5",
      "l1Fee": "0xa8f4e9f4",
      "l1GasPrice": "0x1433cf50",
      "l1GasUsed": "0x640"
    },
    {
      "status": "0x1",
      "cumulativeGasUsed": "0x9c9ac8",
      "logs": [
        {
          "address": "0x95608557eb1fa88d07fb6af29fcb76b25a93bb2c",
          "topics": [
            "0x238399d427b947898edb290f5ff0f9109849b1c3ba196a42e35f00c50a54b98b"
          ],
          "data": "0x00000000000000000000000000000000000000000000000000000000000075e800000000000000000000000000ba39332e93b0f9fa0a29035704402ef25733c8",
          "blockHash": "0xe5f5f2920e47736b328e5ba6a7f207a4ee0230a34e2f5ca10199e39e38c13bd5",
          "blockNumber": "0x86f88d3",
          "blockTimestamp": "0x68d2eb5f",
          "transactionHash": "0xe40fa7a8b1df2615001006e5fc58c9aa3fda9e5d876b3937d8f287f30b35c84e",
          "transactionIndex": "0x25",
          "logIndex": "0x4d",
          "removed": false
        }
      ],
      "logsBloom": "0x00000000000000000000000000000000000000000002000000000000000000000000000000000000000000000000000000000000000000000800000000000000000000000000000000000000000000000000000000000000000000000000000000000000000000000000000000000000000000000000000000000000000000000000000000000000000000000000000000000000000000000000000000000000010000000000000000000000000000000000000000000000000002000000000000000000000000000100000000000000000000000000000000040000000000000000000000000000000000000000000000000000000000000000000000000000",
      "type": "0x2",
      "transactionHash": "0xe40fa7a8b1df2615001006e5fc58c9aa3fda9e5d876b3937d8f287f30b35c84e",
      "transactionIndex": "0x25",
      "blockHash": "0xe5f5f2920e47736b328e5ba6a7f207a4ee0230a34e2f5ca10199e39e38c13bd5",
      "blockNumber": "0x86f88d3",
      "gasUsed": "0xbcbf",
      "effectiveGasPrice": "0xacd",
      "from": "0x0ece75f3c36f7df2136dac7633165dbff53de3cd",
      "to": "0x95608557eb1fa88d07fb6af29fcb76b25a93bb2c",
      "contractAddress": null,
      "l1BaseFeeScalar": "0x146b",
      "l1BlobBaseFee": "0x16",
      "l1BlobBaseFeeScalar": "0xf79c5",
      "l1Fee": "0xa8f4e9f4",
      "l1GasPrice": "0x1433cf50",
      "l1GasUsed": "0x640"
    },
    {
      "status": "0x1",
      "cumulativeGasUsed": "0x9d5793",
      "logs": [
        {
          "address": "0x252d67d23308646cf6dae32a826de24ba21e7c12",
          "topics": [
            "0x238399d427b947898edb290f5ff0f9109849b1c3ba196a42e35f00c50a54b98b"
          ],
          "data": "0x00000000000000000000000000000000000000000000000000000000000075e800000000000000000000000062601f0ddc60da8eea79746fbeb89ed8e6f87ad6",
          "blockHash": "0xe5f5f2920e47736b328e5ba6a7f207a4ee0230a34e2f5ca10199e39e38c13bd5",
          "blockNumber": "0x86f88d3",
          "blockTimestamp": "0x68d2eb5f",
          "transactionHash": "0x207e0748f57d003a136defe40141fcbb7c196d1f60f73c6c87b86ab815f4864a",
          "transactionIndex": "0x26",
          "logIndex": "0x4e",
          "removed": false
        }
      ],
      "logsBloom": "0x00000000000000000000000000000000000000000000000000000000000000000000000000000000000000002000000000000000000000000800000000000000000000000000000000000000000000000000000000000000000000000000000000000000000000000000000000000000000000000040000000000000000000000000000000000000000000000000000000000000000000000000000000000000000000000000000000000000000000000000000000000000000002000000000000000000000000000000000000000000000000000000000000040000000000000000100000000000000000000000000000000000000000000000000000000000",
      "type": "0x2",
      "transactionHash": "0x207e0748f57d003a136defe40141fcbb7c196d1f60f73c6c87b86ab815f4864a",
      "transactionIndex": "0x26",
      "blockHash": "0xe5f5f2920e47736b328e5ba6a7f207a4ee0230a34e2f5ca10199e39e38c13bd5",
      "blockNumber": "0x86f88d3",
      "gasUsed": "0xbccb",
      "effectiveGasPrice": "0xacd",
      "from": "0x0ece75f3c36f7df2136dac7633165dbff53de3cd",
      "to": "0x252d67d23308646cf6dae32a826de24ba21e7c12",
      "contractAddress": null,
      "l1BaseFeeScalar": "0x146b",
      "l1BlobBaseFee": "0x16",
      "l1BlobBaseFeeScalar": "0xf79c5",
      "l1Fee": "0xa8f4e9f4",
      "l1GasPrice": "0x1433cf50",
      "l1GasUsed": "0x640"
    },
    {
      "status": "0x1",
      "cumulativeGasUsed": "0x9e444b",
      "logs": [
        {
          "address": "0x95608557eb1fa88d07fb6af29fcb76b25a93bb2c",
          "topics": [
            "0xbe4864a8e820971c0247f5992e2da559595f7bf076a21cb5928d443d2a13b674"
          ],
          "data": "0x00000000000000000000000000000000000000000000000000000000000000200000000000000000000000000000000000000000000000000000000000000002000000000000000000000000000000000000000000000000000000000000004000000000000000000000000000000000000000000000000000000000000000e0000000000000000000000000000000000000000000000000000000000000000000000000000000000000000000000000000000000000000000000000000000010000000000000000000000000000000000000000000000000000000000000060000000000000000000000000000000000000000000000000000000000000001600030100110100000000000000000000000000013880000000000000000000000000000000000000000000000000000000000000000000000000000000000000000000000000000000000000000000000000000000000000000000000000000100000000000000000000000000000000000000000000000000000000000000600000000000000000000000000000000000000000000000000000000000000016000301001101000000000000000000000000000186a000000000000000000000",
          "blockHash": "0xe5f5f2920e47736b328e5ba6a7f207a4ee0230a34e2f5ca10199e39e38c13bd5",
          "blockNumber": "0x86f88d3",
          "blockTimestamp": "0x68d2eb5f",
          "transactionHash": "0x2cc82a1be4f08d4ee496a7711033909147c933bc45db9e622fb01cfcddfc755a",
          "transactionIndex": "0x27",
          "logIndex": "0x4f",
          "removed": false
        }
      ],
      "logsBloom": "0x00000000000000000000000000000000000000000002000000000000000000000000000000000000000000000000000000000000000000000000400000000000000000000000000000000000000000000000000000000000000000000000000000000000000000000000000000000000000000000000000000000000000000000000000000000000000000000000000000000000000000000000000000080000010000000000000000000000000000000000000000000000000000000000000000000000000000000100000002000000000000000000000000000000000000000000000000000000000000000000000000000000000000000000000000000000",
      "type": "0x2",
      "transactionHash": "0x2cc82a1be4f08d4ee496a7711033909147c933bc45db9e622fb01cfcddfc755a",
      "transactionIndex": "0x27",
      "blockHash": "0xe5f5f2920e47736b328e5ba6a7f207a4ee0230a34e2f5ca10199e39e38c13bd5",
      "blockNumber": "0x86f88d3",
      "gasUsed": "0xecb8",
      "effectiveGasPrice": "0xacd",
      "from": "0x0ece75f3c36f7df2136dac7633165dbff53de3cd",
      "to": "0x95608557eb1fa88d07fb6af29fcb76b25a93bb2c",
      "contractAddress": null,
      "l1BaseFeeScalar": "0x146b",
      "l1BlobBaseFee": "0x16",
      "l1BlobBaseFeeScalar": "0xf79c5",
      "l1Fee": "0xca3bbf8f",
      "l1GasPrice": "0x1433cf50",
      "l1GasUsed": "0x77b"
    },
    {
      "status": "0x1",
      "cumulativeGasUsed": "0x9f3103",
      "logs": [
        {
          "address": "0x252d67d23308646cf6dae32a826de24ba21e7c12",
          "topics": [
            "0xbe4864a8e820971c0247f5992e2da559595f7bf076a21cb5928d443d2a13b674"
          ],
          "data": "0x00000000000000000000000000000000000000000000000000000000000000200000000000000000000000000000000000000000000000000000000000000002000000000000000000000000000000000000000000000000000000000000004000000000000000000000000000000000000000000000000000000000000000e0000000000000000000000000000000000000000000000000000000000000000000000000000000000000000000000000000000000000000000000000000000010000000000000000000000000000000000000000000000000000000000000060000000000000000000000000000000000000000000000000000000000000001600030100110100000000000000000000000000013880000000000000000000000000000000000000000000000000000000000000000000000000000000000000000000000000000000000000000000000000000000000000000000000000000100000000000000000000000000000000000000000000000000000000000000600000000000000000000000000000000000000000000000000000000000000016000301001101000000000000000000000000000186a000000000000000000000",
          "blockHash": "0xe5f5f2920e47736b328e5ba6a7f207a4ee0230a34e2f5ca10199e39e38c13bd5",
          "blockNumber": "0x86f88d3",
          "blockTimestamp": "0x68d2eb5f",
          "transactionHash": "0x251a36895c4e6c0cdb273fbe57dbce909cdc07ad35c80bc33f33dba1490c24a8",
          "transactionIndex": "0x28",
          "logIndex": "0x50",
          "removed": false
        }
      ],
      "logsBloom": "0x00000000000000000000000000000000000000000000000000000000000000000000000000000000000000002000000000000000000000000000400000000000000000000000000000000000000000000000000000000000000000000000000000000000000000000000000000000000000000000040000000000000000000000000000000000000000000000000000000000000000000000000000000080000000000000000000000000000000000000000000000000000000000000000000000000000000000000000000002000000000000000000000000000000000000000000100000000000000000000000000000000000000000000000000000000000",
      "type": "0x2",
      "transactionHash": "0x251a36895c4e6c0cdb273fbe57dbce909cdc07ad35c80bc33f33dba1490c24a8",
      "transactionIndex": "0x28",
      "blockHash": "0xe5f5f2920e47736b328e5ba6a7f207a4ee0230a34e2f5ca10199e39e38c13bd5",
      "blockNumber": "0x86f88d3",
      "gasUsed": "0xecb8",
      "effectiveGasPrice": "0xacd",
      "from": "0x0ece75f3c36f7df2136dac7633165dbff53de3cd",
      "to": "0x252d67d23308646cf6dae32a826de24ba21e7c12",
      "contractAddress": null,
      "l1BaseFeeScalar": "0x146b",
      "l1BlobBaseFee": "0x16",
      "l1BlobBaseFeeScalar": "0xf79c5",
      "l1Fee": "0xca3bbf8f",
      "l1GasPrice": "0x1433cf50",
      "l1GasUsed": "0x77b"
    }
  ],
  "libraries": [],
  "pending": [],
  "returns": {},
  "timestamp": 1758653280220,
  "chain": 10,
  "commit": "53213c9"
}