{
  "transactions": [
    {
      "hash": "0x5a3a4ab5a09ba64c993cd2f47ed6011dd9a8b6c8948fc9421ecb589d0374d2e0",
      "transactionType": "CALL",
      "contractName": null,
      "contractAddress": "0x4dbfe8f6a12e3538e4f2b3712ec81cd7a161e3bd",
      "function": "setEnforcedOptions((uint32,uint16,bytes)[])",
      "arguments": [
        "[(30184, 1, 0x000301001101000000000000000000000000007a1200), (30110, 1, 0x00030100110100000000000000000000000000989680)]"
      ],
      "transaction": {
        "from": "0x0ece75f3c36f7df2136dac7633165dbff53de3cd",
        "to": "0x4dbfe8f6a12e3538e4f2b3712ec81cd7a161e3bd",
        "gas": "0xf209",
        "value": "0x0",
        "input": "0xb98bd07000000000000000000000000000000000000000000000000000000000000000200000000000000000000000000000000000000000000000000000000000000002000000000000000000000000000000000000000000000000000000000000004000000000000000000000000000000000000000000000000000000000000000e000000000000000000000000000000000000000000000000000000000000075e8000000000000000000000000000000000000000000000000000000000000000100000000000000000000000000000000000000000000000000000000000000600000000000000000000000000000000000000000000000000000000000000016000301001101000000000000000000000000007a120000000000000000000000000000000000000000000000000000000000000000000000000000000000759e0000000000000000000000000000000000000000000000000000000000000001000000000000000000000000000000000000000000000000000000000000006000000000000000000000000000000000000000000000000000000000000000160003010011010000000000000000000000000098968000000000000000000000",
        "nonce": "0x2e7",
        "chainId": "0x2105"
      },
      "additionalContracts": [],
      "isFixedGasLimit": false
    },
    {
      "hash": "0x5e99f8ba1b9b655ad5ef7d90668d561d7486623d6901d9f5b1ed5f4186ac623f",
      "transactionType": "CALL",
      "contractName": null,
      "contractAddress": "0x90a07246df6cc23c26343fc4595ac71e834dcfd3",
      "function": "setEnforcedOptions((uint32,uint16,bytes)[])",
      "arguments": [
        "[(30184, 1, 0x000301001101000000000000000000000000007a1200), (30110, 1, 0x00030100110100000000000000000000000000989680)]"
      ],
      "transaction": {
        "from": "0x0ece75f3c36f7df2136dac7633165dbff53de3cd",
        "to": "0x90a07246df6cc23c26343fc4595ac71e834dcfd3",
        "gas": "0xf209",
        "value": "0x0",
        "input": "0xb98bd07000000000000000000000000000000000000000000000000000000000000000200000000000000000000000000000000000000000000000000000000000000002000000000000000000000000000000000000000000000000000000000000004000000000000000000000000000000000000000000000000000000000000000e000000000000000000000000000000000000000000000000000000000000075e8000000000000000000000000000000000000000000000000000000000000000100000000000000000000000000000000000000000000000000000000000000600000000000000000000000000000000000000000000000000000000000000016000301001101000000000000000000000000007a120000000000000000000000000000000000000000000000000000000000000000000000000000000000759e0000000000000000000000000000000000000000000000000000000000000001000000000000000000000000000000000000000000000000000000000000006000000000000000000000000000000000000000000000000000000000000000160003010011010000000000000000000000000098968000000000000000000000",
        "nonce": "0x2e8",
        "chainId": "0x2105"
      },
      "additionalContracts": [],
      "isFixedGasLimit": false
    },
    {
      "hash": "0xa5398f48c9cdeca24b4a15534796aa63a04da405fad2890cac6338be2fb0a6ef",
      "transactionType": "CALL",
      "contractName": null,
      "contractAddress": "0x7bfa71d5f8a3bfa35384e14863e299ef20b2652a",
      "function": "setEnforcedOptions((uint32,uint16,bytes)[])",
      "arguments": [
        "[(30184, 1, 0x000301001101000000000000000000000000007a1200), (30110, 1, 0x00030100110100000000000000000000000000989680)]"
      ],
      "transaction": {
        "from": "0x0ece75f3c36f7df2136dac7633165dbff53de3cd",
        "to": "0x7bfa71d5f8a3bfa35384e14863e299ef20b2652a",
        "gas": "0xf209",
        "value": "0x0",
        "input": "0xb98bd07000000000000000000000000000000000000000000000000000000000000000200000000000000000000000000000000000000000000000000000000000000002000000000000000000000000000000000000000000000000000000000000004000000000000000000000000000000000000000000000000000000000000000e000000000000000000000000000000000000000000000000000000000000075e8000000000000000000000000000000000000000000000000000000000000000100000000000000000000000000000000000000000000000000000000000000600000000000000000000000000000000000000000000000000000000000000016000301001101000000000000000000000000007a120000000000000000000000000000000000000000000000000000000000000000000000000000000000759e0000000000000000000000000000000000000000000000000000000000000001000000000000000000000000000000000000000000000000000000000000006000000000000000000000000000000000000000000000000000000000000000160003010011010000000000000000000000000098968000000000000000000000",
        "nonce": "0x2e9",
        "chainId": "0x2105"
      },
      "additionalContracts": [],
      "isFixedGasLimit": false
    },
    {
      "hash": "0xb135ae45de085446b7ca09a86101acb80814322c3c22d495449a814fc268b10c",
      "transactionType": "CALL",
      "contractName": null,
      "contractAddress": "0x08f17ac3389f8a719602681747f668fa4efdbbab",
      "function": "setEnforcedOptions((uint32,uint16,bytes)[])",
      "arguments": [
        "[(30184, 1, 0x000301001101000000000000000000000000007a1200), (30110, 1, 0x00030100110100000000000000000000000000989680)]"
      ],
      "transaction": {
        "from": "0x0ece75f3c36f7df2136dac7633165dbff53de3cd",
        "to": "0x08f17ac3389f8a719602681747f668fa4efdbbab",
        "gas": "0xf209",
        "value": "0x0",
        "input": "0xb98bd07000000000000000000000000000000000000000000000000000000000000000200000000000000000000000000000000000000000000000000000000000000002000000000000000000000000000000000000000000000000000000000000004000000000000000000000000000000000000000000000000000000000000000e000000000000000000000000000000000000000000000000000000000000075e8000000000000000000000000000000000000000000000000000000000000000100000000000000000000000000000000000000000000000000000000000000600000000000000000000000000000000000000000000000000000000000000016000301001101000000000000000000000000007a120000000000000000000000000000000000000000000000000000000000000000000000000000000000759e0000000000000000000000000000000000000000000000000000000000000001000000000000000000000000000000000000000000000000000000000000006000000000000000000000000000000000000000000000000000000000000000160003010011010000000000000000000000000098968000000000000000000000",
        "nonce": "0x2ea",
        "chainId": "0x2105"
      },
      "additionalContracts": [],
      "isFixedGasLimit": false
    },
    {
      "hash": "0xcb8c2c5ff24ba3eb55cc74f54a24db25118b64f992197436fbeffa06e8c9090a",
      "transactionType": "CALL",
      "contractName": null,
      "contractAddress": "0x5bf04cc43cd55167eb0fef1cd6cd15da48c52490",
      "function": "setEnforcedOptions((uint32,uint16,bytes)[])",
      "arguments": [
        "[(30184, 1, 0x000301001101000000000000000000000000007a1200), (30110, 1, 0x00030100110100000000000000000000000000989680)]"
      ],
      "transaction": {
        "from": "0x0ece75f3c36f7df2136dac7633165dbff53de3cd",
        "to": "0x5bf04cc43cd55167eb0fef1cd6cd15da48c52490",
        "gas": "0xf209",
        "value": "0x0",
        "input": "0xb98bd07000000000000000000000000000000000000000000000000000000000000000200000000000000000000000000000000000000000000000000000000000000002000000000000000000000000000000000000000000000000000000000000004000000000000000000000000000000000000000000000000000000000000000e000000000000000000000000000000000000000000000000000000000000075e8000000000000000000000000000000000000000000000000000000000000000100000000000000000000000000000000000000000000000000000000000000600000000000000000000000000000000000000000000000000000000000000016000301001101000000000000000000000000007a120000000000000000000000000000000000000000000000000000000000000000000000000000000000759e0000000000000000000000000000000000000000000000000000000000000001000000000000000000000000000000000000000000000000000000000000006000000000000000000000000000000000000000000000000000000000000000160003010011010000000000000000000000000098968000000000000000000000",
        "nonce": "0x2eb",
        "chainId": "0x2105"
      },
      "additionalContracts": [],
      "isFixedGasLimit": false
    },
    {
      "hash": "0xed4f7dc02cd7303be89fa915bec9797006cdf13f1fa093c8e9201263ed7c5928",
      "transactionType": "CALL",
      "contractName": null,
      "contractAddress": "0xc336a7d6ff896da5e40d91e14e6c916cabe6263f",
      "function": "setEnforcedOptions((uint32,uint16,bytes)[])",
      "arguments": [
        "[(30184, 1, 0x000301001101000000000000000000000000007a1200), (30110, 1, 0x00030100110100000000000000000000000000989680)]"
      ],
      "transaction": {
        "from": "0x0ece75f3c36f7df2136dac7633165dbff53de3cd",
        "to": "0xc336a7d6ff896da5e40d91e14e6c916cabe6263f",
        "gas": "0xf209",
        "value": "0x0",
        "input": "0xb98bd07000000000000000000000000000000000000000000000000000000000000000200000000000000000000000000000000000000000000000000000000000000002000000000000000000000000000000000000000000000000000000000000004000000000000000000000000000000000000000000000000000000000000000e000000000000000000000000000000000000000000000000000000000000075e8000000000000000000000000000000000000000000000000000000000000000100000000000000000000000000000000000000000000000000000000000000600000000000000000000000000000000000000000000000000000000000000016000301001101000000000000000000000000007a120000000000000000000000000000000000000000000000000000000000000000000000000000000000759e0000000000000000000000000000000000000000000000000000000000000001000000000000000000000000000000000000000000000000000000000000006000000000000000000000000000000000000000000000000000000000000000160003010011010000000000000000000000000098968000000000000000000000",
        "nonce": "0x2ec",
        "chainId": "0x2105"
      },
      "additionalContracts": [],
      "isFixedGasLimit": false
    },
    {
      "hash": "0x9e79d74a8934da22dca297e07be167fd972a7537439340c92f1477723e901000",
      "transactionType": "CALL",
      "contractName": null,
      "contractAddress": "0xe4e5cd067e0e4f776aacf6c008140b65efd4d7ca",
      "function": "setEnforcedOptions((uint32,uint16,bytes)[])",
      "arguments": [
        "[(30184, 1, 0x000301001101000000000000000000000000007a1200), (30110, 1, 0x00030100110100000000000000000000000000989680)]"
      ],
      "transaction": {
        "from": "0x0ece75f3c36f7df2136dac7633165dbff53de3cd",
        "to": "0xe4e5cd067e0e4f776aacf6c008140b65efd4d7ca",
        "gas": "0xf209",
        "value": "0x0",
        "input": "0xb98bd07000000000000000000000000000000000000000000000000000000000000000200000000000000000000000000000000000000000000000000000000000000002000000000000000000000000000000000000000000000000000000000000004000000000000000000000000000000000000000000000000000000000000000e000000000000000000000000000000000000000000000000000000000000075e8000000000000000000000000000000000000000000000000000000000000000100000000000000000000000000000000000000000000000000000000000000600000000000000000000000000000000000000000000000000000000000000016000301001101000000000000000000000000007a120000000000000000000000000000000000000000000000000000000000000000000000000000000000759e0000000000000000000000000000000000000000000000000000000000000001000000000000000000000000000000000000000000000000000000000000006000000000000000000000000000000000000000000000000000000000000000160003010011010000000000000000000000000098968000000000000000000000",
        "nonce": "0x2ed",
        "chainId": "0x2105"
      },
      "additionalContracts": [],
      "isFixedGasLimit": false
    }
  ],
  "receipts": [
    {
      "status": "0x1",
      "cumulativeGasUsed": "0x1ced4ff",
      "logs": [
        {
          "address": "0x4dbfe8f6a12e3538e4f2b3712ec81cd7a161e3bd",
          "topics": [
            "0xbe4864a8e820971c0247f5992e2da559595f7bf076a21cb5928d443d2a13b674"
          ],
          "data": "0x00000000000000000000000000000000000000000000000000000000000000200000000000000000000000000000000000000000000000000000000000000002000000000000000000000000000000000000000000000000000000000000004000000000000000000000000000000000000000000000000000000000000000e000000000000000000000000000000000000000000000000000000000000075e8000000000000000000000000000000000000000000000000000000000000000100000000000000000000000000000000000000000000000000000000000000600000000000000000000000000000000000000000000000000000000000000016000301001101000000000000000000000000007a120000000000000000000000000000000000000000000000000000000000000000000000000000000000759e0000000000000000000000000000000000000000000000000000000000000001000000000000000000000000000000000000000000000000000000000000006000000000000000000000000000000000000000000000000000000000000000160003010011010000000000000000000000000098968000000000000000000000",
          "blockHash": "0x91628f5334b12e57006bf23a7124cccd68862ecfe09d46615be5713306fe9abf",
          "blockNumber": "0x2375a43",
          "blockTimestamp": "0x68f91169",
          "transactionHash": "0x5a3a4ab5a09ba64c993cd2f47ed6011dd9a8b6c8948fc9421ecb589d0374d2e0",
          "transactionIndex": "0xb5",
          "logIndex": "0x23a",
          "removed": false
        }
      ],
      "logsBloom": "0x00000000000000000000000000000000000000000000000000000000000000000000000000000000000000000000000000000000040000000000400000000000000000000000000100000000000000000000000000000000000000000000000000000000800000000000000000000000000000000000000000000000000000000000000000000000000000000000000000000000000000000000000000080000000000000000000000000000000000000000000000000000000000000000000000000000000000000000000002000000000000000000000000000000000000000000000000000000000000000000000000000000000000000000000000000000",
      "type": "0x2",
      "transactionHash": "0x5a3a4ab5a09ba64c993cd2f47ed6011dd9a8b6c8948fc9421ecb589d0374d2e0",
      "transactionIndex": "0xb5",
      "blockHash": "0x91628f5334b12e57006bf23a7124cccd68862ecfe09d46615be5713306fe9abf",
      "blockNumber": "0x2375a43",
      "gasUsed": "0xaf3c",
      "effectiveGasPrice": "0x62f1da",
      "from": "0x0ece75f3c36f7df2136dac7633165dbff53de3cd",
      "to": "0x4dbfe8f6a12e3538e4f2b3712ec81cd7a161e3bd",
      "contractAddress": null,
      "l1BaseFeeScalar": "0x8dd",
      "l1BlobBaseFee": "0x9",
      "l1BlobBaseFeeScalar": "0x101c12",
      "l1Fee": "0x5c388e50",
      "l1GasPrice": "0x1264f856",
      "l1GasUsed": "0x8a1"
    },
    {
      "status": "0x1",
      "cumulativeGasUsed": "0x1cf843b",
      "logs": [
        {
          "address": "0x90a07246df6cc23c26343fc4595ac71e834dcfd3",
          "topics": [
            "0xbe4864a8e820971c0247f5992e2da559595f7bf076a21cb5928d443d2a13b674"
          ],
          "data": "0x00000000000000000000000000000000000000000000000000000000000000200000000000000000000000000000000000000000000000000000000000000002000000000000000000000000000000000000000000000000000000000000004000000000000000000000000000000000000000000000000000000000000000e000000000000000000000000000000000000000000000000000000000000075e8000000000000000000000000000000000000000000000000000000000000000100000000000000000000000000000000000000000000000000000000000000600000000000000000000000000000000000000000000000000000000000000016000301001101000000000000000000000000007a120000000000000000000000000000000000000000000000000000000000000000000000000000000000759e0000000000000000000000000000000000000000000000000000000000000001000000000000000000000000000000000000000000000000000000000000006000000000000000000000000000000000000000000000000000000000000000160003010011010000000000000000000000000098968000000000000000000000",
          "blockHash": "0x91628f5334b12e57006bf23a7124cccd68862ecfe09d46615be5713306fe9abf",
          "blockNumber": "0x2375a43",
          "blockTimestamp": "0x68f91169",
          "transactionHash": "0x5e99f8ba1b9b655ad5ef7d90668d561d7486623d6901d9f5b1ed5f4186ac623f",
          "transactionIndex": "0xb6",
          "logIndex": "0x23b",
          "removed": false
        }
      ],
      "logsBloom": "0x00000000000000000000000000000000000000000000000000000000000000000000000000000000000000000000000000000000000000000000400000000000000000000000000000000000000000000000000000000000000000000000000000000000000000000000000008000000000000000000080000000000000000000000000000100000000000000000000000000000000000000000000000080000000000000000000000000000000000000000000000000000000000000000000000000000000000000000000002000000000000000000000000000000000000000000000000000000000000000000000000000000000000000000000000000000",
      "type": "0x2",
      "transactionHash": "0x5e99f8ba1b9b655ad5ef7d90668d561d7486623d6901d9f5b1ed5f4186ac623f",
      "transactionIndex": "0xb6",
      "blockHash": "0x91628f5334b12e57006bf23a7124cccd68862ecfe09d46615be5713306fe9abf",
      "blockNumber": "0x2375a43",
      "gasUsed": "0xaf3c",
      "effectiveGasPrice": "0x62f1da",
      "from": "0x0ece75f3c36f7df2136dac7633165dbff53de3cd",
      "to": "0x90a07246df6cc23c26343fc4595ac71e834dcfd3",
      "contractAddress": null,
      "l1BaseFeeScalar": "0x8dd",
      "l1BlobBaseFee": "0x9",
      "l1BlobBaseFeeScalar": "0x101c12",
      "l1Fee": "0x5c388e50",
      "l1GasPrice": "0x1264f856",
      "l1GasUsed": "0x8a1"
    },
    {
      "status": "0x1",
      "cumulativeGasUsed": "0x1d03377",
      "logs": [
        {
          "address": "0x7bfa71d5f8a3bfa35384e14863e299ef20b2652a",
          "topics": [
            "0xbe4864a8e820971c0247f5992e2da559595f7bf076a21cb5928d443d2a13b674"
          ],
          "data": "0x00000000000000000000000000000000000000000000000000000000000000200000000000000000000000000000000000000000000000000000000000000002000000000000000000000000000000000000000000000000000000000000004000000000000000000000000000000000000000000000000000000000000000e000000000000000000000000000000000000000000000000000000000000075e8000000000000000000000000000000000000000000000000000000000000000100000000000000000000000000000000000000000000000000000000000000600000000000000000000000000000000000000000000000000000000000000016000301001101000000000000000000000000007a120000000000000000000000000000000000000000000000000000000000000000000000000000000000759e0000000000000000000000000000000000000000000000000000000000000001000000000000000000000000000000000000000000000000000000000000006000000000000000000000000000000000000000000000000000000000000000160003010011010000000000000000000000000098968000000000000000000000",
          "blockHash": "0x91628f5334b12e57006bf23a7124cccd68862ecfe09d46615be5713306fe9abf",
          "blockNumber": "0x2375a43",
          "blockTimestamp": "0x68f91169",
          "transactionHash": "0xa5398f48c9cdeca24b4a15534796aa63a04da405fad2890cac6338be2fb0a6ef",
          "transactionIndex": "0xb7",
          "logIndex": "0x23c",
          "removed": false
        }
      ],
      "logsBloom": "0x00000000000000000000000000000000000000000000000000000900000000000000000000000000000000000000000000000000000000000000400000000000000000000000000000000000000000000000000000000000000000000000000000000000000000000000000000400000000000000000000000000000000000000000000000000000000000000000000000000000000000000000000000080000000000000000000000000000000000000000000000000000000000000000000000000000000000000000000002000000000000000000000000000000000000000000000000000000000000000000000000000000000000000000000000000000",
      "type": "0x2",
      "transactionHash": "0xa5398f48c9cdeca24b4a15534796aa63a04da405fad2890cac6338be2fb0a6ef",
      "transactionIndex": "0xb7",
      "blockHash": "0x91628f5334b12e57006bf23a7124cccd68862ecfe09d46615be5713306fe9abf",
      "blockNumber": "0x2375a43",
      "gasUsed": "0xaf3c",
      "effectiveGasPrice": "0x62f1da",
      "from": "0x0ece75f3c36f7df2136dac7633165dbff53de3cd",
      "to": "0x7bfa71d5f8a3bfa35384e14863e299ef20b2652a",
      "contractAddress": null,
      "l1BaseFeeScalar": "0x8dd",
      "l1BlobBaseFee": "0x9",
      "l1BlobBaseFeeScalar": "0x101c12",
      "l1Fee": "0x5c388e50",
      "l1GasPrice": "0x1264f856",
      "l1GasUsed": "0x8a1"
    },
    {
      "status": "0x1",
      "cumulativeGasUsed": "0x1d0e2b3",
      "logs": [
        {
          "address": "0x08f17ac3389f8a719602681747f668fa4efdbbab",
          "topics": [
            "0xbe4864a8e820971c0247f5992e2da559595f7bf076a21cb5928d443d2a13b674"
          ],
          "data": "0x00000000000000000000000000000000000000000000000000000000000000200000000000000000000000000000000000000000000000000000000000000002000000000000000000000000000000000000000000000000000000000000004000000000000000000000000000000000000000000000000000000000000000e000000000000000000000000000000000000000000000000000000000000075e8000000000000000000000000000000000000000000000000000000000000000100000000000000000000000000000000000000000000000000000000000000600000000000000000000000000000000000000000000000000000000000000016000301001101000000000000000000000000007a120000000000000000000000000000000000000000000000000000000000000000000000000000000000759e0000000000000000000000000000000000000000000000000000000000000001000000000000000000000000000000000000000000000000000000000000006000000000000000000000000000000000000000000000000000000000000000160003010011010000000000000000000000000098968000000000000000000000",
          "blockHash": "0x91628f5334b12e57006bf23a7124cccd68862ecfe09d46615be5713306fe9abf",
          "blockNumber": "0x2375a43",
          "blockTimestamp": "0x68f91169",
          "transactionHash": "0xb135ae45de085446b7ca09a86101acb80814322c3c22d495449a814fc268b10c",
          "transactionIndex": "0xb8",
          "logIndex": "0x23d",
          "removed": false
        }
      ],
      "logsBloom": "0x00000000000000000000000000000000000000000000000000000000000000000000000000000000000000000000000000000000000000000000410000000000000000000000000000000000000000000000000000000000000000000000000000000000000000000000000000000000000000400000000000000000000000000000000000000000000000000000000000000010000000000000000000080000000000000000000000000000000000000000000000000000000000000000000000000000000000000000000002000000000000000000000000000000000000000000000000000000000000000000000000000000000000000000000000000000",
      "type": "0x2",
      "transactionHash": "0xb135ae45de085446b7ca09a86101acb80814322c3c22d495449a814fc268b10c",
      "transactionIndex": "0xb8",
      "blockHash": "0x91628f5334b12e57006bf23a7124cccd68862ecfe09d46615be5713306fe9abf",
      "blockNumber": "0x2375a43",
      "gasUsed": "0xaf3c",
      "effectiveGasPrice": "0x62f1da",
      "from": "0x0ece75f3c36f7df2136dac7633165dbff53de3cd",
      "to": "0x08f17ac3389f8a719602681747f668fa4efdbbab",
      "contractAddress": null,
      "l1BaseFeeScalar": "0x8dd",
      "l1BlobBaseFee": "0x9",
      "l1BlobBaseFeeScalar": "0x101c12",
      "l1Fee": "0x5c388e50",
      "l1GasPrice": "0x1264f856",
      "l1GasUsed": "0x8a1"
    },
    {
      "status": "0x1",
      "cumulativeGasUsed": "0x1d191ef",
      "logs": [
        {
          "address": "0x5bf04cc43cd55167eb0fef1cd6cd15da48c52490",
          "topics": [
            "0xbe4864a8e820971c0247f5992e2da559595f7bf076a21cb5928d443d2a13b674"
          ],
          "data": "0x00000000000000000000000000000000000000000000000000000000000000200000000000000000000000000000000000000000000000000000000000000002000000000000000000000000000000000000000000000000000000000000004000000000000000000000000000000000000000000000000000000000000000e000000000000000000000000000000000000000000000000000000000000075e8000000000000000000000000000000000000000000000000000000000000000100000000000000000000000000000000000000000000000000000000000000600000000000000000000000000000000000000000000000000000000000000016000301001101000000000000000000000000007a120000000000000000000000000000000000000000000000000000000000000000000000000000000000759e0000000000000000000000000000000000000000000000000000000000000001000000000000000000000000000000000000000000000000000000000000006000000000000000000000000000000000000000000000000000000000000000160003010011010000000000000000000000000098968000000000000000000000",
          "blockHash": "0x91628f5334b12e57006bf23a7124cccd68862ecfe09d46615be5713306fe9abf",
          "blockNumber": "0x2375a43",
          "blockTimestamp": "0x68f91169",
          "transactionHash": "0xcb8c2c5ff24ba3eb55cc74f54a24db25118b64f992197436fbeffa06e8c9090a",
          "transactionIndex": "0xb9",
          "logIndex": "0x23e",
          "removed": false
        }
      ],
      "logsBloom": "0x00000000000000000000000000000000000000000000000000000000000000000000000000000000000000000000000000000000000000000000400000000000000000000000000000000000000000000000000000000000000000800000010000000000080000000000000000000000000000000000000000000000000000000000000000000000000000000000000000000000000000000000000000080000000000000000000000000000000000000000000000000000000000000000000000000000000000000000000002000000000000000000000000000000000000000000000000000000000000000000000000000000000000000000000000000000",
      "type": "0x2",
      "transactionHash": "0xcb8c2c5ff24ba3eb55cc74f54a24db25118b64f992197436fbeffa06e8c9090a",
      "transactionIndex": "0xb9",
      "blockHash": "0x91628f5334b12e57006bf23a7124cccd68862ecfe09d46615be5713306fe9abf",
      "blockNumber": "0x2375a43",
      "gasUsed": "0xaf3c",
      "effectiveGasPrice": "0x62f1da",
      "from": "0x0ece75f3c36f7df2136dac7633165dbff53de3cd",
      "to": "0x5bf04cc43cd55167eb0fef1cd6cd15da48c52490",
      "contractAddress": null,
      "l1BaseFeeScalar": "0x8dd",
      "l1BlobBaseFee": "0x9",
      "l1BlobBaseFeeScalar": "0x101c12",
      "l1Fee": "0x5c388e50",
      "l1GasPrice": "0x1264f856",
      "l1GasUsed": "0x8a1"
    },
    {
      "status": "0x1",
      "cumulativeGasUsed": "0x1d2412b",
      "logs": [
        {
          "address": "0xc336a7d6ff896da5e40d91e14e6c916cabe6263f",
          "topics": [
            "0xbe4864a8e820971c0247f5992e2da559595f7bf076a21cb5928d443d2a13b674"
          ],
          "data": "0x00000000000000000000000000000000000000000000000000000000000000200000000000000000000000000000000000000000000000000000000000000002000000000000000000000000000000000000000000000000000000000000004000000000000000000000000000000000000000000000000000000000000000e000000000000000000000000000000000000000000000000000000000000075e8000000000000000000000000000000000000000000000000000000000000000100000000000000000000000000000000000000000000000000000000000000600000000000000000000000000000000000000000000000000000000000000016000301001101000000000000000000000000007a120000000000000000000000000000000000000000000000000000000000000000000000000000000000759e0000000000000000000000000000000000000000000000000000000000000001000000000000000000000000000000000000000000000000000000000000006000000000000000000000000000000000000000000000000000000000000000160003010011010000000000000000000000000098968000000000000000000000",
          "blockHash": "0x91628f5334b12e57006bf23a7124cccd68862ecfe09d46615be5713306fe9abf",
          "blockNumber": "0x2375a43",
          "blockTimestamp": "0x68f91169",
          "transactionHash": "0xed4f7dc02cd7303be89fa915bec9797006cdf13f1fa093c8e9201263ed7c5928",
          "transactionIndex": "0xba",
          "logIndex": "0x23f",
          "removed": false
        }
      ],
      "logsBloom": "0x00000000000000000000000000000000000000000000000000000000000000000000400000000000000000000000000000000000000000000000400000000000000000000000000000000000000000000000000000000000000000000000000000000000000000000000000000000000000000000000000000000000000000000000000000000000000000000000000000000000000000000000000000080000000000000000000000000000000000000080002000000000000000000000000000000000000000000000000002000000000000000000000000000000000000000000000000000000000000000000000000000000000000000000000000000000",
      "type": "0x2",
      "transactionHash": "0xed4f7dc02cd7303be89fa915bec9797006cdf13f1fa093c8e9201263ed7c5928",
      "transactionIndex": "0xba",
      "blockHash": "0x91628f5334b12e57006bf23a7124cccd68862ecfe09d46615be5713306fe9abf",
      "blockNumber": "0x2375a43",
      "gasUsed": "0xaf3c",
      "effectiveGasPrice": "0x62f1da",
      "from": "0x0ece75f3c36f7df2136dac7633165dbff53de3cd",
      "to": "0xc336a7d6ff896da5e40d91e14e6c916cabe6263f",
      "contractAddress": null,
      "l1BaseFeeScalar": "0x8dd",
      "l1BlobBaseFee": "0x9",
      "l1BlobBaseFeeScalar": "0x101c12",
      "l1Fee": "0x5c388e50",
      "l1GasPrice": "0x1264f856",
      "l1GasUsed": "0x8a1"
    },
    {
      "status": "0x1",
      "cumulativeGasUsed": "0x1d2f067",
      "logs": [
        {
          "address": "0xe4e5cd067e0e4f776aacf6c008140b65efd4d7ca",
          "topics": [
            "0xbe4864a8e820971c0247f5992e2da559595f7bf076a21cb5928d443d2a13b674"
          ],
          "data": "0x00000000000000000000000000000000000000000000000000000000000000200000000000000000000000000000000000000000000000000000000000000002000000000000000000000000000000000000000000000000000000000000004000000000000000000000000000000000000000000000000000000000000000e000000000000000000000000000000000000000000000000000000000000075e8000000000000000000000000000000000000000000000000000000000000000100000000000000000000000000000000000000000000000000000000000000600000000000000000000000000000000000000000000000000000000000000016000301001101000000000000000000000000007a120000000000000000000000000000000000000000000000000000000000000000000000000000000000759e0000000000000000000000000000000000000000000000000000000000000001000000000000000000000000000000000000000000000000000000000000006000000000000000000000000000000000000000000000000000000000000000160003010011010000000000000000000000000098968000000000000000000000",
          "blockHash": "0x91628f5334b12e57006bf23a7124cccd68862ecfe09d46615be5713306fe9abf",
          "blockNumber": "0x2375a43",
          "blockTimestamp": "0x68f91169",
          "transactionHash": "0x9e79d74a8934da22dca297e07be167fd972a7537439340c92f1477723e901000",
          "transactionIndex": "0xbb",
          "logIndex": "0x240",
          "removed": false
        }
      ],
      "logsBloom": "0x00000000000000000000000000000000000000000000000000000000000000000000000000000000000000200000000000000000000000000000400000000000000000000000000000000000000000000000000000100000000000000000000000000000000000000000000000000000000000000000000000000000000000000000000000000000000000000000000000000000000000000000000000080000000000000000000000000000000000000000000000000000000000000000000000000004000000000000000002000000000000000000000000000000000000000000000000000000000000000000000000000000000000000000000000000000",
      "type": "0x2",
      "transactionHash": "0x9e79d74a8934da22dca297e07be167fd972a7537439340c92f1477723e901000",
      "transactionIndex": "0xbb",
      "blockHash": "0x91628f5334b12e57006bf23a7124cccd68862ecfe09d46615be5713306fe9abf",
      "blockNumber": "0x2375a43",
      "gasUsed": "0xaf3c",
      "effectiveGasPrice": "0x62f1da",
      "from": "0x0ece75f3c36f7df2136dac7633165dbff53de3cd",
      "to": "0xe4e5cd067e0e4f776aacf6c008140b65efd4d7ca",
      "contractAddress": null,
      "l1BaseFeeScalar": "0x8dd",
      "l1BlobBaseFee": "0x9",
      "l1BlobBaseFeeScalar": "0x101c12",
      "l1Fee": "0x5c388e50",
      "l1GasPrice": "0x1264f856",
      "l1GasUsed": "0x8a1"
    }
  ],
  "libraries": [],
  "pending": [],
  "returns": {},
  "timestamp": 1761153386279,
  "chain": 8453,
  "commit": "2861560"
}