{
  "transactions": [
    {
      "hash": "0x3516355e8b4e4e409327ee96c77ff37989eda00476f9b9ee6855a40d84c831ed",
      "transactionType": "CALL",
      "contractName": null,
      "contractAddress": "0x4dbfe8f6a12e3538e4f2b3712ec81cd7a161e3bd",
      "function": "setPeer(uint32,bytes32)",
      "arguments": [
        "30110",
        "0x000000000000000000000000ebb7a56fd2d0231a9bf7240542cbd09a641a29fc"
      ],
      "transaction": {
        "from": "0x0ece75f3c36f7df2136dac7633165dbff53de3cd",
        "to": "0x4dbfe8f6a12e3538e4f2b3712ec81cd7a161e3bd",
        "gas": "0x10162",
        "value": "0x0",
        "input": "0x3400288b000000000000000000000000000000000000000000000000000000000000759e000000000000000000000000ebb7a56fd2d0231a9bf7240542cbd09a641a29fc",
        "nonce": "0x2ab",
        "chainId": "0x2105"
      },
      "additionalContracts": [],
      "isFixedGasLimit": false
    },
    {
      "hash": "0x98a41da029592ae5d90f70583bf03f1f3871333432e5155272a3d6aa851721f5",
      "transactionType": "CALL",
      "contractName": null,
      "contractAddress": "0x90a07246df6cc23c26343fc4595ac71e834dcfd3",
      "function": "setPeer(uint32,bytes32)",
      "arguments": [
        "30110",
        "0x00000000000000000000000067165c24a886aaaf1bfa81934e44a2063c6b608c"
      ],
      "transaction": {
        "from": "0x0ece75f3c36f7df2136dac7633165dbff53de3cd",
        "to": "0x90a07246df6cc23c26343fc4595ac71e834dcfd3",
        "gas": "0x10162",
        "value": "0x0",
        "input": "0x3400288b000000000000000000000000000000000000000000000000000000000000759e00000000000000000000000067165c24a886aaaf1bfa81934e44a2063c6b608c",
        "nonce": "0x2ac",
        "chainId": "0x2105"
      },
      "additionalContracts": [],
      "isFixedGasLimit": false
    },
    {
      "hash": "0x963cba94b9ed482bcb318513f15a2e029d27832f42d2ab6bdd276bda5d7ce9df",
      "transactionType": "CALL",
      "contractName": null,
      "contractAddress": "0x7bfa71d5f8a3bfa35384e14863e299ef20b2652a",
      "function": "setPeer(uint32,bytes32)",
      "arguments": [
        "30110",
        "0x000000000000000000000000a85c480f229fac050ecc53faede343628bc242cb"
      ],
      "transaction": {
        "from": "0x0ece75f3c36f7df2136dac7633165dbff53de3cd",
        "to": "0x7bfa71d5f8a3bfa35384e14863e299ef20b2652a",
        "gas": "0x10162",
        "value": "0x0",
        "input": "0x3400288b000000000000000000000000000000000000000000000000000000000000759e000000000000000000000000a85c480f229fac050ecc53faede343628bc242cb",
        "nonce": "0x2ad",
        "chainId": "0x2105"
      },
      "additionalContracts": [],
      "isFixedGasLimit": false
    },
    {
      "hash": "0x1c28ff3f767491c4c5b7f3ec10c50faf2de8c72b619337fa0b251eddf3e1a8ca",
      "transactionType": "CALL",
      "contractName": null,
      "contractAddress": "0x08f17ac3389f8a719602681747f668fa4efdbbab",
      "function": "setPeer(uint32,bytes32)",
      "arguments": [
        "30110",
        "0x000000000000000000000000eb36aa674745c48381aa3a8074e5485586dbd308"
      ],
      "transaction": {
        "from": "0x0ece75f3c36f7df2136dac7633165dbff53de3cd",
        "to": "0x08f17ac3389f8a719602681747f668fa4efdbbab",
        "gas": "0x10162",
        "value": "0x0",
        "input": "0x3400288b000000000000000000000000000000000000000000000000000000000000759e000000000000000000000000eb36aa674745c48381aa3a8074e5485586dbd308",
        "nonce": "0x2ae",
        "chainId": "0x2105"
      },
      "additionalContracts": [],
      "isFixedGasLimit": false
    },
    {
      "hash": "0x9e5177b1d8363a233e8eb94f6ddf6f822b62565913ce5ed7e79054c489e8ee5a",
      "transactionType": "CALL",
      "contractName": null,
      "contractAddress": "0x5bf04cc43cd55167eb0fef1cd6cd15da48c52490",
      "function": "setPeer(uint32,bytes32)",
      "arguments": [
        "30110",
        "0x000000000000000000000000d506b22a6b3216b736021fa262d0f5d686e07b35"
      ],
      "transaction": {
        "from": "0x0ece75f3c36f7df2136dac7633165dbff53de3cd",
        "to": "0x5bf04cc43cd55167eb0fef1cd6cd15da48c52490",
        "gas": "0x10162",
        "value": "0x0",
        "input": "0x3400288b000000000000000000000000000000000000000000000000000000000000759e000000000000000000000000d506b22a6b3216b736021fa262d0f5d686e07b35",
        "nonce": "0x2af",
        "chainId": "0x2105"
      },
      "additionalContracts": [],
      "isFixedGasLimit": false
    },
    {
      "hash": "0xf9d14da6db0c6947b73f5ba7220f77a8786af6195e0cc4fc191e0f9d8bff5a28",
      "transactionType": "CALL",
      "contractName": null,
      "contractAddress": "0xc336a7d6ff896da5e40d91e14e6c916cabe6263f",
      "function": "setPeer(uint32,bytes32)",
      "arguments": [
        "30110",
        "0x00000000000000000000000002a66b51fc24e08535a6cfe1e11e532d8a089212"
      ],
      "transaction": {
        "from": "0x0ece75f3c36f7df2136dac7633165dbff53de3cd",
        "to": "0xc336a7d6ff896da5e40d91e14e6c916cabe6263f",
        "gas": "0x10162",
        "value": "0x0",
        "input": "0x3400288b000000000000000000000000000000000000000000000000000000000000759e00000000000000000000000002a66b51fc24e08535a6cfe1e11e532d8a089212",
        "nonce": "0x2b0",
        "chainId": "0x2105"
      },
      "additionalContracts": [],
      "isFixedGasLimit": false
    },
    {
      "hash": "0x3e513f57499134cf6b162bec5249b41cf92737f548893d49d1447a0f29f76771",
      "transactionType": "CALL",
      "contractName": null,
      "contractAddress": "0xe4e5cd067e0e4f776aacf6c008140b65efd4d7ca",
      "function": "setPeer(uint32,bytes32)",
      "arguments": [
        "30110",
        "0x000000000000000000000000c3be8ab4ca0cefe3119a765b324bbdf54a16a65b"
      ],
      "transaction": {
        "from": "0x0ece75f3c36f7df2136dac7633165dbff53de3cd",
        "to": "0xe4e5cd067e0e4f776aacf6c008140b65efd4d7ca",
        "gas": "0x10162",
        "value": "0x0",
        "input": "0x3400288b000000000000000000000000000000000000000000000000000000000000759e000000000000000000000000c3be8ab4ca0cefe3119a765b324bbdf54a16a65b",
        "nonce": "0x2b1",
        "chainId": "0x2105"
      },
      "additionalContracts": [],
      "isFixedGasLimit": false
    },
    {
      "hash": "0x07b605b45775aa9d300e34f63654bf439e4fa99301cb49eabbab8dc00c4a21d3",
      "transactionType": "CALL",
      "contractName": null,
      "contractAddress": "0x4dbfe8f6a12e3538e4f2b3712ec81cd7a161e3bd",
      "function": "setEnforcedOptions((uint32,uint16,bytes)[])",
      "arguments": [
        "[(30184, 1, 0x00030100110100000000000000000000000000013880), (30110, 1, 0x000301001101000000000000000000000000000186a0)]"
      ],
      "transaction": {
        "from": "0x0ece75f3c36f7df2136dac7633165dbff53de3cd",
        "to": "0x4dbfe8f6a12e3538e4f2b3712ec81cd7a161e3bd",
        "gas": "0x1aaa2",
        "value": "0x0",
        "input": "0xb98bd07000000000000000000000000000000000000000000000000000000000000000200000000000000000000000000000000000000000000000000000000000000002000000000000000000000000000000000000000000000000000000000000004000000000000000000000000000000000000000000000000000000000000000e000000000000000000000000000000000000000000000000000000000000075e80000000000000000000000000000000000000000000000000000000000000001000000000000000000000000000000000000000000000000000000000000006000000000000000000000000000000000000000000000000000000000000000160003010011010000000000000000000000000001388000000000000000000000000000000000000000000000000000000000000000000000000000000000759e000000000000000000000000000000000000000000000000000000000000000100000000000000000000000000000000000000000000000000000000000000600000000000000000000000000000000000000000000000000000000000000016000301001101000000000000000000000000000186a000000000000000000000",
        "nonce": "0x2b2",
        "chainId": "0x2105"
      },
      "additionalContracts": [],
      "isFixedGasLimit": false
    },
    {
      "hash": "0x7975fa1b34e8045ed4e1c0bf04206d46e13d763e37f1abd9e69d6857e1daa8f1",
      "transactionType": "CALL",
      "contractName": null,
      "contractAddress": "0x90a07246df6cc23c26343fc4595ac71e834dcfd3",
      "function": "setEnforcedOptions((uint32,uint16,bytes)[])",
      "arguments": [
        "[(30184, 1, 0x00030100110100000000000000000000000000013880), (30110, 1, 0x000301001101000000000000000000000000000186a0)]"
      ],
      "transaction": {
        "from": "0x0ece75f3c36f7df2136dac7633165dbff53de3cd",
        "to": "0x90a07246df6cc23c26343fc4595ac71e834dcfd3",
        "gas": "0x1aaa2",
        "value": "0x0",
        "input": "0xb98bd07000000000000000000000000000000000000000000000000000000000000000200000000000000000000000000000000000000000000000000000000000000002000000000000000000000000000000000000000000000000000000000000004000000000000000000000000000000000000000000000000000000000000000e000000000000000000000000000000000000000000000000000000000000075e80000000000000000000000000000000000000000000000000000000000000001000000000000000000000000000000000000000000000000000000000000006000000000000000000000000000000000000000000000000000000000000000160003010011010000000000000000000000000001388000000000000000000000000000000000000000000000000000000000000000000000000000000000759e000000000000000000000000000000000000000000000000000000000000000100000000000000000000000000000000000000000000000000000000000000600000000000000000000000000000000000000000000000000000000000000016000301001101000000000000000000000000000186a000000000000000000000",
        "nonce": "0x2b3",
        "chainId": "0x2105"
      },
      "additionalContracts": [],
      "isFixedGasLimit": false
    },
    {
      "hash": "0xe2b3480018e7f4e597bc9f13bb4529d8a92b526fdc2ee0ea1f14df251edf598a",
      "transactionType": "CALL",
      "contractName": null,
      "contractAddress": "0x7bfa71d5f8a3bfa35384e14863e299ef20b2652a",
      "function": "setEnforcedOptions((uint32,uint16,bytes)[])",
      "arguments": [
        "[(30184, 1, 0x00030100110100000000000000000000000000013880), (30110, 1, 0x000301001101000000000000000000000000000186a0)]"
      ],
      "transaction": {
        "from": "0x0ece75f3c36f7df2136dac7633165dbff53de3cd",
        "to": "0x7bfa71d5f8a3bfa35384e14863e299ef20b2652a",
        "gas": "0x1aaa2",
        "value": "0x0",
        "input": "0xb98bd07000000000000000000000000000000000000000000000000000000000000000200000000000000000000000000000000000000000000000000000000000000002000000000000000000000000000000000000000000000000000000000000004000000000000000000000000000000000000000000000000000000000000000e000000000000000000000000000000000000000000000000000000000000075e80000000000000000000000000000000000000000000000000000000000000001000000000000000000000000000000000000000000000000000000000000006000000000000000000000000000000000000000000000000000000000000000160003010011010000000000000000000000000001388000000000000000000000000000000000000000000000000000000000000000000000000000000000759e000000000000000000000000000000000000000000000000000000000000000100000000000000000000000000000000000000000000000000000000000000600000000000000000000000000000000000000000000000000000000000000016000301001101000000000000000000000000000186a000000000000000000000",
        "nonce": "0x2b4",
        "chainId": "0x2105"
      },
      "additionalContracts": [],
      "isFixedGasLimit": false
    },
    {
      "hash": "0x33e7bf39b3f01049e0275716d7cea3b68d6a1e1fa796b1acb623ec298945fee2",
      "transactionType": "CALL",
      "contractName": null,
      "contractAddress": "0x08f17ac3389f8a719602681747f668fa4efdbbab",
      "function": "setEnforcedOptions((uint32,uint16,bytes)[])",
      "arguments": [
        "[(30184, 1, 0x00030100110100000000000000000000000000013880), (30110, 1, 0x000301001101000000000000000000000000000186a0)]"
      ],
      "transaction": {
        "from": "0x0ece75f3c36f7df2136dac7633165dbff53de3cd",
        "to": "0x08f17ac3389f8a719602681747f668fa4efdbbab",
        "gas": "0x1aaa2",
        "value": "0x0",
        "input": "0xb98bd07000000000000000000000000000000000000000000000000000000000000000200000000000000000000000000000000000000000000000000000000000000002000000000000000000000000000000000000000000000000000000000000004000000000000000000000000000000000000000000000000000000000000000e000000000000000000000000000000000000000000000000000000000000075e80000000000000000000000000000000000000000000000000000000000000001000000000000000000000000000000000000000000000000000000000000006000000000000000000000000000000000000000000000000000000000000000160003010011010000000000000000000000000001388000000000000000000000000000000000000000000000000000000000000000000000000000000000759e000000000000000000000000000000000000000000000000000000000000000100000000000000000000000000000000000000000000000000000000000000600000000000000000000000000000000000000000000000000000000000000016000301001101000000000000000000000000000186a000000000000000000000",
        "nonce": "0x2b5",
        "chainId": "0x2105"
      },
      "additionalContracts": [],
      "isFixedGasLimit": false
    },
    {
      "hash": "0x8567ab01cc660b395089a9caee30153e686398c969c315765070d3d799fe3578",
      "transactionType": "CALL",
      "contractName": null,
      "contractAddress": "0x5bf04cc43cd55167eb0fef1cd6cd15da48c52490",
      "function": "setEnforcedOptions((uint32,uint16,bytes)[])",
      "arguments": [
        "[(30184, 1, 0x00030100110100000000000000000000000000013880), (30110, 1, 0x000301001101000000000000000000000000000186a0)]"
      ],
      "transaction": {
        "from": "0x0ece75f3c36f7df2136dac7633165dbff53de3cd",
        "to": "0x5bf04cc43cd55167eb0fef1cd6cd15da48c52490",
        "gas": "0x1aaa2",
        "value": "0x0",
        "input": "0xb98bd07000000000000000000000000000000000000000000000000000000000000000200000000000000000000000000000000000000000000000000000000000000002000000000000000000000000000000000000000000000000000000000000004000000000000000000000000000000000000000000000000000000000000000e000000000000000000000000000000000000000000000000000000000000075e80000000000000000000000000000000000000000000000000000000000000001000000000000000000000000000000000000000000000000000000000000006000000000000000000000000000000000000000000000000000000000000000160003010011010000000000000000000000000001388000000000000000000000000000000000000000000000000000000000000000000000000000000000759e000000000000000000000000000000000000000000000000000000000000000100000000000000000000000000000000000000000000000000000000000000600000000000000000000000000000000000000000000000000000000000000016000301001101000000000000000000000000000186a000000000000000000000",
        "nonce": "0x2b6",
        "chainId": "0x2105"
      },
      "additionalContracts": [],
      "isFixedGasLimit": false
    },
    {
      "hash": "0x8bc35034fe77ba9d5ec0b703b7b5f4e87887124206d7c4c347a5ea69d4381189",
      "transactionType": "CALL",
      "contractName": null,
      "contractAddress": "0xc336a7d6ff896da5e40d91e14e6c916cabe6263f",
      "function": "setEnforcedOptions((uint32,uint16,bytes)[])",
      "arguments": [
        "[(30184, 1, 0x00030100110100000000000000000000000000013880), (30110, 1, 0x000301001101000000000000000000000000000186a0)]"
      ],
      "transaction": {
        "from": "0x0ece75f3c36f7df2136dac7633165dbff53de3cd",
        "to": "0xc336a7d6ff896da5e40d91e14e6c916cabe6263f",
        "gas": "0x1aaa2",
        "value": "0x0",
        "input": "0xb98bd07000000000000000000000000000000000000000000000000000000000000000200000000000000000000000000000000000000000000000000000000000000002000000000000000000000000000000000000000000000000000000000000004000000000000000000000000000000000000000000000000000000000000000e000000000000000000000000000000000000000000000000000000000000075e80000000000000000000000000000000000000000000000000000000000000001000000000000000000000000000000000000000000000000000000000000006000000000000000000000000000000000000000000000000000000000000000160003010011010000000000000000000000000001388000000000000000000000000000000000000000000000000000000000000000000000000000000000759e000000000000000000000000000000000000000000000000000000000000000100000000000000000000000000000000000000000000000000000000000000600000000000000000000000000000000000000000000000000000000000000016000301001101000000000000000000000000000186a000000000000000000000",
        "nonce": "0x2b7",
        "chainId": "0x2105"
      },
      "additionalContracts": [],
      "isFixedGasLimit": false
    },
    {
      "hash": "0x5c8fdc60b10108fb07a66a603dcbfe867f2e7e18e02c476e3e3d1f5f62f80dc8",
      "transactionType": "CALL",
      "contractName": null,
      "contractAddress": "0xe4e5cd067e0e4f776aacf6c008140b65efd4d7ca",
      "function": "setEnforcedOptions((uint32,uint16,bytes)[])",
      "arguments": [
        "[(30184, 1, 0x00030100110100000000000000000000000000013880), (30110, 1, 0x000301001101000000000000000000000000000186a0)]"
      ],
      "transaction": {
        "from": "0x0ece75f3c36f7df2136dac7633165dbff53de3cd",
        "to": "0xe4e5cd067e0e4f776aacf6c008140b65efd4d7ca",
        "gas": "0x1aaa2",
        "value": "0x0",
        "input": "0xb98bd07000000000000000000000000000000000000000000000000000000000000000200000000000000000000000000000000000000000000000000000000000000002000000000000000000000000000000000000000000000000000000000000004000000000000000000000000000000000000000000000000000000000000000e000000000000000000000000000000000000000000000000000000000000075e80000000000000000000000000000000000000000000000000000000000000001000000000000000000000000000000000000000000000000000000000000006000000000000000000000000000000000000000000000000000000000000000160003010011010000000000000000000000000001388000000000000000000000000000000000000000000000000000000000000000000000000000000000759e000000000000000000000000000000000000000000000000000000000000000100000000000000000000000000000000000000000000000000000000000000600000000000000000000000000000000000000000000000000000000000000016000301001101000000000000000000000000000186a000000000000000000000",
        "nonce": "0x2b8",
        "chainId": "0x2105"
      },
      "additionalContracts": [],
      "isFixedGasLimit": false
    }
  ],
  "receipts": [
    {
      "status": "0x1",
      "cumulativeGasUsed": "0x252816c",
      "logs": [
        {
          "address": "0x4dbfe8f6a12e3538e4f2b3712ec81cd7a161e3bd",
          "topics": [
            "0x238399d427b947898edb290f5ff0f9109849b1c3ba196a42e35f00c50a54b98b"
          ],
          "data": "0x000000000000000000000000000000000000000000000000000000000000759e000000000000000000000000ebb7a56fd2d0231a9bf7240542cbd09a641a29fc",
          "blockHash": "0xf9b4684e7daf84fa962d781fb5ffd5e21d0a2ed255168a085d76c28da049a43a",
          "blockNumber": "0x236b5a1",
          "blockTimestamp": "0x68f7c825",
          "transactionHash": "0x3516355e8b4e4e409327ee96c77ff37989eda00476f9b9ee6855a40d84c831ed",
          "transactionIndex": "0x89",
          "logIndex": "0x34f",
          "removed": false
        }
      ],
      "logsBloom": "0x00000000000000000000000000000000000000000000000000000000000000000000000000000000000000000000000000000000040000000800000000000000000000000000000100000000000000000000000000000000000000000000000000000000800000000000000000000000000000000000000000000000000000000000000000000000000000000000000000000000000000000000000000000000000000000000000000000000000000000000000000000000000002000000000000000000000000000000000000000000000000000000000000040000000000000000000000000000000000000000000000000000000000000000000000000000",
      "type": "0x2",
      "transactionHash": "0x3516355e8b4e4e409327ee96c77ff37989eda00476f9b9ee6855a40d84c831ed",
      "transactionIndex": "0x89",
      "blockHash": "0xf9b4684e7daf84fa962d781fb5ffd5e21d0a2ed255168a085d76c28da049a43a",
      "blockNumber": "0x236b5a1",
      "gasUsed": "0xba58",
      "effectiveGasPrice": "0xac531c",
      "from": "0x0ece75f3c36f7df2136dac7633165dbff53de3cd",
      "to": "0x4dbfe8f6a12e3538e4f2b3712ec81cd7a161e3bd",
      "contractAddress": null,
      "l1BaseFeeScalar": "0x8dd",
      "l1BlobBaseFee": "0x1",
      "l1BlobBaseFeeScalar": "0x101c12",
      "l1Fee": "0x815e5ffd",
      "l1GasPrice": "0x23a2837b",
      "l1GasUsed": "0x640"
    },
    {
      "status": "0x1",
      "cumulativeGasUsed": "0x273d524",
      "logs": [
        {
          "address": "0x90a07246df6cc23c26343fc4595ac71e834dcfd3",
          "topics": [
            "0x238399d427b947898edb290f5ff0f9109849b1c3ba196a42e35f00c50a54b98b"
          ],
          "data": "0x000000000000000000000000000000000000000000000000000000000000759e00000000000000000000000067165c24a886aaaf1bfa81934e44a2063c6b608c",
          "blockHash": "0xf9b4684e7daf84fa962d781fb5ffd5e21d0a2ed255168a085d76c28da049a43a",
          "blockNumber": "0x236b5a1",
          "blockTimestamp": "0x68f7c825",
          "transactionHash": "0x98a41da029592ae5d90f70583bf03f1f3871333432e5155272a3d6aa851721f5",
          "transactionIndex": "0x9b",
          "logIndex": "0x377",
          "removed": false
        }
      ],
      "logsBloom": "0x00000000000000000000000000000000000000000000000000000000000000000000000000000000000000000000000000000000000000000800000000000000000000000000000000000000000000000000000000000000000000000000000000000000000000000000000008000000000000000000080000000000000000000000000000100000000000000000000000000000000000000000000000000000000000000000000000000000000000000000000000000000000002000000000000000000000000000000000000000000000000000000000000040000000000000000000000000000000000000000000000000000000000000000000000000000",
      "type": "0x2",
      "transactionHash": "0x98a41da029592ae5d90f70583bf03f1f3871333432e5155272a3d6aa851721f5",
      "transactionIndex": "0x9b",
      "blockHash": "0xf9b4684e7daf84fa962d781fb5ffd5e21d0a2ed255168a085d76c28da049a43a",
      "blockNumber": "0x236b5a1",
      "gasUsed": "0xba58",
      "effectiveGasPrice": "0xac531c",
      "from": "0x0ece75f3c36f7df2136dac7633165dbff53de3cd",
      "to": "0x90a07246df6cc23c26343fc4595ac71e834dcfd3",
      "contractAddress": null,
      "l1BaseFeeScalar": "0x8dd",
      "l1BlobBaseFee": "0x1",
      "l1BlobBaseFeeScalar": "0x101c12",
      "l1Fee": "0x815e5ffd",
      "l1GasPrice": "0x23a2837b",
      "l1GasUsed": "0x640"
    },
    {
      "status": "0x1",
      "cumulativeGasUsed": "0x2748f7c",
      "logs": [
        {
          "address": "0x7bfa71d5f8a3bfa35384e14863e299ef20b2652a",
          "topics": [
            "0x238399d427b947898edb290f5ff0f9109849b1c3ba196a42e35f00c50a54b98b"
          ],
          "data": "0x000000000000000000000000000000000000000000000000000000000000759e000000000000000000000000a85c480f229fac050ecc53faede343628bc242cb",
          "blockHash": "0xd951ea4d5497c0a09df4749adc23b7591e60d69bd30dd3c9beb29f5ea5b3cc0b",
          "blockNumber": "0x236b5a1",
          "blockTimestamp": "0x68f7c825",
          "transactionHash": "0x963cba94b9ed482bcb318513f15a2e029d27832f42d2ab6bdd276bda5d7ce9df",
          "transactionIndex": "0x9c",
          "logIndex": "0x378",
          "removed": false
        }
      ],
      "logsBloom": "0x00000000000000000000000000000000000000000000000000000900000000000000000000000000000000000000000000000000000000000800000000000000000000000000000000000000000000000000000000000000000000000000000000000000000000000000000000400000000000000000000000000000000000000000000000000000000000000000000000000000000000000000000000000000000000000000000000000000000000000000000000000000000002000000000000000000000000000000000000000000000000000000000000040000000000000000000000000000000000000000000000000000000000000000000000000000",
      "type": "0x2",
      "transactionHash": "0x963cba94b9ed482bcb318513f15a2e029d27832f42d2ab6bdd276bda5d7ce9df",
      "transactionIndex": "0x9c",
      "blockHash": "0xd951ea4d5497c0a09df4749adc23b7591e60d69bd30dd3c9beb29f5ea5b3cc0b",
      "blockNumber": "0x236b5a1",
      "gasUsed": "0xba58",
      "effectiveGasPrice": "0xac531c",
      "from": "0x0ece75f3c36f7df2136dac7633165dbff53de3cd",
      "to": "0x7bfa71d5f8a3bfa35384e14863e299ef20b2652a",
      "contractAddress": null,
      "l1BaseFeeScalar": "0x8dd",
      "l1BlobBaseFee": "0x1",
      "l1BlobBaseFeeScalar": "0x101c12",
      "l1Fee": "0x815e5ffd",
      "l1GasPrice": "0x23a2837b",
      "l1GasUsed": "0x640"
    },
    {
      "status": "0x1",
      "cumulativeGasUsed": "0x27549d4",
      "logs": [
        {
          "address": "0x08f17ac3389f8a719602681747f668fa4efdbbab",
          "topics": [
            "0x238399d427b947898edb290f5ff0f9109849b1c3ba196a42e35f00c50a54b98b"
          ],
          "data": "0x000000000000000000000000000000000000000000000000000000000000759e000000000000000000000000eb36aa674745c48381aa3a8074e5485586dbd308",
          "blockHash": "0xd951ea4d5497c0a09df4749adc23b7591e60d69bd30dd3c9beb29f5ea5b3cc0b",
          "blockNumber": "0x236b5a1",
          "blockTimestamp": "0x68f7c825",
          "transactionHash": "0x1c28ff3f767491c4c5b7f3ec10c50faf2de8c72b619337fa0b251eddf3e1a8ca",
          "transactionIndex": "0x9d",
          "logIndex": "0x379",
          "removed": false
        }
      ],
      "logsBloom": "0x00000000000000000000000000000000000000000000000000000000000000000000000000000000000000000000000000000000000000000800010000000000000000000000000000000000000000000000000000000000000000000000000000000000000000000000000000000000000000400000000000000000000000000000000000000000000000000000000000000010000000000000000000000000000000000000000000000000000000000000000000000000000002000000000000000000000000000000000000000000000000000000000000040000000000000000000000000000000000000000000000000000000000000000000000000000",
      "type": "0x2",
      "transactionHash": "0x1c28ff3f767491c4c5b7f3ec10c50faf2de8c72b619337fa0b251eddf3e1a8ca",
      "transactionIndex": "0x9d",
      "blockHash": "0xd951ea4d5497c0a09df4749adc23b7591e60d69bd30dd3c9beb29f5ea5b3cc0b",
      "blockNumber": "0x236b5a1",
      "gasUsed": "0xba58",
      "effectiveGasPrice": "0xac531c",
      "from": "0x0ece75f3c36f7df2136dac7633165dbff53de3cd",
      "to": "0x08f17ac3389f8a719602681747f668fa4efdbbab",
      "contractAddress": null,
      "l1BaseFeeScalar": "0x8dd",
      "l1BlobBaseFee": "0x1",
      "l1BlobBaseFeeScalar": "0x101c12",
      "l1Fee": "0x815e5ffd",
      "l1GasPrice": "0x23a2837b",
      "l1GasUsed": "0x640"
    },
    {
      "status": "0x1",
      "cumulativeGasUsed": "0x276042c",
      "logs": [
        {
          "address": "0x5bf04cc43cd55167eb0fef1cd6cd15da48c52490",
          "topics": [
            "0x238399d427b947898edb290f5ff0f9109849b1c3ba196a42e35f00c50a54b98b"
          ],
          "data": "0x000000000000000000000000000000000000000000000000000000000000759e000000000000000000000000d506b22a6b3216b736021fa262d0f5d686e07b35",
          "blockHash": "0xf9b4684e7daf84fa962d781fb5ffd5e21d0a2ed255168a085d76c28da049a43a",
          "blockNumber": "0x236b5a1",
          "blockTimestamp": "0x68f7c825",
          "transactionHash": "0x9e5177b1d8363a233e8eb94f6ddf6f822b62565913ce5ed7e79054c489e8ee5a",
          "transactionIndex": "0x9e",
          "logIndex": "0x37a",
          "removed": false
        }
      ],
      "logsBloom": "0x00000000000000000000000000000000000000000000000000000000000000000000000000000000000000000000000000000000000000000800000000000000000000000000000000000000000000000000000000000000000000800000010000000000080000000000000000000000000000000000000000000000000000000000000000000000000000000000000000000000000000000000000000000000000000000000000000000000000000000000000000000000000002000000000000000000000000000000000000000000000000000000000000040000000000000000000000000000000000000000000000000000000000000000000000000000",
      "type": "0x2",
      "transactionHash": "0x9e5177b1d8363a233e8eb94f6ddf6f822b62565913ce5ed7e79054c489e8ee5a",
      "transactionIndex": "0x9e",
      "blockHash": "0xf9b4684e7daf84fa962d781fb5ffd5e21d0a2ed255168a085d76c28da049a43a",
      "blockNumber": "0x236b5a1",
      "gasUsed": "0xba58",
      "effectiveGasPrice": "0xac531c",
      "from": "0x0ece75f3c36f7df2136dac7633165dbff53de3cd",
      "to": "0x5bf04cc43cd55167eb0fef1cd6cd15da48c52490",
      "contractAddress": null,
      "l1BaseFeeScalar": "0x8dd",
      "l1BlobBaseFee": "0x1",
      "l1BlobBaseFeeScalar": "0x101c12",
      "l1Fee": "0x815e5ffd",
      "l1GasPrice": "0x23a2837b",
      "l1GasUsed": "0x640"
    },
    {
      "status": "0x1",
      "cumulativeGasUsed": "0x276be84",
      "logs": [
        {
          "address": "0xc336a7d6ff896da5e40d91e14e6c916cabe6263f",
          "topics": [
            "0x238399d427b947898edb290f5ff0f9109849b1c3ba196a42e35f00c50a54b98b"
          ],
          "data": "0x000000000000000000000000000000000000000000000000000000000000759e00000000000000000000000002a66b51fc24e08535a6cfe1e11e532d8a089212",
          "blockHash": "0xf9b4684e7daf84fa962d781fb5ffd5e21d0a2ed255168a085d76c28da049a43a",
          "blockNumber": "0x236b5a1",
          "blockTimestamp": "0x68f7c825",
          "transactionHash": "0xf9d14da6db0c6947b73f5ba7220f77a8786af6195e0cc4fc191e0f9d8bff5a28",
          "transactionIndex": "0x9f",
          "logIndex": "0x37b",
          "removed": false
        }
      ],
      "logsBloom": "0x00000000000000000000000000000000000000000000000000000000000000000000400000000000000000000000000000000000000000000800000000000000000000000000000000000000000000000000000000000000000000000000000000000000000000000000000000000000000000000000000000000000000000000000000000000000000000000000000000000000000000000000000000000000000000000000000000000000000000000080002000000000000002000000000000000000000000000000000000000000000000000000000000040000000000000000000000000000000000000000000000000000000000000000000000000000",
      "type": "0x2",
      "transactionHash": "0xf9d14da6db0c6947b73f5ba7220f77a8786af6195e0cc4fc191e0f9d8bff5a28",
      "transactionIndex": "0x9f",
      "blockHash": "0xf9b4684e7daf84fa962d781fb5ffd5e21d0a2ed255168a085d76c28da049a43a",
      "blockNumber": "0x236b5a1",
      "gasUsed": "0xba58",
      "effectiveGasPrice": "0xac531c",
      "from": "0x0ece75f3c36f7df2136dac7633165dbff53de3cd",
      "to": "0xc336a7d6ff896da5e40d91e14e6c916cabe6263f",
      "contractAddress": null,
      "l1BaseFeeScalar": "0x8dd",
      "l1BlobBaseFee": "0x1",
      "l1BlobBaseFeeScalar": "0x101c12",
      "l1Fee": "0x815e5ffd",
      "l1GasPrice": "0x23a2837b",
      "l1GasUsed": "0x640"
    },
    {
      "status": "0x1",
      "cumulativeGasUsed": "0x27778dc",
      "logs": [
        {
          "address": "0xe4e5cd067e0e4f776aacf6c008140b65efd4d7ca",
          "topics": [
            "0x238399d427b947898edb290f5ff0f9109849b1c3ba196a42e35f00c50a54b98b"
          ],
          "data": "0x000000000000000000000000000000000000000000000000000000000000759e000000000000000000000000c3be8ab4ca0cefe3119a765b324bbdf54a16a65b",
          "blockHash": "0xd951ea4d5497c0a09df4749adc23b7591e60d69bd30dd3c9beb29f5ea5b3cc0b",
          "blockNumber": "0x236b5a1",
          "blockTimestamp": "0x68f7c825",
          "transactionHash": "0x3e513f57499134cf6b162bec5249b41cf92737f548893d49d1447a0f29f76771",
          "transactionIndex": "0xa0",
          "logIndex": "0x37c",
          "removed": false
        }
      ],
      "logsBloom": "0x00000000000000000000000000000000000000000000000000000000000000000000000000000000000000200000000000000000000000000800000000000000000000000000000000000000000000000000000000100000000000000000000000000000000000000000000000000000000000000000000000000000000000000000000000000000000000000000000000000000000000000000000000000000000000000000000000000000000000000000000000000000000002000000000000000004000000000000000000000000000000000000000000040000000000000000000000000000000000000000000000000000000000000000000000000000",
      "type": "0x2",
      "transactionHash": "0x3e513f57499134cf6b162bec5249b41cf92737f548893d49d1447a0f29f76771",
      "transactionIndex": "0xa0",
      "blockHash": "0xd951ea4d5497c0a09df4749adc23b7591e60d69bd30dd3c9beb29f5ea5b3cc0b",
      "blockNumber": "0x236b5a1",
      "gasUsed": "0xba58",
      "effectiveGasPrice": "0xac531c",
      "from": "0x0ece75f3c36f7df2136dac7633165dbff53de3cd",
      "to": "0xe4e5cd067e0e4f776aacf6c008140b65efd4d7ca",
      "contractAddress": null,
      "l1BaseFeeScalar": "0x8dd",
      "l1BlobBaseFee": "0x1",
      "l1BlobBaseFeeScalar": "0x101c12",
      "l1Fee": "0x815e5ffd",
      "l1GasPrice": "0x23a2837b",
      "l1GasUsed": "0x640"
    },
    {
      "status": "0x1",
      "cumulativeGasUsed": "0xa53fac",
      "logs": [
        {
          "address": "0x4dbfe8f6a12e3538e4f2b3712ec81cd7a161e3bd",
          "topics": [
            "0xbe4864a8e820971c0247f5992e2da559595f7bf076a21cb5928d443d2a13b674"
          ],
          "data": "0x00000000000000000000000000000000000000000000000000000000000000200000000000000000000000000000000000000000000000000000000000000002000000000000000000000000000000000000000000000000000000000000004000000000000000000000000000000000000000000000000000000000000000e000000000000000000000000000000000000000000000000000000000000075e80000000000000000000000000000000000000000000000000000000000000001000000000000000000000000000000000000000000000000000000000000006000000000000000000000000000000000000000000000000000000000000000160003010011010000000000000000000000000001388000000000000000000000000000000000000000000000000000000000000000000000000000000000759e000000000000000000000000000000000000000000000000000000000000000100000000000000000000000000000000000000000000000000000000000000600000000000000000000000000000000000000000000000000000000000000016000301001101000000000000000000000000000186a000000000000000000000",
          "blockHash": "0xa8f8d5493bfabb6ad99562e8483af3a3ed2bb24f24449f60cbdaf36810e5d9f9",
          "blockNumber": "0x236b5a2",
          "blockTimestamp": "0x68f7c827",
          "transactionHash": "0x07b605b45775aa9d300e34f63654bf439e4fa99301cb49eabbab8dc00c4a21d3",
          "transactionIndex": "0x20",
          "logIndex": "0xcb",
          "removed": false
        }
      ],
      "logsBloom": "0x00000000000000000000000000000000000000000000000000000000000000000000000000000000000000000000000000000000040000000000400000000000000000000000000100000000000000000000000000000000000000000000000000000000800000000000000000000000000000000000000000000000000000000000000000000000000000000000000000000000000000000000000000080000000000000000000000000000000000000000000000000000000000000000000000000000000000000000000002000000000000000000000000000000000000000000000000000000000000000000000000000000000000000000000000000000",
      "type": "0x2",
      "transactionHash": "0x07b605b45775aa9d300e34f63654bf439e4fa99301cb49eabbab8dc00c4a21d3",
      "transactionIndex": "0x20",
      "blockHash": "0xa8f8d5493bfabb6ad99562e8483af3a3ed2bb24f24449f60cbdaf36810e5d9f9",
      "blockNumber": "0x236b5a2",
      "gasUsed": "0x134e0",
      "effectiveGasPrice": "0xabf804",
      "from": "0x0ece75f3c36f7df2136dac7633165dbff53de3cd",
      "to": "0x4dbfe8f6a12e3538e4f2b3712ec81cd7a161e3bd",
      "contractAddress": null,
      "l1BaseFeeScalar": "0x8dd",
      "l1BlobBaseFee": "0x1",
      "l1BlobBaseFeeScalar": "0x101c12",
      "l1Fee": "0xfaa323bc",
      "l1GasPrice": "0x242f1ff5",
      "l1GasUsed": "0x8bc"
    },
    {
      "status": "0x1",
      "cumulativeGasUsed": "0xa6748c",
      "logs": [
        {
          "address": "0x90a07246df6cc23c26343fc4595ac71e834dcfd3",
          "topics": [
            "0xbe4864a8e820971c0247f5992e2da559595f7bf076a21cb5928d443d2a13b674"
          ],
          "data": "0x00000000000000000000000000000000000000000000000000000000000000200000000000000000000000000000000000000000000000000000000000000002000000000000000000000000000000000000000000000000000000000000004000000000000000000000000000000000000000000000000000000000000000e000000000000000000000000000000000000000000000000000000000000075e80000000000000000000000000000000000000000000000000000000000000001000000000000000000000000000000000000000000000000000000000000006000000000000000000000000000000000000000000000000000000000000000160003010011010000000000000000000000000001388000000000000000000000000000000000000000000000000000000000000000000000000000000000759e000000000000000000000000000000000000000000000000000000000000000100000000000000000000000000000000000000000000000000000000000000600000000000000000000000000000000000000000000000000000000000000016000301001101000000000000000000000000000186a000000000000000000000",
          "blockHash": "0xa8f8d5493bfabb6ad99562e8483af3a3ed2bb24f24449f60cbdaf36810e5d9f9",
          "blockNumber": "0x236b5a2",
          "blockTimestamp": "0x68f7c827",
          "transactionHash": "0x7975fa1b34e8045ed4e1c0bf04206d46e13d763e37f1abd9e69d6857e1daa8f1",
          "transactionIndex": "0x21",
          "logIndex": "0xcc",
          "removed": false
        }
      ],
      "logsBloom": "0x00000000000000000000000000000000000000000000000000000000000000000000000000000000000000000000000000000000000000000000400000000000000000000000000000000000000000000000000000000000000000000000000000000000000000000000000008000000000000000000080000000000000000000000000000100000000000000000000000000000000000000000000000080000000000000000000000000000000000000000000000000000000000000000000000000000000000000000000002000000000000000000000000000000000000000000000000000000000000000000000000000000000000000000000000000000",
      "type": "0x2",
      "transactionHash": "0x7975fa1b34e8045ed4e1c0bf04206d46e13d763e37f1abd9e69d6857e1daa8f1",
      "transactionIndex": "0x21",
      "blockHash": "0xa8f8d5493bfabb6ad99562e8483af3a3ed2bb24f24449f60cbdaf36810e5d9f9",
      "blockNumber": "0x236b5a2",
      "gasUsed": "0x134e0",
      "effectiveGasPrice": "0xabf804",
      "from": "0x0ece75f3c36f7df2136dac7633165dbff53de3cd",
      "to": "0x90a07246df6cc23c26343fc4595ac71e834dcfd3",
      "contractAddress": null,
      "l1BaseFeeScalar": "0x8dd",
      "l1BlobBaseFee": "0x1",
      "l1BlobBaseFeeScalar": "0x101c12",
      "l1Fee": "0xfaa323bc",
      "l1GasPrice": "0x242f1ff5",
      "l1GasUsed": "0x8bc"
    },
    {
      "status": "0x1",
      "cumulativeGasUsed": "0xa7a96c",
      "logs": [
        {
          "address": "0x7bfa71d5f8a3bfa35384e14863e299ef20b2652a",
          "topics": [
            "0xbe4864a8e820971c0247f5992e2da559595f7bf076a21cb5928d443d2a13b674"
          ],
          "data": "0x00000000000000000000000000000000000000000000000000000000000000200000000000000000000000000000000000000000000000000000000000000002000000000000000000000000000000000000000000000000000000000000004000000000000000000000000000000000000000000000000000000000000000e000000000000000000000000000000000000000000000000000000000000075e80000000000000000000000000000000000000000000000000000000000000001000000000000000000000000000000000000000000000000000000000000006000000000000000000000000000000000000000000000000000000000000000160003010011010000000000000000000000000001388000000000000000000000000000000000000000000000000000000000000000000000000000000000759e000000000000000000000000000000000000000000000000000000000000000100000000000000000000000000000000000000000000000000000000000000600000000000000000000000000000000000000000000000000000000000000016000301001101000000000000000000000000000186a000000000000000000000",
          "blockHash": "0xaa9a775b2434dc457c8eea9a23f445d745bb325620d6b44a5919b295175ad918",
          "blockNumber": "0x236b5a2",
          "blockTimestamp": "0x68f7c827",
          "transactionHash": "0xe2b3480018e7f4e597bc9f13bb4529d8a92b526fdc2ee0ea1f14df251edf598a",
          "transactionIndex": "0x22",
          "logIndex": "0xcd",
          "removed": false
        }
      ],
      "logsBloom": "0x00000000000000000000000000000000000000000000000000000900000000000000000000000000000000000000000000000000000000000000400000000000000000000000000000000000000000000000000000000000000000000000000000000000000000000000000000400000000000000000000000000000000000000000000000000000000000000000000000000000000000000000000000080000000000000000000000000000000000000000000000000000000000000000000000000000000000000000000002000000000000000000000000000000000000000000000000000000000000000000000000000000000000000000000000000000",
      "type": "0x2",
      "transactionHash": "0xe2b3480018e7f4e597bc9f13bb4529d8a92b526fdc2ee0ea1f14df251edf598a",
      "transactionIndex": "0x22",
      "blockHash": "0xaa9a775b2434dc457c8eea9a23f445d745bb325620d6b44a5919b295175ad918",
      "blockNumber": "0x236b5a2",
      "gasUsed": "0x134e0",
      "effectiveGasPrice": "0xabf804",
      "from": "0x0ece75f3c36f7df2136dac7633165dbff53de3cd",
      "to": "0x7bfa71d5f8a3bfa35384e14863e299ef20b2652a",
      "contractAddress": null,
      "l1BaseFeeScalar": "0x8dd",
      "l1BlobBaseFee": "0x1",
      "l1BlobBaseFeeScalar": "0x101c12",
      "l1Fee": "0xb79b83b3",
      "l1GasPrice": "0x242f1ff5",
      "l1GasUsed": "0x8bc"
    },
    {
      "status": "0x1",
      "cumulativeGasUsed": "0xa8de4c",
      "logs": [
        {
          "address": "0x08f17ac3389f8a719602681747f668fa4efdbbab",
          "topics": [
            "0xbe4864a8e820971c0247f5992e2da559595f7bf076a21cb5928d443d2a13b674"
          ],
          "data": "0x00000000000000000000000000000000000000000000000000000000000000200000000000000000000000000000000000000000000000000000000000000002000000000000000000000000000000000000000000000000000000000000004000000000000000000000000000000000000000000000000000000000000000e000000000000000000000000000000000000000000000000000000000000075e80000000000000000000000000000000000000000000000000000000000000001000000000000000000000000000000000000000000000000000000000000006000000000000000000000000000000000000000000000000000000000000000160003010011010000000000000000000000000001388000000000000000000000000000000000000000000000000000000000000000000000000000000000759e000000000000000000000000000000000000000000000000000000000000000100000000000000000000000000000000000000000000000000000000000000600000000000000000000000000000000000000000000000000000000000000016000301001101000000000000000000000000000186a000000000000000000000",
          "blockHash": "0xaa9a775b2434dc457c8eea9a23f445d745bb325620d6b44a5919b295175ad918",
          "blockNumber": "0x236b5a2",
          "blockTimestamp": "0x68f7c827",
          "transactionHash": "0x33e7bf39b3f01049e0275716d7cea3b68d6a1e1fa796b1acb623ec298945fee2",
          "transactionIndex": "0x23",
          "logIndex": "0xce",
          "removed": false
        }
      ],
      "logsBloom": "0x00000000000000000000000000000000000000000000000000000000000000000000000000000000000000000000000000000000000000000000410000000000000000000000000000000000000000000000000000000000000000000000000000000000000000000000000000000000000000400000000000000000000000000000000000000000000000000000000000000010000000000000000000080000000000000000000000000000000000000000000000000000000000000000000000000000000000000000000002000000000000000000000000000000000000000000000000000000000000000000000000000000000000000000000000000000",
      "type": "0x2",
      "transactionHash": "0x33e7bf39b3f01049e0275716d7cea3b68d6a1e1fa796b1acb623ec298945fee2",
      "transactionIndex": "0x23",
      "blockHash": "0xaa9a775b2434dc457c8eea9a23f445d745bb325620d6b44a5919b295175ad918",
      "blockNumber": "0x236b5a2",
      "gasUsed": "0x134e0",
      "effectiveGasPrice": "0xabf804",
      "from": "0x0ece75f3c36f7df2136dac7633165dbff53de3cd",
      "to": "0x08f17ac3389f8a719602681747f668fa4efdbbab",
      "contractAddress": null,
      "l1BaseFeeScalar": "0x8dd",
      "l1BlobBaseFee": "0x1",
      "l1BlobBaseFeeScalar": "0x101c12",
      "l1Fee": "0xb79b83b3",
      "l1GasPrice": "0x242f1ff5",
      "l1GasUsed": "0x8bc"
    },
    {
      "status": "0x1",
      "cumulativeGasUsed": "0xaa132c",
      "logs": [
        {
          "address": "0x5bf04cc43cd55167eb0fef1cd6cd15da48c52490",
          "topics": [
            "0xbe4864a8e820971c0247f5992e2da559595f7bf076a21cb5928d443d2a13b674"
          ],
          "data": "0x00000000000000000000000000000000000000000000000000000000000000200000000000000000000000000000000000000000000000000000000000000002000000000000000000000000000000000000000000000000000000000000004000000000000000000000000000000000000000000000000000000000000000e000000000000000000000000000000000000000000000000000000000000075e80000000000000000000000000000000000000000000000000000000000000001000000000000000000000000000000000000000000000000000000000000006000000000000000000000000000000000000000000000000000000000000000160003010011010000000000000000000000000001388000000000000000000000000000000000000000000000000000000000000000000000000000000000759e000000000000000000000000000000000000000000000000000000000000000100000000000000000000000000000000000000000000000000000000000000600000000000000000000000000000000000000000000000000000000000000016000301001101000000000000000000000000000186a000000000000000000000",
          "blockHash": "0xaa9a775b2434dc457c8eea9a23f445d745bb325620d6b44a5919b295175ad918",
          "blockNumber": "0x236b5a2",
          "blockTimestamp": "0x68f7c827",
          "transactionHash": "0x8567ab01cc660b395089a9caee30153e686398c969c315765070d3d799fe3578",
          "transactionIndex": "0x24",
          "logIndex": "0xcf",
          "removed": false
        }
      ],
      "logsBloom": "0x00000000000000000000000000000000000000000000000000000000000000000000000000000000000000000000000000000000000000000000400000000000000000000000000000000000000000000000000000000000000000800000010000000000080000000000000000000000000000000000000000000000000000000000000000000000000000000000000000000000000000000000000000080000000000000000000000000000000000000000000000000000000000000000000000000000000000000000000002000000000000000000000000000000000000000000000000000000000000000000000000000000000000000000000000000000",
      "type": "0x2",
      "transactionHash": "0x8567ab01cc660b395089a9caee30153e686398c969c315765070d3d799fe3578",
      "transactionIndex": "0x24",
      "blockHash": "0xaa9a775b2434dc457c8eea9a23f445d745bb325620d6b44a5919b295175ad918",
      "blockNumber": "0x236b5a2",
      "gasUsed": "0x134e0",
      "effectiveGasPrice": "0xabf804",
      "from": "0x0ece75f3c36f7df2136dac7633165dbff53de3cd",
      "to": "0x5bf04cc43cd55167eb0fef1cd6cd15da48c52490",
      "contractAddress": null,
      "l1BaseFeeScalar": "0x8dd",
      "l1BlobBaseFee": "0x1",
      "l1BlobBaseFeeScalar": "0x101c12",
      "l1Fee": "0xb79b83b3",
      "l1GasPrice": "0x242f1ff5",
      "l1GasUsed": "0x8bc"
    },
    {
      "status": "0x1",
      "cumulativeGasUsed": "0xab480c",
      "logs": [
        {
          "address": "0xc336a7d6ff896da5e40d91e14e6c916cabe6263f",
          "topics": [
            "0xbe4864a8e820971c0247f5992e2da559595f7bf076a21cb5928d443d2a13b674"
          ],
          "data": "0x00000000000000000000000000000000000000000000000000000000000000200000000000000000000000000000000000000000000000000000000000000002000000000000000000000000000000000000000000000000000000000000004000000000000000000000000000000000000000000000000000000000000000e000000000000000000000000000000000000000000000000000000000000075e80000000000000000000000000000000000000000000000000000000000000001000000000000000000000000000000000000000000000000000000000000006000000000000000000000000000000000000000000000000000000000000000160003010011010000000000000000000000000001388000000000000000000000000000000000000000000000000000000000000000000000000000000000759e000000000000000000000000000000000000000000000000000000000000000100000000000000000000000000000000000000000000000000000000000000600000000000000000000000000000000000000000000000000000000000000016000301001101000000000000000000000000000186a000000000000000000000",
          "blockHash": "0xa8f8d5493bfabb6ad99562e8483af3a3ed2bb24f24449f60cbdaf36810e5d9f9",
          "blockNumber": "0x236b5a2",
          "blockTimestamp": "0x68f7c827",
          "transactionHash": "0x8bc35034fe77ba9d5ec0b703b7b5f4e87887124206d7c4c347a5ea69d4381189",
          "transactionIndex": "0x25",
          "logIndex": "0xd0",
          "removed": false
        }
      ],
      "logsBloom": "0x00000000000000000000000000000000000000000000000000000000000000000000400000000000000000000000000000000000000000000000400000000000000000000000000000000000000000000000000000000000000000000000000000000000000000000000000000000000000000000000000000000000000000000000000000000000000000000000000000000000000000000000000000080000000000000000000000000000000000000080002000000000000000000000000000000000000000000000000002000000000000000000000000000000000000000000000000000000000000000000000000000000000000000000000000000000",
      "type": "0x2",
      "transactionHash": "0x8bc35034fe77ba9d5ec0b703b7b5f4e87887124206d7c4c347a5ea69d4381189",
      "transactionIndex": "0x25",
      "blockHash": "0xa8f8d5493bfabb6ad99562e8483af3a3ed2bb24f24449f60cbdaf36810e5d9f9",
      "blockNumber": "0x236b5a2",
      "gasUsed": "0x134e0",
      "effectiveGasPrice": "0xabf804",
      "from": "0x0ece75f3c36f7df2136dac7633165dbff53de3cd",
      "to": "0xc336a7d6ff896da5e40d91e14e6c916cabe6263f",
      "contractAddress": null,
      "l1BaseFeeScalar": "0x8dd",
      "l1BlobBaseFee": "0x1",
      "l1BlobBaseFeeScalar": "0x101c12",
      "l1Fee": "0xfaa323bc",
      "l1GasPrice": "0x242f1ff5",
      "l1GasUsed": "0x8bc"
    },
    {
      "status": "0x1",
      "cumulativeGasUsed": "0xac7cec",
      "logs": [
        {
          "address": "0xe4e5cd067e0e4f776aacf6c008140b65efd4d7ca",
          "topics": [
            "0xbe4864a8e820971c0247f5992e2da559595f7bf076a21cb5928d443d2a13b674"
          ],
          "data": "0x00000000000000000000000000000000000000000000000000000000000000200000000000000000000000000000000000000000000000000000000000000002000000000000000000000000000000000000000000000000000000000000004000000000000000000000000000000000000000000000000000000000000000e000000000000000000000000000000000000000000000000000000000000075e80000000000000000000000000000000000000000000000000000000000000001000000000000000000000000000000000000000000000000000000000000006000000000000000000000000000000000000000000000000000000000000000160003010011010000000000000000000000000001388000000000000000000000000000000000000000000000000000000000000000000000000000000000759e000000000000000000000000000000000000000000000000000000000000000100000000000000000000000000000000000000000000000000000000000000600000000000000000000000000000000000000000000000000000000000000016000301001101000000000000000000000000000186a000000000000000000000",
          "blockHash": "0xa8f8d5493bfabb6ad99562e8483af3a3ed2bb24f24449f60cbdaf36810e5d9f9",
          "blockNumber": "0x236b5a2",
          "blockTimestamp": "0x68f7c827",
          "transactionHash": "0x5c8fdc60b10108fb07a66a603dcbfe867f2e7e18e02c476e3e3d1f5f62f80dc8",
          "transactionIndex": "0x26",
          "logIndex": "0xd1",
          "removed": false
        }
      ],
      "logsBloom": "0x00000000000000000000000000000000000000000000000000000000000000000000000000000000000000200000000000000000000000000000400000000000000000000000000000000000000000000000000000100000000000000000000000000000000000000000000000000000000000000000000000000000000000000000000000000000000000000000000000000000000000000000000000080000000000000000000000000000000000000000000000000000000000000000000000000004000000000000000002000000000000000000000000000000000000000000000000000000000000000000000000000000000000000000000000000000",
      "type": "0x2",
      "transactionHash": "0x5c8fdc60b10108fb07a66a603dcbfe867f2e7e18e02c476e3e3d1f5f62f80dc8",
      "transactionIndex": "0x26",
      "blockHash": "0xa8f8d5493bfabb6ad99562e8483af3a3ed2bb24f24449f60cbdaf36810e5d9f9",
      "blockNumber": "0x236b5a2",
      "gasUsed": "0x134e0",
      "effectiveGasPrice": "0xabf804",
      "from": "0x0ece75f3c36f7df2136dac7633165dbff53de3cd",
      "to": "0xe4e5cd067e0e4f776aacf6c008140b65efd4d7ca",
      "contractAddress": null,
      "l1BaseFeeScalar": "0x8dd",
      "l1BlobBaseFee": "0x1",
      "l1BlobBaseFeeScalar": "0x101c12",
      "l1Fee": "0xfaa323bc",
      "l1GasPrice": "0x242f1ff5",
      "l1GasUsed": "0x8bc"
    }
  ],
  "libraries": [],
  "pending": [],
  "returns": {},
  "timestamp": 1761069096917,
  "chain": 8453,
  "commit": "df18ae1"
}