{
  "deployments": [
    {
      "transactions": [
        {
          "hash": "0x199a873a5c73a0b97134c4f688b5e45352ece98a3dd90dabce63e0593070e1c0",
          "transactionType": "CALL",
          "contractName": null,
          "contractAddress": "0x1a44076050125825900e736c501f859c50fe728c",
          "function": "setConfig(address,address,(uint32,uint32,bytes)[])",
          "arguments": [
            "0x5A0971E3D6E0793b9FcE640E821435fD8F9Fd906",
            "0xB5320B0B3a13cC860893E2Bd79FCd7e13484Dda2",
            "[(30184, 1, 0x00000000000000000000000000000000000000000000000000000000000027100000000000000000000000002cca08ae69e0c44b18a57ab2a87644234daebae4), (30184, 2, 0x0000000000000000000000000000000000000000000000000000000000000020000000000000000000000000000000000000000000000000000000000000000f000000000000000000000000000000000000000000000000000000000000000200000000000000000000000000000000000000000000000000000000000000ff000000000000000000000000000000000000000000000000000000000000000000000000000000000000000000000000000000000000000000000000000000c000000000000000000000000000000000000000000000000000000000000001200000000000000000000000000000000000000000000000000000000000000002000000000000000000000000554833698ae0fb22ecc90b01222903fd62ca4b47000000000000000000000000a7b5189bca84cd304d8553977c7c614329750d990000000000000000000000000000000000000000000000000000000000000000), (30111, 1, 0x00000000000000000000000000000000000000000000000000000000000027100000000000000000000000002cca08ae69e0c44b18a57ab2a87644234daebae4), (30111, 2, 0x0000000000000000000000000000000000000000000000000000000000000020000000000000000000000000000000000000000000000000000000000000000f000000000000000000000000000000000000000000000000000000000000000200000000000000000000000000000000000000000000000000000000000000ff000000000000000000000000000000000000000000000000000000000000000000000000000000000000000000000000000000000000000000000000000000c000000000000000000000000000000000000000000000000000000000000001200000000000000000000000000000000000000000000000000000000000000002000000000000000000000000554833698ae0fb22ecc90b01222903fd62ca4b47000000000000000000000000a7b5189bca84cd304d8553977c7c614329750d990000000000000000000000000000000000000000000000000000000000000000)]"
          ],
          "transaction": {
            "from": "0x0ece75f3c36f7df2136dac7633165dbff53de3cd",
            "to": "0x1a44076050125825900e736c501f859c50fe728c",
            "gas": "0x6607c",
            "value": "0x0",
            "input": "0x6dbd9f900000000000000000000000005a0971e3d6e0793b9fce640e821435fd8f9fd906000000000000000000000000b5320b0b3a13cc860893e2bd79fcd7e13484dda20000000000000000000000000000000000000000000000000000000000000060000000000000000000000000000000000000000000000000000000000000000400000000000000000000000000000000000000000000000000000000000000800000000000000000000000000000000000000000000000000000000000000140000000000000000000000000000000000000000000000000000000000000032000000000000000000000000000000000000000000000000000000000000003e000000000000000000000000000000000000000000000000000000000000075e800000000000000000000000000000000000000000000000000000000000000010000000000000000000000000000000000000000000000000000000000000060000000000000000000000000000000000000000000000000000000000000004000000000000000000000000000000000000000000000000000000000000027100000000000000000000000002cca08ae69e0c44b18a57ab2a87644234daebae400000000000000000000000000000000000000000000000000000000000075e80000000000000000000000000000000000000000000000000000000000000002000000000000000000000000000000000000000000000000000000000000006000000000000000000000000000000000000000000000000000000000000001600000000000000000000000000000000000000000000000000000000000000020000000000000000000000000000000000000000000000000000000000000000f000000000000000000000000000000000000000000000000000000000000000200000000000000000000000000000000000000000000000000000000000000ff000000000000000000000000000000000000000000000000000000000000000000000000000000000000000000000000000000000000000000000000000000c000000000000000000000000000000000000000000000000000000000000001200000000000000000000000000000000000000000000000000000000000000002000000000000000000000000554833698ae0fb22ecc90b01222903fd62ca4b47000000000000000000000000a7b5189bca84cd304d8553977c7c614329750d990000000000000000000000000000000000000000000000000000000000000000000000000000000000000000000000000000000000000000000000000000759f00000000000000000000000000000000000000000000000000000000000000010000000000000000000000000000000000000000000000000000000000000060000000000000000000000000000000000000000000000000000000000000004000000000000000000000000000000000000000000000000000000000000027100000000000000000000000002cca08ae69e0c44b18a57ab2a87644234daebae4000000000000000000000000000000000000000000000000000000000000759f0000000000000000000000000000000000000000000000000000000000000002000000000000000000000000000000000000000000000000000000000000006000000000000000000000000000000000000000000000000000000000000001600000000000000000000000000000000000000000000000000000000000000020000000000000000000000000000000000000000000000000000000000000000f000000000000000000000000000000000000000000000000000000000000000200000000000000000000000000000000000000000000000000000000000000ff000000000000000000000000000000000000000000000000000000000000000000000000000000000000000000000000000000000000000000000000000000c000000000000000000000000000000000000000000000000000000000000001200000000000000000000000000000000000000000000000000000000000000002000000000000000000000000554833698ae0fb22ecc90b01222903fd62ca4b47000000000000000000000000a7b5189bca84cd304d8553977c7c614329750d990000000000000000000000000000000000000000000000000000000000000000",
            "nonce": "0x19f",
            "chainId": "0x2105"
          },
          "additionalContracts": [],
          "isFixedGasLimit": false
        },
        {
          "hash": "0xa2546c721f45aa6aa0b3725a63c075c4cb453adb140c41c8c78b1d4d5396cf45",
          "transactionType": "CALL",
          "contractName": null,
          "contractAddress": "0x1a44076050125825900e736c501f859c50fe728c",
          "function": "setConfig(address,address,(uint32,uint32,bytes)[])",
          "arguments": [
            "0x2E18Dc8038252fE4855ac66f4aB73Abe3A18B91c",
            "0xB5320B0B3a13cC860893E2Bd79FCd7e13484Dda2",
            "[(30184, 1, 0x00000000000000000000000000000000000000000000000000000000000027100000000000000000000000002cca08ae69e0c44b18a57ab2a87644234daebae4), (30184, 2, 0x0000000000000000000000000000000000000000000000000000000000000020000000000000000000000000000000000000000000000000000000000000000f000000000000000000000000000000000000000000000000000000000000000200000000000000000000000000000000000000000000000000000000000000ff000000000000000000000000000000000000000000000000000000000000000000000000000000000000000000000000000000000000000000000000000000c000000000000000000000000000000000000000000000000000000000000001200000000000000000000000000000000000000000000000000000000000000002000000000000000000000000554833698ae0fb22ecc90b01222903fd62ca4b47000000000000000000000000a7b5189bca84cd304d8553977c7c614329750d990000000000000000000000000000000000000000000000000000000000000000), (30111, 1, 0x00000000000000000000000000000000000000000000000000000000000027100000000000000000000000002cca08ae69e0c44b18a57ab2a87644234daebae4), (30111, 2, 0x0000000000000000000000000000000000000000000000000000000000000020000000000000000000000000000000000000000000000000000000000000000f000000000000000000000000000000000000000000000000000000000000000200000000000000000000000000000000000000000000000000000000000000ff000000000000000000000000000000000000000000000000000000000000000000000000000000000000000000000000000000000000000000000000000000c000000000000000000000000000000000000000000000000000000000000001200000000000000000000000000000000000000000000000000000000000000002000000000000000000000000554833698ae0fb22ecc90b01222903fd62ca4b47000000000000000000000000a7b5189bca84cd304d8553977c7c614329750d990000000000000000000000000000000000000000000000000000000000000000)]"
          ],
          "transaction": {
            "from": "0x0ece75f3c36f7df2136dac7633165dbff53de3cd",
            "to": "0x1a44076050125825900e736c501f859c50fe728c",
            "gas": "0x6607c",
            "value": "0x0",
            "input": "0x6dbd9f900000000000000000000000002e18dc8038252fe4855ac66f4ab73abe3a18b91c000000000000000000000000b5320b0b3a13cc860893e2bd79fcd7e13484dda20000000000000000000000000000000000000000000000000000000000000060000000000000000000000000000000000000000000000000000000000000000400000000000000000000000000000000000000000000000000000000000000800000000000000000000000000000000000000000000000000000000000000140000000000000000000000000000000000000000000000000000000000000032000000000000000000000000000000000000000000000000000000000000003e000000000000000000000000000000000000000000000000000000000000075e800000000000000000000000000000000000000000000000000000000000000010000000000000000000000000000000000000000000000000000000000000060000000000000000000000000000000000000000000000000000000000000004000000000000000000000000000000000000000000000000000000000000027100000000000000000000000002cca08ae69e0c44b18a57ab2a87644234daebae400000000000000000000000000000000000000000000000000000000000075e80000000000000000000000000000000000000000000000000000000000000002000000000000000000000000000000000000000000000000000000000000006000000000000000000000000000000000000000000000000000000000000001600000000000000000000000000000000000000000000000000000000000000020000000000000000000000000000000000000000000000000000000000000000f000000000000000000000000000000000000000000000000000000000000000200000000000000000000000000000000000000000000000000000000000000ff000000000000000000000000000000000000000000000000000000000000000000000000000000000000000000000000000000000000000000000000000000c000000000000000000000000000000000000000000000000000000000000001200000000000000000000000000000000000000000000000000000000000000002000000000000000000000000554833698ae0fb22ecc90b01222903fd62ca4b47000000000000000000000000a7b5189bca84cd304d8553977c7c614329750d990000000000000000000000000000000000000000000000000000000000000000000000000000000000000000000000000000000000000000000000000000759f00000000000000000000000000000000000000000000000000000000000000010000000000000000000000000000000000000000000000000000000000000060000000000000000000000000000000000000000000000000000000000000004000000000000000000000000000000000000000000000000000000000000027100000000000000000000000002cca08ae69e0c44b18a57ab2a87644234daebae4000000000000000000000000000000000000000000000000000000000000759f0000000000000000000000000000000000000000000000000000000000000002000000000000000000000000000000000000000000000000000000000000006000000000000000000000000000000000000000000000000000000000000001600000000000000000000000000000000000000000000000000000000000000020000000000000000000000000000000000000000000000000000000000000000f000000000000000000000000000000000000000000000000000000000000000200000000000000000000000000000000000000000000000000000000000000ff000000000000000000000000000000000000000000000000000000000000000000000000000000000000000000000000000000000000000000000000000000c000000000000000000000000000000000000000000000000000000000000001200000000000000000000000000000000000000000000000000000000000000002000000000000000000000000554833698ae0fb22ecc90b01222903fd62ca4b47000000000000000000000000a7b5189bca84cd304d8553977c7c614329750d990000000000000000000000000000000000000000000000000000000000000000",
            "nonce": "0x1a0",
            "chainId": "0x2105"
          },
          "additionalContracts": [],
          "isFixedGasLimit": false
        },
        {
          "hash": "0x8b100d1c115a985b6a3bf689402f531cec70b35d4bacabb41269eb8c34fa35fe",
          "transactionType": "CALL",
          "contractName": null,
          "contractAddress": "0x1a44076050125825900e736c501f859c50fe728c",
          "function": "setConfig(address,address,(uint32,uint32,bytes)[])",
          "arguments": [
            "0x530a9078023bED663482D26CedB2bDf8d1d881Ea",
            "0xB5320B0B3a13cC860893E2Bd79FCd7e13484Dda2",
            "[(30184, 1, 0x00000000000000000000000000000000000000000000000000000000000027100000000000000000000000002cca08ae69e0c44b18a57ab2a87644234daebae4), (30184, 2, 0x0000000000000000000000000000000000000000000000000000000000000020000000000000000000000000000000000000000000000000000000000000000f000000000000000000000000000000000000000000000000000000000000000200000000000000000000000000000000000000000000000000000000000000ff000000000000000000000000000000000000000000000000000000000000000000000000000000000000000000000000000000000000000000000000000000c000000000000000000000000000000000000000000000000000000000000001200000000000000000000000000000000000000000000000000000000000000002000000000000000000000000554833698ae0fb22ecc90b01222903fd62ca4b47000000000000000000000000a7b5189bca84cd304d8553977c7c614329750d990000000000000000000000000000000000000000000000000000000000000000), (30111, 1, 0x00000000000000000000000000000000000000000000000000000000000027100000000000000000000000002cca08ae69e0c44b18a57ab2a87644234daebae4), (30111, 2, 0x0000000000000000000000000000000000000000000000000000000000000020000000000000000000000000000000000000000000000000000000000000000f000000000000000000000000000000000000000000000000000000000000000200000000000000000000000000000000000000000000000000000000000000ff000000000000000000000000000000000000000000000000000000000000000000000000000000000000000000000000000000000000000000000000000000c000000000000000000000000000000000000000000000000000000000000001200000000000000000000000000000000000000000000000000000000000000002000000000000000000000000554833698ae0fb22ecc90b01222903fd62ca4b47000000000000000000000000a7b5189bca84cd304d8553977c7c614329750d990000000000000000000000000000000000000000000000000000000000000000)]"
          ],
          "transaction": {
            "from": "0x0ece75f3c36f7df2136dac7633165dbff53de3cd",
            "to": "0x1a44076050125825900e736c501f859c50fe728c",
            "gas": "0x6607c",
            "value": "0x0",
            "input": "0x6dbd9f90000000000000000000000000530a9078023bed663482d26cedb2bdf8d1d881ea000000000000000000000000b5320b0b3a13cc860893e2bd79fcd7e13484dda20000000000000000000000000000000000000000000000000000000000000060000000000000000000000000000000000000000000000000000000000000000400000000000000000000000000000000000000000000000000000000000000800000000000000000000000000000000000000000000000000000000000000140000000000000000000000000000000000000000000000000000000000000032000000000000000000000000000000000000000000000000000000000000003e000000000000000000000000000000000000000000000000000000000000075e800000000000000000000000000000000000000000000000000000000000000010000000000000000000000000000000000000000000000000000000000000060000000000000000000000000000000000000000000000000000000000000004000000000000000000000000000000000000000000000000000000000000027100000000000000000000000002cca08ae69e0c44b18a57ab2a87644234daebae400000000000000000000000000000000000000000000000000000000000075e80000000000000000000000000000000000000000000000000000000000000002000000000000000000000000000000000000000000000000000000000000006000000000000000000000000000000000000000000000000000000000000001600000000000000000000000000000000000000000000000000000000000000020000000000000000000000000000000000000000000000000000000000000000f000000000000000000000000000000000000000000000000000000000000000200000000000000000000000000000000000000000000000000000000000000ff000000000000000000000000000000000000000000000000000000000000000000000000000000000000000000000000000000000000000000000000000000c000000000000000000000000000000000000000000000000000000000000001200000000000000000000000000000000000000000000000000000000000000002000000000000000000000000554833698ae0fb22ecc90b01222903fd62ca4b47000000000000000000000000a7b5189bca84cd304d8553977c7c614329750d990000000000000000000000000000000000000000000000000000000000000000000000000000000000000000000000000000000000000000000000000000759f00000000000000000000000000000000000000000000000000000000000000010000000000000000000000000000000000000000000000000000000000000060000000000000000000000000000000000000000000000000000000000000004000000000000000000000000000000000000000000000000000000000000027100000000000000000000000002cca08ae69e0c44b18a57ab2a87644234daebae4000000000000000000000000000000000000000000000000000000000000759f0000000000000000000000000000000000000000000000000000000000000002000000000000000000000000000000000000000000000000000000000000006000000000000000000000000000000000000000000000000000000000000001600000000000000000000000000000000000000000000000000000000000000020000000000000000000000000000000000000000000000000000000000000000f000000000000000000000000000000000000000000000000000000000000000200000000000000000000000000000000000000000000000000000000000000ff000000000000000000000000000000000000000000000000000000000000000000000000000000000000000000000000000000000000000000000000000000c000000000000000000000000000000000000000000000000000000000000001200000000000000000000000000000000000000000000000000000000000000002000000000000000000000000554833698ae0fb22ecc90b01222903fd62ca4b47000000000000000000000000a7b5189bca84cd304d8553977c7c614329750d990000000000000000000000000000000000000000000000000000000000000000",
            "nonce": "0x1a1",
            "chainId": "0x2105"
          },
          "additionalContracts": [],
          "isFixedGasLimit": false
        },
        {
          "hash": "0x874f6fb16b68303a0c9b2ce7ca5ab96c83cc0069d8e88662bdc87ac854d2a50e",
          "transactionType": "CALL",
          "contractName": null,
          "contractAddress": "0x1a44076050125825900e736c501f859c50fe728c",
          "function": "setConfig(address,address,(uint32,uint32,bytes)[])",
          "arguments": [
            "0x2C4FDC631ce418196aB9835aAB82227A62c14c75",
            "0xB5320B0B3a13cC860893E2Bd79FCd7e13484Dda2",
            "[(30184, 1, 0x00000000000000000000000000000000000000000000000000000000000027100000000000000000000000002cca08ae69e0c44b18a57ab2a87644234daebae4), (30184, 2, 0x0000000000000000000000000000000000000000000000000000000000000020000000000000000000000000000000000000000000000000000000000000000f000000000000000000000000000000000000000000000000000000000000000200000000000000000000000000000000000000000000000000000000000000ff000000000000000000000000000000000000000000000000000000000000000000000000000000000000000000000000000000000000000000000000000000c000000000000000000000000000000000000000000000000000000000000001200000000000000000000000000000000000000000000000000000000000000002000000000000000000000000554833698ae0fb22ecc90b01222903fd62ca4b47000000000000000000000000a7b5189bca84cd304d8553977c7c614329750d990000000000000000000000000000000000000000000000000000000000000000), (30111, 1, 0x00000000000000000000000000000000000000000000000000000000000027100000000000000000000000002cca08ae69e0c44b18a57ab2a87644234daebae4), (30111, 2, 0x0000000000000000000000000000000000000000000000000000000000000020000000000000000000000000000000000000000000000000000000000000000f000000000000000000000000000000000000000000000000000000000000000200000000000000000000000000000000000000000000000000000000000000ff000000000000000000000000000000000000000000000000000000000000000000000000000000000000000000000000000000000000000000000000000000c000000000000000000000000000000000000000000000000000000000000001200000000000000000000000000000000000000000000000000000000000000002000000000000000000000000554833698ae0fb22ecc90b01222903fd62ca4b47000000000000000000000000a7b5189bca84cd304d8553977c7c614329750d990000000000000000000000000000000000000000000000000000000000000000)]"
          ],
          "transaction": {
            "from": "0x0ece75f3c36f7df2136dac7633165dbff53de3cd",
            "to": "0x1a44076050125825900e736c501f859c50fe728c",
            "gas": "0x6607c",
            "value": "0x0",
            "input": "0x6dbd9f900000000000000000000000002c4fdc631ce418196ab9835aab82227a62c14c75000000000000000000000000b5320b0b3a13cc860893e2bd79fcd7e13484dda20000000000000000000000000000000000000000000000000000000000000060000000000000000000000000000000000000000000000000000000000000000400000000000000000000000000000000000000000000000000000000000000800000000000000000000000000000000000000000000000000000000000000140000000000000000000000000000000000000000000000000000000000000032000000000000000000000000000000000000000000000000000000000000003e000000000000000000000000000000000000000000000000000000000000075e800000000000000000000000000000000000000000000000000000000000000010000000000000000000000000000000000000000000000000000000000000060000000000000000000000000000000000000000000000000000000000000004000000000000000000000000000000000000000000000000000000000000027100000000000000000000000002cca08ae69e0c44b18a57ab2a87644234daebae400000000000000000000000000000000000000000000000000000000000075e80000000000000000000000000000000000000000000000000000000000000002000000000000000000000000000000000000000000000000000000000000006000000000000000000000000000000000000000000000000000000000000001600000000000000000000000000000000000000000000000000000000000000020000000000000000000000000000000000000000000000000000000000000000f000000000000000000000000000000000000000000000000000000000000000200000000000000000000000000000000000000000000000000000000000000ff000000000000000000000000000000000000000000000000000000000000000000000000000000000000000000000000000000000000000000000000000000c000000000000000000000000000000000000000000000000000000000000001200000000000000000000000000000000000000000000000000000000000000002000000000000000000000000554833698ae0fb22ecc90b01222903fd62ca4b47000000000000000000000000a7b5189bca84cd304d8553977c7c614329750d990000000000000000000000000000000000000000000000000000000000000000000000000000000000000000000000000000000000000000000000000000759f00000000000000000000000000000000000000000000000000000000000000010000000000000000000000000000000000000000000000000000000000000060000000000000000000000000000000000000000000000000000000000000004000000000000000000000000000000000000000000000000000000000000027100000000000000000000000002cca08ae69e0c44b18a57ab2a87644234daebae4000000000000000000000000000000000000000000000000000000000000759f0000000000000000000000000000000000000000000000000000000000000002000000000000000000000000000000000000000000000000000000000000006000000000000000000000000000000000000000000000000000000000000001600000000000000000000000000000000000000000000000000000000000000020000000000000000000000000000000000000000000000000000000000000000f000000000000000000000000000000000000000000000000000000000000000200000000000000000000000000000000000000000000000000000000000000ff000000000000000000000000000000000000000000000000000000000000000000000000000000000000000000000000000000000000000000000000000000c000000000000000000000000000000000000000000000000000000000000001200000000000000000000000000000000000000000000000000000000000000002000000000000000000000000554833698ae0fb22ecc90b01222903fd62ca4b47000000000000000000000000a7b5189bca84cd304d8553977c7c614329750d990000000000000000000000000000000000000000000000000000000000000000",
            "nonce": "0x1a2",
            "chainId": "0x2105"
          },
          "additionalContracts": [],
          "isFixedGasLimit": false
        }
      ],
      "receipts": [
        {
          "status": "0x1",
          "cumulativeGasUsed": "0x2e47842",
          "logs": [
            {
              "address": "0xb5320b0b3a13cc860893e2bd79fcd7e13484dda2",
              "topics": [
                "0x779cb2dd9d2bb1be1737d05435d744facbfb84a2a4912e21379d39beddcdc805"
              ],
              "data": "0x0000000000000000000000005a0971e3d6e0793b9fce640e821435fd8f9fd90600000000000000000000000000000000000000000000000000000000000075e800000000000000000000000000000000000000000000000000000000000027100000000000000000000000002cca08ae69e0c44b18a57ab2a87644234daebae4",
              "blockHash": "0x22577eb280085ade69d5533f9805299ea7a47dadce4f12ed7b358c3be37cccf6",
              "blockNumber": "0x2244437",
              "blockTimestamp": "0x68d2e551",
              "transactionHash": "0x199a873a5c73a0b97134c4f688b5e45352ece98a3dd90dabce63e0593070e1c0",
              "transactionIndex": "0x90",
              "logIndex": "0x2e3",
              "removed": false
            },
            {
              "address": "0xb5320b0b3a13cc860893e2bd79fcd7e13484dda2",
              "topics": [
                "0x82118522aa536ac0e96cc5c689407ae42b89d592aa133890a01f1509842f5081"
              ],
              "data": "0x0000000000000000000000005a0971e3d6e0793b9fce640e821435fd8f9fd90600000000000000000000000000000000000000000000000000000000000075e80000000000000000000000000000000000000000000000000000000000000060000000000000000000000000000000000000000000000000000000000000000f000000000000000000000000000000000000000000000000000000000000000200000000000000000000000000000000000000000000000000000000000000ff000000000000000000000000000000000000000000000000000000000000000000000000000000000000000000000000000000000000000000000000000000c000000000000000000000000000000000000000000000000000000000000001200000000000000000000000000000000000000000000000000000000000000002000000000000000000000000554833698ae0fb22ecc90b01222903fd62ca4b47000000000000000000000000a7b5189bca84cd304d8553977c7c614329750d990000000000000000000000000000000000000000000000000000000000000000",
              "blockHash": "0x22577eb280085ade69d5533f9805299ea7a47dadce4f12ed7b358c3be37cccf6",
              "blockNumber": "0x2244437",
              "blockTimestamp": "0x68d2e551",
              "transactionHash": "0x199a873a5c73a0b97134c4f688b5e45352ece98a3dd90dabce63e0593070e1c0",
              "transactionIndex": "0x90",
              "logIndex": "0x2e4",
              "removed": false
            },
            {
              "address": "0xb5320b0b3a13cc860893e2bd79fcd7e13484dda2",
              "topics": [
                "0x779cb2dd9d2bb1be1737d05435d744facbfb84a2a4912e21379d39beddcdc805"
              ],
              "data": "0x0000000000000000000000005a0971e3d6e0793b9fce640e821435fd8f9fd906000000000000000000000000000000000000000000000000000000000000759f00000000000000000000000000000000000000000000000000000000000027100000000000000000000000002cca08ae69e0c44b18a57ab2a87644234daebae4",
              "blockHash": "0x22577eb280085ade69d5533f9805299ea7a47dadce4f12ed7b358c3be37cccf6",
              "blockNumber": "0x2244437",
              "blockTimestamp": "0x68d2e551",
              "transactionHash": "0x199a873a5c73a0b97134c4f688b5e45352ece98a3dd90dabce63e0593070e1c0",
              "transactionIndex": "0x90",
              "logIndex": "0x2e5",
              "removed": false
            },
            {
              "address": "0xb5320b0b3a13cc860893e2bd79fcd7e13484dda2",
              "topics": [
                "0x82118522aa536ac0e96cc5c689407ae42b89d592aa133890a01f1509842f5081"
              ],
              "data": "0x0000000000000000000000005a0971e3d6e0793b9fce640e821435fd8f9fd906000000000000000000000000000000000000000000000000000000000000759f0000000000000000000000000000000000000000000000000000000000000060000000000000000000000000000000000000000000000000000000000000000f000000000000000000000000000000000000000000000000000000000000000200000000000000000000000000000000000000000000000000000000000000ff000000000000000000000000000000000000000000000000000000000000000000000000000000000000000000000000000000000000000000000000000000c000000000000000000000000000000000000000000000000000000000000001200000000000000000000000000000000000000000000000000000000000000002000000000000000000000000554833698ae0fb22ecc90b01222903fd62ca4b47000000000000000000000000a7b5189bca84cd304d8553977c7c614329750d990000000000000000000000000000000000000000000000000000000000000000",
              "blockHash": "0x22577eb280085ade69d5533f9805299ea7a47dadce4f12ed7b358c3be37cccf6",
              "blockNumber": "0x2244437",
              "blockTimestamp": "0x68d2e551",
              "transactionHash": "0x199a873a5c73a0b97134c4f688b5e45352ece98a3dd90dabce63e0593070e1c0",
              "transactionIndex": "0x90",
              "logIndex": "0x2e6",
              "removed": false
            }
          ],
          "logsBloom": "0x00000000000000000000000000000000000000000000000000000000000000000000000000000000000000000000000000000000000000000000000000000000000000000000000000000440000000000000000000000000002000000000000100000000000000000000000000000000000000000000000000000000000000000000000000000000000000000000000000000000000000000004000000000000000000000000000000000002000000000000000000000000000000000000000200000000000000000000000000000000000000000000000000000000000000000008000000000000000000000000000000000000000000000000000000000010",
          "type": "0x2",
          "transactionHash": "0x199a873a5c73a0b97134c4f688b5e45352ece98a3dd90dabce63e0593070e1c0",
          "transactionIndex": "0x90",
          "blockHash": "0x22577eb280085ade69d5533f9805299ea7a47dadce4f12ed7b358c3be37cccf6",
          "blockNumber": "0x2244437",
          "gasUsed": "0x49de4",
          "effectiveGasPrice": "0x48e2e1",
          "from": "0x0ece75f3c36f7df2136dac7633165dbff53de3cd",
          "to": "0x1a44076050125825900e736c501f859c50fe728c",
          "contractAddress": null,
          "l1BaseFeeScalar": "0x8dd",
          "l1BlobBaseFee": "0x14",
          "l1BlobBaseFeeScalar": "0x101c12",
          "l1Fee": "0xf0a27dfd",
          "l1GasPrice": "0x15f1bac3",
          "l1GasUsed": "0x12e0"
        },
        {
          "status": "0x1",
          "cumulativeGasUsed": "0x2e91626",
          "logs": [
            {
              "address": "0xb5320b0b3a13cc860893e2bd79fcd7e13484dda2",
              "topics": [
                "0x779cb2dd9d2bb1be1737d05435d744facbfb84a2a4912e21379d39beddcdc805"
              ],
              "data": "0x0000000000000000000000002e18dc8038252fe4855ac66f4ab73abe3a18b91c00000000000000000000000000000000000000000000000000000000000075e800000000000000000000000000000000000000000000000000000000000027100000000000000000000000002cca08ae69e0c44b18a57ab2a87644234daebae4",
              "blockHash": "0x22577eb280085ade69d5533f9805299ea7a47dadce4f12ed7b358c3be37cccf6",
              "blockNumber": "0x2244437",
              "blockTimestamp": "0x68d2e551",
              "transactionHash": "0xa2546c721f45aa6aa0b3725a63c075c4cb453adb140c41c8c78b1d4d5396cf45",
              "transactionIndex": "0x91",
              "logIndex": "0x2e7",
              "removed": false
            },
            {
              "address": "0xb5320b0b3a13cc860893e2bd79fcd7e13484dda2",
              "topics": [
                "0x82118522aa536ac0e96cc5c689407ae42b89d592aa133890a01f1509842f5081"
              ],
              "data": "0x0000000000000000000000002e18dc8038252fe4855ac66f4ab73abe3a18b91c00000000000000000000000000000000000000000000000000000000000075e80000000000000000000000000000000000000000000000000000000000000060000000000000000000000000000000000000000000000000000000000000000f000000000000000000000000000000000000000000000000000000000000000200000000000000000000000000000000000000000000000000000000000000ff000000000000000000000000000000000000000000000000000000000000000000000000000000000000000000000000000000000000000000000000000000c000000000000000000000000000000000000000000000000000000000000001200000000000000000000000000000000000000000000000000000000000000002000000000000000000000000554833698ae0fb22ecc90b01222903fd62ca4b47000000000000000000000000a7b5189bca84cd304d8553977c7c614329750d990000000000000000000000000000000000000000000000000000000000000000",
              "blockHash": "0x22577eb280085ade69d5533f9805299ea7a47dadce4f12ed7b358c3be37cccf6",
              "blockNumber": "0x2244437",
              "blockTimestamp": "0x68d2e551",
              "transactionHash": "0xa2546c721f45aa6aa0b3725a63c075c4cb453adb140c41c8c78b1d4d5396cf45",
              "transactionIndex": "0x91",
              "logIndex": "0x2e8",
              "removed": false
            },
            {
              "address": "0xb5320b0b3a13cc860893e2bd79fcd7e13484dda2",
              "topics": [
                "0x779cb2dd9d2bb1be1737d05435d744facbfb84a2a4912e21379d39beddcdc805"
              ],
              "data": "0x0000000000000000000000002e18dc8038252fe4855ac66f4ab73abe3a18b91c000000000000000000000000000000000000000000000000000000000000759f00000000000000000000000000000000000000000000000000000000000027100000000000000000000000002cca08ae69e0c44b18a57ab2a87644234daebae4",
              "blockHash": "0x22577eb280085ade69d5533f9805299ea7a47dadce4f12ed7b358c3be37cccf6",
              "blockNumber": "0x2244437",
              "blockTimestamp": "0x68d2e551",
              "transactionHash": "0xa2546c721f45aa6aa0b3725a63c075c4cb453adb140c41c8c78b1d4d5396cf45",
              "transactionIndex": "0x91",
              "logIndex": "0x2e9",
              "removed": false
            },
            {
              "address": "0xb5320b0b3a13cc860893e2bd79fcd7e13484dda2",
              "topics": [
                "0x82118522aa536ac0e96cc5c689407ae42b89d592aa133890a01f1509842f5081"
              ],
              "data": "0x0000000000000000000000002e18dc8038252fe4855ac66f4ab73abe3a18b91c000000000000000000000000000000000000000000000000000000000000759f0000000000000000000000000000000000000000000000000000000000000060000000000000000000000000000000000000000000000000000000000000000f000000000000000000000000000000000000000000000000000000000000000200000000000000000000000000000000000000000000000000000000000000ff000000000000000000000000000000000000000000000000000000000000000000000000000000000000000000000000000000000000000000000000000000c000000000000000000000000000000000000000000000000000000000000001200000000000000000000000000000000000000000000000000000000000000002000000000000000000000000554833698ae0fb22ecc90b01222903fd62ca4b47000000000000000000000000a7b5189bca84cd304d8553977c7c614329750d990000000000000000000000000000000000000000000000000000000000000000",
              "blockHash": "0x22577eb280085ade69d5533f9805299ea7a47dadce4f12ed7b358c3be37cccf6",
              "blockNumber": "0x2244437",
              "blockTimestamp": "0x68d2e551",
              "transactionHash": "0xa2546c721f45aa6aa0b3725a63c075c4cb453adb140c41c8c78b1d4d5396cf45",
              "transactionIndex": "0x91",
              "logIndex": "0x2ea",
              "removed": false
            }
          ],
          "logsBloom": "0x00000000000000000000000000000000000000000000000000000000000000000000000000000000000000000000000000000000000000000000000000000000000000000000000000000440000000000000000000000000002000000000000100000000000000000000000000000000000000000000000000000000000000000000000000000000000000000000000000000000000000000004000000000000000000000000000000000002000000000000000000000000000000000000000200000000000000000000000000000000000000000000000000000000000000000008000000000000000000000000000000000000000000000000000000000010",
          "type": "0x2",
          "transactionHash": "0xa2546c721f45aa6aa0b3725a63c075c4cb453adb140c41c8c78b1d4d5396cf45",
          "transactionIndex": "0x91",
          "blockHash": "0x22577eb280085ade69d5533f9805299ea7a47dadce4f12ed7b358c3be37cccf6",
          "blockNumber": "0x2244437",
          "gasUsed": "0x49de4",
          "effectiveGasPrice": "0x48e2e1",
          "from": "0x0ece75f3c36f7df2136dac7633165dbff53de3cd",
          "to": "0x1a44076050125825900e736c501f859c50fe728c",
          "contractAddress": null,
          "l1BaseFeeScalar": "0x8dd",
          "l1BlobBaseFee": "0x14",
          "l1BlobBaseFeeScalar": "0x101c12",
          "l1Fee": "0xf0a27dfd",
          "l1GasPrice": "0x15f1bac3",
          "l1GasUsed": "0x12e0"
        },
        {
          "status": "0x1",
          "cumulativeGasUsed": "0x2edb40a",
          "logs": [
            {
              "address": "0xb5320b0b3a13cc860893e2bd79fcd7e13484dda2",
              "topics": [
                "0x779cb2dd9d2bb1be1737d05435d744facbfb84a2a4912e21379d39beddcdc805"
              ],
              "data": "0x000000000000000000000000530a9078023bed663482d26cedb2bdf8d1d881ea00000000000000000000000000000000000000000000000000000000000075e800000000000000000000000000000000000000000000000000000000000027100000000000000000000000002cca08ae69e0c44b18a57ab2a87644234daebae4",
              "blockHash": "0x22577eb280085ade69d5533f9805299ea7a47dadce4f12ed7b358c3be37cccf6",
              "blockNumber": "0x2244437",
              "blockTimestamp": "0x68d2e551",
              "transactionHash": "0x8b100d1c115a985b6a3bf689402f531cec70b35d4bacabb41269eb8c34fa35fe",
              "transactionIndex": "0x92",
              "logIndex": "0x2eb",
              "removed": false
            },
            {
              "address": "0xb5320b0b3a13cc860893e2bd79fcd7e13484dda2",
              "topics": [
                "0x82118522aa536ac0e96cc5c689407ae42b89d592aa133890a01f1509842f5081"
              ],
              "data": "0x000000000000000000000000530a9078023bed663482d26cedb2bdf8d1d881ea00000000000000000000000000000000000000000000000000000000000075e80000000000000000000000000000000000000000000000000000000000000060000000000000000000000000000000000000000000000000000000000000000f000000000000000000000000000000000000000000000000000000000000000200000000000000000000000000000000000000000000000000000000000000ff000000000000000000000000000000000000000000000000000000000000000000000000000000000000000000000000000000000000000000000000000000c000000000000000000000000000000000000000000000000000000000000001200000000000000000000000000000000000000000000000000000000000000002000000000000000000000000554833698ae0fb22ecc90b01222903fd62ca4b47000000000000000000000000a7b5189bca84cd304d8553977c7c614329750d990000000000000000000000000000000000000000000000000000000000000000",
              "blockHash": "0x22577eb280085ade69d5533f9805299ea7a47dadce4f12ed7b358c3be37cccf6",
              "blockNumber": "0x2244437",
              "blockTimestamp": "0x68d2e551",
              "transactionHash": "0x8b100d1c115a985b6a3bf689402f531cec70b35d4bacabb41269eb8c34fa35fe",
              "transactionIndex": "0x92",
              "logIndex": "0x2ec",
              "removed": false
            },
            {
              "address": "0xb5320b0b3a13cc860893e2bd79fcd7e13484dda2",
              "topics": [
                "0x779cb2dd9d2bb1be1737d05435d744facbfb84a2a4912e21379d39beddcdc805"
              ],
              "data": "0x000000000000000000000000530a9078023bed663482d26cedb2bdf8d1d881ea000000000000000000000000000000000000000000000000000000000000759f00000000000000000000000000000000000000000000000000000000000027100000000000000000000000002cca08ae69e0c44b18a57ab2a87644234daebae4",
              "blockHash": "0x22577eb280085ade69d5533f9805299ea7a47dadce4f12ed7b358c3be37cccf6",
              "blockNumber": "0x2244437",
              "blockTimestamp": "0x68d2e551",
              "transactionHash": "0x8b100d1c115a985b6a3bf689402f531cec70b35d4bacabb41269eb8c34fa35fe",
              "transactionIndex": "0x92",
              "logIndex": "0x2ed",
              "removed": false
            },
            {
              "address": "0xb5320b0b3a13cc860893e2bd79fcd7e13484dda2",
              "topics": [
                "0x82118522aa536ac0e96cc5c689407ae42b89d592aa133890a01f1509842f5081"
              ],
              "data": "0x000000000000000000000000530a9078023bed663482d26cedb2bdf8d1d881ea000000000000000000000000000000000000000000000000000000000000759f0000000000000000000000000000000000000000000000000000000000000060000000000000000000000000000000000000000000000000000000000000000f000000000000000000000000000000000000000000000000000000000000000200000000000000000000000000000000000000000000000000000000000000ff000000000000000000000000000000000000000000000000000000000000000000000000000000000000000000000000000000000000000000000000000000c000000000000000000000000000000000000000000000000000000000000001200000000000000000000000000000000000000000000000000000000000000002000000000000000000000000554833698ae0fb22ecc90b01222903fd62ca4b47000000000000000000000000a7b5189bca84cd304d8553977c7c614329750d990000000000000000000000000000000000000000000000000000000000000000",
              "blockHash": "0x22577eb280085ade69d5533f9805299ea7a47dadce4f12ed7b358c3be37cccf6",
              "blockNumber": "0x2244437",
              "blockTimestamp": "0x68d2e551",
              "transactionHash": "0x8b100d1c115a985b6a3bf689402f531cec70b35d4bacabb41269eb8c34fa35fe",
              "transactionIndex": "0x92",
              "logIndex": "0x2ee",
              "removed": false
            }
          ],
          "logsBloom": "0x00000000000000000000000000000000000000000000000000000000000000000000000000000000000000000000000000000000000000000000000000000000000000000000000000000440000000000000000000000000002000000000000100000000000000000000000000000000000000000000000000000000000000000000000000000000000000000000000000000000000000000004000000000000000000000000000000000002000000000000000000000000000000000000000200000000000000000000000000000000000000000000000000000000000000000008000000000000000000000000000000000000000000000000000000000010",
          "type": "0x2",
          "transactionHash": "0x8b100d1c115a985b6a3bf689402f531cec70b35d4bacabb41269eb8c34fa35fe",
          "transactionIndex": "0x92",
          "blockHash": "0x22577eb280085ade69d5533f9805299ea7a47dadce4f12ed7b358c3be37cccf6",
          "blockNumber": "0x2244437",
          "gasUsed": "0x49de4",
          "effectiveGasPrice": "0x48e2e1",
          "from": "0x0ece75f3c36f7df2136dac7633165dbff53de3cd",
          "to": "0x1a44076050125825900e736c501f859c50fe728c",
          "contractAddress": null,
          "l1BaseFeeScalar": "0x8dd",
          "l1BlobBaseFee": "0x14",
          "l1BlobBaseFeeScalar": "0x101c12",
          "l1Fee": "0xf0a27dfd",
          "l1GasPrice": "0x15f1bac3",
          "l1GasUsed": "0x12e0"
        },
        {
          "status": "0x1",
          "cumulativeGasUsed": "0x2f251ee",
          "logs": [
            {
              "address": "0xb5320b0b3a13cc860893e2bd79fcd7e13484dda2",
              "topics": [
                "0x779cb2dd9d2bb1be1737d05435d744facbfb84a2a4912e21379d39beddcdc805"
              ],
              "data": "0x0000000000000000000000002c4fdc631ce418196ab9835aab82227a62c14c7500000000000000000000000000000000000000000000000000000000000075e800000000000000000000000000000000000000000000000000000000000027100000000000000000000000002cca08ae69e0c44b18a57ab2a87644234daebae4",
              "blockHash": "0x22577eb280085ade69d5533f9805299ea7a47dadce4f12ed7b358c3be37cccf6",
              "blockNumber": "0x2244437",
              "blockTimestamp": "0x68d2e551",
              "transactionHash": "0x874f6fb16b68303a0c9b2ce7ca5ab96c83cc0069d8e88662bdc87ac854d2a50e",
              "transactionIndex": "0x93",
              "logIndex": "0x2ef",
              "removed": false
            },
            {
              "address": "0xb5320b0b3a13cc860893e2bd79fcd7e13484dda2",
              "topics": [
                "0x82118522aa536ac0e96cc5c689407ae42b89d592aa133890a01f1509842f5081"
              ],
              "data": "0x0000000000000000000000002c4fdc631ce418196ab9835aab82227a62c14c7500000000000000000000000000000000000000000000000000000000000075e80000000000000000000000000000000000000000000000000000000000000060000000000000000000000000000000000000000000000000000000000000000f000000000000000000000000000000000000000000000000000000000000000200000000000000000000000000000000000000000000000000000000000000ff000000000000000000000000000000000000000000000000000000000000000000000000000000000000000000000000000000000000000000000000000000c000000000000000000000000000000000000000000000000000000000000001200000000000000000000000000000000000000000000000000000000000000002000000000000000000000000554833698ae0fb22ecc90b01222903fd62ca4b47000000000000000000000000a7b5189bca84cd304d8553977c7c614329750d990000000000000000000000000000000000000000000000000000000000000000",
              "blockHash": "0x22577eb280085ade69d5533f9805299ea7a47dadce4f12ed7b358c3be37cccf6",
              "blockNumber": "0x2244437",
              "blockTimestamp": "0x68d2e551",
              "transactionHash": "0x874f6fb16b68303a0c9b2ce7ca5ab96c83cc0069d8e88662bdc87ac854d2a50e",
              "transactionIndex": "0x93",
              "logIndex": "0x2f0",
              "removed": false
            },
            {
              "address": "0xb5320b0b3a13cc860893e2bd79fcd7e13484dda2",
              "topics": [
                "0x779cb2dd9d2bb1be1737d05435d744facbfb84a2a4912e21379d39beddcdc805"
              ],
              "data": "0x0000000000000000000000002c4fdc631ce418196ab9835aab82227a62c14c75000000000000000000000000000000000000000000000000000000000000759f00000000000000000000000000000000000000000000000000000000000027100000000000000000000000002cca08ae69e0c44b18a57ab2a87644234daebae4",
              "blockHash": "0x22577eb280085ade69d5533f9805299ea7a47dadce4f12ed7b358c3be37cccf6",
              "blockNumber": "0x2244437",
              "blockTimestamp": "0x68d2e551",
              "transactionHash": "0x874f6fb16b68303a0c9b2ce7ca5ab96c83cc0069d8e88662bdc87ac854d2a50e",
              "transactionIndex": "0x93",
              "logIndex": "0x2f1",
              "removed": false
            },
            {
              "address": "0xb5320b0b3a13cc860893e2bd79fcd7e13484dda2",
              "topics": [
                "0x82118522aa536ac0e96cc5c689407ae42b89d592aa133890a01f1509842f5081"
              ],
              "data": "0x0000000000000000000000002c4fdc631ce418196ab9835aab82227a62c14c75000000000000000000000000000000000000000000000000000000000000759f0000000000000000000000000000000000000000000000000000000000000060000000000000000000000000000000000000000000000000000000000000000f000000000000000000000000000000000000000000000000000000000000000200000000000000000000000000000000000000000000000000000000000000ff000000000000000000000000000000000000000000000000000000000000000000000000000000000000000000000000000000000000000000000000000000c000000000000000000000000000000000000000000000000000000000000001200000000000000000000000000000000000000000000000000000000000000002000000000000000000000000554833698ae0fb22ecc90b01222903fd62ca4b47000000000000000000000000a7b5189bca84cd304d8553977c7c614329750d990000000000000000000000000000000000000000000000000000000000000000",
              "blockHash": "0x22577eb280085ade69d5533f9805299ea7a47dadce4f12ed7b358c3be37cccf6",
              "blockNumber": "0x2244437",
              "blockTimestamp": "0x68d2e551",
              "transactionHash": "0x874f6fb16b68303a0c9b2ce7ca5ab96c83cc0069d8e88662bdc87ac854d2a50e",
              "transactionIndex": "0x93",
              "logIndex": "0x2f2",
              "removed": false
            }
          ],
          "logsBloom": "0x00000000000000000000000000000000000000000000000000000000000000000000000000000000000000000000000000000000000000000000000000000000000000000000000000000440000000000000000000000000002000000000000100000000000000000000000000000000000000000000000000000000000000000000000000000000000000000000000000000000000000000004000000000000000000000000000000000002000000000000000000000000000000000000000200000000000000000000000000000000000000000000000000000000000000000008000000000000000000000000000000000000000000000000000000000010",
          "type": "0x2",
          "transactionHash": "0x874f6fb16b68303a0c9b2ce7ca5ab96c83cc0069d8e88662bdc87ac854d2a50e",
          "transactionIndex": "0x93",
          "blockHash": "0x22577eb280085ade69d5533f9805299ea7a47dadce4f12ed7b358c3be37cccf6",
          "blockNumber": "0x2244437",
          "gasUsed": "0x49de4",
          "effectiveGasPrice": "0x48e2e1",
          "from": "0x0ece75f3c36f7df2136dac7633165dbff53de3cd",
          "to": "0x1a44076050125825900e736c501f859c50fe728c",
          "contractAddress": null,
          "l1BaseFeeScalar": "0x8dd",
          "l1BlobBaseFee": "0x14",
          "l1BlobBaseFeeScalar": "0x101c12",
          "l1Fee": "0xf0a27dfd",
          "l1GasPrice": "0x15f1bac3",
          "l1GasUsed": "0x12e0"
        }
      ],
      "libraries": [],
      "pending": [],
      "returns": {},
      "timestamp": 1758651727033,
      "chain": 8453,
      "commit": "53213c9"
    },
    {
      "transactions": [
        {
          "hash": "0x1298a5b23c9c8dd2e0dafd4d3ee390561ccc6c9783eccfbd330697af8dcb83fa",
          "transactionType": "CALL",
          "contractName": null,
          "contractAddress": "0x1a44076050125825900e736c501f859c50fe728c",
          "function": "setConfig(address,address,(uint32,uint32,bytes)[])",
          "arguments": [
            "0x10FD0d8280E94D0DbC3013b778Ef26d47105Ea7b",
            "0x1322871e4ab09Bc7f5717189434f97bBD9546e95",
            "[(30184, 1, 0x00000000000000000000000000000000000000000000000000000000000027100000000000000000000000002d2ea0697bdbede3f01553d2ae4b8d0c486b666e), (30184, 2, 0x0000000000000000000000000000000000000000000000000000000000000020000000000000000000000000000000000000000000000000000000000000000f000000000000000000000000000000000000000000000000000000000000000200000000000000000000000000000000000000000000000000000000000000ff000000000000000000000000000000000000000000000000000000000000000000000000000000000000000000000000000000000000000000000000000000c0000000000000000000000000000000000000000000000000000000000000012000000000000000000000000000000000000000000000000000000000000000020000000000000000000000005b6735c66d97479ccd18294fc96b3084ecb2fa3f0000000000000000000000009e930731cb4a6bf7ecc11f695a295c60bdd212eb0000000000000000000000000000000000000000000000000000000000000000), (30111, 1, 0x00000000000000000000000000000000000000000000000000000000000027100000000000000000000000002d2ea0697bdbede3f01553d2ae4b8d0c486b666e), (30111, 2, 0x0000000000000000000000000000000000000000000000000000000000000020000000000000000000000000000000000000000000000000000000000000000f000000000000000000000000000000000000000000000000000000000000000200000000000000000000000000000000000000000000000000000000000000ff000000000000000000000000000000000000000000000000000000000000000000000000000000000000000000000000000000000000000000000000000000c0000000000000000000000000000000000000000000000000000000000000012000000000000000000000000000000000000000000000000000000000000000020000000000000000000000005b6735c66d97479ccd18294fc96b3084ecb2fa3f0000000000000000000000009e930731cb4a6bf7ecc11f695a295c60bdd212eb0000000000000000000000000000000000000000000000000000000000000000)]"
          ],
          "transaction": {
            "from": "0x0ece75f3c36f7df2136dac7633165dbff53de3cd",
            "to": "0x1a44076050125825900e736c501f859c50fe728c",
            "gas": "0x6607c",
            "value": "0x0",
            "input": "0x6dbd9f9000000000000000000000000010fd0d8280e94d0dbc3013b778ef26d47105ea7b0000000000000000000000001322871e4ab09bc7f5717189434f97bbd9546e950000000000000000000000000000000000000000000000000000000000000060000000000000000000000000000000000000000000000000000000000000000400000000000000000000000000000000000000000000000000000000000000800000000000000000000000000000000000000000000000000000000000000140000000000000000000000000000000000000000000000000000000000000032000000000000000000000000000000000000000000000000000000000000003e000000000000000000000000000000000000000000000000000000000000075e800000000000000000000000000000000000000000000000000000000000000010000000000000000000000000000000000000000000000000000000000000060000000000000000000000000000000000000000000000000000000000000004000000000000000000000000000000000000000000000000000000000000027100000000000000000000000002d2ea0697bdbede3f01553d2ae4b8d0c486b666e00000000000000000000000000000000000000000000000000000000000075e80000000000000000000000000000000000000000000000000000000000000002000000000000000000000000000000000000000000000000000000000000006000000000000000000000000000000000000000000000000000000000000001600000000000000000000000000000000000000000000000000000000000000020000000000000000000000000000000000000000000000000000000000000000f000000000000000000000000000000000000000000000000000000000000000200000000000000000000000000000000000000000000000000000000000000ff000000000000000000000000000000000000000000000000000000000000000000000000000000000000000000000000000000000000000000000000000000c0000000000000000000000000000000000000000000000000000000000000012000000000000000000000000000000000000000000000000000000000000000020000000000000000000000005b6735c66d97479ccd18294fc96b3084ecb2fa3f0000000000000000000000009e930731cb4a6bf7ecc11f695a295c60bdd212eb0000000000000000000000000000000000000000000000000000000000000000000000000000000000000000000000000000000000000000000000000000759f00000000000000000000000000000000000000000000000000000000000000010000000000000000000000000000000000000000000000000000000000000060000000000000000000000000000000000000000000000000000000000000004000000000000000000000000000000000000000000000000000000000000027100000000000000000000000002d2ea0697bdbede3f01553d2ae4b8d0c486b666e000000000000000000000000000000000000000000000000000000000000759f0000000000000000000000000000000000000000000000000000000000000002000000000000000000000000000000000000000000000000000000000000006000000000000000000000000000000000000000000000000000000000000001600000000000000000000000000000000000000000000000000000000000000020000000000000000000000000000000000000000000000000000000000000000f000000000000000000000000000000000000000000000000000000000000000200000000000000000000000000000000000000000000000000000000000000ff000000000000000000000000000000000000000000000000000000000000000000000000000000000000000000000000000000000000000000000000000000c0000000000000000000000000000000000000000000000000000000000000012000000000000000000000000000000000000000000000000000000000000000020000000000000000000000005b6735c66d97479ccd18294fc96b3084ecb2fa3f0000000000000000000000009e930731cb4a6bf7ecc11f695a295c60bdd212eb0000000000000000000000000000000000000000000000000000000000000000",
            "nonce": "0x2a",
            "chainId": "0xa"
          },
          "additionalContracts": [],
          "isFixedGasLimit": false
        },
        {
          "hash": "0x9a4b439512eed5045257cf284739ee427c15b8e1fb46b906732ad63bd343cdb5",
          "transactionType": "CALL",
          "contractName": null,
          "contractAddress": "0x1a44076050125825900e736c501f859c50fe728c",
          "function": "setConfig(address,address,(uint32,uint32,bytes)[])",
          "arguments": [
            "0x9F3d0BeaFAD726bcFD3799F2B7B42eAB889ac333",
            "0x1322871e4ab09Bc7f5717189434f97bBD9546e95",
            "[(30184, 1, 0x00000000000000000000000000000000000000000000000000000000000027100000000000000000000000002d2ea0697bdbede3f01553d2ae4b8d0c486b666e), (30184, 2, 0x0000000000000000000000000000000000000000000000000000000000000020000000000000000000000000000000000000000000000000000000000000000f000000000000000000000000000000000000000000000000000000000000000200000000000000000000000000000000000000000000000000000000000000ff000000000000000000000000000000000000000000000000000000000000000000000000000000000000000000000000000000000000000000000000000000c0000000000000000000000000000000000000000000000000000000000000012000000000000000000000000000000000000000000000000000000000000000020000000000000000000000005b6735c66d97479ccd18294fc96b3084ecb2fa3f0000000000000000000000009e930731cb4a6bf7ecc11f695a295c60bdd212eb0000000000000000000000000000000000000000000000000000000000000000), (30111, 1, 0x00000000000000000000000000000000000000000000000000000000000027100000000000000000000000002d2ea0697bdbede3f01553d2ae4b8d0c486b666e), (30111, 2, 0x0000000000000000000000000000000000000000000000000000000000000020000000000000000000000000000000000000000000000000000000000000000f000000000000000000000000000000000000000000000000000000000000000200000000000000000000000000000000000000000000000000000000000000ff000000000000000000000000000000000000000000000000000000000000000000000000000000000000000000000000000000000000000000000000000000c0000000000000000000000000000000000000000000000000000000000000012000000000000000000000000000000000000000000000000000000000000000020000000000000000000000005b6735c66d97479ccd18294fc96b3084ecb2fa3f0000000000000000000000009e930731cb4a6bf7ecc11f695a295c60bdd212eb0000000000000000000000000000000000000000000000000000000000000000)]"
          ],
          "transaction": {
            "from": "0x0ece75f3c36f7df2136dac7633165dbff53de3cd",
            "to": "0x1a44076050125825900e736c501f859c50fe728c",
            "gas": "0x6607c",
            "value": "0x0",
            "input": "0x6dbd9f900000000000000000000000009f3d0beafad726bcfd3799f2b7b42eab889ac3330000000000000000000000001322871e4ab09bc7f5717189434f97bbd9546e950000000000000000000000000000000000000000000000000000000000000060000000000000000000000000000000000000000000000000000000000000000400000000000000000000000000000000000000000000000000000000000000800000000000000000000000000000000000000000000000000000000000000140000000000000000000000000000000000000000000000000000000000000032000000000000000000000000000000000000000000000000000000000000003e000000000000000000000000000000000000000000000000000000000000075e800000000000000000000000000000000000000000000000000000000000000010000000000000000000000000000000000000000000000000000000000000060000000000000000000000000000000000000000000000000000000000000004000000000000000000000000000000000000000000000000000000000000027100000000000000000000000002d2ea0697bdbede3f01553d2ae4b8d0c486b666e00000000000000000000000000000000000000000000000000000000000075e80000000000000000000000000000000000000000000000000000000000000002000000000000000000000000000000000000000000000000000000000000006000000000000000000000000000000000000000000000000000000000000001600000000000000000000000000000000000000000000000000000000000000020000000000000000000000000000000000000000000000000000000000000000f000000000000000000000000000000000000000000000000000000000000000200000000000000000000000000000000000000000000000000000000000000ff000000000000000000000000000000000000000000000000000000000000000000000000000000000000000000000000000000000000000000000000000000c0000000000000000000000000000000000000000000000000000000000000012000000000000000000000000000000000000000000000000000000000000000020000000000000000000000005b6735c66d97479ccd18294fc96b3084ecb2fa3f0000000000000000000000009e930731cb4a6bf7ecc11f695a295c60bdd212eb0000000000000000000000000000000000000000000000000000000000000000000000000000000000000000000000000000000000000000000000000000759f00000000000000000000000000000000000000000000000000000000000000010000000000000000000000000000000000000000000000000000000000000060000000000000000000000000000000000000000000000000000000000000004000000000000000000000000000000000000000000000000000000000000027100000000000000000000000002d2ea0697bdbede3f01553d2ae4b8d0c486b666e000000000000000000000000000000000000000000000000000000000000759f0000000000000000000000000000000000000000000000000000000000000002000000000000000000000000000000000000000000000000000000000000006000000000000000000000000000000000000000000000000000000000000001600000000000000000000000000000000000000000000000000000000000000020000000000000000000000000000000000000000000000000000000000000000f000000000000000000000000000000000000000000000000000000000000000200000000000000000000000000000000000000000000000000000000000000ff000000000000000000000000000000000000000000000000000000000000000000000000000000000000000000000000000000000000000000000000000000c0000000000000000000000000000000000000000000000000000000000000012000000000000000000000000000000000000000000000000000000000000000020000000000000000000000005b6735c66d97479ccd18294fc96b3084ecb2fa3f0000000000000000000000009e930731cb4a6bf7ecc11f695a295c60bdd212eb0000000000000000000000000000000000000000000000000000000000000000",
            "nonce": "0x2b",
            "chainId": "0xa"
          },
          "additionalContracts": [],
          "isFixedGasLimit": false
        },
        {
          "hash": "0x9cfcaa2b32de07021c925eea422e950da4699452b48d8280994d08e737a3e68a",
          "transactionType": "CALL",
          "contractName": null,
          "contractAddress": "0x1a44076050125825900e736c501f859c50fe728c",
          "function": "setConfig(address,address,(uint32,uint32,bytes)[])",
          "arguments": [
            "0x27EEDa6B30dfce416D5de397C78f1e3C87e557bb",
            "0x1322871e4ab09Bc7f5717189434f97bBD9546e95",
            "[(30184, 1, 0x00000000000000000000000000000000000000000000000000000000000027100000000000000000000000002d2ea0697bdbede3f01553d2ae4b8d0c486b666e), (30184, 2, 0x0000000000000000000000000000000000000000000000000000000000000020000000000000000000000000000000000000000000000000000000000000000f000000000000000000000000000000000000000000000000000000000000000200000000000000000000000000000000000000000000000000000000000000ff000000000000000000000000000000000000000000000000000000000000000000000000000000000000000000000000000000000000000000000000000000c0000000000000000000000000000000000000000000000000000000000000012000000000000000000000000000000000000000000000000000000000000000020000000000000000000000005b6735c66d97479ccd18294fc96b3084ecb2fa3f0000000000000000000000009e930731cb4a6bf7ecc11f695a295c60bdd212eb0000000000000000000000000000000000000000000000000000000000000000), (30111, 1, 0x00000000000000000000000000000000000000000000000000000000000027100000000000000000000000002d2ea0697bdbede3f01553d2ae4b8d0c486b666e), (30111, 2, 0x0000000000000000000000000000000000000000000000000000000000000020000000000000000000000000000000000000000000000000000000000000000f000000000000000000000000000000000000000000000000000000000000000200000000000000000000000000000000000000000000000000000000000000ff000000000000000000000000000000000000000000000000000000000000000000000000000000000000000000000000000000000000000000000000000000c0000000000000000000000000000000000000000000000000000000000000012000000000000000000000000000000000000000000000000000000000000000020000000000000000000000005b6735c66d97479ccd18294fc96b3084ecb2fa3f0000000000000000000000009e930731cb4a6bf7ecc11f695a295c60bdd212eb0000000000000000000000000000000000000000000000000000000000000000)]"
          ],
          "transaction": {
            "from": "0x0ece75f3c36f7df2136dac7633165dbff53de3cd",
            "to": "0x1a44076050125825900e736c501f859c50fe728c",
            "gas": "0x6607c",
            "value": "0x0",
            "input": "0x6dbd9f9000000000000000000000000027eeda6b30dfce416d5de397c78f1e3c87e557bb0000000000000000000000001322871e4ab09bc7f5717189434f97bbd9546e950000000000000000000000000000000000000000000000000000000000000060000000000000000000000000000000000000000000000000000000000000000400000000000000000000000000000000000000000000000000000000000000800000000000000000000000000000000000000000000000000000000000000140000000000000000000000000000000000000000000000000000000000000032000000000000000000000000000000000000000000000000000000000000003e000000000000000000000000000000000000000000000000000000000000075e800000000000000000000000000000000000000000000000000000000000000010000000000000000000000000000000000000000000000000000000000000060000000000000000000000000000000000000000000000000000000000000004000000000000000000000000000000000000000000000000000000000000027100000000000000000000000002d2ea0697bdbede3f01553d2ae4b8d0c486b666e00000000000000000000000000000000000000000000000000000000000075e80000000000000000000000000000000000000000000000000000000000000002000000000000000000000000000000000000000000000000000000000000006000000000000000000000000000000000000000000000000000000000000001600000000000000000000000000000000000000000000000000000000000000020000000000000000000000000000000000000000000000000000000000000000f000000000000000000000000000000000000000000000000000000000000000200000000000000000000000000000000000000000000000000000000000000ff000000000000000000000000000000000000000000000000000000000000000000000000000000000000000000000000000000000000000000000000000000c0000000000000000000000000000000000000000000000000000000000000012000000000000000000000000000000000000000000000000000000000000000020000000000000000000000005b6735c66d97479ccd18294fc96b3084ecb2fa3f0000000000000000000000009e930731cb4a6bf7ecc11f695a295c60bdd212eb0000000000000000000000000000000000000000000000000000000000000000000000000000000000000000000000000000000000000000000000000000759f00000000000000000000000000000000000000000000000000000000000000010000000000000000000000000000000000000000000000000000000000000060000000000000000000000000000000000000000000000000000000000000004000000000000000000000000000000000000000000000000000000000000027100000000000000000000000002d2ea0697bdbede3f01553d2ae4b8d0c486b666e000000000000000000000000000000000000000000000000000000000000759f0000000000000000000000000000000000000000000000000000000000000002000000000000000000000000000000000000000000000000000000000000006000000000000000000000000000000000000000000000000000000000000001600000000000000000000000000000000000000000000000000000000000000020000000000000000000000000000000000000000000000000000000000000000f000000000000000000000000000000000000000000000000000000000000000200000000000000000000000000000000000000000000000000000000000000ff000000000000000000000000000000000000000000000000000000000000000000000000000000000000000000000000000000000000000000000000000000c0000000000000000000000000000000000000000000000000000000000000012000000000000000000000000000000000000000000000000000000000000000020000000000000000000000005b6735c66d97479ccd18294fc96b3084ecb2fa3f0000000000000000000000009e930731cb4a6bf7ecc11f695a295c60bdd212eb0000000000000000000000000000000000000000000000000000000000000000",
            "nonce": "0x2c",
            "chainId": "0xa"
          },
          "additionalContracts": [],
          "isFixedGasLimit": false
        },
        {
          "hash": "0x3856b0438e990467b6ebfd7c5c6748c380ccf53a1c8feff4905408786e8eb063",
          "transactionType": "CALL",
          "contractName": null,
          "contractAddress": "0x1a44076050125825900e736c501f859c50fe728c",
          "function": "setConfig(address,address,(uint32,uint32,bytes)[])",
          "arguments": [
            "0x5cF7Bb8568491Bb50a1941994Fd3Da4AdF34FE28",
            "0x1322871e4ab09Bc7f5717189434f97bBD9546e95",
            "[(30184, 1, 0x00000000000000000000000000000000000000000000000000000000000027100000000000000000000000002d2ea0697bdbede3f01553d2ae4b8d0c486b666e), (30184, 2, 0x0000000000000000000000000000000000000000000000000000000000000020000000000000000000000000000000000000000000000000000000000000000f000000000000000000000000000000000000000000000000000000000000000200000000000000000000000000000000000000000000000000000000000000ff000000000000000000000000000000000000000000000000000000000000000000000000000000000000000000000000000000000000000000000000000000c0000000000000000000000000000000000000000000000000000000000000012000000000000000000000000000000000000000000000000000000000000000020000000000000000000000005b6735c66d97479ccd18294fc96b3084ecb2fa3f0000000000000000000000009e930731cb4a6bf7ecc11f695a295c60bdd212eb0000000000000000000000000000000000000000000000000000000000000000), (30111, 1, 0x00000000000000000000000000000000000000000000000000000000000027100000000000000000000000002d2ea0697bdbede3f01553d2ae4b8d0c486b666e), (30111, 2, 0x0000000000000000000000000000000000000000000000000000000000000020000000000000000000000000000000000000000000000000000000000000000f000000000000000000000000000000000000000000000000000000000000000200000000000000000000000000000000000000000000000000000000000000ff000000000000000000000000000000000000000000000000000000000000000000000000000000000000000000000000000000000000000000000000000000c0000000000000000000000000000000000000000000000000000000000000012000000000000000000000000000000000000000000000000000000000000000020000000000000000000000005b6735c66d97479ccd18294fc96b3084ecb2fa3f0000000000000000000000009e930731cb4a6bf7ecc11f695a295c60bdd212eb0000000000000000000000000000000000000000000000000000000000000000)]"
          ],
          "transaction": {
            "from": "0x0ece75f3c36f7df2136dac7633165dbff53de3cd",
            "to": "0x1a44076050125825900e736c501f859c50fe728c",
            "gas": "0x6607c",
            "value": "0x0",
            "input": "0x6dbd9f900000000000000000000000005cf7bb8568491bb50a1941994fd3da4adf34fe280000000000000000000000001322871e4ab09bc7f5717189434f97bbd9546e950000000000000000000000000000000000000000000000000000000000000060000000000000000000000000000000000000000000000000000000000000000400000000000000000000000000000000000000000000000000000000000000800000000000000000000000000000000000000000000000000000000000000140000000000000000000000000000000000000000000000000000000000000032000000000000000000000000000000000000000000000000000000000000003e000000000000000000000000000000000000000000000000000000000000075e800000000000000000000000000000000000000000000000000000000000000010000000000000000000000000000000000000000000000000000000000000060000000000000000000000000000000000000000000000000000000000000004000000000000000000000000000000000000000000000000000000000000027100000000000000000000000002d2ea0697bdbede3f01553d2ae4b8d0c486b666e00000000000000000000000000000000000000000000000000000000000075e80000000000000000000000000000000000000000000000000000000000000002000000000000000000000000000000000000000000000000000000000000006000000000000000000000000000000000000000000000000000000000000001600000000000000000000000000000000000000000000000000000000000000020000000000000000000000000000000000000000000000000000000000000000f000000000000000000000000000000000000000000000000000000000000000200000000000000000000000000000000000000000000000000000000000000ff000000000000000000000000000000000000000000000000000000000000000000000000000000000000000000000000000000000000000000000000000000c0000000000000000000000000000000000000000000000000000000000000012000000000000000000000000000000000000000000000000000000000000000020000000000000000000000005b6735c66d97479ccd18294fc96b3084ecb2fa3f0000000000000000000000009e930731cb4a6bf7ecc11f695a295c60bdd212eb0000000000000000000000000000000000000000000000000000000000000000000000000000000000000000000000000000000000000000000000000000759f00000000000000000000000000000000000000000000000000000000000000010000000000000000000000000000000000000000000000000000000000000060000000000000000000000000000000000000000000000000000000000000004000000000000000000000000000000000000000000000000000000000000027100000000000000000000000002d2ea0697bdbede3f01553d2ae4b8d0c486b666e000000000000000000000000000000000000000000000000000000000000759f0000000000000000000000000000000000000000000000000000000000000002000000000000000000000000000000000000000000000000000000000000006000000000000000000000000000000000000000000000000000000000000001600000000000000000000000000000000000000000000000000000000000000020000000000000000000000000000000000000000000000000000000000000000f000000000000000000000000000000000000000000000000000000000000000200000000000000000000000000000000000000000000000000000000000000ff000000000000000000000000000000000000000000000000000000000000000000000000000000000000000000000000000000000000000000000000000000c0000000000000000000000000000000000000000000000000000000000000012000000000000000000000000000000000000000000000000000000000000000020000000000000000000000005b6735c66d97479ccd18294fc96b3084ecb2fa3f0000000000000000000000009e930731cb4a6bf7ecc11f695a295c60bdd212eb0000000000000000000000000000000000000000000000000000000000000000",
            "nonce": "0x2d",
            "chainId": "0xa"
          },
          "additionalContracts": [],
          "isFixedGasLimit": false
        }
      ],
      "receipts": [
        {
          "status": "0x1",
          "cumulativeGasUsed": "0x575a87",
          "logs": [
            {
              "address": "0x1322871e4ab09bc7f5717189434f97bbd9546e95",
              "topics": [
                "0x779cb2dd9d2bb1be1737d05435d744facbfb84a2a4912e21379d39beddcdc805"
              ],
              "data": "0x00000000000000000000000010fd0d8280e94d0dbc3013b778ef26d47105ea7b00000000000000000000000000000000000000000000000000000000000075e800000000000000000000000000000000000000000000000000000000000027100000000000000000000000002d2ea0697bdbede3f01553d2ae4b8d0c486b666e",
              "blockHash": "0xa71fc162149817b965d705906a6b18af0bb6083262e8d771a40ef875295c68f8",
              "blockNumber": "0x86f85cd",
              "blockTimestamp": "0x68d2e553",
              "transactionHash": "0x1298a5b23c9c8dd2e0dafd4d3ee390561ccc6c9783eccfbd330697af8dcb83fa",
              "transactionIndex": "0x14",
              "logIndex": "0xa",
              "removed": false
            },
            {
              "address": "0x1322871e4ab09bc7f5717189434f97bbd9546e95",
              "topics": [
                "0x82118522aa536ac0e96cc5c689407ae42b89d592aa133890a01f1509842f5081"
              ],
              "data": "0x00000000000000000000000010fd0d8280e94d0dbc3013b778ef26d47105ea7b00000000000000000000000000000000000000000000000000000000000075e80000000000000000000000000000000000000000000000000000000000000060000000000000000000000000000000000000000000000000000000000000000f000000000000000000000000000000000000000000000000000000000000000200000000000000000000000000000000000000000000000000000000000000ff000000000000000000000000000000000000000000000000000000000000000000000000000000000000000000000000000000000000000000000000000000c0000000000000000000000000000000000000000000000000000000000000012000000000000000000000000000000000000000000000000000000000000000020000000000000000000000005b6735c66d97479ccd18294fc96b3084ecb2fa3f0000000000000000000000009e930731cb4a6bf7ecc11f695a295c60bdd212eb0000000000000000000000000000000000000000000000000000000000000000",
              "blockHash": "0xa71fc162149817b965d705906a6b18af0bb6083262e8d771a40ef875295c68f8",
              "blockNumber": "0x86f85cd",
              "blockTimestamp": "0x68d2e553",
              "transactionHash": "0x1298a5b23c9c8dd2e0dafd4d3ee390561ccc6c9783eccfbd330697af8dcb83fa",
              "transactionIndex": "0x14",
              "logIndex": "0xb",
              "removed": false
            },
            {
              "address": "0x1322871e4ab09bc7f5717189434f97bbd9546e95",
              "topics": [
                "0x779cb2dd9d2bb1be1737d05435d744facbfb84a2a4912e21379d39beddcdc805"
              ],
              "data": "0x00000000000000000000000010fd0d8280e94d0dbc3013b778ef26d47105ea7b000000000000000000000000000000000000000000000000000000000000759f00000000000000000000000000000000000000000000000000000000000027100000000000000000000000002d2ea0697bdbede3f01553d2ae4b8d0c486b666e",
              "blockHash": "0xa71fc162149817b965d705906a6b18af0bb6083262e8d771a40ef875295c68f8",
              "blockNumber": "0x86f85cd",
              "blockTimestamp": "0x68d2e553",
              "transactionHash": "0x1298a5b23c9c8dd2e0dafd4d3ee390561ccc6c9783eccfbd330697af8dcb83fa",
              "transactionIndex": "0x14",
              "logIndex": "0xc",
              "removed": false
            },
            {
              "address": "0x1322871e4ab09bc7f5717189434f97bbd9546e95",
              "topics": [
                "0x82118522aa536ac0e96cc5c689407ae42b89d592aa133890a01f1509842f5081"
              ],
              "data": "0x00000000000000000000000010fd0d8280e94d0dbc3013b778ef26d47105ea7b000000000000000000000000000000000000000000000000000000000000759f0000000000000000000000000000000000000000000000000000000000000060000000000000000000000000000000000000000000000000000000000000000f000000000000000000000000000000000000000000000000000000000000000200000000000000000000000000000000000000000000000000000000000000ff000000000000000000000000000000000000000000000000000000000000000000000000000000000000000000000000000000000000000000000000000000c0000000000000000000000000000000000000000000000000000000000000012000000000000000000000000000000000000000000000000000000000000000020000000000000000000000005b6735c66d97479ccd18294fc96b3084ecb2fa3f0000000000000000000000009e930731cb4a6bf7ecc11f695a295c60bdd212eb0000000000000000000000000000000000000000000000000000000000000000",
              "blockHash": "0xa71fc162149817b965d705906a6b18af0bb6083262e8d771a40ef875295c68f8",
              "blockNumber": "0x86f85cd",
              "blockTimestamp": "0x68d2e553",
              "transactionHash": "0x1298a5b23c9c8dd2e0dafd4d3ee390561ccc6c9783eccfbd330697af8dcb83fa",
              "transactionIndex": "0x14",
              "logIndex": "0xd",
              "removed": false
            }
          ],
          "logsBloom": "0x00000000000000000000000000000000000000000000000000000000000000000000000000000000000000000004000000000000000000000000000000000000000000000000000000000040000000000000000000000000002000000000000000000000000000000000000000000000000000000000000000000000000000000000000000000000000000000000800000000000000000000000000000000000000000000000000000000002000000000000000000000000000000000000000200000000000000000000000000000000000000000000000000000000000000000008000000000000000000000000800000000000000000000000000000000010",
          "type": "0x2",
          "transactionHash": "0x1298a5b23c9c8dd2e0dafd4d3ee390561ccc6c9783eccfbd330697af8dcb83fa",
          "transactionIndex": "0x14",
          "blockHash": "0xa71fc162149817b965d705906a6b18af0bb6083262e8d771a40ef875295c68f8",
          "blockNumber": "0x86f85cd",
          "gasUsed": "0x49de4",
          "effectiveGasPrice": "0x559",
          "from": "0x0ece75f3c36f7df2136dac7633165dbff53de3cd",
          "to": "0x1a44076050125825900e736c501f859c50fe728c",
          "contractAddress": null,
          "l1BaseFeeScalar": "0x146b",
          "l1BlobBaseFee": "0x13",
          "l1BlobBaseFeeScalar": "0xf79c5",
          "l1Fee": "0x21db8ce78",
          "l1GasPrice": "0x15ce9f8a",
          "l1GasUsed": "0x1290"
        },
        {
          "status": "0x1",
          "cumulativeGasUsed": "0x5bf86b",
          "logs": [
            {
              "address": "0x1322871e4ab09bc7f5717189434f97bbd9546e95",
              "topics": [
                "0x779cb2dd9d2bb1be1737d05435d744facbfb84a2a4912e21379d39beddcdc805"
              ],
              "data": "0x0000000000000000000000009f3d0beafad726bcfd3799f2b7b42eab889ac33300000000000000000000000000000000000000000000000000000000000075e800000000000000000000000000000000000000000000000000000000000027100000000000000000000000002d2ea0697bdbede3f01553d2ae4b8d0c486b666e",
              "blockHash": "0xa71fc162149817b965d705906a6b18af0bb6083262e8d771a40ef875295c68f8",
              "blockNumber": "0x86f85cd",
              "blockTimestamp": "0x68d2e553",
              "transactionHash": "0x9a4b439512eed5045257cf284739ee427c15b8e1fb46b906732ad63bd343cdb5",
              "transactionIndex": "0x15",
              "logIndex": "0xe",
              "removed": false
            },
            {
              "address": "0x1322871e4ab09bc7f5717189434f97bbd9546e95",
              "topics": [
                "0x82118522aa536ac0e96cc5c689407ae42b89d592aa133890a01f1509842f5081"
              ],
              "data": "0x0000000000000000000000009f3d0beafad726bcfd3799f2b7b42eab889ac33300000000000000000000000000000000000000000000000000000000000075e80000000000000000000000000000000000000000000000000000000000000060000000000000000000000000000000000000000000000000000000000000000f000000000000000000000000000000000000000000000000000000000000000200000000000000000000000000000000000000000000000000000000000000ff000000000000000000000000000000000000000000000000000000000000000000000000000000000000000000000000000000000000000000000000000000c0000000000000000000000000000000000000000000000000000000000000012000000000000000000000000000000000000000000000000000000000000000020000000000000000000000005b6735c66d97479ccd18294fc96b3084ecb2fa3f0000000000000000000000009e930731cb4a6bf7ecc11f695a295c60bdd212eb0000000000000000000000000000000000000000000000000000000000000000",
              "blockHash": "0xa71fc162149817b965d705906a6b18af0bb6083262e8d771a40ef875295c68f8",
              "blockNumber": "0x86f85cd",
              "blockTimestamp": "0x68d2e553",
              "transactionHash": "0x9a4b439512eed5045257cf284739ee427c15b8e1fb46b906732ad63bd343cdb5",
              "transactionIndex": "0x15",
              "logIndex": "0xf",
              "removed": false
            },
            {
              "address": "0x1322871e4ab09bc7f5717189434f97bbd9546e95",
              "topics": [
                "0x779cb2dd9d2bb1be1737d05435d744facbfb84a2a4912e21379d39beddcdc805"
              ],
              "data": "0x0000000000000000000000009f3d0beafad726bcfd3799f2b7b42eab889ac333000000000000000000000000000000000000000000000000000000000000759f00000000000000000000000000000000000000000000000000000000000027100000000000000000000000002d2ea0697bdbede3f01553d2ae4b8d0c486b666e",
              "blockHash": "0xa71fc162149817b965d705906a6b18af0bb6083262e8d771a40ef875295c68f8",
              "blockNumber": "0x86f85cd",
              "blockTimestamp": "0x68d2e553",
              "transactionHash": "0x9a4b439512eed5045257cf284739ee427c15b8e1fb46b906732ad63bd343cdb5",
              "transactionIndex": "0x15",
              "logIndex": "0x10",
              "removed": false
            },
            {
              "address": "0x1322871e4ab09bc7f5717189434f97bbd9546e95",
              "topics": [
                "0x82118522aa536ac0e96cc5c689407ae42b89d592aa133890a01f1509842f5081"
              ],
              "data": "0x0000000000000000000000009f3d0beafad726bcfd3799f2b7b42eab889ac333000000000000000000000000000000000000000000000000000000000000759f0000000000000000000000000000000000000000000000000000000000000060000000000000000000000000000000000000000000000000000000000000000f000000000000000000000000000000000000000000000000000000000000000200000000000000000000000000000000000000000000000000000000000000ff000000000000000000000000000000000000000000000000000000000000000000000000000000000000000000000000000000000000000000000000000000c0000000000000000000000000000000000000000000000000000000000000012000000000000000000000000000000000000000000000000000000000000000020000000000000000000000005b6735c66d97479ccd18294fc96b3084ecb2fa3f0000000000000000000000009e930731cb4a6bf7ecc11f695a295c60bdd212eb0000000000000000000000000000000000000000000000000000000000000000",
              "blockHash": "0xa71fc162149817b965d705906a6b18af0bb6083262e8d771a40ef875295c68f8",
              "blockNumber": "0x86f85cd",
              "blockTimestamp": "0x68d2e553",
              "transactionHash": "0x9a4b439512eed5045257cf284739ee427c15b8e1fb46b906732ad63bd343cdb5",
              "transactionIndex": "0x15",
              "logIndex": "0x11",
              "removed": false
            }
          ],
          "logsBloom": "0x00000000000000000000000000000000000000000000000000000000000000000000000000000000000000000004000000000000000000000000000000000000000000000000000000000040000000000000000000000000002000000000000000000000000000000000000000000000000000000000000000000000000000000000000000000000000000000000800000000000000000000000000000000000000000000000000000000002000000000000000000000000000000000000000200000000000000000000000000000000000000000000000000000000000000000008000000000000000000000000800000000000000000000000000000000010",
          "type": "0x2",
          "transactionHash": "0x9a4b439512eed5045257cf284739ee427c15b8e1fb46b906732ad63bd343cdb5",
          "transactionIndex": "0x15",
          "blockHash": "0xa71fc162149817b965d705906a6b18af0bb6083262e8d771a40ef875295c68f8",
          "blockNumber": "0x86f85cd",
          "gasUsed": "0x49de4",
          "effectiveGasPrice": "0x559",
          "from": "0x0ece75f3c36f7df2136dac7633165dbff53de3cd",
          "to": "0x1a44076050125825900e736c501f859c50fe728c",
          "contractAddress": null,
          "l1BaseFeeScalar": "0x146b",
          "l1BlobBaseFee": "0x13",
          "l1BlobBaseFeeScalar": "0xf79c5",
          "l1Fee": "0x21db8ce78",
          "l1GasPrice": "0x15ce9f8a",
          "l1GasUsed": "0x1290"
        },
        {
          "status": "0x1",
          "cumulativeGasUsed": "0x60964f",
          "logs": [
            {
              "address": "0x1322871e4ab09bc7f5717189434f97bbd9546e95",
              "topics": [
                "0x779cb2dd9d2bb1be1737d05435d744facbfb84a2a4912e21379d39beddcdc805"
              ],
              "data": "0x00000000000000000000000027eeda6b30dfce416d5de397c78f1e3c87e557bb00000000000000000000000000000000000000000000000000000000000075e800000000000000000000000000000000000000000000000000000000000027100000000000000000000000002d2ea0697bdbede3f01553d2ae4b8d0c486b666e",
              "blockHash": "0xa71fc162149817b965d705906a6b18af0bb6083262e8d771a40ef875295c68f8",
              "blockNumber": "0x86f85cd",
              "blockTimestamp": "0x68d2e553",
              "transactionHash": "0x9cfcaa2b32de07021c925eea422e950da4699452b48d8280994d08e737a3e68a",
              "transactionIndex": "0x16",
              "logIndex": "0x12",
              "removed": false
            },
            {
              "address": "0x1322871e4ab09bc7f5717189434f97bbd9546e95",
              "topics": [
                "0x82118522aa536ac0e96cc5c689407ae42b89d592aa133890a01f1509842f5081"
              ],
              "data": "0x00000000000000000000000027eeda6b30dfce416d5de397c78f1e3c87e557bb00000000000000000000000000000000000000000000000000000000000075e80000000000000000000000000000000000000000000000000000000000000060000000000000000000000000000000000000000000000000000000000000000f000000000000000000000000000000000000000000000000000000000000000200000000000000000000000000000000000000000000000000000000000000ff000000000000000000000000000000000000000000000000000000000000000000000000000000000000000000000000000000000000000000000000000000c0000000000000000000000000000000000000000000000000000000000000012000000000000000000000000000000000000000000000000000000000000000020000000000000000000000005b6735c66d97479ccd18294fc96b3084ecb2fa3f0000000000000000000000009e930731cb4a6bf7ecc11f695a295c60bdd212eb0000000000000000000000000000000000000000000000000000000000000000",
              "blockHash": "0xa71fc162149817b965d705906a6b18af0bb6083262e8d771a40ef875295c68f8",
              "blockNumber": "0x86f85cd",
              "blockTimestamp": "0x68d2e553",
              "transactionHash": "0x9cfcaa2b32de07021c925eea422e950da4699452b48d8280994d08e737a3e68a",
              "transactionIndex": "0x16",
              "logIndex": "0x13",
              "removed": false
            },
            {
              "address": "0x1322871e4ab09bc7f5717189434f97bbd9546e95",
              "topics": [
                "0x779cb2dd9d2bb1be1737d05435d744facbfb84a2a4912e21379d39beddcdc805"
              ],
              "data": "0x00000000000000000000000027eeda6b30dfce416d5de397c78f1e3c87e557bb000000000000000000000000000000000000000000000000000000000000759f00000000000000000000000000000000000000000000000000000000000027100000000000000000000000002d2ea0697bdbede3f01553d2ae4b8d0c486b666e",
              "blockHash": "0xa71fc162149817b965d705906a6b18af0bb6083262e8d771a40ef875295c68f8",
              "blockNumber": "0x86f85cd",
              "blockTimestamp": "0x68d2e553",
              "transactionHash": "0x9cfcaa2b32de07021c925eea422e950da4699452b48d8280994d08e737a3e68a",
              "transactionIndex": "0x16",
              "logIndex": "0x14",
              "removed": false
            },
            {
              "address": "0x1322871e4ab09bc7f5717189434f97bbd9546e95",
              "topics": [
                "0x82118522aa536ac0e96cc5c689407ae42b89d592aa133890a01f1509842f5081"
              ],
              "data": "0x00000000000000000000000027eeda6b30dfce416d5de397c78f1e3c87e557bb000000000000000000000000000000000000000000000000000000000000759f0000000000000000000000000000000000000000000000000000000000000060000000000000000000000000000000000000000000000000000000000000000f000000000000000000000000000000000000000000000000000000000000000200000000000000000000000000000000000000000000000000000000000000ff000000000000000000000000000000000000000000000000000000000000000000000000000000000000000000000000000000000000000000000000000000c0000000000000000000000000000000000000000000000000000000000000012000000000000000000000000000000000000000000000000000000000000000020000000000000000000000005b6735c66d97479ccd18294fc96b3084ecb2fa3f0000000000000000000000009e930731cb4a6bf7ecc11f695a295c60bdd212eb0000000000000000000000000000000000000000000000000000000000000000",
              "blockHash": "0xa71fc162149817b965d705906a6b18af0bb6083262e8d771a40ef875295c68f8",
              "blockNumber": "0x86f85cd",
              "blockTimestamp": "0x68d2e553",
              "transactionHash": "0x9cfcaa2b32de07021c925eea422e950da4699452b48d8280994d08e737a3e68a",
              "transactionIndex": "0x16",
              "logIndex": "0x15",
              "removed": false
            }
          ],
          "logsBloom": "0x00000000000000000000000000000000000000000000000000000000000000000000000000000000000000000004000000000000000000000000000000000000000000000000000000000040000000000000000000000000002000000000000000000000000000000000000000000000000000000000000000000000000000000000000000000000000000000000800000000000000000000000000000000000000000000000000000000002000000000000000000000000000000000000000200000000000000000000000000000000000000000000000000000000000000000008000000000000000000000000800000000000000000000000000000000010",
          "type": "0x2",
          "transactionHash": "0x9cfcaa2b32de07021c925eea422e950da4699452b48d8280994d08e737a3e68a",
          "transactionIndex": "0x16",
          "blockHash": "0xa71fc162149817b965d705906a6b18af0bb6083262e8d771a40ef875295c68f8",
          "blockNumber": "0x86f85cd",
          "gasUsed": "0x49de4",
          "effectiveGasPrice": "0x559",
          "from": "0x0ece75f3c36f7df2136dac7633165dbff53de3cd",
          "to": "0x1a44076050125825900e736c501f859c50fe728c",
          "contractAddress": null,
          "l1BaseFeeScalar": "0x146b",
          "l1BlobBaseFee": "0x13",
          "l1BlobBaseFeeScalar": "0xf79c5",
          "l1Fee": "0x21db8ce78",
          "l1GasPrice": "0x15ce9f8a",
          "l1GasUsed": "0x1290"
        },
        {
          "status": "0x1",
          "cumulativeGasUsed": "0x653433",
          "logs": [
            {
              "address": "0x1322871e4ab09bc7f5717189434f97bbd9546e95",
              "topics": [
                "0x779cb2dd9d2bb1be1737d05435d744facbfb84a2a4912e21379d39beddcdc805"
              ],
              "data": "0x0000000000000000000000005cf7bb8568491bb50a1941994fd3da4adf34fe2800000000000000000000000000000000000000000000000000000000000075e800000000000000000000000000000000000000000000000000000000000027100000000000000000000000002d2ea0697bdbede3f01553d2ae4b8d0c486b666e",
              "blockHash": "0xa71fc162149817b965d705906a6b18af0bb6083262e8d771a40ef875295c68f8",
              "blockNumber": "0x86f85cd",
              "blockTimestamp": "0x68d2e553",
              "transactionHash": "0x3856b0438e990467b6ebfd7c5c6748c380ccf53a1c8feff4905408786e8eb063",
              "transactionIndex": "0x17",
              "logIndex": "0x16",
              "removed": false
            },
            {
              "address": "0x1322871e4ab09bc7f5717189434f97bbd9546e95",
              "topics": [
                "0x82118522aa536ac0e96cc5c689407ae42b89d592aa133890a01f1509842f5081"
              ],
              "data": "0x0000000000000000000000005cf7bb8568491bb50a1941994fd3da4adf34fe2800000000000000000000000000000000000000000000000000000000000075e80000000000000000000000000000000000000000000000000000000000000060000000000000000000000000000000000000000000000000000000000000000f000000000000000000000000000000000000000000000000000000000000000200000000000000000000000000000000000000000000000000000000000000ff000000000000000000000000000000000000000000000000000000000000000000000000000000000000000000000000000000000000000000000000000000c0000000000000000000000000000000000000000000000000000000000000012000000000000000000000000000000000000000000000000000000000000000020000000000000000000000005b6735c66d97479ccd18294fc96b3084ecb2fa3f0000000000000000000000009e930731cb4a6bf7ecc11f695a295c60bdd212eb0000000000000000000000000000000000000000000000000000000000000000",
              "blockHash": "0xa71fc162149817b965d705906a6b18af0bb6083262e8d771a40ef875295c68f8",
              "blockNumber": "0x86f85cd",
              "blockTimestamp": "0x68d2e553",
              "transactionHash": "0x3856b0438e990467b6ebfd7c5c6748c380ccf53a1c8feff4905408786e8eb063",
              "transactionIndex": "0x17",
              "logIndex": "0x17",
              "removed": false
            },
            {
              "address": "0x1322871e4ab09bc7f5717189434f97bbd9546e95",
              "topics": [
                "0x779cb2dd9d2bb1be1737d05435d744facbfb84a2a4912e21379d39beddcdc805"
              ],
              "data": "0x0000000000000000000000005cf7bb8568491bb50a1941994fd3da4adf34fe28000000000000000000000000000000000000000000000000000000000000759f00000000000000000000000000000000000000000000000000000000000027100000000000000000000000002d2ea0697bdbede3f01553d2ae4b8d0c486b666e",
              "blockHash": "0xa71fc162149817b965d705906a6b18af0bb6083262e8d771a40ef875295c68f8",
              "blockNumber": "0x86f85cd",
              "blockTimestamp": "0x68d2e553",
              "transactionHash": "0x3856b0438e990467b6ebfd7c5c6748c380ccf53a1c8feff4905408786e8eb063",
              "transactionIndex": "0x17",
              "logIndex": "0x18",
              "removed": false
            },
            {
              "address": "0x1322871e4ab09bc7f5717189434f97bbd9546e95",
              "topics": [
                "0x82118522aa536ac0e96cc5c689407ae42b89d592aa133890a01f1509842f5081"
              ],
              "data": "0x0000000000000000000000005cf7bb8568491bb50a1941994fd3da4adf34fe28000000000000000000000000000000000000000000000000000000000000759f0000000000000000000000000000000000000000000000000000000000000060000000000000000000000000000000000000000000000000000000000000000f000000000000000000000000000000000000000000000000000000000000000200000000000000000000000000000000000000000000000000000000000000ff000000000000000000000000000000000000000000000000000000000000000000000000000000000000000000000000000000000000000000000000000000c0000000000000000000000000000000000000000000000000000000000000012000000000000000000000000000000000000000000000000000000000000000020000000000000000000000005b6735c66d97479ccd18294fc96b3084ecb2fa3f0000000000000000000000009e930731cb4a6bf7ecc11f695a295c60bdd212eb0000000000000000000000000000000000000000000000000000000000000000",
              "blockHash": "0xa71fc162149817b965d705906a6b18af0bb6083262e8d771a40ef875295c68f8",
              "blockNumber": "0x86f85cd",
              "blockTimestamp": "0x68d2e553",
              "transactionHash": "0x3856b0438e990467b6ebfd7c5c6748c380ccf53a1c8feff4905408786e8eb063",
              "transactionIndex": "0x17",
              "logIndex": "0x19",
              "removed": false
            }
          ],
          "logsBloom": "0x00000000000000000000000000000000000000000000000000000000000000000000000000000000000000000004000000000000000000000000000000000000000000000000000000000040000000000000000000000000002000000000000000000000000000000000000000000000000000000000000000000000000000000000000000000000000000000000800000000000000000000000000000000000000000000000000000000002000000000000000000000000000000000000000200000000000000000000000000000000000000000000000000000000000000000008000000000000000000000000800000000000000000000000000000000010",
          "type": "0x2",
          "transactionHash": "0x3856b0438e990467b6ebfd7c5c6748c380ccf53a1c8feff4905408786e8eb063",
          "transactionIndex": "0x17",
          "blockHash": "0xa71fc162149817b965d705906a6b18af0bb6083262e8d771a40ef875295c68f8",
          "blockNumber": "0x86f85cd",
          "gasUsed": "0x49de4",
          "effectiveGasPrice": "0x559",
          "from": "0x0ece75f3c36f7df2136dac7633165dbff53de3cd",
          "to": "0x1a44076050125825900e736c501f859c50fe728c",
          "contractAddress": null,
          "l1BaseFeeScalar": "0x146b",
          "l1BlobBaseFee": "0x13",
          "l1BlobBaseFeeScalar": "0xf79c5",
          "l1Fee": "0x21db8ce78",
          "l1GasPrice": "0x15ce9f8a",
          "l1GasUsed": "0x1290"
        }
      ],
      "libraries": [],
      "pending": [],
      "returns": {},
      "timestamp": 1758651727649,
      "chain": 10,
      "commit": "53213c9"
    }
  ],
  "timestamp": 1758651732945
}