{
  "deployments": [
    {
      "transactions": [
        {
          "hash": "0xea8d5011737fe391796bf961cbdc97ae8c69b0c55b80056b539b43d42d81006b",
          "transactionType": "CALL",
          "contractName": null,
          "contractAddress": "0x5a0971e3d6e0793b9fce640e821435fd8f9fd906",
          "function": "setPeer(uint32,bytes32)",
          "arguments": [
            "30184",
            "0x0000000000000000000000005a0971e3d6e0793b9fce640e821435fd8f9fd906"
          ],
          "transaction": {
            "from": "0x0ece75f3c36f7df2136dac7633165dbff53de3cd",
            "to": "0x5a0971e3d6e0793b9fce640e821435fd8f9fd906",
            "gas": "0x1141b",
            "value": "0x0",
            "input": "0x3400288b00000000000000000000000000000000000000000000000000000000000075e80000000000000000000000005a0971e3d6e0793b9fce640e821435fd8f9fd906",
            "nonce": "0x1a7",
            "chainId": "0x2105"
          },
          "additionalContracts": [],
          "isFixedGasLimit": false
        },
        {
          "hash": "0x9d2ac35a47c0971586ac51f1466ee577b8098c1fbea36e546c69ae97ee503cb2",
          "transactionType": "CALL",
          "contractName": null,
          "contractAddress": "0x5a0971e3d6e0793b9fce640e821435fd8f9fd906",
          "function": "setPeer(uint32,bytes32)",
          "arguments": [
            "30111",
            "0x00000000000000000000000010fd0d8280e94d0dbc3013b778ef26d47105ea7b"
          ],
          "transaction": {
            "from": "0x0ece75f3c36f7df2136dac7633165dbff53de3cd",
            "to": "0x5a0971e3d6e0793b9fce640e821435fd8f9fd906",
            "gas": "0x1141b",
            "value": "0x0",
            "input": "0x3400288b000000000000000000000000000000000000000000000000000000000000759f00000000000000000000000010fd0d8280e94d0dbc3013b778ef26d47105ea7b",
            "nonce": "0x1a8",
            "chainId": "0x2105"
          },
          "additionalContracts": [],
          "isFixedGasLimit": false
        },
        {
          "hash": "0x8b7e5dbe7b6d463ef7951171dddf292f183c4846bee4ee8305e1af5d69a673be",
          "transactionType": "CALL",
          "contractName": null,
          "contractAddress": "0x2e18dc8038252fe4855ac66f4ab73abe3a18b91c",
          "function": "setPeer(uint32,bytes32)",
          "arguments": [
            "30184",
            "0x0000000000000000000000002e18dc8038252fe4855ac66f4ab73abe3a18b91c"
          ],
          "transaction": {
            "from": "0x0ece75f3c36f7df2136dac7633165dbff53de3cd",
            "to": "0x2e18dc8038252fe4855ac66f4ab73abe3a18b91c",
            "gas": "0x1141b",
            "value": "0x0",
            "input": "0x3400288b00000000000000000000000000000000000000000000000000000000000075e80000000000000000000000002e18dc8038252fe4855ac66f4ab73abe3a18b91c",
            "nonce": "0x1a9",
            "chainId": "0x2105"
          },
          "additionalContracts": [],
          "isFixedGasLimit": false
        },
        {
          "hash": "0xab9d6cce72a5886bb63105889a376222546115dd3df242c20fc6aaf73244253b",
          "transactionType": "CALL",
          "contractName": null,
          "contractAddress": "0x2e18dc8038252fe4855ac66f4ab73abe3a18b91c",
          "function": "setPeer(uint32,bytes32)",
          "arguments": [
            "30111",
            "0x0000000000000000000000009f3d0beafad726bcfd3799f2b7b42eab889ac333"
          ],
          "transaction": {
            "from": "0x0ece75f3c36f7df2136dac7633165dbff53de3cd",
            "to": "0x2e18dc8038252fe4855ac66f4ab73abe3a18b91c",
            "gas": "0x1141b",
            "value": "0x0",
            "input": "0x3400288b000000000000000000000000000000000000000000000000000000000000759f0000000000000000000000009f3d0beafad726bcfd3799f2b7b42eab889ac333",
            "nonce": "0x1aa",
            "chainId": "0x2105"
          },
          "additionalContracts": [],
          "isFixedGasLimit": false
        },
        {
          "hash": "0x69fac798d49100aa14231bd6ccaf62419d1eb42618a9db7b5c999d965ff2a938",
          "transactionType": "CALL",
          "contractName": null,
          "contractAddress": "0x2c4fdc631ce418196ab9835aab82227a62c14c75",
          "function": "setPeer(uint32,bytes32)",
          "arguments": [
            "30184",
            "0x0000000000000000000000002c4fdc631ce418196ab9835aab82227a62c14c75"
          ],
          "transaction": {
            "from": "0x0ece75f3c36f7df2136dac7633165dbff53de3cd",
            "to": "0x2c4fdc631ce418196ab9835aab82227a62c14c75",
            "gas": "0x1141b",
            "value": "0x0",
            "input": "0x3400288b00000000000000000000000000000000000000000000000000000000000075e80000000000000000000000002c4fdc631ce418196ab9835aab82227a62c14c75",
            "nonce": "0x1ab",
            "chainId": "0x2105"
          },
          "additionalContracts": [],
          "isFixedGasLimit": false
        },
        {
          "hash": "0xd39b1ab2b8f417cce32a62e2861fc986094498cad5f223d1a5f6a6d50c7a75b6",
          "transactionType": "CALL",
          "contractName": null,
          "contractAddress": "0x2c4fdc631ce418196ab9835aab82227a62c14c75",
          "function": "setPeer(uint32,bytes32)",
          "arguments": [
            "30111",
            "0x0000000000000000000000005cf7bb8568491bb50a1941994fd3da4adf34fe28"
          ],
          "transaction": {
            "from": "0x0ece75f3c36f7df2136dac7633165dbff53de3cd",
            "to": "0x2c4fdc631ce418196ab9835aab82227a62c14c75",
            "gas": "0x1141b",
            "value": "0x0",
            "input": "0x3400288b000000000000000000000000000000000000000000000000000000000000759f0000000000000000000000005cf7bb8568491bb50a1941994fd3da4adf34fe28",
            "nonce": "0x1ac",
            "chainId": "0x2105"
          },
          "additionalContracts": [],
          "isFixedGasLimit": false
        },
        {
          "hash": "0x2a020d626386f12fede2dd1f0f002371f3df4010e1cdd80f22a92113472d9d47",
          "transactionType": "CALL",
          "contractName": null,
          "contractAddress": "0x530a9078023bed663482d26cedb2bdf8d1d881ea",
          "function": "setPeer(uint32,bytes32)",
          "arguments": [
            "30184",
            "0x000000000000000000000000530a9078023bed663482d26cedb2bdf8d1d881ea"
          ],
          "transaction": {
            "from": "0x0ece75f3c36f7df2136dac7633165dbff53de3cd",
            "to": "0x530a9078023bed663482d26cedb2bdf8d1d881ea",
            "gas": "0x1141b",
            "value": "0x0",
            "input": "0x3400288b00000000000000000000000000000000000000000000000000000000000075e8000000000000000000000000530a9078023bed663482d26cedb2bdf8d1d881ea",
            "nonce": "0x1ad",
            "chainId": "0x2105"
          },
          "additionalContracts": [],
          "isFixedGasLimit": false
        },
        {
          "hash": "0x3bca7b9f4e7709ba8f57fa7e5c374c688e9d518e7d7f4f61b5d255f148e757a7",
          "transactionType": "CALL",
          "contractName": null,
          "contractAddress": "0x530a9078023bed663482d26cedb2bdf8d1d881ea",
          "function": "setPeer(uint32,bytes32)",
          "arguments": [
            "30111",
            "0x00000000000000000000000027eeda6b30dfce416d5de397c78f1e3c87e557bb"
          ],
          "transaction": {
            "from": "0x0ece75f3c36f7df2136dac7633165dbff53de3cd",
            "to": "0x530a9078023bed663482d26cedb2bdf8d1d881ea",
            "gas": "0x1141b",
            "value": "0x0",
            "input": "0x3400288b000000000000000000000000000000000000000000000000000000000000759f00000000000000000000000027eeda6b30dfce416d5de397c78f1e3c87e557bb",
            "nonce": "0x1ae",
            "chainId": "0x2105"
          },
          "additionalContracts": [],
          "isFixedGasLimit": false
        }
      ],
      "receipts": [
        {
          "status": "0x1",
          "cumulativeGasUsed": "0x683ab0",
          "logs": [
            {
              "address": "0x5a0971e3d6e0793b9fce640e821435fd8f9fd906",
              "topics": [
                "0x238399d427b947898edb290f5ff0f9109849b1c3ba196a42e35f00c50a54b98b"
              ],
              "data": "0x00000000000000000000000000000000000000000000000000000000000075e80000000000000000000000005a0971e3d6e0793b9fce640e821435fd8f9fd906",
              "blockHash": "0x9afb3ee772d6b1c9dc8f0e6e14b9912107bc49a594f645bdf19f172b4305a221",
              "blockNumber": "0x2244472",
              "blockTimestamp": "0x68d2e5c7",
              "transactionHash": "0xea8d5011737fe391796bf961cbdc97ae8c69b0c55b80056b539b43d42d81006b",
              "transactionIndex": "0x22",
              "logIndex": "0xa2",
              "removed": false
            }
          ],
          "logsBloom": "0x00000000000000000000000010000000000000000000000000000000000000000000000000000000000000000000000000000000000000000800000000000000000000000000000000000000000000000000000000000000000000000000000000000000000000000000000000000000000000000000000000000000000000000000000000000000000000000000000000000000000000000000000000000200000000000000000000000000000000000008000000000000000002000000000000000000000000000000000000000000000000000000000000040000000000000000000000000000000000000000000000000000000000000000000000000000",
          "type": "0x2",
          "transactionHash": "0xea8d5011737fe391796bf961cbdc97ae8c69b0c55b80056b539b43d42d81006b",
          "transactionIndex": "0x22",
          "blockHash": "0x9afb3ee772d6b1c9dc8f0e6e14b9912107bc49a594f645bdf19f172b4305a221",
          "blockNumber": "0x2244472",
          "gasUsed": "0xbccb",
          "effectiveGasPrice": "0x465770",
          "from": "0x0ece75f3c36f7df2136dac7633165dbff53de3cd",
          "to": "0x5a0971e3d6e0793b9fce640e821435fd8f9fd906",
          "contractAddress": null,
          "l1BaseFeeScalar": "0x8dd",
          "l1BlobBaseFee": "0x15",
          "l1BlobBaseFeeScalar": "0x101c12",
          "l1Fee": "0x50dde443",
          "l1GasPrice": "0x16465cdf",
          "l1GasUsed": "0x640"
        },
        {
          "status": "0x1",
          "cumulativeGasUsed": "0x68f77b",
          "logs": [
            {
              "address": "0x5a0971e3d6e0793b9fce640e821435fd8f9fd906",
              "topics": [
                "0x238399d427b947898edb290f5ff0f9109849b1c3ba196a42e35f00c50a54b98b"
              ],
              "data": "0x000000000000000000000000000000000000000000000000000000000000759f00000000000000000000000010fd0d8280e94d0dbc3013b778ef26d47105ea7b",
              "blockHash": "0x9afb3ee772d6b1c9dc8f0e6e14b9912107bc49a594f645bdf19f172b4305a221",
              "blockNumber": "0x2244472",
              "blockTimestamp": "0x68d2e5c7",
              "transactionHash": "0x9d2ac35a47c0971586ac51f1466ee577b8098c1fbea36e546c69ae97ee503cb2",
              "transactionIndex": "0x23",
              "logIndex": "0xa3",
              "removed": false
            }
          ],
          "logsBloom": "0x00000000000000000000000010000000000000000000000000000000000000000000000000000000000000000000000000000000000000000800000000000000000000000000000000000000000000000000000000000000000000000000000000000000000000000000000000000000000000000000000000000000000000000000000000000000000000000000000000000000000000000000000000000200000000000000000000000000000000000008000000000000000002000000000000000000000000000000000000000000000000000000000000040000000000000000000000000000000000000000000000000000000000000000000000000000",
          "type": "0x2",
          "transactionHash": "0x9d2ac35a47c0971586ac51f1466ee577b8098c1fbea36e546c69ae97ee503cb2",
          "transactionIndex": "0x23",
          "blockHash": "0x9afb3ee772d6b1c9dc8f0e6e14b9912107bc49a594f645bdf19f172b4305a221",
          "blockNumber": "0x2244472",
          "gasUsed": "0xbccb",
          "effectiveGasPrice": "0x465770",
          "from": "0x0ece75f3c36f7df2136dac7633165dbff53de3cd",
          "to": "0x5a0971e3d6e0793b9fce640e821435fd8f9fd906",
          "contractAddress": null,
          "l1BaseFeeScalar": "0x8dd",
          "l1BlobBaseFee": "0x15",
          "l1BlobBaseFeeScalar": "0x101c12",
          "l1Fee": "0x50dde443",
          "l1GasPrice": "0x16465cdf",
          "l1GasUsed": "0x640"
        },
        {
          "status": "0x1",
          "cumulativeGasUsed": "0x69b446",
          "logs": [
            {
              "address": "0x2e18dc8038252fe4855ac66f4ab73abe3a18b91c",
              "topics": [
                "0x238399d427b947898edb290f5ff0f9109849b1c3ba196a42e35f00c50a54b98b"
              ],
              "data": "0x00000000000000000000000000000000000000000000000000000000000075e80000000000000000000000002e18dc8038252fe4855ac66f4ab73abe3a18b91c",
              "blockHash": "0x9afb3ee772d6b1c9dc8f0e6e14b9912107bc49a594f645bdf19f172b4305a221",
              "blockNumber": "0x2244472",
              "blockTimestamp": "0x68d2e5c7",
              "transactionHash": "0x8b7e5dbe7b6d463ef7951171dddf292f183c4846bee4ee8305e1af5d69a673be",
              "transactionIndex": "0x24",
              "logIndex": "0xa4",
              "removed": false
            }
          ],
          "logsBloom": "0x00000000000000000000000000000000000000000000100000000000000000000000000000000000000000000000000000000000000000000800000000000000000000000000000000000000000000000000000100000000000000000000000000000000000000000000000000000000000000000000000000000000000000000000000000000000000000000000000000000000000000000000000000000000000000000000000000000000000000000000000000000000000002000000000000000000000000000000000000000000000000000000000000040000000000000000000000000000400000000000000000000000000000000000000000000000",
          "type": "0x2",
          "transactionHash": "0x8b7e5dbe7b6d463ef7951171dddf292f183c4846bee4ee8305e1af5d69a673be",
          "transactionIndex": "0x24",
          "blockHash": "0x9afb3ee772d6b1c9dc8f0e6e14b9912107bc49a594f645bdf19f172b4305a221",
          "blockNumber": "0x2244472",
          "gasUsed": "0xbccb",
          "effectiveGasPrice": "0x465770",
          "from": "0x0ece75f3c36f7df2136dac7633165dbff53de3cd",
          "to": "0x2e18dc8038252fe4855ac66f4ab73abe3a18b91c",
          "contractAddress": null,
          "l1BaseFeeScalar": "0x8dd",
          "l1BlobBaseFee": "0x15",
          "l1BlobBaseFeeScalar": "0x101c12",
          "l1Fee": "0x50dde443",
          "l1GasPrice": "0x16465cdf",
          "l1GasUsed": "0x640"
        },
        {
          "status": "0x1",
          "cumulativeGasUsed": "0x6a7111",
          "logs": [
            {
              "address": "0x2e18dc8038252fe4855ac66f4ab73abe3a18b91c",
              "topics": [
                "0x238399d427b947898edb290f5ff0f9109849b1c3ba196a42e35f00c50a54b98b"
              ],
              "data": "0x000000000000000000000000000000000000000000000000000000000000759f0000000000000000000000009f3d0beafad726bcfd3799f2b7b42eab889ac333",
              "blockHash": "0x9afb3ee772d6b1c9dc8f0e6e14b9912107bc49a594f645bdf19f172b4305a221",
              "blockNumber": "0x2244472",
              "blockTimestamp": "0x68d2e5c7",
              "transactionHash": "0xab9d6cce72a5886bb63105889a376222546115dd3df242c20fc6aaf73244253b",
              "transactionIndex": "0x25",
              "logIndex": "0xa5",
              "removed": false
            }
          ],
          "logsBloom": "0x00000000000000000000000000000000000000000000100000000000000000000000000000000000000000000000000000000000000000000800000000000000000000000000000000000000000000000000000100000000000000000000000000000000000000000000000000000000000000000000000000000000000000000000000000000000000000000000000000000000000000000000000000000000000000000000000000000000000000000000000000000000000002000000000000000000000000000000000000000000000000000000000000040000000000000000000000000000400000000000000000000000000000000000000000000000",
          "type": "0x2",
          "transactionHash": "0xab9d6cce72a5886bb63105889a376222546115dd3df242c20fc6aaf73244253b",
          "transactionIndex": "0x25",
          "blockHash": "0x9afb3ee772d6b1c9dc8f0e6e14b9912107bc49a594f645bdf19f172b4305a221",
          "blockNumber": "0x2244472",
          "gasUsed": "0xbccb",
          "effectiveGasPrice": "0x465770",
          "from": "0x0ece75f3c36f7df2136dac7633165dbff53de3cd",
          "to": "0x2e18dc8038252fe4855ac66f4ab73abe3a18b91c",
          "contractAddress": null,
          "l1BaseFeeScalar": "0x8dd",
          "l1BlobBaseFee": "0x15",
          "l1BlobBaseFeeScalar": "0x101c12",
          "l1Fee": "0x50dde443",
          "l1GasPrice": "0x16465cdf",
          "l1GasUsed": "0x640"
        },
        {
          "status": "0x1",
          "cumulativeGasUsed": "0x6b2ddc",
          "logs": [
            {
              "address": "0x2c4fdc631ce418196ab9835aab82227a62c14c75",
              "topics": [
                "0x238399d427b947898edb290f5ff0f9109849b1c3ba196a42e35f00c50a54b98b"
              ],
              "data": "0x00000000000000000000000000000000000000000000000000000000000075e80000000000000000000000002c4fdc631ce418196ab9835aab82227a62c14c75",
              "blockHash": "0x9afb3ee772d6b1c9dc8f0e6e14b9912107bc49a594f645bdf19f172b4305a221",
              "blockNumber": "0x2244472",
              "blockTimestamp": "0x68d2e5c7",
              "transactionHash": "0x69fac798d49100aa14231bd6ccaf62419d1eb42618a9db7b5c999d965ff2a938",
              "transactionIndex": "0x26",
              "logIndex": "0xa6",
              "removed": false
            }
          ],
          "logsBloom": "0x00000000000000000000000000000000000000004000000000000000000000000000000000000000000000000000000000000000000000000800000000000000000000000000000000000000000000000000000000000000000000000000200000000000000000000000000000000000000000000000000000000000000000000000000000000000000000000000000000000000000000000000000000000000000002000000000000000000000000000000000000000000000002000000000000000000000000000000000000000000000000000000000000040000000000000000000000000000000000000000000000000000000000000000000000000000",
          "type": "0x2",
          "transactionHash": "0x69fac798d49100aa14231bd6ccaf62419d1eb42618a9db7b5c999d965ff2a938",
          "transactionIndex": "0x26",
          "blockHash": "0x9afb3ee772d6b1c9dc8f0e6e14b9912107bc49a594f645bdf19f172b4305a221",
          "blockNumber": "0x2244472",
          "gasUsed": "0xbccb",
          "effectiveGasPrice": "0x465770",
          "from": "0x0ece75f3c36f7df2136dac7633165dbff53de3cd",
          "to": "0x2c4fdc631ce418196ab9835aab82227a62c14c75",
          "contractAddress": null,
          "l1BaseFeeScalar": "0x8dd",
          "l1BlobBaseFee": "0x15",
          "l1BlobBaseFeeScalar": "0x101c12",
          "l1Fee": "0x50dde443",
          "l1GasPrice": "0x16465cdf",
          "l1GasUsed": "0x640"
        },
        {
          "status": "0x1",
          "cumulativeGasUsed": "0x6beaa7",
          "logs": [
            {
              "address": "0x2c4fdc631ce418196ab9835aab82227a62c14c75",
              "topics": [
                "0x238399d427b947898edb290f5ff0f9109849b1c3ba196a42e35f00c50a54b98b"
              ],
              "data": "0x000000000000000000000000000000000000000000000000000000000000759f0000000000000000000000005cf7bb8568491bb50a1941994fd3da4adf34fe28",
              "blockHash": "0x9afb3ee772d6b1c9dc8f0e6e14b9912107bc49a594f645bdf19f172b4305a221",
              "blockNumber": "0x2244472",
              "blockTimestamp": "0x68d2e5c7",
              "transactionHash": "0xd39b1ab2b8f417cce32a62e2861fc986094498cad5f223d1a5f6a6d50c7a75b6",
              "transactionIndex": "0x27",
              "logIndex": "0xa7",
              "removed": false
            }
          ],
          "logsBloom": "0x00000000000000000000000000000000000000004000000000000000000000000000000000000000000000000000000000000000000000000800000000000000000000000000000000000000000000000000000000000000000000000000200000000000000000000000000000000000000000000000000000000000000000000000000000000000000000000000000000000000000000000000000000000000000002000000000000000000000000000000000000000000000002000000000000000000000000000000000000000000000000000000000000040000000000000000000000000000000000000000000000000000000000000000000000000000",
          "type": "0x2",
          "transactionHash": "0xd39b1ab2b8f417cce32a62e2861fc986094498cad5f223d1a5f6a6d50c7a75b6",
          "transactionIndex": "0x27",
          "blockHash": "0x9afb3ee772d6b1c9dc8f0e6e14b9912107bc49a594f645bdf19f172b4305a221",
          "blockNumber": "0x2244472",
          "gasUsed": "0xbccb",
          "effectiveGasPrice": "0x465770",
          "from": "0x0ece75f3c36f7df2136dac7633165dbff53de3cd",
          "to": "0x2c4fdc631ce418196ab9835aab82227a62c14c75",
          "contractAddress": null,
          "l1BaseFeeScalar": "0x8dd",
          "l1BlobBaseFee": "0x15",
          "l1BlobBaseFeeScalar": "0x101c12",
          "l1Fee": "0x50dde443",
          "l1GasPrice": "0x16465cdf",
          "l1GasUsed": "0x640"
        },
        {
          "status": "0x1",
          "cumulativeGasUsed": "0x6ca772",
          "logs": [
            {
              "address": "0x530a9078023bed663482d26cedb2bdf8d1d881ea",
              "topics": [
                "0x238399d427b947898edb290f5ff0f9109849b1c3ba196a42e35f00c50a54b98b"
              ],
              "data": "0x00000000000000000000000000000000000000000000000000000000000075e8000000000000000000000000530a9078023bed663482d26cedb2bdf8d1d881ea",
              "blockHash": "0x9afb3ee772d6b1c9dc8f0e6e14b9912107bc49a594f645bdf19f172b4305a221",
              "blockNumber": "0x2244472",
              "blockTimestamp": "0x68d2e5c7",
              "transactionHash": "0x2a020d626386f12fede2dd1f0f002371f3df4010e1cdd80f22a92113472d9d47",
              "transactionIndex": "0x28",
              "logIndex": "0xa8",
              "removed": false
            }
          ],
          "logsBloom": "0x00000000000000000000000000000000000000000000000000000000000000000000000000000000000000000000800000000000000000000800000000000000000000000000000000000000000000000000000000000000000000000000000000000000000000000000000000000000000000000000000000000000000000000000000000000000000010000000000000000000000000000000000000000000000000000000000000000000000000000000000000000000000002000000000000000000000000000000000000000000000000000000000000040000000000000400000000000000000000000000000000000000000000000000000000000000",
          "type": "0x2",
          "transactionHash": "0x2a020d626386f12fede2dd1f0f002371f3df4010e1cdd80f22a92113472d9d47",
          "transactionIndex": "0x28",
          "blockHash": "0x9afb3ee772d6b1c9dc8f0e6e14b9912107bc49a594f645bdf19f172b4305a221",
          "blockNumber": "0x2244472",
          "gasUsed": "0xbccb",
          "effectiveGasPrice": "0x465770",
          "from": "0x0ece75f3c36f7df2136dac7633165dbff53de3cd",
          "to": "0x530a9078023bed663482d26cedb2bdf8d1d881ea",
          "contractAddress": null,
          "l1BaseFeeScalar": "0x8dd",
          "l1BlobBaseFee": "0x15",
          "l1BlobBaseFeeScalar": "0x101c12",
          "l1Fee": "0x50dde443",
          "l1GasPrice": "0x16465cdf",
          "l1GasUsed": "0x640"
        },
        {
          "status": "0x1",
          "cumulativeGasUsed": "0xc38c42",
          "logs": [
            {
              "address": "0x530a9078023bed663482d26cedb2bdf8d1d881ea",
              "topics": [
                "0x238399d427b947898edb290f5ff0f9109849b1c3ba196a42e35f00c50a54b98b"
              ],
              "data": "0x000000000000000000000000000000000000000000000000000000000000759f00000000000000000000000027eeda6b30dfce416d5de397c78f1e3c87e557bb",
              "blockHash": "0x9afb3ee772d6b1c9dc8f0e6e14b9912107bc49a594f645bdf19f172b4305a221",
              "blockNumber": "0x2244472",
              "blockTimestamp": "0x68d2e5c7",
              "transactionHash": "0x3bca7b9f4e7709ba8f57fa7e5c374c688e9d518e7d7f4f61b5d255f148e757a7",
              "transactionIndex": "0x4c",
              "logIndex": "0x128",
              "removed": false
            }
          ],
          "logsBloom": "0x00000000000000000000000000000000000000000000000000000000000000000000000000000000000000000000800000000000000000000800000000000000000000000000000000000000000000000000000000000000000000000000000000000000000000000000000000000000000000000000000000000000000000000000000000000000000010000000000000000000000000000000000000000000000000000000000000000000000000000000000000000000000002000000000000000000000000000000000000000000000000000000000000040000000000000400000000000000000000000000000000000000000000000000000000000000",
          "type": "0x2",
          "transactionHash": "0x3bca7b9f4e7709ba8f57fa7e5c374c688e9d518e7d7f4f61b5d255f148e757a7",
          "transactionIndex": "0x4c",
          "blockHash": "0x9afb3ee772d6b1c9dc8f0e6e14b9912107bc49a594f645bdf19f172b4305a221",
          "blockNumber": "0x2244472",
          "gasUsed": "0xbccb",
          "effectiveGasPrice": "0x465770",
          "from": "0x0ece75f3c36f7df2136dac7633165dbff53de3cd",
          "to": "0x530a9078023bed663482d26cedb2bdf8d1d881ea",
          "contractAddress": null,
          "l1BaseFeeScalar": "0x8dd",
          "l1BlobBaseFee": "0x15",
          "l1BlobBaseFeeScalar": "0x101c12",
          "l1Fee": "0x50dde443",
          "l1GasPrice": "0x16465cdf",
          "l1GasUsed": "0x640"
        }
      ],
      "libraries": [],
      "pending": [],
      "returns": {},
      "timestamp": 1758651843779,
      "chain": 8453,
      "commit": "53213c9"
    },
    {
      "transactions": [
        {
          "hash": "0x5d973edf61ade2b4aa45937ce8f4d15167022c8573a08e87e2657566598d5c61",
          "transactionType": "CALL",
          "contractName": null,
          "contractAddress": "0x10fd0d8280e94d0dbc3013b778ef26d47105ea7b",
          "function": "setPeer(uint32,bytes32)",
          "arguments": [
            "30184",
            "0x0000000000000000000000005a0971e3d6e0793b9fce640e821435fd8f9fd906"
          ],
          "transaction": {
            "from": "0x0ece75f3c36f7df2136dac7633165dbff53de3cd",
            "to": "0x10fd0d8280e94d0dbc3013b778ef26d47105ea7b",
            "gas": "0x1141b",
            "value": "0x0",
            "input": "0x3400288b00000000000000000000000000000000000000000000000000000000000075e80000000000000000000000005a0971e3d6e0793b9fce640e821435fd8f9fd906",
            "nonce": "0x32",
            "chainId": "0xa"
          },
          "additionalContracts": [],
          "isFixedGasLimit": false
        },
        {
          "hash": "0x68b4300f1b7cfa7eec97083833d4a720c70f530ba82fc42935440e6bc3a38294",
          "transactionType": "CALL",
          "contractName": null,
          "contractAddress": "0x10fd0d8280e94d0dbc3013b778ef26d47105ea7b",
          "function": "setPeer(uint32,bytes32)",
          "arguments": [
            "30111",
            "0x00000000000000000000000010fd0d8280e94d0dbc3013b778ef26d47105ea7b"
          ],
          "transaction": {
            "from": "0x0ece75f3c36f7df2136dac7633165dbff53de3cd",
            "to": "0x10fd0d8280e94d0dbc3013b778ef26d47105ea7b",
            "gas": "0x1141b",
            "value": "0x0",
            "input": "0x3400288b000000000000000000000000000000000000000000000000000000000000759f00000000000000000000000010fd0d8280e94d0dbc3013b778ef26d47105ea7b",
            "nonce": "0x33",
            "chainId": "0xa"
          },
          "additionalContracts": [],
          "isFixedGasLimit": false
        },
        {
          "hash": "0xdc6f60fd021e4cd7dae67fd411ac8a2fd8bc3b4728dcc5a0374cf9211d181697",
          "transactionType": "CALL",
          "contractName": null,
          "contractAddress": "0x9f3d0beafad726bcfd3799f2b7b42eab889ac333",
          "function": "setPeer(uint32,bytes32)",
          "arguments": [
            "30184",
            "0x0000000000000000000000002e18dc8038252fe4855ac66f4ab73abe3a18b91c"
          ],
          "transaction": {
            "from": "0x0ece75f3c36f7df2136dac7633165dbff53de3cd",
            "to": "0x9f3d0beafad726bcfd3799f2b7b42eab889ac333",
            "gas": "0x1141b",
            "value": "0x0",
            "input": "0x3400288b00000000000000000000000000000000000000000000000000000000000075e80000000000000000000000002e18dc8038252fe4855ac66f4ab73abe3a18b91c",
            "nonce": "0x34",
            "chainId": "0xa"
          },
          "additionalContracts": [],
          "isFixedGasLimit": false
        },
        {
          "hash": "0x3e8de3c4e247e0d58a6e775c317858abb952be80ee40628b2f7b52ceeb787667",
          "transactionType": "CALL",
          "contractName": null,
          "contractAddress": "0x9f3d0beafad726bcfd3799f2b7b42eab889ac333",
          "function": "setPeer(uint32,bytes32)",
          "arguments": [
            "30111",
            "0x0000000000000000000000009f3d0beafad726bcfd3799f2b7b42eab889ac333"
          ],
          "transaction": {
            "from": "0x0ece75f3c36f7df2136dac7633165dbff53de3cd",
            "to": "0x9f3d0beafad726bcfd3799f2b7b42eab889ac333",
            "gas": "0x1141b",
            "value": "0x0",
            "input": "0x3400288b000000000000000000000000000000000000000000000000000000000000759f0000000000000000000000009f3d0beafad726bcfd3799f2b7b42eab889ac333",
            "nonce": "0x35",
            "chainId": "0xa"
          },
          "additionalContracts": [],
          "isFixedGasLimit": false
        },
        {
          "hash": "0x9a37ffe765519b1bd5430d2bd4bb7e28421ce2159ff50243737f3adaeb8e51aa",
          "transactionType": "CALL",
          "contractName": null,
          "contractAddress": "0x5cf7bb8568491bb50a1941994fd3da4adf34fe28",
          "function": "setPeer(uint32,bytes32)",
          "arguments": [
            "30184",
            "0x0000000000000000000000002c4fdc631ce418196ab9835aab82227a62c14c75"
          ],
          "transaction": {
            "from": "0x0ece75f3c36f7df2136dac7633165dbff53de3cd",
            "to": "0x5cf7bb8568491bb50a1941994fd3da4adf34fe28",
            "gas": "0x1141b",
            "value": "0x0",
            "input": "0x3400288b00000000000000000000000000000000000000000000000000000000000075e80000000000000000000000002c4fdc631ce418196ab9835aab82227a62c14c75",
            "nonce": "0x36",
            "chainId": "0xa"
          },
          "additionalContracts": [],
          "isFixedGasLimit": false
        },
        {
          "hash": "0x232ed9e66eec277a177fdbfc1da3d5d2cd35fcc5b225b1b9306e3f01131c8dc7",
          "transactionType": "CALL",
          "contractName": null,
          "contractAddress": "0x5cf7bb8568491bb50a1941994fd3da4adf34fe28",
          "function": "setPeer(uint32,bytes32)",
          "arguments": [
            "30111",
            "0x0000000000000000000000005cf7bb8568491bb50a1941994fd3da4adf34fe28"
          ],
          "transaction": {
            "from": "0x0ece75f3c36f7df2136dac7633165dbff53de3cd",
            "to": "0x5cf7bb8568491bb50a1941994fd3da4adf34fe28",
            "gas": "0x1141b",
            "value": "0x0",
            "input": "0x3400288b000000000000000000000000000000000000000000000000000000000000759f0000000000000000000000005cf7bb8568491bb50a1941994fd3da4adf34fe28",
            "nonce": "0x37",
            "chainId": "0xa"
          },
          "additionalContracts": [],
          "isFixedGasLimit": false
        },
        {
          "hash": "0xa6a31665effc4f26d1c8f21d6dfac78c94701617d1ef3825f1fabd17a2226f96",
          "transactionType": "CALL",
          "contractName": null,
          "contractAddress": "0x27eeda6b30dfce416d5de397c78f1e3c87e557bb",
          "function": "setPeer(uint32,bytes32)",
          "arguments": [
            "30184",
            "0x000000000000000000000000530a9078023bed663482d26cedb2bdf8d1d881ea"
          ],
          "transaction": {
            "from": "0x0ece75f3c36f7df2136dac7633165dbff53de3cd",
            "to": "0x27eeda6b30dfce416d5de397c78f1e3c87e557bb",
            "gas": "0x1141b",
            "value": "0x0",
            "input": "0x3400288b00000000000000000000000000000000000000000000000000000000000075e8000000000000000000000000530a9078023bed663482d26cedb2bdf8d1d881ea",
            "nonce": "0x38",
            "chainId": "0xa"
          },
          "additionalContracts": [],
          "isFixedGasLimit": false
        },
        {
          "hash": "0xfb6e31cf155cd73a8117a9f7d5ce0ab00d8449aa3ba17b12758dcad1a16480b2",
          "transactionType": "CALL",
          "contractName": null,
          "contractAddress": "0x27eeda6b30dfce416d5de397c78f1e3c87e557bb",
          "function": "setPeer(uint32,bytes32)",
          "arguments": [
            "30111",
            "0x00000000000000000000000027eeda6b30dfce416d5de397c78f1e3c87e557bb"
          ],
          "transaction": {
            "from": "0x0ece75f3c36f7df2136dac7633165dbff53de3cd",
            "to": "0x27eeda6b30dfce416d5de397c78f1e3c87e557bb",
            "gas": "0x1141b",
            "value": "0x0",
            "input": "0x3400288b000000000000000000000000000000000000000000000000000000000000759f00000000000000000000000027eeda6b30dfce416d5de397c78f1e3c87e557bb",
            "nonce": "0x39",
            "chainId": "0xa"
          },
          "additionalContracts": [],
          "isFixedGasLimit": false
        }
      ],
      "receipts": [
        {
          "status": "0x1",
          "cumulativeGasUsed": "0x5e91b4",
          "logs": [
            {
              "address": "0x10fd0d8280e94d0dbc3013b778ef26d47105ea7b",
              "topics": [
                "0x238399d427b947898edb290f5ff0f9109849b1c3ba196a42e35f00c50a54b98b"
              ],
              "data": "0x00000000000000000000000000000000000000000000000000000000000075e80000000000000000000000005a0971e3d6e0793b9fce640e821435fd8f9fd906",
              "blockHash": "0x351c28c3f0880f832c6a8700909f2d4582a1ff0f095f090179dbf675a69a6b2e",
              "blockNumber": "0x86f8608",
              "blockTimestamp": "0x68d2e5c9",
              "transactionHash": "0x5d973edf61ade2b4aa45937ce8f4d15167022c8573a08e87e2657566598d5c61",
              "transactionIndex": "0x10",
              "logIndex": "0x22",
              "removed": false
            }
          ],
          "logsBloom": "0x00000000000000000000000000000000000000000000000000000000000000000000000000000000000000000008000000000000000000000800000000000000000000000000000000000000100000000000000000000000000000000000000000000000000000000000000000000000000000000000000000000000000000000000000000000000000000000000000000000000000000000000000000000000000000000000000000000000000000000000000000000000000002000000000000000000000000000000000000001000000000000000000000040000000000000000000000000000000000000000000000000000000000000000000000000000",
          "type": "0x2",
          "transactionHash": "0x5d973edf61ade2b4aa45937ce8f4d15167022c8573a08e87e2657566598d5c61",
          "transactionIndex": "0x10",
          "blockHash": "0x351c28c3f0880f832c6a8700909f2d4582a1ff0f095f090179dbf675a69a6b2e",
          "blockNumber": "0x86f8608",
          "gasUsed": "0xbccb",
          "effectiveGasPrice": "0x649",
          "from": "0x0ece75f3c36f7df2136dac7633165dbff53de3cd",
          "to": "0x10fd0d8280e94d0dbc3013b778ef26d47105ea7b",
          "contractAddress": null,
          "l1BaseFeeScalar": "0x146b",
          "l1BlobBaseFee": "0x15",
          "l1BlobBaseFeeScalar": "0xf79c5",
          "l1Fee": "0xc7a1db05",
          "l1GasPrice": "0x17decc34",
          "l1GasUsed": "0x640"
        },
        {
          "status": "0x1",
          "cumulativeGasUsed": "0x5f4e7f",
          "logs": [
            {
              "address": "0x10fd0d8280e94d0dbc3013b778ef26d47105ea7b",
              "topics": [
                "0x238399d427b947898edb290f5ff0f9109849b1c3ba196a42e35f00c50a54b98b"
              ],
              "data": "0x000000000000000000000000000000000000000000000000000000000000759f00000000000000000000000010fd0d8280e94d0dbc3013b778ef26d47105ea7b",
              "blockHash": "0x351c28c3f0880f832c6a8700909f2d4582a1ff0f095f090179dbf675a69a6b2e",
              "blockNumber": "0x86f8608",
              "blockTimestamp": "0x68d2e5c9",
              "transactionHash": "0x68b4300f1b7cfa7eec97083833d4a720c70f530ba82fc42935440e6bc3a38294",
              "transactionIndex": "0x11",
              "logIndex": "0x23",
              "removed": false
            }
          ],
          "logsBloom": "0x00000000000000000000000000000000000000000000000000000000000000000000000000000000000000000008000000000000000000000800000000000000000000000000000000000000100000000000000000000000000000000000000000000000000000000000000000000000000000000000000000000000000000000000000000000000000000000000000000000000000000000000000000000000000000000000000000000000000000000000000000000000000002000000000000000000000000000000000000001000000000000000000000040000000000000000000000000000000000000000000000000000000000000000000000000000",
          "type": "0x2",
          "transactionHash": "0x68b4300f1b7cfa7eec97083833d4a720c70f530ba82fc42935440e6bc3a38294",
          "transactionIndex": "0x11",
          "blockHash": "0x351c28c3f0880f832c6a8700909f2d4582a1ff0f095f090179dbf675a69a6b2e",
          "blockNumber": "0x86f8608",
          "gasUsed": "0xbccb",
          "effectiveGasPrice": "0x649",
          "from": "0x0ece75f3c36f7df2136dac7633165dbff53de3cd",
          "to": "0x10fd0d8280e94d0dbc3013b778ef26d47105ea7b",
          "contractAddress": null,
          "l1BaseFeeScalar": "0x146b",
          "l1BlobBaseFee": "0x15",
          "l1BlobBaseFeeScalar": "0xf79c5",
          "l1Fee": "0xc7a1db05",
          "l1GasPrice": "0x17decc34",
          "l1GasUsed": "0x640"
        },
        {
          "status": "0x1",
          "cumulativeGasUsed": "0x600b4a",
          "logs": [
            {
              "address": "0x9f3d0beafad726bcfd3799f2b7b42eab889ac333",
              "topics": [
                "0x238399d427b947898edb290f5ff0f9109849b1c3ba196a42e35f00c50a54b98b"
              ],
              "data": "0x00000000000000000000000000000000000000000000000000000000000075e80000000000000000000000002e18dc8038252fe4855ac66f4ab73abe3a18b91c",
              "blockHash": "0x351c28c3f0880f832c6a8700909f2d4582a1ff0f095f090179dbf675a69a6b2e",
              "blockNumber": "0x86f8608",
              "blockTimestamp": "0x68d2e5c9",
              "transactionHash": "0xdc6f60fd021e4cd7dae67fd411ac8a2fd8bc3b4728dcc5a0374cf9211d181697",
              "transactionIndex": "0x12",
              "logIndex": "0x24",
              "removed": false
            }
          ],
          "logsBloom": "0x00000000000000000000000000000000000000000000000000000000000000000000000000000000000000000010000000000000000000000800000000000000000000000000000000000000000000000000000000000000000000000000000000000000000000000000000000000000000000000000000000000000000000000000000000000000000000000000000000000000000000000000000000000000000000000000000000000000000000000000000000000000000002000000000000000000000000000000000000000000000000000000000000040000000000000000000000000000000000000000000000000000001000010000000000000000",
          "type": "0x2",
          "transactionHash": "0xdc6f60fd021e4cd7dae67fd411ac8a2fd8bc3b4728dcc5a0374cf9211d181697",
          "transactionIndex": "0x12",
          "blockHash": "0x351c28c3f0880f832c6a8700909f2d4582a1ff0f095f090179dbf675a69a6b2e",
          "blockNumber": "0x86f8608",
          "gasUsed": "0xbccb",
          "effectiveGasPrice": "0x649",
          "from": "0x0ece75f3c36f7df2136dac7633165dbff53de3cd",
          "to": "0x9f3d0beafad726bcfd3799f2b7b42eab889ac333",
          "contractAddress": null,
          "l1BaseFeeScalar": "0x146b",
          "l1BlobBaseFee": "0x15",
          "l1BlobBaseFeeScalar": "0xf79c5",
          "l1Fee": "0xc7a1db05",
          "l1GasPrice": "0x17decc34",
          "l1GasUsed": "0x640"
        },
        {
          "status": "0x1",
          "cumulativeGasUsed": "0x60c815",
          "logs": [
            {
              "address": "0x9f3d0beafad726bcfd3799f2b7b42eab889ac333",
              "topics": [
                "0x238399d427b947898edb290f5ff0f9109849b1c3ba196a42e35f00c50a54b98b"
              ],
              "data": "0x000000000000000000000000000000000000000000000000000000000000759f0000000000000000000000009f3d0beafad726bcfd3799f2b7b42eab889ac333",
              "blockHash": "0x351c28c3f0880f832c6a8700909f2d4582a1ff0f095f090179dbf675a69a6b2e",
              "blockNumber": "0x86f8608",
              "blockTimestamp": "0x68d2e5c9",
              "transactionHash": "0x3e8de3c4e247e0d58a6e775c317858abb952be80ee40628b2f7b52ceeb787667",
              "transactionIndex": "0x13",
              "logIndex": "0x25",
              "removed": false
            }
          ],
          "logsBloom": "0x00000000000000000000000000000000000000000000000000000000000000000000000000000000000000000010000000000000000000000800000000000000000000000000000000000000000000000000000000000000000000000000000000000000000000000000000000000000000000000000000000000000000000000000000000000000000000000000000000000000000000000000000000000000000000000000000000000000000000000000000000000000000002000000000000000000000000000000000000000000000000000000000000040000000000000000000000000000000000000000000000000000001000010000000000000000",
          "type": "0x2",
          "transactionHash": "0x3e8de3c4e247e0d58a6e775c317858abb952be80ee40628b2f7b52ceeb787667",
          "transactionIndex": "0x13",
          "blockHash": "0x351c28c3f0880f832c6a8700909f2d4582a1ff0f095f090179dbf675a69a6b2e",
          "blockNumber": "0x86f8608",
          "gasUsed": "0xbccb",
          "effectiveGasPrice": "0x649",
          "from": "0x0ece75f3c36f7df2136dac7633165dbff53de3cd",
          "to": "0x9f3d0beafad726bcfd3799f2b7b42eab889ac333",
          "contractAddress": null,
          "l1BaseFeeScalar": "0x146b",
          "l1BlobBaseFee": "0x15",
          "l1BlobBaseFeeScalar": "0xf79c5",
          "l1Fee": "0xc7a1db05",
          "l1GasPrice": "0x17decc34",
          "l1GasUsed": "0x640"
        },
        {
          "status": "0x1",
          "cumulativeGasUsed": "0x6184e0",
          "logs": [
            {
              "address": "0x5cf7bb8568491bb50a1941994fd3da4adf34fe28",
              "topics": [
                "0x238399d427b947898edb290f5ff0f9109849b1c3ba196a42e35f00c50a54b98b"
              ],
              "data": "0x00000000000000000000000000000000000000000000000000000000000075e80000000000000000000000002c4fdc631ce418196ab9835aab82227a62c14c75",
              "blockHash": "0x351c28c3f0880f832c6a8700909f2d4582a1ff0f095f090179dbf675a69a6b2e",
              "blockNumber": "0x86f8608",
              "blockTimestamp": "0x68d2e5c9",
              "transactionHash": "0x9a37ffe765519b1bd5430d2bd4bb7e28421ce2159ff50243737f3adaeb8e51aa",
              "transactionIndex": "0x14",
              "logIndex": "0x26",
              "removed": false
            }
          ],
          "logsBloom": "0x00000000000000000000000000000000000000000000000000000000000000000000000000000000000000000000000000000000000000000800000000000000000000000000000000000000000000000000000000000000000000000000000000000000000000000000000000001000000000000000000000000000000000000000000000000000000000000000000000000000000080000000000000000000000000000000000000000000000000000000000000000000000042000000000000000000000000000000000000000000000000000000000000040000000000000000000000000000000000000000000000000000000000000000000000000000",
          "type": "0x2",
          "transactionHash": "0x9a37ffe765519b1bd5430d2bd4bb7e28421ce2159ff50243737f3adaeb8e51aa",
          "transactionIndex": "0x14",
          "blockHash": "0x351c28c3f0880f832c6a8700909f2d4582a1ff0f095f090179dbf675a69a6b2e",
          "blockNumber": "0x86f8608",
          "gasUsed": "0xbccb",
          "effectiveGasPrice": "0x649",
          "from": "0x0ece75f3c36f7df2136dac7633165dbff53de3cd",
          "to": "0x5cf7bb8568491bb50a1941994fd3da4adf34fe28",
          "contractAddress": null,
          "l1BaseFeeScalar": "0x146b",
          "l1BlobBaseFee": "0x15",
          "l1BlobBaseFeeScalar": "0xf79c5",
          "l1Fee": "0xc7a1db05",
          "l1GasPrice": "0x17decc34",
          "l1GasUsed": "0x640"
        },
        {
          "status": "0x1",
          "cumulativeGasUsed": "0x6241ab",
          "logs": [
            {
              "address": "0x5cf7bb8568491bb50a1941994fd3da4adf34fe28",
              "topics": [
                "0x238399d427b947898edb290f5ff0f9109849b1c3ba196a42e35f00c50a54b98b"
              ],
              "data": "0x000000000000000000000000000000000000000000000000000000000000759f0000000000000000000000005cf7bb8568491bb50a1941994fd3da4adf34fe28",
              "blockHash": "0x351c28c3f0880f832c6a8700909f2d4582a1ff0f095f090179dbf675a69a6b2e",
              "blockNumber": "0x86f8608",
              "blockTimestamp": "0x68d2e5c9",
              "transactionHash": "0x232ed9e66eec277a177fdbfc1da3d5d2cd35fcc5b225b1b9306e3f01131c8dc7",
              "transactionIndex": "0x15",
              "logIndex": "0x27",
              "removed": false
            }
          ],
          "logsBloom": "0x00000000000000000000000000000000000000000000000000000000000000000000000000000000000000000000000000000000000000000800000000000000000000000000000000000000000000000000000000000000000000000000000000000000000000000000000000001000000000000000000000000000000000000000000000000000000000000000000000000000000080000000000000000000000000000000000000000000000000000000000000000000000042000000000000000000000000000000000000000000000000000000000000040000000000000000000000000000000000000000000000000000000000000000000000000000",
          "type": "0x2",
          "transactionHash": "0x232ed9e66eec277a177fdbfc1da3d5d2cd35fcc5b225b1b9306e3f01131c8dc7",
          "transactionIndex": "0x15",
          "blockHash": "0x351c28c3f0880f832c6a8700909f2d4582a1ff0f095f090179dbf675a69a6b2e",
          "blockNumber": "0x86f8608",
          "gasUsed": "0xbccb",
          "effectiveGasPrice": "0x649",
          "from": "0x0ece75f3c36f7df2136dac7633165dbff53de3cd",
          "to": "0x5cf7bb8568491bb50a1941994fd3da4adf34fe28",
          "contractAddress": null,
          "l1BaseFeeScalar": "0x146b",
          "l1BlobBaseFee": "0x15",
          "l1BlobBaseFeeScalar": "0xf79c5",
          "l1Fee": "0xc7a1db05",
          "l1GasPrice": "0x17decc34",
          "l1GasUsed": "0x640"
        },
        {
          "status": "0x1",
          "cumulativeGasUsed": "0x62fe76",
          "logs": [
            {
              "address": "0x27eeda6b30dfce416d5de397c78f1e3c87e557bb",
              "topics": [
                "0x238399d427b947898edb290f5ff0f9109849b1c3ba196a42e35f00c50a54b98b"
              ],
              "data": "0x00000000000000000000000000000000000000000000000000000000000075e8000000000000000000000000530a9078023bed663482d26cedb2bdf8d1d881ea",
              "blockHash": "0x351c28c3f0880f832c6a8700909f2d4582a1ff0f095f090179dbf675a69a6b2e",
              "blockNumber": "0x86f8608",
              "blockTimestamp": "0x68d2e5c9",
              "transactionHash": "0xa6a31665effc4f26d1c8f21d6dfac78c94701617d1ef3825f1fabd17a2226f96",
              "transactionIndex": "0x16",
              "logIndex": "0x28",
              "removed": false
            }
          ],
          "logsBloom": "0x00000000000000000000000400020000000000000000000000000000000000000000000000000000000000000000000000000000000000000800000000000000000000000000000000000000080000000000000000000000000000000000000000000000000000000000000000000000000000000000000000000000000000000000000000000000000000000000000000000000000000000000000000000000000000000000000000000000000000000000000000000000000002000000000000000000000000000000000000000000000000000000000000040000000000000000000000000000000000000000000000000000000000000000000000000000",
          "type": "0x2",
          "transactionHash": "0xa6a31665effc4f26d1c8f21d6dfac78c94701617d1ef3825f1fabd17a2226f96",
          "transactionIndex": "0x16",
          "blockHash": "0x351c28c3f0880f832c6a8700909f2d4582a1ff0f095f090179dbf675a69a6b2e",
          "blockNumber": "0x86f8608",
          "gasUsed": "0xbccb",
          "effectiveGasPrice": "0x649",
          "from": "0x0ece75f3c36f7df2136dac7633165dbff53de3cd",
          "to": "0x27eeda6b30dfce416d5de397c78f1e3c87e557bb",
          "contractAddress": null,
          "l1BaseFeeScalar": "0x146b",
          "l1BlobBaseFee": "0x15",
          "l1BlobBaseFeeScalar": "0xf79c5",
          "l1Fee": "0xc7a1db05",
          "l1GasPrice": "0x17decc34",
          "l1GasUsed": "0x640"
        },
        {
          "status": "0x1",
          "cumulativeGasUsed": "0x63bb41",
          "logs": [
            {
              "address": "0x27eeda6b30dfce416d5de397c78f1e3c87e557bb",
              "topics": [
                "0x238399d427b947898edb290f5ff0f9109849b1c3ba196a42e35f00c50a54b98b"
              ],
              "data": "0x000000000000000000000000000000000000000000000000000000000000759f00000000000000000000000027eeda6b30dfce416d5de397c78f1e3c87e557bb",
              "blockHash": "0x351c28c3f0880f832c6a8700909f2d4582a1ff0f095f090179dbf675a69a6b2e",
              "blockNumber": "0x86f8608",
              "blockTimestamp": "0x68d2e5c9",
              "transactionHash": "0xfb6e31cf155cd73a8117a9f7d5ce0ab00d8449aa3ba17b12758dcad1a16480b2",
              "transactionIndex": "0x17",
              "logIndex": "0x29",
              "removed": false
            }
          ],
          "logsBloom": "0x00000000000000000000000400020000000000000000000000000000000000000000000000000000000000000000000000000000000000000800000000000000000000000000000000000000080000000000000000000000000000000000000000000000000000000000000000000000000000000000000000000000000000000000000000000000000000000000000000000000000000000000000000000000000000000000000000000000000000000000000000000000000002000000000000000000000000000000000000000000000000000000000000040000000000000000000000000000000000000000000000000000000000000000000000000000",
          "type": "0x2",
          "transactionHash": "0xfb6e31cf155cd73a8117a9f7d5ce0ab00d8449aa3ba17b12758dcad1a16480b2",
          "transactionIndex": "0x17",
          "blockHash": "0x351c28c3f0880f832c6a8700909f2d4582a1ff0f095f090179dbf675a69a6b2e",
          "blockNumber": "0x86f8608",
          "gasUsed": "0xbccb",
          "effectiveGasPrice": "0x649",
          "from": "0x0ece75f3c36f7df2136dac7633165dbff53de3cd",
          "to": "0x27eeda6b30dfce416d5de397c78f1e3c87e557bb",
          "contractAddress": null,
          "l1BaseFeeScalar": "0x146b",
          "l1BlobBaseFee": "0x15",
          "l1BlobBaseFeeScalar": "0xf79c5",
          "l1Fee": "0xc7a1db05",
          "l1GasPrice": "0x17decc34",
          "l1GasUsed": "0x640"
        }
      ],
      "libraries": [],
      "pending": [],
      "returns": {},
      "timestamp": 1758651844401,
      "chain": 10,
      "commit": "53213c9"
    }
  ],
  "timestamp": 1758651850644
}