{
  "transactions": [
    {
      "hash": "0x1ba2edcbe7071f5ce031401b99f0eeedaa17418158e27e223e5bd0058c4e780e",
      "transactionType": "CALL",
      "contractName": null,
      "contractAddress": "0xc746b3aab0c6da075c9b7b43ceebd437ef759d5b",
      "function": "setOperator(address,bool)",
      "arguments": [
        "0x0000000000000000000000000000000000000000",
        "true"
      ],
      "transaction": {
        "from": "0x0ece75f3c36f7df2136dac7633165dbff53de3cd",
        "to": "0xc746b3aab0c6da075c9b7b43ceebd437ef759d5b",
        "gas": "0xf7d0",
        "value": "0x0",
        "input": "0x558a729700000000000000000000000000000000000000000000000000000000000000000000000000000000000000000000000000000000000000000000000000000001",
        "nonce": "0x59",
        "chainId": "0xa4b1"
      },
      "additionalContracts": [],
      "isFixedGasLimit": false
    },
    {
      "hash": "0xe63c7bf3d4b04ac0b76dc498886c50c9f6e9b9347e7356417888b42a5b271811",
      "transactionType": "CALL",
      "contractName": null,
      "contractAddress": "0x7b3c20d2b3f8c205f624e62d356354ed1ae9f64b",
      "function": "setOperator(address,bool)",
      "arguments": [
        "0x0000000000000000000000000000000000000000",
        "true"
      ],
      "transaction": {
        "from": "0x0ece75f3c36f7df2136dac7633165dbff53de3cd",
        "to": "0x7b3c20d2b3f8c205f624e62d356354ed1ae9f64b",
        "gas": "0xf7d2",
        "value": "0x0",
        "input": "0x558a729700000000000000000000000000000000000000000000000000000000000000000000000000000000000000000000000000000000000000000000000000000001",
        "nonce": "0x5a",
        "chainId": "0xa4b1"
      },
      "additionalContracts": [],
      "isFixedGasLimit": false
    },
    {
      "hash": "0xa2e60ebea1822536bf0b58849d50da8ed9de056f0ec2a6be1d4bf325755a1f87",
      "transactionType": "CALL",
      "contractName": null,
      "contractAddress": "0x1fead2bdaaebb03c2739949ea3b2145f064378f0",
      "function": "setOperator(address,bool)",
      "arguments": [
        "0x0000000000000000000000000000000000000000",
        "true"
      ],
      "transaction": {
        "from": "0x0ece75f3c36f7df2136dac7633165dbff53de3cd",
        "to": "0x1fead2bdaaebb03c2739949ea3b2145f064378f0",
        "gas": "0xf7d0",
        "value": "0x0",
        "input": "0x558a729700000000000000000000000000000000000000000000000000000000000000000000000000000000000000000000000000000000000000000000000000000001",
        "nonce": "0x5b",
        "chainId": "0xa4b1"
      },
      "additionalContracts": [],
      "isFixedGasLimit": false
    },
    {
      "hash": "0xe2254d9f765e567a0e609e078e7ff2335991186e1d57d79fc80ba0f3f685d187",
      "transactionType": "CALL",
      "contractName": null,
      "contractAddress": "0x6ce216ec20272c69a8f3fd8bc8d13d770651fa56",
      "function": "setOperator(address,bool)",
      "arguments": [
        "0x0000000000000000000000000000000000000000",
        "true"
      ],
      "transaction": {
        "from": "0x0ece75f3c36f7df2136dac7633165dbff53de3cd",
        "to": "0x6ce216ec20272c69a8f3fd8bc8d13d770651fa56",
        "gas": "0xf7d0",
        "value": "0x0",
        "input": "0x558a729700000000000000000000000000000000000000000000000000000000000000000000000000000000000000000000000000000000000000000000000000000001",
        "nonce": "0x5c",
        "chainId": "0xa4b1"
      },
      "additionalContracts": [],
      "isFixedGasLimit": false
    }
  ],
  "receipts": [
    {
      "status": "0x1",
      "cumulativeGasUsed": "0x69850",
      "logs": [],
      "logsBloom": "0x00000000000000000000000000000000000000000000000000000000000000000000000000000000000000000000000000000000000000000000000000000000000000000000000000000000000000000000000000000000000000000000000000000000000000000000000000000000000000000000000000000000000000000000000000000000000000000000000000000000000000000000000000000000000000000000000000000000000000000000000000000000000000000000000000000000000000000000000000000000000000000000000000000000000000000000000000000000000000000000000000000000000000000000000000000000",
      "type": "0x2",
      "transactionHash": "0x1ba2edcbe7071f5ce031401b99f0eeedaa17418158e27e223e5bd0058c4e780e",
      "transactionIndex": "0x7",
      "blockHash": "0x4684bf232a098ed91cd42d0a56bf37a71e8ec1fbb08f36a2e1066f364b56620b",
      "blockNumber": "0x175c87cf",
      "gasUsed": "0xba78",
      "effectiveGasPrice": "0xce5068",
      "from": "0x0ece75f3c36f7df2136dac7633165dbff53de3cd",
      "to": "0xc746b3aab0c6da075c9b7b43ceebd437ef759d5b",
      "contractAddress": null,
      "gasUsedForL1": "0x656",
      "l1BlockNumber": "0x168871e",
      "timeboosted": false
    },
    {
      "status": "0x1",
      "cumulativeGasUsed": "0xb48b9",
      "logs": [],
      "logsBloom": "0x00000000000000000000000000000000000000000000000000000000000000000000000000000000000000000000000000000000000000000000000000000000000000000000000000000000000000000000000000000000000000000000000000000000000000000000000000000000000000000000000000000000000000000000000000000000000000000000000000000000000000000000000000000000000000000000000000000000000000000000000000000000000000000000000000000000000000000000000000000000000000000000000000000000000000000000000000000000000000000000000000000000000000000000000000000000",
      "type": "0x2",
      "transactionHash": "0xe63c7bf3d4b04ac0b76dc498886c50c9f6e9b9347e7356417888b42a5b271811",
      "transactionIndex": "0x4",
      "blockHash": "0xc58e577636f4713db2048da0183e0f68b5808f0b5a0cc46f213afef2ffd69303",
      "blockNumber": "0x175c87dc",
      "gasUsed": "0xba6a",
      "effectiveGasPrice": "0xd02140",
      "from": "0x0ece75f3c36f7df2136dac7633165dbff53de3cd",
      "to": "0x7b3c20d2b3f8c205f624e62d356354ed1ae9f64b",
      "contractAddress": null,
      "gasUsedForL1": "0x648",
      "l1BlockNumber": "0x168871e",
      "timeboosted": false
    },
    {
      "status": "0x1",
      "cumulativeGasUsed": "0x2e1ca",
      "logs": [],
      "logsBloom": "0x00000000000000000000000000000000000000000000000000000000000000000000000000000000000000000000000000000000000000000000000000000000000000000000000000000000000000000000000000000000000000000000000000000000000000000000000000000000000000000000000000000000000000000000000000000000000000000000000000000000000000000000000000000000000000000000000000000000000000000000000000000000000000000000000000000000000000000000000000000000000000000000000000000000000000000000000000000000000000000000000000000000000000000000000000000000",
      "type": "0x2",
      "transactionHash": "0xa2e60ebea1822536bf0b58849d50da8ed9de056f0ec2a6be1d4bf325755a1f87",
      "transactionIndex": "0x4",
      "blockHash": "0xc89a59782661b55628eee2e7f1af909963f6207fa5cae13fc4001836895026e4",
      "blockNumber": "0x175c87e8",
      "gasUsed": "0xba77",
      "effectiveGasPrice": "0xce7778",
      "from": "0x0ece75f3c36f7df2136dac7633165dbff53de3cd",
      "to": "0x1fead2bdaaebb03c2739949ea3b2145f064378f0",
      "contractAddress": null,
      "gasUsedForL1": "0x655",
      "l1BlockNumber": "0x168871f",
      "timeboosted": false
    },
    {
      "status": "0x1",
      "cumulativeGasUsed": "0x473d8",
      "logs": [],
      "logsBloom": "0x00000000000000000000000000000000000000000000000000000000000000000000000000000000000000000000000000000000000000000000000000000000000000000000000000000000000000000000000000000000000000000000000000000000000000000000000000000000000000000000000000000000000000000000000000000000000000000000000000000000000000000000000000000000000000000000000000000000000000000000000000000000000000000000000000000000000000000000000000000000000000000000000000000000000000000000000000000000000000000000000000000000000000000000000000000000",
      "type": "0x2",
      "transactionHash": "0xe2254d9f765e567a0e609e078e7ff2335991186e1d57d79fc80ba0f3f685d187",
      "transactionIndex": "0x3",
      "blockHash": "0x7ae03e806baab86cb6e92665fd28ef1d8a2e8337fb8b97546234e75a37d81139",
      "blockNumber": "0x175c87ed",
      "gasUsed": "0xba80",
      "effectiveGasPrice": "0xcd4e98",
      "from": "0x0ece75f3c36f7df2136dac7633165dbff53de3cd",
      "to": "0x6ce216ec20272c69a8f3fd8bc8d13d770651fa56",
      "contractAddress": null,
      "gasUsedForL1": "0x65e",
      "l1BlockNumber": "0x168871f",
      "timeboosted": false
    }
  ],
  "libraries": [],
  "pending": [],
  "returns": {},
  "timestamp": 1761069298318,
  "chain": 42161,
  "commit": "df18ae1"
}