{
  "transactions": [
    {
      "hash": "0x4214948317df6e917297ca93588d6ae5731339b9eb83a51d353e5a03eee43104",
      "transactionType": "CALL",
      "contractName": null,
      "contractAddress": "0x1a44076050125825900e736c501f859c50fe728c",
      "function": "setSendLibrary(address,uint32,address)",
      "arguments": [
        "0x67165C24A886AAAf1bFA81934e44a2063c6B608C",
        "30184",
        "0x975bcD720be66659e3EB3C0e4F1866a3020E493A"
      ],
      "transaction": {
        "from": "0x0ece75f3c36f7df2136dac7633165dbff53de3cd",
        "to": "0x1a44076050125825900e736c501f859c50fe728c",
        "gas": "0x12f17",
        "value": "0x0",
        "input": "0x9535ff3000000000000000000000000067165c24a886aaaf1bfa81934e44a2063c6b608c00000000000000000000000000000000000000000000000000000000000075e8000000000000000000000000975bcd720be66659e3eb3c0e4f1866a3020e493a",
        "nonce": "0x2f",
        "chainId": "0xa4b1"
      },
      "additionalContracts": [],
      "isFixedGasLimit": false
    },
    {
      "hash": "0xbb25ea4d9d3be787657ec913f1f950c744ff6522e10bce18888a386c31d0037b",
      "transactionType": "CALL",
      "contractName": null,
      "contractAddress": "0x1a44076050125825900e736c501f859c50fe728c",
      "function": "setSendLibrary(address,uint32,address)",
      "arguments": [
        "0xeBb7a56fd2D0231A9BF7240542cbD09a641a29Fc",
        "30184",
        "0x975bcD720be66659e3EB3C0e4F1866a3020E493A"
      ],
      "transaction": {
        "from": "0x0ece75f3c36f7df2136dac7633165dbff53de3cd",
        "to": "0x1a44076050125825900e736c501f859c50fe728c",
        "gas": "0x12f17",
        "value": "0x0",
        "input": "0x9535ff30000000000000000000000000ebb7a56fd2d0231a9bf7240542cbd09a641a29fc00000000000000000000000000000000000000000000000000000000000075e8000000000000000000000000975bcd720be66659e3eb3c0e4f1866a3020e493a",
        "nonce": "0x30",
        "chainId": "0xa4b1"
      },
      "additionalContracts": [],
      "isFixedGasLimit": false
    },
    {
      "hash": "0xaaff3c95e5c0b221add2fdc05094a4f0ae9ab6ebefcd29641f857d7f2e646318",
      "transactionType": "CALL",
      "contractName": null,
      "contractAddress": "0x1a44076050125825900e736c501f859c50fe728c",
      "function": "setSendLibrary(address,uint32,address)",
      "arguments": [
        "0xA85C480f229FAC050ecc53FAedE343628bC242cb",
        "30184",
        "0x975bcD720be66659e3EB3C0e4F1866a3020E493A"
      ],
      "transaction": {
        "from": "0x0ece75f3c36f7df2136dac7633165dbff53de3cd",
        "to": "0x1a44076050125825900e736c501f859c50fe728c",
        "gas": "0x12f16",
        "value": "0x0",
        "input": "0x9535ff30000000000000000000000000a85c480f229fac050ecc53faede343628bc242cb00000000000000000000000000000000000000000000000000000000000075e8000000000000000000000000975bcd720be66659e3eb3c0e4f1866a3020e493a",
        "nonce": "0x31",
        "chainId": "0xa4b1"
      },
      "additionalContracts": [],
      "isFixedGasLimit": false
    },
    {
      "hash": "0xa4b3658b781ddd3e3ba29710d1bf43c52f588dc61c08cc1755d66e223e89b87c",
      "transactionType": "CALL",
      "contractName": null,
      "contractAddress": "0x1a44076050125825900e736c501f859c50fe728c",
      "function": "setSendLibrary(address,uint32,address)",
      "arguments": [
        "0xEb36AA674745c48381AA3A8074E5485586dBD308",
        "30184",
        "0x975bcD720be66659e3EB3C0e4F1866a3020E493A"
      ],
      "transaction": {
        "from": "0x0ece75f3c36f7df2136dac7633165dbff53de3cd",
        "to": "0x1a44076050125825900e736c501f859c50fe728c",
        "gas": "0x12f16",
        "value": "0x0",
        "input": "0x9535ff30000000000000000000000000eb36aa674745c48381aa3a8074e5485586dbd30800000000000000000000000000000000000000000000000000000000000075e8000000000000000000000000975bcd720be66659e3eb3c0e4f1866a3020e493a",
        "nonce": "0x32",
        "chainId": "0xa4b1"
      },
      "additionalContracts": [],
      "isFixedGasLimit": false
    },
    {
      "hash": "0xe23ccdb60cf4d170ab5bc95dd7274589f78a74ce7313a618eea4cf467bd10235",
      "transactionType": "CALL",
      "contractName": null,
      "contractAddress": "0x1a44076050125825900e736c501f859c50fe728c",
      "function": "setSendLibrary(address,uint32,address)",
      "arguments": [
        "0xd506b22a6b3216b736021FA262D0F5D686e07b35",
        "30184",
        "0x975bcD720be66659e3EB3C0e4F1866a3020E493A"
      ],
      "transaction": {
        "from": "0x0ece75f3c36f7df2136dac7633165dbff53de3cd",
        "to": "0x1a44076050125825900e736c501f859c50fe728c",
        "gas": "0x12f16",
        "value": "0x0",
        "input": "0x9535ff30000000000000000000000000d506b22a6b3216b736021fa262d0f5d686e07b3500000000000000000000000000000000000000000000000000000000000075e8000000000000000000000000975bcd720be66659e3eb3c0e4f1866a3020e493a",
        "nonce": "0x33",
        "chainId": "0xa4b1"
      },
      "additionalContracts": [],
      "isFixedGasLimit": false
    },
    {
      "hash": "0x8f4ba39adc0bde1703af25b888951e14f22797817dbe8f13805101edd5831315",
      "transactionType": "CALL",
      "contractName": null,
      "contractAddress": "0x1a44076050125825900e736c501f859c50fe728c",
      "function": "setSendLibrary(address,uint32,address)",
      "arguments": [
        "0x02a66B51Fc24E08535a6Cfe1e11E532D8A089212",
        "30184",
        "0x975bcD720be66659e3EB3C0e4F1866a3020E493A"
      ],
      "transaction": {
        "from": "0x0ece75f3c36f7df2136dac7633165dbff53de3cd",
        "to": "0x1a44076050125825900e736c501f859c50fe728c",
        "gas": "0x12f16",
        "value": "0x0",
        "input": "0x9535ff3000000000000000000000000002a66b51fc24e08535a6cfe1e11e532d8a08921200000000000000000000000000000000000000000000000000000000000075e8000000000000000000000000975bcd720be66659e3eb3c0e4f1866a3020e493a",
        "nonce": "0x34",
        "chainId": "0xa4b1"
      },
      "additionalContracts": [],
      "isFixedGasLimit": false
    },
    {
      "hash": "0xdc694d25833b85ca86ddc7fa64af85f47167b108fcff15fff858bbba410b5d57",
      "transactionType": "CALL",
      "contractName": null,
      "contractAddress": "0x1a44076050125825900e736c501f859c50fe728c",
      "function": "setSendLibrary(address,uint32,address)",
      "arguments": [
        "0xc3be8ab4CA0cefE3119A765b324bBDF54a16A65b",
        "30184",
        "0x975bcD720be66659e3EB3C0e4F1866a3020E493A"
      ],
      "transaction": {
        "from": "0x0ece75f3c36f7df2136dac7633165dbff53de3cd",
        "to": "0x1a44076050125825900e736c501f859c50fe728c",
        "gas": "0x12f16",
        "value": "0x0",
        "input": "0x9535ff30000000000000000000000000c3be8ab4ca0cefe3119a765b324bbdf54a16a65b00000000000000000000000000000000000000000000000000000000000075e8000000000000000000000000975bcd720be66659e3eb3c0e4f1866a3020e493a",
        "nonce": "0x35",
        "chainId": "0xa4b1"
      },
      "additionalContracts": [],
      "isFixedGasLimit": false
    },
    {
      "hash": "0x1084a370d00f582a5cb5fe4565f95acb03bbc637b39114ac1a52a61fbebedd5a",
      "transactionType": "CALL",
      "contractName": null,
      "contractAddress": "0x1a44076050125825900e736c501f859c50fe728c",
      "function": "setReceiveLibrary(address,uint32,address,uint256)",
      "arguments": [
        "0x67165C24A886AAAf1bFA81934e44a2063c6B608C",
        "30110",
        "0x7B9E184e07a6EE1aC23eAe0fe8D6Be2f663f05e6",
        "0"
      ],
      "transaction": {
        "from": "0x0ece75f3c36f7df2136dac7633165dbff53de3cd",
        "to": "0x1a44076050125825900e736c501f859c50fe728c",
        "gas": "0x151f8",
        "value": "0x0",
        "input": "0x6a14d71500000000000000000000000067165c24a886aaaf1bfa81934e44a2063c6b608c000000000000000000000000000000000000000000000000000000000000759e0000000000000000000000007b9e184e07a6ee1ac23eae0fe8d6be2f663f05e60000000000000000000000000000000000000000000000000000000000000000",
        "nonce": "0x36",
        "chainId": "0xa4b1"
      },
      "additionalContracts": [],
      "isFixedGasLimit": false
    },
    {
      "hash": "0x4b92ad3577ed6555880bc15ed8a9c1970762d286f52cbf297ab77bd0308a1088",
      "transactionType": "CALL",
      "contractName": null,
      "contractAddress": "0x1a44076050125825900e736c501f859c50fe728c",
      "function": "setReceiveLibrary(address,uint32,address,uint256)",
      "arguments": [
        "0xeBb7a56fd2D0231A9BF7240542cbD09a641a29Fc",
        "30110",
        "0x7B9E184e07a6EE1aC23eAe0fe8D6Be2f663f05e6",
        "0"
      ],
      "transaction": {
        "from": "0x0ece75f3c36f7df2136dac7633165dbff53de3cd",
        "to": "0x1a44076050125825900e736c501f859c50fe728c",
        "gas": "0x151f8",
        "value": "0x0",
        "input": "0x6a14d715000000000000000000000000ebb7a56fd2d0231a9bf7240542cbd09a641a29fc000000000000000000000000000000000000000000000000000000000000759e0000000000000000000000007b9e184e07a6ee1ac23eae0fe8d6be2f663f05e60000000000000000000000000000000000000000000000000000000000000000",
        "nonce": "0x37",
        "chainId": "0xa4b1"
      },
      "additionalContracts": [],
      "isFixedGasLimit": false
    },
    {
      "hash": "0xe2951aaa3e26da9e9755b0331049f304b09190104da8350f82387278e7d04bfc",
      "transactionType": "CALL",
      "contractName": null,
      "contractAddress": "0x1a44076050125825900e736c501f859c50fe728c",
      "function": "setReceiveLibrary(address,uint32,address,uint256)",
      "arguments": [
        "0xA85C480f229FAC050ecc53FAedE343628bC242cb",
        "30110",
        "0x7B9E184e07a6EE1aC23eAe0fe8D6Be2f663f05e6",
        "0"
      ],
      "transaction": {
        "from": "0x0ece75f3c36f7df2136dac7633165dbff53de3cd",
        "to": "0x1a44076050125825900e736c501f859c50fe728c",
        "gas": "0x151f8",
        "value": "0x0",
        "input": "0x6a14d715000000000000000000000000a85c480f229fac050ecc53faede343628bc242cb000000000000000000000000000000000000000000000000000000000000759e0000000000000000000000007b9e184e07a6ee1ac23eae0fe8d6be2f663f05e60000000000000000000000000000000000000000000000000000000000000000",
        "nonce": "0x38",
        "chainId": "0xa4b1"
      },
      "additionalContracts": [],
      "isFixedGasLimit": false
    },
    {
      "hash": "0x3fe78140c0320d7c6ef1bb97f39e82d88bfbc0938c348843b00ef038c06a65de",
      "transactionType": "CALL",
      "contractName": null,
      "contractAddress": "0x1a44076050125825900e736c501f859c50fe728c",
      "function": "setReceiveLibrary(address,uint32,address,uint256)",
      "arguments": [
        "0xEb36AA674745c48381AA3A8074E5485586dBD308",
        "30110",
        "0x7B9E184e07a6EE1aC23eAe0fe8D6Be2f663f05e6",
        "0"
      ],
      "transaction": {
        "from": "0x0ece75f3c36f7df2136dac7633165dbff53de3cd",
        "to": "0x1a44076050125825900e736c501f859c50fe728c",
        "gas": "0x151f8",
        "value": "0x0",
        "input": "0x6a14d715000000000000000000000000eb36aa674745c48381aa3a8074e5485586dbd308000000000000000000000000000000000000000000000000000000000000759e0000000000000000000000007b9e184e07a6ee1ac23eae0fe8d6be2f663f05e60000000000000000000000000000000000000000000000000000000000000000",
        "nonce": "0x39",
        "chainId": "0xa4b1"
      },
      "additionalContracts": [],
      "isFixedGasLimit": false
    },
    {
      "hash": "0xff4a0b3a41b7405fb77cb9cdaec5b2bce7a7737974e8b0e3c4ecafcfe7ec8b30",
      "transactionType": "CALL",
      "contractName": null,
      "contractAddress": "0x1a44076050125825900e736c501f859c50fe728c",
      "function": "setReceiveLibrary(address,uint32,address,uint256)",
      "arguments": [
        "0xd506b22a6b3216b736021FA262D0F5D686e07b35",
        "30110",
        "0x7B9E184e07a6EE1aC23eAe0fe8D6Be2f663f05e6",
        "0"
      ],
      "transaction": {
        "from": "0x0ece75f3c36f7df2136dac7633165dbff53de3cd",
        "to": "0x1a44076050125825900e736c501f859c50fe728c",
        "gas": "0x151f6",
        "value": "0x0",
        "input": "0x6a14d715000000000000000000000000d506b22a6b3216b736021fa262d0f5d686e07b35000000000000000000000000000000000000000000000000000000000000759e0000000000000000000000007b9e184e07a6ee1ac23eae0fe8d6be2f663f05e60000000000000000000000000000000000000000000000000000000000000000",
        "nonce": "0x3a",
        "chainId": "0xa4b1"
      },
      "additionalContracts": [],
      "isFixedGasLimit": false
    },
    {
      "hash": "0x284d2ff3c5458a404fd9d70489898025df0cf529c098e67959a126a3a0853104",
      "transactionType": "CALL",
      "contractName": null,
      "contractAddress": "0x1a44076050125825900e736c501f859c50fe728c",
      "function": "setReceiveLibrary(address,uint32,address,uint256)",
      "arguments": [
        "0x02a66B51Fc24E08535a6Cfe1e11E532D8A089212",
        "30110",
        "0x7B9E184e07a6EE1aC23eAe0fe8D6Be2f663f05e6",
        "0"
      ],
      "transaction": {
        "from": "0x0ece75f3c36f7df2136dac7633165dbff53de3cd",
        "to": "0x1a44076050125825900e736c501f859c50fe728c",
        "gas": "0x151f6",
        "value": "0x0",
        "input": "0x6a14d71500000000000000000000000002a66b51fc24e08535a6cfe1e11e532d8a089212000000000000000000000000000000000000000000000000000000000000759e0000000000000000000000007b9e184e07a6ee1ac23eae0fe8d6be2f663f05e60000000000000000000000000000000000000000000000000000000000000000",
        "nonce": "0x3b",
        "chainId": "0xa4b1"
      },
      "additionalContracts": [],
      "isFixedGasLimit": false
    },
    {
      "hash": "0x0afb06c6219c4a008b72d85169bcbfc5c8e7d6ba8581df1fc466c9f6fe33c775",
      "transactionType": "CALL",
      "contractName": null,
      "contractAddress": "0x1a44076050125825900e736c501f859c50fe728c",
      "function": "setReceiveLibrary(address,uint32,address,uint256)",
      "arguments": [
        "0xc3be8ab4CA0cefE3119A765b324bBDF54a16A65b",
        "30110",
        "0x7B9E184e07a6EE1aC23eAe0fe8D6Be2f663f05e6",
        "0"
      ],
      "transaction": {
        "from": "0x0ece75f3c36f7df2136dac7633165dbff53de3cd",
        "to": "0x1a44076050125825900e736c501f859c50fe728c",
        "gas": "0x151f6",
        "value": "0x0",
        "input": "0x6a14d715000000000000000000000000c3be8ab4ca0cefe3119a765b324bbdf54a16a65b000000000000000000000000000000000000000000000000000000000000759e0000000000000000000000007b9e184e07a6ee1ac23eae0fe8d6be2f663f05e60000000000000000000000000000000000000000000000000000000000000000",
        "nonce": "0x3c",
        "chainId": "0xa4b1"
      },
      "additionalContracts": [],
      "isFixedGasLimit": false
    },
    {
      "hash": "0x72eae8afaf0f4182682ece58d0a861021f34ddb82f1c6ad6ea27855bdc3835ae",
      "transactionType": "CALL",
      "contractName": null,
      "contractAddress": "0x1a44076050125825900e736c501f859c50fe728c",
      "function": "setConfig(address,address,(uint32,uint32,bytes)[])",
      "arguments": [
        "0xeBb7a56fd2D0231A9BF7240542cbD09a641a29Fc",
        "0x975bcD720be66659e3EB3C0e4F1866a3020E493A",
        "[(30110, 1, 0x000000000000000000000000000000000000000000000000000000000000271000000000000000000000000031cae3b7fb82d847621859fb1585353c5720660d), (30110, 2, 0x0000000000000000000000000000000000000000000000000000000000000020000000000000000000000000000000000000000000000000000000000000000f000000000000000000000000000000000000000000000000000000000000000200000000000000000000000000000000000000000000000000000000000000ff000000000000000000000000000000000000000000000000000000000000000000000000000000000000000000000000000000000000000000000000000000c00000000000000000000000000000000000000000000000000000000000000120000000000000000000000000000000000000000000000000000000000000000200000000000000000000000019670df5e16bea2ba9b9e68b48c054c5baea06b8000000000000000000000000f2e380c90e6c09721297526dbc74f870e114dfcb0000000000000000000000000000000000000000000000000000000000000000), (30184, 1, 0x000000000000000000000000000000000000000000000000000000000000271000000000000000000000000031cae3b7fb82d847621859fb1585353c5720660d), (30184, 2, 0x0000000000000000000000000000000000000000000000000000000000000020000000000000000000000000000000000000000000000000000000000000000f000000000000000000000000000000000000000000000000000000000000000200000000000000000000000000000000000000000000000000000000000000ff000000000000000000000000000000000000000000000000000000000000000000000000000000000000000000000000000000000000000000000000000000c00000000000000000000000000000000000000000000000000000000000000120000000000000000000000000000000000000000000000000000000000000000200000000000000000000000019670df5e16bea2ba9b9e68b48c054c5baea06b8000000000000000000000000f2e380c90e6c09721297526dbc74f870e114dfcb0000000000000000000000000000000000000000000000000000000000000000)]"
      ],
      "transaction": {
        "from": "0x0ece75f3c36f7df2136dac7633165dbff53de3cd",
        "to": "0x1a44076050125825900e736c501f859c50fe728c",
        "gas": "0x6306b",
        "value": "0x0",
        "input": "0x6dbd9f90000000000000000000000000ebb7a56fd2d0231a9bf7240542cbd09a641a29fc000000000000000000000000975bcd720be66659e3eb3c0e4f1866a3020e493a0000000000000000000000000000000000000000000000000000000000000060000000000000000000000000000000000000000000000000000000000000000400000000000000000000000000000000000000000000000000000000000000800000000000000000000000000000000000000000000000000000000000000140000000000000000000000000000000000000000000000000000000000000032000000000000000000000000000000000000000000000000000000000000003e0000000000000000000000000000000000000000000000000000000000000759e000000000000000000000000000000000000000000000000000000000000000100000000000000000000000000000000000000000000000000000000000000600000000000000000000000000000000000000000000000000000000000000040000000000000000000000000000000000000000000000000000000000000271000000000000000000000000031cae3b7fb82d847621859fb1585353c5720660d000000000000000000000000000000000000000000000000000000000000759e0000000000000000000000000000000000000000000000000000000000000002000000000000000000000000000000000000000000000000000000000000006000000000000000000000000000000000000000000000000000000000000001600000000000000000000000000000000000000000000000000000000000000020000000000000000000000000000000000000000000000000000000000000000f000000000000000000000000000000000000000000000000000000000000000200000000000000000000000000000000000000000000000000000000000000ff000000000000000000000000000000000000000000000000000000000000000000000000000000000000000000000000000000000000000000000000000000c00000000000000000000000000000000000000000000000000000000000000120000000000000000000000000000000000000000000000000000000000000000200000000000000000000000019670df5e16bea2ba9b9e68b48c054c5baea06b8000000000000000000000000f2e380c90e6c09721297526dbc74f870e114dfcb000000000000000000000000000000000000000000000000000000000000000000000000000000000000000000000000000000000000000000000000000075e8000000000000000000000000000000000000000000000000000000000000000100000000000000000000000000000000000000000000000000000000000000600000000000000000000000000000000000000000000000000000000000000040000000000000000000000000000000000000000000000000000000000000271000000000000000000000000031cae3b7fb82d847621859fb1585353c5720660d00000000000000000000000000000000000000000000000000000000000075e80000000000000000000000000000000000000000000000000000000000000002000000000000000000000000000000000000000000000000000000000000006000000000000000000000000000000000000000000000000000000000000001600000000000000000000000000000000000000000000000000000000000000020000000000000000000000000000000000000000000000000000000000000000f000000000000000000000000000000000000000000000000000000000000000200000000000000000000000000000000000000000000000000000000000000ff000000000000000000000000000000000000000000000000000000000000000000000000000000000000000000000000000000000000000000000000000000c00000000000000000000000000000000000000000000000000000000000000120000000000000000000000000000000000000000000000000000000000000000200000000000000000000000019670df5e16bea2ba9b9e68b48c054c5baea06b8000000000000000000000000f2e380c90e6c09721297526dbc74f870e114dfcb0000000000000000000000000000000000000000000000000000000000000000",
        "nonce": "0x3d",
        "chainId": "0xa4b1"
      },
      "additionalContracts": [],
      "isFixedGasLimit": false
    },
    {
      "hash": "0x62af5f4ca73b47e373ecff20576133db6d8318fdc8cd24eee4dbf92925ad4bc9",
      "transactionType": "CALL",
      "contractName": null,
      "contractAddress": "0x1a44076050125825900e736c501f859c50fe728c",
      "function": "setConfig(address,address,(uint32,uint32,bytes)[])",
      "arguments": [
        "0x67165C24A886AAAf1bFA81934e44a2063c6B608C",
        "0x975bcD720be66659e3EB3C0e4F1866a3020E493A",
        "[(30110, 1, 0x000000000000000000000000000000000000000000000000000000000000271000000000000000000000000031cae3b7fb82d847621859fb1585353c5720660d), (30110, 2, 0x0000000000000000000000000000000000000000000000000000000000000020000000000000000000000000000000000000000000000000000000000000000f000000000000000000000000000000000000000000000000000000000000000200000000000000000000000000000000000000000000000000000000000000ff000000000000000000000000000000000000000000000000000000000000000000000000000000000000000000000000000000000000000000000000000000c00000000000000000000000000000000000000000000000000000000000000120000000000000000000000000000000000000000000000000000000000000000200000000000000000000000019670df5e16bea2ba9b9e68b48c054c5baea06b8000000000000000000000000f2e380c90e6c09721297526dbc74f870e114dfcb0000000000000000000000000000000000000000000000000000000000000000), (30184, 1, 0x000000000000000000000000000000000000000000000000000000000000271000000000000000000000000031cae3b7fb82d847621859fb1585353c5720660d), (30184, 2, 0x0000000000000000000000000000000000000000000000000000000000000020000000000000000000000000000000000000000000000000000000000000000f000000000000000000000000000000000000000000000000000000000000000200000000000000000000000000000000000000000000000000000000000000ff000000000000000000000000000000000000000000000000000000000000000000000000000000000000000000000000000000000000000000000000000000c00000000000000000000000000000000000000000000000000000000000000120000000000000000000000000000000000000000000000000000000000000000200000000000000000000000019670df5e16bea2ba9b9e68b48c054c5baea06b8000000000000000000000000f2e380c90e6c09721297526dbc74f870e114dfcb0000000000000000000000000000000000000000000000000000000000000000)]"
      ],
      "transaction": {
        "from": "0x0ece75f3c36f7df2136dac7633165dbff53de3cd",
        "to": "0x1a44076050125825900e736c501f859c50fe728c",
        "gas": "0x6306b",
        "value": "0x0",
        "input": "0x6dbd9f9000000000000000000000000067165c24a886aaaf1bfa81934e44a2063c6b608c000000000000000000000000975bcd720be66659e3eb3c0e4f1866a3020e493a0000000000000000000000000000000000000000000000000000000000000060000000000000000000000000000000000000000000000000000000000000000400000000000000000000000000000000000000000000000000000000000000800000000000000000000000000000000000000000000000000000000000000140000000000000000000000000000000000000000000000000000000000000032000000000000000000000000000000000000000000000000000000000000003e0000000000000000000000000000000000000000000000000000000000000759e000000000000000000000000000000000000000000000000000000000000000100000000000000000000000000000000000000000000000000000000000000600000000000000000000000000000000000000000000000000000000000000040000000000000000000000000000000000000000000000000000000000000271000000000000000000000000031cae3b7fb82d847621859fb1585353c5720660d000000000000000000000000000000000000000000000000000000000000759e0000000000000000000000000000000000000000000000000000000000000002000000000000000000000000000000000000000000000000000000000000006000000000000000000000000000000000000000000000000000000000000001600000000000000000000000000000000000000000000000000000000000000020000000000000000000000000000000000000000000000000000000000000000f000000000000000000000000000000000000000000000000000000000000000200000000000000000000000000000000000000000000000000000000000000ff000000000000000000000000000000000000000000000000000000000000000000000000000000000000000000000000000000000000000000000000000000c00000000000000000000000000000000000000000000000000000000000000120000000000000000000000000000000000000000000000000000000000000000200000000000000000000000019670df5e16bea2ba9b9e68b48c054c5baea06b8000000000000000000000000f2e380c90e6c09721297526dbc74f870e114dfcb000000000000000000000000000000000000000000000000000000000000000000000000000000000000000000000000000000000000000000000000000075e8000000000000000000000000000000000000000000000000000000000000000100000000000000000000000000000000000000000000000000000000000000600000000000000000000000000000000000000000000000000000000000000040000000000000000000000000000000000000000000000000000000000000271000000000000000000000000031cae3b7fb82d847621859fb1585353c5720660d00000000000000000000000000000000000000000000000000000000000075e80000000000000000000000000000000000000000000000000000000000000002000000000000000000000000000000000000000000000000000000000000006000000000000000000000000000000000000000000000000000000000000001600000000000000000000000000000000000000000000000000000000000000020000000000000000000000000000000000000000000000000000000000000000f000000000000000000000000000000000000000000000000000000000000000200000000000000000000000000000000000000000000000000000000000000ff000000000000000000000000000000000000000000000000000000000000000000000000000000000000000000000000000000000000000000000000000000c00000000000000000000000000000000000000000000000000000000000000120000000000000000000000000000000000000000000000000000000000000000200000000000000000000000019670df5e16bea2ba9b9e68b48c054c5baea06b8000000000000000000000000f2e380c90e6c09721297526dbc74f870e114dfcb0000000000000000000000000000000000000000000000000000000000000000",
        "nonce": "0x3e",
        "chainId": "0xa4b1"
      },
      "additionalContracts": [],
      "isFixedGasLimit": false
    },
    {
      "hash": "0x28a04c653b07f31f82bf3616b05173d9c6e103a4495860be862b6546e92e4ac4",
      "transactionType": "CALL",
      "contractName": null,
      "contractAddress": "0x1a44076050125825900e736c501f859c50fe728c",
      "function": "setConfig(address,address,(uint32,uint32,bytes)[])",
      "arguments": [
        "0xA85C480f229FAC050ecc53FAedE343628bC242cb",
        "0x975bcD720be66659e3EB3C0e4F1866a3020E493A",
        "[(30110, 1, 0x000000000000000000000000000000000000000000000000000000000000271000000000000000000000000031cae3b7fb82d847621859fb1585353c5720660d), (30110, 2, 0x0000000000000000000000000000000000000000000000000000000000000020000000000000000000000000000000000000000000000000000000000000000f000000000000000000000000000000000000000000000000000000000000000200000000000000000000000000000000000000000000000000000000000000ff000000000000000000000000000000000000000000000000000000000000000000000000000000000000000000000000000000000000000000000000000000c00000000000000000000000000000000000000000000000000000000000000120000000000000000000000000000000000000000000000000000000000000000200000000000000000000000019670df5e16bea2ba9b9e68b48c054c5baea06b8000000000000000000000000f2e380c90e6c09721297526dbc74f870e114dfcb0000000000000000000000000000000000000000000000000000000000000000), (30184, 1, 0x000000000000000000000000000000000000000000000000000000000000271000000000000000000000000031cae3b7fb82d847621859fb1585353c5720660d), (30184, 2, 0x0000000000000000000000000000000000000000000000000000000000000020000000000000000000000000000000000000000000000000000000000000000f000000000000000000000000000000000000000000000000000000000000000200000000000000000000000000000000000000000000000000000000000000ff000000000000000000000000000000000000000000000000000000000000000000000000000000000000000000000000000000000000000000000000000000c00000000000000000000000000000000000000000000000000000000000000120000000000000000000000000000000000000000000000000000000000000000200000000000000000000000019670df5e16bea2ba9b9e68b48c054c5baea06b8000000000000000000000000f2e380c90e6c09721297526dbc74f870e114dfcb0000000000000000000000000000000000000000000000000000000000000000)]"
      ],
      "transaction": {
        "from": "0x0ece75f3c36f7df2136dac7633165dbff53de3cd",
        "to": "0x1a44076050125825900e736c501f859c50fe728c",
        "gas": "0x6306b",
        "value": "0x0",
        "input": "0x6dbd9f90000000000000000000000000a85c480f229fac050ecc53faede343628bc242cb000000000000000000000000975bcd720be66659e3eb3c0e4f1866a3020e493a0000000000000000000000000000000000000000000000000000000000000060000000000000000000000000000000000000000000000000000000000000000400000000000000000000000000000000000000000000000000000000000000800000000000000000000000000000000000000000000000000000000000000140000000000000000000000000000000000000000000000000000000000000032000000000000000000000000000000000000000000000000000000000000003e0000000000000000000000000000000000000000000000000000000000000759e000000000000000000000000000000000000000000000000000000000000000100000000000000000000000000000000000000000000000000000000000000600000000000000000000000000000000000000000000000000000000000000040000000000000000000000000000000000000000000000000000000000000271000000000000000000000000031cae3b7fb82d847621859fb1585353c5720660d000000000000000000000000000000000000000000000000000000000000759e0000000000000000000000000000000000000000000000000000000000000002000000000000000000000000000000000000000000000000000000000000006000000000000000000000000000000000000000000000000000000000000001600000000000000000000000000000000000000000000000000000000000000020000000000000000000000000000000000000000000000000000000000000000f000000000000000000000000000000000000000000000000000000000000000200000000000000000000000000000000000000000000000000000000000000ff000000000000000000000000000000000000000000000000000000000000000000000000000000000000000000000000000000000000000000000000000000c00000000000000000000000000000000000000000000000000000000000000120000000000000000000000000000000000000000000000000000000000000000200000000000000000000000019670df5e16bea2ba9b9e68b48c054c5baea06b8000000000000000000000000f2e380c90e6c09721297526dbc74f870e114dfcb000000000000000000000000000000000000000000000000000000000000000000000000000000000000000000000000000000000000000000000000000075e8000000000000000000000000000000000000000000000000000000000000000100000000000000000000000000000000000000000000000000000000000000600000000000000000000000000000000000000000000000000000000000000040000000000000000000000000000000000000000000000000000000000000271000000000000000000000000031cae3b7fb82d847621859fb1585353c5720660d00000000000000000000000000000000000000000000000000000000000075e80000000000000000000000000000000000000000000000000000000000000002000000000000000000000000000000000000000000000000000000000000006000000000000000000000000000000000000000000000000000000000000001600000000000000000000000000000000000000000000000000000000000000020000000000000000000000000000000000000000000000000000000000000000f000000000000000000000000000000000000000000000000000000000000000200000000000000000000000000000000000000000000000000000000000000ff000000000000000000000000000000000000000000000000000000000000000000000000000000000000000000000000000000000000000000000000000000c00000000000000000000000000000000000000000000000000000000000000120000000000000000000000000000000000000000000000000000000000000000200000000000000000000000019670df5e16bea2ba9b9e68b48c054c5baea06b8000000000000000000000000f2e380c90e6c09721297526dbc74f870e114dfcb0000000000000000000000000000000000000000000000000000000000000000",
        "nonce": "0x3f",
        "chainId": "0xa4b1"
      },
      "additionalContracts": [],
      "isFixedGasLimit": false
    },
    {
      "hash": "0xf336352ddaecfe58a437dac10e1c40c78c2bc490b64d16231ad9d24276af2c62",
      "transactionType": "CALL",
      "contractName": null,
      "contractAddress": "0x1a44076050125825900e736c501f859c50fe728c",
      "function": "setConfig(address,address,(uint32,uint32,bytes)[])",
      "arguments": [
        "0xEb36AA674745c48381AA3A8074E5485586dBD308",
        "0x975bcD720be66659e3EB3C0e4F1866a3020E493A",
        "[(30110, 1, 0x000000000000000000000000000000000000000000000000000000000000271000000000000000000000000031cae3b7fb82d847621859fb1585353c5720660d), (30110, 2, 0x0000000000000000000000000000000000000000000000000000000000000020000000000000000000000000000000000000000000000000000000000000000f000000000000000000000000000000000000000000000000000000000000000200000000000000000000000000000000000000000000000000000000000000ff000000000000000000000000000000000000000000000000000000000000000000000000000000000000000000000000000000000000000000000000000000c00000000000000000000000000000000000000000000000000000000000000120000000000000000000000000000000000000000000000000000000000000000200000000000000000000000019670df5e16bea2ba9b9e68b48c054c5baea06b8000000000000000000000000f2e380c90e6c09721297526dbc74f870e114dfcb0000000000000000000000000000000000000000000000000000000000000000), (30184, 1, 0x000000000000000000000000000000000000000000000000000000000000271000000000000000000000000031cae3b7fb82d847621859fb1585353c5720660d), (30184, 2, 0x0000000000000000000000000000000000000000000000000000000000000020000000000000000000000000000000000000000000000000000000000000000f000000000000000000000000000000000000000000000000000000000000000200000000000000000000000000000000000000000000000000000000000000ff000000000000000000000000000000000000000000000000000000000000000000000000000000000000000000000000000000000000000000000000000000c00000000000000000000000000000000000000000000000000000000000000120000000000000000000000000000000000000000000000000000000000000000200000000000000000000000019670df5e16bea2ba9b9e68b48c054c5baea06b8000000000000000000000000f2e380c90e6c09721297526dbc74f870e114dfcb0000000000000000000000000000000000000000000000000000000000000000)]"
      ],
      "transaction": {
        "from": "0x0ece75f3c36f7df2136dac7633165dbff53de3cd",
        "to": "0x1a44076050125825900e736c501f859c50fe728c",
        "gas": "0x63060",
        "value": "0x0",
        "input": "0x6dbd9f90000000000000000000000000eb36aa674745c48381aa3a8074e5485586dbd308000000000000000000000000975bcd720be66659e3eb3c0e4f1866a3020e493a0000000000000000000000000000000000000000000000000000000000000060000000000000000000000000000000000000000000000000000000000000000400000000000000000000000000000000000000000000000000000000000000800000000000000000000000000000000000000000000000000000000000000140000000000000000000000000000000000000000000000000000000000000032000000000000000000000000000000000000000000000000000000000000003e0000000000000000000000000000000000000000000000000000000000000759e000000000000000000000000000000000000000000000000000000000000000100000000000000000000000000000000000000000000000000000000000000600000000000000000000000000000000000000000000000000000000000000040000000000000000000000000000000000000000000000000000000000000271000000000000000000000000031cae3b7fb82d847621859fb1585353c5720660d000000000000000000000000000000000000000000000000000000000000759e0000000000000000000000000000000000000000000000000000000000000002000000000000000000000000000000000000000000000000000000000000006000000000000000000000000000000000000000000000000000000000000001600000000000000000000000000000000000000000000000000000000000000020000000000000000000000000000000000000000000000000000000000000000f000000000000000000000000000000000000000000000000000000000000000200000000000000000000000000000000000000000000000000000000000000ff000000000000000000000000000000000000000000000000000000000000000000000000000000000000000000000000000000000000000000000000000000c00000000000000000000000000000000000000000000000000000000000000120000000000000000000000000000000000000000000000000000000000000000200000000000000000000000019670df5e16bea2ba9b9e68b48c054c5baea06b8000000000000000000000000f2e380c90e6c09721297526dbc74f870e114dfcb000000000000000000000000000000000000000000000000000000000000000000000000000000000000000000000000000000000000000000000000000075e8000000000000000000000000000000000000000000000000000000000000000100000000000000000000000000000000000000000000000000000000000000600000000000000000000000000000000000000000000000000000000000000040000000000000000000000000000000000000000000000000000000000000271000000000000000000000000031cae3b7fb82d847621859fb1585353c5720660d00000000000000000000000000000000000000000000000000000000000075e80000000000000000000000000000000000000000000000000000000000000002000000000000000000000000000000000000000000000000000000000000006000000000000000000000000000000000000000000000000000000000000001600000000000000000000000000000000000000000000000000000000000000020000000000000000000000000000000000000000000000000000000000000000f000000000000000000000000000000000000000000000000000000000000000200000000000000000000000000000000000000000000000000000000000000ff000000000000000000000000000000000000000000000000000000000000000000000000000000000000000000000000000000000000000000000000000000c00000000000000000000000000000000000000000000000000000000000000120000000000000000000000000000000000000000000000000000000000000000200000000000000000000000019670df5e16bea2ba9b9e68b48c054c5baea06b8000000000000000000000000f2e380c90e6c09721297526dbc74f870e114dfcb0000000000000000000000000000000000000000000000000000000000000000",
        "nonce": "0x40",
        "chainId": "0xa4b1"
      },
      "additionalContracts": [],
      "isFixedGasLimit": false
    },
    {
      "hash": "0x4dd6fe431762ba480d0c73559ed00e52bb7805e7a1d1b1dfe651ff9276428931",
      "transactionType": "CALL",
      "contractName": null,
      "contractAddress": "0x1a44076050125825900e736c501f859c50fe728c",
      "function": "setConfig(address,address,(uint32,uint32,bytes)[])",
      "arguments": [
        "0xd506b22a6b3216b736021FA262D0F5D686e07b35",
        "0x975bcD720be66659e3EB3C0e4F1866a3020E493A",
        "[(30110, 1, 0x000000000000000000000000000000000000000000000000000000000000271000000000000000000000000031cae3b7fb82d847621859fb1585353c5720660d), (30110, 2, 0x0000000000000000000000000000000000000000000000000000000000000020000000000000000000000000000000000000000000000000000000000000000f000000000000000000000000000000000000000000000000000000000000000200000000000000000000000000000000000000000000000000000000000000ff000000000000000000000000000000000000000000000000000000000000000000000000000000000000000000000000000000000000000000000000000000c00000000000000000000000000000000000000000000000000000000000000120000000000000000000000000000000000000000000000000000000000000000200000000000000000000000019670df5e16bea2ba9b9e68b48c054c5baea06b8000000000000000000000000f2e380c90e6c09721297526dbc74f870e114dfcb0000000000000000000000000000000000000000000000000000000000000000), (30184, 1, 0x000000000000000000000000000000000000000000000000000000000000271000000000000000000000000031cae3b7fb82d847621859fb1585353c5720660d), (30184, 2, 0x0000000000000000000000000000000000000000000000000000000000000020000000000000000000000000000000000000000000000000000000000000000f000000000000000000000000000000000000000000000000000000000000000200000000000000000000000000000000000000000000000000000000000000ff000000000000000000000000000000000000000000000000000000000000000000000000000000000000000000000000000000000000000000000000000000c00000000000000000000000000000000000000000000000000000000000000120000000000000000000000000000000000000000000000000000000000000000200000000000000000000000019670df5e16bea2ba9b9e68b48c054c5baea06b8000000000000000000000000f2e380c90e6c09721297526dbc74f870e114dfcb0000000000000000000000000000000000000000000000000000000000000000)]"
      ],
      "transaction": {
        "from": "0x0ece75f3c36f7df2136dac7633165dbff53de3cd",
        "to": "0x1a44076050125825900e736c501f859c50fe728c",
        "gas": "0x6306b",
        "value": "0x0",
        "input": "0x6dbd9f90000000000000000000000000d506b22a6b3216b736021fa262d0f5d686e07b35000000000000000000000000975bcd720be66659e3eb3c0e4f1866a3020e493a0000000000000000000000000000000000000000000000000000000000000060000000000000000000000000000000000000000000000000000000000000000400000000000000000000000000000000000000000000000000000000000000800000000000000000000000000000000000000000000000000000000000000140000000000000000000000000000000000000000000000000000000000000032000000000000000000000000000000000000000000000000000000000000003e0000000000000000000000000000000000000000000000000000000000000759e000000000000000000000000000000000000000000000000000000000000000100000000000000000000000000000000000000000000000000000000000000600000000000000000000000000000000000000000000000000000000000000040000000000000000000000000000000000000000000000000000000000000271000000000000000000000000031cae3b7fb82d847621859fb1585353c5720660d000000000000000000000000000000000000000000000000000000000000759e0000000000000000000000000000000000000000000000000000000000000002000000000000000000000000000000000000000000000000000000000000006000000000000000000000000000000000000000000000000000000000000001600000000000000000000000000000000000000000000000000000000000000020000000000000000000000000000000000000000000000000000000000000000f000000000000000000000000000000000000000000000000000000000000000200000000000000000000000000000000000000000000000000000000000000ff000000000000000000000000000000000000000000000000000000000000000000000000000000000000000000000000000000000000000000000000000000c00000000000000000000000000000000000000000000000000000000000000120000000000000000000000000000000000000000000000000000000000000000200000000000000000000000019670df5e16bea2ba9b9e68b48c054c5baea06b8000000000000000000000000f2e380c90e6c09721297526dbc74f870e114dfcb000000000000000000000000000000000000000000000000000000000000000000000000000000000000000000000000000000000000000000000000000075e8000000000000000000000000000000000000000000000000000000000000000100000000000000000000000000000000000000000000000000000000000000600000000000000000000000000000000000000000000000000000000000000040000000000000000000000000000000000000000000000000000000000000271000000000000000000000000031cae3b7fb82d847621859fb1585353c5720660d00000000000000000000000000000000000000000000000000000000000075e80000000000000000000000000000000000000000000000000000000000000002000000000000000000000000000000000000000000000000000000000000006000000000000000000000000000000000000000000000000000000000000001600000000000000000000000000000000000000000000000000000000000000020000000000000000000000000000000000000000000000000000000000000000f000000000000000000000000000000000000000000000000000000000000000200000000000000000000000000000000000000000000000000000000000000ff000000000000000000000000000000000000000000000000000000000000000000000000000000000000000000000000000000000000000000000000000000c00000000000000000000000000000000000000000000000000000000000000120000000000000000000000000000000000000000000000000000000000000000200000000000000000000000019670df5e16bea2ba9b9e68b48c054c5baea06b8000000000000000000000000f2e380c90e6c09721297526dbc74f870e114dfcb0000000000000000000000000000000000000000000000000000000000000000",
        "nonce": "0x41",
        "chainId": "0xa4b1"
      },
      "additionalContracts": [],
      "isFixedGasLimit": false
    },
    {
      "hash": "0x5cd2e0f42f997fb74224d99430f53a4ff6ab1210fd618ddaa0b9284c3d77df71",
      "transactionType": "CALL",
      "contractName": null,
      "contractAddress": "0x1a44076050125825900e736c501f859c50fe728c",
      "function": "setConfig(address,address,(uint32,uint32,bytes)[])",
      "arguments": [
        "0x02a66B51Fc24E08535a6Cfe1e11E532D8A089212",
        "0x975bcD720be66659e3EB3C0e4F1866a3020E493A",
        "[(30110, 1, 0x000000000000000000000000000000000000000000000000000000000000271000000000000000000000000031cae3b7fb82d847621859fb1585353c5720660d), (30110, 2, 0x0000000000000000000000000000000000000000000000000000000000000020000000000000000000000000000000000000000000000000000000000000000f000000000000000000000000000000000000000000000000000000000000000200000000000000000000000000000000000000000000000000000000000000ff000000000000000000000000000000000000000000000000000000000000000000000000000000000000000000000000000000000000000000000000000000c00000000000000000000000000000000000000000000000000000000000000120000000000000000000000000000000000000000000000000000000000000000200000000000000000000000019670df5e16bea2ba9b9e68b48c054c5baea06b8000000000000000000000000f2e380c90e6c09721297526dbc74f870e114dfcb0000000000000000000000000000000000000000000000000000000000000000), (30184, 1, 0x000000000000000000000000000000000000000000000000000000000000271000000000000000000000000031cae3b7fb82d847621859fb1585353c5720660d), (30184, 2, 0x0000000000000000000000000000000000000000000000000000000000000020000000000000000000000000000000000000000000000000000000000000000f000000000000000000000000000000000000000000000000000000000000000200000000000000000000000000000000000000000000000000000000000000ff000000000000000000000000000000000000000000000000000000000000000000000000000000000000000000000000000000000000000000000000000000c00000000000000000000000000000000000000000000000000000000000000120000000000000000000000000000000000000000000000000000000000000000200000000000000000000000019670df5e16bea2ba9b9e68b48c054c5baea06b8000000000000000000000000f2e380c90e6c09721297526dbc74f870e114dfcb0000000000000000000000000000000000000000000000000000000000000000)]"
      ],
      "transaction": {
        "from": "0x0ece75f3c36f7df2136dac7633165dbff53de3cd",
        "to": "0x1a44076050125825900e736c501f859c50fe728c",
        "gas": "0x63061",
        "value": "0x0",
        "input": "0x6dbd9f9000000000000000000000000002a66b51fc24e08535a6cfe1e11e532d8a089212000000000000000000000000975bcd720be66659e3eb3c0e4f1866a3020e493a0000000000000000000000000000000000000000000000000000000000000060000000000000000000000000000000000000000000000000000000000000000400000000000000000000000000000000000000000000000000000000000000800000000000000000000000000000000000000000000000000000000000000140000000000000000000000000000000000000000000000000000000000000032000000000000000000000000000000000000000000000000000000000000003e0000000000000000000000000000000000000000000000000000000000000759e000000000000000000000000000000000000000000000000000000000000000100000000000000000000000000000000000000000000000000000000000000600000000000000000000000000000000000000000000000000000000000000040000000000000000000000000000000000000000000000000000000000000271000000000000000000000000031cae3b7fb82d847621859fb1585353c5720660d000000000000000000000000000000000000000000000000000000000000759e0000000000000000000000000000000000000000000000000000000000000002000000000000000000000000000000000000000000000000000000000000006000000000000000000000000000000000000000000000000000000000000001600000000000000000000000000000000000000000000000000000000000000020000000000000000000000000000000000000000000000000000000000000000f000000000000000000000000000000000000000000000000000000000000000200000000000000000000000000000000000000000000000000000000000000ff000000000000000000000000000000000000000000000000000000000000000000000000000000000000000000000000000000000000000000000000000000c00000000000000000000000000000000000000000000000000000000000000120000000000000000000000000000000000000000000000000000000000000000200000000000000000000000019670df5e16bea2ba9b9e68b48c054c5baea06b8000000000000000000000000f2e380c90e6c09721297526dbc74f870e114dfcb000000000000000000000000000000000000000000000000000000000000000000000000000000000000000000000000000000000000000000000000000075e8000000000000000000000000000000000000000000000000000000000000000100000000000000000000000000000000000000000000000000000000000000600000000000000000000000000000000000000000000000000000000000000040000000000000000000000000000000000000000000000000000000000000271000000000000000000000000031cae3b7fb82d847621859fb1585353c5720660d00000000000000000000000000000000000000000000000000000000000075e80000000000000000000000000000000000000000000000000000000000000002000000000000000000000000000000000000000000000000000000000000006000000000000000000000000000000000000000000000000000000000000001600000000000000000000000000000000000000000000000000000000000000020000000000000000000000000000000000000000000000000000000000000000f000000000000000000000000000000000000000000000000000000000000000200000000000000000000000000000000000000000000000000000000000000ff000000000000000000000000000000000000000000000000000000000000000000000000000000000000000000000000000000000000000000000000000000c00000000000000000000000000000000000000000000000000000000000000120000000000000000000000000000000000000000000000000000000000000000200000000000000000000000019670df5e16bea2ba9b9e68b48c054c5baea06b8000000000000000000000000f2e380c90e6c09721297526dbc74f870e114dfcb0000000000000000000000000000000000000000000000000000000000000000",
        "nonce": "0x42",
        "chainId": "0xa4b1"
      },
      "additionalContracts": [],
      "isFixedGasLimit": false
    },
    {
      "hash": "0xdab7d0f816ba4e7090638f7aa94aa03b267b32d5c85899f92b9d13348b683fe4",
      "transactionType": "CALL",
      "contractName": null,
      "contractAddress": "0x1a44076050125825900e736c501f859c50fe728c",
      "function": "setConfig(address,address,(uint32,uint32,bytes)[])",
      "arguments": [
        "0xc3be8ab4CA0cefE3119A765b324bBDF54a16A65b",
        "0x975bcD720be66659e3EB3C0e4F1866a3020E493A",
        "[(30110, 1, 0x000000000000000000000000000000000000000000000000000000000000271000000000000000000000000031cae3b7fb82d847621859fb1585353c5720660d), (30110, 2, 0x0000000000000000000000000000000000000000000000000000000000000020000000000000000000000000000000000000000000000000000000000000000f000000000000000000000000000000000000000000000000000000000000000200000000000000000000000000000000000000000000000000000000000000ff000000000000000000000000000000000000000000000000000000000000000000000000000000000000000000000000000000000000000000000000000000c00000000000000000000000000000000000000000000000000000000000000120000000000000000000000000000000000000000000000000000000000000000200000000000000000000000019670df5e16bea2ba9b9e68b48c054c5baea06b8000000000000000000000000f2e380c90e6c09721297526dbc74f870e114dfcb0000000000000000000000000000000000000000000000000000000000000000), (30184, 1, 0x000000000000000000000000000000000000000000000000000000000000271000000000000000000000000031cae3b7fb82d847621859fb1585353c5720660d), (30184, 2, 0x0000000000000000000000000000000000000000000000000000000000000020000000000000000000000000000000000000000000000000000000000000000f000000000000000000000000000000000000000000000000000000000000000200000000000000000000000000000000000000000000000000000000000000ff000000000000000000000000000000000000000000000000000000000000000000000000000000000000000000000000000000000000000000000000000000c00000000000000000000000000000000000000000000000000000000000000120000000000000000000000000000000000000000000000000000000000000000200000000000000000000000019670df5e16bea2ba9b9e68b48c054c5baea06b8000000000000000000000000f2e380c90e6c09721297526dbc74f870e114dfcb0000000000000000000000000000000000000000000000000000000000000000)]"
      ],
      "transaction": {
        "from": "0x0ece75f3c36f7df2136dac7633165dbff53de3cd",
        "to": "0x1a44076050125825900e736c501f859c50fe728c",
        "gas": "0x63074",
        "value": "0x0",
        "input": "0x6dbd9f90000000000000000000000000c3be8ab4ca0cefe3119a765b324bbdf54a16a65b000000000000000000000000975bcd720be66659e3eb3c0e4f1866a3020e493a0000000000000000000000000000000000000000000000000000000000000060000000000000000000000000000000000000000000000000000000000000000400000000000000000000000000000000000000000000000000000000000000800000000000000000000000000000000000000000000000000000000000000140000000000000000000000000000000000000000000000000000000000000032000000000000000000000000000000000000000000000000000000000000003e0000000000000000000000000000000000000000000000000000000000000759e000000000000000000000000000000000000000000000000000000000000000100000000000000000000000000000000000000000000000000000000000000600000000000000000000000000000000000000000000000000000000000000040000000000000000000000000000000000000000000000000000000000000271000000000000000000000000031cae3b7fb82d847621859fb1585353c5720660d000000000000000000000000000000000000000000000000000000000000759e0000000000000000000000000000000000000000000000000000000000000002000000000000000000000000000000000000000000000000000000000000006000000000000000000000000000000000000000000000000000000000000001600000000000000000000000000000000000000000000000000000000000000020000000000000000000000000000000000000000000000000000000000000000f000000000000000000000000000000000000000000000000000000000000000200000000000000000000000000000000000000000000000000000000000000ff000000000000000000000000000000000000000000000000000000000000000000000000000000000000000000000000000000000000000000000000000000c00000000000000000000000000000000000000000000000000000000000000120000000000000000000000000000000000000000000000000000000000000000200000000000000000000000019670df5e16bea2ba9b9e68b48c054c5baea06b8000000000000000000000000f2e380c90e6c09721297526dbc74f870e114dfcb000000000000000000000000000000000000000000000000000000000000000000000000000000000000000000000000000000000000000000000000000075e8000000000000000000000000000000000000000000000000000000000000000100000000000000000000000000000000000000000000000000000000000000600000000000000000000000000000000000000000000000000000000000000040000000000000000000000000000000000000000000000000000000000000271000000000000000000000000031cae3b7fb82d847621859fb1585353c5720660d00000000000000000000000000000000000000000000000000000000000075e80000000000000000000000000000000000000000000000000000000000000002000000000000000000000000000000000000000000000000000000000000006000000000000000000000000000000000000000000000000000000000000001600000000000000000000000000000000000000000000000000000000000000020000000000000000000000000000000000000000000000000000000000000000f000000000000000000000000000000000000000000000000000000000000000200000000000000000000000000000000000000000000000000000000000000ff000000000000000000000000000000000000000000000000000000000000000000000000000000000000000000000000000000000000000000000000000000c00000000000000000000000000000000000000000000000000000000000000120000000000000000000000000000000000000000000000000000000000000000200000000000000000000000019670df5e16bea2ba9b9e68b48c054c5baea06b8000000000000000000000000f2e380c90e6c09721297526dbc74f870e114dfcb0000000000000000000000000000000000000000000000000000000000000000",
        "nonce": "0x43",
        "chainId": "0xa4b1"
      },
      "additionalContracts": [],
      "isFixedGasLimit": false
    },
    {
      "hash": "0x133cb326ecffd22793763d3152d59932066ef092aa9385f61c0f366e88aa61e6",
      "transactionType": "CALL",
      "contractName": null,
      "contractAddress": "0x1a44076050125825900e736c501f859c50fe728c",
      "function": "setConfig(address,address,(uint32,uint32,bytes)[])",
      "arguments": [
        "0xeBb7a56fd2D0231A9BF7240542cbD09a641a29Fc",
        "0x7B9E184e07a6EE1aC23eAe0fe8D6Be2f663f05e6",
        "[(30110, 2, 0x0000000000000000000000000000000000000000000000000000000000000020000000000000000000000000000000000000000000000000000000000000000f000000000000000000000000000000000000000000000000000000000000000200000000000000000000000000000000000000000000000000000000000000ff000000000000000000000000000000000000000000000000000000000000000000000000000000000000000000000000000000000000000000000000000000c00000000000000000000000000000000000000000000000000000000000000120000000000000000000000000000000000000000000000000000000000000000200000000000000000000000019670df5e16bea2ba9b9e68b48c054c5baea06b8000000000000000000000000f2e380c90e6c09721297526dbc74f870e114dfcb0000000000000000000000000000000000000000000000000000000000000000), (30184, 2, 0x0000000000000000000000000000000000000000000000000000000000000020000000000000000000000000000000000000000000000000000000000000000f000000000000000000000000000000000000000000000000000000000000000200000000000000000000000000000000000000000000000000000000000000ff000000000000000000000000000000000000000000000000000000000000000000000000000000000000000000000000000000000000000000000000000000c00000000000000000000000000000000000000000000000000000000000000120000000000000000000000000000000000000000000000000000000000000000200000000000000000000000019670df5e16bea2ba9b9e68b48c054c5baea06b8000000000000000000000000f2e380c90e6c09721297526dbc74f870e114dfcb0000000000000000000000000000000000000000000000000000000000000000)]"
      ],
      "transaction": {
        "from": "0x0ece75f3c36f7df2136dac7633165dbff53de3cd",
        "to": "0x1a44076050125825900e736c501f859c50fe728c",
        "gas": "0x50f18",
        "value": "0x0",
        "input": "0x6dbd9f90000000000000000000000000ebb7a56fd2d0231a9bf7240542cbd09a641a29fc0000000000000000000000007b9e184e07a6ee1ac23eae0fe8d6be2f663f05e60000000000000000000000000000000000000000000000000000000000000060000000000000000000000000000000000000000000000000000000000000000200000000000000000000000000000000000000000000000000000000000000400000000000000000000000000000000000000000000000000000000000000220000000000000000000000000000000000000000000000000000000000000759e0000000000000000000000000000000000000000000000000000000000000002000000000000000000000000000000000000000000000000000000000000006000000000000000000000000000000000000000000000000000000000000001600000000000000000000000000000000000000000000000000000000000000020000000000000000000000000000000000000000000000000000000000000000f000000000000000000000000000000000000000000000000000000000000000200000000000000000000000000000000000000000000000000000000000000ff000000000000000000000000000000000000000000000000000000000000000000000000000000000000000000000000000000000000000000000000000000c00000000000000000000000000000000000000000000000000000000000000120000000000000000000000000000000000000000000000000000000000000000200000000000000000000000019670df5e16bea2ba9b9e68b48c054c5baea06b8000000000000000000000000f2e380c90e6c09721297526dbc74f870e114dfcb000000000000000000000000000000000000000000000000000000000000000000000000000000000000000000000000000000000000000000000000000075e80000000000000000000000000000000000000000000000000000000000000002000000000000000000000000000000000000000000000000000000000000006000000000000000000000000000000000000000000000000000000000000001600000000000000000000000000000000000000000000000000000000000000020000000000000000000000000000000000000000000000000000000000000000f000000000000000000000000000000000000000000000000000000000000000200000000000000000000000000000000000000000000000000000000000000ff000000000000000000000000000000000000000000000000000000000000000000000000000000000000000000000000000000000000000000000000000000c00000000000000000000000000000000000000000000000000000000000000120000000000000000000000000000000000000000000000000000000000000000200000000000000000000000019670df5e16bea2ba9b9e68b48c054c5baea06b8000000000000000000000000f2e380c90e6c09721297526dbc74f870e114dfcb0000000000000000000000000000000000000000000000000000000000000000",
        "nonce": "0x44",
        "chainId": "0xa4b1"
      },
      "additionalContracts": [],
      "isFixedGasLimit": false
    },
    {
      "hash": "0x528f70fada4c4830c8802fc883c7f1eed6239111ba31a44e7fb64620c5f5735b",
      "transactionType": "CALL",
      "contractName": null,
      "contractAddress": "0x1a44076050125825900e736c501f859c50fe728c",
      "function": "setConfig(address,address,(uint32,uint32,bytes)[])",
      "arguments": [
        "0x67165C24A886AAAf1bFA81934e44a2063c6B608C",
        "0x7B9E184e07a6EE1aC23eAe0fe8D6Be2f663f05e6",
        "[(30110, 2, 0x0000000000000000000000000000000000000000000000000000000000000020000000000000000000000000000000000000000000000000000000000000000f000000000000000000000000000000000000000000000000000000000000000200000000000000000000000000000000000000000000000000000000000000ff000000000000000000000000000000000000000000000000000000000000000000000000000000000000000000000000000000000000000000000000000000c00000000000000000000000000000000000000000000000000000000000000120000000000000000000000000000000000000000000000000000000000000000200000000000000000000000019670df5e16bea2ba9b9e68b48c054c5baea06b8000000000000000000000000f2e380c90e6c09721297526dbc74f870e114dfcb0000000000000000000000000000000000000000000000000000000000000000), (30184, 2, 0x0000000000000000000000000000000000000000000000000000000000000020000000000000000000000000000000000000000000000000000000000000000f000000000000000000000000000000000000000000000000000000000000000200000000000000000000000000000000000000000000000000000000000000ff000000000000000000000000000000000000000000000000000000000000000000000000000000000000000000000000000000000000000000000000000000c00000000000000000000000000000000000000000000000000000000000000120000000000000000000000000000000000000000000000000000000000000000200000000000000000000000019670df5e16bea2ba9b9e68b48c054c5baea06b8000000000000000000000000f2e380c90e6c09721297526dbc74f870e114dfcb0000000000000000000000000000000000000000000000000000000000000000)]"
      ],
      "transaction": {
        "from": "0x0ece75f3c36f7df2136dac7633165dbff53de3cd",
        "to": "0x1a44076050125825900e736c501f859c50fe728c",
        "gas": "0x50f21",
        "value": "0x0",
        "input": "0x6dbd9f9000000000000000000000000067165c24a886aaaf1bfa81934e44a2063c6b608c0000000000000000000000007b9e184e07a6ee1ac23eae0fe8d6be2f663f05e60000000000000000000000000000000000000000000000000000000000000060000000000000000000000000000000000000000000000000000000000000000200000000000000000000000000000000000000000000000000000000000000400000000000000000000000000000000000000000000000000000000000000220000000000000000000000000000000000000000000000000000000000000759e0000000000000000000000000000000000000000000000000000000000000002000000000000000000000000000000000000000000000000000000000000006000000000000000000000000000000000000000000000000000000000000001600000000000000000000000000000000000000000000000000000000000000020000000000000000000000000000000000000000000000000000000000000000f000000000000000000000000000000000000000000000000000000000000000200000000000000000000000000000000000000000000000000000000000000ff000000000000000000000000000000000000000000000000000000000000000000000000000000000000000000000000000000000000000000000000000000c00000000000000000000000000000000000000000000000000000000000000120000000000000000000000000000000000000000000000000000000000000000200000000000000000000000019670df5e16bea2ba9b9e68b48c054c5baea06b8000000000000000000000000f2e380c90e6c09721297526dbc74f870e114dfcb000000000000000000000000000000000000000000000000000000000000000000000000000000000000000000000000000000000000000000000000000075e80000000000000000000000000000000000000000000000000000000000000002000000000000000000000000000000000000000000000000000000000000006000000000000000000000000000000000000000000000000000000000000001600000000000000000000000000000000000000000000000000000000000000020000000000000000000000000000000000000000000000000000000000000000f000000000000000000000000000000000000000000000000000000000000000200000000000000000000000000000000000000000000000000000000000000ff000000000000000000000000000000000000000000000000000000000000000000000000000000000000000000000000000000000000000000000000000000c00000000000000000000000000000000000000000000000000000000000000120000000000000000000000000000000000000000000000000000000000000000200000000000000000000000019670df5e16bea2ba9b9e68b48c054c5baea06b8000000000000000000000000f2e380c90e6c09721297526dbc74f870e114dfcb0000000000000000000000000000000000000000000000000000000000000000",
        "nonce": "0x45",
        "chainId": "0xa4b1"
      },
      "additionalContracts": [],
      "isFixedGasLimit": false
    },
    {
      "hash": "0x3722b7ace91d629eca76a535d4063fa30b5a6dd70062a841d410b9ad84dccb61",
      "transactionType": "CALL",
      "contractName": null,
      "contractAddress": "0x1a44076050125825900e736c501f859c50fe728c",
      "function": "setConfig(address,address,(uint32,uint32,bytes)[])",
      "arguments": [
        "0xA85C480f229FAC050ecc53FAedE343628bC242cb",
        "0x7B9E184e07a6EE1aC23eAe0fe8D6Be2f663f05e6",
        "[(30110, 2, 0x0000000000000000000000000000000000000000000000000000000000000020000000000000000000000000000000000000000000000000000000000000000f000000000000000000000000000000000000000000000000000000000000000200000000000000000000000000000000000000000000000000000000000000ff000000000000000000000000000000000000000000000000000000000000000000000000000000000000000000000000000000000000000000000000000000c00000000000000000000000000000000000000000000000000000000000000120000000000000000000000000000000000000000000000000000000000000000200000000000000000000000019670df5e16bea2ba9b9e68b48c054c5baea06b8000000000000000000000000f2e380c90e6c09721297526dbc74f870e114dfcb0000000000000000000000000000000000000000000000000000000000000000), (30184, 2, 0x0000000000000000000000000000000000000000000000000000000000000020000000000000000000000000000000000000000000000000000000000000000f000000000000000000000000000000000000000000000000000000000000000200000000000000000000000000000000000000000000000000000000000000ff000000000000000000000000000000000000000000000000000000000000000000000000000000000000000000000000000000000000000000000000000000c00000000000000000000000000000000000000000000000000000000000000120000000000000000000000000000000000000000000000000000000000000000200000000000000000000000019670df5e16bea2ba9b9e68b48c054c5baea06b8000000000000000000000000f2e380c90e6c09721297526dbc74f870e114dfcb0000000000000000000000000000000000000000000000000000000000000000)]"
      ],
      "transaction": {
        "from": "0x0ece75f3c36f7df2136dac7633165dbff53de3cd",
        "to": "0x1a44076050125825900e736c501f859c50fe728c",
        "gas": "0x50f3f",
        "value": "0x0",
        "input": "0x6dbd9f90000000000000000000000000a85c480f229fac050ecc53faede343628bc242cb0000000000000000000000007b9e184e07a6ee1ac23eae0fe8d6be2f663f05e60000000000000000000000000000000000000000000000000000000000000060000000000000000000000000000000000000000000000000000000000000000200000000000000000000000000000000000000000000000000000000000000400000000000000000000000000000000000000000000000000000000000000220000000000000000000000000000000000000000000000000000000000000759e0000000000000000000000000000000000000000000000000000000000000002000000000000000000000000000000000000000000000000000000000000006000000000000000000000000000000000000000000000000000000000000001600000000000000000000000000000000000000000000000000000000000000020000000000000000000000000000000000000000000000000000000000000000f000000000000000000000000000000000000000000000000000000000000000200000000000000000000000000000000000000000000000000000000000000ff000000000000000000000000000000000000000000000000000000000000000000000000000000000000000000000000000000000000000000000000000000c00000000000000000000000000000000000000000000000000000000000000120000000000000000000000000000000000000000000000000000000000000000200000000000000000000000019670df5e16bea2ba9b9e68b48c054c5baea06b8000000000000000000000000f2e380c90e6c09721297526dbc74f870e114dfcb000000000000000000000000000000000000000000000000000000000000000000000000000000000000000000000000000000000000000000000000000075e80000000000000000000000000000000000000000000000000000000000000002000000000000000000000000000000000000000000000000000000000000006000000000000000000000000000000000000000000000000000000000000001600000000000000000000000000000000000000000000000000000000000000020000000000000000000000000000000000000000000000000000000000000000f000000000000000000000000000000000000000000000000000000000000000200000000000000000000000000000000000000000000000000000000000000ff000000000000000000000000000000000000000000000000000000000000000000000000000000000000000000000000000000000000000000000000000000c00000000000000000000000000000000000000000000000000000000000000120000000000000000000000000000000000000000000000000000000000000000200000000000000000000000019670df5e16bea2ba9b9e68b48c054c5baea06b8000000000000000000000000f2e380c90e6c09721297526dbc74f870e114dfcb0000000000000000000000000000000000000000000000000000000000000000",
        "nonce": "0x46",
        "chainId": "0xa4b1"
      },
      "additionalContracts": [],
      "isFixedGasLimit": false
    },
    {
      "hash": "0x295c4efb58be8e688adee7321e197aea23ce94b1cf435a63b11c6a0f65332bcd",
      "transactionType": "CALL",
      "contractName": null,
      "contractAddress": "0x1a44076050125825900e736c501f859c50fe728c",
      "function": "setConfig(address,address,(uint32,uint32,bytes)[])",
      "arguments": [
        "0xEb36AA674745c48381AA3A8074E5485586dBD308",
        "0x7B9E184e07a6EE1aC23eAe0fe8D6Be2f663f05e6",
        "[(30110, 2, 0x0000000000000000000000000000000000000000000000000000000000000020000000000000000000000000000000000000000000000000000000000000000f000000000000000000000000000000000000000000000000000000000000000200000000000000000000000000000000000000000000000000000000000000ff000000000000000000000000000000000000000000000000000000000000000000000000000000000000000000000000000000000000000000000000000000c00000000000000000000000000000000000000000000000000000000000000120000000000000000000000000000000000000000000000000000000000000000200000000000000000000000019670df5e16bea2ba9b9e68b48c054c5baea06b8000000000000000000000000f2e380c90e6c09721297526dbc74f870e114dfcb0000000000000000000000000000000000000000000000000000000000000000), (30184, 2, 0x0000000000000000000000000000000000000000000000000000000000000020000000000000000000000000000000000000000000000000000000000000000f000000000000000000000000000000000000000000000000000000000000000200000000000000000000000000000000000000000000000000000000000000ff000000000000000000000000000000000000000000000000000000000000000000000000000000000000000000000000000000000000000000000000000000c00000000000000000000000000000000000000000000000000000000000000120000000000000000000000000000000000000000000000000000000000000000200000000000000000000000019670df5e16bea2ba9b9e68b48c054c5baea06b8000000000000000000000000f2e380c90e6c09721297526dbc74f870e114dfcb0000000000000000000000000000000000000000000000000000000000000000)]"
      ],
      "transaction": {
        "from": "0x0ece75f3c36f7df2136dac7633165dbff53de3cd",
        "to": "0x1a44076050125825900e736c501f859c50fe728c",
        "gas": "0x50f2b",
        "value": "0x0",
        "input": "0x6dbd9f90000000000000000000000000eb36aa674745c48381aa3a8074e5485586dbd3080000000000000000000000007b9e184e07a6ee1ac23eae0fe8d6be2f663f05e60000000000000000000000000000000000000000000000000000000000000060000000000000000000000000000000000000000000000000000000000000000200000000000000000000000000000000000000000000000000000000000000400000000000000000000000000000000000000000000000000000000000000220000000000000000000000000000000000000000000000000000000000000759e0000000000000000000000000000000000000000000000000000000000000002000000000000000000000000000000000000000000000000000000000000006000000000000000000000000000000000000000000000000000000000000001600000000000000000000000000000000000000000000000000000000000000020000000000000000000000000000000000000000000000000000000000000000f000000000000000000000000000000000000000000000000000000000000000200000000000000000000000000000000000000000000000000000000000000ff000000000000000000000000000000000000000000000000000000000000000000000000000000000000000000000000000000000000000000000000000000c00000000000000000000000000000000000000000000000000000000000000120000000000000000000000000000000000000000000000000000000000000000200000000000000000000000019670df5e16bea2ba9b9e68b48c054c5baea06b8000000000000000000000000f2e380c90e6c09721297526dbc74f870e114dfcb000000000000000000000000000000000000000000000000000000000000000000000000000000000000000000000000000000000000000000000000000075e80000000000000000000000000000000000000000000000000000000000000002000000000000000000000000000000000000000000000000000000000000006000000000000000000000000000000000000000000000000000000000000001600000000000000000000000000000000000000000000000000000000000000020000000000000000000000000000000000000000000000000000000000000000f000000000000000000000000000000000000000000000000000000000000000200000000000000000000000000000000000000000000000000000000000000ff000000000000000000000000000000000000000000000000000000000000000000000000000000000000000000000000000000000000000000000000000000c00000000000000000000000000000000000000000000000000000000000000120000000000000000000000000000000000000000000000000000000000000000200000000000000000000000019670df5e16bea2ba9b9e68b48c054c5baea06b8000000000000000000000000f2e380c90e6c09721297526dbc74f870e114dfcb0000000000000000000000000000000000000000000000000000000000000000",
        "nonce": "0x47",
        "chainId": "0xa4b1"
      },
      "additionalContracts": [],
      "isFixedGasLimit": false
    },
    {
      "hash": "0xa378f834d97e003ca4848d18d462dba8fdceab606095dae3d43c826e2ecaeea7",
      "transactionType": "CALL",
      "contractName": null,
      "contractAddress": "0x1a44076050125825900e736c501f859c50fe728c",
      "function": "setConfig(address,address,(uint32,uint32,bytes)[])",
      "arguments": [
        "0xd506b22a6b3216b736021FA262D0F5D686e07b35",
        "0x7B9E184e07a6EE1aC23eAe0fe8D6Be2f663f05e6",
        "[(30110, 2, 0x0000000000000000000000000000000000000000000000000000000000000020000000000000000000000000000000000000000000000000000000000000000f000000000000000000000000000000000000000000000000000000000000000200000000000000000000000000000000000000000000000000000000000000ff000000000000000000000000000000000000000000000000000000000000000000000000000000000000000000000000000000000000000000000000000000c00000000000000000000000000000000000000000000000000000000000000120000000000000000000000000000000000000000000000000000000000000000200000000000000000000000019670df5e16bea2ba9b9e68b48c054c5baea06b8000000000000000000000000f2e380c90e6c09721297526dbc74f870e114dfcb0000000000000000000000000000000000000000000000000000000000000000), (30184, 2, 0x0000000000000000000000000000000000000000000000000000000000000020000000000000000000000000000000000000000000000000000000000000000f000000000000000000000000000000000000000000000000000000000000000200000000000000000000000000000000000000000000000000000000000000ff000000000000000000000000000000000000000000000000000000000000000000000000000000000000000000000000000000000000000000000000000000c00000000000000000000000000000000000000000000000000000000000000120000000000000000000000000000000000000000000000000000000000000000200000000000000000000000019670df5e16bea2ba9b9e68b48c054c5baea06b8000000000000000000000000f2e380c90e6c09721297526dbc74f870e114dfcb0000000000000000000000000000000000000000000000000000000000000000)]"
      ],
      "transaction": {
        "from": "0x0ece75f3c36f7df2136dac7633165dbff53de3cd",
        "to": "0x1a44076050125825900e736c501f859c50fe728c",
        "gas": "0x50f38",
        "value": "0x0",
        "input": "0x6dbd9f90000000000000000000000000d506b22a6b3216b736021fa262d0f5d686e07b350000000000000000000000007b9e184e07a6ee1ac23eae0fe8d6be2f663f05e60000000000000000000000000000000000000000000000000000000000000060000000000000000000000000000000000000000000000000000000000000000200000000000000000000000000000000000000000000000000000000000000400000000000000000000000000000000000000000000000000000000000000220000000000000000000000000000000000000000000000000000000000000759e0000000000000000000000000000000000000000000000000000000000000002000000000000000000000000000000000000000000000000000000000000006000000000000000000000000000000000000000000000000000000000000001600000000000000000000000000000000000000000000000000000000000000020000000000000000000000000000000000000000000000000000000000000000f000000000000000000000000000000000000000000000000000000000000000200000000000000000000000000000000000000000000000000000000000000ff000000000000000000000000000000000000000000000000000000000000000000000000000000000000000000000000000000000000000000000000000000c00000000000000000000000000000000000000000000000000000000000000120000000000000000000000000000000000000000000000000000000000000000200000000000000000000000019670df5e16bea2ba9b9e68b48c054c5baea06b8000000000000000000000000f2e380c90e6c09721297526dbc74f870e114dfcb000000000000000000000000000000000000000000000000000000000000000000000000000000000000000000000000000000000000000000000000000075e80000000000000000000000000000000000000000000000000000000000000002000000000000000000000000000000000000000000000000000000000000006000000000000000000000000000000000000000000000000000000000000001600000000000000000000000000000000000000000000000000000000000000020000000000000000000000000000000000000000000000000000000000000000f000000000000000000000000000000000000000000000000000000000000000200000000000000000000000000000000000000000000000000000000000000ff000000000000000000000000000000000000000000000000000000000000000000000000000000000000000000000000000000000000000000000000000000c00000000000000000000000000000000000000000000000000000000000000120000000000000000000000000000000000000000000000000000000000000000200000000000000000000000019670df5e16bea2ba9b9e68b48c054c5baea06b8000000000000000000000000f2e380c90e6c09721297526dbc74f870e114dfcb0000000000000000000000000000000000000000000000000000000000000000",
        "nonce": "0x48",
        "chainId": "0xa4b1"
      },
      "additionalContracts": [],
      "isFixedGasLimit": false
    },
    {
      "hash": "0x1141a931a373876e12d59c4b154934ecb07ec2cd50c23bb8c059c6b9e4b6c4db",
      "transactionType": "CALL",
      "contractName": null,
      "contractAddress": "0x1a44076050125825900e736c501f859c50fe728c",
      "function": "setConfig(address,address,(uint32,uint32,bytes)[])",
      "arguments": [
        "0x02a66B51Fc24E08535a6Cfe1e11E532D8A089212",
        "0x7B9E184e07a6EE1aC23eAe0fe8D6Be2f663f05e6",
        "[(30110, 2, 0x0000000000000000000000000000000000000000000000000000000000000020000000000000000000000000000000000000000000000000000000000000000f000000000000000000000000000000000000000000000000000000000000000200000000000000000000000000000000000000000000000000000000000000ff000000000000000000000000000000000000000000000000000000000000000000000000000000000000000000000000000000000000000000000000000000c00000000000000000000000000000000000000000000000000000000000000120000000000000000000000000000000000000000000000000000000000000000200000000000000000000000019670df5e16bea2ba9b9e68b48c054c5baea06b8000000000000000000000000f2e380c90e6c09721297526dbc74f870e114dfcb0000000000000000000000000000000000000000000000000000000000000000), (30184, 2, 0x0000000000000000000000000000000000000000000000000000000000000020000000000000000000000000000000000000000000000000000000000000000f000000000000000000000000000000000000000000000000000000000000000200000000000000000000000000000000000000000000000000000000000000ff000000000000000000000000000000000000000000000000000000000000000000000000000000000000000000000000000000000000000000000000000000c00000000000000000000000000000000000000000000000000000000000000120000000000000000000000000000000000000000000000000000000000000000200000000000000000000000019670df5e16bea2ba9b9e68b48c054c5baea06b8000000000000000000000000f2e380c90e6c09721297526dbc74f870e114dfcb0000000000000000000000000000000000000000000000000000000000000000)]"
      ],
      "transaction": {
        "from": "0x0ece75f3c36f7df2136dac7633165dbff53de3cd",
        "to": "0x1a44076050125825900e736c501f859c50fe728c",
        "gas": "0x50f3f",
        "value": "0x0",
        "input": "0x6dbd9f9000000000000000000000000002a66b51fc24e08535a6cfe1e11e532d8a0892120000000000000000000000007b9e184e07a6ee1ac23eae0fe8d6be2f663f05e60000000000000000000000000000000000000000000000000000000000000060000000000000000000000000000000000000000000000000000000000000000200000000000000000000000000000000000000000000000000000000000000400000000000000000000000000000000000000000000000000000000000000220000000000000000000000000000000000000000000000000000000000000759e0000000000000000000000000000000000000000000000000000000000000002000000000000000000000000000000000000000000000000000000000000006000000000000000000000000000000000000000000000000000000000000001600000000000000000000000000000000000000000000000000000000000000020000000000000000000000000000000000000000000000000000000000000000f000000000000000000000000000000000000000000000000000000000000000200000000000000000000000000000000000000000000000000000000000000ff000000000000000000000000000000000000000000000000000000000000000000000000000000000000000000000000000000000000000000000000000000c00000000000000000000000000000000000000000000000000000000000000120000000000000000000000000000000000000000000000000000000000000000200000000000000000000000019670df5e16bea2ba9b9e68b48c054c5baea06b8000000000000000000000000f2e380c90e6c09721297526dbc74f870e114dfcb000000000000000000000000000000000000000000000000000000000000000000000000000000000000000000000000000000000000000000000000000075e80000000000000000000000000000000000000000000000000000000000000002000000000000000000000000000000000000000000000000000000000000006000000000000000000000000000000000000000000000000000000000000001600000000000000000000000000000000000000000000000000000000000000020000000000000000000000000000000000000000000000000000000000000000f000000000000000000000000000000000000000000000000000000000000000200000000000000000000000000000000000000000000000000000000000000ff000000000000000000000000000000000000000000000000000000000000000000000000000000000000000000000000000000000000000000000000000000c00000000000000000000000000000000000000000000000000000000000000120000000000000000000000000000000000000000000000000000000000000000200000000000000000000000019670df5e16bea2ba9b9e68b48c054c5baea06b8000000000000000000000000f2e380c90e6c09721297526dbc74f870e114dfcb0000000000000000000000000000000000000000000000000000000000000000",
        "nonce": "0x49",
        "chainId": "0xa4b1"
      },
      "additionalContracts": [],
      "isFixedGasLimit": false
    },
    {
      "hash": "0x9ca1c6093273763dd7bf7a40ae4f98842b8c9ad2394d52c4f19fd1e458ab043c",
      "transactionType": "CALL",
      "contractName": null,
      "contractAddress": "0x1a44076050125825900e736c501f859c50fe728c",
      "function": "setConfig(address,address,(uint32,uint32,bytes)[])",
      "arguments": [
        "0xc3be8ab4CA0cefE3119A765b324bBDF54a16A65b",
        "0x7B9E184e07a6EE1aC23eAe0fe8D6Be2f663f05e6",
        "[(30110, 2, 0x0000000000000000000000000000000000000000000000000000000000000020000000000000000000000000000000000000000000000000000000000000000f000000000000000000000000000000000000000000000000000000000000000200000000000000000000000000000000000000000000000000000000000000ff000000000000000000000000000000000000000000000000000000000000000000000000000000000000000000000000000000000000000000000000000000c00000000000000000000000000000000000000000000000000000000000000120000000000000000000000000000000000000000000000000000000000000000200000000000000000000000019670df5e16bea2ba9b9e68b48c054c5baea06b8000000000000000000000000f2e380c90e6c09721297526dbc74f870e114dfcb0000000000000000000000000000000000000000000000000000000000000000), (30184, 2, 0x0000000000000000000000000000000000000000000000000000000000000020000000000000000000000000000000000000000000000000000000000000000f000000000000000000000000000000000000000000000000000000000000000200000000000000000000000000000000000000000000000000000000000000ff000000000000000000000000000000000000000000000000000000000000000000000000000000000000000000000000000000000000000000000000000000c00000000000000000000000000000000000000000000000000000000000000120000000000000000000000000000000000000000000000000000000000000000200000000000000000000000019670df5e16bea2ba9b9e68b48c054c5baea06b8000000000000000000000000f2e380c90e6c09721297526dbc74f870e114dfcb0000000000000000000000000000000000000000000000000000000000000000)]"
      ],
      "transaction": {
        "from": "0x0ece75f3c36f7df2136dac7633165dbff53de3cd",
        "to": "0x1a44076050125825900e736c501f859c50fe728c",
        "gas": "0x50f3d",
        "value": "0x0",
        "input": "0x6dbd9f90000000000000000000000000c3be8ab4ca0cefe3119a765b324bbdf54a16a65b0000000000000000000000007b9e184e07a6ee1ac23eae0fe8d6be2f663f05e60000000000000000000000000000000000000000000000000000000000000060000000000000000000000000000000000000000000000000000000000000000200000000000000000000000000000000000000000000000000000000000000400000000000000000000000000000000000000000000000000000000000000220000000000000000000000000000000000000000000000000000000000000759e0000000000000000000000000000000000000000000000000000000000000002000000000000000000000000000000000000000000000000000000000000006000000000000000000000000000000000000000000000000000000000000001600000000000000000000000000000000000000000000000000000000000000020000000000000000000000000000000000000000000000000000000000000000f000000000000000000000000000000000000000000000000000000000000000200000000000000000000000000000000000000000000000000000000000000ff000000000000000000000000000000000000000000000000000000000000000000000000000000000000000000000000000000000000000000000000000000c00000000000000000000000000000000000000000000000000000000000000120000000000000000000000000000000000000000000000000000000000000000200000000000000000000000019670df5e16bea2ba9b9e68b48c054c5baea06b8000000000000000000000000f2e380c90e6c09721297526dbc74f870e114dfcb000000000000000000000000000000000000000000000000000000000000000000000000000000000000000000000000000000000000000000000000000075e80000000000000000000000000000000000000000000000000000000000000002000000000000000000000000000000000000000000000000000000000000006000000000000000000000000000000000000000000000000000000000000001600000000000000000000000000000000000000000000000000000000000000020000000000000000000000000000000000000000000000000000000000000000f000000000000000000000000000000000000000000000000000000000000000200000000000000000000000000000000000000000000000000000000000000ff000000000000000000000000000000000000000000000000000000000000000000000000000000000000000000000000000000000000000000000000000000c00000000000000000000000000000000000000000000000000000000000000120000000000000000000000000000000000000000000000000000000000000000200000000000000000000000019670df5e16bea2ba9b9e68b48c054c5baea06b8000000000000000000000000f2e380c90e6c09721297526dbc74f870e114dfcb0000000000000000000000000000000000000000000000000000000000000000",
        "nonce": "0x4a",
        "chainId": "0xa4b1"
      },
      "additionalContracts": [],
      "isFixedGasLimit": false
    }
  ],
  "receipts": [
    {
      "status": "0x1",
      "cumulativeGasUsed": "0x3112d",
      "logs": [
        {
          "address": "0x1a44076050125825900e736c501f859c50fe728c",
          "topics": [
            "0x4cff966ebee29a156dcb34cf72c1d06231fb1777f6bdf6e8089819232f002b1c"
          ],
          "data": "0x00000000000000000000000067165c24a886aaaf1bfa81934e44a2063c6b608c00000000000000000000000000000000000000000000000000000000000075e8000000000000000000000000975bcd720be66659e3eb3c0e4f1866a3020e493a",
          "blockHash": "0x9d452cff2f0570dabb081296a53c59a9dae5b66e4a7baf4e7ce186b4225d9dfb",
          "blockNumber": "0x175c70d6",
          "transactionHash": "0x4214948317df6e917297ca93588d6ae5731339b9eb83a51d353e5a03eee43104",
          "transactionIndex": "0x3",
          "logIndex": "0x8",
          "removed": false
        }
      ],
      "logsBloom": "0x00000000000000000000000000000000000200000000000000000000001000000000000000000000000000000000000000000000000000000000000001000000000000000000000000000000000000000000000000000000000000000000000000000000000000000000000000000000000000000010000000000000000000000000000000000000000000000000000000000000000000000000000000000000000000000000000000000000000000000000000000000000000000000000000000000000000000000000000000000000000000000000000000000000000000000040000000000000000000000000000000000000010000000000000000000000",
      "type": "0x2",
      "transactionHash": "0x4214948317df6e917297ca93588d6ae5731339b9eb83a51d353e5a03eee43104",
      "transactionIndex": "0x3",
      "blockHash": "0x9d452cff2f0570dabb081296a53c59a9dae5b66e4a7baf4e7ce186b4225d9dfb",
      "blockNumber": "0x175c70d6",
      "gasUsed": "0xe4c7",
      "effectiveGasPrice": "0x32004b0",
      "from": "0x0ece75f3c36f7df2136dac7633165dbff53de3cd",
      "to": "0x1a44076050125825900e736c501f859c50fe728c",
      "contractAddress": null,
      "gasUsedForL1": "0x339",
      "l1BlockNumber": "0x16886a4",
      "timeboosted": false
    },
    {
      "status": "0x1",
      "cumulativeGasUsed": "0x9739b",
      "logs": [
        {
          "address": "0x1a44076050125825900e736c501f859c50fe728c",
          "topics": [
            "0x4cff966ebee29a156dcb34cf72c1d06231fb1777f6bdf6e8089819232f002b1c"
          ],
          "data": "0x000000000000000000000000ebb7a56fd2d0231a9bf7240542cbd09a641a29fc00000000000000000000000000000000000000000000000000000000000075e8000000000000000000000000975bcd720be66659e3eb3c0e4f1866a3020e493a",
          "blockHash": "0xce971b1e4e1ee514295e3e3ac00e58b3487f784cd3502a14ca6005ac203a3f3e",
          "blockNumber": "0x175c70db",
          "transactionHash": "0xbb25ea4d9d3be787657ec913f1f950c744ff6522e10bce18888a386c31d0037b",
          "transactionIndex": "0x3",
          "logIndex": "0xd",
          "removed": false
        }
      ],
      "logsBloom": "0x00000000000000000000000000000000000200000000000000000000001000000000000000000000000000000000000000000000000000000000000001000000000000000000000000000000000000000000000000000000000000000000000000000000000000000000000000000000000000000010000000000000000000000000000000000000000000000000000000000000000000000000000000000000000000000000000000000000000000000000000000000000000000000000000000000000000000000000000000000000000000000000000000000000000000000040000000000000000000000000000000000000010000000000000000000000",
      "type": "0x2",
      "transactionHash": "0xbb25ea4d9d3be787657ec913f1f950c744ff6522e10bce18888a386c31d0037b",
      "transactionIndex": "0x3",
      "blockHash": "0xce971b1e4e1ee514295e3e3ac00e58b3487f784cd3502a14ca6005ac203a3f3e",
      "blockNumber": "0x175c70db",
      "gasUsed": "0xe4ca",
      "effectiveGasPrice": "0x31d64d0",
      "from": "0x0ece75f3c36f7df2136dac7633165dbff53de3cd",
      "to": "0x1a44076050125825900e736c501f859c50fe728c",
      "contractAddress": null,
      "gasUsedForL1": "0x33c",
      "l1BlockNumber": "0x16886a4",
      "timeboosted": false
    },
    {
      "status": "0x1",
      "cumulativeGasUsed": "0x55bcb",
      "logs": [
        {
          "address": "0x1a44076050125825900e736c501f859c50fe728c",
          "topics": [
            "0x4cff966ebee29a156dcb34cf72c1d06231fb1777f6bdf6e8089819232f002b1c"
          ],
          "data": "0x000000000000000000000000a85c480f229fac050ecc53faede343628bc242cb00000000000000000000000000000000000000000000000000000000000075e8000000000000000000000000975bcd720be66659e3eb3c0e4f1866a3020e493a",
          "blockHash": "0x6e306594856e63c17431744d74ee70669a7d86a983caee9e0b6b4ad205e94e86",
          "blockNumber": "0x175c70e7",
          "transactionHash": "0xaaff3c95e5c0b221add2fdc05094a4f0ae9ab6ebefcd29641f857d7f2e646318",
          "transactionIndex": "0x4",
          "logIndex": "0x7",
          "removed": false
        }
      ],
      "logsBloom": "0x00000000000000000000000000000000000200000000000000000000001000000000000000000000000000000000000000000000000000000000000001000000000000000000000000000000000000000000000000000000000000000000000000000000000000000000000000000000000000000010000000000000000000000000000000000000000000000000000000000000000000000000000000000000000000000000000000000000000000000000000000000000000000000000000000000000000000000000000000000000000000000000000000000000000000000040000000000000000000000000000000000000010000000000000000000000",
      "type": "0x2",
      "transactionHash": "0xaaff3c95e5c0b221add2fdc05094a4f0ae9ab6ebefcd29641f857d7f2e646318",
      "transactionIndex": "0x4",
      "blockHash": "0x6e306594856e63c17431744d74ee70669a7d86a983caee9e0b6b4ad205e94e86",
      "blockNumber": "0x175c70e7",
      "gasUsed": "0xe4c5",
      "effectiveGasPrice": "0x3218380",
      "from": "0x0ece75f3c36f7df2136dac7633165dbff53de3cd",
      "to": "0x1a44076050125825900e736c501f859c50fe728c",
      "contractAddress": null,
      "gasUsedForL1": "0x337",
      "l1BlockNumber": "0x16886a5",
      "timeboosted": false
    },
    {
      "status": "0x1",
      "cumulativeGasUsed": "0xe4cf",
      "logs": [
        {
          "address": "0x1a44076050125825900e736c501f859c50fe728c",
          "topics": [
            "0x4cff966ebee29a156dcb34cf72c1d06231fb1777f6bdf6e8089819232f002b1c"
          ],
          "data": "0x000000000000000000000000eb36aa674745c48381aa3a8074e5485586dbd30800000000000000000000000000000000000000000000000000000000000075e8000000000000000000000000975bcd720be66659e3eb3c0e4f1866a3020e493a",
          "blockHash": "0x09d9700161f657d19e5fda68ffe1c953cb720bf0c57bfdc0b706d932880d7a1d",
          "blockNumber": "0x175c70f3",
          "transactionHash": "0xa4b3658b781ddd3e3ba29710d1bf43c52f588dc61c08cc1755d66e223e89b87c",
          "transactionIndex": "0x1",
          "logIndex": "0x0",
          "removed": false
        }
      ],
      "logsBloom": "0x00000000000000000000000000000000000200000000000000000000001000000000000000000000000000000000000000000000000000000000000001000000000000000000000000000000000000000000000000000000000000000000000000000000000000000000000000000000000000000010000000000000000000000000000000000000000000000000000000000000000000000000000000000000000000000000000000000000000000000000000000000000000000000000000000000000000000000000000000000000000000000000000000000000000000000040000000000000000000000000000000000000010000000000000000000000",
      "type": "0x2",
      "transactionHash": "0xa4b3658b781ddd3e3ba29710d1bf43c52f588dc61c08cc1755d66e223e89b87c",
      "transactionIndex": "0x1",
      "blockHash": "0x09d9700161f657d19e5fda68ffe1c953cb720bf0c57bfdc0b706d932880d7a1d",
      "blockNumber": "0x175c70f3",
      "gasUsed": "0xe4cf",
      "effectiveGasPrice": "0x31834b0",
      "from": "0x0ece75f3c36f7df2136dac7633165dbff53de3cd",
      "to": "0x1a44076050125825900e736c501f859c50fe728c",
      "contractAddress": null,
      "gasUsedForL1": "0x341",
      "l1BlockNumber": "0x16886a5",
      "timeboosted": false
    },
    {
      "status": "0x1",
      "cumulativeGasUsed": "0x2c61e",
      "logs": [
        {
          "address": "0x1a44076050125825900e736c501f859c50fe728c",
          "topics": [
            "0x4cff966ebee29a156dcb34cf72c1d06231fb1777f6bdf6e8089819232f002b1c"
          ],
          "data": "0x000000000000000000000000d506b22a6b3216b736021fa262d0f5d686e07b3500000000000000000000000000000000000000000000000000000000000075e8000000000000000000000000975bcd720be66659e3eb3c0e4f1866a3020e493a",
          "blockHash": "0xeeaa857e482cb4738e99900edbeb817a1b01cd008375904c52881ae0cdac212c",
          "blockNumber": "0x175c70f8",
          "transactionHash": "0xe23ccdb60cf4d170ab5bc95dd7274589f78a74ce7313a618eea4cf467bd10235",
          "transactionIndex": "0x3",
          "logIndex": "0x1",
          "removed": false
        }
      ],
      "logsBloom": "0x00000000000000000000000000000000000200000000000000000000001000000000000000000000000000000000000000000000000000000000000001000000000000000000000000000000000000000000000000000000000000000000000000000000000000000000000000000000000000000010000000000000000000000000000000000000000000000000000000000000000000000000000000000000000000000000000000000000000000000000000000000000000000000000000000000000000000000000000000000000000000000000000000000000000000000040000000000000000000000000000000000000010000000000000000000000",
      "type": "0x2",
      "transactionHash": "0xe23ccdb60cf4d170ab5bc95dd7274589f78a74ce7313a618eea4cf467bd10235",
      "transactionIndex": "0x3",
      "blockHash": "0xeeaa857e482cb4738e99900edbeb817a1b01cd008375904c52881ae0cdac212c",
      "blockNumber": "0x175c70f8",
      "gasUsed": "0xe4cb",
      "effectiveGasPrice": "0x31bd278",
      "from": "0x0ece75f3c36f7df2136dac7633165dbff53de3cd",
      "to": "0x1a44076050125825900e736c501f859c50fe728c",
      "contractAddress": null,
      "gasUsedForL1": "0x33d",
      "l1BlockNumber": "0x16886a5",
      "timeboosted": false
    },
    {
      "status": "0x1",
      "cumulativeGasUsed": "0xe4ce",
      "logs": [
        {
          "address": "0x1a44076050125825900e736c501f859c50fe728c",
          "topics": [
            "0x4cff966ebee29a156dcb34cf72c1d06231fb1777f6bdf6e8089819232f002b1c"
          ],
          "data": "0x00000000000000000000000002a66b51fc24e08535a6cfe1e11e532d8a08921200000000000000000000000000000000000000000000000000000000000075e8000000000000000000000000975bcd720be66659e3eb3c0e4f1866a3020e493a",
          "blockHash": "0x0eb760705ed136fbd4e9be767e777383bf59478de39aee1d47e4bedd5fb01653",
          "blockNumber": "0x175c70fd",
          "transactionHash": "0x8f4ba39adc0bde1703af25b888951e14f22797817dbe8f13805101edd5831315",
          "transactionIndex": "0x1",
          "logIndex": "0x0",
          "removed": false
        }
      ],
      "logsBloom": "0x00000000000000000000000000000000000200000000000000000000001000000000000000000000000000000000000000000000000000000000000001000000000000000000000000000000000000000000000000000000000000000000000000000000000000000000000000000000000000000010000000000000000000000000000000000000000000000000000000000000000000000000000000000000000000000000000000000000000000000000000000000000000000000000000000000000000000000000000000000000000000000000000000000000000000000040000000000000000000000000000000000000010000000000000000000000",
      "type": "0x2",
      "transactionHash": "0x8f4ba39adc0bde1703af25b888951e14f22797817dbe8f13805101edd5831315",
      "transactionIndex": "0x1",
      "blockHash": "0x0eb760705ed136fbd4e9be767e777383bf59478de39aee1d47e4bedd5fb01653",
      "blockNumber": "0x175c70fd",
      "gasUsed": "0xe4ce",
      "effectiveGasPrice": "0x318dca8",
      "from": "0x0ece75f3c36f7df2136dac7633165dbff53de3cd",
      "to": "0x1a44076050125825900e736c501f859c50fe728c",
      "contractAddress": null,
      "gasUsedForL1": "0x340",
      "l1BlockNumber": "0x16886a5",
      "timeboosted": false
    },
    {
      "status": "0x1",
      "cumulativeGasUsed": "0x197c4",
      "logs": [
        {
          "address": "0x1a44076050125825900e736c501f859c50fe728c",
          "topics": [
            "0x4cff966ebee29a156dcb34cf72c1d06231fb1777f6bdf6e8089819232f002b1c"
          ],
          "data": "0x000000000000000000000000c3be8ab4ca0cefe3119a765b324bbdf54a16a65b00000000000000000000000000000000000000000000000000000000000075e8000000000000000000000000975bcd720be66659e3eb3c0e4f1866a3020e493a",
          "blockHash": "0x4d97e4f7ecb5c7faae7b0797b7ce7ec8a91e46c6a7d6e956f4115011097023bf",
          "blockNumber": "0x175c7107",
          "transactionHash": "0xdc694d25833b85ca86ddc7fa64af85f47167b108fcff15fff858bbba410b5d57",
          "transactionIndex": "0x2",
          "logIndex": "0x1",
          "removed": false
        }
      ],
      "logsBloom": "0x00000000000000000000000000000000000200000000000000000000001000000000000000000000000000000000000000000000000000000000000001000000000000000000000000000000000000000000000000000000000000000000000000000000000000000000000000000000000000000010000000000000000000000000000000000000000000000000000000000000000000000000000000000000000000000000000000000000000000000000000000000000000000000000000000000000000000000000000000000000000000000000000000000000000000000040000000000000000000000000000000000000010000000000000000000000",
      "type": "0x2",
      "transactionHash": "0xdc694d25833b85ca86ddc7fa64af85f47167b108fcff15fff858bbba410b5d57",
      "transactionIndex": "0x2",
      "blockHash": "0x4d97e4f7ecb5c7faae7b0797b7ce7ec8a91e46c6a7d6e956f4115011097023bf",
      "blockNumber": "0x175c7107",
      "gasUsed": "0xe4d7",
      "effectiveGasPrice": "0x310ce28",
      "from": "0x0ece75f3c36f7df2136dac7633165dbff53de3cd",
      "to": "0x1a44076050125825900e736c501f859c50fe728c",
      "contractAddress": null,
      "gasUsedForL1": "0x349",
      "l1BlockNumber": "0x16886a5",
      "timeboosted": false
    },
    {
      "status": "0x1",
      "cumulativeGasUsed": "0x2c545",
      "logs": [
        {
          "address": "0x1a44076050125825900e736c501f859c50fe728c",
          "topics": [
            "0xcd6f92f5ac6185a5acfa02c92090746cec64d777269cbcd0ed031e396657a1c2"
          ],
          "data": "0x00000000000000000000000067165c24a886aaaf1bfa81934e44a2063c6b608c000000000000000000000000000000000000000000000000000000000000759e0000000000000000000000007b9e184e07a6ee1ac23eae0fe8d6be2f663f05e6",
          "blockHash": "0x984ba6c575488d6649a0799d5252fdaffb30621f1b9b4aa1257726c747edb2d9",
          "blockNumber": "0x175c710c",
          "transactionHash": "0x1084a370d00f582a5cb5fe4565f95acb03bbc637b39114ac1a52a61fbebedd5a",
          "transactionIndex": "0x2",
          "logIndex": "0x1",
          "removed": false
        },
        {
          "address": "0x1a44076050125825900e736c501f859c50fe728c",
          "topics": [
            "0x4e0a5bbfa0c11a64effb1ada324b5437a17272e1aed9320398715ef71bb20928"
          ],
          "data": "0x00000000000000000000000067165c24a886aaaf1bfa81934e44a2063c6b608c000000000000000000000000000000000000000000000000000000000000759e00000000000000000000000000000000000000000000000000000000000000000000000000000000000000000000000000000000000000000000000000000000",
          "blockHash": "0x984ba6c575488d6649a0799d5252fdaffb30621f1b9b4aa1257726c747edb2d9",
          "blockNumber": "0x175c710c",
          "transactionHash": "0x1084a370d00f582a5cb5fe4565f95acb03bbc637b39114ac1a52a61fbebedd5a",
          "transactionIndex": "0x2",
          "logIndex": "0x2",
          "removed": false
        }
      ],
      "logsBloom": "0x00000000000000000000020800000000000000000000000000000000001000020400000000000000000000000000000000000000000000000000000000000000000000000000000000000000000000000000000000800000000000000000000000000000000000000000000000000000000000000010000000000000000000100000000000000000000000000000000000000000000000000000000000000000000000000000000000000000000000000000000000000000000000000000000000000000000000000000000000000000000000000000000000000000000000000000000000000000000000000000000000000000010000000000000000000000",
      "type": "0x2",
      "transactionHash": "0x1084a370d00f582a5cb5fe4565f95acb03bbc637b39114ac1a52a61fbebedd5a",
      "transactionIndex": "0x2",
      "blockHash": "0x984ba6c575488d6649a0799d5252fdaffb30621f1b9b4aa1257726c747edb2d9",
      "blockNumber": "0x175c710c",
      "gasUsed": "0xff68",
      "effectiveGasPrice": "0x310b6b8",
      "from": "0x0ece75f3c36f7df2136dac7633165dbff53de3cd",
      "to": "0x1a44076050125825900e736c501f859c50fe728c",
      "contractAddress": null,
      "gasUsedForL1": "0x3c7",
      "l1BlockNumber": "0x16886a5",
      "timeboosted": false
    },
    {
      "status": "0x1",
      "cumulativeGasUsed": "0xff69",
      "logs": [
        {
          "address": "0x1a44076050125825900e736c501f859c50fe728c",
          "topics": [
            "0xcd6f92f5ac6185a5acfa02c92090746cec64d777269cbcd0ed031e396657a1c2"
          ],
          "data": "0x000000000000000000000000ebb7a56fd2d0231a9bf7240542cbd09a641a29fc000000000000000000000000000000000000000000000000000000000000759e0000000000000000000000007b9e184e07a6ee1ac23eae0fe8d6be2f663f05e6",
          "blockHash": "0xd6dace8eeb44e46286322b6d95dd77d6a5d86ef0bba624bcea6866dfea9eaaea",
          "blockNumber": "0x175c7111",
          "transactionHash": "0x4b92ad3577ed6555880bc15ed8a9c1970762d286f52cbf297ab77bd0308a1088",
          "transactionIndex": "0x1",
          "logIndex": "0x0",
          "removed": false
        },
        {
          "address": "0x1a44076050125825900e736c501f859c50fe728c",
          "topics": [
            "0x4e0a5bbfa0c11a64effb1ada324b5437a17272e1aed9320398715ef71bb20928"
          ],
          "data": "0x000000000000000000000000ebb7a56fd2d0231a9bf7240542cbd09a641a29fc000000000000000000000000000000000000000000000000000000000000759e00000000000000000000000000000000000000000000000000000000000000000000000000000000000000000000000000000000000000000000000000000000",
          "blockHash": "0xd6dace8eeb44e46286322b6d95dd77d6a5d86ef0bba624bcea6866dfea9eaaea",
          "blockNumber": "0x175c7111",
          "transactionHash": "0x4b92ad3577ed6555880bc15ed8a9c1970762d286f52cbf297ab77bd0308a1088",
          "transactionIndex": "0x1",
          "logIndex": "0x1",
          "removed": false
        }
      ],
      "logsBloom": "0x00000000000000000000020800000000000000000000000000000000001000020400000000000000000000000000000000000000000000000000000000000000000000000000000000000000000000000000000000800000000000000000000000000000000000000000000000000000000000000010000000000000000000100000000000000000000000000000000000000000000000000000000000000000000000000000000000000000000000000000000000000000000000000000000000000000000000000000000000000000000000000000000000000000000000000000000000000000000000000000000000000000010000000000000000000000",
      "type": "0x2",
      "transactionHash": "0x4b92ad3577ed6555880bc15ed8a9c1970762d286f52cbf297ab77bd0308a1088",
      "transactionIndex": "0x1",
      "blockHash": "0xd6dace8eeb44e46286322b6d95dd77d6a5d86ef0bba624bcea6866dfea9eaaea",
      "blockNumber": "0x175c7111",
      "gasUsed": "0xff69",
      "effectiveGasPrice": "0x31058f8",
      "from": "0x0ece75f3c36f7df2136dac7633165dbff53de3cd",
      "to": "0x1a44076050125825900e736c501f859c50fe728c",
      "contractAddress": null,
      "gasUsedForL1": "0x3c8",
      "l1BlockNumber": "0x16886a5",
      "timeboosted": false
    },
    {
      "status": "0x1",
      "cumulativeGasUsed": "0x7f4d4",
      "logs": [
        {
          "address": "0x1a44076050125825900e736c501f859c50fe728c",
          "topics": [
            "0xcd6f92f5ac6185a5acfa02c92090746cec64d777269cbcd0ed031e396657a1c2"
          ],
          "data": "0x000000000000000000000000a85c480f229fac050ecc53faede343628bc242cb000000000000000000000000000000000000000000000000000000000000759e0000000000000000000000007b9e184e07a6ee1ac23eae0fe8d6be2f663f05e6",
          "blockHash": "0x35fc0c64dd6a5e9225f0e2f0254367fccf7683503a1a3a54c951fa0e6eb5c4f4",
          "blockNumber": "0x175c711d",
          "transactionHash": "0xe2951aaa3e26da9e9755b0331049f304b09190104da8350f82387278e7d04bfc",
          "transactionIndex": "0x3",
          "logIndex": "0x9",
          "removed": false
        },
        {
          "address": "0x1a44076050125825900e736c501f859c50fe728c",
          "topics": [
            "0x4e0a5bbfa0c11a64effb1ada324b5437a17272e1aed9320398715ef71bb20928"
          ],
          "data": "0x000000000000000000000000a85c480f229fac050ecc53faede343628bc242cb000000000000000000000000000000000000000000000000000000000000759e00000000000000000000000000000000000000000000000000000000000000000000000000000000000000000000000000000000000000000000000000000000",
          "blockHash": "0x35fc0c64dd6a5e9225f0e2f0254367fccf7683503a1a3a54c951fa0e6eb5c4f4",
          "blockNumber": "0x175c711d",
          "transactionHash": "0xe2951aaa3e26da9e9755b0331049f304b09190104da8350f82387278e7d04bfc",
          "transactionIndex": "0x3",
          "logIndex": "0xa",
          "removed": false
        }
      ],
      "logsBloom": "0x00000000000000000000020800000000000000000000000000000000001000020400000000000000000000000000000000000000000000000000000000000000000000000000000000000000000000000000000000800000000000000000000000000000000000000000000000000000000000000010000000000000000000100000000000000000000000000000000000000000000000000000000000000000000000000000000000000000000000000000000000000000000000000000000000000000000000000000000000000000000000000000000000000000000000000000000000000000000000000000000000000000010000000000000000000000",
      "type": "0x2",
      "transactionHash": "0xe2951aaa3e26da9e9755b0331049f304b09190104da8350f82387278e7d04bfc",
      "transactionIndex": "0x3",
      "blockHash": "0x35fc0c64dd6a5e9225f0e2f0254367fccf7683503a1a3a54c951fa0e6eb5c4f4",
      "blockNumber": "0x175c711d",
      "gasUsed": "0xff71",
      "effectiveGasPrice": "0x3098eb0",
      "from": "0x0ece75f3c36f7df2136dac7633165dbff53de3cd",
      "to": "0x1a44076050125825900e736c501f859c50fe728c",
      "contractAddress": null,
      "gasUsedForL1": "0x3d0",
      "l1BlockNumber": "0x16886a5",
      "timeboosted": false
    },
    {
      "status": "0x1",
      "cumulativeGasUsed": "0xff7f",
      "logs": [
        {
          "address": "0x1a44076050125825900e736c501f859c50fe728c",
          "topics": [
            "0xcd6f92f5ac6185a5acfa02c92090746cec64d777269cbcd0ed031e396657a1c2"
          ],
          "data": "0x000000000000000000000000eb36aa674745c48381aa3a8074e5485586dbd308000000000000000000000000000000000000000000000000000000000000759e0000000000000000000000007b9e184e07a6ee1ac23eae0fe8d6be2f663f05e6",
          "blockHash": "0x6450105f61467b44b44fede8d6bb0dc445eb1ba4c45a8ce1a1ef61c7fa3d3211",
          "blockNumber": "0x175c7122",
          "transactionHash": "0x3fe78140c0320d7c6ef1bb97f39e82d88bfbc0938c348843b00ef038c06a65de",
          "transactionIndex": "0x1",
          "logIndex": "0x0",
          "removed": false
        },
        {
          "address": "0x1a44076050125825900e736c501f859c50fe728c",
          "topics": [
            "0x4e0a5bbfa0c11a64effb1ada324b5437a17272e1aed9320398715ef71bb20928"
          ],
          "data": "0x000000000000000000000000eb36aa674745c48381aa3a8074e5485586dbd308000000000000000000000000000000000000000000000000000000000000759e00000000000000000000000000000000000000000000000000000000000000000000000000000000000000000000000000000000000000000000000000000000",
          "blockHash": "0x6450105f61467b44b44fede8d6bb0dc445eb1ba4c45a8ce1a1ef61c7fa3d3211",
          "blockNumber": "0x175c7122",
          "transactionHash": "0x3fe78140c0320d7c6ef1bb97f39e82d88bfbc0938c348843b00ef038c06a65de",
          "transactionIndex": "0x1",
          "logIndex": "0x1",
          "removed": false
        }
      ],
      "logsBloom": "0x00000000000000000000020800000000000000000000000000000000001000020400000000000000000000000000000000000000000000000000000000000000000000000000000000000000000000000000000000800000000000000000000000000000000000000000000000000000000000000010000000000000000000100000000000000000000000000000000000000000000000000000000000000000000000000000000000000000000000000000000000000000000000000000000000000000000000000000000000000000000000000000000000000000000000000000000000000000000000000000000000000000010000000000000000000000",
      "type": "0x2",
      "transactionHash": "0x3fe78140c0320d7c6ef1bb97f39e82d88bfbc0938c348843b00ef038c06a65de",
      "transactionIndex": "0x1",
      "blockHash": "0x6450105f61467b44b44fede8d6bb0dc445eb1ba4c45a8ce1a1ef61c7fa3d3211",
      "blockNumber": "0x175c7122",
      "gasUsed": "0xff7f",
      "effectiveGasPrice": "0x2fed0b0",
      "from": "0x0ece75f3c36f7df2136dac7633165dbff53de3cd",
      "to": "0x1a44076050125825900e736c501f859c50fe728c",
      "contractAddress": null,
      "gasUsedForL1": "0x3de",
      "l1BlockNumber": "0x16886a7",
      "timeboosted": false
    },
    {
      "status": "0x1",
      "cumulativeGasUsed": "0x14348c",
      "logs": [
        {
          "address": "0x1a44076050125825900e736c501f859c50fe728c",
          "topics": [
            "0xcd6f92f5ac6185a5acfa02c92090746cec64d777269cbcd0ed031e396657a1c2"
          ],
          "data": "0x000000000000000000000000d506b22a6b3216b736021fa262d0f5d686e07b35000000000000000000000000000000000000000000000000000000000000759e0000000000000000000000007b9e184e07a6ee1ac23eae0fe8d6be2f663f05e6",
          "blockHash": "0xe7a8291e090f2d65744613af5d5fcf153d43c1f86157c0178adee5b6130d7bb2",
          "blockNumber": "0x175c712c",
          "transactionHash": "0xff4a0b3a41b7405fb77cb9cdaec5b2bce7a7737974e8b0e3c4ecafcfe7ec8b30",
          "transactionIndex": "0xf",
          "logIndex": "0xe",
          "removed": false
        },
        {
          "address": "0x1a44076050125825900e736c501f859c50fe728c",
          "topics": [
            "0x4e0a5bbfa0c11a64effb1ada324b5437a17272e1aed9320398715ef71bb20928"
          ],
          "data": "0x000000000000000000000000d506b22a6b3216b736021fa262d0f5d686e07b35000000000000000000000000000000000000000000000000000000000000759e00000000000000000000000000000000000000000000000000000000000000000000000000000000000000000000000000000000000000000000000000000000",
          "blockHash": "0xe7a8291e090f2d65744613af5d5fcf153d43c1f86157c0178adee5b6130d7bb2",
          "blockNumber": "0x175c712c",
          "transactionHash": "0xff4a0b3a41b7405fb77cb9cdaec5b2bce7a7737974e8b0e3c4ecafcfe7ec8b30",
          "transactionIndex": "0xf",
          "logIndex": "0xf",
          "removed": false
        }
      ],
      "logsBloom": "0x00000000000000000000020800000000000000000000000000000000001000020400000000000000000000000000000000000000000000000000000000000000000000000000000000000000000000000000000000800000000000000000000000000000000000000000000000000000000000000010000000000000000000100000000000000000000000000000000000000000000000000000000000000000000000000000000000000000000000000000000000000000000000000000000000000000000000000000000000000000000000000000000000000000000000000000000000000000000000000000000000000000010000000000000000000000",
      "type": "0x2",
      "transactionHash": "0xff4a0b3a41b7405fb77cb9cdaec5b2bce7a7737974e8b0e3c4ecafcfe7ec8b30",
      "transactionIndex": "0xf",
      "blockHash": "0xe7a8291e090f2d65744613af5d5fcf153d43c1f86157c0178adee5b6130d7bb2",
      "blockNumber": "0x175c712c",
      "gasUsed": "0xff76",
      "effectiveGasPrice": "0x305c208",
      "from": "0x0ece75f3c36f7df2136dac7633165dbff53de3cd",
      "to": "0x1a44076050125825900e736c501f859c50fe728c",
      "contractAddress": null,
      "gasUsedForL1": "0x3d5",
      "l1BlockNumber": "0x16886a7",
      "timeboosted": false
    },
    {
      "status": "0x1",
      "cumulativeGasUsed": "0xff7e",
      "logs": [
        {
          "address": "0x1a44076050125825900e736c501f859c50fe728c",
          "topics": [
            "0xcd6f92f5ac6185a5acfa02c92090746cec64d777269cbcd0ed031e396657a1c2"
          ],
          "data": "0x00000000000000000000000002a66b51fc24e08535a6cfe1e11e532d8a089212000000000000000000000000000000000000000000000000000000000000759e0000000000000000000000007b9e184e07a6ee1ac23eae0fe8d6be2f663f05e6",
          "blockHash": "0xf3cb5092010f412d58f6d1c7b02d19f1ea5604ec817c6ad0a0e0274119dcbe54",
          "blockNumber": "0x175c7134",
          "transactionHash": "0x284d2ff3c5458a404fd9d70489898025df0cf529c098e67959a126a3a0853104",
          "transactionIndex": "0x1",
          "logIndex": "0x0",
          "removed": false
        },
        {
          "address": "0x1a44076050125825900e736c501f859c50fe728c",
          "topics": [
            "0x4e0a5bbfa0c11a64effb1ada324b5437a17272e1aed9320398715ef71bb20928"
          ],
          "data": "0x00000000000000000000000002a66b51fc24e08535a6cfe1e11e532d8a089212000000000000000000000000000000000000000000000000000000000000759e00000000000000000000000000000000000000000000000000000000000000000000000000000000000000000000000000000000000000000000000000000000",
          "blockHash": "0xf3cb5092010f412d58f6d1c7b02d19f1ea5604ec817c6ad0a0e0274119dcbe54",
          "blockNumber": "0x175c7134",
          "transactionHash": "0x284d2ff3c5458a404fd9d70489898025df0cf529c098e67959a126a3a0853104",
          "transactionIndex": "0x1",
          "logIndex": "0x1",
          "removed": false
        }
      ],
      "logsBloom": "0x00000000000000000000020800000000000000000000000000000000001000020400000000000000000000000000000000000000000000000000000000000000000000000000000000000000000000000000000000800000000000000000000000000000000000000000000000000000000000000010000000000000000000100000000000000000000000000000000000000000000000000000000000000000000000000000000000000000000000000000000000000000000000000000000000000000000000000000000000000000000000000000000000000000000000000000000000000000000000000000000000000000010000000000000000000000",
      "type": "0x2",
      "transactionHash": "0x284d2ff3c5458a404fd9d70489898025df0cf529c098e67959a126a3a0853104",
      "transactionIndex": "0x1",
      "blockHash": "0xf3cb5092010f412d58f6d1c7b02d19f1ea5604ec817c6ad0a0e0274119dcbe54",
      "blockNumber": "0x175c7134",
      "gasUsed": "0xff7e",
      "effectiveGasPrice": "0x3000930",
      "from": "0x0ece75f3c36f7df2136dac7633165dbff53de3cd",
      "to": "0x1a44076050125825900e736c501f859c50fe728c",
      "contractAddress": null,
      "gasUsedForL1": "0x3dd",
      "l1BlockNumber": "0x16886a7",
      "timeboosted": false
    },
    {
      "status": "0x1",
      "cumulativeGasUsed": "0xff8f",
      "logs": [
        {
          "address": "0x1a44076050125825900e736c501f859c50fe728c",
          "topics": [
            "0xcd6f92f5ac6185a5acfa02c92090746cec64d777269cbcd0ed031e396657a1c2"
          ],
          "data": "0x000000000000000000000000c3be8ab4ca0cefe3119a765b324bbdf54a16a65b000000000000000000000000000000000000000000000000000000000000759e0000000000000000000000007b9e184e07a6ee1ac23eae0fe8d6be2f663f05e6",
          "blockHash": "0x5e191c5b93fb1776065c44c90a582418a871135471366e649c59286ca99283e3",
          "blockNumber": "0x175c7140",
          "transactionHash": "0x0afb06c6219c4a008b72d85169bcbfc5c8e7d6ba8581df1fc466c9f6fe33c775",
          "transactionIndex": "0x1",
          "logIndex": "0x0",
          "removed": false
        },
        {
          "address": "0x1a44076050125825900e736c501f859c50fe728c",
          "topics": [
            "0x4e0a5bbfa0c11a64effb1ada324b5437a17272e1aed9320398715ef71bb20928"
          ],
          "data": "0x000000000000000000000000c3be8ab4ca0cefe3119a765b324bbdf54a16a65b000000000000000000000000000000000000000000000000000000000000759e00000000000000000000000000000000000000000000000000000000000000000000000000000000000000000000000000000000000000000000000000000000",
          "blockHash": "0x5e191c5b93fb1776065c44c90a582418a871135471366e649c59286ca99283e3",
          "blockNumber": "0x175c7140",
          "transactionHash": "0x0afb06c6219c4a008b72d85169bcbfc5c8e7d6ba8581df1fc466c9f6fe33c775",
          "transactionIndex": "0x1",
          "logIndex": "0x1",
          "removed": false
        }
      ],
      "logsBloom": "0x00000000000000000000020800000000000000000000000000000000001000020400000000000000000000000000000000000000000000000000000000000000000000000000000000000000000000000000000000800000000000000000000000000000000000000000000000000000000000000010000000000000000000100000000000000000000000000000000000000000000000000000000000000000000000000000000000000000000000000000000000000000000000000000000000000000000000000000000000000000000000000000000000000000000000000000000000000000000000000000000000000000010000000000000000000000",
      "type": "0x2",
      "transactionHash": "0x0afb06c6219c4a008b72d85169bcbfc5c8e7d6ba8581df1fc466c9f6fe33c775",
      "transactionIndex": "0x1",
      "blockHash": "0x5e191c5b93fb1776065c44c90a582418a871135471366e649c59286ca99283e3",
      "blockNumber": "0x175c7140",
      "gasUsed": "0xff8f",
      "effectiveGasPrice": "0x2ef82b8",
      "from": "0x0ece75f3c36f7df2136dac7633165dbff53de3cd",
      "to": "0x1a44076050125825900e736c501f859c50fe728c",
      "contractAddress": null,
      "gasUsedForL1": "0x3ee",
      "l1BlockNumber": "0x16886a7",
      "timeboosted": false
    },
    {
      "status": "0x1",
      "cumulativeGasUsed": "0x4a51b",
      "logs": [
        {
          "address": "0x975bcd720be66659e3eb3c0e4f1866a3020e493a",
          "topics": [
            "0x779cb2dd9d2bb1be1737d05435d744facbfb84a2a4912e21379d39beddcdc805"
          ],
          "data": "0x000000000000000000000000ebb7a56fd2d0231a9bf7240542cbd09a641a29fc000000000000000000000000000000000000000000000000000000000000759e000000000000000000000000000000000000000000000000000000000000271000000000000000000000000031cae3b7fb82d847621859fb1585353c5720660d",
          "blockHash": "0x8ecc77fc3cf5051f63a0d2339d7880ac8f664f4f3a5e14a484a2b992ae3ed5cf",
          "blockNumber": "0x175c714a",
          "transactionHash": "0x72eae8afaf0f4182682ece58d0a861021f34ddb82f1c6ad6ea27855bdc3835ae",
          "transactionIndex": "0x1",
          "logIndex": "0x0",
          "removed": false
        },
        {
          "address": "0x975bcd720be66659e3eb3c0e4f1866a3020e493a",
          "topics": [
            "0x82118522aa536ac0e96cc5c689407ae42b89d592aa133890a01f1509842f5081"
          ],
          "data": "0x000000000000000000000000ebb7a56fd2d0231a9bf7240542cbd09a641a29fc000000000000000000000000000000000000000000000000000000000000759e0000000000000000000000000000000000000000000000000000000000000060000000000000000000000000000000000000000000000000000000000000000f000000000000000000000000000000000000000000000000000000000000000200000000000000000000000000000000000000000000000000000000000000ff000000000000000000000000000000000000000000000000000000000000000000000000000000000000000000000000000000000000000000000000000000c00000000000000000000000000000000000000000000000000000000000000120000000000000000000000000000000000000000000000000000000000000000200000000000000000000000019670df5e16bea2ba9b9e68b48c054c5baea06b8000000000000000000000000f2e380c90e6c09721297526dbc74f870e114dfcb0000000000000000000000000000000000000000000000000000000000000000",
          "blockHash": "0x8ecc77fc3cf5051f63a0d2339d7880ac8f664f4f3a5e14a484a2b992ae3ed5cf",
          "blockNumber": "0x175c714a",
          "transactionHash": "0x72eae8afaf0f4182682ece58d0a861021f34ddb82f1c6ad6ea27855bdc3835ae",
          "transactionIndex": "0x1",
          "logIndex": "0x1",
          "removed": false
        },
        {
          "address": "0x975bcd720be66659e3eb3c0e4f1866a3020e493a",
          "topics": [
            "0x779cb2dd9d2bb1be1737d05435d744facbfb84a2a4912e21379d39beddcdc805"
          ],
          "data": "0x000000000000000000000000ebb7a56fd2d0231a9bf7240542cbd09a641a29fc00000000000000000000000000000000000000000000000000000000000075e8000000000000000000000000000000000000000000000000000000000000271000000000000000000000000031cae3b7fb82d847621859fb1585353c5720660d",
          "blockHash": "0x8ecc77fc3cf5051f63a0d2339d7880ac8f664f4f3a5e14a484a2b992ae3ed5cf",
          "blockNumber": "0x175c714a",
          "transactionHash": "0x72eae8afaf0f4182682ece58d0a861021f34ddb82f1c6ad6ea27855bdc3835ae",
          "transactionIndex": "0x1",
          "logIndex": "0x2",
          "removed": false
        },
        {
          "address": "0x975bcd720be66659e3eb3c0e4f1866a3020e493a",
          "topics": [
            "0x82118522aa536ac0e96cc5c689407ae42b89d592aa133890a01f1509842f5081"
          ],
          "data": "0x000000000000000000000000ebb7a56fd2d0231a9bf7240542cbd09a641a29fc00000000000000000000000000000000000000000000000000000000000075e80000000000000000000000000000000000000000000000000000000000000060000000000000000000000000000000000000000000000000000000000000000f000000000000000000000000000000000000000000000000000000000000000200000000000000000000000000000000000000000000000000000000000000ff000000000000000000000000000000000000000000000000000000000000000000000000000000000000000000000000000000000000000000000000000000c00000000000000000000000000000000000000000000000000000000000000120000000000000000000000000000000000000000000000000000000000000000200000000000000000000000019670df5e16bea2ba9b9e68b48c054c5baea06b8000000000000000000000000f2e380c90e6c09721297526dbc74f870e114dfcb0000000000000000000000000000000000000000000000000000000000000000",
          "blockHash": "0x8ecc77fc3cf5051f63a0d2339d7880ac8f664f4f3a5e14a484a2b992ae3ed5cf",
          "blockNumber": "0x175c714a",
          "transactionHash": "0x72eae8afaf0f4182682ece58d0a861021f34ddb82f1c6ad6ea27855bdc3835ae",
          "transactionIndex": "0x1",
          "logIndex": "0x3",
          "removed": false
        }
      ],
      "logsBloom": "0x00000000000000000000000000000000000000000000000000000000000000000000000000000000000000000000000000000000000400000000000000000000000000000000000000000040000000000000000000000000002000000000000000000000000800000000000000000000000000000000000000000000000000000000000000000000000000000000000000000000000000000000000000000000000000000000000000000002000000000000000000000000000000000000008200000000000000000000000000000000000000000000000000000000000000000008000000000000000000000000000000000000000000000000000000000010",
      "type": "0x2",
      "transactionHash": "0x72eae8afaf0f4182682ece58d0a861021f34ddb82f1c6ad6ea27855bdc3835ae",
      "transactionIndex": "0x1",
      "blockHash": "0x8ecc77fc3cf5051f63a0d2339d7880ac8f664f4f3a5e14a484a2b992ae3ed5cf",
      "blockNumber": "0x175c714a",
      "gasUsed": "0x4a51b",
      "effectiveGasPrice": "0x2e739a0",
      "from": "0x0ece75f3c36f7df2136dac7633165dbff53de3cd",
      "to": "0x1a44076050125825900e736c501f859c50fe728c",
      "contractAddress": null,
      "gasUsedForL1": "0x737",
      "l1BlockNumber": "0x16886a7",
      "timeboosted": false
    },
    {
      "status": "0x1",
      "cumulativeGasUsed": "0xa8b83",
      "logs": [
        {
          "address": "0x975bcd720be66659e3eb3c0e4f1866a3020e493a",
          "topics": [
            "0x779cb2dd9d2bb1be1737d05435d744facbfb84a2a4912e21379d39beddcdc805"
          ],
          "data": "0x00000000000000000000000067165c24a886aaaf1bfa81934e44a2063c6b608c000000000000000000000000000000000000000000000000000000000000759e000000000000000000000000000000000000000000000000000000000000271000000000000000000000000031cae3b7fb82d847621859fb1585353c5720660d",
          "blockHash": "0xb948eafab810c0eae6d830953c253578e6895cb60475b40cd78a182e735ecc94",
          "blockNumber": "0x175c7152",
          "transactionHash": "0x62af5f4ca73b47e373ecff20576133db6d8318fdc8cd24eee4dbf92925ad4bc9",
          "transactionIndex": "0x3",
          "logIndex": "0xb",
          "removed": false
        },
        {
          "address": "0x975bcd720be66659e3eb3c0e4f1866a3020e493a",
          "topics": [
            "0x82118522aa536ac0e96cc5c689407ae42b89d592aa133890a01f1509842f5081"
          ],
          "data": "0x00000000000000000000000067165c24a886aaaf1bfa81934e44a2063c6b608c000000000000000000000000000000000000000000000000000000000000759e0000000000000000000000000000000000000000000000000000000000000060000000000000000000000000000000000000000000000000000000000000000f000000000000000000000000000000000000000000000000000000000000000200000000000000000000000000000000000000000000000000000000000000ff000000000000000000000000000000000000000000000000000000000000000000000000000000000000000000000000000000000000000000000000000000c00000000000000000000000000000000000000000000000000000000000000120000000000000000000000000000000000000000000000000000000000000000200000000000000000000000019670df5e16bea2ba9b9e68b48c054c5baea06b8000000000000000000000000f2e380c90e6c09721297526dbc74f870e114dfcb0000000000000000000000000000000000000000000000000000000000000000",
          "blockHash": "0xb948eafab810c0eae6d830953c253578e6895cb60475b40cd78a182e735ecc94",
          "blockNumber": "0x175c7152",
          "transactionHash": "0x62af5f4ca73b47e373ecff20576133db6d8318fdc8cd24eee4dbf92925ad4bc9",
          "transactionIndex": "0x3",
          "logIndex": "0xc",
          "removed": false
        },
        {
          "address": "0x975bcd720be66659e3eb3c0e4f1866a3020e493a",
          "topics": [
            "0x779cb2dd9d2bb1be1737d05435d744facbfb84a2a4912e21379d39beddcdc805"
          ],
          "data": "0x00000000000000000000000067165c24a886aaaf1bfa81934e44a2063c6b608c00000000000000000000000000000000000000000000000000000000000075e8000000000000000000000000000000000000000000000000000000000000271000000000000000000000000031cae3b7fb82d847621859fb1585353c5720660d",
          "blockHash": "0xb948eafab810c0eae6d830953c253578e6895cb60475b40cd78a182e735ecc94",
          "blockNumber": "0x175c7152",
          "transactionHash": "0x62af5f4ca73b47e373ecff20576133db6d8318fdc8cd24eee4dbf92925ad4bc9",
          "transactionIndex": "0x3",
          "logIndex": "0xd",
          "removed": false
        },
        {
          "address": "0x975bcd720be66659e3eb3c0e4f1866a3020e493a",
          "topics": [
            "0x82118522aa536ac0e96cc5c689407ae42b89d592aa133890a01f1509842f5081"
          ],
          "data": "0x00000000000000000000000067165c24a886aaaf1bfa81934e44a2063c6b608c00000000000000000000000000000000000000000000000000000000000075e80000000000000000000000000000000000000000000000000000000000000060000000000000000000000000000000000000000000000000000000000000000f000000000000000000000000000000000000000000000000000000000000000200000000000000000000000000000000000000000000000000000000000000ff000000000000000000000000000000000000000000000000000000000000000000000000000000000000000000000000000000000000000000000000000000c00000000000000000000000000000000000000000000000000000000000000120000000000000000000000000000000000000000000000000000000000000000200000000000000000000000019670df5e16bea2ba9b9e68b48c054c5baea06b8000000000000000000000000f2e380c90e6c09721297526dbc74f870e114dfcb0000000000000000000000000000000000000000000000000000000000000000",
          "blockHash": "0xb948eafab810c0eae6d830953c253578e6895cb60475b40cd78a182e735ecc94",
          "blockNumber": "0x175c7152",
          "transactionHash": "0x62af5f4ca73b47e373ecff20576133db6d8318fdc8cd24eee4dbf92925ad4bc9",
          "transactionIndex": "0x3",
          "logIndex": "0xe",
          "removed": false
        }
      ],
      "logsBloom": "0x00000000000000000000000000000000000000000000000000000000000000000000000000000000000000000000000000000000000400000000000000000000000000000000000000000040000000000000000000000000002000000000000000000000000800000000000000000000000000000000000000000000000000000000000000000000000000000000000000000000000000000000000000000000000000000000000000000002000000000000000000000000000000000000008200000000000000000000000000000000000000000000000000000000000000000008000000000000000000000000000000000000000000000000000000000010",
      "type": "0x2",
      "transactionHash": "0x62af5f4ca73b47e373ecff20576133db6d8318fdc8cd24eee4dbf92925ad4bc9",
      "transactionIndex": "0x3",
      "blockHash": "0xb948eafab810c0eae6d830953c253578e6895cb60475b40cd78a182e735ecc94",
      "blockNumber": "0x175c7152",
      "gasUsed": "0x4a4fe",
      "effectiveGasPrice": "0x2f4ed70",
      "from": "0x0ece75f3c36f7df2136dac7633165dbff53de3cd",
      "to": "0x1a44076050125825900e736c501f859c50fe728c",
      "contractAddress": null,
      "gasUsedForL1": "0x71a",
      "l1BlockNumber": "0x16886a7",
      "timeboosted": false
    },
    {
      "status": "0x1",
      "cumulativeGasUsed": "0x39dc78",
      "logs": [
        {
          "address": "0x975bcd720be66659e3eb3c0e4f1866a3020e493a",
          "topics": [
            "0x779cb2dd9d2bb1be1737d05435d744facbfb84a2a4912e21379d39beddcdc805"
          ],
          "data": "0x000000000000000000000000a85c480f229fac050ecc53faede343628bc242cb000000000000000000000000000000000000000000000000000000000000759e000000000000000000000000000000000000000000000000000000000000271000000000000000000000000031cae3b7fb82d847621859fb1585353c5720660d",
          "blockHash": "0x38c1275ef6cdc6a9a96430c78d868b4ff6d6cc5431c5d380cbaa74e23a50012e",
          "blockNumber": "0x175c7157",
          "transactionHash": "0x28a04c653b07f31f82bf3616b05173d9c6e103a4495860be862b6546e92e4ac4",
          "transactionIndex": "0x2",
          "logIndex": "0x20",
          "removed": false
        },
        {
          "address": "0x975bcd720be66659e3eb3c0e4f1866a3020e493a",
          "topics": [
            "0x82118522aa536ac0e96cc5c689407ae42b89d592aa133890a01f1509842f5081"
          ],
          "data": "0x000000000000000000000000a85c480f229fac050ecc53faede343628bc242cb000000000000000000000000000000000000000000000000000000000000759e0000000000000000000000000000000000000000000000000000000000000060000000000000000000000000000000000000000000000000000000000000000f000000000000000000000000000000000000000000000000000000000000000200000000000000000000000000000000000000000000000000000000000000ff000000000000000000000000000000000000000000000000000000000000000000000000000000000000000000000000000000000000000000000000000000c00000000000000000000000000000000000000000000000000000000000000120000000000000000000000000000000000000000000000000000000000000000200000000000000000000000019670df5e16bea2ba9b9e68b48c054c5baea06b8000000000000000000000000f2e380c90e6c09721297526dbc74f870e114dfcb0000000000000000000000000000000000000000000000000000000000000000",
          "blockHash": "0x38c1275ef6cdc6a9a96430c78d868b4ff6d6cc5431c5d380cbaa74e23a50012e",
          "blockNumber": "0x175c7157",
          "transactionHash": "0x28a04c653b07f31f82bf3616b05173d9c6e103a4495860be862b6546e92e4ac4",
          "transactionIndex": "0x2",
          "logIndex": "0x21",
          "removed": false
        },
        {
          "address": "0x975bcd720be66659e3eb3c0e4f1866a3020e493a",
          "topics": [
            "0x779cb2dd9d2bb1be1737d05435d744facbfb84a2a4912e21379d39beddcdc805"
          ],
          "data": "0x000000000000000000000000a85c480f229fac050ecc53faede343628bc242cb00000000000000000000000000000000000000000000000000000000000075e8000000000000000000000000000000000000000000000000000000000000271000000000000000000000000031cae3b7fb82d847621859fb1585353c5720660d",
          "blockHash": "0x38c1275ef6cdc6a9a96430c78d868b4ff6d6cc5431c5d380cbaa74e23a50012e",
          "blockNumber": "0x175c7157",
          "transactionHash": "0x28a04c653b07f31f82bf3616b05173d9c6e103a4495860be862b6546e92e4ac4",
          "transactionIndex": "0x2",
          "logIndex": "0x22",
          "removed": false
        },
        {
          "address": "0x975bcd720be66659e3eb3c0e4f1866a3020e493a",
          "topics": [
            "0x82118522aa536ac0e96cc5c689407ae42b89d592aa133890a01f1509842f5081"
          ],
          "data": "0x000000000000000000000000a85c480f229fac050ecc53faede343628bc242cb00000000000000000000000000000000000000000000000000000000000075e80000000000000000000000000000000000000000000000000000000000000060000000000000000000000000000000000000000000000000000000000000000f000000000000000000000000000000000000000000000000000000000000000200000000000000000000000000000000000000000000000000000000000000ff000000000000000000000000000000000000000000000000000000000000000000000000000000000000000000000000000000000000000000000000000000c00000000000000000000000000000000000000000000000000000000000000120000000000000000000000000000000000000000000000000000000000000000200000000000000000000000019670df5e16bea2ba9b9e68b48c054c5baea06b8000000000000000000000000f2e380c90e6c09721297526dbc74f870e114dfcb0000000000000000000000000000000000000000000000000000000000000000",
          "blockHash": "0x38c1275ef6cdc6a9a96430c78d868b4ff6d6cc5431c5d380cbaa74e23a50012e",
          "blockNumber": "0x175c7157",
          "transactionHash": "0x28a04c653b07f31f82bf3616b05173d9c6e103a4495860be862b6546e92e4ac4",
          "transactionIndex": "0x2",
          "logIndex": "0x23",
          "removed": false
        }
      ],
      "logsBloom": "0x00000000000000000000000000000000000000000000000000000000000000000000000000000000000000000000000000000000000400000000000000000000000000000000000000000040000000000000000000000000002000000000000000000000000800000000000000000000000000000000000000000000000000000000000000000000000000000000000000000000000000000000000000000000000000000000000000000002000000000000000000000000000000000000008200000000000000000000000000000000000000000000000000000000000000000008000000000000000000000000000000000000000000000000000000000010",
      "type": "0x2",
      "transactionHash": "0x28a04c653b07f31f82bf3616b05173d9c6e103a4495860be862b6546e92e4ac4",
      "transactionIndex": "0x2",
      "blockHash": "0x38c1275ef6cdc6a9a96430c78d868b4ff6d6cc5431c5d380cbaa74e23a50012e",
      "blockNumber": "0x175c7157",
      "gasUsed": "0x4a510",
      "effectiveGasPrice": "0x2f28ff8",
      "from": "0x0ece75f3c36f7df2136dac7633165dbff53de3cd",
      "to": "0x1a44076050125825900e736c501f859c50fe728c",
      "contractAddress": null,
      "gasUsedForL1": "0x72c",
      "l1BlockNumber": "0x16886a7",
      "timeboosted": false
    },
    {
      "status": "0x1",
      "cumulativeGasUsed": "0x684cdb",
      "logs": [
        {
          "address": "0x975bcd720be66659e3eb3c0e4f1866a3020e493a",
          "topics": [
            "0x779cb2dd9d2bb1be1737d05435d744facbfb84a2a4912e21379d39beddcdc805"
          ],
          "data": "0x000000000000000000000000eb36aa674745c48381aa3a8074e5485586dbd308000000000000000000000000000000000000000000000000000000000000759e000000000000000000000000000000000000000000000000000000000000271000000000000000000000000031cae3b7fb82d847621859fb1585353c5720660d",
          "blockHash": "0x12cc300e923fe2f7e2896ff47e62a83a6937556cf82f7e08da600f9260a7d260",
          "blockNumber": "0x175c715c",
          "transactionHash": "0xf336352ddaecfe58a437dac10e1c40c78c2bc490b64d16231ad9d24276af2c62",
          "transactionIndex": "0x5",
          "logIndex": "0x5a",
          "removed": false
        },
        {
          "address": "0x975bcd720be66659e3eb3c0e4f1866a3020e493a",
          "topics": [
            "0x82118522aa536ac0e96cc5c689407ae42b89d592aa133890a01f1509842f5081"
          ],
          "data": "0x000000000000000000000000eb36aa674745c48381aa3a8074e5485586dbd308000000000000000000000000000000000000000000000000000000000000759e0000000000000000000000000000000000000000000000000000000000000060000000000000000000000000000000000000000000000000000000000000000f000000000000000000000000000000000000000000000000000000000000000200000000000000000000000000000000000000000000000000000000000000ff000000000000000000000000000000000000000000000000000000000000000000000000000000000000000000000000000000000000000000000000000000c00000000000000000000000000000000000000000000000000000000000000120000000000000000000000000000000000000000000000000000000000000000200000000000000000000000019670df5e16bea2ba9b9e68b48c054c5baea06b8000000000000000000000000f2e380c90e6c09721297526dbc74f870e114dfcb0000000000000000000000000000000000000000000000000000000000000000",
          "blockHash": "0x12cc300e923fe2f7e2896ff47e62a83a6937556cf82f7e08da600f9260a7d260",
          "blockNumber": "0x175c715c",
          "transactionHash": "0xf336352ddaecfe58a437dac10e1c40c78c2bc490b64d16231ad9d24276af2c62",
          "transactionIndex": "0x5",
          "logIndex": "0x5b",
          "removed": false
        },
        {
          "address": "0x975bcd720be66659e3eb3c0e4f1866a3020e493a",
          "topics": [
            "0x779cb2dd9d2bb1be1737d05435d744facbfb84a2a4912e21379d39beddcdc805"
          ],
          "data": "0x000000000000000000000000eb36aa674745c48381aa3a8074e5485586dbd30800000000000000000000000000000000000000000000000000000000000075e8000000000000000000000000000000000000000000000000000000000000271000000000000000000000000031cae3b7fb82d847621859fb1585353c5720660d",
          "blockHash": "0x12cc300e923fe2f7e2896ff47e62a83a6937556cf82f7e08da600f9260a7d260",
          "blockNumber": "0x175c715c",
          "transactionHash": "0xf336352ddaecfe58a437dac10e1c40c78c2bc490b64d16231ad9d24276af2c62",
          "transactionIndex": "0x5",
          "logIndex": "0x5c",
          "removed": false
        },
        {
          "address": "0x975bcd720be66659e3eb3c0e4f1866a3020e493a",
          "topics": [
            "0x82118522aa536ac0e96cc5c689407ae42b89d592aa133890a01f1509842f5081"
          ],
          "data": "0x000000000000000000000000eb36aa674745c48381aa3a8074e5485586dbd30800000000000000000000000000000000000000000000000000000000000075e80000000000000000000000000000000000000000000000000000000000000060000000000000000000000000000000000000000000000000000000000000000f000000000000000000000000000000000000000000000000000000000000000200000000000000000000000000000000000000000000000000000000000000ff000000000000000000000000000000000000000000000000000000000000000000000000000000000000000000000000000000000000000000000000000000c00000000000000000000000000000000000000000000000000000000000000120000000000000000000000000000000000000000000000000000000000000000200000000000000000000000019670df5e16bea2ba9b9e68b48c054c5baea06b8000000000000000000000000f2e380c90e6c09721297526dbc74f870e114dfcb0000000000000000000000000000000000000000000000000000000000000000",
          "blockHash": "0x12cc300e923fe2f7e2896ff47e62a83a6937556cf82f7e08da600f9260a7d260",
          "blockNumber": "0x175c715c",
          "transactionHash": "0xf336352ddaecfe58a437dac10e1c40c78c2bc490b64d16231ad9d24276af2c62",
          "transactionIndex": "0x5",
          "logIndex": "0x5d",
          "removed": false
        }
      ],
      "logsBloom": "0x00000000000000000000000000000000000000000000000000000000000000000000000000000000000000000000000000000000000400000000000000000000000000000000000000000040000000000000000000000000002000000000000000000000000800000000000000000000000000000000000000000000000000000000000000000000000000000000000000000000000000000000000000000000000000000000000000000002000000000000000000000000000000000000008200000000000000000000000000000000000000000000000000000000000000000008000000000000000000000000000000000000000000000000000000000010",
      "type": "0x2",
      "transactionHash": "0xf336352ddaecfe58a437dac10e1c40c78c2bc490b64d16231ad9d24276af2c62",
      "transactionIndex": "0x5",
      "blockHash": "0x12cc300e923fe2f7e2896ff47e62a83a6937556cf82f7e08da600f9260a7d260",
      "blockNumber": "0x175c715c",
      "gasUsed": "0x4a4fb",
      "effectiveGasPrice": "0x2f2bed8",
      "from": "0x0ece75f3c36f7df2136dac7633165dbff53de3cd",
      "to": "0x1a44076050125825900e736c501f859c50fe728c",
      "contractAddress": null,
      "gasUsedForL1": "0x717",
      "l1BlockNumber": "0x16886a7",
      "timeboosted": false
    },
    {
      "status": "0x1",
      "cumulativeGasUsed": "0x552fb",
      "logs": [
        {
          "address": "0x975bcd720be66659e3eb3c0e4f1866a3020e493a",
          "topics": [
            "0x779cb2dd9d2bb1be1737d05435d744facbfb84a2a4912e21379d39beddcdc805"
          ],
          "data": "0x000000000000000000000000d506b22a6b3216b736021fa262d0f5d686e07b35000000000000000000000000000000000000000000000000000000000000759e000000000000000000000000000000000000000000000000000000000000271000000000000000000000000031cae3b7fb82d847621859fb1585353c5720660d",
          "blockHash": "0x6d203fe83b4d6f2ce96aa41dae9514ef91469e3e5132231eec16fd58538bf030",
          "blockNumber": "0x175c7168",
          "transactionHash": "0x4dd6fe431762ba480d0c73559ed00e52bb7805e7a1d1b1dfe651ff9276428931",
          "transactionIndex": "0x2",
          "logIndex": "0x0",
          "removed": false
        },
        {
          "address": "0x975bcd720be66659e3eb3c0e4f1866a3020e493a",
          "topics": [
            "0x82118522aa536ac0e96cc5c689407ae42b89d592aa133890a01f1509842f5081"
          ],
          "data": "0x000000000000000000000000d506b22a6b3216b736021fa262d0f5d686e07b35000000000000000000000000000000000000000000000000000000000000759e0000000000000000000000000000000000000000000000000000000000000060000000000000000000000000000000000000000000000000000000000000000f000000000000000000000000000000000000000000000000000000000000000200000000000000000000000000000000000000000000000000000000000000ff000000000000000000000000000000000000000000000000000000000000000000000000000000000000000000000000000000000000000000000000000000c00000000000000000000000000000000000000000000000000000000000000120000000000000000000000000000000000000000000000000000000000000000200000000000000000000000019670df5e16bea2ba9b9e68b48c054c5baea06b8000000000000000000000000f2e380c90e6c09721297526dbc74f870e114dfcb0000000000000000000000000000000000000000000000000000000000000000",
          "blockHash": "0x6d203fe83b4d6f2ce96aa41dae9514ef91469e3e5132231eec16fd58538bf030",
          "blockNumber": "0x175c7168",
          "transactionHash": "0x4dd6fe431762ba480d0c73559ed00e52bb7805e7a1d1b1dfe651ff9276428931",
          "transactionIndex": "0x2",
          "logIndex": "0x1",
          "removed": false
        },
        {
          "address": "0x975bcd720be66659e3eb3c0e4f1866a3020e493a",
          "topics": [
            "0x779cb2dd9d2bb1be1737d05435d744facbfb84a2a4912e21379d39beddcdc805"
          ],
          "data": "0x000000000000000000000000d506b22a6b3216b736021fa262d0f5d686e07b3500000000000000000000000000000000000000000000000000000000000075e8000000000000000000000000000000000000000000000000000000000000271000000000000000000000000031cae3b7fb82d847621859fb1585353c5720660d",
          "blockHash": "0x6d203fe83b4d6f2ce96aa41dae9514ef91469e3e5132231eec16fd58538bf030",
          "blockNumber": "0x175c7168",
          "transactionHash": "0x4dd6fe431762ba480d0c73559ed00e52bb7805e7a1d1b1dfe651ff9276428931",
          "transactionIndex": "0x2",
          "logIndex": "0x2",
          "removed": false
        },
        {
          "address": "0x975bcd720be66659e3eb3c0e4f1866a3020e493a",
          "topics": [
            "0x82118522aa536ac0e96cc5c689407ae42b89d592aa133890a01f1509842f5081"
          ],
          "data": "0x000000000000000000000000d506b22a6b3216b736021fa262d0f5d686e07b3500000000000000000000000000000000000000000000000000000000000075e80000000000000000000000000000000000000000000000000000000000000060000000000000000000000000000000000000000000000000000000000000000f000000000000000000000000000000000000000000000000000000000000000200000000000000000000000000000000000000000000000000000000000000ff000000000000000000000000000000000000000000000000000000000000000000000000000000000000000000000000000000000000000000000000000000c00000000000000000000000000000000000000000000000000000000000000120000000000000000000000000000000000000000000000000000000000000000200000000000000000000000019670df5e16bea2ba9b9e68b48c054c5baea06b8000000000000000000000000f2e380c90e6c09721297526dbc74f870e114dfcb0000000000000000000000000000000000000000000000000000000000000000",
          "blockHash": "0x6d203fe83b4d6f2ce96aa41dae9514ef91469e3e5132231eec16fd58538bf030",
          "blockNumber": "0x175c7168",
          "transactionHash": "0x4dd6fe431762ba480d0c73559ed00e52bb7805e7a1d1b1dfe651ff9276428931",
          "transactionIndex": "0x2",
          "logIndex": "0x3",
          "removed": false
        }
      ],
      "logsBloom": "0x00000000000000000000000000000000000000000000000000000000000000000000000000000000000000000000000000000000000400000000000000000000000000000000000000000040000000000000000000000000002000000000000000000000000800000000000000000000000000000000000000000000000000000000000000000000000000000000000000000000000000000000000000000000000000000000000000000002000000000000000000000000000000000000008200000000000000000000000000000000000000000000000000000000000000000008000000000000000000000000000000000000000000000000000000000010",
      "type": "0x2",
      "transactionHash": "0x4dd6fe431762ba480d0c73559ed00e52bb7805e7a1d1b1dfe651ff9276428931",
      "transactionIndex": "0x2",
      "blockHash": "0x6d203fe83b4d6f2ce96aa41dae9514ef91469e3e5132231eec16fd58538bf030",
      "blockNumber": "0x175c7168",
      "gasUsed": "0x4a512",
      "effectiveGasPrice": "0x2ec9c88",
      "from": "0x0ece75f3c36f7df2136dac7633165dbff53de3cd",
      "to": "0x1a44076050125825900e736c501f859c50fe728c",
      "contractAddress": null,
      "gasUsedForL1": "0x72e",
      "l1BlockNumber": "0x16886a8",
      "timeboosted": false
    },
    {
      "status": "0x1",
      "cumulativeGasUsed": "0x20944c",
      "logs": [
        {
          "address": "0x975bcd720be66659e3eb3c0e4f1866a3020e493a",
          "topics": [
            "0x779cb2dd9d2bb1be1737d05435d744facbfb84a2a4912e21379d39beddcdc805"
          ],
          "data": "0x00000000000000000000000002a66b51fc24e08535a6cfe1e11e532d8a089212000000000000000000000000000000000000000000000000000000000000759e000000000000000000000000000000000000000000000000000000000000271000000000000000000000000031cae3b7fb82d847621859fb1585353c5720660d",
          "blockHash": "0x277f91ffc1bc8f9c0da643309db7913ca3db1454e982a386104a5b837fca5646",
          "blockNumber": "0x175c716d",
          "transactionHash": "0x5cd2e0f42f997fb74224d99430f53a4ff6ab1210fd618ddaa0b9284c3d77df71",
          "transactionIndex": "0x3",
          "logIndex": "0x0",
          "removed": false
        },
        {
          "address": "0x975bcd720be66659e3eb3c0e4f1866a3020e493a",
          "topics": [
            "0x82118522aa536ac0e96cc5c689407ae42b89d592aa133890a01f1509842f5081"
          ],
          "data": "0x00000000000000000000000002a66b51fc24e08535a6cfe1e11e532d8a089212000000000000000000000000000000000000000000000000000000000000759e0000000000000000000000000000000000000000000000000000000000000060000000000000000000000000000000000000000000000000000000000000000f000000000000000000000000000000000000000000000000000000000000000200000000000000000000000000000000000000000000000000000000000000ff000000000000000000000000000000000000000000000000000000000000000000000000000000000000000000000000000000000000000000000000000000c00000000000000000000000000000000000000000000000000000000000000120000000000000000000000000000000000000000000000000000000000000000200000000000000000000000019670df5e16bea2ba9b9e68b48c054c5baea06b8000000000000000000000000f2e380c90e6c09721297526dbc74f870e114dfcb0000000000000000000000000000000000000000000000000000000000000000",
          "blockHash": "0x277f91ffc1bc8f9c0da643309db7913ca3db1454e982a386104a5b837fca5646",
          "blockNumber": "0x175c716d",
          "transactionHash": "0x5cd2e0f42f997fb74224d99430f53a4ff6ab1210fd618ddaa0b9284c3d77df71",
          "transactionIndex": "0x3",
          "logIndex": "0x1",
          "removed": false
        },
        {
          "address": "0x975bcd720be66659e3eb3c0e4f1866a3020e493a",
          "topics": [
            "0x779cb2dd9d2bb1be1737d05435d744facbfb84a2a4912e21379d39beddcdc805"
          ],
          "data": "0x00000000000000000000000002a66b51fc24e08535a6cfe1e11e532d8a08921200000000000000000000000000000000000000000000000000000000000075e8000000000000000000000000000000000000000000000000000000000000271000000000000000000000000031cae3b7fb82d847621859fb1585353c5720660d",
          "blockHash": "0x277f91ffc1bc8f9c0da643309db7913ca3db1454e982a386104a5b837fca5646",
          "blockNumber": "0x175c716d",
          "transactionHash": "0x5cd2e0f42f997fb74224d99430f53a4ff6ab1210fd618ddaa0b9284c3d77df71",
          "transactionIndex": "0x3",
          "logIndex": "0x2",
          "removed": false
        },
        {
          "address": "0x975bcd720be66659e3eb3c0e4f1866a3020e493a",
          "topics": [
            "0x82118522aa536ac0e96cc5c689407ae42b89d592aa133890a01f1509842f5081"
          ],
          "data": "0x00000000000000000000000002a66b51fc24e08535a6cfe1e11e532d8a08921200000000000000000000000000000000000000000000000000000000000075e80000000000000000000000000000000000000000000000000000000000000060000000000000000000000000000000000000000000000000000000000000000f000000000000000000000000000000000000000000000000000000000000000200000000000000000000000000000000000000000000000000000000000000ff000000000000000000000000000000000000000000000000000000000000000000000000000000000000000000000000000000000000000000000000000000c00000000000000000000000000000000000000000000000000000000000000120000000000000000000000000000000000000000000000000000000000000000200000000000000000000000019670df5e16bea2ba9b9e68b48c054c5baea06b8000000000000000000000000f2e380c90e6c09721297526dbc74f870e114dfcb0000000000000000000000000000000000000000000000000000000000000000",
          "blockHash": "0x277f91ffc1bc8f9c0da643309db7913ca3db1454e982a386104a5b837fca5646",
          "blockNumber": "0x175c716d",
          "transactionHash": "0x5cd2e0f42f997fb74224d99430f53a4ff6ab1210fd618ddaa0b9284c3d77df71",
          "transactionIndex": "0x3",
          "logIndex": "0x3",
          "removed": false
        }
      ],
      "logsBloom": "0x00000000000000000000000000000000000000000000000000000000000000000000000000000000000000000000000000000000000400000000000000000000000000000000000000000040000000000000000000000000002000000000000000000000000800000000000000000000000000000000000000000000000000000000000000000000000000000000000000000000000000000000000000000000000000000000000000000002000000000000000000000000000000000000008200000000000000000000000000000000000000000000000000000000000000000008000000000000000000000000000000000000000000000000000000000010",
      "type": "0x2",
      "transactionHash": "0x5cd2e0f42f997fb74224d99430f53a4ff6ab1210fd618ddaa0b9284c3d77df71",
      "transactionIndex": "0x3",
      "blockHash": "0x277f91ffc1bc8f9c0da643309db7913ca3db1454e982a386104a5b837fca5646",
      "blockNumber": "0x175c716d",
      "gasUsed": "0x4a538",
      "effectiveGasPrice": "0x2e0f040",
      "from": "0x0ece75f3c36f7df2136dac7633165dbff53de3cd",
      "to": "0x1a44076050125825900e736c501f859c50fe728c",
      "contractAddress": null,
      "gasUsedForL1": "0x754",
      "l1BlockNumber": "0x16886a8",
      "timeboosted": false
    },
    {
      "status": "0x1",
      "cumulativeGasUsed": "0x4a52d",
      "logs": [
        {
          "address": "0x975bcd720be66659e3eb3c0e4f1866a3020e493a",
          "topics": [
            "0x779cb2dd9d2bb1be1737d05435d744facbfb84a2a4912e21379d39beddcdc805"
          ],
          "data": "0x000000000000000000000000c3be8ab4ca0cefe3119a765b324bbdf54a16a65b000000000000000000000000000000000000000000000000000000000000759e000000000000000000000000000000000000000000000000000000000000271000000000000000000000000031cae3b7fb82d847621859fb1585353c5720660d",
          "blockHash": "0xb213be6bf84fafcc57f4680cd4ce68f3e83375b487abca9d986c6b42342e8d68",
          "blockNumber": "0x175c7171",
          "transactionHash": "0xdab7d0f816ba4e7090638f7aa94aa03b267b32d5c85899f92b9d13348b683fe4",
          "transactionIndex": "0x1",
          "logIndex": "0x0",
          "removed": false
        },
        {
          "address": "0x975bcd720be66659e3eb3c0e4f1866a3020e493a",
          "topics": [
            "0x82118522aa536ac0e96cc5c689407ae42b89d592aa133890a01f1509842f5081"
          ],
          "data": "0x000000000000000000000000c3be8ab4ca0cefe3119a765b324bbdf54a16a65b000000000000000000000000000000000000000000000000000000000000759e0000000000000000000000000000000000000000000000000000000000000060000000000000000000000000000000000000000000000000000000000000000f000000000000000000000000000000000000000000000000000000000000000200000000000000000000000000000000000000000000000000000000000000ff000000000000000000000000000000000000000000000000000000000000000000000000000000000000000000000000000000000000000000000000000000c00000000000000000000000000000000000000000000000000000000000000120000000000000000000000000000000000000000000000000000000000000000200000000000000000000000019670df5e16bea2ba9b9e68b48c054c5baea06b8000000000000000000000000f2e380c90e6c09721297526dbc74f870e114dfcb0000000000000000000000000000000000000000000000000000000000000000",
          "blockHash": "0xb213be6bf84fafcc57f4680cd4ce68f3e83375b487abca9d986c6b42342e8d68",
          "blockNumber": "0x175c7171",
          "transactionHash": "0xdab7d0f816ba4e7090638f7aa94aa03b267b32d5c85899f92b9d13348b683fe4",
          "transactionIndex": "0x1",
          "logIndex": "0x1",
          "removed": false
        },
        {
          "address": "0x975bcd720be66659e3eb3c0e4f1866a3020e493a",
          "topics": [
            "0x779cb2dd9d2bb1be1737d05435d744facbfb84a2a4912e21379d39beddcdc805"
          ],
          "data": "0x000000000000000000000000c3be8ab4ca0cefe3119a765b324bbdf54a16a65b00000000000000000000000000000000000000000000000000000000000075e8000000000000000000000000000000000000000000000000000000000000271000000000000000000000000031cae3b7fb82d847621859fb1585353c5720660d",
          "blockHash": "0xb213be6bf84fafcc57f4680cd4ce68f3e83375b487abca9d986c6b42342e8d68",
          "blockNumber": "0x175c7171",
          "transactionHash": "0xdab7d0f816ba4e7090638f7aa94aa03b267b32d5c85899f92b9d13348b683fe4",
          "transactionIndex": "0x1",
          "logIndex": "0x2",
          "removed": false
        },
        {
          "address": "0x975bcd720be66659e3eb3c0e4f1866a3020e493a",
          "topics": [
            "0x82118522aa536ac0e96cc5c689407ae42b89d592aa133890a01f1509842f5081"
          ],
          "data": "0x000000000000000000000000c3be8ab4ca0cefe3119a765b324bbdf54a16a65b00000000000000000000000000000000000000000000000000000000000075e80000000000000000000000000000000000000000000000000000000000000060000000000000000000000000000000000000000000000000000000000000000f000000000000000000000000000000000000000000000000000000000000000200000000000000000000000000000000000000000000000000000000000000ff000000000000000000000000000000000000000000000000000000000000000000000000000000000000000000000000000000000000000000000000000000c00000000000000000000000000000000000000000000000000000000000000120000000000000000000000000000000000000000000000000000000000000000200000000000000000000000019670df5e16bea2ba9b9e68b48c054c5baea06b8000000000000000000000000f2e380c90e6c09721297526dbc74f870e114dfcb0000000000000000000000000000000000000000000000000000000000000000",
          "blockHash": "0xb213be6bf84fafcc57f4680cd4ce68f3e83375b487abca9d986c6b42342e8d68",
          "blockNumber": "0x175c7171",
          "transactionHash": "0xdab7d0f816ba4e7090638f7aa94aa03b267b32d5c85899f92b9d13348b683fe4",
          "transactionIndex": "0x1",
          "logIndex": "0x3",
          "removed": false
        }
      ],
      "logsBloom": "0x00000000000000000000000000000000000000000000000000000000000000000000000000000000000000000000000000000000000400000000000000000000000000000000000000000040000000000000000000000000002000000000000000000000000800000000000000000000000000000000000000000000000000000000000000000000000000000000000000000000000000000000000000000000000000000000000000000002000000000000000000000000000000000000008200000000000000000000000000000000000000000000000000000000000000000008000000000000000000000000000000000000000000000000000000000010",
      "type": "0x2",
      "transactionHash": "0xdab7d0f816ba4e7090638f7aa94aa03b267b32d5c85899f92b9d13348b683fe4",
      "transactionIndex": "0x1",
      "blockHash": "0xb213be6bf84fafcc57f4680cd4ce68f3e83375b487abca9d986c6b42342e8d68",
      "blockNumber": "0x175c7171",
      "gasUsed": "0x4a52d",
      "effectiveGasPrice": "0x2e05400",
      "from": "0x0ece75f3c36f7df2136dac7633165dbff53de3cd",
      "to": "0x1a44076050125825900e736c501f859c50fe728c",
      "contractAddress": null,
      "gasUsedForL1": "0x749",
      "l1BlockNumber": "0x16886a8",
      "timeboosted": false
    },
    {
      "status": "0x1",
      "cumulativeGasUsed": "0x3ca41",
      "logs": [
        {
          "address": "0x7b9e184e07a6ee1ac23eae0fe8d6be2f663f05e6",
          "topics": [
            "0x82118522aa536ac0e96cc5c689407ae42b89d592aa133890a01f1509842f5081"
          ],
          "data": "0x000000000000000000000000ebb7a56fd2d0231a9bf7240542cbd09a641a29fc000000000000000000000000000000000000000000000000000000000000759e0000000000000000000000000000000000000000000000000000000000000060000000000000000000000000000000000000000000000000000000000000000f000000000000000000000000000000000000000000000000000000000000000200000000000000000000000000000000000000000000000000000000000000ff000000000000000000000000000000000000000000000000000000000000000000000000000000000000000000000000000000000000000000000000000000c00000000000000000000000000000000000000000000000000000000000000120000000000000000000000000000000000000000000000000000000000000000200000000000000000000000019670df5e16bea2ba9b9e68b48c054c5baea06b8000000000000000000000000f2e380c90e6c09721297526dbc74f870e114dfcb0000000000000000000000000000000000000000000000000000000000000000",
          "blockHash": "0x3d88e94e2d252668d3a4170b31f3472efc90b2b674dc8cd99987ec9dd949f46e",
          "blockNumber": "0x175c7176",
          "transactionHash": "0x133cb326ecffd22793763d3152d59932066ef092aa9385f61c0f366e88aa61e6",
          "transactionIndex": "0x1",
          "logIndex": "0x0",
          "removed": false
        },
        {
          "address": "0x7b9e184e07a6ee1ac23eae0fe8d6be2f663f05e6",
          "topics": [
            "0x82118522aa536ac0e96cc5c689407ae42b89d592aa133890a01f1509842f5081"
          ],
          "data": "0x000000000000000000000000ebb7a56fd2d0231a9bf7240542cbd09a641a29fc00000000000000000000000000000000000000000000000000000000000075e80000000000000000000000000000000000000000000000000000000000000060000000000000000000000000000000000000000000000000000000000000000f000000000000000000000000000000000000000000000000000000000000000200000000000000000000000000000000000000000000000000000000000000ff000000000000000000000000000000000000000000000000000000000000000000000000000000000000000000000000000000000000000000000000000000c00000000000000000000000000000000000000000000000000000000000000120000000000000000000000000000000000000000000000000000000000000000200000000000000000000000019670df5e16bea2ba9b9e68b48c054c5baea06b8000000000000000000000000f2e380c90e6c09721297526dbc74f870e114dfcb0000000000000000000000000000000000000000000000000000000000000000",
          "blockHash": "0x3d88e94e2d252668d3a4170b31f3472efc90b2b674dc8cd99987ec9dd949f46e",
          "blockNumber": "0x175c7176",
          "transactionHash": "0x133cb326ecffd22793763d3152d59932066ef092aa9385f61c0f366e88aa61e6",
          "transactionIndex": "0x1",
          "logIndex": "0x1",
          "removed": false
        }
      ],
      "logsBloom": "0x00000000000020000000000000000000000000000000000000000000000000000000000000000000000000000000000000000000000000000000000000000000000000000000000000000000000000020000000000000000002000000000000000000000000000000000000000000000000000000000008000000000000000000000000000000000000000000000000000000000000000000000000000000000000000000000000000000002000000000000000000000000000000000000000000000000000000000000000000000000000000000000000000000000000000000000000000000000000000000000000000000000000000000000000000000010",
      "type": "0x2",
      "transactionHash": "0x133cb326ecffd22793763d3152d59932066ef092aa9385f61c0f366e88aa61e6",
      "transactionIndex": "0x1",
      "blockHash": "0x3d88e94e2d252668d3a4170b31f3472efc90b2b674dc8cd99987ec9dd949f46e",
      "blockNumber": "0x175c7176",
      "gasUsed": "0x3ca41",
      "effectiveGasPrice": "0x2e02cf0",
      "from": "0x0ece75f3c36f7df2136dac7633165dbff53de3cd",
      "to": "0x1a44076050125825900e736c501f859c50fe728c",
      "contractAddress": null,
      "gasUsedForL1": "0x677",
      "l1BlockNumber": "0x16886a8",
      "timeboosted": false
    },
    {
      "status": "0x1",
      "cumulativeGasUsed": "0x3ca5f",
      "logs": [
        {
          "address": "0x7b9e184e07a6ee1ac23eae0fe8d6be2f663f05e6",
          "topics": [
            "0x82118522aa536ac0e96cc5c689407ae42b89d592aa133890a01f1509842f5081"
          ],
          "data": "0x00000000000000000000000067165c24a886aaaf1bfa81934e44a2063c6b608c000000000000000000000000000000000000000000000000000000000000759e0000000000000000000000000000000000000000000000000000000000000060000000000000000000000000000000000000000000000000000000000000000f000000000000000000000000000000000000000000000000000000000000000200000000000000000000000000000000000000000000000000000000000000ff000000000000000000000000000000000000000000000000000000000000000000000000000000000000000000000000000000000000000000000000000000c00000000000000000000000000000000000000000000000000000000000000120000000000000000000000000000000000000000000000000000000000000000200000000000000000000000019670df5e16bea2ba9b9e68b48c054c5baea06b8000000000000000000000000f2e380c90e6c09721297526dbc74f870e114dfcb0000000000000000000000000000000000000000000000000000000000000000",
          "blockHash": "0x8148b30ce735bbc9002c63c7ee0d4de21f3fec27ad469bae6a303051315687bb",
          "blockNumber": "0x175c717b",
          "transactionHash": "0x528f70fada4c4830c8802fc883c7f1eed6239111ba31a44e7fb64620c5f5735b",
          "transactionIndex": "0x1",
          "logIndex": "0x0",
          "removed": false
        },
        {
          "address": "0x7b9e184e07a6ee1ac23eae0fe8d6be2f663f05e6",
          "topics": [
            "0x82118522aa536ac0e96cc5c689407ae42b89d592aa133890a01f1509842f5081"
          ],
          "data": "0x00000000000000000000000067165c24a886aaaf1bfa81934e44a2063c6b608c00000000000000000000000000000000000000000000000000000000000075e80000000000000000000000000000000000000000000000000000000000000060000000000000000000000000000000000000000000000000000000000000000f000000000000000000000000000000000000000000000000000000000000000200000000000000000000000000000000000000000000000000000000000000ff000000000000000000000000000000000000000000000000000000000000000000000000000000000000000000000000000000000000000000000000000000c00000000000000000000000000000000000000000000000000000000000000120000000000000000000000000000000000000000000000000000000000000000200000000000000000000000019670df5e16bea2ba9b9e68b48c054c5baea06b8000000000000000000000000f2e380c90e6c09721297526dbc74f870e114dfcb0000000000000000000000000000000000000000000000000000000000000000",
          "blockHash": "0x8148b30ce735bbc9002c63c7ee0d4de21f3fec27ad469bae6a303051315687bb",
          "blockNumber": "0x175c717b",
          "transactionHash": "0x528f70fada4c4830c8802fc883c7f1eed6239111ba31a44e7fb64620c5f5735b",
          "transactionIndex": "0x1",
          "logIndex": "0x1",
          "removed": false
        }
      ],
      "logsBloom": "0x00000000000020000000000000000000000000000000000000000000000000000000000000000000000000000000000000000000000000000000000000000000000000000000000000000000000000020000000000000000002000000000000000000000000000000000000000000000000000000000008000000000000000000000000000000000000000000000000000000000000000000000000000000000000000000000000000000002000000000000000000000000000000000000000000000000000000000000000000000000000000000000000000000000000000000000000000000000000000000000000000000000000000000000000000000010",
      "type": "0x2",
      "transactionHash": "0x528f70fada4c4830c8802fc883c7f1eed6239111ba31a44e7fb64620c5f5735b",
      "transactionIndex": "0x1",
      "blockHash": "0x8148b30ce735bbc9002c63c7ee0d4de21f3fec27ad469bae6a303051315687bb",
      "blockNumber": "0x175c717b",
      "gasUsed": "0x3ca5f",
      "effectiveGasPrice": "0x2da4920",
      "from": "0x0ece75f3c36f7df2136dac7633165dbff53de3cd",
      "to": "0x1a44076050125825900e736c501f859c50fe728c",
      "contractAddress": null,
      "gasUsedForL1": "0x695",
      "l1BlockNumber": "0x16886a8",
      "timeboosted": false
    },
    {
      "status": "0x1",
      "cumulativeGasUsed": "0x3ca65",
      "logs": [
        {
          "address": "0x7b9e184e07a6ee1ac23eae0fe8d6be2f663f05e6",
          "topics": [
            "0x82118522aa536ac0e96cc5c689407ae42b89d592aa133890a01f1509842f5081"
          ],
          "data": "0x000000000000000000000000a85c480f229fac050ecc53faede343628bc242cb000000000000000000000000000000000000000000000000000000000000759e0000000000000000000000000000000000000000000000000000000000000060000000000000000000000000000000000000000000000000000000000000000f000000000000000000000000000000000000000000000000000000000000000200000000000000000000000000000000000000000000000000000000000000ff000000000000000000000000000000000000000000000000000000000000000000000000000000000000000000000000000000000000000000000000000000c00000000000000000000000000000000000000000000000000000000000000120000000000000000000000000000000000000000000000000000000000000000200000000000000000000000019670df5e16bea2ba9b9e68b48c054c5baea06b8000000000000000000000000f2e380c90e6c09721297526dbc74f870e114dfcb0000000000000000000000000000000000000000000000000000000000000000",
          "blockHash": "0xdf1173b167b2fa7912a0b941215878688770d62413f4800a17912e63f5e30523",
          "blockNumber": "0x175c7180",
          "transactionHash": "0x3722b7ace91d629eca76a535d4063fa30b5a6dd70062a841d410b9ad84dccb61",
          "transactionIndex": "0x1",
          "logIndex": "0x0",
          "removed": false
        },
        {
          "address": "0x7b9e184e07a6ee1ac23eae0fe8d6be2f663f05e6",
          "topics": [
            "0x82118522aa536ac0e96cc5c689407ae42b89d592aa133890a01f1509842f5081"
          ],
          "data": "0x000000000000000000000000a85c480f229fac050ecc53faede343628bc242cb00000000000000000000000000000000000000000000000000000000000075e80000000000000000000000000000000000000000000000000000000000000060000000000000000000000000000000000000000000000000000000000000000f000000000000000000000000000000000000000000000000000000000000000200000000000000000000000000000000000000000000000000000000000000ff000000000000000000000000000000000000000000000000000000000000000000000000000000000000000000000000000000000000000000000000000000c00000000000000000000000000000000000000000000000000000000000000120000000000000000000000000000000000000000000000000000000000000000200000000000000000000000019670df5e16bea2ba9b9e68b48c054c5baea06b8000000000000000000000000f2e380c90e6c09721297526dbc74f870e114dfcb0000000000000000000000000000000000000000000000000000000000000000",
          "blockHash": "0xdf1173b167b2fa7912a0b941215878688770d62413f4800a17912e63f5e30523",
          "blockNumber": "0x175c7180",
          "transactionHash": "0x3722b7ace91d629eca76a535d4063fa30b5a6dd70062a841d410b9ad84dccb61",
          "transactionIndex": "0x1",
          "logIndex": "0x1",
          "removed": false
        }
      ],
      "logsBloom": "0x00000000000020000000000000000000000000000000000000000000000000000000000000000000000000000000000000000000000000000000000000000000000000000000000000000000000000020000000000000000002000000000000000000000000000000000000000000000000000000000008000000000000000000000000000000000000000000000000000000000000000000000000000000000000000000000000000000002000000000000000000000000000000000000000000000000000000000000000000000000000000000000000000000000000000000000000000000000000000000000000000000000000000000000000000000010",
      "type": "0x2",
      "transactionHash": "0x3722b7ace91d629eca76a535d4063fa30b5a6dd70062a841d410b9ad84dccb61",
      "transactionIndex": "0x1",
      "blockHash": "0xdf1173b167b2fa7912a0b941215878688770d62413f4800a17912e63f5e30523",
      "blockNumber": "0x175c7180",
      "gasUsed": "0x3ca65",
      "effectiveGasPrice": "0x2d5d098",
      "from": "0x0ece75f3c36f7df2136dac7633165dbff53de3cd",
      "to": "0x1a44076050125825900e736c501f859c50fe728c",
      "contractAddress": null,
      "gasUsedForL1": "0x69b",
      "l1BlockNumber": "0x16886a8",
      "timeboosted": false
    },
    {
      "status": "0x1",
      "cumulativeGasUsed": "0x1a1c5b",
      "logs": [
        {
          "address": "0x7b9e184e07a6ee1ac23eae0fe8d6be2f663f05e6",
          "topics": [
            "0x82118522aa536ac0e96cc5c689407ae42b89d592aa133890a01f1509842f5081"
          ],
          "data": "0x000000000000000000000000eb36aa674745c48381aa3a8074e5485586dbd308000000000000000000000000000000000000000000000000000000000000759e0000000000000000000000000000000000000000000000000000000000000060000000000000000000000000000000000000000000000000000000000000000f000000000000000000000000000000000000000000000000000000000000000200000000000000000000000000000000000000000000000000000000000000ff000000000000000000000000000000000000000000000000000000000000000000000000000000000000000000000000000000000000000000000000000000c00000000000000000000000000000000000000000000000000000000000000120000000000000000000000000000000000000000000000000000000000000000200000000000000000000000019670df5e16bea2ba9b9e68b48c054c5baea06b8000000000000000000000000f2e380c90e6c09721297526dbc74f870e114dfcb0000000000000000000000000000000000000000000000000000000000000000",
          "blockHash": "0x21602690493257b7aed34b461f018a22429ba2afa563626e2fff291a298f4ed0",
          "blockNumber": "0x175c7185",
          "transactionHash": "0x295c4efb58be8e688adee7321e197aea23ce94b1cf435a63b11c6a0f65332bcd",
          "transactionIndex": "0x9",
          "logIndex": "0x2a",
          "removed": false
        },
        {
          "address": "0x7b9e184e07a6ee1ac23eae0fe8d6be2f663f05e6",
          "topics": [
            "0x82118522aa536ac0e96cc5c689407ae42b89d592aa133890a01f1509842f5081"
          ],
          "data": "0x000000000000000000000000eb36aa674745c48381aa3a8074e5485586dbd30800000000000000000000000000000000000000000000000000000000000075e80000000000000000000000000000000000000000000000000000000000000060000000000000000000000000000000000000000000000000000000000000000f000000000000000000000000000000000000000000000000000000000000000200000000000000000000000000000000000000000000000000000000000000ff000000000000000000000000000000000000000000000000000000000000000000000000000000000000000000000000000000000000000000000000000000c00000000000000000000000000000000000000000000000000000000000000120000000000000000000000000000000000000000000000000000000000000000200000000000000000000000019670df5e16bea2ba9b9e68b48c054c5baea06b8000000000000000000000000f2e380c90e6c09721297526dbc74f870e114dfcb0000000000000000000000000000000000000000000000000000000000000000",
          "blockHash": "0x21602690493257b7aed34b461f018a22429ba2afa563626e2fff291a298f4ed0",
          "blockNumber": "0x175c7185",
          "transactionHash": "0x295c4efb58be8e688adee7321e197aea23ce94b1cf435a63b11c6a0f65332bcd",
          "transactionIndex": "0x9",
          "logIndex": "0x2b",
          "removed": false
        }
      ],
      "logsBloom": "0x00000000000020000000000000000000000000000000000000000000000000000000000000000000000000000000000000000000000000000000000000000000000000000000000000000000000000020000000000000000002000000000000000000000000000000000000000000000000000000000008000000000000000000000000000000000000000000000000000000000000000000000000000000000000000000000000000000002000000000000000000000000000000000000000000000000000000000000000000000000000000000000000000000000000000000000000000000000000000000000000000000000000000000000000000000010",
      "type": "0x2",
      "transactionHash": "0x295c4efb58be8e688adee7321e197aea23ce94b1cf435a63b11c6a0f65332bcd",
      "transactionIndex": "0x9",
      "blockHash": "0x21602690493257b7aed34b461f018a22429ba2afa563626e2fff291a298f4ed0",
      "blockNumber": "0x175c7185",
      "gasUsed": "0x3ca6e",
      "effectiveGasPrice": "0x2cc6a58",
      "from": "0x0ece75f3c36f7df2136dac7633165dbff53de3cd",
      "to": "0x1a44076050125825900e736c501f859c50fe728c",
      "contractAddress": null,
      "gasUsedForL1": "0x6a4",
      "l1BlockNumber": "0x16886a8",
      "timeboosted": false
    },
    {
      "status": "0x1",
      "cumulativeGasUsed": "0x12e5c0",
      "logs": [
        {
          "address": "0x7b9e184e07a6ee1ac23eae0fe8d6be2f663f05e6",
          "topics": [
            "0x82118522aa536ac0e96cc5c689407ae42b89d592aa133890a01f1509842f5081"
          ],
          "data": "0x000000000000000000000000d506b22a6b3216b736021fa262d0f5d686e07b35000000000000000000000000000000000000000000000000000000000000759e0000000000000000000000000000000000000000000000000000000000000060000000000000000000000000000000000000000000000000000000000000000f000000000000000000000000000000000000000000000000000000000000000200000000000000000000000000000000000000000000000000000000000000ff000000000000000000000000000000000000000000000000000000000000000000000000000000000000000000000000000000000000000000000000000000c00000000000000000000000000000000000000000000000000000000000000120000000000000000000000000000000000000000000000000000000000000000200000000000000000000000019670df5e16bea2ba9b9e68b48c054c5baea06b8000000000000000000000000f2e380c90e6c09721297526dbc74f870e114dfcb0000000000000000000000000000000000000000000000000000000000000000",
          "blockHash": "0x79655fc0027e36e08a975b07957b66090b4c9cf0427943c9116399f4cbf51242",
          "blockNumber": "0x175c7195",
          "transactionHash": "0xa378f834d97e003ca4848d18d462dba8fdceab606095dae3d43c826e2ecaeea7",
          "transactionIndex": "0xa",
          "logIndex": "0x4",
          "removed": false
        },
        {
          "address": "0x7b9e184e07a6ee1ac23eae0fe8d6be2f663f05e6",
          "topics": [
            "0x82118522aa536ac0e96cc5c689407ae42b89d592aa133890a01f1509842f5081"
          ],
          "data": "0x000000000000000000000000d506b22a6b3216b736021fa262d0f5d686e07b3500000000000000000000000000000000000000000000000000000000000075e80000000000000000000000000000000000000000000000000000000000000060000000000000000000000000000000000000000000000000000000000000000f000000000000000000000000000000000000000000000000000000000000000200000000000000000000000000000000000000000000000000000000000000ff000000000000000000000000000000000000000000000000000000000000000000000000000000000000000000000000000000000000000000000000000000c00000000000000000000000000000000000000000000000000000000000000120000000000000000000000000000000000000000000000000000000000000000200000000000000000000000019670df5e16bea2ba9b9e68b48c054c5baea06b8000000000000000000000000f2e380c90e6c09721297526dbc74f870e114dfcb0000000000000000000000000000000000000000000000000000000000000000",
          "blockHash": "0x79655fc0027e36e08a975b07957b66090b4c9cf0427943c9116399f4cbf51242",
          "blockNumber": "0x175c7195",
          "transactionHash": "0xa378f834d97e003ca4848d18d462dba8fdceab606095dae3d43c826e2ecaeea7",
          "transactionIndex": "0xa",
          "logIndex": "0x5",
          "removed": false
        }
      ],
      "logsBloom": "0x00000000000020000000000000000000000000000000000000000000000000000000000000000000000000000000000000000000000000000000000000000000000000000000000000000000000000020000000000000000002000000000000000000000000000000000000000000000000000000000008000000000000000000000000000000000000000000000000000000000000000000000000000000000000000000000000000000002000000000000000000000000000000000000000000000000000000000000000000000000000000000000000000000000000000000000000000000000000000000000000000000000000000000000000000000010",
      "type": "0x2",
      "transactionHash": "0xa378f834d97e003ca4848d18d462dba8fdceab606095dae3d43c826e2ecaeea7",
      "transactionIndex": "0xa",
      "blockHash": "0x79655fc0027e36e08a975b07957b66090b4c9cf0427943c9116399f4cbf51242",
      "blockNumber": "0x175c7195",
      "gasUsed": "0x3ca94",
      "effectiveGasPrice": "0x2c3ea90",
      "from": "0x0ece75f3c36f7df2136dac7633165dbff53de3cd",
      "to": "0x1a44076050125825900e736c501f859c50fe728c",
      "contractAddress": null,
      "gasUsedForL1": "0x6ca",
      "l1BlockNumber": "0x16886a8",
      "timeboosted": false
    },
    {
      "status": "0x1",
      "cumulativeGasUsed": "0x61a86a",
      "logs": [
        {
          "address": "0x7b9e184e07a6ee1ac23eae0fe8d6be2f663f05e6",
          "topics": [
            "0x82118522aa536ac0e96cc5c689407ae42b89d592aa133890a01f1509842f5081"
          ],
          "data": "0x00000000000000000000000002a66b51fc24e08535a6cfe1e11e532d8a089212000000000000000000000000000000000000000000000000000000000000759e0000000000000000000000000000000000000000000000000000000000000060000000000000000000000000000000000000000000000000000000000000000f000000000000000000000000000000000000000000000000000000000000000200000000000000000000000000000000000000000000000000000000000000ff000000000000000000000000000000000000000000000000000000000000000000000000000000000000000000000000000000000000000000000000000000c00000000000000000000000000000000000000000000000000000000000000120000000000000000000000000000000000000000000000000000000000000000200000000000000000000000019670df5e16bea2ba9b9e68b48c054c5baea06b8000000000000000000000000f2e380c90e6c09721297526dbc74f870e114dfcb0000000000000000000000000000000000000000000000000000000000000000",
          "blockHash": "0x99fb92ca12be753398c03997dc9e8950b40baee71710c02168d26fb35c3474e4",
          "blockNumber": "0x175c719a",
          "transactionHash": "0x1141a931a373876e12d59c4b154934ecb07ec2cd50c23bb8c059c6b9e4b6c4db",
          "transactionIndex": "0xa",
          "logIndex": "0x19",
          "removed": false
        },
        {
          "address": "0x7b9e184e07a6ee1ac23eae0fe8d6be2f663f05e6",
          "topics": [
            "0x82118522aa536ac0e96cc5c689407ae42b89d592aa133890a01f1509842f5081"
          ],
          "data": "0x00000000000000000000000002a66b51fc24e08535a6cfe1e11e532d8a08921200000000000000000000000000000000000000000000000000000000000075e80000000000000000000000000000000000000000000000000000000000000060000000000000000000000000000000000000000000000000000000000000000f000000000000000000000000000000000000000000000000000000000000000200000000000000000000000000000000000000000000000000000000000000ff000000000000000000000000000000000000000000000000000000000000000000000000000000000000000000000000000000000000000000000000000000c00000000000000000000000000000000000000000000000000000000000000120000000000000000000000000000000000000000000000000000000000000000200000000000000000000000019670df5e16bea2ba9b9e68b48c054c5baea06b8000000000000000000000000f2e380c90e6c09721297526dbc74f870e114dfcb0000000000000000000000000000000000000000000000000000000000000000",
          "blockHash": "0x99fb92ca12be753398c03997dc9e8950b40baee71710c02168d26fb35c3474e4",
          "blockNumber": "0x175c719a",
          "transactionHash": "0x1141a931a373876e12d59c4b154934ecb07ec2cd50c23bb8c059c6b9e4b6c4db",
          "transactionIndex": "0xa",
          "logIndex": "0x1a",
          "removed": false
        }
      ],
      "logsBloom": "0x00000000000020000000000000000000000000000000000000000000000000000000000000000000000000000000000000000000000000000000000000000000000000000000000000000000000000020000000000000000002000000000000000000000000000000000000000000000000000000000008000000000000000000000000000000000000000000000000000000000000000000000000000000000000000000000000000000002000000000000000000000000000000000000000000000000000000000000000000000000000000000000000000000000000000000000000000000000000000000000000000000000000000000000000000000010",
      "type": "0x2",
      "transactionHash": "0x1141a931a373876e12d59c4b154934ecb07ec2cd50c23bb8c059c6b9e4b6c4db",
      "transactionIndex": "0xa",
      "blockHash": "0x99fb92ca12be753398c03997dc9e8950b40baee71710c02168d26fb35c3474e4",
      "blockNumber": "0x175c719a",
      "gasUsed": "0x3ca7e",
      "effectiveGasPrice": "0x2c219b8",
      "from": "0x0ece75f3c36f7df2136dac7633165dbff53de3cd",
      "to": "0x1a44076050125825900e736c501f859c50fe728c",
      "contractAddress": null,
      "gasUsedForL1": "0x6b4",
      "l1BlockNumber": "0x16886a9",
      "timeboosted": false
    },
    {
      "status": "0x1",
      "cumulativeGasUsed": "0x3b705b",
      "logs": [
        {
          "address": "0x7b9e184e07a6ee1ac23eae0fe8d6be2f663f05e6",
          "topics": [
            "0x82118522aa536ac0e96cc5c689407ae42b89d592aa133890a01f1509842f5081"
          ],
          "data": "0x000000000000000000000000c3be8ab4ca0cefe3119a765b324bbdf54a16a65b000000000000000000000000000000000000000000000000000000000000759e0000000000000000000000000000000000000000000000000000000000000060000000000000000000000000000000000000000000000000000000000000000f000000000000000000000000000000000000000000000000000000000000000200000000000000000000000000000000000000000000000000000000000000ff000000000000000000000000000000000000000000000000000000000000000000000000000000000000000000000000000000000000000000000000000000c00000000000000000000000000000000000000000000000000000000000000120000000000000000000000000000000000000000000000000000000000000000200000000000000000000000019670df5e16bea2ba9b9e68b48c054c5baea06b8000000000000000000000000f2e380c90e6c09721297526dbc74f870e114dfcb0000000000000000000000000000000000000000000000000000000000000000",
          "blockHash": "0x1da04799ffd8329601dd0487628a3fe4db27f279bdb5a98054bda1defef82323",
          "blockNumber": "0x175c719f",
          "transactionHash": "0x9ca1c6093273763dd7bf7a40ae4f98842b8c9ad2394d52c4f19fd1e458ab043c",
          "transactionIndex": "0x3",
          "logIndex": "0x23",
          "removed": false
        },
        {
          "address": "0x7b9e184e07a6ee1ac23eae0fe8d6be2f663f05e6",
          "topics": [
            "0x82118522aa536ac0e96cc5c689407ae42b89d592aa133890a01f1509842f5081"
          ],
          "data": "0x000000000000000000000000c3be8ab4ca0cefe3119a765b324bbdf54a16a65b00000000000000000000000000000000000000000000000000000000000075e80000000000000000000000000000000000000000000000000000000000000060000000000000000000000000000000000000000000000000000000000000000f000000000000000000000000000000000000000000000000000000000000000200000000000000000000000000000000000000000000000000000000000000ff000000000000000000000000000000000000000000000000000000000000000000000000000000000000000000000000000000000000000000000000000000c00000000000000000000000000000000000000000000000000000000000000120000000000000000000000000000000000000000000000000000000000000000200000000000000000000000019670df5e16bea2ba9b9e68b48c054c5baea06b8000000000000000000000000f2e380c90e6c09721297526dbc74f870e114dfcb0000000000000000000000000000000000000000000000000000000000000000",
          "blockHash": "0x1da04799ffd8329601dd0487628a3fe4db27f279bdb5a98054bda1defef82323",
          "blockNumber": "0x175c719f",
          "transactionHash": "0x9ca1c6093273763dd7bf7a40ae4f98842b8c9ad2394d52c4f19fd1e458ab043c",
          "transactionIndex": "0x3",
          "logIndex": "0x24",
          "removed": false
        }
      ],
      "logsBloom": "0x00000000000020000000000000000000000000000000000000000000000000000000000000000000000000000000000000000000000000000000000000000000000000000000000000000000000000020000000000000000002000000000000000000000000000000000000000000000000000000000008000000000000000000000000000000000000000000000000000000000000000000000000000000000000000000000000000000002000000000000000000000000000000000000000000000000000000000000000000000000000000000000000000000000000000000000000000000000000000000000000000000000000000000000000000000010",
      "type": "0x2",
      "transactionHash": "0x9ca1c6093273763dd7bf7a40ae4f98842b8c9ad2394d52c4f19fd1e458ab043c",
      "transactionIndex": "0x3",
      "blockHash": "0x1da04799ffd8329601dd0487628a3fe4db27f279bdb5a98054bda1defef82323",
      "blockNumber": "0x175c719f",
      "gasUsed": "0x3ca88",
      "effectiveGasPrice": "0x2c3b7c8",
      "from": "0x0ece75f3c36f7df2136dac7633165dbff53de3cd",
      "to": "0x1a44076050125825900e736c501f859c50fe728c",
      "contractAddress": null,
      "gasUsedForL1": "0x6be",
      "l1BlockNumber": "0x16886a9",
      "timeboosted": false
    }
  ],
  "libraries": [],
  "pending": [],
  "returns": {},
  "timestamp": 1761067872389,
  "chain": 42161,
  "commit": "df18ae1"
}