{
  "transactions": [
    {
      "hash": "0xea0598bec0481d1e40328a5f8ef0b1e7dc4b3b3727a29cbec7ecda61b83426bc",
      "transactionType": "CALL",
      "contractName": null,
      "contractAddress": "0xebb7a56fd2d0231a9bf7240542cbd09a641a29fc",
      "function": "setPeer(uint32,bytes32)",
      "arguments": [
        "30184",
        "0x0000000000000000000000004dbfe8f6a12e3538e4f2b3712ec81cd7a161e3bd"
      ],
      "transaction": {
        "from": "0x0ece75f3c36f7df2136dac7633165dbff53de3cd",
        "to": "0xebb7a56fd2d0231a9bf7240542cbd09a641a29fc",
        "gas": "0x10255",
        "value": "0x0",
        "input": "0x3400288b00000000000000000000000000000000000000000000000000000000000075e80000000000000000000000004dbfe8f6a12e3538e4f2b3712ec81cd7a161e3bd",
        "nonce": "0x4b",
        "chainId": "0xa4b1"
      },
      "additionalContracts": [],
      "isFixedGasLimit": false
    },
    {
      "hash": "0x897c12c3c231d951faaf52f56837e013021a990f0f7168149538b7593263102c",
      "transactionType": "CALL",
      "contractName": null,
      "contractAddress": "0x67165c24a886aaaf1bfa81934e44a2063c6b608c",
      "function": "setPeer(uint32,bytes32)",
      "arguments": [
        "30184",
        "0x00000000000000000000000090a07246df6cc23c26343fc4595ac71e834dcfd3"
      ],
      "transaction": {
        "from": "0x0ece75f3c36f7df2136dac7633165dbff53de3cd",
        "to": "0x67165c24a886aaaf1bfa81934e44a2063c6b608c",
        "gas": "0x10255",
        "value": "0x0",
        "input": "0x3400288b00000000000000000000000000000000000000000000000000000000000075e800000000000000000000000090a07246df6cc23c26343fc4595ac71e834dcfd3",
        "nonce": "0x4c",
        "chainId": "0xa4b1"
      },
      "additionalContracts": [],
      "isFixedGasLimit": false
    },
    {
      "hash": "0xa90200b7d04b94d8bbe561be1de3df4d9b6e36a1a39603aa3513578945db2a6e",
      "transactionType": "CALL",
      "contractName": null,
      "contractAddress": "0xa85c480f229fac050ecc53faede343628bc242cb",
      "function": "setPeer(uint32,bytes32)",
      "arguments": [
        "30184",
        "0x0000000000000000000000007bfa71d5f8a3bfa35384e14863e299ef20b2652a"
      ],
      "transaction": {
        "from": "0x0ece75f3c36f7df2136dac7633165dbff53de3cd",
        "to": "0xa85c480f229fac050ecc53faede343628bc242cb",
        "gas": "0x10255",
        "value": "0x0",
        "input": "0x3400288b00000000000000000000000000000000000000000000000000000000000075e80000000000000000000000007bfa71d5f8a3bfa35384e14863e299ef20b2652a",
        "nonce": "0x4d",
        "chainId": "0xa4b1"
      },
      "additionalContracts": [],
      "isFixedGasLimit": false
    },
    {
      "hash": "0x6b6064bbe3f26431828cb46f5d9bc00e873bb327b038bc57be6e2a2a3849d49c",
      "transactionType": "CALL",
      "contractName": null,
      "contractAddress": "0xeb36aa674745c48381aa3a8074e5485586dbd308",
      "function": "setPeer(uint32,bytes32)",
      "arguments": [
        "30184",
        "0x00000000000000000000000008f17ac3389f8a719602681747f668fa4efdbbab"
      ],
      "transaction": {
        "from": "0x0ece75f3c36f7df2136dac7633165dbff53de3cd",
        "to": "0xeb36aa674745c48381aa3a8074e5485586dbd308",
        "gas": "0x10255",
        "value": "0x0",
        "input": "0x3400288b00000000000000000000000000000000000000000000000000000000000075e800000000000000000000000008f17ac3389f8a719602681747f668fa4efdbbab",
        "nonce": "0x4e",
        "chainId": "0xa4b1"
      },
      "additionalContracts": [],
      "isFixedGasLimit": false
    },
    {
      "hash": "0x712f9ab0beeeae19d909628aa15f673aea7912996cfff1290ed975deaad85752",
      "transactionType": "CALL",
      "contractName": null,
      "contractAddress": "0xd506b22a6b3216b736021fa262d0f5d686e07b35",
      "function": "setPeer(uint32,bytes32)",
      "arguments": [
        "30184",
        "0x0000000000000000000000005bf04cc43cd55167eb0fef1cd6cd15da48c52490"
      ],
      "transaction": {
        "from": "0x0ece75f3c36f7df2136dac7633165dbff53de3cd",
        "to": "0xd506b22a6b3216b736021fa262d0f5d686e07b35",
        "gas": "0x10255",
        "value": "0x0",
        "input": "0x3400288b00000000000000000000000000000000000000000000000000000000000075e80000000000000000000000005bf04cc43cd55167eb0fef1cd6cd15da48c52490",
        "nonce": "0x4f",
        "chainId": "0xa4b1"
      },
      "additionalContracts": [],
      "isFixedGasLimit": false
    },
    {
      "hash": "0x9745d3ecb891dc05cc151d97484b579a838ce448669f912239360a349275cf9f",
      "transactionType": "CALL",
      "contractName": null,
      "contractAddress": "0x02a66b51fc24e08535a6cfe1e11e532d8a089212",
      "function": "setPeer(uint32,bytes32)",
      "arguments": [
        "30184",
        "0x000000000000000000000000c336a7d6ff896da5e40d91e14e6c916cabe6263f"
      ],
      "transaction": {
        "from": "0x0ece75f3c36f7df2136dac7633165dbff53de3cd",
        "to": "0x02a66b51fc24e08535a6cfe1e11e532d8a089212",
        "gas": "0x10276",
        "value": "0x0",
        "input": "0x3400288b00000000000000000000000000000000000000000000000000000000000075e8000000000000000000000000c336a7d6ff896da5e40d91e14e6c916cabe6263f",
        "nonce": "0x50",
        "chainId": "0xa4b1"
      },
      "additionalContracts": [],
      "isFixedGasLimit": false
    },
    {
      "hash": "0x370cd98adbb337d54877a169772e60ffb85318b923ca39d58489d3382c7bd038",
      "transactionType": "CALL",
      "contractName": null,
      "contractAddress": "0xc3be8ab4ca0cefe3119a765b324bbdf54a16a65b",
      "function": "setPeer(uint32,bytes32)",
      "arguments": [
        "30184",
        "0x000000000000000000000000e4e5cd067e0e4f776aacf6c008140b65efd4d7ca"
      ],
      "transaction": {
        "from": "0x0ece75f3c36f7df2136dac7633165dbff53de3cd",
        "to": "0xc3be8ab4ca0cefe3119a765b324bbdf54a16a65b",
        "gas": "0x10276",
        "value": "0x0",
        "input": "0x3400288b00000000000000000000000000000000000000000000000000000000000075e8000000000000000000000000e4e5cd067e0e4f776aacf6c008140b65efd4d7ca",
        "nonce": "0x51",
        "chainId": "0xa4b1"
      },
      "additionalContracts": [],
      "isFixedGasLimit": false
    },
    {
      "hash": "0x757d5eb137063c01eed89833a6b069df2d4115351de8ead4fa553360afb6a770",
      "transactionType": "CALL",
      "contractName": null,
      "contractAddress": "0xebb7a56fd2d0231a9bf7240542cbd09a641a29fc",
      "function": "setEnforcedOptions((uint32,uint16,bytes)[])",
      "arguments": [
        "[(30110, 1, 0x00030100110100000000000000000000000000013880), (30184, 1, 0x000301001101000000000000000000000000000186a0)]"
      ],
      "transaction": {
        "from": "0x0ece75f3c36f7df2136dac7633165dbff53de3cd",
        "to": "0xebb7a56fd2d0231a9bf7240542cbd09a641a29fc",
        "gas": "0x1ab35",
        "value": "0x0",
        "input": "0xb98bd07000000000000000000000000000000000000000000000000000000000000000200000000000000000000000000000000000000000000000000000000000000002000000000000000000000000000000000000000000000000000000000000004000000000000000000000000000000000000000000000000000000000000000e0000000000000000000000000000000000000000000000000000000000000759e000000000000000000000000000000000000000000000000000000000000000100000000000000000000000000000000000000000000000000000000000000600000000000000000000000000000000000000000000000000000000000000016000301001101000000000000000000000000000138800000000000000000000000000000000000000000000000000000000000000000000000000000000075e8000000000000000000000000000000000000000000000000000000000000000100000000000000000000000000000000000000000000000000000000000000600000000000000000000000000000000000000000000000000000000000000016000301001101000000000000000000000000000186a000000000000000000000",
        "nonce": "0x52",
        "chainId": "0xa4b1"
      },
      "additionalContracts": [],
      "isFixedGasLimit": false
    },
    {
      "hash": "0x15514427bc1be56da7203517708b73b57ec067b0c489777d5e60a455e7a8b050",
      "transactionType": "CALL",
      "contractName": null,
      "contractAddress": "0x67165c24a886aaaf1bfa81934e44a2063c6b608c",
      "function": "setEnforcedOptions((uint32,uint16,bytes)[])",
      "arguments": [
        "[(30110, 1, 0x00030100110100000000000000000000000000013880), (30184, 1, 0x000301001101000000000000000000000000000186a0)]"
      ],
      "transaction": {
        "from": "0x0ece75f3c36f7df2136dac7633165dbff53de3cd",
        "to": "0x67165c24a886aaaf1bfa81934e44a2063c6b608c",
        "gas": "0x1ab84",
        "value": "0x0",
        "input": "0xb98bd07000000000000000000000000000000000000000000000000000000000000000200000000000000000000000000000000000000000000000000000000000000002000000000000000000000000000000000000000000000000000000000000004000000000000000000000000000000000000000000000000000000000000000e0000000000000000000000000000000000000000000000000000000000000759e000000000000000000000000000000000000000000000000000000000000000100000000000000000000000000000000000000000000000000000000000000600000000000000000000000000000000000000000000000000000000000000016000301001101000000000000000000000000000138800000000000000000000000000000000000000000000000000000000000000000000000000000000075e8000000000000000000000000000000000000000000000000000000000000000100000000000000000000000000000000000000000000000000000000000000600000000000000000000000000000000000000000000000000000000000000016000301001101000000000000000000000000000186a000000000000000000000",
        "nonce": "0x53",
        "chainId": "0xa4b1"
      },
      "additionalContracts": [],
      "isFixedGasLimit": false
    },
    {
      "hash": "0x11d894a02be225b685954c9037379daf7bb6301d60a8a6f126eb63247c906325",
      "transactionType": "CALL",
      "contractName": null,
      "contractAddress": "0xa85c480f229fac050ecc53faede343628bc242cb",
      "function": "setEnforcedOptions((uint32,uint16,bytes)[])",
      "arguments": [
        "[(30110, 1, 0x00030100110100000000000000000000000000013880), (30184, 1, 0x000301001101000000000000000000000000000186a0)]"
      ],
      "transaction": {
        "from": "0x0ece75f3c36f7df2136dac7633165dbff53de3cd",
        "to": "0xa85c480f229fac050ecc53faede343628bc242cb",
        "gas": "0x1ab18",
        "value": "0x0",
        "input": "0xb98bd07000000000000000000000000000000000000000000000000000000000000000200000000000000000000000000000000000000000000000000000000000000002000000000000000000000000000000000000000000000000000000000000004000000000000000000000000000000000000000000000000000000000000000e0000000000000000000000000000000000000000000000000000000000000759e000000000000000000000000000000000000000000000000000000000000000100000000000000000000000000000000000000000000000000000000000000600000000000000000000000000000000000000000000000000000000000000016000301001101000000000000000000000000000138800000000000000000000000000000000000000000000000000000000000000000000000000000000075e8000000000000000000000000000000000000000000000000000000000000000100000000000000000000000000000000000000000000000000000000000000600000000000000000000000000000000000000000000000000000000000000016000301001101000000000000000000000000000186a000000000000000000000",
        "nonce": "0x54",
        "chainId": "0xa4b1"
      },
      "additionalContracts": [],
      "isFixedGasLimit": false
    },
    {
      "hash": "0xe42cb0313b2a8f9b1724441f5f6b3ffbbf94939cccbb3ceaf039fbad84d4d0f4",
      "transactionType": "CALL",
      "contractName": null,
      "contractAddress": "0xeb36aa674745c48381aa3a8074e5485586dbd308",
      "function": "setEnforcedOptions((uint32,uint16,bytes)[])",
      "arguments": [
        "[(30110, 1, 0x00030100110100000000000000000000000000013880), (30184, 1, 0x000301001101000000000000000000000000000186a0)]"
      ],
      "transaction": {
        "from": "0x0ece75f3c36f7df2136dac7633165dbff53de3cd",
        "to": "0xeb36aa674745c48381aa3a8074e5485586dbd308",
        "gas": "0x1ab06",
        "value": "0x0",
        "input": "0xb98bd07000000000000000000000000000000000000000000000000000000000000000200000000000000000000000000000000000000000000000000000000000000002000000000000000000000000000000000000000000000000000000000000004000000000000000000000000000000000000000000000000000000000000000e0000000000000000000000000000000000000000000000000000000000000759e000000000000000000000000000000000000000000000000000000000000000100000000000000000000000000000000000000000000000000000000000000600000000000000000000000000000000000000000000000000000000000000016000301001101000000000000000000000000000138800000000000000000000000000000000000000000000000000000000000000000000000000000000075e8000000000000000000000000000000000000000000000000000000000000000100000000000000000000000000000000000000000000000000000000000000600000000000000000000000000000000000000000000000000000000000000016000301001101000000000000000000000000000186a000000000000000000000",
        "nonce": "0x55",
        "chainId": "0xa4b1"
      },
      "additionalContracts": [],
      "isFixedGasLimit": false
    },
    {
      "hash": "0x8007ea43c73db4850b8b3ee6e92569e1d2eafdb4d5146a84a40af789d3c574d7",
      "transactionType": "CALL",
      "contractName": null,
      "contractAddress": "0xd506b22a6b3216b736021fa262d0f5d686e07b35",
      "function": "setEnforcedOptions((uint32,uint16,bytes)[])",
      "arguments": [
        "[(30110, 1, 0x00030100110100000000000000000000000000013880), (30184, 1, 0x000301001101000000000000000000000000000186a0)]"
      ],
      "transaction": {
        "from": "0x0ece75f3c36f7df2136dac7633165dbff53de3cd",
        "to": "0xd506b22a6b3216b736021fa262d0f5d686e07b35",
        "gas": "0x1ab49",
        "value": "0x0",
        "input": "0xb98bd07000000000000000000000000000000000000000000000000000000000000000200000000000000000000000000000000000000000000000000000000000000002000000000000000000000000000000000000000000000000000000000000004000000000000000000000000000000000000000000000000000000000000000e0000000000000000000000000000000000000000000000000000000000000759e000000000000000000000000000000000000000000000000000000000000000100000000000000000000000000000000000000000000000000000000000000600000000000000000000000000000000000000000000000000000000000000016000301001101000000000000000000000000000138800000000000000000000000000000000000000000000000000000000000000000000000000000000075e8000000000000000000000000000000000000000000000000000000000000000100000000000000000000000000000000000000000000000000000000000000600000000000000000000000000000000000000000000000000000000000000016000301001101000000000000000000000000000186a000000000000000000000",
        "nonce": "0x56",
        "chainId": "0xa4b1"
      },
      "additionalContracts": [],
      "isFixedGasLimit": false
    },
    {
      "hash": "0xf2b6202fa27d7991b012c2e0526de2eb43879f4a0bdfe8fdc33c091b72708008",
      "transactionType": "CALL",
      "contractName": null,
      "contractAddress": "0x02a66b51fc24e08535a6cfe1e11e532d8a089212",
      "function": "setEnforcedOptions((uint32,uint16,bytes)[])",
      "arguments": [
        "[(30110, 1, 0x00030100110100000000000000000000000000013880), (30184, 1, 0x000301001101000000000000000000000000000186a0)]"
      ],
      "transaction": {
        "from": "0x0ece75f3c36f7df2136dac7633165dbff53de3cd",
        "to": "0x02a66b51fc24e08535a6cfe1e11e532d8a089212",
        "gas": "0x1ab01",
        "value": "0x0",
        "input": "0xb98bd07000000000000000000000000000000000000000000000000000000000000000200000000000000000000000000000000000000000000000000000000000000002000000000000000000000000000000000000000000000000000000000000004000000000000000000000000000000000000000000000000000000000000000e0000000000000000000000000000000000000000000000000000000000000759e000000000000000000000000000000000000000000000000000000000000000100000000000000000000000000000000000000000000000000000000000000600000000000000000000000000000000000000000000000000000000000000016000301001101000000000000000000000000000138800000000000000000000000000000000000000000000000000000000000000000000000000000000075e8000000000000000000000000000000000000000000000000000000000000000100000000000000000000000000000000000000000000000000000000000000600000000000000000000000000000000000000000000000000000000000000016000301001101000000000000000000000000000186a000000000000000000000",
        "nonce": "0x57",
        "chainId": "0xa4b1"
      },
      "additionalContracts": [],
      "isFixedGasLimit": false
    },
    {
      "hash": "0x9ed619e0049df7ac35bd27a18e4a469af6d6e946707c7194608d73082ab14408",
      "transactionType": "CALL",
      "contractName": null,
      "contractAddress": "0xc3be8ab4ca0cefe3119a765b324bbdf54a16a65b",
      "function": "setEnforcedOptions((uint32,uint16,bytes)[])",
      "arguments": [
        "[(30110, 1, 0x00030100110100000000000000000000000000013880), (30184, 1, 0x000301001101000000000000000000000000000186a0)]"
      ],
      "transaction": {
        "from": "0x0ece75f3c36f7df2136dac7633165dbff53de3cd",
        "to": "0xc3be8ab4ca0cefe3119a765b324bbdf54a16a65b",
        "gas": "0x1ab43",
        "value": "0x0",
        "input": "0xb98bd07000000000000000000000000000000000000000000000000000000000000000200000000000000000000000000000000000000000000000000000000000000002000000000000000000000000000000000000000000000000000000000000004000000000000000000000000000000000000000000000000000000000000000e0000000000000000000000000000000000000000000000000000000000000759e000000000000000000000000000000000000000000000000000000000000000100000000000000000000000000000000000000000000000000000000000000600000000000000000000000000000000000000000000000000000000000000016000301001101000000000000000000000000000138800000000000000000000000000000000000000000000000000000000000000000000000000000000075e8000000000000000000000000000000000000000000000000000000000000000100000000000000000000000000000000000000000000000000000000000000600000000000000000000000000000000000000000000000000000000000000016000301001101000000000000000000000000000186a000000000000000000000",
        "nonce": "0x58",
        "chainId": "0xa4b1"
      },
      "additionalContracts": [],
      "isFixedGasLimit": false
    }
  ],
  "receipts": [
    {
      "status": "0x1",
      "cumulativeGasUsed": "0x69eba",
      "logs": [
        {
          "address": "0xebb7a56fd2d0231a9bf7240542cbd09a641a29fc",
          "topics": [
            "0x238399d427b947898edb290f5ff0f9109849b1c3ba196a42e35f00c50a54b98b"
          ],
          "data": "0x00000000000000000000000000000000000000000000000000000000000075e80000000000000000000000004dbfe8f6a12e3538e4f2b3712ec81cd7a161e3bd",
          "blockHash": "0x55840d35b493459b9d2b6c7bc7343cade4fbbd78825fbca911d65c4c70f5fb96",
          "blockNumber": "0x175c83ff",
          "transactionHash": "0xea0598bec0481d1e40328a5f8ef0b1e7dc4b3b3727a29cbec7ecda61b83426bc",
          "transactionIndex": "0x7",
          "logIndex": "0x5",
          "removed": false
        }
      ],
      "logsBloom": "0x80000000000000000000000000000000000000000000000000000000000000000000000000000000000000000000000080000000000000000800000000000000000000000000000000000000000000000000000000000000000000000000000000000000000000002000000000000000000000000000000000000000000000000000000000000000000000000000000000000000000000000000000000000000000000000000000000000000000000000000000000000000000002000000000000000000000000000000000000000000000000000000000000040000000000000000000000000000000000000000000000000000000000000000000000000000",
      "type": "0x2",
      "transactionHash": "0xea0598bec0481d1e40328a5f8ef0b1e7dc4b3b3727a29cbec7ecda61b83426bc",
      "transactionIndex": "0x7",
      "blockHash": "0x55840d35b493459b9d2b6c7bc7343cade4fbbd78825fbca911d65c4c70f5fb96",
      "blockNumber": "0x175c83ff",
      "gasUsed": "0xc20d",
      "effectiveGasPrice": "0x1193830",
      "from": "0x0ece75f3c36f7df2136dac7633165dbff53de3cd",
      "to": "0xebb7a56fd2d0231a9bf7240542cbd09a641a29fc",
      "contractAddress": null,
      "gasUsedForL1": "0x7b5",
      "l1BlockNumber": "0x168870b",
      "timeboosted": false
    },
    {
      "status": "0x1",
      "cumulativeGasUsed": "0x64647",
      "logs": [
        {
          "address": "0x67165c24a886aaaf1bfa81934e44a2063c6b608c",
          "topics": [
            "0x238399d427b947898edb290f5ff0f9109849b1c3ba196a42e35f00c50a54b98b"
          ],
          "data": "0x00000000000000000000000000000000000000000000000000000000000075e800000000000000000000000090a07246df6cc23c26343fc4595ac71e834dcfd3",
          "blockHash": "0xfff60958e31673c122c126ed31fd7e5b3166aeb6e718e692cdff53e1e853e871",
          "blockNumber": "0x175c840b",
          "transactionHash": "0x897c12c3c231d951faaf52f56837e013021a990f0f7168149538b7593263102c",
          "transactionIndex": "0x8",
          "logIndex": "0x2",
          "removed": false
        }
      ],
      "logsBloom": "0x00000000000000000000000000000000000000000020000000000000000000000000000000000000000000000000000000000000000000000800000002000000000000000000000000000000000000000000000000000000000000000000000000000000000000000000000000000000000000000000000000000000000000000000000000000000000000000000000000000000000000000000000800000000000000000000000000000000000000000000000000000000000002000000000000000000000000000000000000000000000000000000000000040000000000000000000000000000000000000000000000000000000000000000000000000000",
      "type": "0x2",
      "transactionHash": "0x897c12c3c231d951faaf52f56837e013021a990f0f7168149538b7593263102c",
      "transactionIndex": "0x8",
      "blockHash": "0xfff60958e31673c122c126ed31fd7e5b3166aeb6e718e692cdff53e1e853e871",
      "blockNumber": "0x175c840b",
      "gasUsed": "0xc207",
      "effectiveGasPrice": "0x11a0b20",
      "from": "0x0ece75f3c36f7df2136dac7633165dbff53de3cd",
      "to": "0x67165c24a886aaaf1bfa81934e44a2063c6b608c",
      "contractAddress": null,
      "gasUsedForL1": "0x7af",
      "l1BlockNumber": "0x168870b",
      "timeboosted": false
    },
    {
      "status": "0x1",
      "cumulativeGasUsed": "0x9b0c4",
      "logs": [
        {
          "address": "0xa85c480f229fac050ecc53faede343628bc242cb",
          "topics": [
            "0x238399d427b947898edb290f5ff0f9109849b1c3ba196a42e35f00c50a54b98b"
          ],
          "data": "0x00000000000000000000000000000000000000000000000000000000000075e80000000000000000000000007bfa71d5f8a3bfa35384e14863e299ef20b2652a",
          "blockHash": "0x3ddba4876f02f818941e04d6aedd44c4d43c51c338a6a60bab324b86cc1e17d7",
          "blockNumber": "0x175c8417",
          "transactionHash": "0xa90200b7d04b94d8bbe561be1de3df4d9b6e36a1a39603aa3513578945db2a6e",
          "transactionIndex": "0x7",
          "logIndex": "0x6",
          "removed": false
        }
      ],
      "logsBloom": "0x00000000000000000000000000000000000000000000000000000000000000000000000000000000000000000000000000000000000000000840000000000000000000000000000000000000000000000000000000000000000000100000100000000000000000000000000000000000000000000000000000000000000000000000000000000000000000000000000000000000000000000000000000000000000000000000000000000000000000000000000000000000000002000000000000000000000000000000000000000000000000000000000000040000000000000000000000000000000000000000000000000000000000000000000000000000",
      "type": "0x2",
      "transactionHash": "0xa90200b7d04b94d8bbe561be1de3df4d9b6e36a1a39603aa3513578945db2a6e",
      "transactionIndex": "0x7",
      "blockHash": "0x3ddba4876f02f818941e04d6aedd44c4d43c51c338a6a60bab324b86cc1e17d7",
      "blockNumber": "0x175c8417",
      "gasUsed": "0xc216",
      "effectiveGasPrice": "0x117d4b8",
      "from": "0x0ece75f3c36f7df2136dac7633165dbff53de3cd",
      "to": "0xa85c480f229fac050ecc53faede343628bc242cb",
      "contractAddress": null,
      "gasUsedForL1": "0x7be",
      "l1BlockNumber": "0x168870b",
      "timeboosted": false
    },
    {
      "status": "0x1",
      "cumulativeGasUsed": "0x95cf7",
      "logs": [
        {
          "address": "0xeb36aa674745c48381aa3a8074e5485586dbd308",
          "topics": [
            "0x238399d427b947898edb290f5ff0f9109849b1c3ba196a42e35f00c50a54b98b"
          ],
          "data": "0x00000000000000000000000000000000000000000000000000000000000075e800000000000000000000000008f17ac3389f8a719602681747f668fa4efdbbab",
          "blockHash": "0xc80c04be04971d4d47bc3af636612d1ec8ac3e08dd63d9874375029055a96358",
          "blockNumber": "0x175c841c",
          "transactionHash": "0x6b6064bbe3f26431828cb46f5d9bc00e873bb327b038bc57be6e2a2a3849d49c",
          "transactionIndex": "0x6",
          "logIndex": "0xb",
          "removed": false
        }
      ],
      "logsBloom": "0x00000000000000000000000000000000000000000000000000000000000000000000000000000000000000000000000000000000000000000800000000000000000000000000000000000000000000000000000000000000000000000400000000000000000000000000000000000000000000000000000000000000000000000000000000000000000000000000000000000000000000000000000000000000000000000000000000000000000000000000000000000000000002000200000000000000000080000000000000000000000000000000000000040000000000000000000000000000000000000000000000000000000000000000000000000000",
      "type": "0x2",
      "transactionHash": "0x6b6064bbe3f26431828cb46f5d9bc00e873bb327b038bc57be6e2a2a3849d49c",
      "transactionIndex": "0x6",
      "blockHash": "0xc80c04be04971d4d47bc3af636612d1ec8ac3e08dd63d9874375029055a96358",
      "blockNumber": "0x175c841c",
      "gasUsed": "0xc220",
      "effectiveGasPrice": "0x1168c98",
      "from": "0x0ece75f3c36f7df2136dac7633165dbff53de3cd",
      "to": "0xeb36aa674745c48381aa3a8074e5485586dbd308",
      "contractAddress": null,
      "gasUsedForL1": "0x7c8",
      "l1BlockNumber": "0x168870b",
      "timeboosted": false
    },
    {
      "status": "0x1",
      "cumulativeGasUsed": "0x178f7",
      "logs": [
        {
          "address": "0xd506b22a6b3216b736021fa262d0f5d686e07b35",
          "topics": [
            "0x238399d427b947898edb290f5ff0f9109849b1c3ba196a42e35f00c50a54b98b"
          ],
          "data": "0x00000000000000000000000000000000000000000000000000000000000075e80000000000000000000000005bf04cc43cd55167eb0fef1cd6cd15da48c52490",
          "blockHash": "0xfdb50462b61227a5d928fc42da8753303eaf445b40f748e1919dbbcdc0f2f7a5",
          "blockNumber": "0x175c8421",
          "transactionHash": "0x712f9ab0beeeae19d909628aa15f673aea7912996cfff1290ed975deaad85752",
          "transactionIndex": "0x2",
          "logIndex": "0x0",
          "removed": false
        }
      ],
      "logsBloom": "0x00000000000000000000000000000000000000000000000000000000000000000000000000000000000000000000000000000000000000000800000000000000000000000000000000000000000000000000004000000000000000000000000000000000000000000000000000000000000000000000000000000000000000000000020000000000000000000000000000000000000000000000000000000000000000000000000000000000000000000000000000000000000002000000000000000000000000000000000000000000000000000000000000040000000000000000000000000000000000000000000000000000000000000000000000000000",
      "type": "0x2",
      "transactionHash": "0x712f9ab0beeeae19d909628aa15f673aea7912996cfff1290ed975deaad85752",
      "transactionIndex": "0x2",
      "blockHash": "0xfdb50462b61227a5d928fc42da8753303eaf445b40f748e1919dbbcdc0f2f7a5",
      "blockNumber": "0x175c8421",
      "gasUsed": "0xc232",
      "effectiveGasPrice": "0x113f870",
      "from": "0x0ece75f3c36f7df2136dac7633165dbff53de3cd",
      "to": "0xd506b22a6b3216b736021fa262d0f5d686e07b35",
      "contractAddress": null,
      "gasUsedForL1": "0x7da",
      "l1BlockNumber": "0x168870c",
      "timeboosted": false
    },
    {
      "status": "0x1",
      "cumulativeGasUsed": "0x7e47b",
      "logs": [
        {
          "address": "0x02a66b51fc24e08535a6cfe1e11e532d8a089212",
          "topics": [
            "0x238399d427b947898edb290f5ff0f9109849b1c3ba196a42e35f00c50a54b98b"
          ],
          "data": "0x00000000000000000000000000000000000000000000000000000000000075e8000000000000000000000000c336a7d6ff896da5e40d91e14e6c916cabe6263f",
          "blockHash": "0x7c22936759d5f9e8fe82b34ee7ca73cb9b82f37af8179d535d4a6ff8c4a27063",
          "blockNumber": "0x175c8426",
          "transactionHash": "0x9745d3ecb891dc05cc151d97484b579a838ce448669f912239360a349275cf9f",
          "transactionIndex": "0x7",
          "logIndex": "0x7",
          "removed": false
        }
      ],
      "logsBloom": "0x00000000000000000000000000000000000000000000000000000000000000000000000000000000000000000000000000000000000000000800000000000000000000000000000000000000000000000000000000000000000000000000000000000000000000000000000000000000000000000000000000000000000000000000000000000000000000000000000000000000000000000000000000000000000000000000100000000000000000000000000000000000000002000000000000000000000000000000000002000000000000000000000000040000000000000000000000000000000000000000000000000000000020000000000000000000",
      "type": "0x2",
      "transactionHash": "0x9745d3ecb891dc05cc151d97484b579a838ce448669f912239360a349275cf9f",
      "transactionIndex": "0x7",
      "blockHash": "0x7c22936759d5f9e8fe82b34ee7ca73cb9b82f37af8179d535d4a6ff8c4a27063",
      "blockNumber": "0x175c8426",
      "gasUsed": "0xc23a",
      "effectiveGasPrice": "0x112db48",
      "from": "0x0ece75f3c36f7df2136dac7633165dbff53de3cd",
      "to": "0x02a66b51fc24e08535a6cfe1e11e532d8a089212",
      "contractAddress": null,
      "gasUsedForL1": "0x7e2",
      "l1BlockNumber": "0x168870c",
      "timeboosted": false
    },
    {
      "status": "0x1",
      "cumulativeGasUsed": "0x173b9e",
      "logs": [
        {
          "address": "0xc3be8ab4ca0cefe3119a765b324bbdf54a16a65b",
          "topics": [
            "0x238399d427b947898edb290f5ff0f9109849b1c3ba196a42e35f00c50a54b98b"
          ],
          "data": "0x00000000000000000000000000000000000000000000000000000000000075e8000000000000000000000000e4e5cd067e0e4f776aacf6c008140b65efd4d7ca",
          "blockHash": "0xd9662da2e1f15790bf1f4de650c9d94789350349a687cfe039eaf166642883e5",
          "blockNumber": "0x175c842b",
          "transactionHash": "0x370cd98adbb337d54877a169772e60ffb85318b923ca39d58489d3382c7bd038",
          "transactionIndex": "0x3",
          "logIndex": "0x0",
          "removed": false
        }
      ],
      "logsBloom": "0x00000000000000000000000000000000010000000000000000000000000000000000000000000000000000000000000000000000000000000800000000000000000000000000000000000000000000000000000000000000000000000000000000000000000000000000000000000000000000000000000000000000000000000000000000000000000000000000000000000000000000000000000000000000000000000000000000000000000000000000000000000000000002000000000800000000000000000000000000000000000000000000000000440000000000000000000000000000000000000000000000000000000000000000000000000000",
      "type": "0x2",
      "transactionHash": "0x370cd98adbb337d54877a169772e60ffb85318b923ca39d58489d3382c7bd038",
      "transactionIndex": "0x3",
      "blockHash": "0xd9662da2e1f15790bf1f4de650c9d94789350349a687cfe039eaf166642883e5",
      "blockNumber": "0x175c842b",
      "gasUsed": "0xc23a",
      "effectiveGasPrice": "0x112e318",
      "from": "0x0ece75f3c36f7df2136dac7633165dbff53de3cd",
      "to": "0xc3be8ab4ca0cefe3119a765b324bbdf54a16a65b",
      "contractAddress": null,
      "gasUsedForL1": "0x7e2",
      "l1BlockNumber": "0x168870c",
      "timeboosted": false
    },
    {
      "status": "0x1",
      "cumulativeGasUsed": "0x3a834",
      "logs": [
        {
          "address": "0xebb7a56fd2d0231a9bf7240542cbd09a641a29fc",
          "topics": [
            "0xbe4864a8e820971c0247f5992e2da559595f7bf076a21cb5928d443d2a13b674"
          ],
          "data": "0x00000000000000000000000000000000000000000000000000000000000000200000000000000000000000000000000000000000000000000000000000000002000000000000000000000000000000000000000000000000000000000000004000000000000000000000000000000000000000000000000000000000000000e0000000000000000000000000000000000000000000000000000000000000759e000000000000000000000000000000000000000000000000000000000000000100000000000000000000000000000000000000000000000000000000000000600000000000000000000000000000000000000000000000000000000000000016000301001101000000000000000000000000000138800000000000000000000000000000000000000000000000000000000000000000000000000000000075e8000000000000000000000000000000000000000000000000000000000000000100000000000000000000000000000000000000000000000000000000000000600000000000000000000000000000000000000000000000000000000000000016000301001101000000000000000000000000000186a000000000000000000000",
          "blockHash": "0xcb739016f1f37d7ab182e9d92d92f08c001811c37fe0f849847e9272ea2d13f0",
          "blockNumber": "0x175c8430",
          "transactionHash": "0x757d5eb137063c01eed89833a6b069df2d4115351de8ead4fa553360afb6a770",
          "transactionIndex": "0x4",
          "logIndex": "0x1",
          "removed": false
        }
      ],
      "logsBloom": "0x80000000000000000000000000000000000000000000000000000000000000000000000000000000000000000000000080000000000000000000400000000000000000000000000000000000000000000000000000000000000000000000000000000000000000002000000000000000000000000000000000000000000000000000000000000000000000000000000000000000000000000000000000080000000000000000000000000000000000000000000000000000000000000000000000000000000000000000000002000000000000000000000000000000000000000000000000000000000000000000000000000000000000000000000000000000",
      "type": "0x2",
      "transactionHash": "0x757d5eb137063c01eed89833a6b069df2d4115351de8ead4fa553360afb6a770",
      "transactionIndex": "0x4",
      "blockHash": "0xcb739016f1f37d7ab182e9d92d92f08c001811c37fe0f849847e9272ea2d13f0",
      "blockNumber": "0x175c8430",
      "gasUsed": "0x1401e",
      "effectiveGasPrice": "0x114e2d0",
      "from": "0x0ece75f3c36f7df2136dac7633165dbff53de3cd",
      "to": "0xebb7a56fd2d0231a9bf7240542cbd09a641a29fc",
      "contractAddress": null,
      "gasUsedForL1": "0xb3e",
      "l1BlockNumber": "0x168870c",
      "timeboosted": false
    },
    {
      "status": "0x1",
      "cumulativeGasUsed": "0x640cf",
      "logs": [
        {
          "address": "0x67165c24a886aaaf1bfa81934e44a2063c6b608c",
          "topics": [
            "0xbe4864a8e820971c0247f5992e2da559595f7bf076a21cb5928d443d2a13b674"
          ],
          "data": "0x00000000000000000000000000000000000000000000000000000000000000200000000000000000000000000000000000000000000000000000000000000002000000000000000000000000000000000000000000000000000000000000004000000000000000000000000000000000000000000000000000000000000000e0000000000000000000000000000000000000000000000000000000000000759e000000000000000000000000000000000000000000000000000000000000000100000000000000000000000000000000000000000000000000000000000000600000000000000000000000000000000000000000000000000000000000000016000301001101000000000000000000000000000138800000000000000000000000000000000000000000000000000000000000000000000000000000000075e8000000000000000000000000000000000000000000000000000000000000000100000000000000000000000000000000000000000000000000000000000000600000000000000000000000000000000000000000000000000000000000000016000301001101000000000000000000000000000186a000000000000000000000",
          "blockHash": "0xf4aa1592cf1fef1177f4755a46a5f93af0a759c9e326ea2d4eca742e6ebf665b",
          "blockNumber": "0x175c8435",
          "transactionHash": "0x15514427bc1be56da7203517708b73b57ec067b0c489777d5e60a455e7a8b050",
          "transactionIndex": "0x8",
          "logIndex": "0x0",
          "removed": false
        }
      ],
      "logsBloom": "0x00000000000000000000000000000000000000000020000000000000000000000000000000000000000000000000000000000000000000000000400002000000000000000000000000000000000000000000000000000000000000000000000000000000000000000000000000000000000000000000000000000000000000000000000000000000000000000000000000000000000000000000000800080000000000000000000000000000000000000000000000000000000000000000000000000000000000000000000002000000000000000000000000000000000000000000000000000000000000000000000000000000000000000000000000000000",
      "type": "0x2",
      "transactionHash": "0x15514427bc1be56da7203517708b73b57ec067b0c489777d5e60a455e7a8b050",
      "transactionIndex": "0x8",
      "blockHash": "0xf4aa1592cf1fef1177f4755a46a5f93af0a759c9e326ea2d4eca742e6ebf665b",
      "blockNumber": "0x175c8435",
      "gasUsed": "0x14081",
      "effectiveGasPrice": "0x110d3c0",
      "from": "0x0ece75f3c36f7df2136dac7633165dbff53de3cd",
      "to": "0x67165c24a886aaaf1bfa81934e44a2063c6b608c",
      "contractAddress": null,
      "gasUsedForL1": "0xba1",
      "l1BlockNumber": "0x168870c",
      "timeboosted": false
    },
    {
      "status": "0x1",
      "cumulativeGasUsed": "0x12dc3f",
      "logs": [
        {
          "address": "0xa85c480f229fac050ecc53faede343628bc242cb",
          "topics": [
            "0xbe4864a8e820971c0247f5992e2da559595f7bf076a21cb5928d443d2a13b674"
          ],
          "data": "0x00000000000000000000000000000000000000000000000000000000000000200000000000000000000000000000000000000000000000000000000000000002000000000000000000000000000000000000000000000000000000000000004000000000000000000000000000000000000000000000000000000000000000e0000000000000000000000000000000000000000000000000000000000000759e000000000000000000000000000000000000000000000000000000000000000100000000000000000000000000000000000000000000000000000000000000600000000000000000000000000000000000000000000000000000000000000016000301001101000000000000000000000000000138800000000000000000000000000000000000000000000000000000000000000000000000000000000075e8000000000000000000000000000000000000000000000000000000000000000100000000000000000000000000000000000000000000000000000000000000600000000000000000000000000000000000000000000000000000000000000016000301001101000000000000000000000000000186a000000000000000000000",
          "blockHash": "0x9614552b815983b02ed74d141c43d156f49398b57181a6ae2eeb5dbc3b3ed354",
          "blockNumber": "0x175c8441",
          "transactionHash": "0x11d894a02be225b685954c9037379daf7bb6301d60a8a6f126eb63247c906325",
          "transactionIndex": "0x6",
          "logIndex": "0x20",
          "removed": false
        }
      ],
      "logsBloom": "0x00000000000000000000000000000000000000000000000000000000000000000000000000000000000000000000000000000000000000000040400000000000000000000000000000000000000000000000000000000000000000100000100000000000000000000000000000000000000000000000000000000000000000000000000000000000000000000000000000000000000000000000000000080000000000000000000000000000000000000000000000000000000000000000000000000000000000000000000002000000000000000000000000000000000000000000000000000000000000000000000000000000000000000000000000000000",
      "type": "0x2",
      "transactionHash": "0x11d894a02be225b685954c9037379daf7bb6301d60a8a6f126eb63247c906325",
      "transactionIndex": "0x6",
      "blockHash": "0x9614552b815983b02ed74d141c43d156f49398b57181a6ae2eeb5dbc3b3ed354",
      "blockNumber": "0x175c8441",
      "gasUsed": "0x140cc",
      "effectiveGasPrice": "0x10b2e70",
      "from": "0x0ece75f3c36f7df2136dac7633165dbff53de3cd",
      "to": "0xa85c480f229fac050ecc53faede343628bc242cb",
      "contractAddress": null,
      "gasUsedForL1": "0xbec",
      "l1BlockNumber": "0x168870c",
      "timeboosted": false
    },
    {
      "status": "0x1",
      "cumulativeGasUsed": "0x68e53",
      "logs": [
        {
          "address": "0xeb36aa674745c48381aa3a8074e5485586dbd308",
          "topics": [
            "0xbe4864a8e820971c0247f5992e2da559595f7bf076a21cb5928d443d2a13b674"
          ],
          "data": "0x00000000000000000000000000000000000000000000000000000000000000200000000000000000000000000000000000000000000000000000000000000002000000000000000000000000000000000000000000000000000000000000004000000000000000000000000000000000000000000000000000000000000000e0000000000000000000000000000000000000000000000000000000000000759e000000000000000000000000000000000000000000000000000000000000000100000000000000000000000000000000000000000000000000000000000000600000000000000000000000000000000000000000000000000000000000000016000301001101000000000000000000000000000138800000000000000000000000000000000000000000000000000000000000000000000000000000000075e8000000000000000000000000000000000000000000000000000000000000000100000000000000000000000000000000000000000000000000000000000000600000000000000000000000000000000000000000000000000000000000000016000301001101000000000000000000000000000186a000000000000000000000",
          "blockHash": "0x0904f2a343e7a9b23f28f5e975451d0eca2e3b4c16a709d83fb3cb229389be03",
          "blockNumber": "0x175c8446",
          "transactionHash": "0xe42cb0313b2a8f9b1724441f5f6b3ffbbf94939cccbb3ceaf039fbad84d4d0f4",
          "transactionIndex": "0x7",
          "logIndex": "0x4",
          "removed": false
        }
      ],
      "logsBloom": "0x00000000000000000000000000000000000000000000000000000000000000000000000000000000000000000000000000000000000000000000400000000000000000000000000000000000000000000000000000000000000000000400000000000000000000000000000000000000000000000000000000000000000000000000000000000000000000000000000000000000000000000000000000080000000000000000000000000000000000000000000000000000000000000200000000000000000080000000000002000000000000000000000000000000000000000000000000000000000000000000000000000000000000000000000000000000",
      "type": "0x2",
      "transactionHash": "0xe42cb0313b2a8f9b1724441f5f6b3ffbbf94939cccbb3ceaf039fbad84d4d0f4",
      "transactionIndex": "0x7",
      "blockHash": "0x0904f2a343e7a9b23f28f5e975451d0eca2e3b4c16a709d83fb3cb229389be03",
      "blockNumber": "0x175c8446",
      "gasUsed": "0x140c6",
      "effectiveGasPrice": "0x10ca570",
      "from": "0x0ece75f3c36f7df2136dac7633165dbff53de3cd",
      "to": "0xeb36aa674745c48381aa3a8074e5485586dbd308",
      "contractAddress": null,
      "gasUsedForL1": "0xbe6",
      "l1BlockNumber": "0x168870c",
      "timeboosted": false
    },
    {
      "status": "0x1",
      "cumulativeGasUsed": "0x3e484b",
      "logs": [
        {
          "address": "0xd506b22a6b3216b736021fa262d0f5d686e07b35",
          "topics": [
            "0xbe4864a8e820971c0247f5992e2da559595f7bf076a21cb5928d443d2a13b674"
          ],
          "data": "0x00000000000000000000000000000000000000000000000000000000000000200000000000000000000000000000000000000000000000000000000000000002000000000000000000000000000000000000000000000000000000000000004000000000000000000000000000000000000000000000000000000000000000e0000000000000000000000000000000000000000000000000000000000000759e000000000000000000000000000000000000000000000000000000000000000100000000000000000000000000000000000000000000000000000000000000600000000000000000000000000000000000000000000000000000000000000016000301001101000000000000000000000000000138800000000000000000000000000000000000000000000000000000000000000000000000000000000075e8000000000000000000000000000000000000000000000000000000000000000100000000000000000000000000000000000000000000000000000000000000600000000000000000000000000000000000000000000000000000000000000016000301001101000000000000000000000000000186a000000000000000000000",
          "blockHash": "0x8374207ea53447465c02a46a4eb7dd255dc32b7dabf727cd6141353528ec22fc",
          "blockNumber": "0x175c844b",
          "transactionHash": "0x8007ea43c73db4850b8b3ee6e92569e1d2eafdb4d5146a84a40af789d3c574d7",
          "transactionIndex": "0x4",
          "logIndex": "0x2e",
          "removed": false
        }
      ],
      "logsBloom": "0x00000000000000000000000000000000000000000000000000000000000000000000000000000000000000000000000000000000000000000000400000000000000000000000000000000000000000000000004000000000000000000000000000000000000000000000000000000000000000000000000000000000000000000000020000000000000000000000000000000000000000000000000000080000000000000000000000000000000000000000000000000000000002000000000000000000000000000000000002000000000000000000000000000000000000000000000000000000000000000000000000000000000000000000000000000000",
      "type": "0x2",
      "transactionHash": "0x8007ea43c73db4850b8b3ee6e92569e1d2eafdb4d5146a84a40af789d3c574d7",
      "transactionIndex": "0x4",
      "blockHash": "0x8374207ea53447465c02a46a4eb7dd255dc32b7dabf727cd6141353528ec22fc",
      "blockNumber": "0x175c844b",
      "gasUsed": "0x140db",
      "effectiveGasPrice": "0x10dca68",
      "from": "0x0ece75f3c36f7df2136dac7633165dbff53de3cd",
      "to": "0xd506b22a6b3216b736021fa262d0f5d686e07b35",
      "contractAddress": null,
      "gasUsedForL1": "0xbfb",
      "l1BlockNumber": "0x168870c",
      "timeboosted": false
    },
    {
      "status": "0x1",
      "cumulativeGasUsed": "0xe7efb",
      "logs": [
        {
          "address": "0x02a66b51fc24e08535a6cfe1e11e532d8a089212",
          "topics": [
            "0xbe4864a8e820971c0247f5992e2da559595f7bf076a21cb5928d443d2a13b674"
          ],
          "data": "0x00000000000000000000000000000000000000000000000000000000000000200000000000000000000000000000000000000000000000000000000000000002000000000000000000000000000000000000000000000000000000000000004000000000000000000000000000000000000000000000000000000000000000e0000000000000000000000000000000000000000000000000000000000000759e000000000000000000000000000000000000000000000000000000000000000100000000000000000000000000000000000000000000000000000000000000600000000000000000000000000000000000000000000000000000000000000016000301001101000000000000000000000000000138800000000000000000000000000000000000000000000000000000000000000000000000000000000075e8000000000000000000000000000000000000000000000000000000000000000100000000000000000000000000000000000000000000000000000000000000600000000000000000000000000000000000000000000000000000000000000016000301001101000000000000000000000000000186a000000000000000000000",
          "blockHash": "0x9ef8b031d8386765e71e4d840a7be32e785b588f0cd4d0ee455077513610fe01",
          "blockNumber": "0x175c8451",
          "transactionHash": "0xf2b6202fa27d7991b012c2e0526de2eb43879f4a0bdfe8fdc33c091b72708008",
          "transactionIndex": "0xa",
          "logIndex": "0xd",
          "removed": false
        }
      ],
      "logsBloom": "0x00000000000000000000000000000000000000000000000000000000000000000000000000000000000000000000000000000000000000000000400000000000000000000000000000000000000000000000000000000000000000000000000000000000000000000000000000000000000000000000000000000000000000000000000000000000000000000000000000000000000000000000000000080000000000000000100000000000000000000000000000000000000000000000000000000000000000000000000002000000000000000000000000000000000000000000000000000000000000000000000000000000000020000000000000000000",
      "type": "0x2",
      "transactionHash": "0xf2b6202fa27d7991b012c2e0526de2eb43879f4a0bdfe8fdc33c091b72708008",
      "transactionIndex": "0xa",
      "blockHash": "0x9ef8b031d8386765e71e4d840a7be32e785b588f0cd4d0ee455077513610fe01",
      "blockNumber": "0x175c8451",
      "gasUsed": "0x1409d",
      "effectiveGasPrice": "0x10b41f8",
      "from": "0x0ece75f3c36f7df2136dac7633165dbff53de3cd",
      "to": "0x02a66b51fc24e08535a6cfe1e11e532d8a089212",
      "contractAddress": null,
      "gasUsedForL1": "0xbbd",
      "l1BlockNumber": "0x168870c",
      "timeboosted": false
    },
    {
      "status": "0x1",
      "cumulativeGasUsed": "0xf37a9",
      "logs": [
        {
          "address": "0xc3be8ab4ca0cefe3119a765b324bbdf54a16a65b",
          "topics": [
            "0xbe4864a8e820971c0247f5992e2da559595f7bf076a21cb5928d443d2a13b674"
          ],
          "data": "0x00000000000000000000000000000000000000000000000000000000000000200000000000000000000000000000000000000000000000000000000000000002000000000000000000000000000000000000000000000000000000000000004000000000000000000000000000000000000000000000000000000000000000e0000000000000000000000000000000000000000000000000000000000000759e000000000000000000000000000000000000000000000000000000000000000100000000000000000000000000000000000000000000000000000000000000600000000000000000000000000000000000000000000000000000000000000016000301001101000000000000000000000000000138800000000000000000000000000000000000000000000000000000000000000000000000000000000075e8000000000000000000000000000000000000000000000000000000000000000100000000000000000000000000000000000000000000000000000000000000600000000000000000000000000000000000000000000000000000000000000016000301001101000000000000000000000000000186a000000000000000000000",
          "blockHash": "0x975757800bf420299f71736ebb0125cefa66920e015a9a1d5aa5af61e7c9c1e0",
          "blockNumber": "0x175c8463",
          "transactionHash": "0x9ed619e0049df7ac35bd27a18e4a469af6d6e946707c7194608d73082ab14408",
          "transactionIndex": "0x10",
          "logIndex": "0x9",
          "removed": false
        }
      ],
      "logsBloom": "0x00000000000000000000000000000000010000000000000000000000000000000000000000000000000000000000000000000000000000000000400000000000000000000000000000000000000000000000000000000000000000000000000000000000000000000000000000000000000000000000000000000000000000000000000000000000000000000000000000000000000000000000000000080000000000000000000000000000000000000000000000000000000000000000000800000000000000000000000002000000000000000000000000400000000000000000000000000000000000000000000000000000000000000000000000000000",
      "type": "0x2",
      "transactionHash": "0x9ed619e0049df7ac35bd27a18e4a469af6d6e946707c7194608d73082ab14408",
      "transactionIndex": "0x10",
      "blockHash": "0x975757800bf420299f71736ebb0125cefa66920e015a9a1d5aa5af61e7c9c1e0",
      "blockNumber": "0x175c8463",
      "gasUsed": "0x14109",
      "effectiveGasPrice": "0x10bd668",
      "from": "0x0ece75f3c36f7df2136dac7633165dbff53de3cd",
      "to": "0xc3be8ab4ca0cefe3119a765b324bbdf54a16a65b",
      "contractAddress": null,
      "gasUsedForL1": "0xc29",
      "l1BlockNumber": "0x168870d",
      "timeboosted": false
    }
  ],
  "libraries": [],
  "pending": [],
  "returns": {},
  "timestamp": 1761069073150,
  "chain": 42161,
  "commit": "df18ae1"
}