{
  "deployments": [
    {
      "transactions": [
        {
          "hash": "0x3eade4f3ca26f9fa6d2ef8a5e3ea79417336b82e7ab32fe0edcdeef54f11bde2",
          "transactionType": "CALL",
          "contractName": null,
          "contractAddress": "0x5a0971e3d6e0793b9fce640e821435fd8f9fd906",
          "function": "setEnforcedOptions((uint32,uint16,bytes)[])",
          "arguments": [
            "[(30184, 1, 0x00030100110100000000000000000000000000013880), (30111, 1, 0x000301001101000000000000000000000000000186a0)]"
          ],
          "transaction": {
            "from": "0x0ece75f3c36f7df2136dac7633165dbff53de3cd",
            "to": "0x5a0971e3d6e0793b9fce640e821435fd8f9fd906",
            "gas": "0x1bd63",
            "value": "0x0",
            "input": "0xb98bd07000000000000000000000000000000000000000000000000000000000000000200000000000000000000000000000000000000000000000000000000000000002000000000000000000000000000000000000000000000000000000000000004000000000000000000000000000000000000000000000000000000000000000e000000000000000000000000000000000000000000000000000000000000075e80000000000000000000000000000000000000000000000000000000000000001000000000000000000000000000000000000000000000000000000000000006000000000000000000000000000000000000000000000000000000000000000160003010011010000000000000000000000000001388000000000000000000000000000000000000000000000000000000000000000000000000000000000759f000000000000000000000000000000000000000000000000000000000000000100000000000000000000000000000000000000000000000000000000000000600000000000000000000000000000000000000000000000000000000000000016000301001101000000000000000000000000000186a000000000000000000000",
            "nonce": "0x1af",
            "chainId": "0x2105"
          },
          "additionalContracts": [],
          "isFixedGasLimit": false
        },
        {
          "hash": "0x94b62f429dfe2932319c8d74baaad55a47725b42e9d11a8fc44c35258d99d783",
          "transactionType": "CALL",
          "contractName": null,
          "contractAddress": "0x2e18dc8038252fe4855ac66f4ab73abe3a18b91c",
          "function": "setEnforcedOptions((uint32,uint16,bytes)[])",
          "arguments": [
            "[(30184, 1, 0x00030100110100000000000000000000000000013880), (30111, 1, 0x000301001101000000000000000000000000000186a0)]"
          ],
          "transaction": {
            "from": "0x0ece75f3c36f7df2136dac7633165dbff53de3cd",
            "to": "0x2e18dc8038252fe4855ac66f4ab73abe3a18b91c",
            "gas": "0x1bd63",
            "value": "0x0",
            "input": "0xb98bd07000000000000000000000000000000000000000000000000000000000000000200000000000000000000000000000000000000000000000000000000000000002000000000000000000000000000000000000000000000000000000000000004000000000000000000000000000000000000000000000000000000000000000e000000000000000000000000000000000000000000000000000000000000075e80000000000000000000000000000000000000000000000000000000000000001000000000000000000000000000000000000000000000000000000000000006000000000000000000000000000000000000000000000000000000000000000160003010011010000000000000000000000000001388000000000000000000000000000000000000000000000000000000000000000000000000000000000759f000000000000000000000000000000000000000000000000000000000000000100000000000000000000000000000000000000000000000000000000000000600000000000000000000000000000000000000000000000000000000000000016000301001101000000000000000000000000000186a000000000000000000000",
            "nonce": "0x1b0",
            "chainId": "0x2105"
          },
          "additionalContracts": [],
          "isFixedGasLimit": false
        },
        {
          "hash": "0xfa318c59b5d09a3378838779d41f11be506c31ed14d97f58481d898989133f11",
          "transactionType": "CALL",
          "contractName": null,
          "contractAddress": "0x530a9078023bed663482d26cedb2bdf8d1d881ea",
          "function": "setEnforcedOptions((uint32,uint16,bytes)[])",
          "arguments": [
            "[(30184, 1, 0x00030100110100000000000000000000000000013880), (30111, 1, 0x000301001101000000000000000000000000000186a0)]"
          ],
          "transaction": {
            "from": "0x0ece75f3c36f7df2136dac7633165dbff53de3cd",
            "to": "0x530a9078023bed663482d26cedb2bdf8d1d881ea",
            "gas": "0x1bd63",
            "value": "0x0",
            "input": "0xb98bd07000000000000000000000000000000000000000000000000000000000000000200000000000000000000000000000000000000000000000000000000000000002000000000000000000000000000000000000000000000000000000000000004000000000000000000000000000000000000000000000000000000000000000e000000000000000000000000000000000000000000000000000000000000075e80000000000000000000000000000000000000000000000000000000000000001000000000000000000000000000000000000000000000000000000000000006000000000000000000000000000000000000000000000000000000000000000160003010011010000000000000000000000000001388000000000000000000000000000000000000000000000000000000000000000000000000000000000759f000000000000000000000000000000000000000000000000000000000000000100000000000000000000000000000000000000000000000000000000000000600000000000000000000000000000000000000000000000000000000000000016000301001101000000000000000000000000000186a000000000000000000000",
            "nonce": "0x1b1",
            "chainId": "0x2105"
          },
          "additionalContracts": [],
          "isFixedGasLimit": false
        },
        {
          "hash": "0x8f7cad2dd4dd475c7149595ca9a36d41f4bdcfd270b044f452f57e142057d419",
          "transactionType": "CALL",
          "contractName": null,
          "contractAddress": "0x2c4fdc631ce418196ab9835aab82227a62c14c75",
          "function": "setEnforcedOptions((uint32,uint16,bytes)[])",
          "arguments": [
            "[(30184, 1, 0x00030100110100000000000000000000000000013880), (30111, 1, 0x000301001101000000000000000000000000000186a0)]"
          ],
          "transaction": {
            "from": "0x0ece75f3c36f7df2136dac7633165dbff53de3cd",
            "to": "0x2c4fdc631ce418196ab9835aab82227a62c14c75",
            "gas": "0x1bd63",
            "value": "0x0",
            "input": "0xb98bd07000000000000000000000000000000000000000000000000000000000000000200000000000000000000000000000000000000000000000000000000000000002000000000000000000000000000000000000000000000000000000000000004000000000000000000000000000000000000000000000000000000000000000e000000000000000000000000000000000000000000000000000000000000075e80000000000000000000000000000000000000000000000000000000000000001000000000000000000000000000000000000000000000000000000000000006000000000000000000000000000000000000000000000000000000000000000160003010011010000000000000000000000000001388000000000000000000000000000000000000000000000000000000000000000000000000000000000759f000000000000000000000000000000000000000000000000000000000000000100000000000000000000000000000000000000000000000000000000000000600000000000000000000000000000000000000000000000000000000000000016000301001101000000000000000000000000000186a000000000000000000000",
            "nonce": "0x1b2",
            "chainId": "0x2105"
          },
          "additionalContracts": [],
          "isFixedGasLimit": false
        }
      ],
      "receipts": [
        {
          "status": "0x1",
          "cumulativeGasUsed": "0x1f5a22b",
          "logs": [
            {
              "address": "0x5a0971e3d6e0793b9fce640e821435fd8f9fd906",
              "topics": [
                "0xbe4864a8e820971c0247f5992e2da559595f7bf076a21cb5928d443d2a13b674"
              ],
              "data": "0x00000000000000000000000000000000000000000000000000000000000000200000000000000000000000000000000000000000000000000000000000000002000000000000000000000000000000000000000000000000000000000000004000000000000000000000000000000000000000000000000000000000000000e000000000000000000000000000000000000000000000000000000000000075e80000000000000000000000000000000000000000000000000000000000000001000000000000000000000000000000000000000000000000000000000000006000000000000000000000000000000000000000000000000000000000000000160003010011010000000000000000000000000001388000000000000000000000000000000000000000000000000000000000000000000000000000000000759f000000000000000000000000000000000000000000000000000000000000000100000000000000000000000000000000000000000000000000000000000000600000000000000000000000000000000000000000000000000000000000000016000301001101000000000000000000000000000186a000000000000000000000",
              "blockHash": "0xfc3c536e6daf132bbf36d6c65e4094afe9cbd0e3246c05bd9d0f127d1f4b708d",
              "blockNumber": "0x2244490",
              "blockTimestamp": "0x68d2e603",
              "transactionHash": "0x3eade4f3ca26f9fa6d2ef8a5e3ea79417336b82e7ab32fe0edcdeef54f11bde2",
              "transactionIndex": "0x69",
              "logIndex": "0x1c8",
              "removed": false
            }
          ],
          "logsBloom": "0x00000000000000000000000010000000000000000000000000000000000000000000000000000000000000000000000000000000000000000000400000000000000000000000000000000000000000000000000000000000000000000000000000000000000000000000000000000000000000000000000000000000000000000000000000000000000000000000000000000000000000000000000000080200000000000000000000000000000000000008000000000000000000000000000000000000000000000000000002000000000000000000000000000000000000000000000000000000000000000000000000000000000000000000000000000000",
          "type": "0x2",
          "transactionHash": "0x3eade4f3ca26f9fa6d2ef8a5e3ea79417336b82e7ab32fe0edcdeef54f11bde2",
          "transactionIndex": "0x69",
          "blockHash": "0xfc3c536e6daf132bbf36d6c65e4094afe9cbd0e3246c05bd9d0f127d1f4b708d",
          "blockNumber": "0x2244490",
          "gasUsed": "0x14274",
          "effectiveGasPrice": "0x45596d",
          "from": "0x0ece75f3c36f7df2136dac7633165dbff53de3cd",
          "to": "0x5a0971e3d6e0793b9fce640e821435fd8f9fd906",
          "contractAddress": null,
          "l1BaseFeeScalar": "0x8dd",
          "l1BlobBaseFee": "0x17",
          "l1BlobBaseFeeScalar": "0x101c12",
          "l1Fee": "0x7895869e",
          "l1GasPrice": "0x17e82b39",
          "l1GasUsed": "0x8ae"
        },
        {
          "status": "0x1",
          "cumulativeGasUsed": "0x1f6e49f",
          "logs": [
            {
              "address": "0x2e18dc8038252fe4855ac66f4ab73abe3a18b91c",
              "topics": [
                "0xbe4864a8e820971c0247f5992e2da559595f7bf076a21cb5928d443d2a13b674"
              ],
              "data": "0x00000000000000000000000000000000000000000000000000000000000000200000000000000000000000000000000000000000000000000000000000000002000000000000000000000000000000000000000000000000000000000000004000000000000000000000000000000000000000000000000000000000000000e000000000000000000000000000000000000000000000000000000000000075e80000000000000000000000000000000000000000000000000000000000000001000000000000000000000000000000000000000000000000000000000000006000000000000000000000000000000000000000000000000000000000000000160003010011010000000000000000000000000001388000000000000000000000000000000000000000000000000000000000000000000000000000000000759f000000000000000000000000000000000000000000000000000000000000000100000000000000000000000000000000000000000000000000000000000000600000000000000000000000000000000000000000000000000000000000000016000301001101000000000000000000000000000186a000000000000000000000",
              "blockHash": "0xfc3c536e6daf132bbf36d6c65e4094afe9cbd0e3246c05bd9d0f127d1f4b708d",
              "blockNumber": "0x2244490",
              "blockTimestamp": "0x68d2e603",
              "transactionHash": "0x94b62f429dfe2932319c8d74baaad55a47725b42e9d11a8fc44c35258d99d783",
              "transactionIndex": "0x6a",
              "logIndex": "0x1c9",
              "removed": false
            }
          ],
          "logsBloom": "0x00000000000000000000000000000000000000000000100000000000000000000000000000000000000000000000000000000000000000000000400000000000000000000000000000000000000000000000000100000000000000000000000000000000000000000000000000000000000000000000000000000000000000000000000000000000000000000000000000000000000000000000000000080000000000000000000000000000000000000000000000000000000000000000000000000000000000000000000002000000000000000000000000000000000000000000000000000000400000000000000000000000000000000000000000000000",
          "type": "0x2",
          "transactionHash": "0x94b62f429dfe2932319c8d74baaad55a47725b42e9d11a8fc44c35258d99d783",
          "transactionIndex": "0x6a",
          "blockHash": "0xfc3c536e6daf132bbf36d6c65e4094afe9cbd0e3246c05bd9d0f127d1f4b708d",
          "blockNumber": "0x2244490",
          "gasUsed": "0x14274",
          "effectiveGasPrice": "0x45596d",
          "from": "0x0ece75f3c36f7df2136dac7633165dbff53de3cd",
          "to": "0x2e18dc8038252fe4855ac66f4ab73abe3a18b91c",
          "contractAddress": null,
          "l1BaseFeeScalar": "0x8dd",
          "l1BlobBaseFee": "0x17",
          "l1BlobBaseFeeScalar": "0x101c12",
          "l1Fee": "0x7895869e",
          "l1GasPrice": "0x17e82b39",
          "l1GasUsed": "0x8ae"
        },
        {
          "status": "0x1",
          "cumulativeGasUsed": "0x1f82713",
          "logs": [
            {
              "address": "0x530a9078023bed663482d26cedb2bdf8d1d881ea",
              "topics": [
                "0xbe4864a8e820971c0247f5992e2da559595f7bf076a21cb5928d443d2a13b674"
              ],
              "data": "0x00000000000000000000000000000000000000000000000000000000000000200000000000000000000000000000000000000000000000000000000000000002000000000000000000000000000000000000000000000000000000000000004000000000000000000000000000000000000000000000000000000000000000e000000000000000000000000000000000000000000000000000000000000075e80000000000000000000000000000000000000000000000000000000000000001000000000000000000000000000000000000000000000000000000000000006000000000000000000000000000000000000000000000000000000000000000160003010011010000000000000000000000000001388000000000000000000000000000000000000000000000000000000000000000000000000000000000759f000000000000000000000000000000000000000000000000000000000000000100000000000000000000000000000000000000000000000000000000000000600000000000000000000000000000000000000000000000000000000000000016000301001101000000000000000000000000000186a000000000000000000000",
              "blockHash": "0xfc3c536e6daf132bbf36d6c65e4094afe9cbd0e3246c05bd9d0f127d1f4b708d",
              "blockNumber": "0x2244490",
              "blockTimestamp": "0x68d2e603",
              "transactionHash": "0xfa318c59b5d09a3378838779d41f11be506c31ed14d97f58481d898989133f11",
              "transactionIndex": "0x6b",
              "logIndex": "0x1ca",
              "removed": false
            }
          ],
          "logsBloom": "0x00000000000000000000000000000000000000000000000000000000000000000000000000000000000000000000800000000000000000000000400000000000000000000000000000000000000000000000000000000000000000000000000000000000000000000000000000000000000000000000000000000000000000000000000000000000000010000000000000000000000000000000000000080000000000000000000000000000000000000000000000000000000000000000000000000000000000000000000002000000000000000000000000000000000000000400000000000000000000000000000000000000000000000000000000000000",
          "type": "0x2",
          "transactionHash": "0xfa318c59b5d09a3378838779d41f11be506c31ed14d97f58481d898989133f11",
          "transactionIndex": "0x6b",
          "blockHash": "0xfc3c536e6daf132bbf36d6c65e4094afe9cbd0e3246c05bd9d0f127d1f4b708d",
          "blockNumber": "0x2244490",
          "gasUsed": "0x14274",
          "effectiveGasPrice": "0x45596d",
          "from": "0x0ece75f3c36f7df2136dac7633165dbff53de3cd",
          "to": "0x530a9078023bed663482d26cedb2bdf8d1d881ea",
          "contractAddress": null,
          "l1BaseFeeScalar": "0x8dd",
          "l1BlobBaseFee": "0x17",
          "l1BlobBaseFeeScalar": "0x101c12",
          "l1Fee": "0x7895869e",
          "l1GasPrice": "0x17e82b39",
          "l1GasUsed": "0x8ae"
        },
        {
          "status": "0x1",
          "cumulativeGasUsed": "0x1f96987",
          "logs": [
            {
              "address": "0x2c4fdc631ce418196ab9835aab82227a62c14c75",
              "topics": [
                "0xbe4864a8e820971c0247f5992e2da559595f7bf076a21cb5928d443d2a13b674"
              ],
              "data": "0x00000000000000000000000000000000000000000000000000000000000000200000000000000000000000000000000000000000000000000000000000000002000000000000000000000000000000000000000000000000000000000000004000000000000000000000000000000000000000000000000000000000000000e000000000000000000000000000000000000000000000000000000000000075e80000000000000000000000000000000000000000000000000000000000000001000000000000000000000000000000000000000000000000000000000000006000000000000000000000000000000000000000000000000000000000000000160003010011010000000000000000000000000001388000000000000000000000000000000000000000000000000000000000000000000000000000000000759f000000000000000000000000000000000000000000000000000000000000000100000000000000000000000000000000000000000000000000000000000000600000000000000000000000000000000000000000000000000000000000000016000301001101000000000000000000000000000186a000000000000000000000",
              "blockHash": "0xfc3c536e6daf132bbf36d6c65e4094afe9cbd0e3246c05bd9d0f127d1f4b708d",
              "blockNumber": "0x2244490",
              "blockTimestamp": "0x68d2e603",
              "transactionHash": "0x8f7cad2dd4dd475c7149595ca9a36d41f4bdcfd270b044f452f57e142057d419",
              "transactionIndex": "0x6c",
              "logIndex": "0x1cb",
              "removed": false
            }
          ],
          "logsBloom": "0x00000000000000000000000000000000000000004000000000000000000000000000000000000000000000000000000000000000000000000000400000000000000000000000000000000000000000000000000000000000000000000000200000000000000000000000000000000000000000000000000000000000000000000000000000000000000000000000000000000000000000000000000000080000000002000000000000000000000000000000000000000000000000000000000000000000000000000000000002000000000000000000000000000000000000000000000000000000000000000000000000000000000000000000000000000000",
          "type": "0x2",
          "transactionHash": "0x8f7cad2dd4dd475c7149595ca9a36d41f4bdcfd270b044f452f57e142057d419",
          "transactionIndex": "0x6c",
          "blockHash": "0xfc3c536e6daf132bbf36d6c65e4094afe9cbd0e3246c05bd9d0f127d1f4b708d",
          "blockNumber": "0x2244490",
          "gasUsed": "0x14274",
          "effectiveGasPrice": "0x45596d",
          "from": "0x0ece75f3c36f7df2136dac7633165dbff53de3cd",
          "to": "0x2c4fdc631ce418196ab9835aab82227a62c14c75",
          "contractAddress": null,
          "l1BaseFeeScalar": "0x8dd",
          "l1BlobBaseFee": "0x17",
          "l1BlobBaseFeeScalar": "0x101c12",
          "l1Fee": "0x7895869e",
          "l1GasPrice": "0x17e82b39",
          "l1GasUsed": "0x8ae"
        }
      ],
      "libraries": [],
      "pending": [],
      "returns": {},
      "timestamp": 1758651904784,
      "chain": 8453,
      "commit": "53213c9"
    },
    {
      "transactions": [
        {
          "hash": "0x102864c56ec0efc165fdee814175211091b466209d1287636f745871cbcd6bbb",
          "transactionType": "CALL",
          "contractName": null,
          "contractAddress": "0x10fd0d8280e94d0dbc3013b778ef26d47105ea7b",
          "function": "setEnforcedOptions((uint32,uint16,bytes)[])",
          "arguments": [
            "[(30111, 1, 0x00030100110100000000000000000000000000013880), (30184, 1, 0x000301001101000000000000000000000000000186a0)]"
          ],
          "transaction": {
            "from": "0x0ece75f3c36f7df2136dac7633165dbff53de3cd",
            "to": "0x10fd0d8280e94d0dbc3013b778ef26d47105ea7b",
            "gas": "0x1bd63",
            "value": "0x0",
            "input": "0xb98bd07000000000000000000000000000000000000000000000000000000000000000200000000000000000000000000000000000000000000000000000000000000002000000000000000000000000000000000000000000000000000000000000004000000000000000000000000000000000000000000000000000000000000000e0000000000000000000000000000000000000000000000000000000000000759f000000000000000000000000000000000000000000000000000000000000000100000000000000000000000000000000000000000000000000000000000000600000000000000000000000000000000000000000000000000000000000000016000301001101000000000000000000000000000138800000000000000000000000000000000000000000000000000000000000000000000000000000000075e8000000000000000000000000000000000000000000000000000000000000000100000000000000000000000000000000000000000000000000000000000000600000000000000000000000000000000000000000000000000000000000000016000301001101000000000000000000000000000186a000000000000000000000",
            "nonce": "0x3a",
            "chainId": "0xa"
          },
          "additionalContracts": [],
          "isFixedGasLimit": false
        },
        {
          "hash": "0xc11a0ccd16c1b2431ced3135e515ed5ffedc733aeeb1f68254ab085964b6057d",
          "transactionType": "CALL",
          "contractName": null,
          "contractAddress": "0x9f3d0beafad726bcfd3799f2b7b42eab889ac333",
          "function": "setEnforcedOptions((uint32,uint16,bytes)[])",
          "arguments": [
            "[(30111, 1, 0x00030100110100000000000000000000000000013880), (30184, 1, 0x000301001101000000000000000000000000000186a0)]"
          ],
          "transaction": {
            "from": "0x0ece75f3c36f7df2136dac7633165dbff53de3cd",
            "to": "0x9f3d0beafad726bcfd3799f2b7b42eab889ac333",
            "gas": "0x1bd63",
            "value": "0x0",
            "input": "0xb98bd07000000000000000000000000000000000000000000000000000000000000000200000000000000000000000000000000000000000000000000000000000000002000000000000000000000000000000000000000000000000000000000000004000000000000000000000000000000000000000000000000000000000000000e0000000000000000000000000000000000000000000000000000000000000759f000000000000000000000000000000000000000000000000000000000000000100000000000000000000000000000000000000000000000000000000000000600000000000000000000000000000000000000000000000000000000000000016000301001101000000000000000000000000000138800000000000000000000000000000000000000000000000000000000000000000000000000000000075e8000000000000000000000000000000000000000000000000000000000000000100000000000000000000000000000000000000000000000000000000000000600000000000000000000000000000000000000000000000000000000000000016000301001101000000000000000000000000000186a000000000000000000000",
            "nonce": "0x3b",
            "chainId": "0xa"
          },
          "additionalContracts": [],
          "isFixedGasLimit": false
        },
        {
          "hash": "0xdbc2e638a1412b4d3bb8f470dec26e5e1ee76261e38c3ec7b8420884e412ad33",
          "transactionType": "CALL",
          "contractName": null,
          "contractAddress": "0x27eeda6b30dfce416d5de397c78f1e3c87e557bb",
          "function": "setEnforcedOptions((uint32,uint16,bytes)[])",
          "arguments": [
            "[(30111, 1, 0x00030100110100000000000000000000000000013880), (30184, 1, 0x000301001101000000000000000000000000000186a0)]"
          ],
          "transaction": {
            "from": "0x0ece75f3c36f7df2136dac7633165dbff53de3cd",
            "to": "0x27eeda6b30dfce416d5de397c78f1e3c87e557bb",
            "gas": "0x1bd63",
            "value": "0x0",
            "input": "0xb98bd07000000000000000000000000000000000000000000000000000000000000000200000000000000000000000000000000000000000000000000000000000000002000000000000000000000000000000000000000000000000000000000000004000000000000000000000000000000000000000000000000000000000000000e0000000000000000000000000000000000000000000000000000000000000759f000000000000000000000000000000000000000000000000000000000000000100000000000000000000000000000000000000000000000000000000000000600000000000000000000000000000000000000000000000000000000000000016000301001101000000000000000000000000000138800000000000000000000000000000000000000000000000000000000000000000000000000000000075e8000000000000000000000000000000000000000000000000000000000000000100000000000000000000000000000000000000000000000000000000000000600000000000000000000000000000000000000000000000000000000000000016000301001101000000000000000000000000000186a000000000000000000000",
            "nonce": "0x3c",
            "chainId": "0xa"
          },
          "additionalContracts": [],
          "isFixedGasLimit": false
        },
        {
          "hash": "0x3b26942b8889a64dd95df712e45ddbab50b6d4188d4dadb34028fb7ca0ce73a7",
          "transactionType": "CALL",
          "contractName": null,
          "contractAddress": "0x5cf7bb8568491bb50a1941994fd3da4adf34fe28",
          "function": "setEnforcedOptions((uint32,uint16,bytes)[])",
          "arguments": [
            "[(30111, 1, 0x00030100110100000000000000000000000000013880), (30184, 1, 0x000301001101000000000000000000000000000186a0)]"
          ],
          "transaction": {
            "from": "0x0ece75f3c36f7df2136dac7633165dbff53de3cd",
            "to": "0x5cf7bb8568491bb50a1941994fd3da4adf34fe28",
            "gas": "0x1bd63",
            "value": "0x0",
            "input": "0xb98bd07000000000000000000000000000000000000000000000000000000000000000200000000000000000000000000000000000000000000000000000000000000002000000000000000000000000000000000000000000000000000000000000004000000000000000000000000000000000000000000000000000000000000000e0000000000000000000000000000000000000000000000000000000000000759f000000000000000000000000000000000000000000000000000000000000000100000000000000000000000000000000000000000000000000000000000000600000000000000000000000000000000000000000000000000000000000000016000301001101000000000000000000000000000138800000000000000000000000000000000000000000000000000000000000000000000000000000000075e8000000000000000000000000000000000000000000000000000000000000000100000000000000000000000000000000000000000000000000000000000000600000000000000000000000000000000000000000000000000000000000000016000301001101000000000000000000000000000186a000000000000000000000",
            "nonce": "0x3d",
            "chainId": "0xa"
          },
          "additionalContracts": [],
          "isFixedGasLimit": false
        }
      ],
      "receipts": [
        {
          "status": "0x1",
          "cumulativeGasUsed": "0x7c2688",
          "logs": [
            {
              "address": "0x10fd0d8280e94d0dbc3013b778ef26d47105ea7b",
              "topics": [
                "0xbe4864a8e820971c0247f5992e2da559595f7bf076a21cb5928d443d2a13b674"
              ],
              "data": "0x00000000000000000000000000000000000000000000000000000000000000200000000000000000000000000000000000000000000000000000000000000002000000000000000000000000000000000000000000000000000000000000004000000000000000000000000000000000000000000000000000000000000000e0000000000000000000000000000000000000000000000000000000000000759f000000000000000000000000000000000000000000000000000000000000000100000000000000000000000000000000000000000000000000000000000000600000000000000000000000000000000000000000000000000000000000000016000301001101000000000000000000000000000138800000000000000000000000000000000000000000000000000000000000000000000000000000000075e8000000000000000000000000000000000000000000000000000000000000000100000000000000000000000000000000000000000000000000000000000000600000000000000000000000000000000000000000000000000000000000000016000301001101000000000000000000000000000186a000000000000000000000",
              "blockHash": "0x01989fe115a21588bc9027cd506085e254935df9169be56813e7966b4bffb2c3",
              "blockNumber": "0x86f8627",
              "blockTimestamp": "0x68d2e607",
              "transactionHash": "0x102864c56ec0efc165fdee814175211091b466209d1287636f745871cbcd6bbb",
              "transactionIndex": "0x20",
              "logIndex": "0x4e",
              "removed": false
            }
          ],
          "logsBloom": "0x00000000000000000000000000000000000000000000000000000000000000000000000000000000000000000008000000000000000000000000400000000000000000000000000000000000100000000000000000000000000000000000000000000000000000000000000000000000000000000000000000000000000000000000000000000000000000000000000000000000000000000000000000080000000000000000000000000000000000000000000000000000000000000000000000000000000000000000000002001000000000000000000000000000000000000000000000000000000000000000000000000000000000000000000000000000",
          "type": "0x2",
          "transactionHash": "0x102864c56ec0efc165fdee814175211091b466209d1287636f745871cbcd6bbb",
          "transactionIndex": "0x20",
          "blockHash": "0x01989fe115a21588bc9027cd506085e254935df9169be56813e7966b4bffb2c3",
          "blockNumber": "0x86f8627",
          "gasUsed": "0x14274",
          "effectiveGasPrice": "0x7b6",
          "from": "0x0ece75f3c36f7df2136dac7633165dbff53de3cd",
          "to": "0x10fd0d8280e94d0dbc3013b778ef26d47105ea7b",
          "contractAddress": null,
          "l1BaseFeeScalar": "0x146b",
          "l1BlobBaseFee": "0x15",
          "l1BlobBaseFeeScalar": "0xf79c5",
          "l1Fee": "0x112f7e96b",
          "l1GasPrice": "0x188d2e9e",
          "l1GasUsed": "0x85e"
        },
        {
          "status": "0x1",
          "cumulativeGasUsed": "0x7d68fc",
          "logs": [
            {
              "address": "0x9f3d0beafad726bcfd3799f2b7b42eab889ac333",
              "topics": [
                "0xbe4864a8e820971c0247f5992e2da559595f7bf076a21cb5928d443d2a13b674"
              ],
              "data": "0x00000000000000000000000000000000000000000000000000000000000000200000000000000000000000000000000000000000000000000000000000000002000000000000000000000000000000000000000000000000000000000000004000000000000000000000000000000000000000000000000000000000000000e0000000000000000000000000000000000000000000000000000000000000759f000000000000000000000000000000000000000000000000000000000000000100000000000000000000000000000000000000000000000000000000000000600000000000000000000000000000000000000000000000000000000000000016000301001101000000000000000000000000000138800000000000000000000000000000000000000000000000000000000000000000000000000000000075e8000000000000000000000000000000000000000000000000000000000000000100000000000000000000000000000000000000000000000000000000000000600000000000000000000000000000000000000000000000000000000000000016000301001101000000000000000000000000000186a000000000000000000000",
              "blockHash": "0x01989fe115a21588bc9027cd506085e254935df9169be56813e7966b4bffb2c3",
              "blockNumber": "0x86f8627",
              "blockTimestamp": "0x68d2e607",
              "transactionHash": "0xc11a0ccd16c1b2431ced3135e515ed5ffedc733aeeb1f68254ab085964b6057d",
              "transactionIndex": "0x21",
              "logIndex": "0x4f",
              "removed": false
            }
          ],
          "logsBloom": "0x00000000000000000000000000000000000000000000000000000000000000000000000000000000000000000010000000000000000000000000400000000000000000000000000000000000000000000000000000000000000000000000000000000000000000000000000000000000000000000000000000000000000000000000000000000000000000000000000000000000000000000000000000080000000000000000000000000000000000000000000000000000000000000000000000000000000000000000000002000000000000000000000000000000000000000000000000000000000000000000000000000000001000010000000000000000",
          "type": "0x2",
          "transactionHash": "0xc11a0ccd16c1b2431ced3135e515ed5ffedc733aeeb1f68254ab085964b6057d",
          "transactionIndex": "0x21",
          "blockHash": "0x01989fe115a21588bc9027cd506085e254935df9169be56813e7966b4bffb2c3",
          "blockNumber": "0x86f8627",
          "gasUsed": "0x14274",
          "effectiveGasPrice": "0x7b6",
          "from": "0x0ece75f3c36f7df2136dac7633165dbff53de3cd",
          "to": "0x9f3d0beafad726bcfd3799f2b7b42eab889ac333",
          "contractAddress": null,
          "l1BaseFeeScalar": "0x146b",
          "l1BlobBaseFee": "0x15",
          "l1BlobBaseFeeScalar": "0xf79c5",
          "l1Fee": "0x112f7e96b",
          "l1GasPrice": "0x188d2e9e",
          "l1GasUsed": "0x85e"
        },
        {
          "status": "0x1",
          "cumulativeGasUsed": "0x7eab70",
          "logs": [
            {
              "address": "0x27eeda6b30dfce416d5de397c78f1e3c87e557bb",
              "topics": [
                "0xbe4864a8e820971c0247f5992e2da559595f7bf076a21cb5928d443d2a13b674"
              ],
              "data": "0x00000000000000000000000000000000000000000000000000000000000000200000000000000000000000000000000000000000000000000000000000000002000000000000000000000000000000000000000000000000000000000000004000000000000000000000000000000000000000000000000000000000000000e0000000000000000000000000000000000000000000000000000000000000759f000000000000000000000000000000000000000000000000000000000000000100000000000000000000000000000000000000000000000000000000000000600000000000000000000000000000000000000000000000000000000000000016000301001101000000000000000000000000000138800000000000000000000000000000000000000000000000000000000000000000000000000000000075e8000000000000000000000000000000000000000000000000000000000000000100000000000000000000000000000000000000000000000000000000000000600000000000000000000000000000000000000000000000000000000000000016000301001101000000000000000000000000000186a000000000000000000000",
              "blockHash": "0x01989fe115a21588bc9027cd506085e254935df9169be56813e7966b4bffb2c3",
              "blockNumber": "0x86f8627",
              "blockTimestamp": "0x68d2e607",
              "transactionHash": "0xdbc2e638a1412b4d3bb8f470dec26e5e1ee76261e38c3ec7b8420884e412ad33",
              "transactionIndex": "0x22",
              "logIndex": "0x50",
              "removed": false
            }
          ],
          "logsBloom": "0x00000000000000000000000400020000000000000000000000000000000000000000000000000000000000000000000000000000000000000000400000000000000000000000000000000000080000000000000000000000000000000000000000000000000000000000000000000000000000000000000000000000000000000000000000000000000000000000000000000000000000000000000000080000000000000000000000000000000000000000000000000000000000000000000000000000000000000000000002000000000000000000000000000000000000000000000000000000000000000000000000000000000000000000000000000000",
          "type": "0x2",
          "transactionHash": "0xdbc2e638a1412b4d3bb8f470dec26e5e1ee76261e38c3ec7b8420884e412ad33",
          "transactionIndex": "0x22",
          "blockHash": "0x01989fe115a21588bc9027cd506085e254935df9169be56813e7966b4bffb2c3",
          "blockNumber": "0x86f8627",
          "gasUsed": "0x14274",
          "effectiveGasPrice": "0x7b6",
          "from": "0x0ece75f3c36f7df2136dac7633165dbff53de3cd",
          "to": "0x27eeda6b30dfce416d5de397c78f1e3c87e557bb",
          "contractAddress": null,
          "l1BaseFeeScalar": "0x146b",
          "l1BlobBaseFee": "0x15",
          "l1BlobBaseFeeScalar": "0xf79c5",
          "l1Fee": "0x112f7e96b",
          "l1GasPrice": "0x188d2e9e",
          "l1GasUsed": "0x85e"
        },
        {
          "status": "0x1",
          "cumulativeGasUsed": "0x7fede4",
          "logs": [
            {
              "address": "0x5cf7bb8568491bb50a1941994fd3da4adf34fe28",
              "topics": [
                "0xbe4864a8e820971c0247f5992e2da559595f7bf076a21cb5928d443d2a13b674"
              ],
              "data": "0x00000000000000000000000000000000000000000000000000000000000000200000000000000000000000000000000000000000000000000000000000000002000000000000000000000000000000000000000000000000000000000000004000000000000000000000000000000000000000000000000000000000000000e0000000000000000000000000000000000000000000000000000000000000759f000000000000000000000000000000000000000000000000000000000000000100000000000000000000000000000000000000000000000000000000000000600000000000000000000000000000000000000000000000000000000000000016000301001101000000000000000000000000000138800000000000000000000000000000000000000000000000000000000000000000000000000000000075e8000000000000000000000000000000000000000000000000000000000000000100000000000000000000000000000000000000000000000000000000000000600000000000000000000000000000000000000000000000000000000000000016000301001101000000000000000000000000000186a000000000000000000000",
              "blockHash": "0x01989fe115a21588bc9027cd506085e254935df9169be56813e7966b4bffb2c3",
              "blockNumber": "0x86f8627",
              "blockTimestamp": "0x68d2e607",
              "transactionHash": "0x3b26942b8889a64dd95df712e45ddbab50b6d4188d4dadb34028fb7ca0ce73a7",
              "transactionIndex": "0x23",
              "logIndex": "0x51",
              "removed": false
            }
          ],
          "logsBloom": "0x00000000000000000000000000000000000000000000000000000000000000000000000000000000000000000000000000000000000000000000400000000000000000000000000000000000000000000000000000000000000000000000000000000000000000000000000000001000000000000000000000000000000000000000000000000000000000000000000000000000000080000000000000080000000000000000000000000000000000000000000000000000000040000000000000000000000000000000000002000000000000000000000000000000000000000000000000000000000000000000000000000000000000000000000000000000",
          "type": "0x2",
          "transactionHash": "0x3b26942b8889a64dd95df712e45ddbab50b6d4188d4dadb34028fb7ca0ce73a7",
          "transactionIndex": "0x23",
          "blockHash": "0x01989fe115a21588bc9027cd506085e254935df9169be56813e7966b4bffb2c3",
          "blockNumber": "0x86f8627",
          "gasUsed": "0x14274",
          "effectiveGasPrice": "0x7b6",
          "from": "0x0ece75f3c36f7df2136dac7633165dbff53de3cd",
          "to": "0x5cf7bb8568491bb50a1941994fd3da4adf34fe28",
          "contractAddress": null,
          "l1BaseFeeScalar": "0x146b",
          "l1BlobBaseFee": "0x15",
          "l1BlobBaseFeeScalar": "0xf79c5",
          "l1Fee": "0x112f7e96b",
          "l1GasPrice": "0x188d2e9e",
          "l1GasUsed": "0x85e"
        }
      ],
      "libraries": [],
      "pending": [],
      "returns": {},
      "timestamp": 1758651905435,
      "chain": 10,
      "commit": "53213c9"
    }
  ],
  "timestamp": 1758651911870
}